{
	"contracts/YunaswapRouter02.sol": {
		"YunaswapRouter02": {
			"abi": [
				{
					"inputs": [
						{
							"internalType": "address",
							"name": "_factory",
							"type": "address"
						}
					],
					"stateMutability": "nonpayable",
					"type": "constructor"
				},
				{
					"inputs": [
						{
							"internalType": "address",
							"name": "tokenA",
							"type": "address"
						},
						{
							"internalType": "address",
							"name": "tokenB",
							"type": "address"
						},
						{
							"internalType": "uint256",
							"name": "amountADesired",
							"type": "uint256"
						},
						{
							"internalType": "uint256",
							"name": "amountBDesired",
							"type": "uint256"
						},
						{
							"internalType": "uint256",
							"name": "amountAMin",
							"type": "uint256"
						},
						{
							"internalType": "uint256",
							"name": "amountBMin",
							"type": "uint256"
						},
						{
							"internalType": "address",
							"name": "to",
							"type": "address"
						},
						{
							"internalType": "uint256",
							"name": "deadline",
							"type": "uint256"
						}
					],
					"name": "addLiquidity",
					"outputs": [
						{
							"internalType": "uint256",
							"name": "amountA",
							"type": "uint256"
						},
						{
							"internalType": "uint256",
							"name": "amountB",
							"type": "uint256"
						},
						{
							"internalType": "uint256",
							"name": "liquidity",
							"type": "uint256"
						}
					],
					"stateMutability": "nonpayable",
					"type": "function"
				},
				{
					"inputs": [],
					"name": "factory",
					"outputs": [
						{
							"internalType": "address",
							"name": "",
							"type": "address"
						}
					],
					"stateMutability": "view",
					"type": "function"
				},
				{
					"inputs": [
						{
							"internalType": "uint256",
							"name": "amountOut",
							"type": "uint256"
						},
						{
							"internalType": "uint256",
							"name": "reserveIn",
							"type": "uint256"
						},
						{
							"internalType": "uint256",
							"name": "reserveOut",
							"type": "uint256"
						}
					],
					"name": "getAmountIn",
					"outputs": [
						{
							"internalType": "uint256",
							"name": "amountIn",
							"type": "uint256"
						}
					],
					"stateMutability": "pure",
					"type": "function"
				},
				{
					"inputs": [
						{
							"internalType": "uint256",
							"name": "amountIn",
							"type": "uint256"
						},
						{
							"internalType": "uint256",
							"name": "reserveIn",
							"type": "uint256"
						},
						{
							"internalType": "uint256",
							"name": "reserveOut",
							"type": "uint256"
						}
					],
					"name": "getAmountOut",
					"outputs": [
						{
							"internalType": "uint256",
							"name": "amountOut",
							"type": "uint256"
						}
					],
					"stateMutability": "pure",
					"type": "function"
				},
				{
					"inputs": [
						{
							"internalType": "uint256",
							"name": "amountOut",
							"type": "uint256"
						},
						{
							"internalType": "address[]",
							"name": "path",
							"type": "address[]"
						}
					],
					"name": "getAmountsIn",
					"outputs": [
						{
							"internalType": "uint256[]",
							"name": "amounts",
							"type": "uint256[]"
						}
					],
					"stateMutability": "view",
					"type": "function"
				},
				{
					"inputs": [
						{
							"internalType": "uint256",
							"name": "amountIn",
							"type": "uint256"
						},
						{
							"internalType": "address[]",
							"name": "path",
							"type": "address[]"
						}
					],
					"name": "getAmountsOut",
					"outputs": [
						{
							"internalType": "uint256[]",
							"name": "amounts",
							"type": "uint256[]"
						}
					],
					"stateMutability": "view",
					"type": "function"
				},
				{
					"inputs": [
						{
							"internalType": "uint256",
							"name": "amountA",
							"type": "uint256"
						},
						{
							"internalType": "uint256",
							"name": "reserveA",
							"type": "uint256"
						},
						{
							"internalType": "uint256",
							"name": "reserveB",
							"type": "uint256"
						}
					],
					"name": "quote",
					"outputs": [
						{
							"internalType": "uint256",
							"name": "amountB",
							"type": "uint256"
						}
					],
					"stateMutability": "pure",
					"type": "function"
				},
				{
					"inputs": [
						{
							"internalType": "address",
							"name": "tokenA",
							"type": "address"
						},
						{
							"internalType": "address",
							"name": "tokenB",
							"type": "address"
						},
						{
							"internalType": "uint256",
							"name": "liquidity",
							"type": "uint256"
						},
						{
							"internalType": "uint256",
							"name": "amountAMin",
							"type": "uint256"
						},
						{
							"internalType": "uint256",
							"name": "amountBMin",
							"type": "uint256"
						},
						{
							"internalType": "address",
							"name": "to",
							"type": "address"
						},
						{
							"internalType": "uint256",
							"name": "deadline",
							"type": "uint256"
						}
					],
					"name": "removeLiquidity",
					"outputs": [
						{
							"internalType": "uint256",
							"name": "amountA",
							"type": "uint256"
						},
						{
							"internalType": "uint256",
							"name": "amountB",
							"type": "uint256"
						}
					],
					"stateMutability": "nonpayable",
					"type": "function"
				},
				{
					"inputs": [
						{
							"internalType": "address",
							"name": "tokenA",
							"type": "address"
						},
						{
							"internalType": "address",
							"name": "tokenB",
							"type": "address"
						},
						{
							"internalType": "uint256",
							"name": "liquidity",
							"type": "uint256"
						},
						{
							"internalType": "uint256",
							"name": "amountAMin",
							"type": "uint256"
						},
						{
							"internalType": "uint256",
							"name": "amountBMin",
							"type": "uint256"
						},
						{
							"internalType": "address",
							"name": "to",
							"type": "address"
						},
						{
							"internalType": "uint256",
							"name": "deadline",
							"type": "uint256"
						},
						{
							"internalType": "bool",
							"name": "approveMax",
							"type": "bool"
						},
						{
							"internalType": "uint8",
							"name": "v",
							"type": "uint8"
						},
						{
							"internalType": "bytes32",
							"name": "r",
							"type": "bytes32"
						},
						{
							"internalType": "bytes32",
							"name": "s",
							"type": "bytes32"
						}
					],
					"name": "removeLiquidityWithPermit",
					"outputs": [
						{
							"internalType": "uint256",
							"name": "amountA",
							"type": "uint256"
						},
						{
							"internalType": "uint256",
							"name": "amountB",
							"type": "uint256"
						}
					],
					"stateMutability": "nonpayable",
					"type": "function"
				},
				{
					"inputs": [
						{
							"internalType": "uint256",
							"name": "amountIn",
							"type": "uint256"
						},
						{
							"internalType": "uint256",
							"name": "amountOutMin",
							"type": "uint256"
						},
						{
							"internalType": "address[]",
							"name": "path",
							"type": "address[]"
						},
						{
							"internalType": "address",
							"name": "to",
							"type": "address"
						},
						{
							"internalType": "uint256",
							"name": "deadline",
							"type": "uint256"
						}
					],
					"name": "swapExactTokensForTokens",
					"outputs": [
						{
							"internalType": "uint256[]",
							"name": "amounts",
							"type": "uint256[]"
						}
					],
					"stateMutability": "nonpayable",
					"type": "function"
				},
				{
					"inputs": [
						{
							"internalType": "uint256",
							"name": "amountIn",
							"type": "uint256"
						},
						{
							"internalType": "uint256",
							"name": "amountOutMin",
							"type": "uint256"
						},
						{
							"internalType": "address[]",
							"name": "path",
							"type": "address[]"
						},
						{
							"internalType": "address",
							"name": "to",
							"type": "address"
						},
						{
							"internalType": "uint256",
							"name": "deadline",
							"type": "uint256"
						}
					],
					"name": "swapExactTokensForTokensSupportingFeeOnTransferTokens",
					"outputs": [],
					"stateMutability": "nonpayable",
					"type": "function"
				},
				{
					"inputs": [
						{
							"internalType": "uint256",
							"name": "amountOut",
							"type": "uint256"
						},
						{
							"internalType": "uint256",
							"name": "amountInMax",
							"type": "uint256"
						},
						{
							"internalType": "address[]",
							"name": "path",
							"type": "address[]"
						},
						{
							"internalType": "address",
							"name": "to",
							"type": "address"
						},
						{
							"internalType": "uint256",
							"name": "deadline",
							"type": "uint256"
						}
					],
					"name": "swapTokensForExactTokens",
					"outputs": [
						{
							"internalType": "uint256[]",
							"name": "amounts",
							"type": "uint256[]"
						}
					],
					"stateMutability": "nonpayable",
					"type": "function"
				}
			],
			"devdoc": {
				"methods": {}
			},
			"evm": {
				"assembly": "    /* \"contracts/YunaswapRouter02.sol\":301:9715  contract YunaswapRouter02 is IYunaswapRouter02 {... */\n  mstore(0x40, 0xa0)\n    /* \"contracts/YunaswapRouter02.sol\":560:632  constructor(address _factory) public {... */\n  callvalue\n    /* \"--CODEGEN--\":5:14   */\n  dup1\n    /* \"--CODEGEN--\":2:4   */\n  iszero\n  tag_1\n  jumpi\n    /* \"--CODEGEN--\":27:28   */\n  0x00\n    /* \"--CODEGEN--\":24:25   */\n  dup1\n    /* \"--CODEGEN--\":17:29   */\n  revert\n    /* \"--CODEGEN--\":2:4   */\ntag_1:\n    /* \"contracts/YunaswapRouter02.sol\":560:632  constructor(address _factory) public {... */\n  pop\n  mload(0x40)\n  sub(codesize, bytecodeSize)\n  dup1\n  bytecodeSize\n  dup4\n  codecopy\n  dup2\n  dup2\n  add\n  0x40\n  mstore\n    /* \"--CODEGEN--\":15:17   */\n  0x20\n    /* \"--CODEGEN--\":10:13   */\n  dup2\n    /* \"--CODEGEN--\":7:18   */\n  lt\n    /* \"--CODEGEN--\":4:6   */\n  iszero\n  tag_2\n  jumpi\n    /* \"--CODEGEN--\":31:32   */\n  0x00\n    /* \"--CODEGEN--\":28:29   */\n  dup1\n    /* \"--CODEGEN--\":21:33   */\n  revert\n    /* \"--CODEGEN--\":4:6   */\ntag_2:\n    /* \"contracts/YunaswapRouter02.sol\":560:632  constructor(address _factory) public {... */\n  dup2\n  add\n  swap1\n  dup1\n  dup1\n  mload\n  swap1\n  0x20\n  add\n  swap1\n  swap3\n  swap2\n  swap1\n  pop\n  pop\n  pop\n    /* \"contracts/YunaswapRouter02.sol\":617:625  _factory */\n  dup1\n    /* \"contracts/YunaswapRouter02.sol\":607:625  factory = _factory */\n  0xffffffffffffffffffffffffffffffffffffffff\n  and\n  0x80\n  dup2\n  0xffffffffffffffffffffffffffffffffffffffff\n  and\n  0x60\n  shl\n  dup2\n  mstore\n  pop\n  pop\n    /* \"contracts/YunaswapRouter02.sol\":560:632  constructor(address _factory) public {... */\n  pop\n    /* \"contracts/YunaswapRouter02.sol\":301:9715  contract YunaswapRouter02 is IYunaswapRouter02 {... */\n  shr(0x60, mload(0x80))\n  codecopy(0x00, dataOffset(sub_0), dataSize(sub_0))\n  assignImmutable(\"0x277ab82e5a4641341820a4a2933a62c1de997e42e92548657ae21b3728d580fe\")\n  return(0x00, dataSize(sub_0))\nstop\n\nsub_0: assembly {\n        /* \"contracts/YunaswapRouter02.sol\":301:9715  contract YunaswapRouter02 is IYunaswapRouter02 {... */\n      mstore(0x40, 0x80)\n      callvalue\n        /* \"--CODEGEN--\":5:14   */\n      dup1\n        /* \"--CODEGEN--\":2:4   */\n      iszero\n      tag_1\n      jumpi\n        /* \"--CODEGEN--\":27:28   */\n      0x00\n        /* \"--CODEGEN--\":24:25   */\n      dup1\n        /* \"--CODEGEN--\":17:29   */\n      revert\n        /* \"--CODEGEN--\":2:4   */\n    tag_1:\n        /* \"contracts/YunaswapRouter02.sol\":301:9715  contract YunaswapRouter02 is IYunaswapRouter02 {... */\n      pop\n      jumpi(tag_2, lt(calldatasize, 0x04))\n      shr(0xe0, calldataload(0x00))\n      dup1\n      0x8803dbee\n      gt\n      tag_15\n      jumpi\n      dup1\n      0x8803dbee\n      eq\n      tag_9\n      jumpi\n      dup1\n      0xad615dec\n      eq\n      tag_10\n      jumpi\n      dup1\n      0xbaa2abde\n      eq\n      tag_11\n      jumpi\n      dup1\n      0xc45a0155\n      eq\n      tag_12\n      jumpi\n      dup1\n      0xd06ca61f\n      eq\n      tag_13\n      jumpi\n      dup1\n      0xe8e33700\n      eq\n      tag_14\n      jumpi\n      jump(tag_2)\n    tag_15:\n      dup1\n      0x054d50d4\n      eq\n      tag_3\n      jumpi\n      dup1\n      0x1f00ca74\n      eq\n      tag_4\n      jumpi\n      dup1\n      0x2195995c\n      eq\n      tag_5\n      jumpi\n      dup1\n      0x38ed1739\n      eq\n      tag_6\n      jumpi\n      dup1\n      0x5c11d795\n      eq\n      tag_7\n      jumpi\n      dup1\n      0x85f8c259\n      eq\n      tag_8\n      jumpi\n    tag_2:\n        /* \"--CODEGEN--\":12:13   */\n      0x00\n        /* \"--CODEGEN--\":9:10   */\n      dup1\n        /* \"--CODEGEN--\":2:14   */\n      revert\n        /* \"contracts/YunaswapRouter02.sol\":8702:8955  function getAmountOut(uint amountIn, uint reserveIn, uint reserveOut)... */\n    tag_3:\n      tag_16\n      0x04\n      dup1\n      calldatasize\n      sub\n        /* \"--CODEGEN--\":15:17   */\n      0x60\n        /* \"--CODEGEN--\":10:13   */\n      dup2\n        /* \"--CODEGEN--\":7:18   */\n      lt\n        /* \"--CODEGEN--\":4:6   */\n      iszero\n      tag_17\n      jumpi\n        /* \"--CODEGEN--\":31:32   */\n      0x00\n        /* \"--CODEGEN--\":28:29   */\n      dup1\n        /* \"--CODEGEN--\":21:33   */\n      revert\n        /* \"--CODEGEN--\":4:6   */\n    tag_17:\n        /* \"contracts/YunaswapRouter02.sol\":8702:8955  function getAmountOut(uint amountIn, uint reserveIn, uint reserveOut)... */\n      dup2\n      add\n      swap1\n      dup1\n      dup1\n      calldataload\n      swap1\n      0x20\n      add\n      swap1\n      swap3\n      swap2\n      swap1\n      dup1\n      calldataload\n      swap1\n      0x20\n      add\n      swap1\n      swap3\n      swap2\n      swap1\n      dup1\n      calldataload\n      swap1\n      0x20\n      add\n      swap1\n      swap3\n      swap2\n      swap1\n      pop\n      pop\n      pop\n      tag_18\n      jump\t// in\n    tag_16:\n      mload(0x40)\n      dup1\n      dup3\n      dup2\n      mstore\n      0x20\n      add\n      swap2\n      pop\n      pop\n      mload(0x40)\n      dup1\n      swap2\n      sub\n      swap1\n      return\n        /* \"contracts/YunaswapRouter02.sol\":9469:9713  function getAmountsIn(uint amountOut, address[] memory path)... */\n    tag_4:\n      tag_19\n      0x04\n      dup1\n      calldatasize\n      sub\n        /* \"--CODEGEN--\":15:17   */\n      0x40\n        /* \"--CODEGEN--\":10:13   */\n      dup2\n        /* \"--CODEGEN--\":7:18   */\n      lt\n        /* \"--CODEGEN--\":4:6   */\n      iszero\n      tag_20\n      jumpi\n        /* \"--CODEGEN--\":31:32   */\n      0x00\n        /* \"--CODEGEN--\":28:29   */\n      dup1\n        /* \"--CODEGEN--\":21:33   */\n      revert\n        /* \"--CODEGEN--\":4:6   */\n    tag_20:\n        /* \"contracts/YunaswapRouter02.sol\":9469:9713  function getAmountsIn(uint amountOut, address[] memory path)... */\n      dup2\n      add\n      swap1\n      dup1\n      dup1\n      calldataload\n      swap1\n      0x20\n      add\n      swap1\n      swap3\n      swap2\n      swap1\n      dup1\n      calldataload\n      swap1\n      0x20\n      add\n      swap1\n        /* \"--CODEGEN--\":27:38   */\n      0x0100000000\n        /* \"--CODEGEN--\":14:25   */\n      dup2\n        /* \"--CODEGEN--\":11:39   */\n      gt\n        /* \"--CODEGEN--\":8:10   */\n      iszero\n      tag_21\n      jumpi\n        /* \"--CODEGEN--\":52:53   */\n      0x00\n        /* \"--CODEGEN--\":49:50   */\n      dup1\n        /* \"--CODEGEN--\":42:54   */\n      revert\n        /* \"--CODEGEN--\":8:10   */\n    tag_21:\n        /* \"contracts/YunaswapRouter02.sol\":9469:9713  function getAmountsIn(uint amountOut, address[] memory path)... */\n      dup3\n      add\n        /* \"--CODEGEN--\":41:50   */\n      dup4\n        /* \"--CODEGEN--\":34:38   */\n      0x20\n        /* \"--CODEGEN--\":18:32   */\n      dup3\n        /* \"--CODEGEN--\":14:39   */\n      add\n        /* \"--CODEGEN--\":11:51   */\n      gt\n        /* \"--CODEGEN--\":8:10   */\n      iszero\n      tag_22\n      jumpi\n        /* \"--CODEGEN--\":64:65   */\n      0x00\n        /* \"--CODEGEN--\":61:62   */\n      dup1\n        /* \"--CODEGEN--\":54:66   */\n      revert\n        /* \"--CODEGEN--\":8:10   */\n    tag_22:\n        /* \"contracts/YunaswapRouter02.sol\":9469:9713  function getAmountsIn(uint amountOut, address[] memory path)... */\n      dup1\n      calldataload\n      swap1\n      0x20\n      add\n      swap2\n        /* \"--CODEGEN--\":101:110   */\n      dup5\n        /* \"--CODEGEN--\":95:97   */\n      0x20\n        /* \"--CODEGEN--\":81:93   */\n      dup4\n        /* \"--CODEGEN--\":77:98   */\n      mul\n        /* \"--CODEGEN--\":67:75   */\n      dup5\n        /* \"--CODEGEN--\":63:99   */\n      add\n        /* \"--CODEGEN--\":60:111   */\n      gt\n        /* \"--CODEGEN--\":39:50   */\n      0x0100000000\n        /* \"--CODEGEN--\":25:37   */\n      dup4\n        /* \"--CODEGEN--\":22:51   */\n      gt\n        /* \"--CODEGEN--\":11:119   */\n      or\n        /* \"--CODEGEN--\":8:10   */\n      iszero\n      tag_23\n      jumpi\n        /* \"--CODEGEN--\":132:133   */\n      0x00\n        /* \"--CODEGEN--\":129:130   */\n      dup1\n        /* \"--CODEGEN--\":122:134   */\n      revert\n        /* \"--CODEGEN--\":8:10   */\n    tag_23:\n        /* \"contracts/YunaswapRouter02.sol\":9469:9713  function getAmountsIn(uint amountOut, address[] memory path)... */\n      swap2\n      swap1\n      dup1\n      dup1\n      0x20\n      mul\n      0x20\n      add\n      mload(0x40)\n      swap1\n      dup2\n      add\n      0x40\n      mstore\n      dup1\n      swap4\n      swap3\n      swap2\n      swap1\n      dup2\n      dup2\n      mstore\n      0x20\n      add\n      dup4\n      dup4\n      0x20\n      mul\n        /* \"--CODEGEN--\":30:33   */\n      dup1\n        /* \"--CODEGEN--\":22:28   */\n      dup3\n        /* \"--CODEGEN--\":14:20   */\n      dup5\n        /* \"--CODEGEN--\":1:34   */\n      calldatacopy\n        /* \"--CODEGEN--\":99:100   */\n      0x00\n        /* \"--CODEGEN--\":93:96   */\n      dup2\n        /* \"--CODEGEN--\":85:91   */\n      dup5\n        /* \"--CODEGEN--\":81:97   */\n      add\n        /* \"--CODEGEN--\":74:101   */\n      mstore\n        /* \"--CODEGEN--\":137:141   */\n      0x1f\n        /* \"--CODEGEN--\":133:142   */\n      not\n        /* \"--CODEGEN--\":126:130   */\n      0x1f\n        /* \"--CODEGEN--\":121:124   */\n      dup3\n        /* \"--CODEGEN--\":117:131   */\n      add\n        /* \"--CODEGEN--\":113:143   */\n      and\n        /* \"--CODEGEN--\":106:143   */\n      swap1\n      pop\n        /* \"--CODEGEN--\":169:172   */\n      dup1\n        /* \"--CODEGEN--\":161:167   */\n      dup4\n        /* \"--CODEGEN--\":157:173   */\n      add\n        /* \"--CODEGEN--\":147:173   */\n      swap3\n      pop\n        /* \"contracts/YunaswapRouter02.sol\":9469:9713  function getAmountsIn(uint amountOut, address[] memory path)... */\n      pop\n      pop\n      pop\n      pop\n      pop\n      pop\n      swap2\n      swap3\n      swap2\n      swap3\n      swap1\n      pop\n      pop\n      pop\n      tag_24\n      jump\t// in\n    tag_19:\n      mload(0x40)\n      dup1\n      dup1\n      0x20\n      add\n      dup3\n      dup2\n      sub\n      dup3\n      mstore\n      dup4\n      dup2\n      dup2\n      mload\n      dup2\n      mstore\n      0x20\n      add\n      swap2\n      pop\n      dup1\n      mload\n      swap1\n      0x20\n      add\n      swap1\n      0x20\n      mul\n      dup1\n      dup4\n      dup4\n        /* \"--CODEGEN--\":23:24   */\n      0x00\n        /* \"--CODEGEN--\":8:108   */\n    tag_25:\n        /* \"--CODEGEN--\":33:36   */\n      dup4\n        /* \"--CODEGEN--\":30:31   */\n      dup2\n        /* \"--CODEGEN--\":27:37   */\n      lt\n        /* \"--CODEGEN--\":8:108   */\n      iszero\n      tag_27\n      jumpi\n        /* \"--CODEGEN--\":99:100   */\n      dup1\n        /* \"--CODEGEN--\":94:97   */\n      dup3\n        /* \"--CODEGEN--\":90:101   */\n      add\n        /* \"--CODEGEN--\":84:102   */\n      mload\n        /* \"--CODEGEN--\":80:81   */\n      dup2\n        /* \"--CODEGEN--\":75:78   */\n      dup5\n        /* \"--CODEGEN--\":71:82   */\n      add\n        /* \"--CODEGEN--\":64:103   */\n      mstore\n        /* \"--CODEGEN--\":52:54   */\n      0x20\n        /* \"--CODEGEN--\":49:50   */\n      dup2\n        /* \"--CODEGEN--\":45:55   */\n      add\n        /* \"--CODEGEN--\":40:55   */\n      swap1\n      pop\n        /* \"--CODEGEN--\":8:108   */\n      jump(tag_25)\n    tag_27:\n        /* \"--CODEGEN--\":12:26   */\n      pop\n        /* \"contracts/YunaswapRouter02.sol\":9469:9713  function getAmountsIn(uint amountOut, address[] memory path)... */\n      pop\n      pop\n      pop\n      swap1\n      pop\n      add\n      swap3\n      pop\n      pop\n      pop\n      mload(0x40)\n      dup1\n      swap2\n      sub\n      swap1\n      return\n        /* \"contracts/YunaswapRouter02.sol\":3639:4300  function removeLiquidityWithPermit(... */\n    tag_5:\n      tag_28\n      0x04\n      dup1\n      calldatasize\n      sub\n        /* \"--CODEGEN--\":15:18   */\n      0x0160\n        /* \"--CODEGEN--\":10:13   */\n      dup2\n        /* \"--CODEGEN--\":7:19   */\n      lt\n        /* \"--CODEGEN--\":4:6   */\n      iszero\n      tag_29\n      jumpi\n        /* \"--CODEGEN--\":32:33   */\n      0x00\n        /* \"--CODEGEN--\":29:30   */\n      dup1\n        /* \"--CODEGEN--\":22:34   */\n      revert\n        /* \"--CODEGEN--\":4:6   */\n    tag_29:\n        /* \"contracts/YunaswapRouter02.sol\":3639:4300  function removeLiquidityWithPermit(... */\n      dup2\n      add\n      swap1\n      dup1\n      dup1\n      calldataload\n      0xffffffffffffffffffffffffffffffffffffffff\n      and\n      swap1\n      0x20\n      add\n      swap1\n      swap3\n      swap2\n      swap1\n      dup1\n      calldataload\n      0xffffffffffffffffffffffffffffffffffffffff\n      and\n      swap1\n      0x20\n      add\n      swap1\n      swap3\n      swap2\n      swap1\n      dup1\n      calldataload\n      swap1\n      0x20\n      add\n      swap1\n      swap3\n      swap2\n      swap1\n      dup1\n      calldataload\n      swap1\n      0x20\n      add\n      swap1\n      swap3\n      swap2\n      swap1\n      dup1\n      calldataload\n      swap1\n      0x20\n      add\n      swap1\n      swap3\n      swap2\n      swap1\n      dup1\n      calldataload\n      0xffffffffffffffffffffffffffffffffffffffff\n      and\n      swap1\n      0x20\n      add\n      swap1\n      swap3\n      swap2\n      swap1\n      dup1\n      calldataload\n      swap1\n      0x20\n      add\n      swap1\n      swap3\n      swap2\n      swap1\n      dup1\n      calldataload\n      iszero\n      iszero\n      swap1\n      0x20\n      add\n      swap1\n      swap3\n      swap2\n      swap1\n      dup1\n      calldataload\n      0xff\n      and\n      swap1\n      0x20\n      add\n      swap1\n      swap3\n      swap2\n      swap1\n      dup1\n      calldataload\n      swap1\n      0x20\n      add\n      swap1\n      swap3\n      swap2\n      swap1\n      dup1\n      calldataload\n      swap1\n      0x20\n      add\n      swap1\n      swap3\n      swap2\n      swap1\n      pop\n      pop\n      pop\n      tag_30\n      jump\t// in\n    tag_28:\n      mload(0x40)\n      dup1\n      dup4\n      dup2\n      mstore\n      0x20\n      add\n      dup3\n      dup2\n      mstore\n      0x20\n      add\n      swap3\n      pop\n      pop\n      pop\n      mload(0x40)\n      dup1\n      swap2\n      sub\n      swap1\n      return\n        /* \"contracts/YunaswapRouter02.sol\":5207:5819  function swapExactTokensForTokens(... */\n    tag_6:\n      tag_31\n      0x04\n      dup1\n      calldatasize\n      sub\n        /* \"--CODEGEN--\":15:18   */\n      0xa0\n        /* \"--CODEGEN--\":10:13   */\n      dup2\n        /* \"--CODEGEN--\":7:19   */\n      lt\n        /* \"--CODEGEN--\":4:6   */\n      iszero\n      tag_32\n      jumpi\n        /* \"--CODEGEN--\":32:33   */\n      0x00\n        /* \"--CODEGEN--\":29:30   */\n      dup1\n        /* \"--CODEGEN--\":22:34   */\n      revert\n        /* \"--CODEGEN--\":4:6   */\n    tag_32:\n        /* \"contracts/YunaswapRouter02.sol\":5207:5819  function swapExactTokensForTokens(... */\n      dup2\n      add\n      swap1\n      dup1\n      dup1\n      calldataload\n      swap1\n      0x20\n      add\n      swap1\n      swap3\n      swap2\n      swap1\n      dup1\n      calldataload\n      swap1\n      0x20\n      add\n      swap1\n      swap3\n      swap2\n      swap1\n      dup1\n      calldataload\n      swap1\n      0x20\n      add\n      swap1\n        /* \"--CODEGEN--\":27:38   */\n      0x0100000000\n        /* \"--CODEGEN--\":14:25   */\n      dup2\n        /* \"--CODEGEN--\":11:39   */\n      gt\n        /* \"--CODEGEN--\":8:10   */\n      iszero\n      tag_33\n      jumpi\n        /* \"--CODEGEN--\":52:53   */\n      0x00\n        /* \"--CODEGEN--\":49:50   */\n      dup1\n        /* \"--CODEGEN--\":42:54   */\n      revert\n        /* \"--CODEGEN--\":8:10   */\n    tag_33:\n        /* \"contracts/YunaswapRouter02.sol\":5207:5819  function swapExactTokensForTokens(... */\n      dup3\n      add\n        /* \"--CODEGEN--\":41:50   */\n      dup4\n        /* \"--CODEGEN--\":34:38   */\n      0x20\n        /* \"--CODEGEN--\":18:32   */\n      dup3\n        /* \"--CODEGEN--\":14:39   */\n      add\n        /* \"--CODEGEN--\":11:51   */\n      gt\n        /* \"--CODEGEN--\":8:10   */\n      iszero\n      tag_34\n      jumpi\n        /* \"--CODEGEN--\":64:65   */\n      0x00\n        /* \"--CODEGEN--\":61:62   */\n      dup1\n        /* \"--CODEGEN--\":54:66   */\n      revert\n        /* \"--CODEGEN--\":8:10   */\n    tag_34:\n        /* \"contracts/YunaswapRouter02.sol\":5207:5819  function swapExactTokensForTokens(... */\n      dup1\n      calldataload\n      swap1\n      0x20\n      add\n      swap2\n        /* \"--CODEGEN--\":101:110   */\n      dup5\n        /* \"--CODEGEN--\":95:97   */\n      0x20\n        /* \"--CODEGEN--\":81:93   */\n      dup4\n        /* \"--CODEGEN--\":77:98   */\n      mul\n        /* \"--CODEGEN--\":67:75   */\n      dup5\n        /* \"--CODEGEN--\":63:99   */\n      add\n        /* \"--CODEGEN--\":60:111   */\n      gt\n        /* \"--CODEGEN--\":39:50   */\n      0x0100000000\n        /* \"--CODEGEN--\":25:37   */\n      dup4\n        /* \"--CODEGEN--\":22:51   */\n      gt\n        /* \"--CODEGEN--\":11:119   */\n      or\n        /* \"--CODEGEN--\":8:10   */\n      iszero\n      tag_35\n      jumpi\n        /* \"--CODEGEN--\":132:133   */\n      0x00\n        /* \"--CODEGEN--\":129:130   */\n      dup1\n        /* \"--CODEGEN--\":122:134   */\n      revert\n        /* \"--CODEGEN--\":8:10   */\n    tag_35:\n        /* \"contracts/YunaswapRouter02.sol\":5207:5819  function swapExactTokensForTokens(... */\n      swap1\n      swap2\n      swap3\n      swap4\n      swap2\n      swap3\n      swap4\n      swap1\n      dup1\n      calldataload\n      0xffffffffffffffffffffffffffffffffffffffff\n      and\n      swap1\n      0x20\n      add\n      swap1\n      swap3\n      swap2\n      swap1\n      dup1\n      calldataload\n      swap1\n      0x20\n      add\n      swap1\n      swap3\n      swap2\n      swap1\n      pop\n      pop\n      pop\n      tag_36\n      jump\t// in\n    tag_31:\n      mload(0x40)\n      dup1\n      dup1\n      0x20\n      add\n      dup3\n      dup2\n      sub\n      dup3\n      mstore\n      dup4\n      dup2\n      dup2\n      mload\n      dup2\n      mstore\n      0x20\n      add\n      swap2\n      pop\n      dup1\n      mload\n      swap1\n      0x20\n      add\n      swap1\n      0x20\n      mul\n      dup1\n      dup4\n      dup4\n        /* \"--CODEGEN--\":23:24   */\n      0x00\n        /* \"--CODEGEN--\":8:108   */\n    tag_37:\n        /* \"--CODEGEN--\":33:36   */\n      dup4\n        /* \"--CODEGEN--\":30:31   */\n      dup2\n        /* \"--CODEGEN--\":27:37   */\n      lt\n        /* \"--CODEGEN--\":8:108   */\n      iszero\n      tag_39\n      jumpi\n        /* \"--CODEGEN--\":99:100   */\n      dup1\n        /* \"--CODEGEN--\":94:97   */\n      dup3\n        /* \"--CODEGEN--\":90:101   */\n      add\n        /* \"--CODEGEN--\":84:102   */\n      mload\n        /* \"--CODEGEN--\":80:81   */\n      dup2\n        /* \"--CODEGEN--\":75:78   */\n      dup5\n        /* \"--CODEGEN--\":71:82   */\n      add\n        /* \"--CODEGEN--\":64:103   */\n      mstore\n        /* \"--CODEGEN--\":52:54   */\n      0x20\n        /* \"--CODEGEN--\":49:50   */\n      dup2\n        /* \"--CODEGEN--\":45:55   */\n      add\n        /* \"--CODEGEN--\":40:55   */\n      swap1\n      pop\n        /* \"--CODEGEN--\":8:108   */\n      jump(tag_37)\n    tag_39:\n        /* \"--CODEGEN--\":12:26   */\n      pop\n        /* \"contracts/YunaswapRouter02.sol\":5207:5819  function swapExactTokensForTokens(... */\n      pop\n      pop\n      pop\n      swap1\n      pop\n      add\n      swap3\n      pop\n      pop\n      pop\n      mload(0x40)\n      dup1\n      swap2\n      sub\n      swap1\n      return\n        /* \"contracts/YunaswapRouter02.sol\":7767:8463  function swapExactTokensForTokensSupportingFeeOnTransferTokens(... */\n    tag_7:\n      tag_40\n      0x04\n      dup1\n      calldatasize\n      sub\n        /* \"--CODEGEN--\":15:18   */\n      0xa0\n        /* \"--CODEGEN--\":10:13   */\n      dup2\n        /* \"--CODEGEN--\":7:19   */\n      lt\n        /* \"--CODEGEN--\":4:6   */\n      iszero\n      tag_41\n      jumpi\n        /* \"--CODEGEN--\":32:33   */\n      0x00\n        /* \"--CODEGEN--\":29:30   */\n      dup1\n        /* \"--CODEGEN--\":22:34   */\n      revert\n        /* \"--CODEGEN--\":4:6   */\n    tag_41:\n        /* \"contracts/YunaswapRouter02.sol\":7767:8463  function swapExactTokensForTokensSupportingFeeOnTransferTokens(... */\n      dup2\n      add\n      swap1\n      dup1\n      dup1\n      calldataload\n      swap1\n      0x20\n      add\n      swap1\n      swap3\n      swap2\n      swap1\n      dup1\n      calldataload\n      swap1\n      0x20\n      add\n      swap1\n      swap3\n      swap2\n      swap1\n      dup1\n      calldataload\n      swap1\n      0x20\n      add\n      swap1\n        /* \"--CODEGEN--\":27:38   */\n      0x0100000000\n        /* \"--CODEGEN--\":14:25   */\n      dup2\n        /* \"--CODEGEN--\":11:39   */\n      gt\n        /* \"--CODEGEN--\":8:10   */\n      iszero\n      tag_42\n      jumpi\n        /* \"--CODEGEN--\":52:53   */\n      0x00\n        /* \"--CODEGEN--\":49:50   */\n      dup1\n        /* \"--CODEGEN--\":42:54   */\n      revert\n        /* \"--CODEGEN--\":8:10   */\n    tag_42:\n        /* \"contracts/YunaswapRouter02.sol\":7767:8463  function swapExactTokensForTokensSupportingFeeOnTransferTokens(... */\n      dup3\n      add\n        /* \"--CODEGEN--\":41:50   */\n      dup4\n        /* \"--CODEGEN--\":34:38   */\n      0x20\n        /* \"--CODEGEN--\":18:32   */\n      dup3\n        /* \"--CODEGEN--\":14:39   */\n      add\n        /* \"--CODEGEN--\":11:51   */\n      gt\n        /* \"--CODEGEN--\":8:10   */\n      iszero\n      tag_43\n      jumpi\n        /* \"--CODEGEN--\":64:65   */\n      0x00\n        /* \"--CODEGEN--\":61:62   */\n      dup1\n        /* \"--CODEGEN--\":54:66   */\n      revert\n        /* \"--CODEGEN--\":8:10   */\n    tag_43:\n        /* \"contracts/YunaswapRouter02.sol\":7767:8463  function swapExactTokensForTokensSupportingFeeOnTransferTokens(... */\n      dup1\n      calldataload\n      swap1\n      0x20\n      add\n      swap2\n        /* \"--CODEGEN--\":101:110   */\n      dup5\n        /* \"--CODEGEN--\":95:97   */\n      0x20\n        /* \"--CODEGEN--\":81:93   */\n      dup4\n        /* \"--CODEGEN--\":77:98   */\n      mul\n        /* \"--CODEGEN--\":67:75   */\n      dup5\n        /* \"--CODEGEN--\":63:99   */\n      add\n        /* \"--CODEGEN--\":60:111   */\n      gt\n        /* \"--CODEGEN--\":39:50   */\n      0x0100000000\n        /* \"--CODEGEN--\":25:37   */\n      dup4\n        /* \"--CODEGEN--\":22:51   */\n      gt\n        /* \"--CODEGEN--\":11:119   */\n      or\n        /* \"--CODEGEN--\":8:10   */\n      iszero\n      tag_44\n      jumpi\n        /* \"--CODEGEN--\":132:133   */\n      0x00\n        /* \"--CODEGEN--\":129:130   */\n      dup1\n        /* \"--CODEGEN--\":122:134   */\n      revert\n        /* \"--CODEGEN--\":8:10   */\n    tag_44:\n        /* \"contracts/YunaswapRouter02.sol\":7767:8463  function swapExactTokensForTokensSupportingFeeOnTransferTokens(... */\n      swap1\n      swap2\n      swap3\n      swap4\n      swap2\n      swap3\n      swap4\n      swap1\n      dup1\n      calldataload\n      0xffffffffffffffffffffffffffffffffffffffff\n      and\n      swap1\n      0x20\n      add\n      swap1\n      swap3\n      swap2\n      swap1\n      dup1\n      calldataload\n      swap1\n      0x20\n      add\n      swap1\n      swap3\n      swap2\n      swap1\n      pop\n      pop\n      pop\n      tag_45\n      jump\t// in\n    tag_40:\n      stop\n        /* \"contracts/YunaswapRouter02.sol\":8961:9213  function getAmountIn(uint amountOut, uint reserveIn, uint reserveOut)... */\n    tag_8:\n      tag_46\n      0x04\n      dup1\n      calldatasize\n      sub\n        /* \"--CODEGEN--\":15:17   */\n      0x60\n        /* \"--CODEGEN--\":10:13   */\n      dup2\n        /* \"--CODEGEN--\":7:18   */\n      lt\n        /* \"--CODEGEN--\":4:6   */\n      iszero\n      tag_47\n      jumpi\n        /* \"--CODEGEN--\":31:32   */\n      0x00\n        /* \"--CODEGEN--\":28:29   */\n      dup1\n        /* \"--CODEGEN--\":21:33   */\n      revert\n        /* \"--CODEGEN--\":4:6   */\n    tag_47:\n        /* \"contracts/YunaswapRouter02.sol\":8961:9213  function getAmountIn(uint amountOut, uint reserveIn, uint reserveOut)... */\n      dup2\n      add\n      swap1\n      dup1\n      dup1\n      calldataload\n      swap1\n      0x20\n      add\n      swap1\n      swap3\n      swap2\n      swap1\n      dup1\n      calldataload\n      swap1\n      0x20\n      add\n      swap1\n      swap3\n      swap2\n      swap1\n      dup1\n      calldataload\n      swap1\n      0x20\n      add\n      swap1\n      swap3\n      swap2\n      swap1\n      pop\n      pop\n      pop\n      tag_48\n      jump\t// in\n    tag_46:\n      mload(0x40)\n      dup1\n      dup3\n      dup2\n      mstore\n      0x20\n      add\n      swap2\n      pop\n      pop\n      mload(0x40)\n      dup1\n      swap2\n      sub\n      swap1\n      return\n        /* \"contracts/YunaswapRouter02.sol\":5824:6414  function swapTokensForExactTokens(... */\n    tag_9:\n      tag_49\n      0x04\n      dup1\n      calldatasize\n      sub\n        /* \"--CODEGEN--\":15:18   */\n      0xa0\n        /* \"--CODEGEN--\":10:13   */\n      dup2\n        /* \"--CODEGEN--\":7:19   */\n      lt\n        /* \"--CODEGEN--\":4:6   */\n      iszero\n      tag_50\n      jumpi\n        /* \"--CODEGEN--\":32:33   */\n      0x00\n        /* \"--CODEGEN--\":29:30   */\n      dup1\n        /* \"--CODEGEN--\":22:34   */\n      revert\n        /* \"--CODEGEN--\":4:6   */\n    tag_50:\n        /* \"contracts/YunaswapRouter02.sol\":5824:6414  function swapTokensForExactTokens(... */\n      dup2\n      add\n      swap1\n      dup1\n      dup1\n      calldataload\n      swap1\n      0x20\n      add\n      swap1\n      swap3\n      swap2\n      swap1\n      dup1\n      calldataload\n      swap1\n      0x20\n      add\n      swap1\n      swap3\n      swap2\n      swap1\n      dup1\n      calldataload\n      swap1\n      0x20\n      add\n      swap1\n        /* \"--CODEGEN--\":27:38   */\n      0x0100000000\n        /* \"--CODEGEN--\":14:25   */\n      dup2\n        /* \"--CODEGEN--\":11:39   */\n      gt\n        /* \"--CODEGEN--\":8:10   */\n      iszero\n      tag_51\n      jumpi\n        /* \"--CODEGEN--\":52:53   */\n      0x00\n        /* \"--CODEGEN--\":49:50   */\n      dup1\n        /* \"--CODEGEN--\":42:54   */\n      revert\n        /* \"--CODEGEN--\":8:10   */\n    tag_51:\n        /* \"contracts/YunaswapRouter02.sol\":5824:6414  function swapTokensForExactTokens(... */\n      dup3\n      add\n        /* \"--CODEGEN--\":41:50   */\n      dup4\n        /* \"--CODEGEN--\":34:38   */\n      0x20\n        /* \"--CODEGEN--\":18:32   */\n      dup3\n        /* \"--CODEGEN--\":14:39   */\n      add\n        /* \"--CODEGEN--\":11:51   */\n      gt\n        /* \"--CODEGEN--\":8:10   */\n      iszero\n      tag_52\n      jumpi\n        /* \"--CODEGEN--\":64:65   */\n      0x00\n        /* \"--CODEGEN--\":61:62   */\n      dup1\n        /* \"--CODEGEN--\":54:66   */\n      revert\n        /* \"--CODEGEN--\":8:10   */\n    tag_52:\n        /* \"contracts/YunaswapRouter02.sol\":5824:6414  function swapTokensForExactTokens(... */\n      dup1\n      calldataload\n      swap1\n      0x20\n      add\n      swap2\n        /* \"--CODEGEN--\":101:110   */\n      dup5\n        /* \"--CODEGEN--\":95:97   */\n      0x20\n        /* \"--CODEGEN--\":81:93   */\n      dup4\n        /* \"--CODEGEN--\":77:98   */\n      mul\n        /* \"--CODEGEN--\":67:75   */\n      dup5\n        /* \"--CODEGEN--\":63:99   */\n      add\n        /* \"--CODEGEN--\":60:111   */\n      gt\n        /* \"--CODEGEN--\":39:50   */\n      0x0100000000\n        /* \"--CODEGEN--\":25:37   */\n      dup4\n        /* \"--CODEGEN--\":22:51   */\n      gt\n        /* \"--CODEGEN--\":11:119   */\n      or\n        /* \"--CODEGEN--\":8:10   */\n      iszero\n      tag_53\n      jumpi\n        /* \"--CODEGEN--\":132:133   */\n      0x00\n        /* \"--CODEGEN--\":129:130   */\n      dup1\n        /* \"--CODEGEN--\":122:134   */\n      revert\n        /* \"--CODEGEN--\":8:10   */\n    tag_53:\n        /* \"contracts/YunaswapRouter02.sol\":5824:6414  function swapTokensForExactTokens(... */\n      swap1\n      swap2\n      swap3\n      swap4\n      swap2\n      swap3\n      swap4\n      swap1\n      dup1\n      calldataload\n      0xffffffffffffffffffffffffffffffffffffffff\n      and\n      swap1\n      0x20\n      add\n      swap1\n      swap3\n      swap2\n      swap1\n      dup1\n      calldataload\n      swap1\n      0x20\n      add\n      swap1\n      swap3\n      swap2\n      swap1\n      pop\n      pop\n      pop\n      tag_54\n      jump\t// in\n    tag_49:\n      mload(0x40)\n      dup1\n      dup1\n      0x20\n      add\n      dup3\n      dup2\n      sub\n      dup3\n      mstore\n      dup4\n      dup2\n      dup2\n      mload\n      dup2\n      mstore\n      0x20\n      add\n      swap2\n      pop\n      dup1\n      mload\n      swap1\n      0x20\n      add\n      swap1\n      0x20\n      mul\n      dup1\n      dup4\n      dup4\n        /* \"--CODEGEN--\":23:24   */\n      0x00\n        /* \"--CODEGEN--\":8:108   */\n    tag_55:\n        /* \"--CODEGEN--\":33:36   */\n      dup4\n        /* \"--CODEGEN--\":30:31   */\n      dup2\n        /* \"--CODEGEN--\":27:37   */\n      lt\n        /* \"--CODEGEN--\":8:108   */\n      iszero\n      tag_57\n      jumpi\n        /* \"--CODEGEN--\":99:100   */\n      dup1\n        /* \"--CODEGEN--\":94:97   */\n      dup3\n        /* \"--CODEGEN--\":90:101   */\n      add\n        /* \"--CODEGEN--\":84:102   */\n      mload\n        /* \"--CODEGEN--\":80:81   */\n      dup2\n        /* \"--CODEGEN--\":75:78   */\n      dup5\n        /* \"--CODEGEN--\":71:82   */\n      add\n        /* \"--CODEGEN--\":64:103   */\n      mstore\n        /* \"--CODEGEN--\":52:54   */\n      0x20\n        /* \"--CODEGEN--\":49:50   */\n      dup2\n        /* \"--CODEGEN--\":45:55   */\n      add\n        /* \"--CODEGEN--\":40:55   */\n      swap1\n      pop\n        /* \"--CODEGEN--\":8:108   */\n      jump(tag_55)\n    tag_57:\n        /* \"--CODEGEN--\":12:26   */\n      pop\n        /* \"contracts/YunaswapRouter02.sol\":5824:6414  function swapTokensForExactTokens(... */\n      pop\n      pop\n      pop\n      swap1\n      pop\n      add\n      swap3\n      pop\n      pop\n      pop\n      mload(0x40)\n      dup1\n      swap2\n      sub\n      swap1\n      return\n        /* \"contracts/YunaswapRouter02.sol\":8511:8696  function quote(uint amountA, uint reserveA, uint reserveB) public pure virtual override returns (uint amountB) {... */\n    tag_10:\n      tag_58\n      0x04\n      dup1\n      calldatasize\n      sub\n        /* \"--CODEGEN--\":15:17   */\n      0x60\n        /* \"--CODEGEN--\":10:13   */\n      dup2\n        /* \"--CODEGEN--\":7:18   */\n      lt\n        /* \"--CODEGEN--\":4:6   */\n      iszero\n      tag_59\n      jumpi\n        /* \"--CODEGEN--\":31:32   */\n      0x00\n        /* \"--CODEGEN--\":28:29   */\n      dup1\n        /* \"--CODEGEN--\":21:33   */\n      revert\n        /* \"--CODEGEN--\":4:6   */\n    tag_59:\n        /* \"contracts/YunaswapRouter02.sol\":8511:8696  function quote(uint amountA, uint reserveA, uint reserveB) public pure virtual override returns (uint amountB) {... */\n      dup2\n      add\n      swap1\n      dup1\n      dup1\n      calldataload\n      swap1\n      0x20\n      add\n      swap1\n      swap3\n      swap2\n      swap1\n      dup1\n      calldataload\n      swap1\n      0x20\n      add\n      swap1\n      swap3\n      swap2\n      swap1\n      dup1\n      calldataload\n      swap1\n      0x20\n      add\n      swap1\n      swap3\n      swap2\n      swap1\n      pop\n      pop\n      pop\n      tag_60\n      jump\t// in\n    tag_58:\n      mload(0x40)\n      dup1\n      dup3\n      dup2\n      mstore\n      0x20\n      add\n      swap2\n      pop\n      pop\n      mload(0x40)\n      dup1\n      swap2\n      sub\n      swap1\n      return\n        /* \"contracts/YunaswapRouter02.sol\":2788:3631  function removeLiquidity(... */\n    tag_11:\n      tag_61\n      0x04\n      dup1\n      calldatasize\n      sub\n        /* \"--CODEGEN--\":15:18   */\n      0xe0\n        /* \"--CODEGEN--\":10:13   */\n      dup2\n        /* \"--CODEGEN--\":7:19   */\n      lt\n        /* \"--CODEGEN--\":4:6   */\n      iszero\n      tag_62\n      jumpi\n        /* \"--CODEGEN--\":32:33   */\n      0x00\n        /* \"--CODEGEN--\":29:30   */\n      dup1\n        /* \"--CODEGEN--\":22:34   */\n      revert\n        /* \"--CODEGEN--\":4:6   */\n    tag_62:\n        /* \"contracts/YunaswapRouter02.sol\":2788:3631  function removeLiquidity(... */\n      dup2\n      add\n      swap1\n      dup1\n      dup1\n      calldataload\n      0xffffffffffffffffffffffffffffffffffffffff\n      and\n      swap1\n      0x20\n      add\n      swap1\n      swap3\n      swap2\n      swap1\n      dup1\n      calldataload\n      0xffffffffffffffffffffffffffffffffffffffff\n      and\n      swap1\n      0x20\n      add\n      swap1\n      swap3\n      swap2\n      swap1\n      dup1\n      calldataload\n      swap1\n      0x20\n      add\n      swap1\n      swap3\n      swap2\n      swap1\n      dup1\n      calldataload\n      swap1\n      0x20\n      add\n      swap1\n      swap3\n      swap2\n      swap1\n      dup1\n      calldataload\n      swap1\n      0x20\n      add\n      swap1\n      swap3\n      swap2\n      swap1\n      dup1\n      calldataload\n      0xffffffffffffffffffffffffffffffffffffffff\n      and\n      swap1\n      0x20\n      add\n      swap1\n      swap3\n      swap2\n      swap1\n      dup1\n      calldataload\n      swap1\n      0x20\n      add\n      swap1\n      swap3\n      swap2\n      swap1\n      pop\n      pop\n      pop\n      tag_63\n      jump\t// in\n    tag_61:\n      mload(0x40)\n      dup1\n      dup4\n      dup2\n      mstore\n      0x20\n      add\n      dup3\n      dup2\n      mstore\n      0x20\n      add\n      swap3\n      pop\n      pop\n      pop\n      mload(0x40)\n      dup1\n      swap2\n      sub\n      swap1\n      return\n        /* \"contracts/YunaswapRouter02.sol\":384:425  address public immutable override factory */\n    tag_12:\n      tag_64\n      tag_65\n      jump\t// in\n    tag_64:\n      mload(0x40)\n      dup1\n      dup3\n      0xffffffffffffffffffffffffffffffffffffffff\n      and\n      0xffffffffffffffffffffffffffffffffffffffff\n      and\n      dup2\n      mstore\n      0x20\n      add\n      swap2\n      pop\n      pop\n      mload(0x40)\n      dup1\n      swap2\n      sub\n      swap1\n      return\n        /* \"contracts/YunaswapRouter02.sol\":9219:9463  function getAmountsOut(uint amountIn, address[] memory path)... */\n    tag_13:\n      tag_66\n      0x04\n      dup1\n      calldatasize\n      sub\n        /* \"--CODEGEN--\":15:17   */\n      0x40\n        /* \"--CODEGEN--\":10:13   */\n      dup2\n        /* \"--CODEGEN--\":7:18   */\n      lt\n        /* \"--CODEGEN--\":4:6   */\n      iszero\n      tag_67\n      jumpi\n        /* \"--CODEGEN--\":31:32   */\n      0x00\n        /* \"--CODEGEN--\":28:29   */\n      dup1\n        /* \"--CODEGEN--\":21:33   */\n      revert\n        /* \"--CODEGEN--\":4:6   */\n    tag_67:\n        /* \"contracts/YunaswapRouter02.sol\":9219:9463  function getAmountsOut(uint amountIn, address[] memory path)... */\n      dup2\n      add\n      swap1\n      dup1\n      dup1\n      calldataload\n      swap1\n      0x20\n      add\n      swap1\n      swap3\n      swap2\n      swap1\n      dup1\n      calldataload\n      swap1\n      0x20\n      add\n      swap1\n        /* \"--CODEGEN--\":27:38   */\n      0x0100000000\n        /* \"--CODEGEN--\":14:25   */\n      dup2\n        /* \"--CODEGEN--\":11:39   */\n      gt\n        /* \"--CODEGEN--\":8:10   */\n      iszero\n      tag_68\n      jumpi\n        /* \"--CODEGEN--\":52:53   */\n      0x00\n        /* \"--CODEGEN--\":49:50   */\n      dup1\n        /* \"--CODEGEN--\":42:54   */\n      revert\n        /* \"--CODEGEN--\":8:10   */\n    tag_68:\n        /* \"contracts/YunaswapRouter02.sol\":9219:9463  function getAmountsOut(uint amountIn, address[] memory path)... */\n      dup3\n      add\n        /* \"--CODEGEN--\":41:50   */\n      dup4\n        /* \"--CODEGEN--\":34:38   */\n      0x20\n        /* \"--CODEGEN--\":18:32   */\n      dup3\n        /* \"--CODEGEN--\":14:39   */\n      add\n        /* \"--CODEGEN--\":11:51   */\n      gt\n        /* \"--CODEGEN--\":8:10   */\n      iszero\n      tag_69\n      jumpi\n        /* \"--CODEGEN--\":64:65   */\n      0x00\n        /* \"--CODEGEN--\":61:62   */\n      dup1\n        /* \"--CODEGEN--\":54:66   */\n      revert\n        /* \"--CODEGEN--\":8:10   */\n    tag_69:\n        /* \"contracts/YunaswapRouter02.sol\":9219:9463  function getAmountsOut(uint amountIn, address[] memory path)... */\n      dup1\n      calldataload\n      swap1\n      0x20\n      add\n      swap2\n        /* \"--CODEGEN--\":101:110   */\n      dup5\n        /* \"--CODEGEN--\":95:97   */\n      0x20\n        /* \"--CODEGEN--\":81:93   */\n      dup4\n        /* \"--CODEGEN--\":77:98   */\n      mul\n        /* \"--CODEGEN--\":67:75   */\n      dup5\n        /* \"--CODEGEN--\":63:99   */\n      add\n        /* \"--CODEGEN--\":60:111   */\n      gt\n        /* \"--CODEGEN--\":39:50   */\n      0x0100000000\n        /* \"--CODEGEN--\":25:37   */\n      dup4\n        /* \"--CODEGEN--\":22:51   */\n      gt\n        /* \"--CODEGEN--\":11:119   */\n      or\n        /* \"--CODEGEN--\":8:10   */\n      iszero\n      tag_70\n      jumpi\n        /* \"--CODEGEN--\":132:133   */\n      0x00\n        /* \"--CODEGEN--\":129:130   */\n      dup1\n        /* \"--CODEGEN--\":122:134   */\n      revert\n        /* \"--CODEGEN--\":8:10   */\n    tag_70:\n        /* \"contracts/YunaswapRouter02.sol\":9219:9463  function getAmountsOut(uint amountIn, address[] memory path)... */\n      swap2\n      swap1\n      dup1\n      dup1\n      0x20\n      mul\n      0x20\n      add\n      mload(0x40)\n      swap1\n      dup2\n      add\n      0x40\n      mstore\n      dup1\n      swap4\n      swap3\n      swap2\n      swap1\n      dup2\n      dup2\n      mstore\n      0x20\n      add\n      dup4\n      dup4\n      0x20\n      mul\n        /* \"--CODEGEN--\":30:33   */\n      dup1\n        /* \"--CODEGEN--\":22:28   */\n      dup3\n        /* \"--CODEGEN--\":14:20   */\n      dup5\n        /* \"--CODEGEN--\":1:34   */\n      calldatacopy\n        /* \"--CODEGEN--\":99:100   */\n      0x00\n        /* \"--CODEGEN--\":93:96   */\n      dup2\n        /* \"--CODEGEN--\":85:91   */\n      dup5\n        /* \"--CODEGEN--\":81:97   */\n      add\n        /* \"--CODEGEN--\":74:101   */\n      mstore\n        /* \"--CODEGEN--\":137:141   */\n      0x1f\n        /* \"--CODEGEN--\":133:142   */\n      not\n        /* \"--CODEGEN--\":126:130   */\n      0x1f\n        /* \"--CODEGEN--\":121:124   */\n      dup3\n        /* \"--CODEGEN--\":117:131   */\n      add\n        /* \"--CODEGEN--\":113:143   */\n      and\n        /* \"--CODEGEN--\":106:143   */\n      swap1\n      pop\n        /* \"--CODEGEN--\":169:172   */\n      dup1\n        /* \"--CODEGEN--\":161:167   */\n      dup4\n        /* \"--CODEGEN--\":157:173   */\n      add\n        /* \"--CODEGEN--\":147:173   */\n      swap3\n      pop\n        /* \"contracts/YunaswapRouter02.sol\":9219:9463  function getAmountsOut(uint amountIn, address[] memory path)... */\n      pop\n      pop\n      pop\n      pop\n      pop\n      pop\n      swap2\n      swap3\n      swap2\n      swap3\n      swap1\n      pop\n      pop\n      pop\n      tag_71\n      jump\t// in\n    tag_66:\n      mload(0x40)\n      dup1\n      dup1\n      0x20\n      add\n      dup3\n      dup2\n      sub\n      dup3\n      mstore\n      dup4\n      dup2\n      dup2\n      mload\n      dup2\n      mstore\n      0x20\n      add\n      swap2\n      pop\n      dup1\n      mload\n      swap1\n      0x20\n      add\n      swap1\n      0x20\n      mul\n      dup1\n      dup4\n      dup4\n        /* \"--CODEGEN--\":23:24   */\n      0x00\n        /* \"--CODEGEN--\":8:108   */\n    tag_72:\n        /* \"--CODEGEN--\":33:36   */\n      dup4\n        /* \"--CODEGEN--\":30:31   */\n      dup2\n        /* \"--CODEGEN--\":27:37   */\n      lt\n        /* \"--CODEGEN--\":8:108   */\n      iszero\n      tag_74\n      jumpi\n        /* \"--CODEGEN--\":99:100   */\n      dup1\n        /* \"--CODEGEN--\":94:97   */\n      dup3\n        /* \"--CODEGEN--\":90:101   */\n      add\n        /* \"--CODEGEN--\":84:102   */\n      mload\n        /* \"--CODEGEN--\":80:81   */\n      dup2\n        /* \"--CODEGEN--\":75:78   */\n      dup5\n        /* \"--CODEGEN--\":71:82   */\n      add\n        /* \"--CODEGEN--\":64:103   */\n      mstore\n        /* \"--CODEGEN--\":52:54   */\n      0x20\n        /* \"--CODEGEN--\":49:50   */\n      dup2\n        /* \"--CODEGEN--\":45:55   */\n      add\n        /* \"--CODEGEN--\":40:55   */\n      swap1\n      pop\n        /* \"--CODEGEN--\":8:108   */\n      jump(tag_72)\n    tag_74:\n        /* \"--CODEGEN--\":12:26   */\n      pop\n        /* \"contracts/YunaswapRouter02.sol\":9219:9463  function getAmountsOut(uint amountIn, address[] memory path)... */\n      pop\n      pop\n      pop\n      swap1\n      pop\n      add\n      swap3\n      pop\n      pop\n      pop\n      mload(0x40)\n      dup1\n      swap2\n      sub\n      swap1\n      return\n        /* \"contracts/YunaswapRouter02.sol\":2028:2749  function addLiquidity(... */\n    tag_14:\n      tag_75\n      0x04\n      dup1\n      calldatasize\n      sub\n        /* \"--CODEGEN--\":15:18   */\n      0x0100\n        /* \"--CODEGEN--\":10:13   */\n      dup2\n        /* \"--CODEGEN--\":7:19   */\n      lt\n        /* \"--CODEGEN--\":4:6   */\n      iszero\n      tag_76\n      jumpi\n        /* \"--CODEGEN--\":32:33   */\n      0x00\n        /* \"--CODEGEN--\":29:30   */\n      dup1\n        /* \"--CODEGEN--\":22:34   */\n      revert\n        /* \"--CODEGEN--\":4:6   */\n    tag_76:\n        /* \"contracts/YunaswapRouter02.sol\":2028:2749  function addLiquidity(... */\n      dup2\n      add\n      swap1\n      dup1\n      dup1\n      calldataload\n      0xffffffffffffffffffffffffffffffffffffffff\n      and\n      swap1\n      0x20\n      add\n      swap1\n      swap3\n      swap2\n      swap1\n      dup1\n      calldataload\n      0xffffffffffffffffffffffffffffffffffffffff\n      and\n      swap1\n      0x20\n      add\n      swap1\n      swap3\n      swap2\n      swap1\n      dup1\n      calldataload\n      swap1\n      0x20\n      add\n      swap1\n      swap3\n      swap2\n      swap1\n      dup1\n      calldataload\n      swap1\n      0x20\n      add\n      swap1\n      swap3\n      swap2\n      swap1\n      dup1\n      calldataload\n      swap1\n      0x20\n      add\n      swap1\n      swap3\n      swap2\n      swap1\n      dup1\n      calldataload\n      swap1\n      0x20\n      add\n      swap1\n      swap3\n      swap2\n      swap1\n      dup1\n      calldataload\n      0xffffffffffffffffffffffffffffffffffffffff\n      and\n      swap1\n      0x20\n      add\n      swap1\n      swap3\n      swap2\n      swap1\n      dup1\n      calldataload\n      swap1\n      0x20\n      add\n      swap1\n      swap3\n      swap2\n      swap1\n      pop\n      pop\n      pop\n      tag_77\n      jump\t// in\n    tag_75:\n      mload(0x40)\n      dup1\n      dup5\n      dup2\n      mstore\n      0x20\n      add\n      dup4\n      dup2\n      mstore\n      0x20\n      add\n      dup3\n      dup2\n      mstore\n      0x20\n      add\n      swap4\n      pop\n      pop\n      pop\n      pop\n      mload(0x40)\n      dup1\n      swap2\n      sub\n      swap1\n      return\n        /* \"contracts/YunaswapRouter02.sol\":8702:8955  function getAmountOut(uint amountIn, uint reserveIn, uint reserveOut)... */\n    tag_18:\n        /* \"contracts/YunaswapRouter02.sol\":8850:8864  uint amountOut */\n      0x00\n        /* \"contracts/YunaswapRouter02.sol\":8887:8948  YunaswapLibrary.getAmountOut(amountIn, reserveIn, reserveOut) */\n      tag_79\n        /* \"contracts/YunaswapRouter02.sol\":8916:8924  amountIn */\n      dup5\n        /* \"contracts/YunaswapRouter02.sol\":8926:8935  reserveIn */\n      dup5\n        /* \"contracts/YunaswapRouter02.sol\":8937:8947  reserveOut */\n      dup5\n        /* \"contracts/YunaswapRouter02.sol\":8887:8915  YunaswapLibrary.getAmountOut */\n      tag_80\n        /* \"contracts/YunaswapRouter02.sol\":8887:8948  YunaswapLibrary.getAmountOut(amountIn, reserveIn, reserveOut) */\n      jump\t// in\n    tag_79:\n        /* \"contracts/YunaswapRouter02.sol\":8880:8948  return YunaswapLibrary.getAmountOut(amountIn, reserveIn, reserveOut) */\n      swap1\n      pop\n        /* \"contracts/YunaswapRouter02.sol\":8702:8955  function getAmountOut(uint amountIn, uint reserveIn, uint reserveOut)... */\n      swap4\n      swap3\n      pop\n      pop\n      pop\n      jump\t// out\n        /* \"contracts/YunaswapRouter02.sol\":9469:9713  function getAmountsIn(uint amountOut, address[] memory path)... */\n    tag_24:\n        /* \"contracts/YunaswapRouter02.sol\":9608:9629  uint[] memory amounts */\n      0x60\n        /* \"contracts/YunaswapRouter02.sol\":9652:9706  YunaswapLibrary.getAmountsIn(factory, amountOut, path) */\n      tag_82\n        /* \"contracts/YunaswapRouter02.sol\":9681:9688  factory */\n      immutable(\"0x277ab82e5a4641341820a4a2933a62c1de997e42e92548657ae21b3728d580fe\")\n        /* \"contracts/YunaswapRouter02.sol\":9690:9699  amountOut */\n      dup5\n        /* \"contracts/YunaswapRouter02.sol\":9701:9705  path */\n      dup5\n        /* \"contracts/YunaswapRouter02.sol\":9652:9680  YunaswapLibrary.getAmountsIn */\n      tag_83\n        /* \"contracts/YunaswapRouter02.sol\":9652:9706  YunaswapLibrary.getAmountsIn(factory, amountOut, path) */\n      jump\t// in\n    tag_82:\n        /* \"contracts/YunaswapRouter02.sol\":9645:9706  return YunaswapLibrary.getAmountsIn(factory, amountOut, path) */\n      swap1\n      pop\n        /* \"contracts/YunaswapRouter02.sol\":9469:9713  function getAmountsIn(uint amountOut, address[] memory path)... */\n      swap3\n      swap2\n      pop\n      pop\n      jump\t// out\n        /* \"contracts/YunaswapRouter02.sol\":3639:4300  function removeLiquidityWithPermit(... */\n    tag_30:\n        /* \"contracts/YunaswapRouter02.sol\":3936:3948  uint amountA */\n      0x00\n        /* \"contracts/YunaswapRouter02.sol\":3950:3962  uint amountB */\n      dup1\n        /* \"contracts/YunaswapRouter02.sol\":3974:3986  address pair */\n      0x00\n        /* \"contracts/YunaswapRouter02.sol\":3989:4037  YunaswapLibrary.pairFor(factory, tokenA, tokenB) */\n      tag_85\n        /* \"contracts/YunaswapRouter02.sol\":4013:4020  factory */\n      immutable(\"0x277ab82e5a4641341820a4a2933a62c1de997e42e92548657ae21b3728d580fe\")\n        /* \"contracts/YunaswapRouter02.sol\":4022:4028  tokenA */\n      dup16\n        /* \"contracts/YunaswapRouter02.sol\":4030:4036  tokenB */\n      dup16\n        /* \"contracts/YunaswapRouter02.sol\":3989:4012  YunaswapLibrary.pairFor */\n      tag_86\n        /* \"contracts/YunaswapRouter02.sol\":3989:4037  YunaswapLibrary.pairFor(factory, tokenA, tokenB) */\n      jump\t// in\n    tag_85:\n        /* \"contracts/YunaswapRouter02.sol\":3974:4037  address pair = YunaswapLibrary.pairFor(factory, tokenA, tokenB) */\n      swap1\n      pop\n        /* \"contracts/YunaswapRouter02.sol\":4047:4057  uint value */\n      0x00\n        /* \"contracts/YunaswapRouter02.sol\":4060:4070  approveMax */\n      dup8\n        /* \"contracts/YunaswapRouter02.sol\":4060:4093  approveMax ? uint(-1) : liquidity */\n      tag_87\n      jumpi\n        /* \"contracts/YunaswapRouter02.sol\":4084:4093  liquidity */\n      dup13\n        /* \"contracts/YunaswapRouter02.sol\":4060:4093  approveMax ? uint(-1) : liquidity */\n      jump(tag_88)\n    tag_87:\n        /* \"contracts/YunaswapRouter02.sol\":4078:4080  -1 */\n      0xffffffffffffffffffffffffffffffffffffffffffffffffffffffffffffffff\n        /* \"contracts/YunaswapRouter02.sol\":4060:4093  approveMax ? uint(-1) : liquidity */\n    tag_88:\n        /* \"contracts/YunaswapRouter02.sol\":4047:4093  uint value = approveMax ? uint(-1) : liquidity */\n      swap1\n      pop\n        /* \"contracts/YunaswapRouter02.sol\":4117:4121  pair */\n      dup2\n        /* \"contracts/YunaswapRouter02.sol\":4103:4129  IYunaswapPair(pair).permit */\n      0xffffffffffffffffffffffffffffffffffffffff\n      and\n      0xd505accf\n        /* \"contracts/YunaswapRouter02.sol\":4130:4140  msg.sender */\n      caller\n        /* \"contracts/YunaswapRouter02.sol\":4150:4154  this */\n      address\n        /* \"contracts/YunaswapRouter02.sol\":4157:4162  value */\n      dup5\n        /* \"contracts/YunaswapRouter02.sol\":4164:4172  deadline */\n      dup14\n        /* \"contracts/YunaswapRouter02.sol\":4174:4175  v */\n      dup13\n        /* \"contracts/YunaswapRouter02.sol\":4177:4178  r */\n      dup13\n        /* \"contracts/YunaswapRouter02.sol\":4180:4181  s */\n      dup13\n        /* \"contracts/YunaswapRouter02.sol\":4103:4182  IYunaswapPair(pair).permit(msg.sender, address(this), value, deadline, v, r, s) */\n      mload(0x40)\n      dup9\n      0xffffffff\n      and\n      0xe0\n      shl\n      dup2\n      mstore\n      0x04\n      add\n      dup1\n      dup9\n      0xffffffffffffffffffffffffffffffffffffffff\n      and\n      0xffffffffffffffffffffffffffffffffffffffff\n      and\n      dup2\n      mstore\n      0x20\n      add\n      dup8\n      0xffffffffffffffffffffffffffffffffffffffff\n      and\n      0xffffffffffffffffffffffffffffffffffffffff\n      and\n      dup2\n      mstore\n      0x20\n      add\n      dup7\n      dup2\n      mstore\n      0x20\n      add\n      dup6\n      dup2\n      mstore\n      0x20\n      add\n      dup5\n      0xff\n      and\n      0xff\n      and\n      dup2\n      mstore\n      0x20\n      add\n      dup4\n      dup2\n      mstore\n      0x20\n      add\n      dup3\n      dup2\n      mstore\n      0x20\n      add\n      swap8\n      pop\n      pop\n      pop\n      pop\n      pop\n      pop\n      pop\n      pop\n      0x00\n      mload(0x40)\n      dup1\n      dup4\n      sub\n      dup2\n      0x00\n      dup8\n      dup1\n      extcodesize\n      iszero\n        /* \"--CODEGEN--\":5:14   */\n      dup1\n        /* \"--CODEGEN--\":2:4   */\n      iszero\n      tag_89\n      jumpi\n        /* \"--CODEGEN--\":27:28   */\n      0x00\n        /* \"--CODEGEN--\":24:25   */\n      dup1\n        /* \"--CODEGEN--\":17:29   */\n      revert\n        /* \"--CODEGEN--\":2:4   */\n    tag_89:\n        /* \"contracts/YunaswapRouter02.sol\":4103:4182  IYunaswapPair(pair).permit(msg.sender, address(this), value, deadline, v, r, s) */\n      pop\n      gas\n      call\n      iszero\n        /* \"--CODEGEN--\":8:17   */\n      dup1\n        /* \"--CODEGEN--\":5:7   */\n      iszero\n      tag_91\n      jumpi\n        /* \"--CODEGEN--\":45:61   */\n      returndatasize\n        /* \"--CODEGEN--\":42:43   */\n      0x00\n        /* \"--CODEGEN--\":39:40   */\n      dup1\n        /* \"--CODEGEN--\":24:62   */\n      returndatacopy\n        /* \"--CODEGEN--\":77:93   */\n      returndatasize\n        /* \"--CODEGEN--\":74:75   */\n      0x00\n        /* \"--CODEGEN--\":67:94   */\n      revert\n        /* \"--CODEGEN--\":5:7   */\n    tag_91:\n        /* \"contracts/YunaswapRouter02.sol\":4103:4182  IYunaswapPair(pair).permit(msg.sender, address(this), value, deadline, v, r, s) */\n      pop\n      pop\n      pop\n      pop\n        /* \"contracts/YunaswapRouter02.sol\":4213:4293  removeLiquidity(tokenA, tokenB, liquidity, amountAMin, amountBMin, to, deadline) */\n      tag_92\n        /* \"contracts/YunaswapRouter02.sol\":4229:4235  tokenA */\n      dup16\n        /* \"contracts/YunaswapRouter02.sol\":4237:4243  tokenB */\n      dup16\n        /* \"contracts/YunaswapRouter02.sol\":4245:4254  liquidity */\n      dup16\n        /* \"contracts/YunaswapRouter02.sol\":4256:4266  amountAMin */\n      dup16\n        /* \"contracts/YunaswapRouter02.sol\":4268:4278  amountBMin */\n      dup16\n        /* \"contracts/YunaswapRouter02.sol\":4280:4282  to */\n      dup16\n        /* \"contracts/YunaswapRouter02.sol\":4284:4292  deadline */\n      dup16\n        /* \"contracts/YunaswapRouter02.sol\":4213:4228  removeLiquidity */\n      tag_63\n        /* \"contracts/YunaswapRouter02.sol\":4213:4293  removeLiquidity(tokenA, tokenB, liquidity, amountAMin, amountBMin, to, deadline) */\n      jump\t// in\n    tag_92:\n        /* \"contracts/YunaswapRouter02.sol\":4192:4293  (amountA, amountB) = removeLiquidity(tokenA, tokenB, liquidity, amountAMin, amountBMin, to, deadline) */\n      dup1\n      swap5\n      pop\n      dup2\n      swap6\n      pop\n      pop\n      pop\n        /* \"contracts/YunaswapRouter02.sol\":3639:4300  function removeLiquidityWithPermit(... */\n      pop\n      pop\n      swap12\n      pop\n      swap12\n      swap10\n      pop\n      pop\n      pop\n      pop\n      pop\n      pop\n      pop\n      pop\n      pop\n      pop\n      jump\t// out\n        /* \"contracts/YunaswapRouter02.sol\":5207:5819  function swapExactTokensForTokens(... */\n    tag_36:\n        /* \"contracts/YunaswapRouter02.sol\":5425:5446  uint[] memory amounts */\n      0x60\n        /* \"contracts/YunaswapRouter02.sol\":5406:5414  deadline */\n      dup2\n        /* \"contracts/YunaswapRouter02.sol\":493:508  block.timestamp */\n      timestamp\n        /* \"contracts/YunaswapRouter02.sol\":481:489  deadline */\n      dup2\n        /* \"contracts/YunaswapRouter02.sol\":481:508  deadline >= block.timestamp */\n      lt\n      iszero\n        /* \"contracts/YunaswapRouter02.sol\":473:536  require(deadline >= block.timestamp, 'YunaswapRouter: EXPIRED') */\n      tag_94\n      jumpi\n      mload(0x40)\n      0x08c379a000000000000000000000000000000000000000000000000000000000\n      dup2\n      mstore\n      0x04\n      add\n      dup1\n      dup1\n      0x20\n      add\n      dup3\n      dup2\n      sub\n      dup3\n      mstore\n      0x17\n      dup2\n      mstore\n      0x20\n      add\n      dup1\n      0x59756e6173776170526f757465723a2045585049524544000000000000000000\n      dup2\n      mstore\n      pop\n      0x20\n      add\n      swap2\n      pop\n      pop\n      mload(0x40)\n      dup1\n      swap2\n      sub\n      swap1\n      revert\n    tag_94:\n        /* \"contracts/YunaswapRouter02.sol\":5468:5522  YunaswapLibrary.getAmountsOut(factory, amountIn, path) */\n      tag_96\n        /* \"contracts/YunaswapRouter02.sol\":5498:5505  factory */\n      immutable(\"0x277ab82e5a4641341820a4a2933a62c1de997e42e92548657ae21b3728d580fe\")\n        /* \"contracts/YunaswapRouter02.sol\":5507:5515  amountIn */\n      dup10\n        /* \"contracts/YunaswapRouter02.sol\":5517:5521  path */\n      dup9\n      dup9\n        /* \"contracts/YunaswapRouter02.sol\":5468:5522  YunaswapLibrary.getAmountsOut(factory, amountIn, path) */\n      dup1\n      dup1\n      0x20\n      mul\n      0x20\n      add\n      mload(0x40)\n      swap1\n      dup2\n      add\n      0x40\n      mstore\n      dup1\n      swap4\n      swap3\n      swap2\n      swap1\n      dup2\n      dup2\n      mstore\n      0x20\n      add\n      dup4\n      dup4\n      0x20\n      mul\n        /* \"--CODEGEN--\":30:33   */\n      dup1\n        /* \"--CODEGEN--\":22:28   */\n      dup3\n        /* \"--CODEGEN--\":14:20   */\n      dup5\n        /* \"--CODEGEN--\":1:34   */\n      calldatacopy\n        /* \"--CODEGEN--\":99:100   */\n      0x00\n        /* \"--CODEGEN--\":93:96   */\n      dup2\n        /* \"--CODEGEN--\":85:91   */\n      dup5\n        /* \"--CODEGEN--\":81:97   */\n      add\n        /* \"--CODEGEN--\":74:101   */\n      mstore\n        /* \"--CODEGEN--\":137:141   */\n      0x1f\n        /* \"--CODEGEN--\":133:142   */\n      not\n        /* \"--CODEGEN--\":126:130   */\n      0x1f\n        /* \"--CODEGEN--\":121:124   */\n      dup3\n        /* \"--CODEGEN--\":117:131   */\n      add\n        /* \"--CODEGEN--\":113:143   */\n      and\n        /* \"--CODEGEN--\":106:143   */\n      swap1\n      pop\n        /* \"--CODEGEN--\":169:172   */\n      dup1\n        /* \"--CODEGEN--\":161:167   */\n      dup4\n        /* \"--CODEGEN--\":157:173   */\n      add\n        /* \"--CODEGEN--\":147:173   */\n      swap3\n      pop\n        /* \"contracts/YunaswapRouter02.sol\":5468:5522  YunaswapLibrary.getAmountsOut(factory, amountIn, path) */\n      pop\n      pop\n      pop\n      pop\n      pop\n      pop\n        /* \"contracts/YunaswapRouter02.sol\":5468:5497  YunaswapLibrary.getAmountsOut */\n      tag_97\n        /* \"contracts/YunaswapRouter02.sol\":5468:5522  YunaswapLibrary.getAmountsOut(factory, amountIn, path) */\n      jump\t// in\n    tag_96:\n        /* \"contracts/YunaswapRouter02.sol\":5458:5522  amounts = YunaswapLibrary.getAmountsOut(factory, amountIn, path) */\n      swap2\n      pop\n        /* \"contracts/YunaswapRouter02.sol\":5571:5583  amountOutMin */\n      dup7\n        /* \"contracts/YunaswapRouter02.sol\":5540:5547  amounts */\n      dup3\n        /* \"contracts/YunaswapRouter02.sol\":5565:5566  1 */\n      0x01\n        /* \"contracts/YunaswapRouter02.sol\":5548:5555  amounts */\n      dup5\n        /* \"contracts/YunaswapRouter02.sol\":5548:5562  amounts.length */\n      mload\n        /* \"contracts/YunaswapRouter02.sol\":5548:5566  amounts.length - 1 */\n      sub\n        /* \"contracts/YunaswapRouter02.sol\":5540:5567  amounts[amounts.length - 1] */\n      dup2\n      mload\n      dup2\n      lt\n      tag_98\n      jumpi\n      invalid\n    tag_98:\n      0x20\n      mul\n      0x20\n      add\n      add\n      mload\n        /* \"contracts/YunaswapRouter02.sol\":5540:5583  amounts[amounts.length - 1] >= amountOutMin */\n      lt\n      iszero\n        /* \"contracts/YunaswapRouter02.sol\":5532:5630  require(amounts[amounts.length - 1] >= amountOutMin, 'YunaswapRouter: INSUFFICIENT_OUTPUT_AMOUNT') */\n      tag_99\n      jumpi\n      mload(0x40)\n      0x08c379a000000000000000000000000000000000000000000000000000000000\n      dup2\n      mstore\n      0x04\n      add\n      dup1\n      dup1\n      0x20\n      add\n      dup3\n      dup2\n      sub\n      dup3\n      mstore\n      0x2a\n      dup2\n      mstore\n      0x20\n      add\n      dup1\n      data_b4b33a249d23011309692605ca1914f8f49b3e9bcb505955732af460790173fa\n      0x2a\n      swap2\n      codecopy\n      0x40\n      add\n      swap2\n      pop\n      pop\n      mload(0x40)\n      dup1\n      swap2\n      sub\n      swap1\n      revert\n    tag_99:\n        /* \"contracts/YunaswapRouter02.sol\":5640:5778  TransferHelper.safeTransferFrom(... */\n      tag_100\n        /* \"contracts/YunaswapRouter02.sol\":5685:5689  path */\n      dup7\n      dup7\n        /* \"contracts/YunaswapRouter02.sol\":5690:5691  0 */\n      0x00\n        /* \"contracts/YunaswapRouter02.sol\":5685:5692  path[0] */\n      dup2\n      dup2\n      lt\n      tag_101\n      jumpi\n      invalid\n    tag_101:\n      swap1\n      pop\n      0x20\n      mul\n      add\n      calldataload\n      0xffffffffffffffffffffffffffffffffffffffff\n      and\n        /* \"contracts/YunaswapRouter02.sol\":5694:5704  msg.sender */\n      caller\n        /* \"contracts/YunaswapRouter02.sol\":5706:5756  YunaswapLibrary.pairFor(factory, path[0], path[1]) */\n      tag_102\n        /* \"contracts/YunaswapRouter02.sol\":5730:5737  factory */\n      immutable(\"0x277ab82e5a4641341820a4a2933a62c1de997e42e92548657ae21b3728d580fe\")\n        /* \"contracts/YunaswapRouter02.sol\":5739:5743  path */\n      dup11\n      dup11\n        /* \"contracts/YunaswapRouter02.sol\":5744:5745  0 */\n      0x00\n        /* \"contracts/YunaswapRouter02.sol\":5739:5746  path[0] */\n      dup2\n      dup2\n      lt\n      tag_103\n      jumpi\n      invalid\n    tag_103:\n      swap1\n      pop\n      0x20\n      mul\n      add\n      calldataload\n      0xffffffffffffffffffffffffffffffffffffffff\n      and\n        /* \"contracts/YunaswapRouter02.sol\":5748:5752  path */\n      dup12\n      dup12\n        /* \"contracts/YunaswapRouter02.sol\":5753:5754  1 */\n      0x01\n        /* \"contracts/YunaswapRouter02.sol\":5748:5755  path[1] */\n      dup2\n      dup2\n      lt\n      tag_104\n      jumpi\n      invalid\n    tag_104:\n      swap1\n      pop\n      0x20\n      mul\n      add\n      calldataload\n      0xffffffffffffffffffffffffffffffffffffffff\n      and\n        /* \"contracts/YunaswapRouter02.sol\":5706:5729  YunaswapLibrary.pairFor */\n      tag_86\n        /* \"contracts/YunaswapRouter02.sol\":5706:5756  YunaswapLibrary.pairFor(factory, path[0], path[1]) */\n      jump\t// in\n    tag_102:\n        /* \"contracts/YunaswapRouter02.sol\":5758:5765  amounts */\n      dup6\n        /* \"contracts/YunaswapRouter02.sol\":5766:5767  0 */\n      0x00\n        /* \"contracts/YunaswapRouter02.sol\":5758:5768  amounts[0] */\n      dup2\n      mload\n      dup2\n      lt\n      tag_105\n      jumpi\n      invalid\n    tag_105:\n      0x20\n      mul\n      0x20\n      add\n      add\n      mload\n        /* \"contracts/YunaswapRouter02.sol\":5640:5671  TransferHelper.safeTransferFrom */\n      tag_106\n        /* \"contracts/YunaswapRouter02.sol\":5640:5778  TransferHelper.safeTransferFrom(... */\n      jump\t// in\n    tag_100:\n        /* \"contracts/YunaswapRouter02.sol\":5788:5812  _swap(amounts, path, to) */\n      tag_107\n        /* \"contracts/YunaswapRouter02.sol\":5794:5801  amounts */\n      dup3\n        /* \"contracts/YunaswapRouter02.sol\":5803:5807  path */\n      dup8\n      dup8\n        /* \"contracts/YunaswapRouter02.sol\":5788:5812  _swap(amounts, path, to) */\n      dup1\n      dup1\n      0x20\n      mul\n      0x20\n      add\n      mload(0x40)\n      swap1\n      dup2\n      add\n      0x40\n      mstore\n      dup1\n      swap4\n      swap3\n      swap2\n      swap1\n      dup2\n      dup2\n      mstore\n      0x20\n      add\n      dup4\n      dup4\n      0x20\n      mul\n        /* \"--CODEGEN--\":30:33   */\n      dup1\n        /* \"--CODEGEN--\":22:28   */\n      dup3\n        /* \"--CODEGEN--\":14:20   */\n      dup5\n        /* \"--CODEGEN--\":1:34   */\n      calldatacopy\n        /* \"--CODEGEN--\":99:100   */\n      0x00\n        /* \"--CODEGEN--\":93:96   */\n      dup2\n        /* \"--CODEGEN--\":85:91   */\n      dup5\n        /* \"--CODEGEN--\":81:97   */\n      add\n        /* \"--CODEGEN--\":74:101   */\n      mstore\n        /* \"--CODEGEN--\":137:141   */\n      0x1f\n        /* \"--CODEGEN--\":133:142   */\n      not\n        /* \"--CODEGEN--\":126:130   */\n      0x1f\n        /* \"--CODEGEN--\":121:124   */\n      dup3\n        /* \"--CODEGEN--\":117:131   */\n      add\n        /* \"--CODEGEN--\":113:143   */\n      and\n        /* \"--CODEGEN--\":106:143   */\n      swap1\n      pop\n        /* \"--CODEGEN--\":169:172   */\n      dup1\n        /* \"--CODEGEN--\":161:167   */\n      dup4\n        /* \"--CODEGEN--\":157:173   */\n      add\n        /* \"--CODEGEN--\":147:173   */\n      swap3\n      pop\n        /* \"contracts/YunaswapRouter02.sol\":5788:5812  _swap(amounts, path, to) */\n      pop\n      pop\n      pop\n      pop\n      pop\n      pop\n        /* \"contracts/YunaswapRouter02.sol\":5809:5811  to */\n      dup7\n        /* \"contracts/YunaswapRouter02.sol\":5788:5793  _swap */\n      tag_108\n        /* \"contracts/YunaswapRouter02.sol\":5788:5812  _swap(amounts, path, to) */\n      jump\t// in\n    tag_107:\n        /* \"contracts/YunaswapRouter02.sol\":5207:5819  function swapExactTokensForTokens(... */\n      pop\n      swap7\n      swap6\n      pop\n      pop\n      pop\n      pop\n      pop\n      pop\n      jump\t// out\n        /* \"contracts/YunaswapRouter02.sol\":7767:8463  function swapExactTokensForTokensSupportingFeeOnTransferTokens(... */\n    tag_45:\n        /* \"contracts/YunaswapRouter02.sol\":7995:8003  deadline */\n      dup1\n        /* \"contracts/YunaswapRouter02.sol\":493:508  block.timestamp */\n      timestamp\n        /* \"contracts/YunaswapRouter02.sol\":481:489  deadline */\n      dup2\n        /* \"contracts/YunaswapRouter02.sol\":481:508  deadline >= block.timestamp */\n      lt\n      iszero\n        /* \"contracts/YunaswapRouter02.sol\":473:536  require(deadline >= block.timestamp, 'YunaswapRouter: EXPIRED') */\n      tag_110\n      jumpi\n      mload(0x40)\n      0x08c379a000000000000000000000000000000000000000000000000000000000\n      dup2\n      mstore\n      0x04\n      add\n      dup1\n      dup1\n      0x20\n      add\n      dup3\n      dup2\n      sub\n      dup3\n      mstore\n      0x17\n      dup2\n      mstore\n      0x20\n      add\n      dup1\n      0x59756e6173776170526f757465723a2045585049524544000000000000000000\n      dup2\n      mstore\n      pop\n      0x20\n      add\n      swap2\n      pop\n      pop\n      mload(0x40)\n      dup1\n      swap2\n      sub\n      swap1\n      revert\n    tag_110:\n        /* \"contracts/YunaswapRouter02.sol\":8015:8151  TransferHelper.safeTransferFrom(... */\n      tag_112\n        /* \"contracts/YunaswapRouter02.sol\":8060:8064  path */\n      dup6\n      dup6\n        /* \"contracts/YunaswapRouter02.sol\":8065:8066  0 */\n      0x00\n        /* \"contracts/YunaswapRouter02.sol\":8060:8067  path[0] */\n      dup2\n      dup2\n      lt\n      tag_113\n      jumpi\n      invalid\n    tag_113:\n      swap1\n      pop\n      0x20\n      mul\n      add\n      calldataload\n      0xffffffffffffffffffffffffffffffffffffffff\n      and\n        /* \"contracts/YunaswapRouter02.sol\":8069:8079  msg.sender */\n      caller\n        /* \"contracts/YunaswapRouter02.sol\":8081:8131  YunaswapLibrary.pairFor(factory, path[0], path[1]) */\n      tag_114\n        /* \"contracts/YunaswapRouter02.sol\":8105:8112  factory */\n      immutable(\"0x277ab82e5a4641341820a4a2933a62c1de997e42e92548657ae21b3728d580fe\")\n        /* \"contracts/YunaswapRouter02.sol\":8114:8118  path */\n      dup10\n      dup10\n        /* \"contracts/YunaswapRouter02.sol\":8119:8120  0 */\n      0x00\n        /* \"contracts/YunaswapRouter02.sol\":8114:8121  path[0] */\n      dup2\n      dup2\n      lt\n      tag_115\n      jumpi\n      invalid\n    tag_115:\n      swap1\n      pop\n      0x20\n      mul\n      add\n      calldataload\n      0xffffffffffffffffffffffffffffffffffffffff\n      and\n        /* \"contracts/YunaswapRouter02.sol\":8123:8127  path */\n      dup11\n      dup11\n        /* \"contracts/YunaswapRouter02.sol\":8128:8129  1 */\n      0x01\n        /* \"contracts/YunaswapRouter02.sol\":8123:8130  path[1] */\n      dup2\n      dup2\n      lt\n      tag_116\n      jumpi\n      invalid\n    tag_116:\n      swap1\n      pop\n      0x20\n      mul\n      add\n      calldataload\n      0xffffffffffffffffffffffffffffffffffffffff\n      and\n        /* \"contracts/YunaswapRouter02.sol\":8081:8104  YunaswapLibrary.pairFor */\n      tag_86\n        /* \"contracts/YunaswapRouter02.sol\":8081:8131  YunaswapLibrary.pairFor(factory, path[0], path[1]) */\n      jump\t// in\n    tag_114:\n        /* \"contracts/YunaswapRouter02.sol\":8133:8141  amountIn */\n      dup11\n        /* \"contracts/YunaswapRouter02.sol\":8015:8046  TransferHelper.safeTransferFrom */\n      tag_106\n        /* \"contracts/YunaswapRouter02.sol\":8015:8151  TransferHelper.safeTransferFrom(... */\n      jump\t// in\n    tag_112:\n        /* \"contracts/YunaswapRouter02.sol\":8161:8179  uint balanceBefore */\n      0x00\n        /* \"contracts/YunaswapRouter02.sol\":8189:8193  path */\n      dup6\n      dup6\n        /* \"contracts/YunaswapRouter02.sol\":8208:8209  1 */\n      0x01\n        /* \"contracts/YunaswapRouter02.sol\":8194:8198  path */\n      dup9\n      dup9\n        /* \"contracts/YunaswapRouter02.sol\":8194:8205  path.length */\n      swap1\n      pop\n        /* \"contracts/YunaswapRouter02.sol\":8194:8209  path.length - 1 */\n      sub\n        /* \"contracts/YunaswapRouter02.sol\":8189:8210  path[path.length - 1] */\n      dup2\n      dup2\n      lt\n      tag_117\n      jumpi\n      invalid\n    tag_117:\n      swap1\n      pop\n      0x20\n      mul\n      add\n      calldataload\n      0xffffffffffffffffffffffffffffffffffffffff\n      and\n        /* \"contracts/YunaswapRouter02.sol\":8182:8221  IERC20(path[path.length - 1]).balanceOf */\n      0xffffffffffffffffffffffffffffffffffffffff\n      and\n      0x70a08231\n        /* \"contracts/YunaswapRouter02.sol\":8222:8224  to */\n      dup6\n        /* \"contracts/YunaswapRouter02.sol\":8182:8225  IERC20(path[path.length - 1]).balanceOf(to) */\n      mload(0x40)\n      dup3\n      0xffffffff\n      and\n      0xe0\n      shl\n      dup2\n      mstore\n      0x04\n      add\n      dup1\n      dup3\n      0xffffffffffffffffffffffffffffffffffffffff\n      and\n      0xffffffffffffffffffffffffffffffffffffffff\n      and\n      dup2\n      mstore\n      0x20\n      add\n      swap2\n      pop\n      pop\n      0x20\n      mload(0x40)\n      dup1\n      dup4\n      sub\n      dup2\n      dup7\n      dup1\n      extcodesize\n      iszero\n        /* \"--CODEGEN--\":5:14   */\n      dup1\n        /* \"--CODEGEN--\":2:4   */\n      iszero\n      tag_118\n      jumpi\n        /* \"--CODEGEN--\":27:28   */\n      0x00\n        /* \"--CODEGEN--\":24:25   */\n      dup1\n        /* \"--CODEGEN--\":17:29   */\n      revert\n        /* \"--CODEGEN--\":2:4   */\n    tag_118:\n        /* \"contracts/YunaswapRouter02.sol\":8182:8225  IERC20(path[path.length - 1]).balanceOf(to) */\n      pop\n      gas\n      staticcall\n      iszero\n        /* \"--CODEGEN--\":8:17   */\n      dup1\n        /* \"--CODEGEN--\":5:7   */\n      iszero\n      tag_120\n      jumpi\n        /* \"--CODEGEN--\":45:61   */\n      returndatasize\n        /* \"--CODEGEN--\":42:43   */\n      0x00\n        /* \"--CODEGEN--\":39:40   */\n      dup1\n        /* \"--CODEGEN--\":24:62   */\n      returndatacopy\n        /* \"--CODEGEN--\":77:93   */\n      returndatasize\n        /* \"--CODEGEN--\":74:75   */\n      0x00\n        /* \"--CODEGEN--\":67:94   */\n      revert\n        /* \"--CODEGEN--\":5:7   */\n    tag_120:\n        /* \"contracts/YunaswapRouter02.sol\":8182:8225  IERC20(path[path.length - 1]).balanceOf(to) */\n      pop\n      pop\n      pop\n      pop\n      mload(0x40)\n      returndatasize\n        /* \"--CODEGEN--\":15:17   */\n      0x20\n        /* \"--CODEGEN--\":10:13   */\n      dup2\n        /* \"--CODEGEN--\":7:18   */\n      lt\n        /* \"--CODEGEN--\":4:6   */\n      iszero\n      tag_121\n      jumpi\n        /* \"--CODEGEN--\":31:32   */\n      0x00\n        /* \"--CODEGEN--\":28:29   */\n      dup1\n        /* \"--CODEGEN--\":21:33   */\n      revert\n        /* \"--CODEGEN--\":4:6   */\n    tag_121:\n        /* \"contracts/YunaswapRouter02.sol\":8182:8225  IERC20(path[path.length - 1]).balanceOf(to) */\n      dup2\n      add\n      swap1\n      dup1\n      dup1\n      mload\n      swap1\n      0x20\n      add\n      swap1\n      swap3\n      swap2\n      swap1\n      pop\n      pop\n      pop\n        /* \"contracts/YunaswapRouter02.sol\":8161:8225  uint balanceBefore = IERC20(path[path.length - 1]).balanceOf(to) */\n      swap1\n      pop\n        /* \"contracts/YunaswapRouter02.sol\":8235:8279  _swapSupportingFeeOnTransferTokens(path, to) */\n      tag_122\n        /* \"contracts/YunaswapRouter02.sol\":8270:8274  path */\n      dup7\n      dup7\n        /* \"contracts/YunaswapRouter02.sol\":8235:8279  _swapSupportingFeeOnTransferTokens(path, to) */\n      dup1\n      dup1\n      0x20\n      mul\n      0x20\n      add\n      mload(0x40)\n      swap1\n      dup2\n      add\n      0x40\n      mstore\n      dup1\n      swap4\n      swap3\n      swap2\n      swap1\n      dup2\n      dup2\n      mstore\n      0x20\n      add\n      dup4\n      dup4\n      0x20\n      mul\n        /* \"--CODEGEN--\":30:33   */\n      dup1\n        /* \"--CODEGEN--\":22:28   */\n      dup3\n        /* \"--CODEGEN--\":14:20   */\n      dup5\n        /* \"--CODEGEN--\":1:34   */\n      calldatacopy\n        /* \"--CODEGEN--\":99:100   */\n      0x00\n        /* \"--CODEGEN--\":93:96   */\n      dup2\n        /* \"--CODEGEN--\":85:91   */\n      dup5\n        /* \"--CODEGEN--\":81:97   */\n      add\n        /* \"--CODEGEN--\":74:101   */\n      mstore\n        /* \"--CODEGEN--\":137:141   */\n      0x1f\n        /* \"--CODEGEN--\":133:142   */\n      not\n        /* \"--CODEGEN--\":126:130   */\n      0x1f\n        /* \"--CODEGEN--\":121:124   */\n      dup3\n        /* \"--CODEGEN--\":117:131   */\n      add\n        /* \"--CODEGEN--\":113:143   */\n      and\n        /* \"--CODEGEN--\":106:143   */\n      swap1\n      pop\n        /* \"--CODEGEN--\":169:172   */\n      dup1\n        /* \"--CODEGEN--\":161:167   */\n      dup4\n        /* \"--CODEGEN--\":157:173   */\n      add\n        /* \"--CODEGEN--\":147:173   */\n      swap3\n      pop\n        /* \"contracts/YunaswapRouter02.sol\":8235:8279  _swapSupportingFeeOnTransferTokens(path, to) */\n      pop\n      pop\n      pop\n      pop\n      pop\n      pop\n        /* \"contracts/YunaswapRouter02.sol\":8276:8278  to */\n      dup6\n        /* \"contracts/YunaswapRouter02.sol\":8235:8269  _swapSupportingFeeOnTransferTokens */\n      tag_123\n        /* \"contracts/YunaswapRouter02.sol\":8235:8279  _swapSupportingFeeOnTransferTokens(path, to) */\n      jump\t// in\n    tag_122:\n        /* \"contracts/YunaswapRouter02.sol\":8376:8388  amountOutMin */\n      dup7\n        /* \"contracts/YunaswapRouter02.sol\":8310:8372  IERC20(path[path.length - 1]).balanceOf(to).sub(balanceBefore) */\n      tag_124\n        /* \"contracts/YunaswapRouter02.sol\":8358:8371  balanceBefore */\n      dup3\n        /* \"contracts/YunaswapRouter02.sol\":8317:8321  path */\n      dup9\n      dup9\n        /* \"contracts/YunaswapRouter02.sol\":8336:8337  1 */\n      0x01\n        /* \"contracts/YunaswapRouter02.sol\":8322:8326  path */\n      dup12\n      dup12\n        /* \"contracts/YunaswapRouter02.sol\":8322:8333  path.length */\n      swap1\n      pop\n        /* \"contracts/YunaswapRouter02.sol\":8322:8337  path.length - 1 */\n      sub\n        /* \"contracts/YunaswapRouter02.sol\":8317:8338  path[path.length - 1] */\n      dup2\n      dup2\n      lt\n      tag_125\n      jumpi\n      invalid\n    tag_125:\n      swap1\n      pop\n      0x20\n      mul\n      add\n      calldataload\n      0xffffffffffffffffffffffffffffffffffffffff\n      and\n        /* \"contracts/YunaswapRouter02.sol\":8310:8349  IERC20(path[path.length - 1]).balanceOf */\n      0xffffffffffffffffffffffffffffffffffffffff\n      and\n      0x70a08231\n        /* \"contracts/YunaswapRouter02.sol\":8350:8352  to */\n      dup9\n        /* \"contracts/YunaswapRouter02.sol\":8310:8353  IERC20(path[path.length - 1]).balanceOf(to) */\n      mload(0x40)\n      dup3\n      0xffffffff\n      and\n      0xe0\n      shl\n      dup2\n      mstore\n      0x04\n      add\n      dup1\n      dup3\n      0xffffffffffffffffffffffffffffffffffffffff\n      and\n      0xffffffffffffffffffffffffffffffffffffffff\n      and\n      dup2\n      mstore\n      0x20\n      add\n      swap2\n      pop\n      pop\n      0x20\n      mload(0x40)\n      dup1\n      dup4\n      sub\n      dup2\n      dup7\n      dup1\n      extcodesize\n      iszero\n        /* \"--CODEGEN--\":5:14   */\n      dup1\n        /* \"--CODEGEN--\":2:4   */\n      iszero\n      tag_126\n      jumpi\n        /* \"--CODEGEN--\":27:28   */\n      0x00\n        /* \"--CODEGEN--\":24:25   */\n      dup1\n        /* \"--CODEGEN--\":17:29   */\n      revert\n        /* \"--CODEGEN--\":2:4   */\n    tag_126:\n        /* \"contracts/YunaswapRouter02.sol\":8310:8353  IERC20(path[path.length - 1]).balanceOf(to) */\n      pop\n      gas\n      staticcall\n      iszero\n        /* \"--CODEGEN--\":8:17   */\n      dup1\n        /* \"--CODEGEN--\":5:7   */\n      iszero\n      tag_128\n      jumpi\n        /* \"--CODEGEN--\":45:61   */\n      returndatasize\n        /* \"--CODEGEN--\":42:43   */\n      0x00\n        /* \"--CODEGEN--\":39:40   */\n      dup1\n        /* \"--CODEGEN--\":24:62   */\n      returndatacopy\n        /* \"--CODEGEN--\":77:93   */\n      returndatasize\n        /* \"--CODEGEN--\":74:75   */\n      0x00\n        /* \"--CODEGEN--\":67:94   */\n      revert\n        /* \"--CODEGEN--\":5:7   */\n    tag_128:\n        /* \"contracts/YunaswapRouter02.sol\":8310:8353  IERC20(path[path.length - 1]).balanceOf(to) */\n      pop\n      pop\n      pop\n      pop\n      mload(0x40)\n      returndatasize\n        /* \"--CODEGEN--\":15:17   */\n      0x20\n        /* \"--CODEGEN--\":10:13   */\n      dup2\n        /* \"--CODEGEN--\":7:18   */\n      lt\n        /* \"--CODEGEN--\":4:6   */\n      iszero\n      tag_129\n      jumpi\n        /* \"--CODEGEN--\":31:32   */\n      0x00\n        /* \"--CODEGEN--\":28:29   */\n      dup1\n        /* \"--CODEGEN--\":21:33   */\n      revert\n        /* \"--CODEGEN--\":4:6   */\n    tag_129:\n        /* \"contracts/YunaswapRouter02.sol\":8310:8353  IERC20(path[path.length - 1]).balanceOf(to) */\n      dup2\n      add\n      swap1\n      dup1\n      dup1\n      mload\n      swap1\n      0x20\n      add\n      swap1\n      swap3\n      swap2\n      swap1\n      pop\n      pop\n      pop\n        /* \"contracts/YunaswapRouter02.sol\":8310:8357  IERC20(path[path.length - 1]).balanceOf(to).sub */\n      tag_130\n      swap1\n        /* \"contracts/YunaswapRouter02.sol\":8310:8372  IERC20(path[path.length - 1]).balanceOf(to).sub(balanceBefore) */\n      swap2\n      swap1\n      0xffffffff\n      and\n      jump\t// in\n    tag_124:\n        /* \"contracts/YunaswapRouter02.sol\":8310:8388  IERC20(path[path.length - 1]).balanceOf(to).sub(balanceBefore) >= amountOutMin */\n      lt\n      iszero\n        /* \"contracts/YunaswapRouter02.sol\":8289:8456  require(... */\n      tag_131\n      jumpi\n      mload(0x40)\n      0x08c379a000000000000000000000000000000000000000000000000000000000\n      dup2\n      mstore\n      0x04\n      add\n      dup1\n      dup1\n      0x20\n      add\n      dup3\n      dup2\n      sub\n      dup3\n      mstore\n      0x2a\n      dup2\n      mstore\n      0x20\n      add\n      dup1\n      data_b4b33a249d23011309692605ca1914f8f49b3e9bcb505955732af460790173fa\n      0x2a\n      swap2\n      codecopy\n      0x40\n      add\n      swap2\n      pop\n      pop\n      mload(0x40)\n      dup1\n      swap2\n      sub\n      swap1\n      revert\n    tag_131:\n        /* \"contracts/YunaswapRouter02.sol\":546:547  _ */\n      pop\n        /* \"contracts/YunaswapRouter02.sol\":7767:8463  function swapExactTokensForTokensSupportingFeeOnTransferTokens(... */\n      pop\n      pop\n      pop\n      pop\n      pop\n      pop\n      pop\n      jump\t// out\n        /* \"contracts/YunaswapRouter02.sol\":8961:9213  function getAmountIn(uint amountOut, uint reserveIn, uint reserveOut)... */\n    tag_48:\n        /* \"contracts/YunaswapRouter02.sol\":9109:9122  uint amountIn */\n      0x00\n        /* \"contracts/YunaswapRouter02.sol\":9145:9206  YunaswapLibrary.getAmountIn(amountOut, reserveIn, reserveOut) */\n      tag_133\n        /* \"contracts/YunaswapRouter02.sol\":9173:9182  amountOut */\n      dup5\n        /* \"contracts/YunaswapRouter02.sol\":9184:9193  reserveIn */\n      dup5\n        /* \"contracts/YunaswapRouter02.sol\":9195:9205  reserveOut */\n      dup5\n        /* \"contracts/YunaswapRouter02.sol\":9145:9172  YunaswapLibrary.getAmountIn */\n      tag_134\n        /* \"contracts/YunaswapRouter02.sol\":9145:9206  YunaswapLibrary.getAmountIn(amountOut, reserveIn, reserveOut) */\n      jump\t// in\n    tag_133:\n        /* \"contracts/YunaswapRouter02.sol\":9138:9206  return YunaswapLibrary.getAmountIn(amountOut, reserveIn, reserveOut) */\n      swap1\n      pop\n        /* \"contracts/YunaswapRouter02.sol\":8961:9213  function getAmountIn(uint amountOut, uint reserveIn, uint reserveOut)... */\n      swap4\n      swap3\n      pop\n      pop\n      pop\n      jump\t// out\n        /* \"contracts/YunaswapRouter02.sol\":5824:6414  function swapTokensForExactTokens(... */\n    tag_54:\n        /* \"contracts/YunaswapRouter02.sol\":6042:6063  uint[] memory amounts */\n      0x60\n        /* \"contracts/YunaswapRouter02.sol\":6023:6031  deadline */\n      dup2\n        /* \"contracts/YunaswapRouter02.sol\":493:508  block.timestamp */\n      timestamp\n        /* \"contracts/YunaswapRouter02.sol\":481:489  deadline */\n      dup2\n        /* \"contracts/YunaswapRouter02.sol\":481:508  deadline >= block.timestamp */\n      lt\n      iszero\n        /* \"contracts/YunaswapRouter02.sol\":473:536  require(deadline >= block.timestamp, 'YunaswapRouter: EXPIRED') */\n      tag_136\n      jumpi\n      mload(0x40)\n      0x08c379a000000000000000000000000000000000000000000000000000000000\n      dup2\n      mstore\n      0x04\n      add\n      dup1\n      dup1\n      0x20\n      add\n      dup3\n      dup2\n      sub\n      dup3\n      mstore\n      0x17\n      dup2\n      mstore\n      0x20\n      add\n      dup1\n      0x59756e6173776170526f757465723a2045585049524544000000000000000000\n      dup2\n      mstore\n      pop\n      0x20\n      add\n      swap2\n      pop\n      pop\n      mload(0x40)\n      dup1\n      swap2\n      sub\n      swap1\n      revert\n    tag_136:\n        /* \"contracts/YunaswapRouter02.sol\":6085:6139  YunaswapLibrary.getAmountsIn(factory, amountOut, path) */\n      tag_138\n        /* \"contracts/YunaswapRouter02.sol\":6114:6121  factory */\n      immutable(\"0x277ab82e5a4641341820a4a2933a62c1de997e42e92548657ae21b3728d580fe\")\n        /* \"contracts/YunaswapRouter02.sol\":6123:6132  amountOut */\n      dup10\n        /* \"contracts/YunaswapRouter02.sol\":6134:6138  path */\n      dup9\n      dup9\n        /* \"contracts/YunaswapRouter02.sol\":6085:6139  YunaswapLibrary.getAmountsIn(factory, amountOut, path) */\n      dup1\n      dup1\n      0x20\n      mul\n      0x20\n      add\n      mload(0x40)\n      swap1\n      dup2\n      add\n      0x40\n      mstore\n      dup1\n      swap4\n      swap3\n      swap2\n      swap1\n      dup2\n      dup2\n      mstore\n      0x20\n      add\n      dup4\n      dup4\n      0x20\n      mul\n        /* \"--CODEGEN--\":30:33   */\n      dup1\n        /* \"--CODEGEN--\":22:28   */\n      dup3\n        /* \"--CODEGEN--\":14:20   */\n      dup5\n        /* \"--CODEGEN--\":1:34   */\n      calldatacopy\n        /* \"--CODEGEN--\":99:100   */\n      0x00\n        /* \"--CODEGEN--\":93:96   */\n      dup2\n        /* \"--CODEGEN--\":85:91   */\n      dup5\n        /* \"--CODEGEN--\":81:97   */\n      add\n        /* \"--CODEGEN--\":74:101   */\n      mstore\n        /* \"--CODEGEN--\":137:141   */\n      0x1f\n        /* \"--CODEGEN--\":133:142   */\n      not\n        /* \"--CODEGEN--\":126:130   */\n      0x1f\n        /* \"--CODEGEN--\":121:124   */\n      dup3\n        /* \"--CODEGEN--\":117:131   */\n      add\n        /* \"--CODEGEN--\":113:143   */\n      and\n        /* \"--CODEGEN--\":106:143   */\n      swap1\n      pop\n        /* \"--CODEGEN--\":169:172   */\n      dup1\n        /* \"--CODEGEN--\":161:167   */\n      dup4\n        /* \"--CODEGEN--\":157:173   */\n      add\n        /* \"--CODEGEN--\":147:173   */\n      swap3\n      pop\n        /* \"contracts/YunaswapRouter02.sol\":6085:6139  YunaswapLibrary.getAmountsIn(factory, amountOut, path) */\n      pop\n      pop\n      pop\n      pop\n      pop\n      pop\n        /* \"contracts/YunaswapRouter02.sol\":6085:6113  YunaswapLibrary.getAmountsIn */\n      tag_83\n        /* \"contracts/YunaswapRouter02.sol\":6085:6139  YunaswapLibrary.getAmountsIn(factory, amountOut, path) */\n      jump\t// in\n    tag_138:\n        /* \"contracts/YunaswapRouter02.sol\":6075:6139  amounts = YunaswapLibrary.getAmountsIn(factory, amountOut, path) */\n      swap2\n      pop\n        /* \"contracts/YunaswapRouter02.sol\":6171:6182  amountInMax */\n      dup7\n        /* \"contracts/YunaswapRouter02.sol\":6157:6164  amounts */\n      dup3\n        /* \"contracts/YunaswapRouter02.sol\":6165:6166  0 */\n      0x00\n        /* \"contracts/YunaswapRouter02.sol\":6157:6167  amounts[0] */\n      dup2\n      mload\n      dup2\n      lt\n      tag_139\n      jumpi\n      invalid\n    tag_139:\n      0x20\n      mul\n      0x20\n      add\n      add\n      mload\n        /* \"contracts/YunaswapRouter02.sol\":6157:6182  amounts[0] <= amountInMax */\n      gt\n      iszero\n        /* \"contracts/YunaswapRouter02.sol\":6149:6225  require(amounts[0] <= amountInMax, 'YunaswapRouter: EXCESSIVE_INPUT_AMOUNT') */\n      tag_140\n      jumpi\n      mload(0x40)\n      0x08c379a000000000000000000000000000000000000000000000000000000000\n      dup2\n      mstore\n      0x04\n      add\n      dup1\n      dup1\n      0x20\n      add\n      dup3\n      dup2\n      sub\n      dup3\n      mstore\n      0x26\n      dup2\n      mstore\n      0x20\n      add\n      dup1\n      data_44e1bd322d45ce34e2fba893de24a6c1f2334fe2c49ba57997ea21e9fb58a6dc\n      0x26\n      swap2\n      codecopy\n      0x40\n      add\n      swap2\n      pop\n      pop\n      mload(0x40)\n      dup1\n      swap2\n      sub\n      swap1\n      revert\n    tag_140:\n        /* \"contracts/YunaswapRouter02.sol\":6235:6373  TransferHelper.safeTransferFrom(... */\n      tag_141\n        /* \"contracts/YunaswapRouter02.sol\":6280:6284  path */\n      dup7\n      dup7\n        /* \"contracts/YunaswapRouter02.sol\":6285:6286  0 */\n      0x00\n        /* \"contracts/YunaswapRouter02.sol\":6280:6287  path[0] */\n      dup2\n      dup2\n      lt\n      tag_142\n      jumpi\n      invalid\n    tag_142:\n      swap1\n      pop\n      0x20\n      mul\n      add\n      calldataload\n      0xffffffffffffffffffffffffffffffffffffffff\n      and\n        /* \"contracts/YunaswapRouter02.sol\":6289:6299  msg.sender */\n      caller\n        /* \"contracts/YunaswapRouter02.sol\":6301:6351  YunaswapLibrary.pairFor(factory, path[0], path[1]) */\n      tag_143\n        /* \"contracts/YunaswapRouter02.sol\":6325:6332  factory */\n      immutable(\"0x277ab82e5a4641341820a4a2933a62c1de997e42e92548657ae21b3728d580fe\")\n        /* \"contracts/YunaswapRouter02.sol\":6334:6338  path */\n      dup11\n      dup11\n        /* \"contracts/YunaswapRouter02.sol\":6339:6340  0 */\n      0x00\n        /* \"contracts/YunaswapRouter02.sol\":6334:6341  path[0] */\n      dup2\n      dup2\n      lt\n      tag_144\n      jumpi\n      invalid\n    tag_144:\n      swap1\n      pop\n      0x20\n      mul\n      add\n      calldataload\n      0xffffffffffffffffffffffffffffffffffffffff\n      and\n        /* \"contracts/YunaswapRouter02.sol\":6343:6347  path */\n      dup12\n      dup12\n        /* \"contracts/YunaswapRouter02.sol\":6348:6349  1 */\n      0x01\n        /* \"contracts/YunaswapRouter02.sol\":6343:6350  path[1] */\n      dup2\n      dup2\n      lt\n      tag_145\n      jumpi\n      invalid\n    tag_145:\n      swap1\n      pop\n      0x20\n      mul\n      add\n      calldataload\n      0xffffffffffffffffffffffffffffffffffffffff\n      and\n        /* \"contracts/YunaswapRouter02.sol\":6301:6324  YunaswapLibrary.pairFor */\n      tag_86\n        /* \"contracts/YunaswapRouter02.sol\":6301:6351  YunaswapLibrary.pairFor(factory, path[0], path[1]) */\n      jump\t// in\n    tag_143:\n        /* \"contracts/YunaswapRouter02.sol\":6353:6360  amounts */\n      dup6\n        /* \"contracts/YunaswapRouter02.sol\":6361:6362  0 */\n      0x00\n        /* \"contracts/YunaswapRouter02.sol\":6353:6363  amounts[0] */\n      dup2\n      mload\n      dup2\n      lt\n      tag_146\n      jumpi\n      invalid\n    tag_146:\n      0x20\n      mul\n      0x20\n      add\n      add\n      mload\n        /* \"contracts/YunaswapRouter02.sol\":6235:6266  TransferHelper.safeTransferFrom */\n      tag_106\n        /* \"contracts/YunaswapRouter02.sol\":6235:6373  TransferHelper.safeTransferFrom(... */\n      jump\t// in\n    tag_141:\n        /* \"contracts/YunaswapRouter02.sol\":6383:6407  _swap(amounts, path, to) */\n      tag_147\n        /* \"contracts/YunaswapRouter02.sol\":6389:6396  amounts */\n      dup3\n        /* \"contracts/YunaswapRouter02.sol\":6398:6402  path */\n      dup8\n      dup8\n        /* \"contracts/YunaswapRouter02.sol\":6383:6407  _swap(amounts, path, to) */\n      dup1\n      dup1\n      0x20\n      mul\n      0x20\n      add\n      mload(0x40)\n      swap1\n      dup2\n      add\n      0x40\n      mstore\n      dup1\n      swap4\n      swap3\n      swap2\n      swap1\n      dup2\n      dup2\n      mstore\n      0x20\n      add\n      dup4\n      dup4\n      0x20\n      mul\n        /* \"--CODEGEN--\":30:33   */\n      dup1\n        /* \"--CODEGEN--\":22:28   */\n      dup3\n        /* \"--CODEGEN--\":14:20   */\n      dup5\n        /* \"--CODEGEN--\":1:34   */\n      calldatacopy\n        /* \"--CODEGEN--\":99:100   */\n      0x00\n        /* \"--CODEGEN--\":93:96   */\n      dup2\n        /* \"--CODEGEN--\":85:91   */\n      dup5\n        /* \"--CODEGEN--\":81:97   */\n      add\n        /* \"--CODEGEN--\":74:101   */\n      mstore\n        /* \"--CODEGEN--\":137:141   */\n      0x1f\n        /* \"--CODEGEN--\":133:142   */\n      not\n        /* \"--CODEGEN--\":126:130   */\n      0x1f\n        /* \"--CODEGEN--\":121:124   */\n      dup3\n        /* \"--CODEGEN--\":117:131   */\n      add\n        /* \"--CODEGEN--\":113:143   */\n      and\n        /* \"--CODEGEN--\":106:143   */\n      swap1\n      pop\n        /* \"--CODEGEN--\":169:172   */\n      dup1\n        /* \"--CODEGEN--\":161:167   */\n      dup4\n        /* \"--CODEGEN--\":157:173   */\n      add\n        /* \"--CODEGEN--\":147:173   */\n      swap3\n      pop\n        /* \"contracts/YunaswapRouter02.sol\":6383:6407  _swap(amounts, path, to) */\n      pop\n      pop\n      pop\n      pop\n      pop\n      pop\n        /* \"contracts/YunaswapRouter02.sol\":6404:6406  to */\n      dup7\n        /* \"contracts/YunaswapRouter02.sol\":6383:6388  _swap */\n      tag_108\n        /* \"contracts/YunaswapRouter02.sol\":6383:6407  _swap(amounts, path, to) */\n      jump\t// in\n    tag_147:\n        /* \"contracts/YunaswapRouter02.sol\":5824:6414  function swapTokensForExactTokens(... */\n      pop\n      swap7\n      swap6\n      pop\n      pop\n      pop\n      pop\n      pop\n      pop\n      jump\t// out\n        /* \"contracts/YunaswapRouter02.sol\":8511:8696  function quote(uint amountA, uint reserveA, uint reserveB) public pure virtual override returns (uint amountB) {... */\n    tag_60:\n        /* \"contracts/YunaswapRouter02.sol\":8608:8620  uint amountB */\n      0x00\n        /* \"contracts/YunaswapRouter02.sol\":8639:8689  YunaswapLibrary.quote(amountA, reserveA, reserveB) */\n      tag_149\n        /* \"contracts/YunaswapRouter02.sol\":8661:8668  amountA */\n      dup5\n        /* \"contracts/YunaswapRouter02.sol\":8670:8678  reserveA */\n      dup5\n        /* \"contracts/YunaswapRouter02.sol\":8680:8688  reserveB */\n      dup5\n        /* \"contracts/YunaswapRouter02.sol\":8639:8660  YunaswapLibrary.quote */\n      tag_150\n        /* \"contracts/YunaswapRouter02.sol\":8639:8689  YunaswapLibrary.quote(amountA, reserveA, reserveB) */\n      jump\t// in\n    tag_149:\n        /* \"contracts/YunaswapRouter02.sol\":8632:8689  return YunaswapLibrary.quote(amountA, reserveA, reserveB) */\n      swap1\n      pop\n        /* \"contracts/YunaswapRouter02.sol\":8511:8696  function quote(uint amountA, uint reserveA, uint reserveB) public pure virtual override returns (uint amountB) {... */\n      swap4\n      swap3\n      pop\n      pop\n      pop\n      jump\t// out\n        /* \"contracts/YunaswapRouter02.sol\":2788:3631  function removeLiquidity(... */\n    tag_63:\n        /* \"contracts/YunaswapRouter02.sol\":3034:3046  uint amountA */\n      0x00\n        /* \"contracts/YunaswapRouter02.sol\":3048:3060  uint amountB */\n      dup1\n        /* \"contracts/YunaswapRouter02.sol\":3015:3023  deadline */\n      dup3\n        /* \"contracts/YunaswapRouter02.sol\":493:508  block.timestamp */\n      timestamp\n        /* \"contracts/YunaswapRouter02.sol\":481:489  deadline */\n      dup2\n        /* \"contracts/YunaswapRouter02.sol\":481:508  deadline >= block.timestamp */\n      lt\n      iszero\n        /* \"contracts/YunaswapRouter02.sol\":473:536  require(deadline >= block.timestamp, 'YunaswapRouter: EXPIRED') */\n      tag_152\n      jumpi\n      mload(0x40)\n      0x08c379a000000000000000000000000000000000000000000000000000000000\n      dup2\n      mstore\n      0x04\n      add\n      dup1\n      dup1\n      0x20\n      add\n      dup3\n      dup2\n      sub\n      dup3\n      mstore\n      0x17\n      dup2\n      mstore\n      0x20\n      add\n      dup1\n      0x59756e6173776170526f757465723a2045585049524544000000000000000000\n      dup2\n      mstore\n      pop\n      0x20\n      add\n      swap2\n      pop\n      pop\n      mload(0x40)\n      dup1\n      swap2\n      sub\n      swap1\n      revert\n    tag_152:\n        /* \"contracts/YunaswapRouter02.sol\":3072:3084  address pair */\n      0x00\n        /* \"contracts/YunaswapRouter02.sol\":3087:3135  YunaswapLibrary.pairFor(factory, tokenA, tokenB) */\n      tag_154\n        /* \"contracts/YunaswapRouter02.sol\":3111:3118  factory */\n      immutable(\"0x277ab82e5a4641341820a4a2933a62c1de997e42e92548657ae21b3728d580fe\")\n        /* \"contracts/YunaswapRouter02.sol\":3120:3126  tokenA */\n      dup13\n        /* \"contracts/YunaswapRouter02.sol\":3128:3134  tokenB */\n      dup13\n        /* \"contracts/YunaswapRouter02.sol\":3087:3110  YunaswapLibrary.pairFor */\n      tag_86\n        /* \"contracts/YunaswapRouter02.sol\":3087:3135  YunaswapLibrary.pairFor(factory, tokenA, tokenB) */\n      jump\t// in\n    tag_154:\n        /* \"contracts/YunaswapRouter02.sol\":3072:3135  address pair = YunaswapLibrary.pairFor(factory, tokenA, tokenB) */\n      swap1\n      pop\n        /* \"contracts/YunaswapRouter02.sol\":3159:3163  pair */\n      dup1\n        /* \"contracts/YunaswapRouter02.sol\":3145:3177  IYunaswapPair(pair).transferFrom */\n      0xffffffffffffffffffffffffffffffffffffffff\n      and\n      0x23b872dd\n        /* \"contracts/YunaswapRouter02.sol\":3178:3188  msg.sender */\n      caller\n        /* \"contracts/YunaswapRouter02.sol\":3190:3194  pair */\n      dup4\n        /* \"contracts/YunaswapRouter02.sol\":3196:3205  liquidity */\n      dup13\n        /* \"contracts/YunaswapRouter02.sol\":3145:3206  IYunaswapPair(pair).transferFrom(msg.sender, pair, liquidity) */\n      mload(0x40)\n      dup5\n      0xffffffff\n      and\n      0xe0\n      shl\n      dup2\n      mstore\n      0x04\n      add\n      dup1\n      dup5\n      0xffffffffffffffffffffffffffffffffffffffff\n      and\n      0xffffffffffffffffffffffffffffffffffffffff\n      and\n      dup2\n      mstore\n      0x20\n      add\n      dup4\n      0xffffffffffffffffffffffffffffffffffffffff\n      and\n      0xffffffffffffffffffffffffffffffffffffffff\n      and\n      dup2\n      mstore\n      0x20\n      add\n      dup3\n      dup2\n      mstore\n      0x20\n      add\n      swap4\n      pop\n      pop\n      pop\n      pop\n      0x20\n      mload(0x40)\n      dup1\n      dup4\n      sub\n      dup2\n      0x00\n      dup8\n      dup1\n      extcodesize\n      iszero\n        /* \"--CODEGEN--\":5:14   */\n      dup1\n        /* \"--CODEGEN--\":2:4   */\n      iszero\n      tag_155\n      jumpi\n        /* \"--CODEGEN--\":27:28   */\n      0x00\n        /* \"--CODEGEN--\":24:25   */\n      dup1\n        /* \"--CODEGEN--\":17:29   */\n      revert\n        /* \"--CODEGEN--\":2:4   */\n    tag_155:\n        /* \"contracts/YunaswapRouter02.sol\":3145:3206  IYunaswapPair(pair).transferFrom(msg.sender, pair, liquidity) */\n      pop\n      gas\n      call\n      iszero\n        /* \"--CODEGEN--\":8:17   */\n      dup1\n        /* \"--CODEGEN--\":5:7   */\n      iszero\n      tag_157\n      jumpi\n        /* \"--CODEGEN--\":45:61   */\n      returndatasize\n        /* \"--CODEGEN--\":42:43   */\n      0x00\n        /* \"--CODEGEN--\":39:40   */\n      dup1\n        /* \"--CODEGEN--\":24:62   */\n      returndatacopy\n        /* \"--CODEGEN--\":77:93   */\n      returndatasize\n        /* \"--CODEGEN--\":74:75   */\n      0x00\n        /* \"--CODEGEN--\":67:94   */\n      revert\n        /* \"--CODEGEN--\":5:7   */\n    tag_157:\n        /* \"contracts/YunaswapRouter02.sol\":3145:3206  IYunaswapPair(pair).transferFrom(msg.sender, pair, liquidity) */\n      pop\n      pop\n      pop\n      pop\n      mload(0x40)\n      returndatasize\n        /* \"--CODEGEN--\":15:17   */\n      0x20\n        /* \"--CODEGEN--\":10:13   */\n      dup2\n        /* \"--CODEGEN--\":7:18   */\n      lt\n        /* \"--CODEGEN--\":4:6   */\n      iszero\n      tag_158\n      jumpi\n        /* \"--CODEGEN--\":31:32   */\n      0x00\n        /* \"--CODEGEN--\":28:29   */\n      dup1\n        /* \"--CODEGEN--\":21:33   */\n      revert\n        /* \"--CODEGEN--\":4:6   */\n    tag_158:\n        /* \"contracts/YunaswapRouter02.sol\":3145:3206  IYunaswapPair(pair).transferFrom(msg.sender, pair, liquidity) */\n      dup2\n      add\n      swap1\n      dup1\n      dup1\n      mload\n      swap1\n      0x20\n      add\n      swap1\n      swap3\n      swap2\n      swap1\n      pop\n      pop\n      pop\n      pop\n        /* \"contracts/YunaswapRouter02.sol\":3243:3255  uint amount0 */\n      0x00\n        /* \"contracts/YunaswapRouter02.sol\":3257:3269  uint amount1 */\n      dup1\n        /* \"contracts/YunaswapRouter02.sol\":3287:3291  pair */\n      dup3\n        /* \"contracts/YunaswapRouter02.sol\":3273:3297  IYunaswapPair(pair).burn */\n      0xffffffffffffffffffffffffffffffffffffffff\n      and\n      0x89afcb44\n        /* \"contracts/YunaswapRouter02.sol\":3298:3300  to */\n      dup10\n        /* \"contracts/YunaswapRouter02.sol\":3273:3301  IYunaswapPair(pair).burn(to) */\n      mload(0x40)\n      dup3\n      0xffffffff\n      and\n      0xe0\n      shl\n      dup2\n      mstore\n      0x04\n      add\n      dup1\n      dup3\n      0xffffffffffffffffffffffffffffffffffffffff\n      and\n      0xffffffffffffffffffffffffffffffffffffffff\n      and\n      dup2\n      mstore\n      0x20\n      add\n      swap2\n      pop\n      pop\n      0x40\n      dup1\n      mload\n      dup1\n      dup4\n      sub\n      dup2\n      0x00\n      dup8\n      dup1\n      extcodesize\n      iszero\n        /* \"--CODEGEN--\":5:14   */\n      dup1\n        /* \"--CODEGEN--\":2:4   */\n      iszero\n      tag_159\n      jumpi\n        /* \"--CODEGEN--\":27:28   */\n      0x00\n        /* \"--CODEGEN--\":24:25   */\n      dup1\n        /* \"--CODEGEN--\":17:29   */\n      revert\n        /* \"--CODEGEN--\":2:4   */\n    tag_159:\n        /* \"contracts/YunaswapRouter02.sol\":3273:3301  IYunaswapPair(pair).burn(to) */\n      pop\n      gas\n      call\n      iszero\n        /* \"--CODEGEN--\":8:17   */\n      dup1\n        /* \"--CODEGEN--\":5:7   */\n      iszero\n      tag_161\n      jumpi\n        /* \"--CODEGEN--\":45:61   */\n      returndatasize\n        /* \"--CODEGEN--\":42:43   */\n      0x00\n        /* \"--CODEGEN--\":39:40   */\n      dup1\n        /* \"--CODEGEN--\":24:62   */\n      returndatacopy\n        /* \"--CODEGEN--\":77:93   */\n      returndatasize\n        /* \"--CODEGEN--\":74:75   */\n      0x00\n        /* \"--CODEGEN--\":67:94   */\n      revert\n        /* \"--CODEGEN--\":5:7   */\n    tag_161:\n        /* \"contracts/YunaswapRouter02.sol\":3273:3301  IYunaswapPair(pair).burn(to) */\n      pop\n      pop\n      pop\n      pop\n      mload(0x40)\n      returndatasize\n        /* \"--CODEGEN--\":15:17   */\n      0x40\n        /* \"--CODEGEN--\":10:13   */\n      dup2\n        /* \"--CODEGEN--\":7:18   */\n      lt\n        /* \"--CODEGEN--\":4:6   */\n      iszero\n      tag_162\n      jumpi\n        /* \"--CODEGEN--\":31:32   */\n      0x00\n        /* \"--CODEGEN--\":28:29   */\n      dup1\n        /* \"--CODEGEN--\":21:33   */\n      revert\n        /* \"--CODEGEN--\":4:6   */\n    tag_162:\n        /* \"contracts/YunaswapRouter02.sol\":3273:3301  IYunaswapPair(pair).burn(to) */\n      dup2\n      add\n      swap1\n      dup1\n      dup1\n      mload\n      swap1\n      0x20\n      add\n      swap1\n      swap3\n      swap2\n      swap1\n      dup1\n      mload\n      swap1\n      0x20\n      add\n      swap1\n      swap3\n      swap2\n      swap1\n      pop\n      pop\n      pop\n        /* \"contracts/YunaswapRouter02.sol\":3242:3301  (uint amount0, uint amount1) = IYunaswapPair(pair).burn(to) */\n      swap2\n      pop\n      swap2\n      pop\n        /* \"contracts/YunaswapRouter02.sol\":3312:3326  address token0 */\n      0x00\n        /* \"contracts/YunaswapRouter02.sol\":3331:3373  YunaswapLibrary.sortTokens(tokenA, tokenB) */\n      tag_163\n        /* \"contracts/YunaswapRouter02.sol\":3358:3364  tokenA */\n      dup15\n        /* \"contracts/YunaswapRouter02.sol\":3366:3372  tokenB */\n      dup15\n        /* \"contracts/YunaswapRouter02.sol\":3331:3357  YunaswapLibrary.sortTokens */\n      tag_164\n        /* \"contracts/YunaswapRouter02.sol\":3331:3373  YunaswapLibrary.sortTokens(tokenA, tokenB) */\n      jump\t// in\n    tag_163:\n        /* \"contracts/YunaswapRouter02.sol\":3311:3373  (address token0,) = YunaswapLibrary.sortTokens(tokenA, tokenB) */\n      pop\n      swap1\n      pop\n        /* \"contracts/YunaswapRouter02.sol\":3414:3420  token0 */\n      dup1\n        /* \"contracts/YunaswapRouter02.sol\":3404:3420  tokenA == token0 */\n      0xffffffffffffffffffffffffffffffffffffffff\n      and\n        /* \"contracts/YunaswapRouter02.sol\":3404:3410  tokenA */\n      dup15\n        /* \"contracts/YunaswapRouter02.sol\":3404:3420  tokenA == token0 */\n      0xffffffffffffffffffffffffffffffffffffffff\n      and\n      eq\n        /* \"contracts/YunaswapRouter02.sol\":3404:3462  tokenA == token0 ? (amount0, amount1) : (amount1, amount0) */\n      tag_165\n      jumpi\n        /* \"contracts/YunaswapRouter02.sol\":3445:3452  amount1 */\n      dup2\n        /* \"contracts/YunaswapRouter02.sol\":3454:3461  amount0 */\n      dup4\n        /* \"contracts/YunaswapRouter02.sol\":3404:3462  tokenA == token0 ? (amount0, amount1) : (amount1, amount0) */\n      jump(tag_166)\n    tag_165:\n        /* \"contracts/YunaswapRouter02.sol\":3424:3431  amount0 */\n      dup3\n        /* \"contracts/YunaswapRouter02.sol\":3433:3440  amount1 */\n      dup3\n        /* \"contracts/YunaswapRouter02.sol\":3404:3462  tokenA == token0 ? (amount0, amount1) : (amount1, amount0) */\n    tag_166:\n        /* \"contracts/YunaswapRouter02.sol\":3383:3462  (amountA, amountB) = tokenA == token0 ? (amount0, amount1) : (amount1, amount0) */\n      dup1\n      swap8\n      pop\n      dup2\n      swap9\n      pop\n      pop\n      pop\n        /* \"contracts/YunaswapRouter02.sol\":3491:3501  amountAMin */\n      dup11\n        /* \"contracts/YunaswapRouter02.sol\":3480:3487  amountA */\n      dup8\n        /* \"contracts/YunaswapRouter02.sol\":3480:3501  amountA >= amountAMin */\n      lt\n      iszero\n        /* \"contracts/YunaswapRouter02.sol\":3472:3543  require(amountA >= amountAMin, 'YunaswapRouter: INSUFFICIENT_A_AMOUNT') */\n      tag_167\n      jumpi\n      mload(0x40)\n      0x08c379a000000000000000000000000000000000000000000000000000000000\n      dup2\n      mstore\n      0x04\n      add\n      dup1\n      dup1\n      0x20\n      add\n      dup3\n      dup2\n      sub\n      dup3\n      mstore\n      0x25\n      dup2\n      mstore\n      0x20\n      add\n      dup1\n      data_bfded32f95d2da3e0b255a8dd2ae1951c13ac0bfbe81e418d806e494f1b9c274\n      0x25\n      swap2\n      codecopy\n      0x40\n      add\n      swap2\n      pop\n      pop\n      mload(0x40)\n      dup1\n      swap2\n      sub\n      swap1\n      revert\n    tag_167:\n        /* \"contracts/YunaswapRouter02.sol\":3572:3582  amountBMin */\n      dup10\n        /* \"contracts/YunaswapRouter02.sol\":3561:3568  amountB */\n      dup7\n        /* \"contracts/YunaswapRouter02.sol\":3561:3582  amountB >= amountBMin */\n      lt\n      iszero\n        /* \"contracts/YunaswapRouter02.sol\":3553:3624  require(amountB >= amountBMin, 'YunaswapRouter: INSUFFICIENT_B_AMOUNT') */\n      tag_168\n      jumpi\n      mload(0x40)\n      0x08c379a000000000000000000000000000000000000000000000000000000000\n      dup2\n      mstore\n      0x04\n      add\n      dup1\n      dup1\n      0x20\n      add\n      dup3\n      dup2\n      sub\n      dup3\n      mstore\n      0x25\n      dup2\n      mstore\n      0x20\n      add\n      dup1\n      data_62b7cb4f1b61c6dd60ba7dbcb48459b1fab0134958404b2a5626ea8183a0fa99\n      0x25\n      swap2\n      codecopy\n      0x40\n      add\n      swap2\n      pop\n      pop\n      mload(0x40)\n      dup1\n      swap2\n      sub\n      swap1\n      revert\n    tag_168:\n        /* \"contracts/YunaswapRouter02.sol\":546:547  _ */\n      pop\n      pop\n      pop\n      pop\n        /* \"contracts/YunaswapRouter02.sol\":2788:3631  function removeLiquidity(... */\n      pop\n      swap8\n      pop\n      swap8\n      swap6\n      pop\n      pop\n      pop\n      pop\n      pop\n      pop\n      jump\t// out\n        /* \"contracts/YunaswapRouter02.sol\":384:425  address public immutable override factory */\n    tag_65:\n      immutable(\"0x277ab82e5a4641341820a4a2933a62c1de997e42e92548657ae21b3728d580fe\")\n      dup2\n      jump\t// out\n        /* \"contracts/YunaswapRouter02.sol\":9219:9463  function getAmountsOut(uint amountIn, address[] memory path)... */\n    tag_71:\n        /* \"contracts/YunaswapRouter02.sol\":9358:9379  uint[] memory amounts */\n      0x60\n        /* \"contracts/YunaswapRouter02.sol\":9402:9456  YunaswapLibrary.getAmountsOut(factory, amountIn, path) */\n      tag_170\n        /* \"contracts/YunaswapRouter02.sol\":9432:9439  factory */\n      immutable(\"0x277ab82e5a4641341820a4a2933a62c1de997e42e92548657ae21b3728d580fe\")\n        /* \"contracts/YunaswapRouter02.sol\":9441:9449  amountIn */\n      dup5\n        /* \"contracts/YunaswapRouter02.sol\":9451:9455  path */\n      dup5\n        /* \"contracts/YunaswapRouter02.sol\":9402:9431  YunaswapLibrary.getAmountsOut */\n      tag_97\n        /* \"contracts/YunaswapRouter02.sol\":9402:9456  YunaswapLibrary.getAmountsOut(factory, amountIn, path) */\n      jump\t// in\n    tag_170:\n        /* \"contracts/YunaswapRouter02.sol\":9395:9456  return YunaswapLibrary.getAmountsOut(factory, amountIn, path) */\n      swap1\n      pop\n        /* \"contracts/YunaswapRouter02.sol\":9219:9463  function getAmountsOut(uint amountIn, address[] memory path)... */\n      swap3\n      swap2\n      pop\n      pop\n      jump\t// out\n        /* \"contracts/YunaswapRouter02.sol\":2028:2749  function addLiquidity(... */\n    tag_77:\n        /* \"contracts/YunaswapRouter02.sol\":2307:2319  uint amountA */\n      0x00\n        /* \"contracts/YunaswapRouter02.sol\":2321:2333  uint amountB */\n      dup1\n        /* \"contracts/YunaswapRouter02.sol\":2335:2349  uint liquidity */\n      0x00\n        /* \"contracts/YunaswapRouter02.sol\":2288:2296  deadline */\n      dup4\n        /* \"contracts/YunaswapRouter02.sol\":493:508  block.timestamp */\n      timestamp\n        /* \"contracts/YunaswapRouter02.sol\":481:489  deadline */\n      dup2\n        /* \"contracts/YunaswapRouter02.sol\":481:508  deadline >= block.timestamp */\n      lt\n      iszero\n        /* \"contracts/YunaswapRouter02.sol\":473:536  require(deadline >= block.timestamp, 'YunaswapRouter: EXPIRED') */\n      tag_172\n      jumpi\n      mload(0x40)\n      0x08c379a000000000000000000000000000000000000000000000000000000000\n      dup2\n      mstore\n      0x04\n      add\n      dup1\n      dup1\n      0x20\n      add\n      dup3\n      dup2\n      sub\n      dup3\n      mstore\n      0x17\n      dup2\n      mstore\n      0x20\n      add\n      dup1\n      0x59756e6173776170526f757465723a2045585049524544000000000000000000\n      dup2\n      mstore\n      pop\n      0x20\n      add\n      swap2\n      pop\n      pop\n      mload(0x40)\n      dup1\n      swap2\n      sub\n      swap1\n      revert\n    tag_172:\n        /* \"contracts/YunaswapRouter02.sol\":2382:2467  _addLiquidity(tokenA, tokenB, amountADesired, amountBDesired, amountAMin, amountBMin) */\n      tag_174\n        /* \"contracts/YunaswapRouter02.sol\":2396:2402  tokenA */\n      dup13\n        /* \"contracts/YunaswapRouter02.sol\":2404:2410  tokenB */\n      dup13\n        /* \"contracts/YunaswapRouter02.sol\":2412:2426  amountADesired */\n      dup13\n        /* \"contracts/YunaswapRouter02.sol\":2428:2442  amountBDesired */\n      dup13\n        /* \"contracts/YunaswapRouter02.sol\":2444:2454  amountAMin */\n      dup13\n        /* \"contracts/YunaswapRouter02.sol\":2456:2466  amountBMin */\n      dup13\n        /* \"contracts/YunaswapRouter02.sol\":2382:2395  _addLiquidity */\n      tag_175\n        /* \"contracts/YunaswapRouter02.sol\":2382:2467  _addLiquidity(tokenA, tokenB, amountADesired, amountBDesired, amountAMin, amountBMin) */\n      jump\t// in\n    tag_174:\n        /* \"contracts/YunaswapRouter02.sol\":2361:2467  (amountA, amountB) = _addLiquidity(tokenA, tokenB, amountADesired, amountBDesired, amountAMin, amountBMin) */\n      dup1\n      swap5\n      pop\n      dup2\n      swap6\n      pop\n      pop\n      pop\n        /* \"contracts/YunaswapRouter02.sol\":2477:2489  address pair */\n      0x00\n        /* \"contracts/YunaswapRouter02.sol\":2492:2540  YunaswapLibrary.pairFor(factory, tokenA, tokenB) */\n      tag_176\n        /* \"contracts/YunaswapRouter02.sol\":2516:2523  factory */\n      immutable(\"0x277ab82e5a4641341820a4a2933a62c1de997e42e92548657ae21b3728d580fe\")\n        /* \"contracts/YunaswapRouter02.sol\":2525:2531  tokenA */\n      dup15\n        /* \"contracts/YunaswapRouter02.sol\":2533:2539  tokenB */\n      dup15\n        /* \"contracts/YunaswapRouter02.sol\":2492:2515  YunaswapLibrary.pairFor */\n      tag_86\n        /* \"contracts/YunaswapRouter02.sol\":2492:2540  YunaswapLibrary.pairFor(factory, tokenA, tokenB) */\n      jump\t// in\n    tag_176:\n        /* \"contracts/YunaswapRouter02.sol\":2477:2540  address pair = YunaswapLibrary.pairFor(factory, tokenA, tokenB) */\n      swap1\n      pop\n        /* \"contracts/YunaswapRouter02.sol\":2550:2616  TransferHelper.safeTransferFrom(tokenA, msg.sender, pair, amountA) */\n      tag_177\n        /* \"contracts/YunaswapRouter02.sol\":2582:2588  tokenA */\n      dup14\n        /* \"contracts/YunaswapRouter02.sol\":2590:2600  msg.sender */\n      caller\n        /* \"contracts/YunaswapRouter02.sol\":2602:2606  pair */\n      dup4\n        /* \"contracts/YunaswapRouter02.sol\":2608:2615  amountA */\n      dup9\n        /* \"contracts/YunaswapRouter02.sol\":2550:2581  TransferHelper.safeTransferFrom */\n      tag_106\n        /* \"contracts/YunaswapRouter02.sol\":2550:2616  TransferHelper.safeTransferFrom(tokenA, msg.sender, pair, amountA) */\n      jump\t// in\n    tag_177:\n        /* \"contracts/YunaswapRouter02.sol\":2626:2692  TransferHelper.safeTransferFrom(tokenB, msg.sender, pair, amountB) */\n      tag_178\n        /* \"contracts/YunaswapRouter02.sol\":2658:2664  tokenB */\n      dup13\n        /* \"contracts/YunaswapRouter02.sol\":2666:2676  msg.sender */\n      caller\n        /* \"contracts/YunaswapRouter02.sol\":2678:2682  pair */\n      dup4\n        /* \"contracts/YunaswapRouter02.sol\":2684:2691  amountB */\n      dup8\n        /* \"contracts/YunaswapRouter02.sol\":2626:2657  TransferHelper.safeTransferFrom */\n      tag_106\n        /* \"contracts/YunaswapRouter02.sol\":2626:2692  TransferHelper.safeTransferFrom(tokenB, msg.sender, pair, amountB) */\n      jump\t// in\n    tag_178:\n        /* \"contracts/YunaswapRouter02.sol\":2728:2732  pair */\n      dup1\n        /* \"contracts/YunaswapRouter02.sol\":2714:2738  IYunaswapPair(pair).mint */\n      0xffffffffffffffffffffffffffffffffffffffff\n      and\n      0x6a627842\n        /* \"contracts/YunaswapRouter02.sol\":2739:2741  to */\n      dup9\n        /* \"contracts/YunaswapRouter02.sol\":2714:2742  IYunaswapPair(pair).mint(to) */\n      mload(0x40)\n      dup3\n      0xffffffff\n      and\n      0xe0\n      shl\n      dup2\n      mstore\n      0x04\n      add\n      dup1\n      dup3\n      0xffffffffffffffffffffffffffffffffffffffff\n      and\n      0xffffffffffffffffffffffffffffffffffffffff\n      and\n      dup2\n      mstore\n      0x20\n      add\n      swap2\n      pop\n      pop\n      0x20\n      mload(0x40)\n      dup1\n      dup4\n      sub\n      dup2\n      0x00\n      dup8\n      dup1\n      extcodesize\n      iszero\n        /* \"--CODEGEN--\":5:14   */\n      dup1\n        /* \"--CODEGEN--\":2:4   */\n      iszero\n      tag_179\n      jumpi\n        /* \"--CODEGEN--\":27:28   */\n      0x00\n        /* \"--CODEGEN--\":24:25   */\n      dup1\n        /* \"--CODEGEN--\":17:29   */\n      revert\n        /* \"--CODEGEN--\":2:4   */\n    tag_179:\n        /* \"contracts/YunaswapRouter02.sol\":2714:2742  IYunaswapPair(pair).mint(to) */\n      pop\n      gas\n      call\n      iszero\n        /* \"--CODEGEN--\":8:17   */\n      dup1\n        /* \"--CODEGEN--\":5:7   */\n      iszero\n      tag_181\n      jumpi\n        /* \"--CODEGEN--\":45:61   */\n      returndatasize\n        /* \"--CODEGEN--\":42:43   */\n      0x00\n        /* \"--CODEGEN--\":39:40   */\n      dup1\n        /* \"--CODEGEN--\":24:62   */\n      returndatacopy\n        /* \"--CODEGEN--\":77:93   */\n      returndatasize\n        /* \"--CODEGEN--\":74:75   */\n      0x00\n        /* \"--CODEGEN--\":67:94   */\n      revert\n        /* \"--CODEGEN--\":5:7   */\n    tag_181:\n        /* \"contracts/YunaswapRouter02.sol\":2714:2742  IYunaswapPair(pair).mint(to) */\n      pop\n      pop\n      pop\n      pop\n      mload(0x40)\n      returndatasize\n        /* \"--CODEGEN--\":15:17   */\n      0x20\n        /* \"--CODEGEN--\":10:13   */\n      dup2\n        /* \"--CODEGEN--\":7:18   */\n      lt\n        /* \"--CODEGEN--\":4:6   */\n      iszero\n      tag_182\n      jumpi\n        /* \"--CODEGEN--\":31:32   */\n      0x00\n        /* \"--CODEGEN--\":28:29   */\n      dup1\n        /* \"--CODEGEN--\":21:33   */\n      revert\n        /* \"--CODEGEN--\":4:6   */\n    tag_182:\n        /* \"contracts/YunaswapRouter02.sol\":2714:2742  IYunaswapPair(pair).mint(to) */\n      dup2\n      add\n      swap1\n      dup1\n      dup1\n      mload\n      swap1\n      0x20\n      add\n      swap1\n      swap3\n      swap2\n      swap1\n      pop\n      pop\n      pop\n        /* \"contracts/YunaswapRouter02.sol\":2702:2742  liquidity = IYunaswapPair(pair).mint(to) */\n      swap3\n      pop\n        /* \"contracts/YunaswapRouter02.sol\":546:547  _ */\n      pop\n        /* \"contracts/YunaswapRouter02.sol\":2028:2749  function addLiquidity(... */\n      pop\n      swap9\n      pop\n      swap9\n      pop\n      swap9\n      swap6\n      pop\n      pop\n      pop\n      pop\n      pop\n      pop\n      jump\t// out\n        /* \"contracts/libraries/YunaswapLibrary.sol\":2184:2692  function getAmountOut(uint amountIn, uint reserveIn, uint reserveOut) internal pure returns (uint amountOut) {... */\n    tag_80:\n        /* \"contracts/libraries/YunaswapLibrary.sol\":2277:2291  uint amountOut */\n      0x00\n        /* \"contracts/libraries/YunaswapLibrary.sol\":2322:2323  0 */\n      dup1\n        /* \"contracts/libraries/YunaswapLibrary.sol\":2311:2319  amountIn */\n      dup5\n        /* \"contracts/libraries/YunaswapLibrary.sol\":2311:2323  amountIn > 0 */\n      gt\n        /* \"contracts/libraries/YunaswapLibrary.sol\":2303:2370  require(amountIn > 0, 'YunaswapLibrary: INSUFFICIENT_INPUT_AMOUNT') */\n      tag_184\n      jumpi\n      mload(0x40)\n      0x08c379a000000000000000000000000000000000000000000000000000000000\n      dup2\n      mstore\n      0x04\n      add\n      dup1\n      dup1\n      0x20\n      add\n      dup3\n      dup2\n      sub\n      dup3\n      mstore\n      0x2a\n      dup2\n      mstore\n      0x20\n      add\n      dup1\n      data_1ef6f88ce2396da44887c06e51ae4a786e0c2f82678439f397519b74a933748d\n      0x2a\n      swap2\n      codecopy\n      0x40\n      add\n      swap2\n      pop\n      pop\n      mload(0x40)\n      dup1\n      swap2\n      sub\n      swap1\n      revert\n    tag_184:\n        /* \"contracts/libraries/YunaswapLibrary.sol\":2400:2401  0 */\n      0x00\n        /* \"contracts/libraries/YunaswapLibrary.sol\":2388:2397  reserveIn */\n      dup4\n        /* \"contracts/libraries/YunaswapLibrary.sol\":2388:2401  reserveIn > 0 */\n      gt\n        /* \"contracts/libraries/YunaswapLibrary.sol\":2388:2419  reserveIn > 0 && reserveOut > 0 */\n      dup1\n      iszero\n      tag_185\n      jumpi\n      pop\n        /* \"contracts/libraries/YunaswapLibrary.sol\":2418:2419  0 */\n      0x00\n        /* \"contracts/libraries/YunaswapLibrary.sol\":2405:2415  reserveOut */\n      dup3\n        /* \"contracts/libraries/YunaswapLibrary.sol\":2405:2419  reserveOut > 0 */\n      gt\n        /* \"contracts/libraries/YunaswapLibrary.sol\":2388:2419  reserveIn > 0 && reserveOut > 0 */\n    tag_185:\n        /* \"contracts/libraries/YunaswapLibrary.sol\":2380:2463  require(reserveIn > 0 && reserveOut > 0, 'YunaswapLibrary: INSUFFICIENT_LIQUIDITY') */\n      tag_186\n      jumpi\n      mload(0x40)\n      0x08c379a000000000000000000000000000000000000000000000000000000000\n      dup2\n      mstore\n      0x04\n      add\n      dup1\n      dup1\n      0x20\n      add\n      dup3\n      dup2\n      sub\n      dup3\n      mstore\n      0x27\n      dup2\n      mstore\n      0x20\n      add\n      dup1\n      data_f0f0f245b1c61b307be08373f81e0f1c5dfb40c2b8f173e2f66656c099b09068\n      0x27\n      swap2\n      codecopy\n      0x40\n      add\n      swap2\n      pop\n      pop\n      mload(0x40)\n      dup1\n      swap2\n      sub\n      swap1\n      revert\n    tag_186:\n        /* \"contracts/libraries/YunaswapLibrary.sol\":2473:2493  uint amountInWithFee */\n      0x00\n        /* \"contracts/libraries/YunaswapLibrary.sol\":2496:2513  amountIn.mul(995) */\n      tag_187\n        /* \"contracts/libraries/YunaswapLibrary.sol\":2509:2512  995 */\n      0x03e3\n        /* \"contracts/libraries/YunaswapLibrary.sol\":2496:2504  amountIn */\n      dup7\n        /* \"contracts/libraries/YunaswapLibrary.sol\":2496:2508  amountIn.mul */\n      tag_188\n      swap1\n        /* \"contracts/libraries/YunaswapLibrary.sol\":2496:2513  amountIn.mul(995) */\n      swap2\n      swap1\n      0xffffffff\n      and\n      jump\t// in\n    tag_187:\n        /* \"contracts/libraries/YunaswapLibrary.sol\":2473:2513  uint amountInWithFee = amountIn.mul(995) */\n      swap1\n      pop\n        /* \"contracts/libraries/YunaswapLibrary.sol\":2523:2537  uint numerator */\n      0x00\n        /* \"contracts/libraries/YunaswapLibrary.sol\":2540:2571  amountInWithFee.mul(reserveOut) */\n      tag_189\n        /* \"contracts/libraries/YunaswapLibrary.sol\":2560:2570  reserveOut */\n      dup5\n        /* \"contracts/libraries/YunaswapLibrary.sol\":2540:2555  amountInWithFee */\n      dup4\n        /* \"contracts/libraries/YunaswapLibrary.sol\":2540:2559  amountInWithFee.mul */\n      tag_188\n      swap1\n        /* \"contracts/libraries/YunaswapLibrary.sol\":2540:2571  amountInWithFee.mul(reserveOut) */\n      swap2\n      swap1\n      0xffffffff\n      and\n      jump\t// in\n    tag_189:\n        /* \"contracts/libraries/YunaswapLibrary.sol\":2523:2571  uint numerator = amountInWithFee.mul(reserveOut) */\n      swap1\n      pop\n        /* \"contracts/libraries/YunaswapLibrary.sol\":2581:2597  uint denominator */\n      0x00\n        /* \"contracts/libraries/YunaswapLibrary.sol\":2600:2640  reserveIn.mul(1000).add(amountInWithFee) */\n      tag_190\n        /* \"contracts/libraries/YunaswapLibrary.sol\":2624:2639  amountInWithFee */\n      dup4\n        /* \"contracts/libraries/YunaswapLibrary.sol\":2600:2619  reserveIn.mul(1000) */\n      tag_191\n        /* \"contracts/libraries/YunaswapLibrary.sol\":2614:2618  1000 */\n      0x03e8\n        /* \"contracts/libraries/YunaswapLibrary.sol\":2600:2609  reserveIn */\n      dup10\n        /* \"contracts/libraries/YunaswapLibrary.sol\":2600:2613  reserveIn.mul */\n      tag_188\n      swap1\n        /* \"contracts/libraries/YunaswapLibrary.sol\":2600:2619  reserveIn.mul(1000) */\n      swap2\n      swap1\n      0xffffffff\n      and\n      jump\t// in\n    tag_191:\n        /* \"contracts/libraries/YunaswapLibrary.sol\":2600:2623  reserveIn.mul(1000).add */\n      tag_192\n      swap1\n        /* \"contracts/libraries/YunaswapLibrary.sol\":2600:2640  reserveIn.mul(1000).add(amountInWithFee) */\n      swap2\n      swap1\n      0xffffffff\n      and\n      jump\t// in\n    tag_190:\n        /* \"contracts/libraries/YunaswapLibrary.sol\":2581:2640  uint denominator = reserveIn.mul(1000).add(amountInWithFee) */\n      swap1\n      pop\n        /* \"contracts/libraries/YunaswapLibrary.sol\":2674:2685  denominator */\n      dup1\n        /* \"contracts/libraries/YunaswapLibrary.sol\":2662:2671  numerator */\n      dup3\n        /* \"contracts/libraries/YunaswapLibrary.sol\":2662:2685  numerator / denominator */\n      dup2\n      tag_193\n      jumpi\n      invalid\n    tag_193:\n      div\n        /* \"contracts/libraries/YunaswapLibrary.sol\":2650:2685  amountOut = numerator / denominator */\n      swap4\n      pop\n        /* \"contracts/libraries/YunaswapLibrary.sol\":2184:2692  function getAmountOut(uint amountIn, uint reserveIn, uint reserveOut) internal pure returns (uint amountOut) {... */\n      pop\n      pop\n      pop\n      swap4\n      swap3\n      pop\n      pop\n      pop\n      jump\t// out\n        /* \"contracts/libraries/YunaswapLibrary.sol\":3933:4456  function getAmountsIn(address factory, uint amountOut, address[] memory path) internal view returns (uint[] memory amounts) {... */\n    tag_83:\n        /* \"contracts/libraries/YunaswapLibrary.sol\":4034:4055  uint[] memory amounts */\n      0x60\n        /* \"contracts/libraries/YunaswapLibrary.sol\":4090:4091  2 */\n      0x02\n        /* \"contracts/libraries/YunaswapLibrary.sol\":4075:4079  path */\n      dup3\n        /* \"contracts/libraries/YunaswapLibrary.sol\":4075:4086  path.length */\n      mload\n        /* \"contracts/libraries/YunaswapLibrary.sol\":4075:4091  path.length >= 2 */\n      lt\n      iszero\n        /* \"contracts/libraries/YunaswapLibrary.sol\":4067:4125  require(path.length >= 2, 'YunaswapLibrary: INVALID_PATH') */\n      tag_195\n      jumpi\n      mload(0x40)\n      0x08c379a000000000000000000000000000000000000000000000000000000000\n      dup2\n      mstore\n      0x04\n      add\n      dup1\n      dup1\n      0x20\n      add\n      dup3\n      dup2\n      sub\n      dup3\n      mstore\n      0x1d\n      dup2\n      mstore\n      0x20\n      add\n      dup1\n      0x59756e61737761704c6962726172793a20494e56414c49445f50415448000000\n      dup2\n      mstore\n      pop\n      0x20\n      add\n      swap2\n      pop\n      pop\n      mload(0x40)\n      dup1\n      swap2\n      sub\n      swap1\n      revert\n    tag_195:\n        /* \"contracts/libraries/YunaswapLibrary.sol\":4156:4160  path */\n      dup2\n        /* \"contracts/libraries/YunaswapLibrary.sol\":4156:4167  path.length */\n      mload\n        /* \"contracts/libraries/YunaswapLibrary.sol\":4145:4168  new uint[](path.length) */\n      0xffffffffffffffff\n      dup2\n      gt\n        /* \"--CODEGEN--\":5:14   */\n      dup1\n        /* \"--CODEGEN--\":2:4   */\n      iszero\n      tag_196\n      jumpi\n        /* \"--CODEGEN--\":27:28   */\n      0x00\n        /* \"--CODEGEN--\":24:25   */\n      dup1\n        /* \"--CODEGEN--\":17:29   */\n      revert\n        /* \"--CODEGEN--\":2:4   */\n    tag_196:\n        /* \"contracts/libraries/YunaswapLibrary.sol\":4145:4168  new uint[](path.length) */\n      pop\n      mload(0x40)\n      swap1\n      dup1\n      dup3\n      mstore\n      dup1\n      0x20\n      mul\n      0x20\n      add\n      dup3\n      add\n      0x40\n      mstore\n      dup1\n      iszero\n      tag_197\n      jumpi\n      dup2\n      0x20\n      add\n        /* \"--CODEGEN--\":29:31   */\n      0x20\n        /* \"--CODEGEN--\":21:27   */\n      dup3\n        /* \"--CODEGEN--\":17:32   */\n      mul\n        /* \"--CODEGEN--\":125:129   */\n      dup1\n        /* \"--CODEGEN--\":109:123   */\n      calldatasize\n        /* \"--CODEGEN--\":101:107   */\n      dup4\n        /* \"--CODEGEN--\":88:130   */\n      calldatacopy\n        /* \"--CODEGEN--\":156:160   */\n      dup1\n        /* \"--CODEGEN--\":148:154   */\n      dup3\n        /* \"--CODEGEN--\":144:161   */\n      add\n        /* \"--CODEGEN--\":134:161   */\n      swap2\n      pop\n        /* \"--CODEGEN--\":0:165   */\n      pop\n        /* \"contracts/libraries/YunaswapLibrary.sol\":4145:4168  new uint[](path.length) */\n      swap1\n      pop\n    tag_197:\n      pop\n        /* \"contracts/libraries/YunaswapLibrary.sol\":4135:4168  amounts = new uint[](path.length) */\n      swap1\n      pop\n        /* \"contracts/libraries/YunaswapLibrary.sol\":4208:4217  amountOut */\n      dup3\n        /* \"contracts/libraries/YunaswapLibrary.sol\":4178:4185  amounts */\n      dup2\n        /* \"contracts/libraries/YunaswapLibrary.sol\":4203:4204  1 */\n      0x01\n        /* \"contracts/libraries/YunaswapLibrary.sol\":4186:4193  amounts */\n      dup4\n        /* \"contracts/libraries/YunaswapLibrary.sol\":4186:4200  amounts.length */\n      mload\n        /* \"contracts/libraries/YunaswapLibrary.sol\":4186:4204  amounts.length - 1 */\n      sub\n        /* \"contracts/libraries/YunaswapLibrary.sol\":4178:4205  amounts[amounts.length - 1] */\n      dup2\n      mload\n      dup2\n      lt\n      tag_198\n      jumpi\n      invalid\n    tag_198:\n      0x20\n      mul\n      0x20\n      add\n      add\n        /* \"contracts/libraries/YunaswapLibrary.sol\":4178:4217  amounts[amounts.length - 1] = amountOut */\n      dup2\n      dup2\n      mstore\n      pop\n      pop\n        /* \"contracts/libraries/YunaswapLibrary.sol\":4232:4238  uint i */\n      0x00\n        /* \"contracts/libraries/YunaswapLibrary.sol\":4255:4256  1 */\n      0x01\n        /* \"contracts/libraries/YunaswapLibrary.sol\":4241:4245  path */\n      dup4\n        /* \"contracts/libraries/YunaswapLibrary.sol\":4241:4252  path.length */\n      mload\n        /* \"contracts/libraries/YunaswapLibrary.sol\":4241:4256  path.length - 1 */\n      sub\n        /* \"contracts/libraries/YunaswapLibrary.sol\":4232:4256  uint i = path.length - 1 */\n      swap1\n      pop\n        /* \"contracts/libraries/YunaswapLibrary.sol\":4227:4450  for (uint i = path.length - 1; i > 0; i--) {... */\n    tag_199:\n        /* \"contracts/libraries/YunaswapLibrary.sol\":4262:4263  0 */\n      0x00\n        /* \"contracts/libraries/YunaswapLibrary.sol\":4258:4259  i */\n      dup2\n        /* \"contracts/libraries/YunaswapLibrary.sol\":4258:4263  i > 0 */\n      gt\n        /* \"contracts/libraries/YunaswapLibrary.sol\":4227:4450  for (uint i = path.length - 1; i > 0; i--) {... */\n      iszero\n      tag_200\n      jumpi\n        /* \"contracts/libraries/YunaswapLibrary.sol\":4285:4299  uint reserveIn */\n      0x00\n        /* \"contracts/libraries/YunaswapLibrary.sol\":4301:4316  uint reserveOut */\n      dup1\n        /* \"contracts/libraries/YunaswapLibrary.sol\":4320:4362  getReserves(factory, path[i - 1], path[i]) */\n      tag_202\n        /* \"contracts/libraries/YunaswapLibrary.sol\":4332:4339  factory */\n      dup8\n        /* \"contracts/libraries/YunaswapLibrary.sol\":4341:4345  path */\n      dup7\n        /* \"contracts/libraries/YunaswapLibrary.sol\":4350:4351  1 */\n      0x01\n        /* \"contracts/libraries/YunaswapLibrary.sol\":4346:4347  i */\n      dup7\n        /* \"contracts/libraries/YunaswapLibrary.sol\":4346:4351  i - 1 */\n      sub\n        /* \"contracts/libraries/YunaswapLibrary.sol\":4341:4352  path[i - 1] */\n      dup2\n      mload\n      dup2\n      lt\n      tag_203\n      jumpi\n      invalid\n    tag_203:\n      0x20\n      mul\n      0x20\n      add\n      add\n      mload\n        /* \"contracts/libraries/YunaswapLibrary.sol\":4354:4358  path */\n      dup8\n        /* \"contracts/libraries/YunaswapLibrary.sol\":4359:4360  i */\n      dup7\n        /* \"contracts/libraries/YunaswapLibrary.sol\":4354:4361  path[i] */\n      dup2\n      mload\n      dup2\n      lt\n      tag_204\n      jumpi\n      invalid\n    tag_204:\n      0x20\n      mul\n      0x20\n      add\n      add\n      mload\n        /* \"contracts/libraries/YunaswapLibrary.sol\":4320:4331  getReserves */\n      tag_205\n        /* \"contracts/libraries/YunaswapLibrary.sol\":4320:4362  getReserves(factory, path[i - 1], path[i]) */\n      jump\t// in\n    tag_202:\n        /* \"contracts/libraries/YunaswapLibrary.sol\":4284:4362  (uint reserveIn, uint reserveOut) = getReserves(factory, path[i - 1], path[i]) */\n      swap2\n      pop\n      swap2\n      pop\n        /* \"contracts/libraries/YunaswapLibrary.sol\":4393:4439  getAmountIn(amounts[i], reserveIn, reserveOut) */\n      tag_206\n        /* \"contracts/libraries/YunaswapLibrary.sol\":4405:4412  amounts */\n      dup5\n        /* \"contracts/libraries/YunaswapLibrary.sol\":4413:4414  i */\n      dup5\n        /* \"contracts/libraries/YunaswapLibrary.sol\":4405:4415  amounts[i] */\n      dup2\n      mload\n      dup2\n      lt\n      tag_207\n      jumpi\n      invalid\n    tag_207:\n      0x20\n      mul\n      0x20\n      add\n      add\n      mload\n        /* \"contracts/libraries/YunaswapLibrary.sol\":4417:4426  reserveIn */\n      dup4\n        /* \"contracts/libraries/YunaswapLibrary.sol\":4428:4438  reserveOut */\n      dup4\n        /* \"contracts/libraries/YunaswapLibrary.sol\":4393:4404  getAmountIn */\n      tag_134\n        /* \"contracts/libraries/YunaswapLibrary.sol\":4393:4439  getAmountIn(amounts[i], reserveIn, reserveOut) */\n      jump\t// in\n    tag_206:\n        /* \"contracts/libraries/YunaswapLibrary.sol\":4376:4383  amounts */\n      dup5\n        /* \"contracts/libraries/YunaswapLibrary.sol\":4388:4389  1 */\n      0x01\n        /* \"contracts/libraries/YunaswapLibrary.sol\":4384:4385  i */\n      dup6\n        /* \"contracts/libraries/YunaswapLibrary.sol\":4384:4389  i - 1 */\n      sub\n        /* \"contracts/libraries/YunaswapLibrary.sol\":4376:4390  amounts[i - 1] */\n      dup2\n      mload\n      dup2\n      lt\n      tag_208\n      jumpi\n      invalid\n    tag_208:\n      0x20\n      mul\n      0x20\n      add\n      add\n        /* \"contracts/libraries/YunaswapLibrary.sol\":4376:4439  amounts[i - 1] = getAmountIn(amounts[i], reserveIn, reserveOut) */\n      dup2\n      dup2\n      mstore\n      pop\n      pop\n        /* \"contracts/libraries/YunaswapLibrary.sol\":4227:4450  for (uint i = path.length - 1; i > 0; i--) {... */\n      pop\n      pop\n        /* \"contracts/libraries/YunaswapLibrary.sol\":4265:4268  i-- */\n      dup1\n      dup1\n      0x01\n      swap1\n      sub\n      swap2\n      pop\n      pop\n        /* \"contracts/libraries/YunaswapLibrary.sol\":4227:4450  for (uint i = path.length - 1; i > 0; i--) {... */\n      jump(tag_199)\n    tag_200:\n      pop\n        /* \"contracts/libraries/YunaswapLibrary.sol\":3933:4456  function getAmountsIn(address factory, uint amountOut, address[] memory path) internal view returns (uint[] memory amounts) {... */\n      swap4\n      swap3\n      pop\n      pop\n      pop\n      jump\t// out\n        /* \"contracts/libraries/YunaswapLibrary.sol\":720:1199  function pairFor(address factory, address tokenA, address tokenB) internal pure returns (address pair) {... */\n    tag_86:\n        /* \"contracts/libraries/YunaswapLibrary.sol\":809:821  address pair */\n      0x00\n        /* \"contracts/libraries/YunaswapLibrary.sol\":834:848  address token0 */\n      dup1\n        /* \"contracts/libraries/YunaswapLibrary.sol\":850:864  address token1 */\n      0x00\n        /* \"contracts/libraries/YunaswapLibrary.sol\":868:894  sortTokens(tokenA, tokenB) */\n      tag_210\n        /* \"contracts/libraries/YunaswapLibrary.sol\":879:885  tokenA */\n      dup6\n        /* \"contracts/libraries/YunaswapLibrary.sol\":887:893  tokenB */\n      dup6\n        /* \"contracts/libraries/YunaswapLibrary.sol\":868:878  sortTokens */\n      tag_164\n        /* \"contracts/libraries/YunaswapLibrary.sol\":868:894  sortTokens(tokenA, tokenB) */\n      jump\t// in\n    tag_210:\n        /* \"contracts/libraries/YunaswapLibrary.sol\":833:894  (address token0, address token1) = sortTokens(tokenA, tokenB) */\n      swap2\n      pop\n      swap2\n      pop\n        /* \"contracts/libraries/YunaswapLibrary.sol\":1001:1008  factory */\n      dup6\n        /* \"contracts/libraries/YunaswapLibrary.sol\":1053:1059  token0 */\n      dup3\n        /* \"contracts/libraries/YunaswapLibrary.sol\":1061:1067  token1 */\n      dup3\n        /* \"contracts/libraries/YunaswapLibrary.sol\":1036:1068  abi.encodePacked(token0, token1) */\n      add(0x20, mload(0x40))\n      dup1\n      dup4\n      0xffffffffffffffffffffffffffffffffffffffff\n      and\n      0xffffffffffffffffffffffffffffffffffffffff\n      and\n      0x60\n      shl\n      dup2\n      mstore\n      0x14\n      add\n      dup3\n      0xffffffffffffffffffffffffffffffffffffffff\n      and\n      0xffffffffffffffffffffffffffffffffffffffff\n      and\n      0x60\n      shl\n      dup2\n      mstore\n      0x14\n      add\n      swap3\n      pop\n      pop\n      pop\n      mload(0x40)\n        /* \"--CODEGEN--\":49:53   */\n      0x20\n        /* \"--CODEGEN--\":39:46   */\n      dup2\n        /* \"--CODEGEN--\":30:37   */\n      dup4\n        /* \"--CODEGEN--\":26:47   */\n      sub\n        /* \"--CODEGEN--\":22:54   */\n      sub\n        /* \"--CODEGEN--\":13:20   */\n      dup2\n        /* \"--CODEGEN--\":6:55   */\n      mstore\n        /* \"contracts/libraries/YunaswapLibrary.sol\":1036:1068  abi.encodePacked(token0, token1) */\n      swap1\n      0x40\n      mstore\n        /* \"contracts/libraries/YunaswapLibrary.sol\":1026:1069  keccak256(abi.encodePacked(token0, token1)) */\n      dup1\n      mload\n      swap1\n      0x20\n      add\n      keccak256\n        /* \"contracts/libraries/YunaswapLibrary.sol\":942:1188  abi.encodePacked(... */\n      add(0x20, mload(0x40))\n      dup1\n      dup1\n      0xff00000000000000000000000000000000000000000000000000000000000000\n      dup2\n      mstore\n      pop\n      0x01\n      add\n      dup4\n      0xffffffffffffffffffffffffffffffffffffffff\n      and\n      0xffffffffffffffffffffffffffffffffffffffff\n      and\n      0x60\n      shl\n      dup2\n      mstore\n      0x14\n      add\n      dup3\n      dup2\n      mstore\n      0x20\n      add\n      dup1\n      0x73bc03f6df04156b0828924048b47b3ca57a376ce038db1c0e2a37473927bebf\n      dup2\n      mstore\n      pop\n      0x20\n      add\n      swap3\n      pop\n      pop\n      pop\n      mload(0x40)\n        /* \"--CODEGEN--\":49:53   */\n      0x20\n        /* \"--CODEGEN--\":39:46   */\n      dup2\n        /* \"--CODEGEN--\":30:37   */\n      dup4\n        /* \"--CODEGEN--\":26:47   */\n      sub\n        /* \"--CODEGEN--\":22:54   */\n      sub\n        /* \"--CODEGEN--\":13:20   */\n      dup2\n        /* \"--CODEGEN--\":6:55   */\n      mstore\n        /* \"contracts/libraries/YunaswapLibrary.sol\":942:1188  abi.encodePacked(... */\n      swap1\n      0x40\n      mstore\n        /* \"contracts/libraries/YunaswapLibrary.sol\":932:1189  keccak256(abi.encodePacked(... */\n      dup1\n      mload\n      swap1\n      0x20\n      add\n      keccak256\n        /* \"contracts/libraries/YunaswapLibrary.sol\":927:1190  uint(keccak256(abi.encodePacked(... */\n      0x00\n      shr\n        /* \"contracts/libraries/YunaswapLibrary.sol\":904:1192  pair = address(uint160(uint(keccak256(abi.encodePacked(... */\n      swap3\n      pop\n        /* \"contracts/libraries/YunaswapLibrary.sol\":720:1199  function pairFor(address factory, address tokenA, address tokenB) internal pure returns (address pair) {... */\n      pop\n      pop\n      swap4\n      swap3\n      pop\n      pop\n      pop\n      jump\t// out\n        /* \"contracts/libraries/YunaswapLibrary.sol\":3353:3855  function getAmountsOut(address factory, uint amountIn, address[] memory path) internal view returns (uint[] memory amounts) {... */\n    tag_97:\n        /* \"contracts/libraries/YunaswapLibrary.sol\":3454:3475  uint[] memory amounts */\n      0x60\n        /* \"contracts/libraries/YunaswapLibrary.sol\":3510:3511  2 */\n      0x02\n        /* \"contracts/libraries/YunaswapLibrary.sol\":3495:3499  path */\n      dup3\n        /* \"contracts/libraries/YunaswapLibrary.sol\":3495:3506  path.length */\n      mload\n        /* \"contracts/libraries/YunaswapLibrary.sol\":3495:3511  path.length >= 2 */\n      lt\n      iszero\n        /* \"contracts/libraries/YunaswapLibrary.sol\":3487:3545  require(path.length >= 2, 'YunaswapLibrary: INVALID_PATH') */\n      tag_212\n      jumpi\n      mload(0x40)\n      0x08c379a000000000000000000000000000000000000000000000000000000000\n      dup2\n      mstore\n      0x04\n      add\n      dup1\n      dup1\n      0x20\n      add\n      dup3\n      dup2\n      sub\n      dup3\n      mstore\n      0x1d\n      dup2\n      mstore\n      0x20\n      add\n      dup1\n      0x59756e61737761704c6962726172793a20494e56414c49445f50415448000000\n      dup2\n      mstore\n      pop\n      0x20\n      add\n      swap2\n      pop\n      pop\n      mload(0x40)\n      dup1\n      swap2\n      sub\n      swap1\n      revert\n    tag_212:\n        /* \"contracts/libraries/YunaswapLibrary.sol\":3576:3580  path */\n      dup2\n        /* \"contracts/libraries/YunaswapLibrary.sol\":3576:3587  path.length */\n      mload\n        /* \"contracts/libraries/YunaswapLibrary.sol\":3565:3588  new uint[](path.length) */\n      0xffffffffffffffff\n      dup2\n      gt\n        /* \"--CODEGEN--\":5:14   */\n      dup1\n        /* \"--CODEGEN--\":2:4   */\n      iszero\n      tag_213\n      jumpi\n        /* \"--CODEGEN--\":27:28   */\n      0x00\n        /* \"--CODEGEN--\":24:25   */\n      dup1\n        /* \"--CODEGEN--\":17:29   */\n      revert\n        /* \"--CODEGEN--\":2:4   */\n    tag_213:\n        /* \"contracts/libraries/YunaswapLibrary.sol\":3565:3588  new uint[](path.length) */\n      pop\n      mload(0x40)\n      swap1\n      dup1\n      dup3\n      mstore\n      dup1\n      0x20\n      mul\n      0x20\n      add\n      dup3\n      add\n      0x40\n      mstore\n      dup1\n      iszero\n      tag_214\n      jumpi\n      dup2\n      0x20\n      add\n        /* \"--CODEGEN--\":29:31   */\n      0x20\n        /* \"--CODEGEN--\":21:27   */\n      dup3\n        /* \"--CODEGEN--\":17:32   */\n      mul\n        /* \"--CODEGEN--\":125:129   */\n      dup1\n        /* \"--CODEGEN--\":109:123   */\n      calldatasize\n        /* \"--CODEGEN--\":101:107   */\n      dup4\n        /* \"--CODEGEN--\":88:130   */\n      calldatacopy\n        /* \"--CODEGEN--\":156:160   */\n      dup1\n        /* \"--CODEGEN--\":148:154   */\n      dup3\n        /* \"--CODEGEN--\":144:161   */\n      add\n        /* \"--CODEGEN--\":134:161   */\n      swap2\n      pop\n        /* \"--CODEGEN--\":0:165   */\n      pop\n        /* \"contracts/libraries/YunaswapLibrary.sol\":3565:3588  new uint[](path.length) */\n      swap1\n      pop\n    tag_214:\n      pop\n        /* \"contracts/libraries/YunaswapLibrary.sol\":3555:3588  amounts = new uint[](path.length) */\n      swap1\n      pop\n        /* \"contracts/libraries/YunaswapLibrary.sol\":3611:3619  amountIn */\n      dup3\n        /* \"contracts/libraries/YunaswapLibrary.sol\":3598:3605  amounts */\n      dup2\n        /* \"contracts/libraries/YunaswapLibrary.sol\":3606:3607  0 */\n      0x00\n        /* \"contracts/libraries/YunaswapLibrary.sol\":3598:3608  amounts[0] */\n      dup2\n      mload\n      dup2\n      lt\n      tag_215\n      jumpi\n      invalid\n    tag_215:\n      0x20\n      mul\n      0x20\n      add\n      add\n        /* \"contracts/libraries/YunaswapLibrary.sol\":3598:3619  amounts[0] = amountIn */\n      dup2\n      dup2\n      mstore\n      pop\n      pop\n        /* \"contracts/libraries/YunaswapLibrary.sol\":3634:3640  uint i */\n      0x00\n        /* \"contracts/libraries/YunaswapLibrary.sol\":3629:3849  for (uint i; i < path.length - 1; i++) {... */\n    tag_216:\n        /* \"contracts/libraries/YunaswapLibrary.sol\":3660:3661  1 */\n      0x01\n        /* \"contracts/libraries/YunaswapLibrary.sol\":3646:3650  path */\n      dup4\n        /* \"contracts/libraries/YunaswapLibrary.sol\":3646:3657  path.length */\n      mload\n        /* \"contracts/libraries/YunaswapLibrary.sol\":3646:3661  path.length - 1 */\n      sub\n        /* \"contracts/libraries/YunaswapLibrary.sol\":3642:3643  i */\n      dup2\n        /* \"contracts/libraries/YunaswapLibrary.sol\":3642:3661  i < path.length - 1 */\n      lt\n        /* \"contracts/libraries/YunaswapLibrary.sol\":3629:3849  for (uint i; i < path.length - 1; i++) {... */\n      iszero\n      tag_217\n      jumpi\n        /* \"contracts/libraries/YunaswapLibrary.sol\":3683:3697  uint reserveIn */\n      0x00\n        /* \"contracts/libraries/YunaswapLibrary.sol\":3699:3714  uint reserveOut */\n      dup1\n        /* \"contracts/libraries/YunaswapLibrary.sol\":3718:3760  getReserves(factory, path[i], path[i + 1]) */\n      tag_219\n        /* \"contracts/libraries/YunaswapLibrary.sol\":3730:3737  factory */\n      dup8\n        /* \"contracts/libraries/YunaswapLibrary.sol\":3739:3743  path */\n      dup7\n        /* \"contracts/libraries/YunaswapLibrary.sol\":3744:3745  i */\n      dup6\n        /* \"contracts/libraries/YunaswapLibrary.sol\":3739:3746  path[i] */\n      dup2\n      mload\n      dup2\n      lt\n      tag_220\n      jumpi\n      invalid\n    tag_220:\n      0x20\n      mul\n      0x20\n      add\n      add\n      mload\n        /* \"contracts/libraries/YunaswapLibrary.sol\":3748:3752  path */\n      dup8\n        /* \"contracts/libraries/YunaswapLibrary.sol\":3757:3758  1 */\n      0x01\n        /* \"contracts/libraries/YunaswapLibrary.sol\":3753:3754  i */\n      dup8\n        /* \"contracts/libraries/YunaswapLibrary.sol\":3753:3758  i + 1 */\n      add\n        /* \"contracts/libraries/YunaswapLibrary.sol\":3748:3759  path[i + 1] */\n      dup2\n      mload\n      dup2\n      lt\n      tag_221\n      jumpi\n      invalid\n    tag_221:\n      0x20\n      mul\n      0x20\n      add\n      add\n      mload\n        /* \"contracts/libraries/YunaswapLibrary.sol\":3718:3729  getReserves */\n      tag_205\n        /* \"contracts/libraries/YunaswapLibrary.sol\":3718:3760  getReserves(factory, path[i], path[i + 1]) */\n      jump\t// in\n    tag_219:\n        /* \"contracts/libraries/YunaswapLibrary.sol\":3682:3760  (uint reserveIn, uint reserveOut) = getReserves(factory, path[i], path[i + 1]) */\n      swap2\n      pop\n      swap2\n      pop\n        /* \"contracts/libraries/YunaswapLibrary.sol\":3791:3838  getAmountOut(amounts[i], reserveIn, reserveOut) */\n      tag_222\n        /* \"contracts/libraries/YunaswapLibrary.sol\":3804:3811  amounts */\n      dup5\n        /* \"contracts/libraries/YunaswapLibrary.sol\":3812:3813  i */\n      dup5\n        /* \"contracts/libraries/YunaswapLibrary.sol\":3804:3814  amounts[i] */\n      dup2\n      mload\n      dup2\n      lt\n      tag_223\n      jumpi\n      invalid\n    tag_223:\n      0x20\n      mul\n      0x20\n      add\n      add\n      mload\n        /* \"contracts/libraries/YunaswapLibrary.sol\":3816:3825  reserveIn */\n      dup4\n        /* \"contracts/libraries/YunaswapLibrary.sol\":3827:3837  reserveOut */\n      dup4\n        /* \"contracts/libraries/YunaswapLibrary.sol\":3791:3803  getAmountOut */\n      tag_80\n        /* \"contracts/libraries/YunaswapLibrary.sol\":3791:3838  getAmountOut(amounts[i], reserveIn, reserveOut) */\n      jump\t// in\n    tag_222:\n        /* \"contracts/libraries/YunaswapLibrary.sol\":3774:3781  amounts */\n      dup5\n        /* \"contracts/libraries/YunaswapLibrary.sol\":3786:3787  1 */\n      0x01\n        /* \"contracts/libraries/YunaswapLibrary.sol\":3782:3783  i */\n      dup6\n        /* \"contracts/libraries/YunaswapLibrary.sol\":3782:3787  i + 1 */\n      add\n        /* \"contracts/libraries/YunaswapLibrary.sol\":3774:3788  amounts[i + 1] */\n      dup2\n      mload\n      dup2\n      lt\n      tag_224\n      jumpi\n      invalid\n    tag_224:\n      0x20\n      mul\n      0x20\n      add\n      add\n        /* \"contracts/libraries/YunaswapLibrary.sol\":3774:3838  amounts[i + 1] = getAmountOut(amounts[i], reserveIn, reserveOut) */\n      dup2\n      dup2\n      mstore\n      pop\n      pop\n        /* \"contracts/libraries/YunaswapLibrary.sol\":3629:3849  for (uint i; i < path.length - 1; i++) {... */\n      pop\n      pop\n        /* \"contracts/libraries/YunaswapLibrary.sol\":3663:3666  i++ */\n      dup1\n      dup1\n      0x01\n      add\n      swap2\n      pop\n      pop\n        /* \"contracts/libraries/YunaswapLibrary.sol\":3629:3849  for (uint i; i < path.length - 1; i++) {... */\n      jump(tag_216)\n    tag_217:\n      pop\n        /* \"contracts/libraries/YunaswapLibrary.sol\":3353:3855  function getAmountsOut(address factory, uint amountIn, address[] memory path) internal view returns (uint[] memory amounts) {... */\n      swap4\n      swap3\n      pop\n      pop\n      pop\n      jump\t// out\n        /* \"contracts/libraries/TransferHelper.sol\":1083:1569  function safeTransferFrom(... */\n    tag_106:\n        /* \"contracts/libraries/TransferHelper.sol\":1301:1313  bool success */\n      0x00\n        /* \"contracts/libraries/TransferHelper.sol\":1315:1332  bytes memory data */\n      0x60\n        /* \"contracts/libraries/TransferHelper.sol\":1336:1341  token */\n      dup6\n        /* \"contracts/libraries/TransferHelper.sol\":1336:1346  token.call */\n      0xffffffffffffffffffffffffffffffffffffffff\n      and\n        /* \"contracts/libraries/TransferHelper.sol\":1370:1380  0x23b872dd */\n      0x23b872dd\n        /* \"contracts/libraries/TransferHelper.sol\":1382:1386  from */\n      dup7\n        /* \"contracts/libraries/TransferHelper.sol\":1388:1390  to */\n      dup7\n        /* \"contracts/libraries/TransferHelper.sol\":1392:1397  value */\n      dup7\n        /* \"contracts/libraries/TransferHelper.sol\":1347:1398  abi.encodeWithSelector(0x23b872dd, from, to, value) */\n      add(0x24, mload(0x40))\n      dup1\n      dup5\n      0xffffffffffffffffffffffffffffffffffffffff\n      and\n      0xffffffffffffffffffffffffffffffffffffffff\n      and\n      dup2\n      mstore\n      0x20\n      add\n      dup4\n      0xffffffffffffffffffffffffffffffffffffffff\n      and\n      0xffffffffffffffffffffffffffffffffffffffff\n      and\n      dup2\n      mstore\n      0x20\n      add\n      dup3\n      dup2\n      mstore\n      0x20\n      add\n      swap4\n      pop\n      pop\n      pop\n      pop\n      mload(0x40)\n        /* \"--CODEGEN--\":49:53   */\n      0x20\n        /* \"--CODEGEN--\":39:46   */\n      dup2\n        /* \"--CODEGEN--\":30:37   */\n      dup4\n        /* \"--CODEGEN--\":26:47   */\n      sub\n        /* \"--CODEGEN--\":22:54   */\n      sub\n        /* \"--CODEGEN--\":13:20   */\n      dup2\n        /* \"--CODEGEN--\":6:55   */\n      mstore\n        /* \"contracts/libraries/TransferHelper.sol\":1347:1398  abi.encodeWithSelector(0x23b872dd, from, to, value) */\n      swap1\n      0x40\n      mstore\n      swap1\n      0xe0\n      shl\n        /* \"--CODEGEN--\":38:42   */\n      0x20\n        /* \"--CODEGEN--\":29:36   */\n      dup3\n        /* \"--CODEGEN--\":25:43   */\n      add\n        /* \"--CODEGEN--\":67:77   */\n      dup1\n        /* \"--CODEGEN--\":61:78   */\n      mload\n        /* \"--CODEGEN--\":96:154   */\n      0xffffffffffffffffffffffffffffffffffffffffffffffffffffffff\n        /* \"--CODEGEN--\":199:207   */\n      dup4\n        /* \"--CODEGEN--\":192:196   */\n      dup2\n        /* \"--CODEGEN--\":186:190   */\n      dup4\n        /* \"--CODEGEN--\":182:197   */\n      and\n        /* \"--CODEGEN--\":179:208   */\n      or\n        /* \"--CODEGEN--\":167:177   */\n      dup4\n        /* \"--CODEGEN--\":160:209   */\n      mstore\n        /* \"--CODEGEN--\":0:215   */\n      pop\n      pop\n      pop\n        /* \"contracts/libraries/TransferHelper.sol\":1347:1398  abi.encodeWithSelector(0x23b872dd, from, to, value) */\n      pop\n        /* \"contracts/libraries/TransferHelper.sol\":1336:1399  token.call(abi.encodeWithSelector(0x23b872dd, from, to, value)) */\n      mload(0x40)\n      dup1\n      dup3\n      dup1\n      mload\n      swap1\n      0x20\n      add\n      swap1\n      dup1\n      dup4\n      dup4\n        /* \"--CODEGEN--\":36:189   */\n    tag_226:\n        /* \"--CODEGEN--\":66:68   */\n      0x20\n        /* \"--CODEGEN--\":61:64   */\n      dup4\n        /* \"--CODEGEN--\":58:69   */\n      lt\n        /* \"--CODEGEN--\":36:189   */\n      tag_228\n      jumpi\n        /* \"--CODEGEN--\":182:185   */\n      dup1\n        /* \"--CODEGEN--\":176:186   */\n      mload\n        /* \"--CODEGEN--\":171:174   */\n      dup3\n        /* \"--CODEGEN--\":164:187   */\n      mstore\n        /* \"--CODEGEN--\":98:100   */\n      0x20\n        /* \"--CODEGEN--\":93:96   */\n      dup3\n        /* \"--CODEGEN--\":89:101   */\n      add\n        /* \"--CODEGEN--\":82:101   */\n      swap2\n      pop\n        /* \"--CODEGEN--\":123:125   */\n      0x20\n        /* \"--CODEGEN--\":118:121   */\n      dup2\n        /* \"--CODEGEN--\":114:126   */\n      add\n        /* \"--CODEGEN--\":107:126   */\n      swap1\n      pop\n        /* \"--CODEGEN--\":148:150   */\n      0x20\n        /* \"--CODEGEN--\":143:146   */\n      dup4\n        /* \"--CODEGEN--\":139:151   */\n      sub\n        /* \"--CODEGEN--\":132:151   */\n      swap3\n      pop\n        /* \"--CODEGEN--\":36:189   */\n      jump(tag_226)\n    tag_228:\n        /* \"--CODEGEN--\":274:275   */\n      0x01\n        /* \"--CODEGEN--\":267:270   */\n      dup4\n        /* \"--CODEGEN--\":263:265   */\n      0x20\n        /* \"--CODEGEN--\":259:271   */\n      sub\n        /* \"--CODEGEN--\":254:257   */\n      0x0100\n        /* \"--CODEGEN--\":250:272   */\n      exp\n        /* \"--CODEGEN--\":246:276   */\n      sub\n        /* \"--CODEGEN--\":315:319   */\n      dup1\n        /* \"--CODEGEN--\":311:320   */\n      not\n        /* \"--CODEGEN--\":305:308   */\n      dup3\n        /* \"--CODEGEN--\":299:309   */\n      mload\n        /* \"--CODEGEN--\":295:321   */\n      and\n        /* \"--CODEGEN--\":356:360   */\n      dup2\n        /* \"--CODEGEN--\":350:353   */\n      dup5\n        /* \"--CODEGEN--\":344:354   */\n      mload\n        /* \"--CODEGEN--\":340:361   */\n      and\n        /* \"--CODEGEN--\":389:396   */\n      dup1\n        /* \"--CODEGEN--\":380:387   */\n      dup3\n        /* \"--CODEGEN--\":377:397   */\n      or\n        /* \"--CODEGEN--\":372:375   */\n      dup6\n        /* \"--CODEGEN--\":365:398   */\n      mstore\n        /* \"--CODEGEN--\":3:402   */\n      pop\n      pop\n      pop\n        /* \"contracts/libraries/TransferHelper.sol\":1336:1399  token.call(abi.encodeWithSelector(0x23b872dd, from, to, value)) */\n      pop\n      pop\n      pop\n      swap1\n      pop\n      add\n      swap2\n      pop\n      pop\n      0x00\n      mload(0x40)\n      dup1\n      dup4\n      sub\n      dup2\n      0x00\n      dup7\n      gas\n      call\n      swap2\n      pop\n      pop\n      returndatasize\n        /* \"--CODEGEN--\":12:13   */\n      dup1\n        /* \"--CODEGEN--\":19:20   */\n      0x00\n        /* \"--CODEGEN--\":14:41   */\n      dup2\n      eq\n      tag_231\n      jumpi\n        /* \"--CODEGEN--\":67:71   */\n      0x40\n        /* \"--CODEGEN--\":61:72   */\n      mload\n        /* \"--CODEGEN--\":56:72   */\n      swap2\n      pop\n        /* \"--CODEGEN--\":134:138   */\n      0x1f\n        /* \"--CODEGEN--\":130:139   */\n      not\n        /* \"--CODEGEN--\":123:127   */\n      0x3f\n        /* \"--CODEGEN--\":105:121   */\n      returndatasize\n        /* \"--CODEGEN--\":101:128   */\n      add\n        /* \"--CODEGEN--\":97:140   */\n      and\n        /* \"--CODEGEN--\":94:95   */\n      dup3\n        /* \"--CODEGEN--\":90:141   */\n      add\n        /* \"--CODEGEN--\":84:88   */\n      0x40\n        /* \"--CODEGEN--\":77:142   */\n      mstore\n        /* \"--CODEGEN--\":157:173   */\n      returndatasize\n        /* \"--CODEGEN--\":154:155   */\n      dup3\n        /* \"--CODEGEN--\":147:174   */\n      mstore\n        /* \"--CODEGEN--\":211:227   */\n      returndatasize\n        /* \"--CODEGEN--\":208:209   */\n      0x00\n        /* \"--CODEGEN--\":201:205   */\n      0x20\n        /* \"--CODEGEN--\":198:199   */\n      dup5\n        /* \"--CODEGEN--\":194:206   */\n      add\n        /* \"--CODEGEN--\":179:228   */\n      returndatacopy\n        /* \"--CODEGEN--\":5:233   */\n      jump(tag_230)\n        /* \"--CODEGEN--\":14:41   */\n    tag_231:\n        /* \"--CODEGEN--\":32:36   */\n      0x60\n        /* \"--CODEGEN--\":27:36   */\n      swap2\n      pop\n        /* \"--CODEGEN--\":5:233   */\n    tag_230:\n      pop\n        /* \"contracts/libraries/TransferHelper.sol\":1300:1399  (bool success, bytes memory data) = token.call(abi.encodeWithSelector(0x23b872dd, from, to, value)) */\n      swap2\n      pop\n      swap2\n      pop\n        /* \"contracts/libraries/TransferHelper.sol\":1430:1437  success */\n      dup2\n        /* \"contracts/libraries/TransferHelper.sol\":1430:1487  success && (data.length == 0 || abi.decode(data, (bool))) */\n      dup1\n      iszero\n      tag_232\n      jumpi\n      pop\n        /* \"contracts/libraries/TransferHelper.sol\":1457:1458  0 */\n      0x00\n        /* \"contracts/libraries/TransferHelper.sol\":1442:1446  data */\n      dup2\n        /* \"contracts/libraries/TransferHelper.sol\":1442:1453  data.length */\n      mload\n        /* \"contracts/libraries/TransferHelper.sol\":1442:1458  data.length == 0 */\n      eq\n        /* \"contracts/libraries/TransferHelper.sol\":1442:1486  data.length == 0 || abi.decode(data, (bool)) */\n      dup1\n      tag_233\n      jumpi\n      pop\n        /* \"contracts/libraries/TransferHelper.sol\":1473:1477  data */\n      dup1\n        /* \"contracts/libraries/TransferHelper.sol\":1462:1486  abi.decode(data, (bool)) */\n      dup1\n      0x20\n      add\n      swap1\n      mload\n        /* \"--CODEGEN--\":15:17   */\n      0x20\n        /* \"--CODEGEN--\":10:13   */\n      dup2\n        /* \"--CODEGEN--\":7:18   */\n      lt\n        /* \"--CODEGEN--\":4:6   */\n      iszero\n      tag_234\n      jumpi\n        /* \"--CODEGEN--\":31:32   */\n      0x00\n        /* \"--CODEGEN--\":28:29   */\n      dup1\n        /* \"--CODEGEN--\":21:33   */\n      revert\n        /* \"--CODEGEN--\":4:6   */\n    tag_234:\n        /* \"contracts/libraries/TransferHelper.sol\":1462:1486  abi.decode(data, (bool)) */\n      dup2\n      add\n      swap1\n      dup1\n      dup1\n      mload\n      swap1\n      0x20\n      add\n      swap1\n      swap3\n      swap2\n      swap1\n      pop\n      pop\n      pop\n        /* \"contracts/libraries/TransferHelper.sol\":1442:1486  data.length == 0 || abi.decode(data, (bool)) */\n    tag_233:\n        /* \"contracts/libraries/TransferHelper.sol\":1430:1487  success && (data.length == 0 || abi.decode(data, (bool))) */\n    tag_232:\n        /* \"contracts/libraries/TransferHelper.sol\":1409:1562  require(... */\n      tag_235\n      jumpi\n      mload(0x40)\n      0x08c379a000000000000000000000000000000000000000000000000000000000\n      dup2\n      mstore\n      0x04\n      add\n      dup1\n      dup1\n      0x20\n      add\n      dup3\n      dup2\n      sub\n      dup3\n      mstore\n      0x31\n      dup2\n      mstore\n      0x20\n      add\n      dup1\n      data_3f8faf98afe9344b6d4b0e75b0101259bf282914b3b5a9320c6918b6e27ede1c\n      0x31\n      swap2\n      codecopy\n      0x40\n      add\n      swap2\n      pop\n      pop\n      mload(0x40)\n      dup1\n      swap2\n      sub\n      swap1\n      revert\n    tag_235:\n        /* \"contracts/libraries/TransferHelper.sol\":1083:1569  function safeTransferFrom(... */\n      pop\n      pop\n      pop\n      pop\n      pop\n      pop\n      jump\t// out\n        /* \"contracts/YunaswapRouter02.sol\":4482:5202  function _swap(uint[] memory amounts, address[] memory path, address _to) internal virtual {... */\n    tag_108:\n        /* \"contracts/YunaswapRouter02.sol\":4588:4594  uint i */\n      0x00\n        /* \"contracts/YunaswapRouter02.sol\":4583:5196  for (uint i; i < path.length - 1; i++) {... */\n    tag_237:\n        /* \"contracts/YunaswapRouter02.sol\":4614:4615  1 */\n      0x01\n        /* \"contracts/YunaswapRouter02.sol\":4600:4604  path */\n      dup4\n        /* \"contracts/YunaswapRouter02.sol\":4600:4611  path.length */\n      mload\n        /* \"contracts/YunaswapRouter02.sol\":4600:4615  path.length - 1 */\n      sub\n        /* \"contracts/YunaswapRouter02.sol\":4596:4597  i */\n      dup2\n        /* \"contracts/YunaswapRouter02.sol\":4596:4615  i < path.length - 1 */\n      lt\n        /* \"contracts/YunaswapRouter02.sol\":4583:5196  for (uint i; i < path.length - 1; i++) {... */\n      iszero\n      tag_238\n      jumpi\n        /* \"contracts/YunaswapRouter02.sol\":4637:4650  address input */\n      0x00\n        /* \"contracts/YunaswapRouter02.sol\":4652:4666  address output */\n      dup1\n        /* \"contracts/YunaswapRouter02.sol\":4671:4675  path */\n      dup5\n        /* \"contracts/YunaswapRouter02.sol\":4676:4677  i */\n      dup4\n        /* \"contracts/YunaswapRouter02.sol\":4671:4678  path[i] */\n      dup2\n      mload\n      dup2\n      lt\n      tag_240\n      jumpi\n      invalid\n    tag_240:\n      0x20\n      mul\n      0x20\n      add\n      add\n      mload\n        /* \"contracts/YunaswapRouter02.sol\":4680:4684  path */\n      dup6\n        /* \"contracts/YunaswapRouter02.sol\":4689:4690  1 */\n      0x01\n        /* \"contracts/YunaswapRouter02.sol\":4685:4686  i */\n      dup6\n        /* \"contracts/YunaswapRouter02.sol\":4685:4690  i + 1 */\n      add\n        /* \"contracts/YunaswapRouter02.sol\":4680:4691  path[i + 1] */\n      dup2\n      mload\n      dup2\n      lt\n      tag_241\n      jumpi\n      invalid\n    tag_241:\n      0x20\n      mul\n      0x20\n      add\n      add\n      mload\n        /* \"contracts/YunaswapRouter02.sol\":4636:4692  (address input, address output) = (path[i], path[i + 1]) */\n      swap2\n      pop\n      swap2\n      pop\n        /* \"contracts/YunaswapRouter02.sol\":4707:4721  address token0 */\n      0x00\n        /* \"contracts/YunaswapRouter02.sol\":4726:4767  YunaswapLibrary.sortTokens(input, output) */\n      tag_242\n        /* \"contracts/YunaswapRouter02.sol\":4753:4758  input */\n      dup4\n        /* \"contracts/YunaswapRouter02.sol\":4760:4766  output */\n      dup4\n        /* \"contracts/YunaswapRouter02.sol\":4726:4752  YunaswapLibrary.sortTokens */\n      tag_164\n        /* \"contracts/YunaswapRouter02.sol\":4726:4767  YunaswapLibrary.sortTokens(input, output) */\n      jump\t// in\n    tag_242:\n        /* \"contracts/YunaswapRouter02.sol\":4706:4767  (address token0,) = YunaswapLibrary.sortTokens(input, output) */\n      pop\n      swap1\n      pop\n        /* \"contracts/YunaswapRouter02.sol\":4781:4795  uint amountOut */\n      0x00\n        /* \"contracts/YunaswapRouter02.sol\":4798:4805  amounts */\n      dup8\n        /* \"contracts/YunaswapRouter02.sol\":4810:4811  1 */\n      0x01\n        /* \"contracts/YunaswapRouter02.sol\":4806:4807  i */\n      dup7\n        /* \"contracts/YunaswapRouter02.sol\":4806:4811  i + 1 */\n      add\n        /* \"contracts/YunaswapRouter02.sol\":4798:4812  amounts[i + 1] */\n      dup2\n      mload\n      dup2\n      lt\n      tag_243\n      jumpi\n      invalid\n    tag_243:\n      0x20\n      mul\n      0x20\n      add\n      add\n      mload\n        /* \"contracts/YunaswapRouter02.sol\":4781:4812  uint amountOut = amounts[i + 1] */\n      swap1\n      pop\n        /* \"contracts/YunaswapRouter02.sol\":4827:4842  uint amount0Out */\n      0x00\n        /* \"contracts/YunaswapRouter02.sol\":4844:4859  uint amount1Out */\n      dup1\n        /* \"contracts/YunaswapRouter02.sol\":4872:4878  token0 */\n      dup4\n        /* \"contracts/YunaswapRouter02.sol\":4863:4878  input == token0 */\n      0xffffffffffffffffffffffffffffffffffffffff\n      and\n        /* \"contracts/YunaswapRouter02.sol\":4863:4868  input */\n      dup7\n        /* \"contracts/YunaswapRouter02.sol\":4863:4878  input == token0 */\n      0xffffffffffffffffffffffffffffffffffffffff\n      and\n      eq\n        /* \"contracts/YunaswapRouter02.sol\":4863:4924  input == token0 ? (uint(0), amountOut) : (amountOut, uint(0)) */\n      tag_244\n      jumpi\n        /* \"contracts/YunaswapRouter02.sol\":4905:4914  amountOut */\n      dup3\n        /* \"contracts/YunaswapRouter02.sol\":4921:4922  0 */\n      0x00\n        /* \"contracts/YunaswapRouter02.sol\":4863:4924  input == token0 ? (uint(0), amountOut) : (amountOut, uint(0)) */\n      jump(tag_245)\n    tag_244:\n        /* \"contracts/YunaswapRouter02.sol\":4887:4888  0 */\n      0x00\n        /* \"contracts/YunaswapRouter02.sol\":4891:4900  amountOut */\n      dup4\n        /* \"contracts/YunaswapRouter02.sol\":4863:4924  input == token0 ? (uint(0), amountOut) : (amountOut, uint(0)) */\n    tag_245:\n        /* \"contracts/YunaswapRouter02.sol\":4826:4924  (uint amount0Out, uint amount1Out) = input == token0 ? (uint(0), amountOut) : (amountOut, uint(0)) */\n      swap2\n      pop\n      swap2\n      pop\n        /* \"contracts/YunaswapRouter02.sol\":4938:4948  address to */\n      0x00\n        /* \"contracts/YunaswapRouter02.sol\":4969:4970  2 */\n      0x02\n        /* \"contracts/YunaswapRouter02.sol\":4955:4959  path */\n      dup11\n        /* \"contracts/YunaswapRouter02.sol\":4955:4966  path.length */\n      mload\n        /* \"contracts/YunaswapRouter02.sol\":4955:4970  path.length - 2 */\n      sub\n        /* \"contracts/YunaswapRouter02.sol\":4951:4952  i */\n      dup9\n        /* \"contracts/YunaswapRouter02.sol\":4951:4970  i < path.length - 2 */\n      lt\n        /* \"contracts/YunaswapRouter02.sol\":4951:5032  i < path.length - 2 ? YunaswapLibrary.pairFor(factory, output, path[i + 2]) : _to */\n      tag_246\n      jumpi\n        /* \"contracts/YunaswapRouter02.sol\":5029:5032  _to */\n      dup9\n        /* \"contracts/YunaswapRouter02.sol\":4951:5032  i < path.length - 2 ? YunaswapLibrary.pairFor(factory, output, path[i + 2]) : _to */\n      jump(tag_247)\n    tag_246:\n        /* \"contracts/YunaswapRouter02.sol\":4973:5026  YunaswapLibrary.pairFor(factory, output, path[i + 2]) */\n      tag_248\n        /* \"contracts/YunaswapRouter02.sol\":4997:5004  factory */\n      immutable(\"0x277ab82e5a4641341820a4a2933a62c1de997e42e92548657ae21b3728d580fe\")\n        /* \"contracts/YunaswapRouter02.sol\":5006:5012  output */\n      dup8\n        /* \"contracts/YunaswapRouter02.sol\":5014:5018  path */\n      dup13\n        /* \"contracts/YunaswapRouter02.sol\":5023:5024  2 */\n      0x02\n        /* \"contracts/YunaswapRouter02.sol\":5019:5020  i */\n      dup13\n        /* \"contracts/YunaswapRouter02.sol\":5019:5024  i + 2 */\n      add\n        /* \"contracts/YunaswapRouter02.sol\":5014:5025  path[i + 2] */\n      dup2\n      mload\n      dup2\n      lt\n      tag_249\n      jumpi\n      invalid\n    tag_249:\n      0x20\n      mul\n      0x20\n      add\n      add\n      mload\n        /* \"contracts/YunaswapRouter02.sol\":4973:4996  YunaswapLibrary.pairFor */\n      tag_86\n        /* \"contracts/YunaswapRouter02.sol\":4973:5026  YunaswapLibrary.pairFor(factory, output, path[i + 2]) */\n      jump\t// in\n    tag_248:\n        /* \"contracts/YunaswapRouter02.sol\":4951:5032  i < path.length - 2 ? YunaswapLibrary.pairFor(factory, output, path[i + 2]) : _to */\n    tag_247:\n        /* \"contracts/YunaswapRouter02.sol\":4938:5032  address to = i < path.length - 2 ? YunaswapLibrary.pairFor(factory, output, path[i + 2]) : _to */\n      swap1\n      pop\n        /* \"contracts/YunaswapRouter02.sol\":5060:5107  YunaswapLibrary.pairFor(factory, input, output) */\n      tag_250\n        /* \"contracts/YunaswapRouter02.sol\":5084:5091  factory */\n      immutable(\"0x277ab82e5a4641341820a4a2933a62c1de997e42e92548657ae21b3728d580fe\")\n        /* \"contracts/YunaswapRouter02.sol\":5093:5098  input */\n      dup9\n        /* \"contracts/YunaswapRouter02.sol\":5100:5106  output */\n      dup9\n        /* \"contracts/YunaswapRouter02.sol\":5060:5083  YunaswapLibrary.pairFor */\n      tag_86\n        /* \"contracts/YunaswapRouter02.sol\":5060:5107  YunaswapLibrary.pairFor(factory, input, output) */\n      jump\t// in\n    tag_250:\n        /* \"contracts/YunaswapRouter02.sol\":5046:5113  IYunaswapPair(YunaswapLibrary.pairFor(factory, input, output)).swap */\n      0xffffffffffffffffffffffffffffffffffffffff\n      and\n      0x022c0d9f\n        /* \"contracts/YunaswapRouter02.sol\":5131:5141  amount0Out */\n      dup5\n        /* \"contracts/YunaswapRouter02.sol\":5143:5153  amount1Out */\n      dup5\n        /* \"contracts/YunaswapRouter02.sol\":5155:5157  to */\n      dup5\n        /* \"contracts/YunaswapRouter02.sol\":5169:5170  0 */\n      0x00\n        /* \"contracts/YunaswapRouter02.sol\":5159:5171  new bytes(0) */\n      0xffffffffffffffff\n      dup2\n      gt\n        /* \"--CODEGEN--\":5:14   */\n      dup1\n        /* \"--CODEGEN--\":2:4   */\n      iszero\n      tag_251\n      jumpi\n        /* \"--CODEGEN--\":27:28   */\n      0x00\n        /* \"--CODEGEN--\":24:25   */\n      dup1\n        /* \"--CODEGEN--\":17:29   */\n      revert\n        /* \"--CODEGEN--\":2:4   */\n    tag_251:\n        /* \"contracts/YunaswapRouter02.sol\":5159:5171  new bytes(0) */\n      pop\n      mload(0x40)\n      swap1\n      dup1\n      dup3\n      mstore\n      dup1\n      0x1f\n      add\n      not(0x1f)\n      and\n      0x20\n      add\n      dup3\n      add\n      0x40\n      mstore\n      dup1\n      iszero\n      tag_252\n      jumpi\n      dup2\n      0x20\n      add\n        /* \"--CODEGEN--\":29:30   */\n      0x01\n        /* \"--CODEGEN--\":21:27   */\n      dup3\n        /* \"--CODEGEN--\":17:31   */\n      mul\n        /* \"--CODEGEN--\":124:128   */\n      dup1\n        /* \"--CODEGEN--\":108:122   */\n      calldatasize\n        /* \"--CODEGEN--\":100:106   */\n      dup4\n        /* \"--CODEGEN--\":87:129   */\n      calldatacopy\n        /* \"--CODEGEN--\":155:159   */\n      dup1\n        /* \"--CODEGEN--\":147:153   */\n      dup3\n        /* \"--CODEGEN--\":143:160   */\n      add\n        /* \"--CODEGEN--\":133:160   */\n      swap2\n      pop\n        /* \"--CODEGEN--\":0:164   */\n      pop\n        /* \"contracts/YunaswapRouter02.sol\":5159:5171  new bytes(0) */\n      swap1\n      pop\n    tag_252:\n      pop\n        /* \"contracts/YunaswapRouter02.sol\":5046:5185  IYunaswapPair(YunaswapLibrary.pairFor(factory, input, output)).swap(... */\n      mload(0x40)\n      dup6\n      0xffffffff\n      and\n      0xe0\n      shl\n      dup2\n      mstore\n      0x04\n      add\n      dup1\n      dup6\n      dup2\n      mstore\n      0x20\n      add\n      dup5\n      dup2\n      mstore\n      0x20\n      add\n      dup4\n      0xffffffffffffffffffffffffffffffffffffffff\n      and\n      0xffffffffffffffffffffffffffffffffffffffff\n      and\n      dup2\n      mstore\n      0x20\n      add\n      dup1\n      0x20\n      add\n      dup3\n      dup2\n      sub\n      dup3\n      mstore\n      dup4\n      dup2\n      dup2\n      mload\n      dup2\n      mstore\n      0x20\n      add\n      swap2\n      pop\n      dup1\n      mload\n      swap1\n      0x20\n      add\n      swap1\n      dup1\n      dup4\n      dup4\n        /* \"--CODEGEN--\":23:24   */\n      0x00\n        /* \"--CODEGEN--\":8:108   */\n    tag_253:\n        /* \"--CODEGEN--\":33:36   */\n      dup4\n        /* \"--CODEGEN--\":30:31   */\n      dup2\n        /* \"--CODEGEN--\":27:37   */\n      lt\n        /* \"--CODEGEN--\":8:108   */\n      iszero\n      tag_255\n      jumpi\n        /* \"--CODEGEN--\":99:100   */\n      dup1\n        /* \"--CODEGEN--\":94:97   */\n      dup3\n        /* \"--CODEGEN--\":90:101   */\n      add\n        /* \"--CODEGEN--\":84:102   */\n      mload\n        /* \"--CODEGEN--\":80:81   */\n      dup2\n        /* \"--CODEGEN--\":75:78   */\n      dup5\n        /* \"--CODEGEN--\":71:82   */\n      add\n        /* \"--CODEGEN--\":64:103   */\n      mstore\n        /* \"--CODEGEN--\":52:54   */\n      0x20\n        /* \"--CODEGEN--\":49:50   */\n      dup2\n        /* \"--CODEGEN--\":45:55   */\n      add\n        /* \"--CODEGEN--\":40:55   */\n      swap1\n      pop\n        /* \"--CODEGEN--\":8:108   */\n      jump(tag_253)\n    tag_255:\n        /* \"--CODEGEN--\":12:26   */\n      pop\n        /* \"contracts/YunaswapRouter02.sol\":5046:5185  IYunaswapPair(YunaswapLibrary.pairFor(factory, input, output)).swap(... */\n      pop\n      pop\n      pop\n      swap1\n      pop\n      swap1\n      dup2\n      add\n      swap1\n      0x1f\n      and\n      dup1\n      iszero\n      tag_256\n      jumpi\n      dup1\n      dup3\n      sub\n      dup1\n      mload\n      0x01\n      dup4\n      0x20\n      sub\n      0x0100\n      exp\n      sub\n      not\n      and\n      dup2\n      mstore\n      0x20\n      add\n      swap2\n      pop\n    tag_256:\n      pop\n      swap6\n      pop\n      pop\n      pop\n      pop\n      pop\n      pop\n      0x00\n      mload(0x40)\n      dup1\n      dup4\n      sub\n      dup2\n      0x00\n      dup8\n      dup1\n      extcodesize\n      iszero\n        /* \"--CODEGEN--\":5:14   */\n      dup1\n        /* \"--CODEGEN--\":2:4   */\n      iszero\n      tag_257\n      jumpi\n        /* \"--CODEGEN--\":27:28   */\n      0x00\n        /* \"--CODEGEN--\":24:25   */\n      dup1\n        /* \"--CODEGEN--\":17:29   */\n      revert\n        /* \"--CODEGEN--\":2:4   */\n    tag_257:\n        /* \"contracts/YunaswapRouter02.sol\":5046:5185  IYunaswapPair(YunaswapLibrary.pairFor(factory, input, output)).swap(... */\n      pop\n      gas\n      call\n      iszero\n        /* \"--CODEGEN--\":8:17   */\n      dup1\n        /* \"--CODEGEN--\":5:7   */\n      iszero\n      tag_259\n      jumpi\n        /* \"--CODEGEN--\":45:61   */\n      returndatasize\n        /* \"--CODEGEN--\":42:43   */\n      0x00\n        /* \"--CODEGEN--\":39:40   */\n      dup1\n        /* \"--CODEGEN--\":24:62   */\n      returndatacopy\n        /* \"--CODEGEN--\":77:93   */\n      returndatasize\n        /* \"--CODEGEN--\":74:75   */\n      0x00\n        /* \"--CODEGEN--\":67:94   */\n      revert\n        /* \"--CODEGEN--\":5:7   */\n    tag_259:\n        /* \"contracts/YunaswapRouter02.sol\":5046:5185  IYunaswapPair(YunaswapLibrary.pairFor(factory, input, output)).swap(... */\n      pop\n      pop\n      pop\n      pop\n        /* \"contracts/YunaswapRouter02.sol\":4583:5196  for (uint i; i < path.length - 1; i++) {... */\n      pop\n      pop\n      pop\n      pop\n      pop\n      pop\n      pop\n        /* \"contracts/YunaswapRouter02.sol\":4617:4620  i++ */\n      dup1\n      dup1\n      0x01\n      add\n      swap2\n      pop\n      pop\n        /* \"contracts/YunaswapRouter02.sol\":4583:5196  for (uint i; i < path.length - 1; i++) {... */\n      jump(tag_237)\n    tag_238:\n      pop\n        /* \"contracts/YunaswapRouter02.sol\":4482:5202  function _swap(uint[] memory amounts, address[] memory path, address _to) internal virtual {... */\n      pop\n      pop\n      pop\n      jump\t// out\n        /* \"contracts/YunaswapRouter02.sol\":6571:7762  function _swapSupportingFeeOnTransferTokens(address[] memory path, address _to) internal virtual {... */\n    tag_123:\n        /* \"contracts/YunaswapRouter02.sol\":6683:6689  uint i */\n      0x00\n        /* \"contracts/YunaswapRouter02.sol\":6678:7756  for (uint i; i < path.length - 1; i++) {... */\n    tag_261:\n        /* \"contracts/YunaswapRouter02.sol\":6709:6710  1 */\n      0x01\n        /* \"contracts/YunaswapRouter02.sol\":6695:6699  path */\n      dup4\n        /* \"contracts/YunaswapRouter02.sol\":6695:6706  path.length */\n      mload\n        /* \"contracts/YunaswapRouter02.sol\":6695:6710  path.length - 1 */\n      sub\n        /* \"contracts/YunaswapRouter02.sol\":6691:6692  i */\n      dup2\n        /* \"contracts/YunaswapRouter02.sol\":6691:6710  i < path.length - 1 */\n      lt\n        /* \"contracts/YunaswapRouter02.sol\":6678:7756  for (uint i; i < path.length - 1; i++) {... */\n      iszero\n      tag_262\n      jumpi\n        /* \"contracts/YunaswapRouter02.sol\":6732:6745  address input */\n      0x00\n        /* \"contracts/YunaswapRouter02.sol\":6747:6761  address output */\n      dup1\n        /* \"contracts/YunaswapRouter02.sol\":6766:6770  path */\n      dup5\n        /* \"contracts/YunaswapRouter02.sol\":6771:6772  i */\n      dup4\n        /* \"contracts/YunaswapRouter02.sol\":6766:6773  path[i] */\n      dup2\n      mload\n      dup2\n      lt\n      tag_264\n      jumpi\n      invalid\n    tag_264:\n      0x20\n      mul\n      0x20\n      add\n      add\n      mload\n        /* \"contracts/YunaswapRouter02.sol\":6775:6779  path */\n      dup6\n        /* \"contracts/YunaswapRouter02.sol\":6784:6785  1 */\n      0x01\n        /* \"contracts/YunaswapRouter02.sol\":6780:6781  i */\n      dup6\n        /* \"contracts/YunaswapRouter02.sol\":6780:6785  i + 1 */\n      add\n        /* \"contracts/YunaswapRouter02.sol\":6775:6786  path[i + 1] */\n      dup2\n      mload\n      dup2\n      lt\n      tag_265\n      jumpi\n      invalid\n    tag_265:\n      0x20\n      mul\n      0x20\n      add\n      add\n      mload\n        /* \"contracts/YunaswapRouter02.sol\":6731:6787  (address input, address output) = (path[i], path[i + 1]) */\n      swap2\n      pop\n      swap2\n      pop\n        /* \"contracts/YunaswapRouter02.sol\":6802:6816  address token0 */\n      0x00\n        /* \"contracts/YunaswapRouter02.sol\":6821:6862  YunaswapLibrary.sortTokens(input, output) */\n      tag_266\n        /* \"contracts/YunaswapRouter02.sol\":6848:6853  input */\n      dup4\n        /* \"contracts/YunaswapRouter02.sol\":6855:6861  output */\n      dup4\n        /* \"contracts/YunaswapRouter02.sol\":6821:6847  YunaswapLibrary.sortTokens */\n      tag_164\n        /* \"contracts/YunaswapRouter02.sol\":6821:6862  YunaswapLibrary.sortTokens(input, output) */\n      jump\t// in\n    tag_266:\n        /* \"contracts/YunaswapRouter02.sol\":6801:6862  (address token0,) = YunaswapLibrary.sortTokens(input, output) */\n      pop\n      swap1\n      pop\n        /* \"contracts/YunaswapRouter02.sol\":6876:6894  IYunaswapPair pair */\n      0x00\n        /* \"contracts/YunaswapRouter02.sol\":6911:6958  YunaswapLibrary.pairFor(factory, input, output) */\n      tag_267\n        /* \"contracts/YunaswapRouter02.sol\":6935:6942  factory */\n      immutable(\"0x277ab82e5a4641341820a4a2933a62c1de997e42e92548657ae21b3728d580fe\")\n        /* \"contracts/YunaswapRouter02.sol\":6944:6949  input */\n      dup6\n        /* \"contracts/YunaswapRouter02.sol\":6951:6957  output */\n      dup6\n        /* \"contracts/YunaswapRouter02.sol\":6911:6934  YunaswapLibrary.pairFor */\n      tag_86\n        /* \"contracts/YunaswapRouter02.sol\":6911:6958  YunaswapLibrary.pairFor(factory, input, output) */\n      jump\t// in\n    tag_267:\n        /* \"contracts/YunaswapRouter02.sol\":6876:6959  IYunaswapPair pair = IYunaswapPair(YunaswapLibrary.pairFor(factory, input, output)) */\n      swap1\n      pop\n        /* \"contracts/YunaswapRouter02.sol\":6973:6989  uint amountInput */\n      0x00\n        /* \"contracts/YunaswapRouter02.sol\":7003:7020  uint amountOutput */\n      dup1\n        /* \"contracts/YunaswapRouter02.sol\":7089:7102  uint reserve0 */\n      0x00\n        /* \"contracts/YunaswapRouter02.sol\":7104:7117  uint reserve1 */\n      dup1\n        /* \"contracts/YunaswapRouter02.sol\":7122:7126  pair */\n      dup5\n        /* \"contracts/YunaswapRouter02.sol\":7122:7138  pair.getReserves */\n      0xffffffffffffffffffffffffffffffffffffffff\n      and\n      0x0902f1ac\n        /* \"contracts/YunaswapRouter02.sol\":7122:7140  pair.getReserves() */\n      mload(0x40)\n      dup2\n      0xffffffff\n      and\n      0xe0\n      shl\n      dup2\n      mstore\n      0x04\n      add\n      0x60\n      mload(0x40)\n      dup1\n      dup4\n      sub\n      dup2\n      dup7\n      dup1\n      extcodesize\n      iszero\n        /* \"--CODEGEN--\":5:14   */\n      dup1\n        /* \"--CODEGEN--\":2:4   */\n      iszero\n      tag_268\n      jumpi\n        /* \"--CODEGEN--\":27:28   */\n      0x00\n        /* \"--CODEGEN--\":24:25   */\n      dup1\n        /* \"--CODEGEN--\":17:29   */\n      revert\n        /* \"--CODEGEN--\":2:4   */\n    tag_268:\n        /* \"contracts/YunaswapRouter02.sol\":7122:7140  pair.getReserves() */\n      pop\n      gas\n      staticcall\n      iszero\n        /* \"--CODEGEN--\":8:17   */\n      dup1\n        /* \"--CODEGEN--\":5:7   */\n      iszero\n      tag_270\n      jumpi\n        /* \"--CODEGEN--\":45:61   */\n      returndatasize\n        /* \"--CODEGEN--\":42:43   */\n      0x00\n        /* \"--CODEGEN--\":39:40   */\n      dup1\n        /* \"--CODEGEN--\":24:62   */\n      returndatacopy\n        /* \"--CODEGEN--\":77:93   */\n      returndatasize\n        /* \"--CODEGEN--\":74:75   */\n      0x00\n        /* \"--CODEGEN--\":67:94   */\n      revert\n        /* \"--CODEGEN--\":5:7   */\n    tag_270:\n        /* \"contracts/YunaswapRouter02.sol\":7122:7140  pair.getReserves() */\n      pop\n      pop\n      pop\n      pop\n      mload(0x40)\n      returndatasize\n        /* \"--CODEGEN--\":15:17   */\n      0x60\n        /* \"--CODEGEN--\":10:13   */\n      dup2\n        /* \"--CODEGEN--\":7:18   */\n      lt\n        /* \"--CODEGEN--\":4:6   */\n      iszero\n      tag_271\n      jumpi\n        /* \"--CODEGEN--\":31:32   */\n      0x00\n        /* \"--CODEGEN--\":28:29   */\n      dup1\n        /* \"--CODEGEN--\":21:33   */\n      revert\n        /* \"--CODEGEN--\":4:6   */\n    tag_271:\n        /* \"contracts/YunaswapRouter02.sol\":7122:7140  pair.getReserves() */\n      dup2\n      add\n      swap1\n      dup1\n      dup1\n      mload\n      swap1\n      0x20\n      add\n      swap1\n      swap3\n      swap2\n      swap1\n      dup1\n      mload\n      swap1\n      0x20\n      add\n      swap1\n      swap3\n      swap2\n      swap1\n      dup1\n      mload\n      swap1\n      0x20\n      add\n      swap1\n      swap3\n      swap2\n      swap1\n      pop\n      pop\n      pop\n        /* \"contracts/YunaswapRouter02.sol\":7088:7140  (uint reserve0, uint reserve1,) = pair.getReserves() */\n      pop\n      0xffffffffffffffffffffffffffff\n      and\n      swap2\n      pop\n      0xffffffffffffffffffffffffffff\n      and\n      swap2\n      pop\n        /* \"contracts/YunaswapRouter02.sol\":7155:7172  uint reserveInput */\n      0x00\n        /* \"contracts/YunaswapRouter02.sol\":7174:7192  uint reserveOutput */\n      dup1\n        /* \"contracts/YunaswapRouter02.sol\":7205:7211  token0 */\n      dup8\n        /* \"contracts/YunaswapRouter02.sol\":7196:7211  input == token0 */\n      0xffffffffffffffffffffffffffffffffffffffff\n      and\n        /* \"contracts/YunaswapRouter02.sol\":7196:7201  input */\n      dup11\n        /* \"contracts/YunaswapRouter02.sol\":7196:7211  input == token0 */\n      0xffffffffffffffffffffffffffffffffffffffff\n      and\n      eq\n        /* \"contracts/YunaswapRouter02.sol\":7196:7257  input == token0 ? (reserve0, reserve1) : (reserve1, reserve0) */\n      tag_272\n      jumpi\n        /* \"contracts/YunaswapRouter02.sol\":7238:7246  reserve1 */\n      dup3\n        /* \"contracts/YunaswapRouter02.sol\":7248:7256  reserve0 */\n      dup5\n        /* \"contracts/YunaswapRouter02.sol\":7196:7257  input == token0 ? (reserve0, reserve1) : (reserve1, reserve0) */\n      jump(tag_273)\n    tag_272:\n        /* \"contracts/YunaswapRouter02.sol\":7215:7223  reserve0 */\n      dup4\n        /* \"contracts/YunaswapRouter02.sol\":7225:7233  reserve1 */\n      dup4\n        /* \"contracts/YunaswapRouter02.sol\":7196:7257  input == token0 ? (reserve0, reserve1) : (reserve1, reserve0) */\n    tag_273:\n        /* \"contracts/YunaswapRouter02.sol\":7154:7257  (uint reserveInput, uint reserveOutput) = input == token0 ? (reserve0, reserve1) : (reserve1, reserve0) */\n      swap2\n      pop\n      swap2\n      pop\n        /* \"contracts/YunaswapRouter02.sol\":7285:7341  IERC20(input).balanceOf(address(pair)).sub(reserveInput) */\n      tag_274\n        /* \"contracts/YunaswapRouter02.sol\":7328:7340  reserveInput */\n      dup3\n        /* \"contracts/YunaswapRouter02.sol\":7292:7297  input */\n      dup12\n        /* \"contracts/YunaswapRouter02.sol\":7285:7308  IERC20(input).balanceOf */\n      0xffffffffffffffffffffffffffffffffffffffff\n      and\n      0x70a08231\n        /* \"contracts/YunaswapRouter02.sol\":7317:7321  pair */\n      dup11\n        /* \"contracts/YunaswapRouter02.sol\":7285:7323  IERC20(input).balanceOf(address(pair)) */\n      mload(0x40)\n      dup3\n      0xffffffff\n      and\n      0xe0\n      shl\n      dup2\n      mstore\n      0x04\n      add\n      dup1\n      dup3\n      0xffffffffffffffffffffffffffffffffffffffff\n      and\n      0xffffffffffffffffffffffffffffffffffffffff\n      and\n      dup2\n      mstore\n      0x20\n      add\n      swap2\n      pop\n      pop\n      0x20\n      mload(0x40)\n      dup1\n      dup4\n      sub\n      dup2\n      dup7\n      dup1\n      extcodesize\n      iszero\n        /* \"--CODEGEN--\":5:14   */\n      dup1\n        /* \"--CODEGEN--\":2:4   */\n      iszero\n      tag_275\n      jumpi\n        /* \"--CODEGEN--\":27:28   */\n      0x00\n        /* \"--CODEGEN--\":24:25   */\n      dup1\n        /* \"--CODEGEN--\":17:29   */\n      revert\n        /* \"--CODEGEN--\":2:4   */\n    tag_275:\n        /* \"contracts/YunaswapRouter02.sol\":7285:7323  IERC20(input).balanceOf(address(pair)) */\n      pop\n      gas\n      staticcall\n      iszero\n        /* \"--CODEGEN--\":8:17   */\n      dup1\n        /* \"--CODEGEN--\":5:7   */\n      iszero\n      tag_277\n      jumpi\n        /* \"--CODEGEN--\":45:61   */\n      returndatasize\n        /* \"--CODEGEN--\":42:43   */\n      0x00\n        /* \"--CODEGEN--\":39:40   */\n      dup1\n        /* \"--CODEGEN--\":24:62   */\n      returndatacopy\n        /* \"--CODEGEN--\":77:93   */\n      returndatasize\n        /* \"--CODEGEN--\":74:75   */\n      0x00\n        /* \"--CODEGEN--\":67:94   */\n      revert\n        /* \"--CODEGEN--\":5:7   */\n    tag_277:\n        /* \"contracts/YunaswapRouter02.sol\":7285:7323  IERC20(input).balanceOf(address(pair)) */\n      pop\n      pop\n      pop\n      pop\n      mload(0x40)\n      returndatasize\n        /* \"--CODEGEN--\":15:17   */\n      0x20\n        /* \"--CODEGEN--\":10:13   */\n      dup2\n        /* \"--CODEGEN--\":7:18   */\n      lt\n        /* \"--CODEGEN--\":4:6   */\n      iszero\n      tag_278\n      jumpi\n        /* \"--CODEGEN--\":31:32   */\n      0x00\n        /* \"--CODEGEN--\":28:29   */\n      dup1\n        /* \"--CODEGEN--\":21:33   */\n      revert\n        /* \"--CODEGEN--\":4:6   */\n    tag_278:\n        /* \"contracts/YunaswapRouter02.sol\":7285:7323  IERC20(input).balanceOf(address(pair)) */\n      dup2\n      add\n      swap1\n      dup1\n      dup1\n      mload\n      swap1\n      0x20\n      add\n      swap1\n      swap3\n      swap2\n      swap1\n      pop\n      pop\n      pop\n        /* \"contracts/YunaswapRouter02.sol\":7285:7327  IERC20(input).balanceOf(address(pair)).sub */\n      tag_130\n      swap1\n        /* \"contracts/YunaswapRouter02.sol\":7285:7341  IERC20(input).balanceOf(address(pair)).sub(reserveInput) */\n      swap2\n      swap1\n      0xffffffff\n      and\n      jump\t// in\n    tag_274:\n        /* \"contracts/YunaswapRouter02.sol\":7271:7341  amountInput = IERC20(input).balanceOf(address(pair)).sub(reserveInput) */\n      swap6\n      pop\n        /* \"contracts/YunaswapRouter02.sol\":7370:7440  YunaswapLibrary.getAmountOut(amountInput, reserveInput, reserveOutput) */\n      tag_279\n        /* \"contracts/YunaswapRouter02.sol\":7399:7410  amountInput */\n      dup7\n        /* \"contracts/YunaswapRouter02.sol\":7412:7424  reserveInput */\n      dup4\n        /* \"contracts/YunaswapRouter02.sol\":7426:7439  reserveOutput */\n      dup4\n        /* \"contracts/YunaswapRouter02.sol\":7370:7398  YunaswapLibrary.getAmountOut */\n      tag_80\n        /* \"contracts/YunaswapRouter02.sol\":7370:7440  YunaswapLibrary.getAmountOut(amountInput, reserveInput, reserveOutput) */\n      jump\t// in\n    tag_279:\n        /* \"contracts/YunaswapRouter02.sol\":7355:7440  amountOutput = YunaswapLibrary.getAmountOut(amountInput, reserveInput, reserveOutput) */\n      swap5\n      pop\n        /* \"contracts/YunaswapRouter02.sol\":6678:7756  for (uint i; i < path.length - 1; i++) {... */\n      pop\n      pop\n      pop\n      pop\n        /* \"contracts/YunaswapRouter02.sol\":7469:7484  uint amount0Out */\n      0x00\n        /* \"contracts/YunaswapRouter02.sol\":7486:7501  uint amount1Out */\n      dup1\n        /* \"contracts/YunaswapRouter02.sol\":7514:7520  token0 */\n      dup6\n        /* \"contracts/YunaswapRouter02.sol\":7505:7520  input == token0 */\n      0xffffffffffffffffffffffffffffffffffffffff\n      and\n        /* \"contracts/YunaswapRouter02.sol\":7505:7510  input */\n      dup9\n        /* \"contracts/YunaswapRouter02.sol\":7505:7520  input == token0 */\n      0xffffffffffffffffffffffffffffffffffffffff\n      and\n      eq\n        /* \"contracts/YunaswapRouter02.sol\":7505:7572  input == token0 ? (uint(0), amountOutput) : (amountOutput, uint(0)) */\n      tag_280\n      jumpi\n        /* \"contracts/YunaswapRouter02.sol\":7550:7562  amountOutput */\n      dup3\n        /* \"contracts/YunaswapRouter02.sol\":7569:7570  0 */\n      0x00\n        /* \"contracts/YunaswapRouter02.sol\":7505:7572  input == token0 ? (uint(0), amountOutput) : (amountOutput, uint(0)) */\n      jump(tag_281)\n    tag_280:\n        /* \"contracts/YunaswapRouter02.sol\":7529:7530  0 */\n      0x00\n        /* \"contracts/YunaswapRouter02.sol\":7533:7545  amountOutput */\n      dup4\n        /* \"contracts/YunaswapRouter02.sol\":7505:7572  input == token0 ? (uint(0), amountOutput) : (amountOutput, uint(0)) */\n    tag_281:\n        /* \"contracts/YunaswapRouter02.sol\":7468:7572  (uint amount0Out, uint amount1Out) = input == token0 ? (uint(0), amountOutput) : (amountOutput, uint(0)) */\n      swap2\n      pop\n      swap2\n      pop\n        /* \"contracts/YunaswapRouter02.sol\":7586:7596  address to */\n      0x00\n        /* \"contracts/YunaswapRouter02.sol\":7617:7618  2 */\n      0x02\n        /* \"contracts/YunaswapRouter02.sol\":7603:7607  path */\n      dup13\n        /* \"contracts/YunaswapRouter02.sol\":7603:7614  path.length */\n      mload\n        /* \"contracts/YunaswapRouter02.sol\":7603:7618  path.length - 2 */\n      sub\n        /* \"contracts/YunaswapRouter02.sol\":7599:7600  i */\n      dup11\n        /* \"contracts/YunaswapRouter02.sol\":7599:7618  i < path.length - 2 */\n      lt\n        /* \"contracts/YunaswapRouter02.sol\":7599:7680  i < path.length - 2 ? YunaswapLibrary.pairFor(factory, output, path[i + 2]) : _to */\n      tag_282\n      jumpi\n        /* \"contracts/YunaswapRouter02.sol\":7677:7680  _to */\n      dup11\n        /* \"contracts/YunaswapRouter02.sol\":7599:7680  i < path.length - 2 ? YunaswapLibrary.pairFor(factory, output, path[i + 2]) : _to */\n      jump(tag_283)\n    tag_282:\n        /* \"contracts/YunaswapRouter02.sol\":7621:7674  YunaswapLibrary.pairFor(factory, output, path[i + 2]) */\n      tag_284\n        /* \"contracts/YunaswapRouter02.sol\":7645:7652  factory */\n      immutable(\"0x277ab82e5a4641341820a4a2933a62c1de997e42e92548657ae21b3728d580fe\")\n        /* \"contracts/YunaswapRouter02.sol\":7654:7660  output */\n      dup10\n        /* \"contracts/YunaswapRouter02.sol\":7662:7666  path */\n      dup15\n        /* \"contracts/YunaswapRouter02.sol\":7671:7672  2 */\n      0x02\n        /* \"contracts/YunaswapRouter02.sol\":7667:7668  i */\n      dup15\n        /* \"contracts/YunaswapRouter02.sol\":7667:7672  i + 2 */\n      add\n        /* \"contracts/YunaswapRouter02.sol\":7662:7673  path[i + 2] */\n      dup2\n      mload\n      dup2\n      lt\n      tag_285\n      jumpi\n      invalid\n    tag_285:\n      0x20\n      mul\n      0x20\n      add\n      add\n      mload\n        /* \"contracts/YunaswapRouter02.sol\":7621:7644  YunaswapLibrary.pairFor */\n      tag_86\n        /* \"contracts/YunaswapRouter02.sol\":7621:7674  YunaswapLibrary.pairFor(factory, output, path[i + 2]) */\n      jump\t// in\n    tag_284:\n        /* \"contracts/YunaswapRouter02.sol\":7599:7680  i < path.length - 2 ? YunaswapLibrary.pairFor(factory, output, path[i + 2]) : _to */\n    tag_283:\n        /* \"contracts/YunaswapRouter02.sol\":7586:7680  address to = i < path.length - 2 ? YunaswapLibrary.pairFor(factory, output, path[i + 2]) : _to */\n      swap1\n      pop\n        /* \"contracts/YunaswapRouter02.sol\":7694:7698  pair */\n      dup6\n        /* \"contracts/YunaswapRouter02.sol\":7694:7703  pair.swap */\n      0xffffffffffffffffffffffffffffffffffffffff\n      and\n      0x022c0d9f\n        /* \"contracts/YunaswapRouter02.sol\":7704:7714  amount0Out */\n      dup5\n        /* \"contracts/YunaswapRouter02.sol\":7716:7726  amount1Out */\n      dup5\n        /* \"contracts/YunaswapRouter02.sol\":7728:7730  to */\n      dup5\n        /* \"contracts/YunaswapRouter02.sol\":7742:7743  0 */\n      0x00\n        /* \"contracts/YunaswapRouter02.sol\":7732:7744  new bytes(0) */\n      0xffffffffffffffff\n      dup2\n      gt\n        /* \"--CODEGEN--\":5:14   */\n      dup1\n        /* \"--CODEGEN--\":2:4   */\n      iszero\n      tag_286\n      jumpi\n        /* \"--CODEGEN--\":27:28   */\n      0x00\n        /* \"--CODEGEN--\":24:25   */\n      dup1\n        /* \"--CODEGEN--\":17:29   */\n      revert\n        /* \"--CODEGEN--\":2:4   */\n    tag_286:\n        /* \"contracts/YunaswapRouter02.sol\":7732:7744  new bytes(0) */\n      pop\n      mload(0x40)\n      swap1\n      dup1\n      dup3\n      mstore\n      dup1\n      0x1f\n      add\n      not(0x1f)\n      and\n      0x20\n      add\n      dup3\n      add\n      0x40\n      mstore\n      dup1\n      iszero\n      tag_287\n      jumpi\n      dup2\n      0x20\n      add\n        /* \"--CODEGEN--\":29:30   */\n      0x01\n        /* \"--CODEGEN--\":21:27   */\n      dup3\n        /* \"--CODEGEN--\":17:31   */\n      mul\n        /* \"--CODEGEN--\":124:128   */\n      dup1\n        /* \"--CODEGEN--\":108:122   */\n      calldatasize\n        /* \"--CODEGEN--\":100:106   */\n      dup4\n        /* \"--CODEGEN--\":87:129   */\n      calldatacopy\n        /* \"--CODEGEN--\":155:159   */\n      dup1\n        /* \"--CODEGEN--\":147:153   */\n      dup3\n        /* \"--CODEGEN--\":143:160   */\n      add\n        /* \"--CODEGEN--\":133:160   */\n      swap2\n      pop\n        /* \"--CODEGEN--\":0:164   */\n      pop\n        /* \"contracts/YunaswapRouter02.sol\":7732:7744  new bytes(0) */\n      swap1\n      pop\n    tag_287:\n      pop\n        /* \"contracts/YunaswapRouter02.sol\":7694:7745  pair.swap(amount0Out, amount1Out, to, new bytes(0)) */\n      mload(0x40)\n      dup6\n      0xffffffff\n      and\n      0xe0\n      shl\n      dup2\n      mstore\n      0x04\n      add\n      dup1\n      dup6\n      dup2\n      mstore\n      0x20\n      add\n      dup5\n      dup2\n      mstore\n      0x20\n      add\n      dup4\n      0xffffffffffffffffffffffffffffffffffffffff\n      and\n      0xffffffffffffffffffffffffffffffffffffffff\n      and\n      dup2\n      mstore\n      0x20\n      add\n      dup1\n      0x20\n      add\n      dup3\n      dup2\n      sub\n      dup3\n      mstore\n      dup4\n      dup2\n      dup2\n      mload\n      dup2\n      mstore\n      0x20\n      add\n      swap2\n      pop\n      dup1\n      mload\n      swap1\n      0x20\n      add\n      swap1\n      dup1\n      dup4\n      dup4\n        /* \"--CODEGEN--\":23:24   */\n      0x00\n        /* \"--CODEGEN--\":8:108   */\n    tag_288:\n        /* \"--CODEGEN--\":33:36   */\n      dup4\n        /* \"--CODEGEN--\":30:31   */\n      dup2\n        /* \"--CODEGEN--\":27:37   */\n      lt\n        /* \"--CODEGEN--\":8:108   */\n      iszero\n      tag_290\n      jumpi\n        /* \"--CODEGEN--\":99:100   */\n      dup1\n        /* \"--CODEGEN--\":94:97   */\n      dup3\n        /* \"--CODEGEN--\":90:101   */\n      add\n        /* \"--CODEGEN--\":84:102   */\n      mload\n        /* \"--CODEGEN--\":80:81   */\n      dup2\n        /* \"--CODEGEN--\":75:78   */\n      dup5\n        /* \"--CODEGEN--\":71:82   */\n      add\n        /* \"--CODEGEN--\":64:103   */\n      mstore\n        /* \"--CODEGEN--\":52:54   */\n      0x20\n        /* \"--CODEGEN--\":49:50   */\n      dup2\n        /* \"--CODEGEN--\":45:55   */\n      add\n        /* \"--CODEGEN--\":40:55   */\n      swap1\n      pop\n        /* \"--CODEGEN--\":8:108   */\n      jump(tag_288)\n    tag_290:\n        /* \"--CODEGEN--\":12:26   */\n      pop\n        /* \"contracts/YunaswapRouter02.sol\":7694:7745  pair.swap(amount0Out, amount1Out, to, new bytes(0)) */\n      pop\n      pop\n      pop\n      swap1\n      pop\n      swap1\n      dup2\n      add\n      swap1\n      0x1f\n      and\n      dup1\n      iszero\n      tag_291\n      jumpi\n      dup1\n      dup3\n      sub\n      dup1\n      mload\n      0x01\n      dup4\n      0x20\n      sub\n      0x0100\n      exp\n      sub\n      not\n      and\n      dup2\n      mstore\n      0x20\n      add\n      swap2\n      pop\n    tag_291:\n      pop\n      swap6\n      pop\n      pop\n      pop\n      pop\n      pop\n      pop\n      0x00\n      mload(0x40)\n      dup1\n      dup4\n      sub\n      dup2\n      0x00\n      dup8\n      dup1\n      extcodesize\n      iszero\n        /* \"--CODEGEN--\":5:14   */\n      dup1\n        /* \"--CODEGEN--\":2:4   */\n      iszero\n      tag_292\n      jumpi\n        /* \"--CODEGEN--\":27:28   */\n      0x00\n        /* \"--CODEGEN--\":24:25   */\n      dup1\n        /* \"--CODEGEN--\":17:29   */\n      revert\n        /* \"--CODEGEN--\":2:4   */\n    tag_292:\n        /* \"contracts/YunaswapRouter02.sol\":7694:7745  pair.swap(amount0Out, amount1Out, to, new bytes(0)) */\n      pop\n      gas\n      call\n      iszero\n        /* \"--CODEGEN--\":8:17   */\n      dup1\n        /* \"--CODEGEN--\":5:7   */\n      iszero\n      tag_294\n      jumpi\n        /* \"--CODEGEN--\":45:61   */\n      returndatasize\n        /* \"--CODEGEN--\":42:43   */\n      0x00\n        /* \"--CODEGEN--\":39:40   */\n      dup1\n        /* \"--CODEGEN--\":24:62   */\n      returndatacopy\n        /* \"--CODEGEN--\":77:93   */\n      returndatasize\n        /* \"--CODEGEN--\":74:75   */\n      0x00\n        /* \"--CODEGEN--\":67:94   */\n      revert\n        /* \"--CODEGEN--\":5:7   */\n    tag_294:\n        /* \"contracts/YunaswapRouter02.sol\":7694:7745  pair.swap(amount0Out, amount1Out, to, new bytes(0)) */\n      pop\n      pop\n      pop\n      pop\n        /* \"contracts/YunaswapRouter02.sol\":6678:7756  for (uint i; i < path.length - 1; i++) {... */\n      pop\n      pop\n      pop\n      pop\n      pop\n      pop\n      pop\n      pop\n      pop\n        /* \"contracts/YunaswapRouter02.sol\":6712:6715  i++ */\n      dup1\n      dup1\n      0x01\n      add\n      swap2\n      pop\n      pop\n        /* \"contracts/YunaswapRouter02.sol\":6678:7756  for (uint i; i < path.length - 1; i++) {... */\n      jump(tag_261)\n    tag_262:\n      pop\n        /* \"contracts/YunaswapRouter02.sol\":6571:7762  function _swapSupportingFeeOnTransferTokens(address[] memory path, address _to) internal virtual {... */\n      pop\n      pop\n      jump\t// out\n        /* \"contracts/libraries/SafeMath.sol\":321:448  function sub(uint x, uint y) internal pure returns (uint z) {... */\n    tag_130:\n        /* \"contracts/libraries/SafeMath.sol\":373:379  uint z */\n      0x00\n        /* \"contracts/libraries/SafeMath.sol\":414:415  x */\n      dup3\n        /* \"contracts/libraries/SafeMath.sol\":408:409  y */\n      dup3\n        /* \"contracts/libraries/SafeMath.sol\":404:405  x */\n      dup5\n        /* \"contracts/libraries/SafeMath.sol\":404:409  x - y */\n      sub\n        /* \"contracts/libraries/SafeMath.sol\":400:409  z = x - y */\n      swap2\n      pop\n      dup2\n        /* \"contracts/libraries/SafeMath.sol\":399:415  (z = x - y) <= x */\n      gt\n      iszero\n        /* \"contracts/libraries/SafeMath.sol\":391:441  require((z = x - y) <= x, 'ds-math-sub-underflow') */\n      tag_296\n      jumpi\n      mload(0x40)\n      0x08c379a000000000000000000000000000000000000000000000000000000000\n      dup2\n      mstore\n      0x04\n      add\n      dup1\n      dup1\n      0x20\n      add\n      dup3\n      dup2\n      sub\n      dup3\n      mstore\n      0x15\n      dup2\n      mstore\n      0x20\n      add\n      dup1\n      0x64732d6d6174682d7375622d756e646572666c6f770000000000000000000000\n      dup2\n      mstore\n      pop\n      0x20\n      add\n      swap2\n      pop\n      pop\n      mload(0x40)\n      dup1\n      swap2\n      sub\n      swap1\n      revert\n    tag_296:\n        /* \"contracts/libraries/SafeMath.sol\":321:448  function sub(uint x, uint y) internal pure returns (uint z) {... */\n      swap3\n      swap2\n      pop\n      pop\n      jump\t// out\n        /* \"contracts/libraries/YunaswapLibrary.sol\":2810:3274  function getAmountIn(uint amountOut, uint reserveIn, uint reserveOut) internal pure returns (uint amountIn) {... */\n    tag_134:\n        /* \"contracts/libraries/YunaswapLibrary.sol\":2903:2916  uint amountIn */\n      0x00\n        /* \"contracts/libraries/YunaswapLibrary.sol\":2948:2949  0 */\n      dup1\n        /* \"contracts/libraries/YunaswapLibrary.sol\":2936:2945  amountOut */\n      dup5\n        /* \"contracts/libraries/YunaswapLibrary.sol\":2936:2949  amountOut > 0 */\n      gt\n        /* \"contracts/libraries/YunaswapLibrary.sol\":2928:2997  require(amountOut > 0, 'YunaswapLibrary: INSUFFICIENT_OUTPUT_AMOUNT') */\n      tag_298\n      jumpi\n      mload(0x40)\n      0x08c379a000000000000000000000000000000000000000000000000000000000\n      dup2\n      mstore\n      0x04\n      add\n      dup1\n      dup1\n      0x20\n      add\n      dup3\n      dup2\n      sub\n      dup3\n      mstore\n      0x2b\n      dup2\n      mstore\n      0x20\n      add\n      dup1\n      data_cac1c3a8ef8e4fbc11e0003ce5d1db362ba71fbe2197b097f7c212608121c713\n      0x2b\n      swap2\n      codecopy\n      0x40\n      add\n      swap2\n      pop\n      pop\n      mload(0x40)\n      dup1\n      swap2\n      sub\n      swap1\n      revert\n    tag_298:\n        /* \"contracts/libraries/YunaswapLibrary.sol\":3027:3028  0 */\n      0x00\n        /* \"contracts/libraries/YunaswapLibrary.sol\":3015:3024  reserveIn */\n      dup4\n        /* \"contracts/libraries/YunaswapLibrary.sol\":3015:3028  reserveIn > 0 */\n      gt\n        /* \"contracts/libraries/YunaswapLibrary.sol\":3015:3046  reserveIn > 0 && reserveOut > 0 */\n      dup1\n      iszero\n      tag_299\n      jumpi\n      pop\n        /* \"contracts/libraries/YunaswapLibrary.sol\":3045:3046  0 */\n      0x00\n        /* \"contracts/libraries/YunaswapLibrary.sol\":3032:3042  reserveOut */\n      dup3\n        /* \"contracts/libraries/YunaswapLibrary.sol\":3032:3046  reserveOut > 0 */\n      gt\n        /* \"contracts/libraries/YunaswapLibrary.sol\":3015:3046  reserveIn > 0 && reserveOut > 0 */\n    tag_299:\n        /* \"contracts/libraries/YunaswapLibrary.sol\":3007:3090  require(reserveIn > 0 && reserveOut > 0, 'YunaswapLibrary: INSUFFICIENT_LIQUIDITY') */\n      tag_300\n      jumpi\n      mload(0x40)\n      0x08c379a000000000000000000000000000000000000000000000000000000000\n      dup2\n      mstore\n      0x04\n      add\n      dup1\n      dup1\n      0x20\n      add\n      dup3\n      dup2\n      sub\n      dup3\n      mstore\n      0x27\n      dup2\n      mstore\n      0x20\n      add\n      dup1\n      data_f0f0f245b1c61b307be08373f81e0f1c5dfb40c2b8f173e2f66656c099b09068\n      0x27\n      swap2\n      codecopy\n      0x40\n      add\n      swap2\n      pop\n      pop\n      mload(0x40)\n      dup1\n      swap2\n      sub\n      swap1\n      revert\n    tag_300:\n        /* \"contracts/libraries/YunaswapLibrary.sol\":3100:3114  uint numerator */\n      0x00\n        /* \"contracts/libraries/YunaswapLibrary.sol\":3117:3151  reserveIn.mul(amountOut).mul(1000) */\n      tag_301\n        /* \"contracts/libraries/YunaswapLibrary.sol\":3146:3150  1000 */\n      0x03e8\n        /* \"contracts/libraries/YunaswapLibrary.sol\":3117:3141  reserveIn.mul(amountOut) */\n      tag_302\n        /* \"contracts/libraries/YunaswapLibrary.sol\":3131:3140  amountOut */\n      dup8\n        /* \"contracts/libraries/YunaswapLibrary.sol\":3117:3126  reserveIn */\n      dup8\n        /* \"contracts/libraries/YunaswapLibrary.sol\":3117:3130  reserveIn.mul */\n      tag_188\n      swap1\n        /* \"contracts/libraries/YunaswapLibrary.sol\":3117:3141  reserveIn.mul(amountOut) */\n      swap2\n      swap1\n      0xffffffff\n      and\n      jump\t// in\n    tag_302:\n        /* \"contracts/libraries/YunaswapLibrary.sol\":3117:3145  reserveIn.mul(amountOut).mul */\n      tag_188\n      swap1\n        /* \"contracts/libraries/YunaswapLibrary.sol\":3117:3151  reserveIn.mul(amountOut).mul(1000) */\n      swap2\n      swap1\n      0xffffffff\n      and\n      jump\t// in\n    tag_301:\n        /* \"contracts/libraries/YunaswapLibrary.sol\":3100:3151  uint numerator = reserveIn.mul(amountOut).mul(1000) */\n      swap1\n      pop\n        /* \"contracts/libraries/YunaswapLibrary.sol\":3161:3177  uint denominator */\n      0x00\n        /* \"contracts/libraries/YunaswapLibrary.sol\":3180:3214  reserveOut.sub(amountOut).mul(995) */\n      tag_303\n        /* \"contracts/libraries/YunaswapLibrary.sol\":3210:3213  995 */\n      0x03e3\n        /* \"contracts/libraries/YunaswapLibrary.sol\":3180:3205  reserveOut.sub(amountOut) */\n      tag_304\n        /* \"contracts/libraries/YunaswapLibrary.sol\":3195:3204  amountOut */\n      dup9\n        /* \"contracts/libraries/YunaswapLibrary.sol\":3180:3190  reserveOut */\n      dup8\n        /* \"contracts/libraries/YunaswapLibrary.sol\":3180:3194  reserveOut.sub */\n      tag_130\n      swap1\n        /* \"contracts/libraries/YunaswapLibrary.sol\":3180:3205  reserveOut.sub(amountOut) */\n      swap2\n      swap1\n      0xffffffff\n      and\n      jump\t// in\n    tag_304:\n        /* \"contracts/libraries/YunaswapLibrary.sol\":3180:3209  reserveOut.sub(amountOut).mul */\n      tag_188\n      swap1\n        /* \"contracts/libraries/YunaswapLibrary.sol\":3180:3214  reserveOut.sub(amountOut).mul(995) */\n      swap2\n      swap1\n      0xffffffff\n      and\n      jump\t// in\n    tag_303:\n        /* \"contracts/libraries/YunaswapLibrary.sol\":3161:3214  uint denominator = reserveOut.sub(amountOut).mul(995) */\n      swap1\n      pop\n        /* \"contracts/libraries/YunaswapLibrary.sol\":3235:3267  (numerator / denominator).add(1) */\n      tag_305\n        /* \"contracts/libraries/YunaswapLibrary.sol\":3265:3266  1 */\n      0x01\n        /* \"contracts/libraries/YunaswapLibrary.sol\":3248:3259  denominator */\n      dup3\n        /* \"contracts/libraries/YunaswapLibrary.sol\":3236:3245  numerator */\n      dup5\n        /* \"contracts/libraries/YunaswapLibrary.sol\":3236:3259  numerator / denominator */\n      dup2\n      tag_306\n      jumpi\n      invalid\n    tag_306:\n      div\n        /* \"contracts/libraries/YunaswapLibrary.sol\":3235:3264  (numerator / denominator).add */\n      tag_192\n      swap1\n        /* \"contracts/libraries/YunaswapLibrary.sol\":3235:3267  (numerator / denominator).add(1) */\n      swap2\n      swap1\n      0xffffffff\n      and\n      jump\t// in\n    tag_305:\n        /* \"contracts/libraries/YunaswapLibrary.sol\":3224:3267  amountIn = (numerator / denominator).add(1) */\n      swap3\n      pop\n        /* \"contracts/libraries/YunaswapLibrary.sol\":2810:3274  function getAmountIn(uint amountOut, uint reserveIn, uint reserveOut) internal pure returns (uint amountIn) {... */\n      pop\n      pop\n      swap4\n      swap3\n      pop\n      pop\n      pop\n      jump\t// out\n        /* \"contracts/libraries/YunaswapLibrary.sol\":1750:2065  function quote(uint amountA, uint reserveA, uint reserveB) internal pure returns (uint amountB) {... */\n    tag_150:\n        /* \"contracts/libraries/YunaswapLibrary.sol\":1832:1844  uint amountB */\n      0x00\n        /* \"contracts/libraries/YunaswapLibrary.sol\":1874:1875  0 */\n      dup1\n        /* \"contracts/libraries/YunaswapLibrary.sol\":1864:1871  amountA */\n      dup5\n        /* \"contracts/libraries/YunaswapLibrary.sol\":1864:1875  amountA > 0 */\n      gt\n        /* \"contracts/libraries/YunaswapLibrary.sol\":1856:1916  require(amountA > 0, 'YunaswapLibrary: INSUFFICIENT_AMOUNT') */\n      tag_308\n      jumpi\n      mload(0x40)\n      0x08c379a000000000000000000000000000000000000000000000000000000000\n      dup2\n      mstore\n      0x04\n      add\n      dup1\n      dup1\n      0x20\n      add\n      dup3\n      dup2\n      sub\n      dup3\n      mstore\n      0x24\n      dup2\n      mstore\n      0x20\n      add\n      dup1\n      data_2d008cd521e4c76cd4f012e80509fea9c3007b96e5cec660a682588aaf1fcf85\n      0x24\n      swap2\n      codecopy\n      0x40\n      add\n      swap2\n      pop\n      pop\n      mload(0x40)\n      dup1\n      swap2\n      sub\n      swap1\n      revert\n    tag_308:\n        /* \"contracts/libraries/YunaswapLibrary.sol\":1945:1946  0 */\n      0x00\n        /* \"contracts/libraries/YunaswapLibrary.sol\":1934:1942  reserveA */\n      dup4\n        /* \"contracts/libraries/YunaswapLibrary.sol\":1934:1946  reserveA > 0 */\n      gt\n        /* \"contracts/libraries/YunaswapLibrary.sol\":1934:1962  reserveA > 0 && reserveB > 0 */\n      dup1\n      iszero\n      tag_309\n      jumpi\n      pop\n        /* \"contracts/libraries/YunaswapLibrary.sol\":1961:1962  0 */\n      0x00\n        /* \"contracts/libraries/YunaswapLibrary.sol\":1950:1958  reserveB */\n      dup3\n        /* \"contracts/libraries/YunaswapLibrary.sol\":1950:1962  reserveB > 0 */\n      gt\n        /* \"contracts/libraries/YunaswapLibrary.sol\":1934:1962  reserveA > 0 && reserveB > 0 */\n    tag_309:\n        /* \"contracts/libraries/YunaswapLibrary.sol\":1926:2006  require(reserveA > 0 && reserveB > 0, 'YunaswapLibrary: INSUFFICIENT_LIQUIDITY') */\n      tag_310\n      jumpi\n      mload(0x40)\n      0x08c379a000000000000000000000000000000000000000000000000000000000\n      dup2\n      mstore\n      0x04\n      add\n      dup1\n      dup1\n      0x20\n      add\n      dup3\n      dup2\n      sub\n      dup3\n      mstore\n      0x27\n      dup2\n      mstore\n      0x20\n      add\n      dup1\n      data_f0f0f245b1c61b307be08373f81e0f1c5dfb40c2b8f173e2f66656c099b09068\n      0x27\n      swap2\n      codecopy\n      0x40\n      add\n      swap2\n      pop\n      pop\n      mload(0x40)\n      dup1\n      swap2\n      sub\n      swap1\n      revert\n    tag_310:\n        /* \"contracts/libraries/YunaswapLibrary.sol\":2050:2058  reserveA */\n      dup3\n        /* \"contracts/libraries/YunaswapLibrary.sol\":2026:2047  amountA.mul(reserveB) */\n      tag_311\n        /* \"contracts/libraries/YunaswapLibrary.sol\":2038:2046  reserveB */\n      dup4\n        /* \"contracts/libraries/YunaswapLibrary.sol\":2026:2033  amountA */\n      dup7\n        /* \"contracts/libraries/YunaswapLibrary.sol\":2026:2037  amountA.mul */\n      tag_188\n      swap1\n        /* \"contracts/libraries/YunaswapLibrary.sol\":2026:2047  amountA.mul(reserveB) */\n      swap2\n      swap1\n      0xffffffff\n      and\n      jump\t// in\n    tag_311:\n        /* \"contracts/libraries/YunaswapLibrary.sol\":2026:2058  amountA.mul(reserveB) / reserveA */\n      dup2\n      tag_312\n      jumpi\n      invalid\n    tag_312:\n      div\n        /* \"contracts/libraries/YunaswapLibrary.sol\":2016:2058  amountB = amountA.mul(reserveB) / reserveA */\n      swap1\n      pop\n        /* \"contracts/libraries/YunaswapLibrary.sol\":1750:2065  function quote(uint amountA, uint reserveA, uint reserveB) internal pure returns (uint amountB) {... */\n      swap4\n      swap3\n      pop\n      pop\n      pop\n      jump\t// out\n        /* \"contracts/libraries/YunaswapLibrary.sol\":288:631  function sortTokens(address tokenA, address tokenB) internal pure returns (address token0, address token1) {... */\n    tag_164:\n        /* \"contracts/libraries/YunaswapLibrary.sol\":363:377  address token0 */\n      0x00\n        /* \"contracts/libraries/YunaswapLibrary.sol\":379:393  address token1 */\n      dup1\n        /* \"contracts/libraries/YunaswapLibrary.sol\":423:429  tokenB */\n      dup3\n        /* \"contracts/libraries/YunaswapLibrary.sol\":413:429  tokenA != tokenB */\n      0xffffffffffffffffffffffffffffffffffffffff\n      and\n        /* \"contracts/libraries/YunaswapLibrary.sol\":413:419  tokenA */\n      dup5\n        /* \"contracts/libraries/YunaswapLibrary.sol\":413:429  tokenA != tokenB */\n      0xffffffffffffffffffffffffffffffffffffffff\n      and\n      eq\n      iszero\n        /* \"contracts/libraries/YunaswapLibrary.sol\":405:470  require(tokenA != tokenB, 'YunaswapLibrary: IDENTICAL_ADDRESSES') */\n      tag_314\n      jumpi\n      mload(0x40)\n      0x08c379a000000000000000000000000000000000000000000000000000000000\n      dup2\n      mstore\n      0x04\n      add\n      dup1\n      dup1\n      0x20\n      add\n      dup3\n      dup2\n      sub\n      dup3\n      mstore\n      0x24\n      dup2\n      mstore\n      0x20\n      add\n      dup1\n      data_bb9fcd3a06474c9262e3ddf5782162d399801cc9eb9ba7ffee3afb96d33fc4de\n      0x24\n      swap2\n      codecopy\n      0x40\n      add\n      swap2\n      pop\n      pop\n      mload(0x40)\n      dup1\n      swap2\n      sub\n      swap1\n      revert\n    tag_314:\n        /* \"contracts/libraries/YunaswapLibrary.sol\":508:514  tokenB */\n      dup3\n        /* \"contracts/libraries/YunaswapLibrary.sol\":499:514  tokenA < tokenB */\n      0xffffffffffffffffffffffffffffffffffffffff\n      and\n        /* \"contracts/libraries/YunaswapLibrary.sol\":499:505  tokenA */\n      dup5\n        /* \"contracts/libraries/YunaswapLibrary.sol\":499:514  tokenA < tokenB */\n      0xffffffffffffffffffffffffffffffffffffffff\n      and\n      lt\n        /* \"contracts/libraries/YunaswapLibrary.sol\":499:552  tokenA < tokenB ? (tokenA, tokenB) : (tokenB, tokenA) */\n      tag_315\n      jumpi\n        /* \"contracts/libraries/YunaswapLibrary.sol\":537:543  tokenB */\n      dup3\n        /* \"contracts/libraries/YunaswapLibrary.sol\":545:551  tokenA */\n      dup5\n        /* \"contracts/libraries/YunaswapLibrary.sol\":499:552  tokenA < tokenB ? (tokenA, tokenB) : (tokenB, tokenA) */\n      jump(tag_316)\n    tag_315:\n        /* \"contracts/libraries/YunaswapLibrary.sol\":518:524  tokenA */\n      dup4\n        /* \"contracts/libraries/YunaswapLibrary.sol\":526:532  tokenB */\n      dup4\n        /* \"contracts/libraries/YunaswapLibrary.sol\":499:552  tokenA < tokenB ? (tokenA, tokenB) : (tokenB, tokenA) */\n    tag_316:\n        /* \"contracts/libraries/YunaswapLibrary.sol\":480:552  (token0, token1) = tokenA < tokenB ? (tokenA, tokenB) : (tokenB, tokenA) */\n      dup1\n      swap3\n      pop\n      dup2\n      swap4\n      pop\n      pop\n      pop\n        /* \"contracts/libraries/YunaswapLibrary.sol\":588:589  0 */\n      0x00\n        /* \"contracts/libraries/YunaswapLibrary.sol\":570:590  token0 != address(0) */\n      0xffffffffffffffffffffffffffffffffffffffff\n      and\n        /* \"contracts/libraries/YunaswapLibrary.sol\":570:576  token0 */\n      dup3\n        /* \"contracts/libraries/YunaswapLibrary.sol\":570:590  token0 != address(0) */\n      0xffffffffffffffffffffffffffffffffffffffff\n      and\n      eq\n      iszero\n        /* \"contracts/libraries/YunaswapLibrary.sol\":562:624  require(token0 != address(0), 'YunaswapLibrary: ZERO_ADDRESS') */\n      tag_317\n      jumpi\n      mload(0x40)\n      0x08c379a000000000000000000000000000000000000000000000000000000000\n      dup2\n      mstore\n      0x04\n      add\n      dup1\n      dup1\n      0x20\n      add\n      dup3\n      dup2\n      sub\n      dup3\n      mstore\n      0x1d\n      dup2\n      mstore\n      0x20\n      add\n      dup1\n      0x59756e61737761704c6962726172793a205a45524f5f41444452455353000000\n      dup2\n      mstore\n      pop\n      0x20\n      add\n      swap2\n      pop\n      pop\n      mload(0x40)\n      dup1\n      swap2\n      sub\n      swap1\n      revert\n    tag_317:\n        /* \"contracts/libraries/YunaswapLibrary.sol\":288:631  function sortTokens(address tokenA, address tokenB) internal pure returns (address token0, address token1) {... */\n      swap3\n      pop\n      swap3\n      swap1\n      pop\n      jump\t// out\n        /* \"contracts/YunaswapRouter02.sol\":668:2024  function _addLiquidity(... */\n    tag_175:\n        /* \"contracts/YunaswapRouter02.sol\":879:891  uint amountA */\n      0x00\n        /* \"contracts/YunaswapRouter02.sol\":893:905  uint amountB */\n      dup1\n        /* \"contracts/YunaswapRouter02.sol\":1033:1034  0 */\n      0x00\n        /* \"contracts/YunaswapRouter02.sol\":972:1035  IYunaswapFactory(factory).getPair(tokenA, tokenB) == address(0) */\n      0xffffffffffffffffffffffffffffffffffffffff\n      and\n        /* \"contracts/YunaswapRouter02.sol\":989:996  factory */\n      immutable(\"0x277ab82e5a4641341820a4a2933a62c1de997e42e92548657ae21b3728d580fe\")\n        /* \"contracts/YunaswapRouter02.sol\":972:1005  IYunaswapFactory(factory).getPair */\n      0xffffffffffffffffffffffffffffffffffffffff\n      and\n      0xe6a43905\n        /* \"contracts/YunaswapRouter02.sol\":1006:1012  tokenA */\n      dup11\n        /* \"contracts/YunaswapRouter02.sol\":1014:1020  tokenB */\n      dup11\n        /* \"contracts/YunaswapRouter02.sol\":972:1021  IYunaswapFactory(factory).getPair(tokenA, tokenB) */\n      mload(0x40)\n      dup4\n      0xffffffff\n      and\n      0xe0\n      shl\n      dup2\n      mstore\n      0x04\n      add\n      dup1\n      dup4\n      0xffffffffffffffffffffffffffffffffffffffff\n      and\n      0xffffffffffffffffffffffffffffffffffffffff\n      and\n      dup2\n      mstore\n      0x20\n      add\n      dup3\n      0xffffffffffffffffffffffffffffffffffffffff\n      and\n      0xffffffffffffffffffffffffffffffffffffffff\n      and\n      dup2\n      mstore\n      0x20\n      add\n      swap3\n      pop\n      pop\n      pop\n      0x20\n      mload(0x40)\n      dup1\n      dup4\n      sub\n      dup2\n      dup7\n      dup1\n      extcodesize\n      iszero\n        /* \"--CODEGEN--\":5:14   */\n      dup1\n        /* \"--CODEGEN--\":2:4   */\n      iszero\n      tag_319\n      jumpi\n        /* \"--CODEGEN--\":27:28   */\n      0x00\n        /* \"--CODEGEN--\":24:25   */\n      dup1\n        /* \"--CODEGEN--\":17:29   */\n      revert\n        /* \"--CODEGEN--\":2:4   */\n    tag_319:\n        /* \"contracts/YunaswapRouter02.sol\":972:1021  IYunaswapFactory(factory).getPair(tokenA, tokenB) */\n      pop\n      gas\n      staticcall\n      iszero\n        /* \"--CODEGEN--\":8:17   */\n      dup1\n        /* \"--CODEGEN--\":5:7   */\n      iszero\n      tag_321\n      jumpi\n        /* \"--CODEGEN--\":45:61   */\n      returndatasize\n        /* \"--CODEGEN--\":42:43   */\n      0x00\n        /* \"--CODEGEN--\":39:40   */\n      dup1\n        /* \"--CODEGEN--\":24:62   */\n      returndatacopy\n        /* \"--CODEGEN--\":77:93   */\n      returndatasize\n        /* \"--CODEGEN--\":74:75   */\n      0x00\n        /* \"--CODEGEN--\":67:94   */\n      revert\n        /* \"--CODEGEN--\":5:7   */\n    tag_321:\n        /* \"contracts/YunaswapRouter02.sol\":972:1021  IYunaswapFactory(factory).getPair(tokenA, tokenB) */\n      pop\n      pop\n      pop\n      pop\n      mload(0x40)\n      returndatasize\n        /* \"--CODEGEN--\":15:17   */\n      0x20\n        /* \"--CODEGEN--\":10:13   */\n      dup2\n        /* \"--CODEGEN--\":7:18   */\n      lt\n        /* \"--CODEGEN--\":4:6   */\n      iszero\n      tag_322\n      jumpi\n        /* \"--CODEGEN--\":31:32   */\n      0x00\n        /* \"--CODEGEN--\":28:29   */\n      dup1\n        /* \"--CODEGEN--\":21:33   */\n      revert\n        /* \"--CODEGEN--\":4:6   */\n    tag_322:\n        /* \"contracts/YunaswapRouter02.sol\":972:1021  IYunaswapFactory(factory).getPair(tokenA, tokenB) */\n      dup2\n      add\n      swap1\n      dup1\n      dup1\n      mload\n      swap1\n      0x20\n      add\n      swap1\n      swap3\n      swap2\n      swap1\n      pop\n      pop\n      pop\n        /* \"contracts/YunaswapRouter02.sol\":972:1035  IYunaswapFactory(factory).getPair(tokenA, tokenB) == address(0) */\n      0xffffffffffffffffffffffffffffffffffffffff\n      and\n      eq\n        /* \"contracts/YunaswapRouter02.sol\":968:1114  if (IYunaswapFactory(factory).getPair(tokenA, tokenB) == address(0)) {... */\n      iszero\n      tag_323\n      jumpi\n        /* \"contracts/YunaswapRouter02.sol\":1068:1075  factory */\n      immutable(\"0x277ab82e5a4641341820a4a2933a62c1de997e42e92548657ae21b3728d580fe\")\n        /* \"contracts/YunaswapRouter02.sol\":1051:1087  IYunaswapFactory(factory).createPair */\n      0xffffffffffffffffffffffffffffffffffffffff\n      and\n      0xc9c65396\n        /* \"contracts/YunaswapRouter02.sol\":1088:1094  tokenA */\n      dup10\n        /* \"contracts/YunaswapRouter02.sol\":1096:1102  tokenB */\n      dup10\n        /* \"contracts/YunaswapRouter02.sol\":1051:1103  IYunaswapFactory(factory).createPair(tokenA, tokenB) */\n      mload(0x40)\n      dup4\n      0xffffffff\n      and\n      0xe0\n      shl\n      dup2\n      mstore\n      0x04\n      add\n      dup1\n      dup4\n      0xffffffffffffffffffffffffffffffffffffffff\n      and\n      0xffffffffffffffffffffffffffffffffffffffff\n      and\n      dup2\n      mstore\n      0x20\n      add\n      dup3\n      0xffffffffffffffffffffffffffffffffffffffff\n      and\n      0xffffffffffffffffffffffffffffffffffffffff\n      and\n      dup2\n      mstore\n      0x20\n      add\n      swap3\n      pop\n      pop\n      pop\n      0x20\n      mload(0x40)\n      dup1\n      dup4\n      sub\n      dup2\n      0x00\n      dup8\n      dup1\n      extcodesize\n      iszero\n        /* \"--CODEGEN--\":5:14   */\n      dup1\n        /* \"--CODEGEN--\":2:4   */\n      iszero\n      tag_324\n      jumpi\n        /* \"--CODEGEN--\":27:28   */\n      0x00\n        /* \"--CODEGEN--\":24:25   */\n      dup1\n        /* \"--CODEGEN--\":17:29   */\n      revert\n        /* \"--CODEGEN--\":2:4   */\n    tag_324:\n        /* \"contracts/YunaswapRouter02.sol\":1051:1103  IYunaswapFactory(factory).createPair(tokenA, tokenB) */\n      pop\n      gas\n      call\n      iszero\n        /* \"--CODEGEN--\":8:17   */\n      dup1\n        /* \"--CODEGEN--\":5:7   */\n      iszero\n      tag_326\n      jumpi\n        /* \"--CODEGEN--\":45:61   */\n      returndatasize\n        /* \"--CODEGEN--\":42:43   */\n      0x00\n        /* \"--CODEGEN--\":39:40   */\n      dup1\n        /* \"--CODEGEN--\":24:62   */\n      returndatacopy\n        /* \"--CODEGEN--\":77:93   */\n      returndatasize\n        /* \"--CODEGEN--\":74:75   */\n      0x00\n        /* \"--CODEGEN--\":67:94   */\n      revert\n        /* \"--CODEGEN--\":5:7   */\n    tag_326:\n        /* \"contracts/YunaswapRouter02.sol\":1051:1103  IYunaswapFactory(factory).createPair(tokenA, tokenB) */\n      pop\n      pop\n      pop\n      pop\n      mload(0x40)\n      returndatasize\n        /* \"--CODEGEN--\":15:17   */\n      0x20\n        /* \"--CODEGEN--\":10:13   */\n      dup2\n        /* \"--CODEGEN--\":7:18   */\n      lt\n        /* \"--CODEGEN--\":4:6   */\n      iszero\n      tag_327\n      jumpi\n        /* \"--CODEGEN--\":31:32   */\n      0x00\n        /* \"--CODEGEN--\":28:29   */\n      dup1\n        /* \"--CODEGEN--\":21:33   */\n      revert\n        /* \"--CODEGEN--\":4:6   */\n    tag_327:\n        /* \"contracts/YunaswapRouter02.sol\":1051:1103  IYunaswapFactory(factory).createPair(tokenA, tokenB) */\n      dup2\n      add\n      swap1\n      dup1\n      dup1\n      mload\n      swap1\n      0x20\n      add\n      swap1\n      swap3\n      swap2\n      swap1\n      pop\n      pop\n      pop\n      pop\n        /* \"contracts/YunaswapRouter02.sol\":968:1114  if (IYunaswapFactory(factory).getPair(tokenA, tokenB) == address(0)) {... */\n    tag_323:\n        /* \"contracts/YunaswapRouter02.sol\":1124:1137  uint reserveA */\n      0x00\n        /* \"contracts/YunaswapRouter02.sol\":1139:1152  uint reserveB */\n      dup1\n        /* \"contracts/YunaswapRouter02.sol\":1156:1208  YunaswapLibrary.getReserves(factory, tokenA, tokenB) */\n      tag_328\n        /* \"contracts/YunaswapRouter02.sol\":1184:1191  factory */\n      immutable(\"0x277ab82e5a4641341820a4a2933a62c1de997e42e92548657ae21b3728d580fe\")\n        /* \"contracts/YunaswapRouter02.sol\":1193:1199  tokenA */\n      dup12\n        /* \"contracts/YunaswapRouter02.sol\":1201:1207  tokenB */\n      dup12\n        /* \"contracts/YunaswapRouter02.sol\":1156:1183  YunaswapLibrary.getReserves */\n      tag_205\n        /* \"contracts/YunaswapRouter02.sol\":1156:1208  YunaswapLibrary.getReserves(factory, tokenA, tokenB) */\n      jump\t// in\n    tag_328:\n        /* \"contracts/YunaswapRouter02.sol\":1123:1208  (uint reserveA, uint reserveB) = YunaswapLibrary.getReserves(factory, tokenA, tokenB) */\n      swap2\n      pop\n      swap2\n      pop\n        /* \"contracts/YunaswapRouter02.sol\":1234:1235  0 */\n      0x00\n        /* \"contracts/YunaswapRouter02.sol\":1222:1230  reserveA */\n      dup3\n        /* \"contracts/YunaswapRouter02.sol\":1222:1235  reserveA == 0 */\n      eq\n        /* \"contracts/YunaswapRouter02.sol\":1222:1252  reserveA == 0 && reserveB == 0 */\n      dup1\n      iszero\n      tag_329\n      jumpi\n      pop\n        /* \"contracts/YunaswapRouter02.sol\":1251:1252  0 */\n      0x00\n        /* \"contracts/YunaswapRouter02.sol\":1239:1247  reserveB */\n      dup2\n        /* \"contracts/YunaswapRouter02.sol\":1239:1252  reserveB == 0 */\n      eq\n        /* \"contracts/YunaswapRouter02.sol\":1222:1252  reserveA == 0 && reserveB == 0 */\n    tag_329:\n        /* \"contracts/YunaswapRouter02.sol\":1218:2018  if (reserveA == 0 && reserveB == 0) {... */\n      iszero\n      tag_330\n      jumpi\n        /* \"contracts/YunaswapRouter02.sol\":1290:1304  amountADesired */\n      dup8\n        /* \"contracts/YunaswapRouter02.sol\":1306:1320  amountBDesired */\n      dup8\n        /* \"contracts/YunaswapRouter02.sol\":1268:1321  (amountA, amountB) = (amountADesired, amountBDesired) */\n      dup1\n      swap5\n      pop\n      dup2\n      swap6\n      pop\n      pop\n      pop\n        /* \"contracts/YunaswapRouter02.sol\":1218:2018  if (reserveA == 0 && reserveB == 0) {... */\n      jump(tag_331)\n    tag_330:\n        /* \"contracts/YunaswapRouter02.sol\":1352:1371  uint amountBOptimal */\n      0x00\n        /* \"contracts/YunaswapRouter02.sol\":1374:1431  YunaswapLibrary.quote(amountADesired, reserveA, reserveB) */\n      tag_332\n        /* \"contracts/YunaswapRouter02.sol\":1396:1410  amountADesired */\n      dup10\n        /* \"contracts/YunaswapRouter02.sol\":1412:1420  reserveA */\n      dup5\n        /* \"contracts/YunaswapRouter02.sol\":1422:1430  reserveB */\n      dup5\n        /* \"contracts/YunaswapRouter02.sol\":1374:1395  YunaswapLibrary.quote */\n      tag_150\n        /* \"contracts/YunaswapRouter02.sol\":1374:1431  YunaswapLibrary.quote(amountADesired, reserveA, reserveB) */\n      jump\t// in\n    tag_332:\n        /* \"contracts/YunaswapRouter02.sol\":1352:1431  uint amountBOptimal = YunaswapLibrary.quote(amountADesired, reserveA, reserveB) */\n      swap1\n      pop\n        /* \"contracts/YunaswapRouter02.sol\":1467:1481  amountBDesired */\n      dup8\n        /* \"contracts/YunaswapRouter02.sol\":1449:1463  amountBOptimal */\n      dup2\n        /* \"contracts/YunaswapRouter02.sol\":1449:1481  amountBOptimal <= amountBDesired */\n      gt\n        /* \"contracts/YunaswapRouter02.sol\":1445:2008  if (amountBOptimal <= amountBDesired) {... */\n      tag_333\n      jumpi\n        /* \"contracts/YunaswapRouter02.sol\":1527:1537  amountBMin */\n      dup6\n        /* \"contracts/YunaswapRouter02.sol\":1509:1523  amountBOptimal */\n      dup2\n        /* \"contracts/YunaswapRouter02.sol\":1509:1537  amountBOptimal >= amountBMin */\n      lt\n      iszero\n        /* \"contracts/YunaswapRouter02.sol\":1501:1579  require(amountBOptimal >= amountBMin, 'YunaswapRouter: INSUFFICIENT_B_AMOUNT') */\n      tag_334\n      jumpi\n      mload(0x40)\n      0x08c379a000000000000000000000000000000000000000000000000000000000\n      dup2\n      mstore\n      0x04\n      add\n      dup1\n      dup1\n      0x20\n      add\n      dup3\n      dup2\n      sub\n      dup3\n      mstore\n      0x25\n      dup2\n      mstore\n      0x20\n      add\n      dup1\n      data_62b7cb4f1b61c6dd60ba7dbcb48459b1fab0134958404b2a5626ea8183a0fa99\n      0x25\n      swap2\n      codecopy\n      0x40\n      add\n      swap2\n      pop\n      pop\n      mload(0x40)\n      dup1\n      swap2\n      sub\n      swap1\n      revert\n    tag_334:\n        /* \"contracts/YunaswapRouter02.sol\":1619:1633  amountADesired */\n      dup9\n        /* \"contracts/YunaswapRouter02.sol\":1635:1649  amountBOptimal */\n      dup2\n        /* \"contracts/YunaswapRouter02.sol\":1597:1650  (amountA, amountB) = (amountADesired, amountBOptimal) */\n      dup1\n      swap6\n      pop\n      dup2\n      swap7\n      pop\n      pop\n      pop\n        /* \"contracts/YunaswapRouter02.sol\":1445:2008  if (amountBOptimal <= amountBDesired) {... */\n      jump(tag_335)\n    tag_333:\n        /* \"contracts/YunaswapRouter02.sol\":1689:1708  uint amountAOptimal */\n      0x00\n        /* \"contracts/YunaswapRouter02.sol\":1711:1768  YunaswapLibrary.quote(amountBDesired, reserveB, reserveA) */\n      tag_336\n        /* \"contracts/YunaswapRouter02.sol\":1733:1747  amountBDesired */\n      dup10\n        /* \"contracts/YunaswapRouter02.sol\":1749:1757  reserveB */\n      dup5\n        /* \"contracts/YunaswapRouter02.sol\":1759:1767  reserveA */\n      dup7\n        /* \"contracts/YunaswapRouter02.sol\":1711:1732  YunaswapLibrary.quote */\n      tag_150\n        /* \"contracts/YunaswapRouter02.sol\":1711:1768  YunaswapLibrary.quote(amountBDesired, reserveB, reserveA) */\n      jump\t// in\n    tag_336:\n        /* \"contracts/YunaswapRouter02.sol\":1689:1768  uint amountAOptimal = YunaswapLibrary.quote(amountBDesired, reserveB, reserveA) */\n      swap1\n      pop\n        /* \"contracts/YunaswapRouter02.sol\":1811:1825  amountADesired */\n      dup10\n        /* \"contracts/YunaswapRouter02.sol\":1793:1807  amountAOptimal */\n      dup2\n        /* \"contracts/YunaswapRouter02.sol\":1793:1825  amountAOptimal <= amountADesired */\n      gt\n      iszero\n        /* \"contracts/YunaswapRouter02.sol\":1786:1826  assert(amountAOptimal <= amountADesired) */\n      tag_337\n      jumpi\n      invalid\n    tag_337:\n        /* \"contracts/YunaswapRouter02.sol\":1870:1880  amountAMin */\n      dup8\n        /* \"contracts/YunaswapRouter02.sol\":1852:1866  amountAOptimal */\n      dup2\n        /* \"contracts/YunaswapRouter02.sol\":1852:1880  amountAOptimal >= amountAMin */\n      lt\n      iszero\n        /* \"contracts/YunaswapRouter02.sol\":1844:1922  require(amountAOptimal >= amountAMin, 'YunaswapRouter: INSUFFICIENT_A_AMOUNT') */\n      tag_338\n      jumpi\n      mload(0x40)\n      0x08c379a000000000000000000000000000000000000000000000000000000000\n      dup2\n      mstore\n      0x04\n      add\n      dup1\n      dup1\n      0x20\n      add\n      dup3\n      dup2\n      sub\n      dup3\n      mstore\n      0x25\n      dup2\n      mstore\n      0x20\n      add\n      dup1\n      data_bfded32f95d2da3e0b255a8dd2ae1951c13ac0bfbe81e418d806e494f1b9c274\n      0x25\n      swap2\n      codecopy\n      0x40\n      add\n      swap2\n      pop\n      pop\n      mload(0x40)\n      dup1\n      swap2\n      sub\n      swap1\n      revert\n    tag_338:\n        /* \"contracts/YunaswapRouter02.sol\":1962:1976  amountAOptimal */\n      dup1\n        /* \"contracts/YunaswapRouter02.sol\":1978:1992  amountBDesired */\n      dup10\n        /* \"contracts/YunaswapRouter02.sol\":1940:1993  (amountA, amountB) = (amountAOptimal, amountBDesired) */\n      dup1\n      swap7\n      pop\n      dup2\n      swap8\n      pop\n      pop\n      pop\n        /* \"contracts/YunaswapRouter02.sol\":1445:2008  if (amountBOptimal <= amountBDesired) {... */\n      pop\n    tag_335:\n        /* \"contracts/YunaswapRouter02.sol\":1218:2018  if (reserveA == 0 && reserveB == 0) {... */\n      pop\n    tag_331:\n        /* \"contracts/YunaswapRouter02.sol\":668:2024  function _addLiquidity(... */\n      pop\n      pop\n      swap7\n      pop\n      swap7\n      swap5\n      pop\n      pop\n      pop\n      pop\n      pop\n      jump\t// out\n        /* \"contracts/libraries/SafeMath.sol\":454:594  function mul(uint x, uint y) internal pure returns (uint z) {... */\n    tag_188:\n        /* \"contracts/libraries/SafeMath.sol\":506:512  uint z */\n      0x00\n        /* \"contracts/libraries/SafeMath.sol\":537:538  0 */\n      dup1\n        /* \"contracts/libraries/SafeMath.sol\":532:533  y */\n      dup3\n        /* \"contracts/libraries/SafeMath.sol\":532:538  y == 0 */\n      eq\n        /* \"contracts/libraries/SafeMath.sol\":532:562  y == 0 || (z = x * y) / y == x */\n      dup1\n      tag_340\n      jumpi\n      pop\n        /* \"contracts/libraries/SafeMath.sol\":561:562  x */\n      dup3\n        /* \"contracts/libraries/SafeMath.sol\":556:557  y */\n      dup3\n        /* \"contracts/libraries/SafeMath.sol\":551:552  y */\n      dup4\n        /* \"contracts/libraries/SafeMath.sol\":547:548  x */\n      dup6\n        /* \"contracts/libraries/SafeMath.sol\":547:552  x * y */\n      mul\n        /* \"contracts/libraries/SafeMath.sol\":543:552  z = x * y */\n      swap3\n      pop\n      dup3\n        /* \"contracts/libraries/SafeMath.sol\":542:557  (z = x * y) / y */\n      dup2\n      tag_341\n      jumpi\n      invalid\n    tag_341:\n      div\n        /* \"contracts/libraries/SafeMath.sol\":542:562  (z = x * y) / y == x */\n      eq\n        /* \"contracts/libraries/SafeMath.sol\":532:562  y == 0 || (z = x * y) / y == x */\n    tag_340:\n        /* \"contracts/libraries/SafeMath.sol\":524:587  require(y == 0 || (z = x * y) / y == x, 'ds-math-mul-overflow') */\n      tag_342\n      jumpi\n      mload(0x40)\n      0x08c379a000000000000000000000000000000000000000000000000000000000\n      dup2\n      mstore\n      0x04\n      add\n      dup1\n      dup1\n      0x20\n      add\n      dup3\n      dup2\n      sub\n      dup3\n      mstore\n      0x14\n      dup2\n      mstore\n      0x20\n      add\n      dup1\n      0x64732d6d6174682d6d756c2d6f766572666c6f77000000000000000000000000\n      dup2\n      mstore\n      pop\n      0x20\n      add\n      swap2\n      pop\n      pop\n      mload(0x40)\n      dup1\n      swap2\n      sub\n      swap1\n      revert\n    tag_342:\n        /* \"contracts/libraries/SafeMath.sol\":454:594  function mul(uint x, uint y) internal pure returns (uint z) {... */\n      swap3\n      swap2\n      pop\n      pop\n      jump\t// out\n        /* \"contracts/libraries/SafeMath.sol\":189:315  function add(uint x, uint y) internal pure returns (uint z) {... */\n    tag_192:\n        /* \"contracts/libraries/SafeMath.sol\":241:247  uint z */\n      0x00\n        /* \"contracts/libraries/SafeMath.sol\":282:283  x */\n      dup3\n        /* \"contracts/libraries/SafeMath.sol\":276:277  y */\n      dup3\n        /* \"contracts/libraries/SafeMath.sol\":272:273  x */\n      dup5\n        /* \"contracts/libraries/SafeMath.sol\":272:277  x + y */\n      add\n        /* \"contracts/libraries/SafeMath.sol\":268:277  z = x + y */\n      swap2\n      pop\n      dup2\n        /* \"contracts/libraries/SafeMath.sol\":267:283  (z = x + y) >= x */\n      lt\n      iszero\n        /* \"contracts/libraries/SafeMath.sol\":259:308  require((z = x + y) >= x, 'ds-math-add-overflow') */\n      tag_344\n      jumpi\n      mload(0x40)\n      0x08c379a000000000000000000000000000000000000000000000000000000000\n      dup2\n      mstore\n      0x04\n      add\n      dup1\n      dup1\n      0x20\n      add\n      dup3\n      dup2\n      sub\n      dup3\n      mstore\n      0x14\n      dup2\n      mstore\n      0x20\n      add\n      dup1\n      0x64732d6d6174682d6164642d6f766572666c6f77000000000000000000000000\n      dup2\n      mstore\n      pop\n      0x20\n      add\n      swap2\n      pop\n      pop\n      mload(0x40)\n      dup1\n      swap2\n      sub\n      swap1\n      revert\n    tag_344:\n        /* \"contracts/libraries/SafeMath.sol\":189:315  function add(uint x, uint y) internal pure returns (uint z) {... */\n      swap3\n      swap2\n      pop\n      pop\n      jump\t// out\n        /* \"contracts/libraries/YunaswapLibrary.sol\":1254:1640  function getReserves(address factory, address tokenA, address tokenB) internal view returns (uint reserveA, uint reserveB) {... */\n    tag_205:\n        /* \"contracts/libraries/YunaswapLibrary.sol\":1347:1360  uint reserveA */\n      0x00\n        /* \"contracts/libraries/YunaswapLibrary.sol\":1362:1375  uint reserveB */\n      dup1\n        /* \"contracts/libraries/YunaswapLibrary.sol\":1388:1402  address token0 */\n      0x00\n        /* \"contracts/libraries/YunaswapLibrary.sol\":1407:1433  sortTokens(tokenA, tokenB) */\n      tag_346\n        /* \"contracts/libraries/YunaswapLibrary.sol\":1418:1424  tokenA */\n      dup6\n        /* \"contracts/libraries/YunaswapLibrary.sol\":1426:1432  tokenB */\n      dup6\n        /* \"contracts/libraries/YunaswapLibrary.sol\":1407:1417  sortTokens */\n      tag_164\n        /* \"contracts/libraries/YunaswapLibrary.sol\":1407:1433  sortTokens(tokenA, tokenB) */\n      jump\t// in\n    tag_346:\n        /* \"contracts/libraries/YunaswapLibrary.sol\":1387:1433  (address token0,) = sortTokens(tokenA, tokenB) */\n      pop\n      swap1\n      pop\n        /* \"contracts/libraries/YunaswapLibrary.sol\":1444:1457  uint reserve0 */\n      0x00\n        /* \"contracts/libraries/YunaswapLibrary.sol\":1459:1472  uint reserve1 */\n      dup1\n        /* \"contracts/libraries/YunaswapLibrary.sol\":1491:1523  pairFor(factory, tokenA, tokenB) */\n      tag_347\n        /* \"contracts/libraries/YunaswapLibrary.sol\":1499:1506  factory */\n      dup9\n        /* \"contracts/libraries/YunaswapLibrary.sol\":1508:1514  tokenA */\n      dup9\n        /* \"contracts/libraries/YunaswapLibrary.sol\":1516:1522  tokenB */\n      dup9\n        /* \"contracts/libraries/YunaswapLibrary.sol\":1491:1498  pairFor */\n      tag_86\n        /* \"contracts/libraries/YunaswapLibrary.sol\":1491:1523  pairFor(factory, tokenA, tokenB) */\n      jump\t// in\n    tag_347:\n        /* \"contracts/libraries/YunaswapLibrary.sol\":1477:1536  IYunaswapPair(pairFor(factory, tokenA, tokenB)).getReserves */\n      0xffffffffffffffffffffffffffffffffffffffff\n      and\n      0x0902f1ac\n        /* \"contracts/libraries/YunaswapLibrary.sol\":1477:1538  IYunaswapPair(pairFor(factory, tokenA, tokenB)).getReserves() */\n      mload(0x40)\n      dup2\n      0xffffffff\n      and\n      0xe0\n      shl\n      dup2\n      mstore\n      0x04\n      add\n      0x60\n      mload(0x40)\n      dup1\n      dup4\n      sub\n      dup2\n      dup7\n      dup1\n      extcodesize\n      iszero\n        /* \"--CODEGEN--\":5:14   */\n      dup1\n        /* \"--CODEGEN--\":2:4   */\n      iszero\n      tag_348\n      jumpi\n        /* \"--CODEGEN--\":27:28   */\n      0x00\n        /* \"--CODEGEN--\":24:25   */\n      dup1\n        /* \"--CODEGEN--\":17:29   */\n      revert\n        /* \"--CODEGEN--\":2:4   */\n    tag_348:\n        /* \"contracts/libraries/YunaswapLibrary.sol\":1477:1538  IYunaswapPair(pairFor(factory, tokenA, tokenB)).getReserves() */\n      pop\n      gas\n      staticcall\n      iszero\n        /* \"--CODEGEN--\":8:17   */\n      dup1\n        /* \"--CODEGEN--\":5:7   */\n      iszero\n      tag_350\n      jumpi\n        /* \"--CODEGEN--\":45:61   */\n      returndatasize\n        /* \"--CODEGEN--\":42:43   */\n      0x00\n        /* \"--CODEGEN--\":39:40   */\n      dup1\n        /* \"--CODEGEN--\":24:62   */\n      returndatacopy\n        /* \"--CODEGEN--\":77:93   */\n      returndatasize\n        /* \"--CODEGEN--\":74:75   */\n      0x00\n        /* \"--CODEGEN--\":67:94   */\n      revert\n        /* \"--CODEGEN--\":5:7   */\n    tag_350:\n        /* \"contracts/libraries/YunaswapLibrary.sol\":1477:1538  IYunaswapPair(pairFor(factory, tokenA, tokenB)).getReserves() */\n      pop\n      pop\n      pop\n      pop\n      mload(0x40)\n      returndatasize\n        /* \"--CODEGEN--\":15:17   */\n      0x60\n        /* \"--CODEGEN--\":10:13   */\n      dup2\n        /* \"--CODEGEN--\":7:18   */\n      lt\n        /* \"--CODEGEN--\":4:6   */\n      iszero\n      tag_351\n      jumpi\n        /* \"--CODEGEN--\":31:32   */\n      0x00\n        /* \"--CODEGEN--\":28:29   */\n      dup1\n        /* \"--CODEGEN--\":21:33   */\n      revert\n        /* \"--CODEGEN--\":4:6   */\n    tag_351:\n        /* \"contracts/libraries/YunaswapLibrary.sol\":1477:1538  IYunaswapPair(pairFor(factory, tokenA, tokenB)).getReserves() */\n      dup2\n      add\n      swap1\n      dup1\n      dup1\n      mload\n      swap1\n      0x20\n      add\n      swap1\n      swap3\n      swap2\n      swap1\n      dup1\n      mload\n      swap1\n      0x20\n      add\n      swap1\n      swap3\n      swap2\n      swap1\n      dup1\n      mload\n      swap1\n      0x20\n      add\n      swap1\n      swap3\n      swap2\n      swap1\n      pop\n      pop\n      pop\n        /* \"contracts/libraries/YunaswapLibrary.sol\":1443:1538  (uint reserve0, uint reserve1,) = IYunaswapPair(pairFor(factory, tokenA, tokenB)).getReserves() */\n      pop\n      0xffffffffffffffffffffffffffff\n      and\n      swap2\n      pop\n      0xffffffffffffffffffffffffffff\n      and\n      swap2\n      pop\n        /* \"contracts/libraries/YunaswapLibrary.sol\":1581:1587  token0 */\n      dup3\n        /* \"contracts/libraries/YunaswapLibrary.sol\":1571:1587  tokenA == token0 */\n      0xffffffffffffffffffffffffffffffffffffffff\n      and\n        /* \"contracts/libraries/YunaswapLibrary.sol\":1571:1577  tokenA */\n      dup8\n        /* \"contracts/libraries/YunaswapLibrary.sol\":1571:1587  tokenA == token0 */\n      0xffffffffffffffffffffffffffffffffffffffff\n      and\n      eq\n        /* \"contracts/libraries/YunaswapLibrary.sol\":1571:1633  tokenA == token0 ? (reserve0, reserve1) : (reserve1, reserve0) */\n      tag_352\n      jumpi\n        /* \"contracts/libraries/YunaswapLibrary.sol\":1614:1622  reserve1 */\n      dup1\n        /* \"contracts/libraries/YunaswapLibrary.sol\":1624:1632  reserve0 */\n      dup3\n        /* \"contracts/libraries/YunaswapLibrary.sol\":1571:1633  tokenA == token0 ? (reserve0, reserve1) : (reserve1, reserve0) */\n      jump(tag_353)\n    tag_352:\n        /* \"contracts/libraries/YunaswapLibrary.sol\":1591:1599  reserve0 */\n      dup2\n        /* \"contracts/libraries/YunaswapLibrary.sol\":1601:1609  reserve1 */\n      dup2\n        /* \"contracts/libraries/YunaswapLibrary.sol\":1571:1633  tokenA == token0 ? (reserve0, reserve1) : (reserve1, reserve0) */\n    tag_353:\n        /* \"contracts/libraries/YunaswapLibrary.sol\":1548:1633  (reserveA, reserveB) = tokenA == token0 ? (reserve0, reserve1) : (reserve1, reserve0) */\n      dup1\n      swap6\n      pop\n      dup2\n      swap7\n      pop\n      pop\n      pop\n        /* \"contracts/libraries/YunaswapLibrary.sol\":1254:1640  function getReserves(address factory, address tokenA, address tokenB) internal view returns (uint reserveA, uint reserveB) {... */\n      pop\n      pop\n      pop\n      swap4\n      pop\n      swap4\n      swap2\n      pop\n      pop\n      jump\t// out\n    stop\n    data_1ef6f88ce2396da44887c06e51ae4a786e0c2f82678439f397519b74a933748d 59756e61737761704c6962726172793a20494e53554646494349454e545f494e5055545f414d4f554e54\n    data_2d008cd521e4c76cd4f012e80509fea9c3007b96e5cec660a682588aaf1fcf85 59756e61737761704c6962726172793a20494e53554646494349454e545f414d4f554e54\n    data_3f8faf98afe9344b6d4b0e75b0101259bf282914b3b5a9320c6918b6e27ede1c 5472616e7366657248656c7065723a3a7472616e7366657246726f6d3a207472616e7366657246726f6d206661696c6564\n    data_44e1bd322d45ce34e2fba893de24a6c1f2334fe2c49ba57997ea21e9fb58a6dc 59756e6173776170526f757465723a204558434553534956455f494e5055545f414d4f554e54\n    data_62b7cb4f1b61c6dd60ba7dbcb48459b1fab0134958404b2a5626ea8183a0fa99 59756e6173776170526f757465723a20494e53554646494349454e545f425f414d4f554e54\n    data_b4b33a249d23011309692605ca1914f8f49b3e9bcb505955732af460790173fa 59756e6173776170526f757465723a20494e53554646494349454e545f4f55545055545f414d4f554e54\n    data_bb9fcd3a06474c9262e3ddf5782162d399801cc9eb9ba7ffee3afb96d33fc4de 59756e61737761704c6962726172793a204944454e544943414c5f414444524553534553\n    data_bfded32f95d2da3e0b255a8dd2ae1951c13ac0bfbe81e418d806e494f1b9c274 59756e6173776170526f757465723a20494e53554646494349454e545f415f414d4f554e54\n    data_cac1c3a8ef8e4fbc11e0003ce5d1db362ba71fbe2197b097f7c212608121c713 59756e61737761704c6962726172793a20494e53554646494349454e545f4f55545055545f414d4f554e54\n    data_f0f0f245b1c61b307be08373f81e0f1c5dfb40c2b8f173e2f66656c099b09068 59756e61737761704c6962726172793a20494e53554646494349454e545f4c4951554944495459\n\n    auxdata: 0xa26469706673582212209b461d25798bb14baf8450da91d1b8359f5eb0ad671bdcb528113a1a56532e0d64736f6c63430006060033\n}\n",
				"bytecode": {
					"linkReferences": {},
					"object": "60a060405234801561001057600080fd5b506040516135253803806135258339818101604052602081101561003357600080fd5b81019080805190602001909291905050508073ffffffffffffffffffffffffffffffffffffffff1660808173ffffffffffffffffffffffffffffffffffffffff1660601b815250505060805160601c6134376100ee600039806109b452806109ec5280610be55280610cf15280610e845280611225528061132e52806114ae52806117b052806117d952806118a05280612209528061224d528061244252806126a95280612c9a5280612dc25280612ed852506134376000f3fe608060405234801561001057600080fd5b50600436106100b45760003560e01c80638803dbee116100715780638803dbee14610534578063ad615dec14610640578063baa2abde14610696578063c45a01551461075d578063d06ca61f146107a7578063e8e33700146108be576100b4565b8063054d50d4146100b95780631f00ca741461010f5780632195995c1461022657806338ed17391461031b5780635c11d7951461042757806385f8c259146104de575b600080fd5b6100f9600480360360608110156100cf57600080fd5b81019080803590602001909291908035906020019092919080359060200190929190505050610997565b6040518082815260200191505060405180910390f35b6101cf6004803603604081101561012557600080fd5b81019080803590602001909291908035906020019064010000000081111561014c57600080fd5b82018360208201111561015e57600080fd5b8035906020019184602083028401116401000000008311171561018057600080fd5b919080806020026020016040519081016040528093929190818152602001838360200280828437600081840152601f19601f8201169050808301925050505050505091929192905050506109ad565b6040518080602001828103825283818151815260200191508051906020019060200280838360005b838110156102125780820151818401526020810190506101f7565b505050509050019250505060405180910390f35b6102fe600480360361016081101561023d57600080fd5b81019080803573ffffffffffffffffffffffffffffffffffffffff169060200190929190803573ffffffffffffffffffffffffffffffffffffffff169060200190929190803590602001909291908035906020019092919080359060200190929190803573ffffffffffffffffffffffffffffffffffffffff16906020019092919080359060200190929190803515159060200190929190803560ff16906020019092919080359060200190929190803590602001909291905050506109e2565b604051808381526020018281526020019250505060405180910390f35b6103d0600480360360a081101561033157600080fd5b8101908080359060200190929190803590602001909291908035906020019064010000000081111561036257600080fd5b82018360208201111561037457600080fd5b8035906020019184602083028401116401000000008311171561039657600080fd5b9091929391929390803573ffffffffffffffffffffffffffffffffffffffff16906020019092919080359060200190929190505050610b67565b6040518080602001828103825283818151815260200191508051906020019060200280838360005b838110156104135780820151818401526020810190506103f8565b505050509050019250505060405180910390f35b6104dc600480360360a081101561043d57600080fd5b8101908080359060200190929190803590602001909291908035906020019064010000000081111561046e57600080fd5b82018360208201111561048057600080fd5b803590602001918460208302840111640100000000831117156104a257600080fd5b9091929391929390803573ffffffffffffffffffffffffffffffffffffffff16906020019092919080359060200190929190505050610dda565b005b61051e600480360360608110156104f457600080fd5b81019080803590602001909291908035906020019092919080359060200190929190505050611191565b6040518082815260200191505060405180910390f35b6105e9600480360360a081101561054a57600080fd5b8101908080359060200190929190803590602001909291908035906020019064010000000081111561057b57600080fd5b82018360208201111561058d57600080fd5b803590602001918460208302840111640100000000831117156105af57600080fd5b9091929391929390803573ffffffffffffffffffffffffffffffffffffffff169060200190929190803590602001909291905050506111a7565b6040518080602001828103825283818151815260200191508051906020019060200280838360005b8381101561062c578082015181840152602081019050610611565b505050509050019250505060405180910390f35b6106806004803603606081101561065657600080fd5b81019080803590602001909291908035906020019092919080359060200190929190505050611417565b6040518082815260200191505060405180910390f35b610740600480360360e08110156106ac57600080fd5b81019080803573ffffffffffffffffffffffffffffffffffffffff169060200190929190803573ffffffffffffffffffffffffffffffffffffffff169060200190929190803590602001909291908035906020019092919080359060200190929190803573ffffffffffffffffffffffffffffffffffffffff1690602001909291908035906020019092919050505061142d565b604051808381526020018281526020019250505060405180910390f35b6107656117ae565b604051808273ffffffffffffffffffffffffffffffffffffffff1673ffffffffffffffffffffffffffffffffffffffff16815260200191505060405180910390f35b610867600480360360408110156107bd57600080fd5b8101908080359060200190929190803590602001906401000000008111156107e457600080fd5b8201836020820111156107f657600080fd5b8035906020019184602083028401116401000000008311171561081857600080fd5b919080806020026020016040519081016040528093929190818152602001838360200280828437600081840152601f19601f8201169050808301925050505050505091929192905050506117d2565b6040518080602001828103825283818151815260200191508051906020019060200280838360005b838110156108aa57808201518184015260208101905061088f565b505050509050019250505060405180910390f35b61097360048036036101008110156108d557600080fd5b81019080803573ffffffffffffffffffffffffffffffffffffffff169060200190929190803573ffffffffffffffffffffffffffffffffffffffff16906020019092919080359060200190929190803590602001909291908035906020019092919080359060200190929190803573ffffffffffffffffffffffffffffffffffffffff16906020019092919080359060200190929190505050611807565b60405180848152602001838152602001828152602001935050505060405180910390f35b60006109a48484846119ac565b90509392505050565b60606109da7f00000000000000000000000000000000000000000000000000000000000000008484611adc565b905092915050565b6000806000610a127f00000000000000000000000000000000000000000000000000000000000000008f8f611c5c565b9050600087610a21578c610a43565b7fffffffffffffffffffffffffffffffffffffffffffffffffffffffffffffffff5b90508173ffffffffffffffffffffffffffffffffffffffff1663d505accf3330848d8c8c8c6040518863ffffffff1660e01b8152600401808873ffffffffffffffffffffffffffffffffffffffff1673ffffffffffffffffffffffffffffffffffffffff1681526020018773ffffffffffffffffffffffffffffffffffffffff1673ffffffffffffffffffffffffffffffffffffffff1681526020018681526020018581526020018460ff1660ff168152602001838152602001828152602001975050505050505050600060405180830381600087803b158015610b2657600080fd5b505af1158015610b3a573d6000803e3d6000fd5b50505050610b4d8f8f8f8f8f8f8f61142d565b809450819550505050509b509b9950505050505050505050565b60608142811015610be0576040517f08c379a00000000000000000000000000000000000000000000000000000000081526004018080602001828103825260178152602001807f59756e6173776170526f757465723a204558504952454400000000000000000081525060200191505060405180910390fd5b610c4c7f000000000000000000000000000000000000000000000000000000000000000089888880806020026020016040519081016040528093929190818152602001838360200280828437600081840152601f19601f82011690508083019250505050505050611db7565b91508682600184510381518110610c5f57fe5b60200260200101511015610cbe576040517f08c379a000000000000000000000000000000000000000000000000000000000815260040180806020018281038252602a81526020018061333d602a913960400191505060405180910390fd5b610d8386866000818110610cce57fe5b9050602002013573ffffffffffffffffffffffffffffffffffffffff1633610d697f00000000000000000000000000000000000000000000000000000000000000008a8a6000818110610d1d57fe5b9050602002013573ffffffffffffffffffffffffffffffffffffffff168b8b6001818110610d4757fe5b9050602002013573ffffffffffffffffffffffffffffffffffffffff16611c5c565b85600081518110610d7657fe5b6020026020010151611f2f565b610dcf82878780806020026020016040519081016040528093929190818152602001838360200280828437600081840152601f19601f8201169050808301925050505050505086612140565b509695505050505050565b8042811015610e51576040517f08c379a00000000000000000000000000000000000000000000000000000000081526004018080602001828103825260178152602001807f59756e6173776170526f757465723a204558504952454400000000000000000081525060200191505060405180910390fd5b610f0285856000818110610e6157fe5b9050602002013573ffffffffffffffffffffffffffffffffffffffff1633610efc7f000000000000000000000000000000000000000000000000000000000000000089896000818110610eb057fe5b9050602002013573ffffffffffffffffffffffffffffffffffffffff168a8a6001818110610eda57fe5b9050602002013573ffffffffffffffffffffffffffffffffffffffff16611c5c565b8a611f2f565b6000858560018888905003818110610f1657fe5b9050602002013573ffffffffffffffffffffffffffffffffffffffff1673ffffffffffffffffffffffffffffffffffffffff166370a08231856040518263ffffffff1660e01b8152600401808273ffffffffffffffffffffffffffffffffffffffff1673ffffffffffffffffffffffffffffffffffffffff16815260200191505060206040518083038186803b158015610faf57600080fd5b505afa158015610fc3573d6000803e3d6000fd5b505050506040513d6020811015610fd957600080fd5b81019080805190602001909291905050509050611037868680806020026020016040519081016040528093929190818152602001838360200280828437600081840152601f19601f82011690508083019250505050505050856123eb565b8661113082888860018b8b90500381811061104e57fe5b9050602002013573ffffffffffffffffffffffffffffffffffffffff1673ffffffffffffffffffffffffffffffffffffffff166370a08231886040518263ffffffff1660e01b8152600401808273ffffffffffffffffffffffffffffffffffffffff1673ffffffffffffffffffffffffffffffffffffffff16815260200191505060206040518083038186803b1580156110e757600080fd5b505afa1580156110fb573d6000803e3d6000fd5b505050506040513d602081101561111157600080fd5b810190808051906020019092919050505061286290919063ffffffff16565b1015611187576040517f08c379a000000000000000000000000000000000000000000000000000000000815260040180806020018281038252602a81526020018061333d602a913960400191505060405180910390fd5b5050505050505050565b600061119e8484846128e5565b90509392505050565b60608142811015611220576040517f08c379a00000000000000000000000000000000000000000000000000000000081526004018080602001828103825260178152602001807f59756e6173776170526f757465723a204558504952454400000000000000000081525060200191505060405180910390fd5b61128c7f000000000000000000000000000000000000000000000000000000000000000089888880806020026020016040519081016040528093929190818152602001838360200280828437600081840152601f19601f82011690508083019250505050505050611adc565b9150868260008151811061129c57fe5b602002602001015111156112fb576040517f08c379a00000000000000000000000000000000000000000000000000000000081526004018080602001828103825260268152602001806132f26026913960400191505060405180910390fd5b6113c08686600081811061130b57fe5b9050602002013573ffffffffffffffffffffffffffffffffffffffff16336113a67f00000000000000000000000000000000000000000000000000000000000000008a8a600081811061135a57fe5b9050602002013573ffffffffffffffffffffffffffffffffffffffff168b8b600181811061138457fe5b9050602002013573ffffffffffffffffffffffffffffffffffffffff16611c5c565b856000815181106113b357fe5b6020026020010151611f2f565b61140c82878780806020026020016040519081016040528093929190818152602001838360200280828437600081840152601f19601f8201169050808301925050505050505086612140565b509695505050505050565b6000611424848484612a22565b90509392505050565b60008082428110156114a7576040517f08c379a00000000000000000000000000000000000000000000000000000000081526004018080602001828103825260178152602001807f59756e6173776170526f757465723a204558504952454400000000000000000081525060200191505060405180910390fd5b60006114d47f00000000000000000000000000000000000000000000000000000000000000008c8c611c5c565b90508073ffffffffffffffffffffffffffffffffffffffff166323b872dd33838c6040518463ffffffff1660e01b8152600401808473ffffffffffffffffffffffffffffffffffffffff1673ffffffffffffffffffffffffffffffffffffffff1681526020018373ffffffffffffffffffffffffffffffffffffffff1673ffffffffffffffffffffffffffffffffffffffff1681526020018281526020019350505050602060405180830381600087803b15801561159157600080fd5b505af11580156115a5573d6000803e3d6000fd5b505050506040513d60208110156115bb57600080fd5b8101908080519060200190929190505050506000808273ffffffffffffffffffffffffffffffffffffffff166389afcb44896040518263ffffffff1660e01b8152600401808273ffffffffffffffffffffffffffffffffffffffff1673ffffffffffffffffffffffffffffffffffffffff1681526020019150506040805180830381600087803b15801561164e57600080fd5b505af1158015611662573d6000803e3d6000fd5b505050506040513d604081101561167857600080fd5b8101908080519060200190929190805190602001909291905050509150915060006116a38e8e612b06565b5090508073ffffffffffffffffffffffffffffffffffffffff168e73ffffffffffffffffffffffffffffffffffffffff16146116e05781836116e3565b82825b80975081985050508a871015611744576040517f08c379a000000000000000000000000000000000000000000000000000000000815260040180806020018281038252602581526020018061338b6025913960400191505060405180910390fd5b8986101561179d576040517f08c379a00000000000000000000000000000000000000000000000000000000081526004018080602001828103825260258152602001806133186025913960400191505060405180910390fd5b505050505097509795505050505050565b7f000000000000000000000000000000000000000000000000000000000000000081565b60606117ff7f00000000000000000000000000000000000000000000000000000000000000008484611db7565b905092915050565b60008060008342811015611883576040517f08c379a00000000000000000000000000000000000000000000000000000000081526004018080602001828103825260178152602001807f59756e6173776170526f757465723a204558504952454400000000000000000081525060200191505060405180910390fd5b6118918c8c8c8c8c8c612c7d565b809450819550505060006118c67f00000000000000000000000000000000000000000000000000000000000000008e8e611c5c565b90506118d48d338388611f2f565b6118e08c338387611f2f565b8073ffffffffffffffffffffffffffffffffffffffff16636a627842886040518263ffffffff1660e01b8152600401808273ffffffffffffffffffffffffffffffffffffffff1673ffffffffffffffffffffffffffffffffffffffff168152602001915050602060405180830381600087803b15801561195f57600080fd5b505af1158015611973573d6000803e3d6000fd5b505050506040513d602081101561198957600080fd5b810190808051906020019092919050505092505050985098509895505050505050565b6000808411611a06576040517f08c379a000000000000000000000000000000000000000000000000000000000815260040180806020018281038252602a815260200180613273602a913960400191505060405180910390fd5b600083118015611a165750600082115b611a6b576040517f08c379a00000000000000000000000000000000000000000000000000000000081526004018080602001828103825260278152602001806133db6027913960400191505060405180910390fd5b6000611a826103e38661303190919063ffffffff16565b90506000611a99848361303190919063ffffffff16565b90506000611ac483611ab66103e88961303190919063ffffffff16565b6130c690919063ffffffff16565b9050808281611acf57fe5b0493505050509392505050565b6060600282511015611b56576040517f08c379a000000000000000000000000000000000000000000000000000000000815260040180806020018281038252601d8152602001807f59756e61737761704c6962726172793a20494e56414c49445f5041544800000081525060200191505060405180910390fd5b815167ffffffffffffffff81118015611b6e57600080fd5b50604051908082528060200260200182016040528015611b9d5781602001602082028036833780820191505090505b5090508281600183510381518110611bb157fe5b6020026020010181815250506000600183510390505b6000811115611c5457600080611c0787866001860381518110611be657fe5b6020026020010151878681518110611bfa57fe5b6020026020010151613149565b91509150611c29848481518110611c1a57fe5b602002602001015183836128e5565b846001850381518110611c3857fe5b6020026020010181815250505050808060019003915050611bc7565b509392505050565b6000806000611c6b8585612b06565b91509150858282604051602001808373ffffffffffffffffffffffffffffffffffffffff1673ffffffffffffffffffffffffffffffffffffffff1660601b81526014018273ffffffffffffffffffffffffffffffffffffffff1673ffffffffffffffffffffffffffffffffffffffff1660601b8152601401925050506040516020818303038152906040528051906020012060405160200180807fff000000000000000000000000000000000000000000000000000000000000008152506001018373ffffffffffffffffffffffffffffffffffffffff1673ffffffffffffffffffffffffffffffffffffffff1660601b8152601401828152602001807f73bc03f6df04156b0828924048b47b3ca57a376ce038db1c0e2a37473927bebf815250602001925050506040516020818303038152906040528051906020012060001c925050509392505050565b6060600282511015611e31576040517f08c379a000000000000000000000000000000000000000000000000000000000815260040180806020018281038252601d8152602001807f59756e61737761704c6962726172793a20494e56414c49445f5041544800000081525060200191505060405180910390fd5b815167ffffffffffffffff81118015611e4957600080fd5b50604051908082528060200260200182016040528015611e785781602001602082028036833780820191505090505b5090508281600081518110611e8957fe5b60200260200101818152505060005b6001835103811015611f2757600080611edb87868581518110611eb757fe5b6020026020010151876001870181518110611ece57fe5b6020026020010151613149565b91509150611efd848481518110611eee57fe5b602002602001015183836119ac565b846001850181518110611f0c57fe5b60200260200101818152505050508080600101915050611e98565b509392505050565b600060608573ffffffffffffffffffffffffffffffffffffffff166323b872dd868686604051602401808473ffffffffffffffffffffffffffffffffffffffff1673ffffffffffffffffffffffffffffffffffffffff1681526020018373ffffffffffffffffffffffffffffffffffffffff1673ffffffffffffffffffffffffffffffffffffffff16815260200182815260200193505050506040516020818303038152906040529060e01b6020820180517bffffffffffffffffffffffffffffffffffffffffffffffffffffffff83818316178352505050506040518082805190602001908083835b6020831061203c5780518252602082019150602081019050602083039250612019565b6001836020036101000a0380198251168184511680821785525050505050509050019150506000604051808303816000865af19150503d806000811461209e576040519150601f19603f3d011682016040523d82523d6000602084013e6120a3565b606091505b50915091508180156120e357506000815114806120e257508080602001905160208110156120d057600080fd5b81019080805190602001909291905050505b5b612138576040517f08c379a00000000000000000000000000000000000000000000000000000000081526004018080602001828103825260318152602001806132c16031913960400191505060405180910390fd5b505050505050565b60005b60018351038110156123e55760008084838151811061215e57fe5b602002602001015185600185018151811061217557fe5b602002602001015191509150600061218d8383612b06565b50905060008760018601815181106121a157fe5b602002602001015190506000808373ffffffffffffffffffffffffffffffffffffffff168673ffffffffffffffffffffffffffffffffffffffff16146121e9578260006121ed565b6000835b91509150600060028a510388106122045788612246565b6122457f0000000000000000000000000000000000000000000000000000000000000000878c60028c018151811061223857fe5b6020026020010151611c5c565b5b90506122737f00000000000000000000000000000000000000000000000000000000000000008888611c5c565b73ffffffffffffffffffffffffffffffffffffffff1663022c0d9f848484600067ffffffffffffffff811180156122a957600080fd5b506040519080825280601f01601f1916602001820160405280156122dc5781602001600182028036833780820191505090505b506040518563ffffffff1660e01b8152600401808581526020018481526020018373ffffffffffffffffffffffffffffffffffffffff1673ffffffffffffffffffffffffffffffffffffffff16815260200180602001828103825283818151815260200191508051906020019080838360005b8381101561236a57808201518184015260208101905061234f565b50505050905090810190601f1680156123975780820380516001836020036101000a031916815260200191505b5095505050505050600060405180830381600087803b1580156123b957600080fd5b505af11580156123cd573d6000803e3d6000fd5b50505050505050505050508080600101915050612143565b50505050565b60005b600183510381101561285d5760008084838151811061240957fe5b602002602001015185600185018151811061242057fe5b60200260200101519150915060006124388383612b06565b50905060006124687f00000000000000000000000000000000000000000000000000000000000000008585611c5c565b90506000806000808473ffffffffffffffffffffffffffffffffffffffff16630902f1ac6040518163ffffffff1660e01b815260040160606040518083038186803b1580156124b657600080fd5b505afa1580156124ca573d6000803e3d6000fd5b505050506040513d60608110156124e057600080fd5b81019080805190602001909291908051906020019092919080519060200190929190505050506dffffffffffffffffffffffffffff1691506dffffffffffffffffffffffffffff1691506000808773ffffffffffffffffffffffffffffffffffffffff168a73ffffffffffffffffffffffffffffffffffffffff161461256757828461256a565b83835b91509150612638828b73ffffffffffffffffffffffffffffffffffffffff166370a082318a6040518263ffffffff1660e01b8152600401808273ffffffffffffffffffffffffffffffffffffffff1673ffffffffffffffffffffffffffffffffffffffff16815260200191505060206040518083038186803b1580156125ef57600080fd5b505afa158015612603573d6000803e3d6000fd5b505050506040513d602081101561261957600080fd5b810190808051906020019092919050505061286290919063ffffffff16565b95506126458683836119ac565b9450505050506000808573ffffffffffffffffffffffffffffffffffffffff168873ffffffffffffffffffffffffffffffffffffffff16146126895782600061268d565b6000835b91509150600060028c51038a106126a4578a6126e6565b6126e57f0000000000000000000000000000000000000000000000000000000000000000898e60028e01815181106126d857fe5b6020026020010151611c5c565b5b90508573ffffffffffffffffffffffffffffffffffffffff1663022c0d9f848484600067ffffffffffffffff8111801561271f57600080fd5b506040519080825280601f01601f1916602001820160405280156127525781602001600182028036833780820191505090505b506040518563ffffffff1660e01b8152600401808581526020018481526020018373ffffffffffffffffffffffffffffffffffffffff1673ffffffffffffffffffffffffffffffffffffffff16815260200180602001828103825283818151815260200191508051906020019080838360005b838110156127e05780820151818401526020810190506127c5565b50505050905090810190601f16801561280d5780820380516001836020036101000a031916815260200191505b5095505050505050600060405180830381600087803b15801561282f57600080fd5b505af1158015612843573d6000803e3d6000fd5b5050505050505050505050505080806001019150506123ee565b505050565b60008282840391508111156128df576040517f08c379a00000000000000000000000000000000000000000000000000000000081526004018080602001828103825260158152602001807f64732d6d6174682d7375622d756e646572666c6f77000000000000000000000081525060200191505060405180910390fd5b92915050565b600080841161293f576040517f08c379a000000000000000000000000000000000000000000000000000000000815260040180806020018281038252602b8152602001806133b0602b913960400191505060405180910390fd5b60008311801561294f5750600082115b6129a4576040517f08c379a00000000000000000000000000000000000000000000000000000000081526004018080602001828103825260278152602001806133db6027913960400191505060405180910390fd5b60006129cd6103e86129bf878761303190919063ffffffff16565b61303190919063ffffffff16565b905060006129f86103e36129ea888761286290919063ffffffff16565b61303190919063ffffffff16565b9050612a176001828481612a0857fe5b046130c690919063ffffffff16565b925050509392505050565b6000808411612a7c576040517f08c379a000000000000000000000000000000000000000000000000000000000815260040180806020018281038252602481526020018061329d6024913960400191505060405180910390fd5b600083118015612a8c5750600082115b612ae1576040517f08c379a00000000000000000000000000000000000000000000000000000000081526004018080602001828103825260278152602001806133db6027913960400191505060405180910390fd5b82612af5838661303190919063ffffffff16565b81612afc57fe5b0490509392505050565b6000808273ffffffffffffffffffffffffffffffffffffffff168473ffffffffffffffffffffffffffffffffffffffff161415612b8e576040517f08c379a00000000000000000000000000000000000000000000000000000000081526004018080602001828103825260248152602001806133676024913960400191505060405180910390fd5b8273ffffffffffffffffffffffffffffffffffffffff168473ffffffffffffffffffffffffffffffffffffffff1610612bc8578284612bcb565b83835b8092508193505050600073ffffffffffffffffffffffffffffffffffffffff168273ffffffffffffffffffffffffffffffffffffffff161415612c76576040517f08c379a000000000000000000000000000000000000000000000000000000000815260040180806020018281038252601d8152602001807f59756e61737761704c6962726172793a205a45524f5f4144445245535300000081525060200191505060405180910390fd5b9250929050565b600080600073ffffffffffffffffffffffffffffffffffffffff167f000000000000000000000000000000000000000000000000000000000000000073ffffffffffffffffffffffffffffffffffffffff1663e6a439058a8a6040518363ffffffff1660e01b8152600401808373ffffffffffffffffffffffffffffffffffffffff1673ffffffffffffffffffffffffffffffffffffffff1681526020018273ffffffffffffffffffffffffffffffffffffffff1673ffffffffffffffffffffffffffffffffffffffff1681526020019250505060206040518083038186803b158015612d6957600080fd5b505afa158015612d7d573d6000803e3d6000fd5b505050506040513d6020811015612d9357600080fd5b810190808051906020019092919050505073ffffffffffffffffffffffffffffffffffffffff161415612ed0577f000000000000000000000000000000000000000000000000000000000000000073ffffffffffffffffffffffffffffffffffffffff1663c9c6539689896040518363ffffffff1660e01b8152600401808373ffffffffffffffffffffffffffffffffffffffff1673ffffffffffffffffffffffffffffffffffffffff1681526020018273ffffffffffffffffffffffffffffffffffffffff1673ffffffffffffffffffffffffffffffffffffffff16815260200192505050602060405180830381600087803b158015612e9357600080fd5b505af1158015612ea7573d6000803e3d6000fd5b505050506040513d6020811015612ebd57600080fd5b8101908080519060200190929190505050505b600080612efe7f00000000000000000000000000000000000000000000000000000000000000008b8b613149565b91509150600082148015612f125750600081145b15612f265787878094508195505050613024565b6000612f33898484612a22565b9050878111612fa45785811015612f95576040517f08c379a00000000000000000000000000000000000000000000000000000000081526004018080602001828103825260258152602001806133186025913960400191505060405180910390fd5b88818095508196505050613022565b6000612fb1898486612a22565b905089811115612fbd57fe5b87811015613016576040517f08c379a000000000000000000000000000000000000000000000000000000000815260040180806020018281038252602581526020018061338b6025913960400191505060405180910390fd5b80898096508197505050505b505b5050965096945050505050565b60008082148061304e575082828385029250828161304b57fe5b04145b6130c0576040517f08c379a00000000000000000000000000000000000000000000000000000000081526004018080602001828103825260148152602001807f64732d6d6174682d6d756c2d6f766572666c6f7700000000000000000000000081525060200191505060405180910390fd5b92915050565b6000828284019150811015613143576040517f08c379a00000000000000000000000000000000000000000000000000000000081526004018080602001828103825260148152602001807f64732d6d6174682d6164642d6f766572666c6f7700000000000000000000000081525060200191505060405180910390fd5b92915050565b60008060006131588585612b06565b509050600080613169888888611c5c565b73ffffffffffffffffffffffffffffffffffffffff16630902f1ac6040518163ffffffff1660e01b815260040160606040518083038186803b1580156131ae57600080fd5b505afa1580156131c2573d6000803e3d6000fd5b505050506040513d60608110156131d857600080fd5b81019080805190602001909291908051906020019092919080519060200190929190505050506dffffffffffffffffffffffffffff1691506dffffffffffffffffffffffffffff1691508273ffffffffffffffffffffffffffffffffffffffff168773ffffffffffffffffffffffffffffffffffffffff161461325c57808261325f565b81815b809550819650505050505093509391505056fe59756e61737761704c6962726172793a20494e53554646494349454e545f494e5055545f414d4f554e5459756e61737761704c6962726172793a20494e53554646494349454e545f414d4f554e545472616e7366657248656c7065723a3a7472616e7366657246726f6d3a207472616e7366657246726f6d206661696c656459756e6173776170526f757465723a204558434553534956455f494e5055545f414d4f554e5459756e6173776170526f757465723a20494e53554646494349454e545f425f414d4f554e5459756e6173776170526f757465723a20494e53554646494349454e545f4f55545055545f414d4f554e5459756e61737761704c6962726172793a204944454e544943414c5f41444452455353455359756e6173776170526f757465723a20494e53554646494349454e545f415f414d4f554e5459756e61737761704c6962726172793a20494e53554646494349454e545f4f55545055545f414d4f554e5459756e61737761704c6962726172793a20494e53554646494349454e545f4c4951554944495459a26469706673582212209b461d25798bb14baf8450da91d1b8359f5eb0ad671bdcb528113a1a56532e0d64736f6c63430006060033",
					"opcodes": "PUSH1 0xA0 PUSH1 0x40 MSTORE CALLVALUE DUP1 ISZERO PUSH2 0x10 JUMPI PUSH1 0x0 DUP1 REVERT JUMPDEST POP PUSH1 0x40 MLOAD PUSH2 0x3525 CODESIZE SUB DUP1 PUSH2 0x3525 DUP4 CODECOPY DUP2 DUP2 ADD PUSH1 0x40 MSTORE PUSH1 0x20 DUP2 LT ISZERO PUSH2 0x33 JUMPI PUSH1 0x0 DUP1 REVERT JUMPDEST DUP2 ADD SWAP1 DUP1 DUP1 MLOAD SWAP1 PUSH1 0x20 ADD SWAP1 SWAP3 SWAP2 SWAP1 POP POP POP DUP1 PUSH20 0xFFFFFFFFFFFFFFFFFFFFFFFFFFFFFFFFFFFFFFFF AND PUSH1 0x80 DUP2 PUSH20 0xFFFFFFFFFFFFFFFFFFFFFFFFFFFFFFFFFFFFFFFF AND PUSH1 0x60 SHL DUP2 MSTORE POP POP POP PUSH1 0x80 MLOAD PUSH1 0x60 SHR PUSH2 0x3437 PUSH2 0xEE PUSH1 0x0 CODECOPY DUP1 PUSH2 0x9B4 MSTORE DUP1 PUSH2 0x9EC MSTORE DUP1 PUSH2 0xBE5 MSTORE DUP1 PUSH2 0xCF1 MSTORE DUP1 PUSH2 0xE84 MSTORE DUP1 PUSH2 0x1225 MSTORE DUP1 PUSH2 0x132E MSTORE DUP1 PUSH2 0x14AE MSTORE DUP1 PUSH2 0x17B0 MSTORE DUP1 PUSH2 0x17D9 MSTORE DUP1 PUSH2 0x18A0 MSTORE DUP1 PUSH2 0x2209 MSTORE DUP1 PUSH2 0x224D MSTORE DUP1 PUSH2 0x2442 MSTORE DUP1 PUSH2 0x26A9 MSTORE DUP1 PUSH2 0x2C9A MSTORE DUP1 PUSH2 0x2DC2 MSTORE DUP1 PUSH2 0x2ED8 MSTORE POP PUSH2 0x3437 PUSH1 0x0 RETURN INVALID PUSH1 0x80 PUSH1 0x40 MSTORE CALLVALUE DUP1 ISZERO PUSH2 0x10 JUMPI PUSH1 0x0 DUP1 REVERT JUMPDEST POP PUSH1 0x4 CALLDATASIZE LT PUSH2 0xB4 JUMPI PUSH1 0x0 CALLDATALOAD PUSH1 0xE0 SHR DUP1 PUSH4 0x8803DBEE GT PUSH2 0x71 JUMPI DUP1 PUSH4 0x8803DBEE EQ PUSH2 0x534 JUMPI DUP1 PUSH4 0xAD615DEC EQ PUSH2 0x640 JUMPI DUP1 PUSH4 0xBAA2ABDE EQ PUSH2 0x696 JUMPI DUP1 PUSH4 0xC45A0155 EQ PUSH2 0x75D JUMPI DUP1 PUSH4 0xD06CA61F EQ PUSH2 0x7A7 JUMPI DUP1 PUSH4 0xE8E33700 EQ PUSH2 0x8BE JUMPI PUSH2 0xB4 JUMP JUMPDEST DUP1 PUSH4 0x54D50D4 EQ PUSH2 0xB9 JUMPI DUP1 PUSH4 0x1F00CA74 EQ PUSH2 0x10F JUMPI DUP1 PUSH4 0x2195995C EQ PUSH2 0x226 JUMPI DUP1 PUSH4 0x38ED1739 EQ PUSH2 0x31B JUMPI DUP1 PUSH4 0x5C11D795 EQ PUSH2 0x427 JUMPI DUP1 PUSH4 0x85F8C259 EQ PUSH2 0x4DE JUMPI JUMPDEST PUSH1 0x0 DUP1 REVERT JUMPDEST PUSH2 0xF9 PUSH1 0x4 DUP1 CALLDATASIZE SUB PUSH1 0x60 DUP2 LT ISZERO PUSH2 0xCF JUMPI PUSH1 0x0 DUP1 REVERT JUMPDEST DUP2 ADD SWAP1 DUP1 DUP1 CALLDATALOAD SWAP1 PUSH1 0x20 ADD SWAP1 SWAP3 SWAP2 SWAP1 DUP1 CALLDATALOAD SWAP1 PUSH1 0x20 ADD SWAP1 SWAP3 SWAP2 SWAP1 DUP1 CALLDATALOAD SWAP1 PUSH1 0x20 ADD SWAP1 SWAP3 SWAP2 SWAP1 POP POP POP PUSH2 0x997 JUMP JUMPDEST PUSH1 0x40 MLOAD DUP1 DUP3 DUP2 MSTORE PUSH1 0x20 ADD SWAP2 POP POP PUSH1 0x40 MLOAD DUP1 SWAP2 SUB SWAP1 RETURN JUMPDEST PUSH2 0x1CF PUSH1 0x4 DUP1 CALLDATASIZE SUB PUSH1 0x40 DUP2 LT ISZERO PUSH2 0x125 JUMPI PUSH1 0x0 DUP1 REVERT JUMPDEST DUP2 ADD SWAP1 DUP1 DUP1 CALLDATALOAD SWAP1 PUSH1 0x20 ADD SWAP1 SWAP3 SWAP2 SWAP1 DUP1 CALLDATALOAD SWAP1 PUSH1 0x20 ADD SWAP1 PUSH5 0x100000000 DUP2 GT ISZERO PUSH2 0x14C JUMPI PUSH1 0x0 DUP1 REVERT JUMPDEST DUP3 ADD DUP4 PUSH1 0x20 DUP3 ADD GT ISZERO PUSH2 0x15E JUMPI PUSH1 0x0 DUP1 REVERT JUMPDEST DUP1 CALLDATALOAD SWAP1 PUSH1 0x20 ADD SWAP2 DUP5 PUSH1 0x20 DUP4 MUL DUP5 ADD GT PUSH5 0x100000000 DUP4 GT OR ISZERO PUSH2 0x180 JUMPI PUSH1 0x0 DUP1 REVERT JUMPDEST SWAP2 SWAP1 DUP1 DUP1 PUSH1 0x20 MUL PUSH1 0x20 ADD PUSH1 0x40 MLOAD SWAP1 DUP2 ADD PUSH1 0x40 MSTORE DUP1 SWAP4 SWAP3 SWAP2 SWAP1 DUP2 DUP2 MSTORE PUSH1 0x20 ADD DUP4 DUP4 PUSH1 0x20 MUL DUP1 DUP3 DUP5 CALLDATACOPY PUSH1 0x0 DUP2 DUP5 ADD MSTORE PUSH1 0x1F NOT PUSH1 0x1F DUP3 ADD AND SWAP1 POP DUP1 DUP4 ADD SWAP3 POP POP POP POP POP POP POP SWAP2 SWAP3 SWAP2 SWAP3 SWAP1 POP POP POP PUSH2 0x9AD JUMP JUMPDEST PUSH1 0x40 MLOAD DUP1 DUP1 PUSH1 0x20 ADD DUP3 DUP2 SUB DUP3 MSTORE DUP4 DUP2 DUP2 MLOAD DUP2 MSTORE PUSH1 0x20 ADD SWAP2 POP DUP1 MLOAD SWAP1 PUSH1 0x20 ADD SWAP1 PUSH1 0x20 MUL DUP1 DUP4 DUP4 PUSH1 0x0 JUMPDEST DUP4 DUP2 LT ISZERO PUSH2 0x212 JUMPI DUP1 DUP3 ADD MLOAD DUP2 DUP5 ADD MSTORE PUSH1 0x20 DUP2 ADD SWAP1 POP PUSH2 0x1F7 JUMP JUMPDEST POP POP POP POP SWAP1 POP ADD SWAP3 POP POP POP PUSH1 0x40 MLOAD DUP1 SWAP2 SUB SWAP1 RETURN JUMPDEST PUSH2 0x2FE PUSH1 0x4 DUP1 CALLDATASIZE SUB PUSH2 0x160 DUP2 LT ISZERO PUSH2 0x23D JUMPI PUSH1 0x0 DUP1 REVERT JUMPDEST DUP2 ADD SWAP1 DUP1 DUP1 CALLDATALOAD PUSH20 0xFFFFFFFFFFFFFFFFFFFFFFFFFFFFFFFFFFFFFFFF AND SWAP1 PUSH1 0x20 ADD SWAP1 SWAP3 SWAP2 SWAP1 DUP1 CALLDATALOAD PUSH20 0xFFFFFFFFFFFFFFFFFFFFFFFFFFFFFFFFFFFFFFFF AND SWAP1 PUSH1 0x20 ADD SWAP1 SWAP3 SWAP2 SWAP1 DUP1 CALLDATALOAD SWAP1 PUSH1 0x20 ADD SWAP1 SWAP3 SWAP2 SWAP1 DUP1 CALLDATALOAD SWAP1 PUSH1 0x20 ADD SWAP1 SWAP3 SWAP2 SWAP1 DUP1 CALLDATALOAD SWAP1 PUSH1 0x20 ADD SWAP1 SWAP3 SWAP2 SWAP1 DUP1 CALLDATALOAD PUSH20 0xFFFFFFFFFFFFFFFFFFFFFFFFFFFFFFFFFFFFFFFF AND SWAP1 PUSH1 0x20 ADD SWAP1 SWAP3 SWAP2 SWAP1 DUP1 CALLDATALOAD SWAP1 PUSH1 0x20 ADD SWAP1 SWAP3 SWAP2 SWAP1 DUP1 CALLDATALOAD ISZERO ISZERO SWAP1 PUSH1 0x20 ADD SWAP1 SWAP3 SWAP2 SWAP1 DUP1 CALLDATALOAD PUSH1 0xFF AND SWAP1 PUSH1 0x20 ADD SWAP1 SWAP3 SWAP2 SWAP1 DUP1 CALLDATALOAD SWAP1 PUSH1 0x20 ADD SWAP1 SWAP3 SWAP2 SWAP1 DUP1 CALLDATALOAD SWAP1 PUSH1 0x20 ADD SWAP1 SWAP3 SWAP2 SWAP1 POP POP POP PUSH2 0x9E2 JUMP JUMPDEST PUSH1 0x40 MLOAD DUP1 DUP4 DUP2 MSTORE PUSH1 0x20 ADD DUP3 DUP2 MSTORE PUSH1 0x20 ADD SWAP3 POP POP POP PUSH1 0x40 MLOAD DUP1 SWAP2 SUB SWAP1 RETURN JUMPDEST PUSH2 0x3D0 PUSH1 0x4 DUP1 CALLDATASIZE SUB PUSH1 0xA0 DUP2 LT ISZERO PUSH2 0x331 JUMPI PUSH1 0x0 DUP1 REVERT JUMPDEST DUP2 ADD SWAP1 DUP1 DUP1 CALLDATALOAD SWAP1 PUSH1 0x20 ADD SWAP1 SWAP3 SWAP2 SWAP1 DUP1 CALLDATALOAD SWAP1 PUSH1 0x20 ADD SWAP1 SWAP3 SWAP2 SWAP1 DUP1 CALLDATALOAD SWAP1 PUSH1 0x20 ADD SWAP1 PUSH5 0x100000000 DUP2 GT ISZERO PUSH2 0x362 JUMPI PUSH1 0x0 DUP1 REVERT JUMPDEST DUP3 ADD DUP4 PUSH1 0x20 DUP3 ADD GT ISZERO PUSH2 0x374 JUMPI PUSH1 0x0 DUP1 REVERT JUMPDEST DUP1 CALLDATALOAD SWAP1 PUSH1 0x20 ADD SWAP2 DUP5 PUSH1 0x20 DUP4 MUL DUP5 ADD GT PUSH5 0x100000000 DUP4 GT OR ISZERO PUSH2 0x396 JUMPI PUSH1 0x0 DUP1 REVERT JUMPDEST SWAP1 SWAP2 SWAP3 SWAP4 SWAP2 SWAP3 SWAP4 SWAP1 DUP1 CALLDATALOAD PUSH20 0xFFFFFFFFFFFFFFFFFFFFFFFFFFFFFFFFFFFFFFFF AND SWAP1 PUSH1 0x20 ADD SWAP1 SWAP3 SWAP2 SWAP1 DUP1 CALLDATALOAD SWAP1 PUSH1 0x20 ADD SWAP1 SWAP3 SWAP2 SWAP1 POP POP POP PUSH2 0xB67 JUMP JUMPDEST PUSH1 0x40 MLOAD DUP1 DUP1 PUSH1 0x20 ADD DUP3 DUP2 SUB DUP3 MSTORE DUP4 DUP2 DUP2 MLOAD DUP2 MSTORE PUSH1 0x20 ADD SWAP2 POP DUP1 MLOAD SWAP1 PUSH1 0x20 ADD SWAP1 PUSH1 0x20 MUL DUP1 DUP4 DUP4 PUSH1 0x0 JUMPDEST DUP4 DUP2 LT ISZERO PUSH2 0x413 JUMPI DUP1 DUP3 ADD MLOAD DUP2 DUP5 ADD MSTORE PUSH1 0x20 DUP2 ADD SWAP1 POP PUSH2 0x3F8 JUMP JUMPDEST POP POP POP POP SWAP1 POP ADD SWAP3 POP POP POP PUSH1 0x40 MLOAD DUP1 SWAP2 SUB SWAP1 RETURN JUMPDEST PUSH2 0x4DC PUSH1 0x4 DUP1 CALLDATASIZE SUB PUSH1 0xA0 DUP2 LT ISZERO PUSH2 0x43D JUMPI PUSH1 0x0 DUP1 REVERT JUMPDEST DUP2 ADD SWAP1 DUP1 DUP1 CALLDATALOAD SWAP1 PUSH1 0x20 ADD SWAP1 SWAP3 SWAP2 SWAP1 DUP1 CALLDATALOAD SWAP1 PUSH1 0x20 ADD SWAP1 SWAP3 SWAP2 SWAP1 DUP1 CALLDATALOAD SWAP1 PUSH1 0x20 ADD SWAP1 PUSH5 0x100000000 DUP2 GT ISZERO PUSH2 0x46E JUMPI PUSH1 0x0 DUP1 REVERT JUMPDEST DUP3 ADD DUP4 PUSH1 0x20 DUP3 ADD GT ISZERO PUSH2 0x480 JUMPI PUSH1 0x0 DUP1 REVERT JUMPDEST DUP1 CALLDATALOAD SWAP1 PUSH1 0x20 ADD SWAP2 DUP5 PUSH1 0x20 DUP4 MUL DUP5 ADD GT PUSH5 0x100000000 DUP4 GT OR ISZERO PUSH2 0x4A2 JUMPI PUSH1 0x0 DUP1 REVERT JUMPDEST SWAP1 SWAP2 SWAP3 SWAP4 SWAP2 SWAP3 SWAP4 SWAP1 DUP1 CALLDATALOAD PUSH20 0xFFFFFFFFFFFFFFFFFFFFFFFFFFFFFFFFFFFFFFFF AND SWAP1 PUSH1 0x20 ADD SWAP1 SWAP3 SWAP2 SWAP1 DUP1 CALLDATALOAD SWAP1 PUSH1 0x20 ADD SWAP1 SWAP3 SWAP2 SWAP1 POP POP POP PUSH2 0xDDA JUMP JUMPDEST STOP JUMPDEST PUSH2 0x51E PUSH1 0x4 DUP1 CALLDATASIZE SUB PUSH1 0x60 DUP2 LT ISZERO PUSH2 0x4F4 JUMPI PUSH1 0x0 DUP1 REVERT JUMPDEST DUP2 ADD SWAP1 DUP1 DUP1 CALLDATALOAD SWAP1 PUSH1 0x20 ADD SWAP1 SWAP3 SWAP2 SWAP1 DUP1 CALLDATALOAD SWAP1 PUSH1 0x20 ADD SWAP1 SWAP3 SWAP2 SWAP1 DUP1 CALLDATALOAD SWAP1 PUSH1 0x20 ADD SWAP1 SWAP3 SWAP2 SWAP1 POP POP POP PUSH2 0x1191 JUMP JUMPDEST PUSH1 0x40 MLOAD DUP1 DUP3 DUP2 MSTORE PUSH1 0x20 ADD SWAP2 POP POP PUSH1 0x40 MLOAD DUP1 SWAP2 SUB SWAP1 RETURN JUMPDEST PUSH2 0x5E9 PUSH1 0x4 DUP1 CALLDATASIZE SUB PUSH1 0xA0 DUP2 LT ISZERO PUSH2 0x54A JUMPI PUSH1 0x0 DUP1 REVERT JUMPDEST DUP2 ADD SWAP1 DUP1 DUP1 CALLDATALOAD SWAP1 PUSH1 0x20 ADD SWAP1 SWAP3 SWAP2 SWAP1 DUP1 CALLDATALOAD SWAP1 PUSH1 0x20 ADD SWAP1 SWAP3 SWAP2 SWAP1 DUP1 CALLDATALOAD SWAP1 PUSH1 0x20 ADD SWAP1 PUSH5 0x100000000 DUP2 GT ISZERO PUSH2 0x57B JUMPI PUSH1 0x0 DUP1 REVERT JUMPDEST DUP3 ADD DUP4 PUSH1 0x20 DUP3 ADD GT ISZERO PUSH2 0x58D JUMPI PUSH1 0x0 DUP1 REVERT JUMPDEST DUP1 CALLDATALOAD SWAP1 PUSH1 0x20 ADD SWAP2 DUP5 PUSH1 0x20 DUP4 MUL DUP5 ADD GT PUSH5 0x100000000 DUP4 GT OR ISZERO PUSH2 0x5AF JUMPI PUSH1 0x0 DUP1 REVERT JUMPDEST SWAP1 SWAP2 SWAP3 SWAP4 SWAP2 SWAP3 SWAP4 SWAP1 DUP1 CALLDATALOAD PUSH20 0xFFFFFFFFFFFFFFFFFFFFFFFFFFFFFFFFFFFFFFFF AND SWAP1 PUSH1 0x20 ADD SWAP1 SWAP3 SWAP2 SWAP1 DUP1 CALLDATALOAD SWAP1 PUSH1 0x20 ADD SWAP1 SWAP3 SWAP2 SWAP1 POP POP POP PUSH2 0x11A7 JUMP JUMPDEST PUSH1 0x40 MLOAD DUP1 DUP1 PUSH1 0x20 ADD DUP3 DUP2 SUB DUP3 MSTORE DUP4 DUP2 DUP2 MLOAD DUP2 MSTORE PUSH1 0x20 ADD SWAP2 POP DUP1 MLOAD SWAP1 PUSH1 0x20 ADD SWAP1 PUSH1 0x20 MUL DUP1 DUP4 DUP4 PUSH1 0x0 JUMPDEST DUP4 DUP2 LT ISZERO PUSH2 0x62C JUMPI DUP1 DUP3 ADD MLOAD DUP2 DUP5 ADD MSTORE PUSH1 0x20 DUP2 ADD SWAP1 POP PUSH2 0x611 JUMP JUMPDEST POP POP POP POP SWAP1 POP ADD SWAP3 POP POP POP PUSH1 0x40 MLOAD DUP1 SWAP2 SUB SWAP1 RETURN JUMPDEST PUSH2 0x680 PUSH1 0x4 DUP1 CALLDATASIZE SUB PUSH1 0x60 DUP2 LT ISZERO PUSH2 0x656 JUMPI PUSH1 0x0 DUP1 REVERT JUMPDEST DUP2 ADD SWAP1 DUP1 DUP1 CALLDATALOAD SWAP1 PUSH1 0x20 ADD SWAP1 SWAP3 SWAP2 SWAP1 DUP1 CALLDATALOAD SWAP1 PUSH1 0x20 ADD SWAP1 SWAP3 SWAP2 SWAP1 DUP1 CALLDATALOAD SWAP1 PUSH1 0x20 ADD SWAP1 SWAP3 SWAP2 SWAP1 POP POP POP PUSH2 0x1417 JUMP JUMPDEST PUSH1 0x40 MLOAD DUP1 DUP3 DUP2 MSTORE PUSH1 0x20 ADD SWAP2 POP POP PUSH1 0x40 MLOAD DUP1 SWAP2 SUB SWAP1 RETURN JUMPDEST PUSH2 0x740 PUSH1 0x4 DUP1 CALLDATASIZE SUB PUSH1 0xE0 DUP2 LT ISZERO PUSH2 0x6AC JUMPI PUSH1 0x0 DUP1 REVERT JUMPDEST DUP2 ADD SWAP1 DUP1 DUP1 CALLDATALOAD PUSH20 0xFFFFFFFFFFFFFFFFFFFFFFFFFFFFFFFFFFFFFFFF AND SWAP1 PUSH1 0x20 ADD SWAP1 SWAP3 SWAP2 SWAP1 DUP1 CALLDATALOAD PUSH20 0xFFFFFFFFFFFFFFFFFFFFFFFFFFFFFFFFFFFFFFFF AND SWAP1 PUSH1 0x20 ADD SWAP1 SWAP3 SWAP2 SWAP1 DUP1 CALLDATALOAD SWAP1 PUSH1 0x20 ADD SWAP1 SWAP3 SWAP2 SWAP1 DUP1 CALLDATALOAD SWAP1 PUSH1 0x20 ADD SWAP1 SWAP3 SWAP2 SWAP1 DUP1 CALLDATALOAD SWAP1 PUSH1 0x20 ADD SWAP1 SWAP3 SWAP2 SWAP1 DUP1 CALLDATALOAD PUSH20 0xFFFFFFFFFFFFFFFFFFFFFFFFFFFFFFFFFFFFFFFF AND SWAP1 PUSH1 0x20 ADD SWAP1 SWAP3 SWAP2 SWAP1 DUP1 CALLDATALOAD SWAP1 PUSH1 0x20 ADD SWAP1 SWAP3 SWAP2 SWAP1 POP POP POP PUSH2 0x142D JUMP JUMPDEST PUSH1 0x40 MLOAD DUP1 DUP4 DUP2 MSTORE PUSH1 0x20 ADD DUP3 DUP2 MSTORE PUSH1 0x20 ADD SWAP3 POP POP POP PUSH1 0x40 MLOAD DUP1 SWAP2 SUB SWAP1 RETURN JUMPDEST PUSH2 0x765 PUSH2 0x17AE JUMP JUMPDEST PUSH1 0x40 MLOAD DUP1 DUP3 PUSH20 0xFFFFFFFFFFFFFFFFFFFFFFFFFFFFFFFFFFFFFFFF AND PUSH20 0xFFFFFFFFFFFFFFFFFFFFFFFFFFFFFFFFFFFFFFFF AND DUP2 MSTORE PUSH1 0x20 ADD SWAP2 POP POP PUSH1 0x40 MLOAD DUP1 SWAP2 SUB SWAP1 RETURN JUMPDEST PUSH2 0x867 PUSH1 0x4 DUP1 CALLDATASIZE SUB PUSH1 0x40 DUP2 LT ISZERO PUSH2 0x7BD JUMPI PUSH1 0x0 DUP1 REVERT JUMPDEST DUP2 ADD SWAP1 DUP1 DUP1 CALLDATALOAD SWAP1 PUSH1 0x20 ADD SWAP1 SWAP3 SWAP2 SWAP1 DUP1 CALLDATALOAD SWAP1 PUSH1 0x20 ADD SWAP1 PUSH5 0x100000000 DUP2 GT ISZERO PUSH2 0x7E4 JUMPI PUSH1 0x0 DUP1 REVERT JUMPDEST DUP3 ADD DUP4 PUSH1 0x20 DUP3 ADD GT ISZERO PUSH2 0x7F6 JUMPI PUSH1 0x0 DUP1 REVERT JUMPDEST DUP1 CALLDATALOAD SWAP1 PUSH1 0x20 ADD SWAP2 DUP5 PUSH1 0x20 DUP4 MUL DUP5 ADD GT PUSH5 0x100000000 DUP4 GT OR ISZERO PUSH2 0x818 JUMPI PUSH1 0x0 DUP1 REVERT JUMPDEST SWAP2 SWAP1 DUP1 DUP1 PUSH1 0x20 MUL PUSH1 0x20 ADD PUSH1 0x40 MLOAD SWAP1 DUP2 ADD PUSH1 0x40 MSTORE DUP1 SWAP4 SWAP3 SWAP2 SWAP1 DUP2 DUP2 MSTORE PUSH1 0x20 ADD DUP4 DUP4 PUSH1 0x20 MUL DUP1 DUP3 DUP5 CALLDATACOPY PUSH1 0x0 DUP2 DUP5 ADD MSTORE PUSH1 0x1F NOT PUSH1 0x1F DUP3 ADD AND SWAP1 POP DUP1 DUP4 ADD SWAP3 POP POP POP POP POP POP POP SWAP2 SWAP3 SWAP2 SWAP3 SWAP1 POP POP POP PUSH2 0x17D2 JUMP JUMPDEST PUSH1 0x40 MLOAD DUP1 DUP1 PUSH1 0x20 ADD DUP3 DUP2 SUB DUP3 MSTORE DUP4 DUP2 DUP2 MLOAD DUP2 MSTORE PUSH1 0x20 ADD SWAP2 POP DUP1 MLOAD SWAP1 PUSH1 0x20 ADD SWAP1 PUSH1 0x20 MUL DUP1 DUP4 DUP4 PUSH1 0x0 JUMPDEST DUP4 DUP2 LT ISZERO PUSH2 0x8AA JUMPI DUP1 DUP3 ADD MLOAD DUP2 DUP5 ADD MSTORE PUSH1 0x20 DUP2 ADD SWAP1 POP PUSH2 0x88F JUMP JUMPDEST POP POP POP POP SWAP1 POP ADD SWAP3 POP POP POP PUSH1 0x40 MLOAD DUP1 SWAP2 SUB SWAP1 RETURN JUMPDEST PUSH2 0x973 PUSH1 0x4 DUP1 CALLDATASIZE SUB PUSH2 0x100 DUP2 LT ISZERO PUSH2 0x8D5 JUMPI PUSH1 0x0 DUP1 REVERT JUMPDEST DUP2 ADD SWAP1 DUP1 DUP1 CALLDATALOAD PUSH20 0xFFFFFFFFFFFFFFFFFFFFFFFFFFFFFFFFFFFFFFFF AND SWAP1 PUSH1 0x20 ADD SWAP1 SWAP3 SWAP2 SWAP1 DUP1 CALLDATALOAD PUSH20 0xFFFFFFFFFFFFFFFFFFFFFFFFFFFFFFFFFFFFFFFF AND SWAP1 PUSH1 0x20 ADD SWAP1 SWAP3 SWAP2 SWAP1 DUP1 CALLDATALOAD SWAP1 PUSH1 0x20 ADD SWAP1 SWAP3 SWAP2 SWAP1 DUP1 CALLDATALOAD SWAP1 PUSH1 0x20 ADD SWAP1 SWAP3 SWAP2 SWAP1 DUP1 CALLDATALOAD SWAP1 PUSH1 0x20 ADD SWAP1 SWAP3 SWAP2 SWAP1 DUP1 CALLDATALOAD SWAP1 PUSH1 0x20 ADD SWAP1 SWAP3 SWAP2 SWAP1 DUP1 CALLDATALOAD PUSH20 0xFFFFFFFFFFFFFFFFFFFFFFFFFFFFFFFFFFFFFFFF AND SWAP1 PUSH1 0x20 ADD SWAP1 SWAP3 SWAP2 SWAP1 DUP1 CALLDATALOAD SWAP1 PUSH1 0x20 ADD SWAP1 SWAP3 SWAP2 SWAP1 POP POP POP PUSH2 0x1807 JUMP JUMPDEST PUSH1 0x40 MLOAD DUP1 DUP5 DUP2 MSTORE PUSH1 0x20 ADD DUP4 DUP2 MSTORE PUSH1 0x20 ADD DUP3 DUP2 MSTORE PUSH1 0x20 ADD SWAP4 POP POP POP POP PUSH1 0x40 MLOAD DUP1 SWAP2 SUB SWAP1 RETURN JUMPDEST PUSH1 0x0 PUSH2 0x9A4 DUP5 DUP5 DUP5 PUSH2 0x19AC JUMP JUMPDEST SWAP1 POP SWAP4 SWAP3 POP POP POP JUMP JUMPDEST PUSH1 0x60 PUSH2 0x9DA PUSH32 0x0 DUP5 DUP5 PUSH2 0x1ADC JUMP JUMPDEST SWAP1 POP SWAP3 SWAP2 POP POP JUMP JUMPDEST PUSH1 0x0 DUP1 PUSH1 0x0 PUSH2 0xA12 PUSH32 0x0 DUP16 DUP16 PUSH2 0x1C5C JUMP JUMPDEST SWAP1 POP PUSH1 0x0 DUP8 PUSH2 0xA21 JUMPI DUP13 PUSH2 0xA43 JUMP JUMPDEST PUSH32 0xFFFFFFFFFFFFFFFFFFFFFFFFFFFFFFFFFFFFFFFFFFFFFFFFFFFFFFFFFFFFFFFF JUMPDEST SWAP1 POP DUP2 PUSH20 0xFFFFFFFFFFFFFFFFFFFFFFFFFFFFFFFFFFFFFFFF AND PUSH4 0xD505ACCF CALLER ADDRESS DUP5 DUP14 DUP13 DUP13 DUP13 PUSH1 0x40 MLOAD DUP9 PUSH4 0xFFFFFFFF AND PUSH1 0xE0 SHL DUP2 MSTORE PUSH1 0x4 ADD DUP1 DUP9 PUSH20 0xFFFFFFFFFFFFFFFFFFFFFFFFFFFFFFFFFFFFFFFF AND PUSH20 0xFFFFFFFFFFFFFFFFFFFFFFFFFFFFFFFFFFFFFFFF AND DUP2 MSTORE PUSH1 0x20 ADD DUP8 PUSH20 0xFFFFFFFFFFFFFFFFFFFFFFFFFFFFFFFFFFFFFFFF AND PUSH20 0xFFFFFFFFFFFFFFFFFFFFFFFFFFFFFFFFFFFFFFFF AND DUP2 MSTORE PUSH1 0x20 ADD DUP7 DUP2 MSTORE PUSH1 0x20 ADD DUP6 DUP2 MSTORE PUSH1 0x20 ADD DUP5 PUSH1 0xFF AND PUSH1 0xFF AND DUP2 MSTORE PUSH1 0x20 ADD DUP4 DUP2 MSTORE PUSH1 0x20 ADD DUP3 DUP2 MSTORE PUSH1 0x20 ADD SWAP8 POP POP POP POP POP POP POP POP PUSH1 0x0 PUSH1 0x40 MLOAD DUP1 DUP4 SUB DUP2 PUSH1 0x0 DUP8 DUP1 EXTCODESIZE ISZERO DUP1 ISZERO PUSH2 0xB26 JUMPI PUSH1 0x0 DUP1 REVERT JUMPDEST POP GAS CALL ISZERO DUP1 ISZERO PUSH2 0xB3A JUMPI RETURNDATASIZE PUSH1 0x0 DUP1 RETURNDATACOPY RETURNDATASIZE PUSH1 0x0 REVERT JUMPDEST POP POP POP POP PUSH2 0xB4D DUP16 DUP16 DUP16 DUP16 DUP16 DUP16 DUP16 PUSH2 0x142D JUMP JUMPDEST DUP1 SWAP5 POP DUP2 SWAP6 POP POP POP POP POP SWAP12 POP SWAP12 SWAP10 POP POP POP POP POP POP POP POP POP POP JUMP JUMPDEST PUSH1 0x60 DUP2 TIMESTAMP DUP2 LT ISZERO PUSH2 0xBE0 JUMPI PUSH1 0x40 MLOAD PUSH32 0x8C379A000000000000000000000000000000000000000000000000000000000 DUP2 MSTORE PUSH1 0x4 ADD DUP1 DUP1 PUSH1 0x20 ADD DUP3 DUP2 SUB DUP3 MSTORE PUSH1 0x17 DUP2 MSTORE PUSH1 0x20 ADD DUP1 PUSH32 0x59756E6173776170526F757465723A2045585049524544000000000000000000 DUP2 MSTORE POP PUSH1 0x20 ADD SWAP2 POP POP PUSH1 0x40 MLOAD DUP1 SWAP2 SUB SWAP1 REVERT JUMPDEST PUSH2 0xC4C PUSH32 0x0 DUP10 DUP9 DUP9 DUP1 DUP1 PUSH1 0x20 MUL PUSH1 0x20 ADD PUSH1 0x40 MLOAD SWAP1 DUP2 ADD PUSH1 0x40 MSTORE DUP1 SWAP4 SWAP3 SWAP2 SWAP1 DUP2 DUP2 MSTORE PUSH1 0x20 ADD DUP4 DUP4 PUSH1 0x20 MUL DUP1 DUP3 DUP5 CALLDATACOPY PUSH1 0x0 DUP2 DUP5 ADD MSTORE PUSH1 0x1F NOT PUSH1 0x1F DUP3 ADD AND SWAP1 POP DUP1 DUP4 ADD SWAP3 POP POP POP POP POP POP POP PUSH2 0x1DB7 JUMP JUMPDEST SWAP2 POP DUP7 DUP3 PUSH1 0x1 DUP5 MLOAD SUB DUP2 MLOAD DUP2 LT PUSH2 0xC5F JUMPI INVALID JUMPDEST PUSH1 0x20 MUL PUSH1 0x20 ADD ADD MLOAD LT ISZERO PUSH2 0xCBE JUMPI PUSH1 0x40 MLOAD PUSH32 0x8C379A000000000000000000000000000000000000000000000000000000000 DUP2 MSTORE PUSH1 0x4 ADD DUP1 DUP1 PUSH1 0x20 ADD DUP3 DUP2 SUB DUP3 MSTORE PUSH1 0x2A DUP2 MSTORE PUSH1 0x20 ADD DUP1 PUSH2 0x333D PUSH1 0x2A SWAP2 CODECOPY PUSH1 0x40 ADD SWAP2 POP POP PUSH1 0x40 MLOAD DUP1 SWAP2 SUB SWAP1 REVERT JUMPDEST PUSH2 0xD83 DUP7 DUP7 PUSH1 0x0 DUP2 DUP2 LT PUSH2 0xCCE JUMPI INVALID JUMPDEST SWAP1 POP PUSH1 0x20 MUL ADD CALLDATALOAD PUSH20 0xFFFFFFFFFFFFFFFFFFFFFFFFFFFFFFFFFFFFFFFF AND CALLER PUSH2 0xD69 PUSH32 0x0 DUP11 DUP11 PUSH1 0x0 DUP2 DUP2 LT PUSH2 0xD1D JUMPI INVALID JUMPDEST SWAP1 POP PUSH1 0x20 MUL ADD CALLDATALOAD PUSH20 0xFFFFFFFFFFFFFFFFFFFFFFFFFFFFFFFFFFFFFFFF AND DUP12 DUP12 PUSH1 0x1 DUP2 DUP2 LT PUSH2 0xD47 JUMPI INVALID JUMPDEST SWAP1 POP PUSH1 0x20 MUL ADD CALLDATALOAD PUSH20 0xFFFFFFFFFFFFFFFFFFFFFFFFFFFFFFFFFFFFFFFF AND PUSH2 0x1C5C JUMP JUMPDEST DUP6 PUSH1 0x0 DUP2 MLOAD DUP2 LT PUSH2 0xD76 JUMPI INVALID JUMPDEST PUSH1 0x20 MUL PUSH1 0x20 ADD ADD MLOAD PUSH2 0x1F2F JUMP JUMPDEST PUSH2 0xDCF DUP3 DUP8 DUP8 DUP1 DUP1 PUSH1 0x20 MUL PUSH1 0x20 ADD PUSH1 0x40 MLOAD SWAP1 DUP2 ADD PUSH1 0x40 MSTORE DUP1 SWAP4 SWAP3 SWAP2 SWAP1 DUP2 DUP2 MSTORE PUSH1 0x20 ADD DUP4 DUP4 PUSH1 0x20 MUL DUP1 DUP3 DUP5 CALLDATACOPY PUSH1 0x0 DUP2 DUP5 ADD MSTORE PUSH1 0x1F NOT PUSH1 0x1F DUP3 ADD AND SWAP1 POP DUP1 DUP4 ADD SWAP3 POP POP POP POP POP POP POP DUP7 PUSH2 0x2140 JUMP JUMPDEST POP SWAP7 SWAP6 POP POP POP POP POP POP JUMP JUMPDEST DUP1 TIMESTAMP DUP2 LT ISZERO PUSH2 0xE51 JUMPI PUSH1 0x40 MLOAD PUSH32 0x8C379A000000000000000000000000000000000000000000000000000000000 DUP2 MSTORE PUSH1 0x4 ADD DUP1 DUP1 PUSH1 0x20 ADD DUP3 DUP2 SUB DUP3 MSTORE PUSH1 0x17 DUP2 MSTORE PUSH1 0x20 ADD DUP1 PUSH32 0x59756E6173776170526F757465723A2045585049524544000000000000000000 DUP2 MSTORE POP PUSH1 0x20 ADD SWAP2 POP POP PUSH1 0x40 MLOAD DUP1 SWAP2 SUB SWAP1 REVERT JUMPDEST PUSH2 0xF02 DUP6 DUP6 PUSH1 0x0 DUP2 DUP2 LT PUSH2 0xE61 JUMPI INVALID JUMPDEST SWAP1 POP PUSH1 0x20 MUL ADD CALLDATALOAD PUSH20 0xFFFFFFFFFFFFFFFFFFFFFFFFFFFFFFFFFFFFFFFF AND CALLER PUSH2 0xEFC PUSH32 0x0 DUP10 DUP10 PUSH1 0x0 DUP2 DUP2 LT PUSH2 0xEB0 JUMPI INVALID JUMPDEST SWAP1 POP PUSH1 0x20 MUL ADD CALLDATALOAD PUSH20 0xFFFFFFFFFFFFFFFFFFFFFFFFFFFFFFFFFFFFFFFF AND DUP11 DUP11 PUSH1 0x1 DUP2 DUP2 LT PUSH2 0xEDA JUMPI INVALID JUMPDEST SWAP1 POP PUSH1 0x20 MUL ADD CALLDATALOAD PUSH20 0xFFFFFFFFFFFFFFFFFFFFFFFFFFFFFFFFFFFFFFFF AND PUSH2 0x1C5C JUMP JUMPDEST DUP11 PUSH2 0x1F2F JUMP JUMPDEST PUSH1 0x0 DUP6 DUP6 PUSH1 0x1 DUP9 DUP9 SWAP1 POP SUB DUP2 DUP2 LT PUSH2 0xF16 JUMPI INVALID JUMPDEST SWAP1 POP PUSH1 0x20 MUL ADD CALLDATALOAD PUSH20 0xFFFFFFFFFFFFFFFFFFFFFFFFFFFFFFFFFFFFFFFF AND PUSH20 0xFFFFFFFFFFFFFFFFFFFFFFFFFFFFFFFFFFFFFFFF AND PUSH4 0x70A08231 DUP6 PUSH1 0x40 MLOAD DUP3 PUSH4 0xFFFFFFFF AND PUSH1 0xE0 SHL DUP2 MSTORE PUSH1 0x4 ADD DUP1 DUP3 PUSH20 0xFFFFFFFFFFFFFFFFFFFFFFFFFFFFFFFFFFFFFFFF AND PUSH20 0xFFFFFFFFFFFFFFFFFFFFFFFFFFFFFFFFFFFFFFFF AND DUP2 MSTORE PUSH1 0x20 ADD SWAP2 POP POP PUSH1 0x20 PUSH1 0x40 MLOAD DUP1 DUP4 SUB DUP2 DUP7 DUP1 EXTCODESIZE ISZERO DUP1 ISZERO PUSH2 0xFAF JUMPI PUSH1 0x0 DUP1 REVERT JUMPDEST POP GAS STATICCALL ISZERO DUP1 ISZERO PUSH2 0xFC3 JUMPI RETURNDATASIZE PUSH1 0x0 DUP1 RETURNDATACOPY RETURNDATASIZE PUSH1 0x0 REVERT JUMPDEST POP POP POP POP PUSH1 0x40 MLOAD RETURNDATASIZE PUSH1 0x20 DUP2 LT ISZERO PUSH2 0xFD9 JUMPI PUSH1 0x0 DUP1 REVERT JUMPDEST DUP2 ADD SWAP1 DUP1 DUP1 MLOAD SWAP1 PUSH1 0x20 ADD SWAP1 SWAP3 SWAP2 SWAP1 POP POP POP SWAP1 POP PUSH2 0x1037 DUP7 DUP7 DUP1 DUP1 PUSH1 0x20 MUL PUSH1 0x20 ADD PUSH1 0x40 MLOAD SWAP1 DUP2 ADD PUSH1 0x40 MSTORE DUP1 SWAP4 SWAP3 SWAP2 SWAP1 DUP2 DUP2 MSTORE PUSH1 0x20 ADD DUP4 DUP4 PUSH1 0x20 MUL DUP1 DUP3 DUP5 CALLDATACOPY PUSH1 0x0 DUP2 DUP5 ADD MSTORE PUSH1 0x1F NOT PUSH1 0x1F DUP3 ADD AND SWAP1 POP DUP1 DUP4 ADD SWAP3 POP POP POP POP POP POP POP DUP6 PUSH2 0x23EB JUMP JUMPDEST DUP7 PUSH2 0x1130 DUP3 DUP9 DUP9 PUSH1 0x1 DUP12 DUP12 SWAP1 POP SUB DUP2 DUP2 LT PUSH2 0x104E JUMPI INVALID JUMPDEST SWAP1 POP PUSH1 0x20 MUL ADD CALLDATALOAD PUSH20 0xFFFFFFFFFFFFFFFFFFFFFFFFFFFFFFFFFFFFFFFF AND PUSH20 0xFFFFFFFFFFFFFFFFFFFFFFFFFFFFFFFFFFFFFFFF AND PUSH4 0x70A08231 DUP9 PUSH1 0x40 MLOAD DUP3 PUSH4 0xFFFFFFFF AND PUSH1 0xE0 SHL DUP2 MSTORE PUSH1 0x4 ADD DUP1 DUP3 PUSH20 0xFFFFFFFFFFFFFFFFFFFFFFFFFFFFFFFFFFFFFFFF AND PUSH20 0xFFFFFFFFFFFFFFFFFFFFFFFFFFFFFFFFFFFFFFFF AND DUP2 MSTORE PUSH1 0x20 ADD SWAP2 POP POP PUSH1 0x20 PUSH1 0x40 MLOAD DUP1 DUP4 SUB DUP2 DUP7 DUP1 EXTCODESIZE ISZERO DUP1 ISZERO PUSH2 0x10E7 JUMPI PUSH1 0x0 DUP1 REVERT JUMPDEST POP GAS STATICCALL ISZERO DUP1 ISZERO PUSH2 0x10FB JUMPI RETURNDATASIZE PUSH1 0x0 DUP1 RETURNDATACOPY RETURNDATASIZE PUSH1 0x0 REVERT JUMPDEST POP POP POP POP PUSH1 0x40 MLOAD RETURNDATASIZE PUSH1 0x20 DUP2 LT ISZERO PUSH2 0x1111 JUMPI PUSH1 0x0 DUP1 REVERT JUMPDEST DUP2 ADD SWAP1 DUP1 DUP1 MLOAD SWAP1 PUSH1 0x20 ADD SWAP1 SWAP3 SWAP2 SWAP1 POP POP POP PUSH2 0x2862 SWAP1 SWAP2 SWAP1 PUSH4 0xFFFFFFFF AND JUMP JUMPDEST LT ISZERO PUSH2 0x1187 JUMPI PUSH1 0x40 MLOAD PUSH32 0x8C379A000000000000000000000000000000000000000000000000000000000 DUP2 MSTORE PUSH1 0x4 ADD DUP1 DUP1 PUSH1 0x20 ADD DUP3 DUP2 SUB DUP3 MSTORE PUSH1 0x2A DUP2 MSTORE PUSH1 0x20 ADD DUP1 PUSH2 0x333D PUSH1 0x2A SWAP2 CODECOPY PUSH1 0x40 ADD SWAP2 POP POP PUSH1 0x40 MLOAD DUP1 SWAP2 SUB SWAP1 REVERT JUMPDEST POP POP POP POP POP POP POP POP JUMP JUMPDEST PUSH1 0x0 PUSH2 0x119E DUP5 DUP5 DUP5 PUSH2 0x28E5 JUMP JUMPDEST SWAP1 POP SWAP4 SWAP3 POP POP POP JUMP JUMPDEST PUSH1 0x60 DUP2 TIMESTAMP DUP2 LT ISZERO PUSH2 0x1220 JUMPI PUSH1 0x40 MLOAD PUSH32 0x8C379A000000000000000000000000000000000000000000000000000000000 DUP2 MSTORE PUSH1 0x4 ADD DUP1 DUP1 PUSH1 0x20 ADD DUP3 DUP2 SUB DUP3 MSTORE PUSH1 0x17 DUP2 MSTORE PUSH1 0x20 ADD DUP1 PUSH32 0x59756E6173776170526F757465723A2045585049524544000000000000000000 DUP2 MSTORE POP PUSH1 0x20 ADD SWAP2 POP POP PUSH1 0x40 MLOAD DUP1 SWAP2 SUB SWAP1 REVERT JUMPDEST PUSH2 0x128C PUSH32 0x0 DUP10 DUP9 DUP9 DUP1 DUP1 PUSH1 0x20 MUL PUSH1 0x20 ADD PUSH1 0x40 MLOAD SWAP1 DUP2 ADD PUSH1 0x40 MSTORE DUP1 SWAP4 SWAP3 SWAP2 SWAP1 DUP2 DUP2 MSTORE PUSH1 0x20 ADD DUP4 DUP4 PUSH1 0x20 MUL DUP1 DUP3 DUP5 CALLDATACOPY PUSH1 0x0 DUP2 DUP5 ADD MSTORE PUSH1 0x1F NOT PUSH1 0x1F DUP3 ADD AND SWAP1 POP DUP1 DUP4 ADD SWAP3 POP POP POP POP POP POP POP PUSH2 0x1ADC JUMP JUMPDEST SWAP2 POP DUP7 DUP3 PUSH1 0x0 DUP2 MLOAD DUP2 LT PUSH2 0x129C JUMPI INVALID JUMPDEST PUSH1 0x20 MUL PUSH1 0x20 ADD ADD MLOAD GT ISZERO PUSH2 0x12FB JUMPI PUSH1 0x40 MLOAD PUSH32 0x8C379A000000000000000000000000000000000000000000000000000000000 DUP2 MSTORE PUSH1 0x4 ADD DUP1 DUP1 PUSH1 0x20 ADD DUP3 DUP2 SUB DUP3 MSTORE PUSH1 0x26 DUP2 MSTORE PUSH1 0x20 ADD DUP1 PUSH2 0x32F2 PUSH1 0x26 SWAP2 CODECOPY PUSH1 0x40 ADD SWAP2 POP POP PUSH1 0x40 MLOAD DUP1 SWAP2 SUB SWAP1 REVERT JUMPDEST PUSH2 0x13C0 DUP7 DUP7 PUSH1 0x0 DUP2 DUP2 LT PUSH2 0x130B JUMPI INVALID JUMPDEST SWAP1 POP PUSH1 0x20 MUL ADD CALLDATALOAD PUSH20 0xFFFFFFFFFFFFFFFFFFFFFFFFFFFFFFFFFFFFFFFF AND CALLER PUSH2 0x13A6 PUSH32 0x0 DUP11 DUP11 PUSH1 0x0 DUP2 DUP2 LT PUSH2 0x135A JUMPI INVALID JUMPDEST SWAP1 POP PUSH1 0x20 MUL ADD CALLDATALOAD PUSH20 0xFFFFFFFFFFFFFFFFFFFFFFFFFFFFFFFFFFFFFFFF AND DUP12 DUP12 PUSH1 0x1 DUP2 DUP2 LT PUSH2 0x1384 JUMPI INVALID JUMPDEST SWAP1 POP PUSH1 0x20 MUL ADD CALLDATALOAD PUSH20 0xFFFFFFFFFFFFFFFFFFFFFFFFFFFFFFFFFFFFFFFF AND PUSH2 0x1C5C JUMP JUMPDEST DUP6 PUSH1 0x0 DUP2 MLOAD DUP2 LT PUSH2 0x13B3 JUMPI INVALID JUMPDEST PUSH1 0x20 MUL PUSH1 0x20 ADD ADD MLOAD PUSH2 0x1F2F JUMP JUMPDEST PUSH2 0x140C DUP3 DUP8 DUP8 DUP1 DUP1 PUSH1 0x20 MUL PUSH1 0x20 ADD PUSH1 0x40 MLOAD SWAP1 DUP2 ADD PUSH1 0x40 MSTORE DUP1 SWAP4 SWAP3 SWAP2 SWAP1 DUP2 DUP2 MSTORE PUSH1 0x20 ADD DUP4 DUP4 PUSH1 0x20 MUL DUP1 DUP3 DUP5 CALLDATACOPY PUSH1 0x0 DUP2 DUP5 ADD MSTORE PUSH1 0x1F NOT PUSH1 0x1F DUP3 ADD AND SWAP1 POP DUP1 DUP4 ADD SWAP3 POP POP POP POP POP POP POP DUP7 PUSH2 0x2140 JUMP JUMPDEST POP SWAP7 SWAP6 POP POP POP POP POP POP JUMP JUMPDEST PUSH1 0x0 PUSH2 0x1424 DUP5 DUP5 DUP5 PUSH2 0x2A22 JUMP JUMPDEST SWAP1 POP SWAP4 SWAP3 POP POP POP JUMP JUMPDEST PUSH1 0x0 DUP1 DUP3 TIMESTAMP DUP2 LT ISZERO PUSH2 0x14A7 JUMPI PUSH1 0x40 MLOAD PUSH32 0x8C379A000000000000000000000000000000000000000000000000000000000 DUP2 MSTORE PUSH1 0x4 ADD DUP1 DUP1 PUSH1 0x20 ADD DUP3 DUP2 SUB DUP3 MSTORE PUSH1 0x17 DUP2 MSTORE PUSH1 0x20 ADD DUP1 PUSH32 0x59756E6173776170526F757465723A2045585049524544000000000000000000 DUP2 MSTORE POP PUSH1 0x20 ADD SWAP2 POP POP PUSH1 0x40 MLOAD DUP1 SWAP2 SUB SWAP1 REVERT JUMPDEST PUSH1 0x0 PUSH2 0x14D4 PUSH32 0x0 DUP13 DUP13 PUSH2 0x1C5C JUMP JUMPDEST SWAP1 POP DUP1 PUSH20 0xFFFFFFFFFFFFFFFFFFFFFFFFFFFFFFFFFFFFFFFF AND PUSH4 0x23B872DD CALLER DUP4 DUP13 PUSH1 0x40 MLOAD DUP5 PUSH4 0xFFFFFFFF AND PUSH1 0xE0 SHL DUP2 MSTORE PUSH1 0x4 ADD DUP1 DUP5 PUSH20 0xFFFFFFFFFFFFFFFFFFFFFFFFFFFFFFFFFFFFFFFF AND PUSH20 0xFFFFFFFFFFFFFFFFFFFFFFFFFFFFFFFFFFFFFFFF AND DUP2 MSTORE PUSH1 0x20 ADD DUP4 PUSH20 0xFFFFFFFFFFFFFFFFFFFFFFFFFFFFFFFFFFFFFFFF AND PUSH20 0xFFFFFFFFFFFFFFFFFFFFFFFFFFFFFFFFFFFFFFFF AND DUP2 MSTORE PUSH1 0x20 ADD DUP3 DUP2 MSTORE PUSH1 0x20 ADD SWAP4 POP POP POP POP PUSH1 0x20 PUSH1 0x40 MLOAD DUP1 DUP4 SUB DUP2 PUSH1 0x0 DUP8 DUP1 EXTCODESIZE ISZERO DUP1 ISZERO PUSH2 0x1591 JUMPI PUSH1 0x0 DUP1 REVERT JUMPDEST POP GAS CALL ISZERO DUP1 ISZERO PUSH2 0x15A5 JUMPI RETURNDATASIZE PUSH1 0x0 DUP1 RETURNDATACOPY RETURNDATASIZE PUSH1 0x0 REVERT JUMPDEST POP POP POP POP PUSH1 0x40 MLOAD RETURNDATASIZE PUSH1 0x20 DUP2 LT ISZERO PUSH2 0x15BB JUMPI PUSH1 0x0 DUP1 REVERT JUMPDEST DUP2 ADD SWAP1 DUP1 DUP1 MLOAD SWAP1 PUSH1 0x20 ADD SWAP1 SWAP3 SWAP2 SWAP1 POP POP POP POP PUSH1 0x0 DUP1 DUP3 PUSH20 0xFFFFFFFFFFFFFFFFFFFFFFFFFFFFFFFFFFFFFFFF AND PUSH4 0x89AFCB44 DUP10 PUSH1 0x40 MLOAD DUP3 PUSH4 0xFFFFFFFF AND PUSH1 0xE0 SHL DUP2 MSTORE PUSH1 0x4 ADD DUP1 DUP3 PUSH20 0xFFFFFFFFFFFFFFFFFFFFFFFFFFFFFFFFFFFFFFFF AND PUSH20 0xFFFFFFFFFFFFFFFFFFFFFFFFFFFFFFFFFFFFFFFF AND DUP2 MSTORE PUSH1 0x20 ADD SWAP2 POP POP PUSH1 0x40 DUP1 MLOAD DUP1 DUP4 SUB DUP2 PUSH1 0x0 DUP8 DUP1 EXTCODESIZE ISZERO DUP1 ISZERO PUSH2 0x164E JUMPI PUSH1 0x0 DUP1 REVERT JUMPDEST POP GAS CALL ISZERO DUP1 ISZERO PUSH2 0x1662 JUMPI RETURNDATASIZE PUSH1 0x0 DUP1 RETURNDATACOPY RETURNDATASIZE PUSH1 0x0 REVERT JUMPDEST POP POP POP POP PUSH1 0x40 MLOAD RETURNDATASIZE PUSH1 0x40 DUP2 LT ISZERO PUSH2 0x1678 JUMPI PUSH1 0x0 DUP1 REVERT JUMPDEST DUP2 ADD SWAP1 DUP1 DUP1 MLOAD SWAP1 PUSH1 0x20 ADD SWAP1 SWAP3 SWAP2 SWAP1 DUP1 MLOAD SWAP1 PUSH1 0x20 ADD SWAP1 SWAP3 SWAP2 SWAP1 POP POP POP SWAP2 POP SWAP2 POP PUSH1 0x0 PUSH2 0x16A3 DUP15 DUP15 PUSH2 0x2B06 JUMP JUMPDEST POP SWAP1 POP DUP1 PUSH20 0xFFFFFFFFFFFFFFFFFFFFFFFFFFFFFFFFFFFFFFFF AND DUP15 PUSH20 0xFFFFFFFFFFFFFFFFFFFFFFFFFFFFFFFFFFFFFFFF AND EQ PUSH2 0x16E0 JUMPI DUP2 DUP4 PUSH2 0x16E3 JUMP JUMPDEST DUP3 DUP3 JUMPDEST DUP1 SWAP8 POP DUP2 SWAP9 POP POP POP DUP11 DUP8 LT ISZERO PUSH2 0x1744 JUMPI PUSH1 0x40 MLOAD PUSH32 0x8C379A000000000000000000000000000000000000000000000000000000000 DUP2 MSTORE PUSH1 0x4 ADD DUP1 DUP1 PUSH1 0x20 ADD DUP3 DUP2 SUB DUP3 MSTORE PUSH1 0x25 DUP2 MSTORE PUSH1 0x20 ADD DUP1 PUSH2 0x338B PUSH1 0x25 SWAP2 CODECOPY PUSH1 0x40 ADD SWAP2 POP POP PUSH1 0x40 MLOAD DUP1 SWAP2 SUB SWAP1 REVERT JUMPDEST DUP10 DUP7 LT ISZERO PUSH2 0x179D JUMPI PUSH1 0x40 MLOAD PUSH32 0x8C379A000000000000000000000000000000000000000000000000000000000 DUP2 MSTORE PUSH1 0x4 ADD DUP1 DUP1 PUSH1 0x20 ADD DUP3 DUP2 SUB DUP3 MSTORE PUSH1 0x25 DUP2 MSTORE PUSH1 0x20 ADD DUP1 PUSH2 0x3318 PUSH1 0x25 SWAP2 CODECOPY PUSH1 0x40 ADD SWAP2 POP POP PUSH1 0x40 MLOAD DUP1 SWAP2 SUB SWAP1 REVERT JUMPDEST POP POP POP POP POP SWAP8 POP SWAP8 SWAP6 POP POP POP POP POP POP JUMP JUMPDEST PUSH32 0x0 DUP2 JUMP JUMPDEST PUSH1 0x60 PUSH2 0x17FF PUSH32 0x0 DUP5 DUP5 PUSH2 0x1DB7 JUMP JUMPDEST SWAP1 POP SWAP3 SWAP2 POP POP JUMP JUMPDEST PUSH1 0x0 DUP1 PUSH1 0x0 DUP4 TIMESTAMP DUP2 LT ISZERO PUSH2 0x1883 JUMPI PUSH1 0x40 MLOAD PUSH32 0x8C379A000000000000000000000000000000000000000000000000000000000 DUP2 MSTORE PUSH1 0x4 ADD DUP1 DUP1 PUSH1 0x20 ADD DUP3 DUP2 SUB DUP3 MSTORE PUSH1 0x17 DUP2 MSTORE PUSH1 0x20 ADD DUP1 PUSH32 0x59756E6173776170526F757465723A2045585049524544000000000000000000 DUP2 MSTORE POP PUSH1 0x20 ADD SWAP2 POP POP PUSH1 0x40 MLOAD DUP1 SWAP2 SUB SWAP1 REVERT JUMPDEST PUSH2 0x1891 DUP13 DUP13 DUP13 DUP13 DUP13 DUP13 PUSH2 0x2C7D JUMP JUMPDEST DUP1 SWAP5 POP DUP2 SWAP6 POP POP POP PUSH1 0x0 PUSH2 0x18C6 PUSH32 0x0 DUP15 DUP15 PUSH2 0x1C5C JUMP JUMPDEST SWAP1 POP PUSH2 0x18D4 DUP14 CALLER DUP4 DUP9 PUSH2 0x1F2F JUMP JUMPDEST PUSH2 0x18E0 DUP13 CALLER DUP4 DUP8 PUSH2 0x1F2F JUMP JUMPDEST DUP1 PUSH20 0xFFFFFFFFFFFFFFFFFFFFFFFFFFFFFFFFFFFFFFFF AND PUSH4 0x6A627842 DUP9 PUSH1 0x40 MLOAD DUP3 PUSH4 0xFFFFFFFF AND PUSH1 0xE0 SHL DUP2 MSTORE PUSH1 0x4 ADD DUP1 DUP3 PUSH20 0xFFFFFFFFFFFFFFFFFFFFFFFFFFFFFFFFFFFFFFFF AND PUSH20 0xFFFFFFFFFFFFFFFFFFFFFFFFFFFFFFFFFFFFFFFF AND DUP2 MSTORE PUSH1 0x20 ADD SWAP2 POP POP PUSH1 0x20 PUSH1 0x40 MLOAD DUP1 DUP4 SUB DUP2 PUSH1 0x0 DUP8 DUP1 EXTCODESIZE ISZERO DUP1 ISZERO PUSH2 0x195F JUMPI PUSH1 0x0 DUP1 REVERT JUMPDEST POP GAS CALL ISZERO DUP1 ISZERO PUSH2 0x1973 JUMPI RETURNDATASIZE PUSH1 0x0 DUP1 RETURNDATACOPY RETURNDATASIZE PUSH1 0x0 REVERT JUMPDEST POP POP POP POP PUSH1 0x40 MLOAD RETURNDATASIZE PUSH1 0x20 DUP2 LT ISZERO PUSH2 0x1989 JUMPI PUSH1 0x0 DUP1 REVERT JUMPDEST DUP2 ADD SWAP1 DUP1 DUP1 MLOAD SWAP1 PUSH1 0x20 ADD SWAP1 SWAP3 SWAP2 SWAP1 POP POP POP SWAP3 POP POP POP SWAP9 POP SWAP9 POP SWAP9 SWAP6 POP POP POP POP POP POP JUMP JUMPDEST PUSH1 0x0 DUP1 DUP5 GT PUSH2 0x1A06 JUMPI PUSH1 0x40 MLOAD PUSH32 0x8C379A000000000000000000000000000000000000000000000000000000000 DUP2 MSTORE PUSH1 0x4 ADD DUP1 DUP1 PUSH1 0x20 ADD DUP3 DUP2 SUB DUP3 MSTORE PUSH1 0x2A DUP2 MSTORE PUSH1 0x20 ADD DUP1 PUSH2 0x3273 PUSH1 0x2A SWAP2 CODECOPY PUSH1 0x40 ADD SWAP2 POP POP PUSH1 0x40 MLOAD DUP1 SWAP2 SUB SWAP1 REVERT JUMPDEST PUSH1 0x0 DUP4 GT DUP1 ISZERO PUSH2 0x1A16 JUMPI POP PUSH1 0x0 DUP3 GT JUMPDEST PUSH2 0x1A6B JUMPI PUSH1 0x40 MLOAD PUSH32 0x8C379A000000000000000000000000000000000000000000000000000000000 DUP2 MSTORE PUSH1 0x4 ADD DUP1 DUP1 PUSH1 0x20 ADD DUP3 DUP2 SUB DUP3 MSTORE PUSH1 0x27 DUP2 MSTORE PUSH1 0x20 ADD DUP1 PUSH2 0x33DB PUSH1 0x27 SWAP2 CODECOPY PUSH1 0x40 ADD SWAP2 POP POP PUSH1 0x40 MLOAD DUP1 SWAP2 SUB SWAP1 REVERT JUMPDEST PUSH1 0x0 PUSH2 0x1A82 PUSH2 0x3E3 DUP7 PUSH2 0x3031 SWAP1 SWAP2 SWAP1 PUSH4 0xFFFFFFFF AND JUMP JUMPDEST SWAP1 POP PUSH1 0x0 PUSH2 0x1A99 DUP5 DUP4 PUSH2 0x3031 SWAP1 SWAP2 SWAP1 PUSH4 0xFFFFFFFF AND JUMP JUMPDEST SWAP1 POP PUSH1 0x0 PUSH2 0x1AC4 DUP4 PUSH2 0x1AB6 PUSH2 0x3E8 DUP10 PUSH2 0x3031 SWAP1 SWAP2 SWAP1 PUSH4 0xFFFFFFFF AND JUMP JUMPDEST PUSH2 0x30C6 SWAP1 SWAP2 SWAP1 PUSH4 0xFFFFFFFF AND JUMP JUMPDEST SWAP1 POP DUP1 DUP3 DUP2 PUSH2 0x1ACF JUMPI INVALID JUMPDEST DIV SWAP4 POP POP POP POP SWAP4 SWAP3 POP POP POP JUMP JUMPDEST PUSH1 0x60 PUSH1 0x2 DUP3 MLOAD LT ISZERO PUSH2 0x1B56 JUMPI PUSH1 0x40 MLOAD PUSH32 0x8C379A000000000000000000000000000000000000000000000000000000000 DUP2 MSTORE PUSH1 0x4 ADD DUP1 DUP1 PUSH1 0x20 ADD DUP3 DUP2 SUB DUP3 MSTORE PUSH1 0x1D DUP2 MSTORE PUSH1 0x20 ADD DUP1 PUSH32 0x59756E61737761704C6962726172793A20494E56414C49445F50415448000000 DUP2 MSTORE POP PUSH1 0x20 ADD SWAP2 POP POP PUSH1 0x40 MLOAD DUP1 SWAP2 SUB SWAP1 REVERT JUMPDEST DUP2 MLOAD PUSH8 0xFFFFFFFFFFFFFFFF DUP2 GT DUP1 ISZERO PUSH2 0x1B6E JUMPI PUSH1 0x0 DUP1 REVERT JUMPDEST POP PUSH1 0x40 MLOAD SWAP1 DUP1 DUP3 MSTORE DUP1 PUSH1 0x20 MUL PUSH1 0x20 ADD DUP3 ADD PUSH1 0x40 MSTORE DUP1 ISZERO PUSH2 0x1B9D JUMPI DUP2 PUSH1 0x20 ADD PUSH1 0x20 DUP3 MUL DUP1 CALLDATASIZE DUP4 CALLDATACOPY DUP1 DUP3 ADD SWAP2 POP POP SWAP1 POP JUMPDEST POP SWAP1 POP DUP3 DUP2 PUSH1 0x1 DUP4 MLOAD SUB DUP2 MLOAD DUP2 LT PUSH2 0x1BB1 JUMPI INVALID JUMPDEST PUSH1 0x20 MUL PUSH1 0x20 ADD ADD DUP2 DUP2 MSTORE POP POP PUSH1 0x0 PUSH1 0x1 DUP4 MLOAD SUB SWAP1 POP JUMPDEST PUSH1 0x0 DUP2 GT ISZERO PUSH2 0x1C54 JUMPI PUSH1 0x0 DUP1 PUSH2 0x1C07 DUP8 DUP7 PUSH1 0x1 DUP7 SUB DUP2 MLOAD DUP2 LT PUSH2 0x1BE6 JUMPI INVALID JUMPDEST PUSH1 0x20 MUL PUSH1 0x20 ADD ADD MLOAD DUP8 DUP7 DUP2 MLOAD DUP2 LT PUSH2 0x1BFA JUMPI INVALID JUMPDEST PUSH1 0x20 MUL PUSH1 0x20 ADD ADD MLOAD PUSH2 0x3149 JUMP JUMPDEST SWAP2 POP SWAP2 POP PUSH2 0x1C29 DUP5 DUP5 DUP2 MLOAD DUP2 LT PUSH2 0x1C1A JUMPI INVALID JUMPDEST PUSH1 0x20 MUL PUSH1 0x20 ADD ADD MLOAD DUP4 DUP4 PUSH2 0x28E5 JUMP JUMPDEST DUP5 PUSH1 0x1 DUP6 SUB DUP2 MLOAD DUP2 LT PUSH2 0x1C38 JUMPI INVALID JUMPDEST PUSH1 0x20 MUL PUSH1 0x20 ADD ADD DUP2 DUP2 MSTORE POP POP POP POP DUP1 DUP1 PUSH1 0x1 SWAP1 SUB SWAP2 POP POP PUSH2 0x1BC7 JUMP JUMPDEST POP SWAP4 SWAP3 POP POP POP JUMP JUMPDEST PUSH1 0x0 DUP1 PUSH1 0x0 PUSH2 0x1C6B DUP6 DUP6 PUSH2 0x2B06 JUMP JUMPDEST SWAP2 POP SWAP2 POP DUP6 DUP3 DUP3 PUSH1 0x40 MLOAD PUSH1 0x20 ADD DUP1 DUP4 PUSH20 0xFFFFFFFFFFFFFFFFFFFFFFFFFFFFFFFFFFFFFFFF AND PUSH20 0xFFFFFFFFFFFFFFFFFFFFFFFFFFFFFFFFFFFFFFFF AND PUSH1 0x60 SHL DUP2 MSTORE PUSH1 0x14 ADD DUP3 PUSH20 0xFFFFFFFFFFFFFFFFFFFFFFFFFFFFFFFFFFFFFFFF AND PUSH20 0xFFFFFFFFFFFFFFFFFFFFFFFFFFFFFFFFFFFFFFFF AND PUSH1 0x60 SHL DUP2 MSTORE PUSH1 0x14 ADD SWAP3 POP POP POP PUSH1 0x40 MLOAD PUSH1 0x20 DUP2 DUP4 SUB SUB DUP2 MSTORE SWAP1 PUSH1 0x40 MSTORE DUP1 MLOAD SWAP1 PUSH1 0x20 ADD KECCAK256 PUSH1 0x40 MLOAD PUSH1 0x20 ADD DUP1 DUP1 PUSH32 0xFF00000000000000000000000000000000000000000000000000000000000000 DUP2 MSTORE POP PUSH1 0x1 ADD DUP4 PUSH20 0xFFFFFFFFFFFFFFFFFFFFFFFFFFFFFFFFFFFFFFFF AND PUSH20 0xFFFFFFFFFFFFFFFFFFFFFFFFFFFFFFFFFFFFFFFF AND PUSH1 0x60 SHL DUP2 MSTORE PUSH1 0x14 ADD DUP3 DUP2 MSTORE PUSH1 0x20 ADD DUP1 PUSH32 0x73BC03F6DF04156B0828924048B47B3CA57A376CE038DB1C0E2A37473927BEBF DUP2 MSTORE POP PUSH1 0x20 ADD SWAP3 POP POP POP PUSH1 0x40 MLOAD PUSH1 0x20 DUP2 DUP4 SUB SUB DUP2 MSTORE SWAP1 PUSH1 0x40 MSTORE DUP1 MLOAD SWAP1 PUSH1 0x20 ADD KECCAK256 PUSH1 0x0 SHR SWAP3 POP POP POP SWAP4 SWAP3 POP POP POP JUMP JUMPDEST PUSH1 0x60 PUSH1 0x2 DUP3 MLOAD LT ISZERO PUSH2 0x1E31 JUMPI PUSH1 0x40 MLOAD PUSH32 0x8C379A000000000000000000000000000000000000000000000000000000000 DUP2 MSTORE PUSH1 0x4 ADD DUP1 DUP1 PUSH1 0x20 ADD DUP3 DUP2 SUB DUP3 MSTORE PUSH1 0x1D DUP2 MSTORE PUSH1 0x20 ADD DUP1 PUSH32 0x59756E61737761704C6962726172793A20494E56414C49445F50415448000000 DUP2 MSTORE POP PUSH1 0x20 ADD SWAP2 POP POP PUSH1 0x40 MLOAD DUP1 SWAP2 SUB SWAP1 REVERT JUMPDEST DUP2 MLOAD PUSH8 0xFFFFFFFFFFFFFFFF DUP2 GT DUP1 ISZERO PUSH2 0x1E49 JUMPI PUSH1 0x0 DUP1 REVERT JUMPDEST POP PUSH1 0x40 MLOAD SWAP1 DUP1 DUP3 MSTORE DUP1 PUSH1 0x20 MUL PUSH1 0x20 ADD DUP3 ADD PUSH1 0x40 MSTORE DUP1 ISZERO PUSH2 0x1E78 JUMPI DUP2 PUSH1 0x20 ADD PUSH1 0x20 DUP3 MUL DUP1 CALLDATASIZE DUP4 CALLDATACOPY DUP1 DUP3 ADD SWAP2 POP POP SWAP1 POP JUMPDEST POP SWAP1 POP DUP3 DUP2 PUSH1 0x0 DUP2 MLOAD DUP2 LT PUSH2 0x1E89 JUMPI INVALID JUMPDEST PUSH1 0x20 MUL PUSH1 0x20 ADD ADD DUP2 DUP2 MSTORE POP POP PUSH1 0x0 JUMPDEST PUSH1 0x1 DUP4 MLOAD SUB DUP2 LT ISZERO PUSH2 0x1F27 JUMPI PUSH1 0x0 DUP1 PUSH2 0x1EDB DUP8 DUP7 DUP6 DUP2 MLOAD DUP2 LT PUSH2 0x1EB7 JUMPI INVALID JUMPDEST PUSH1 0x20 MUL PUSH1 0x20 ADD ADD MLOAD DUP8 PUSH1 0x1 DUP8 ADD DUP2 MLOAD DUP2 LT PUSH2 0x1ECE JUMPI INVALID JUMPDEST PUSH1 0x20 MUL PUSH1 0x20 ADD ADD MLOAD PUSH2 0x3149 JUMP JUMPDEST SWAP2 POP SWAP2 POP PUSH2 0x1EFD DUP5 DUP5 DUP2 MLOAD DUP2 LT PUSH2 0x1EEE JUMPI INVALID JUMPDEST PUSH1 0x20 MUL PUSH1 0x20 ADD ADD MLOAD DUP4 DUP4 PUSH2 0x19AC JUMP JUMPDEST DUP5 PUSH1 0x1 DUP6 ADD DUP2 MLOAD DUP2 LT PUSH2 0x1F0C JUMPI INVALID JUMPDEST PUSH1 0x20 MUL PUSH1 0x20 ADD ADD DUP2 DUP2 MSTORE POP POP POP POP DUP1 DUP1 PUSH1 0x1 ADD SWAP2 POP POP PUSH2 0x1E98 JUMP JUMPDEST POP SWAP4 SWAP3 POP POP POP JUMP JUMPDEST PUSH1 0x0 PUSH1 0x60 DUP6 PUSH20 0xFFFFFFFFFFFFFFFFFFFFFFFFFFFFFFFFFFFFFFFF AND PUSH4 0x23B872DD DUP7 DUP7 DUP7 PUSH1 0x40 MLOAD PUSH1 0x24 ADD DUP1 DUP5 PUSH20 0xFFFFFFFFFFFFFFFFFFFFFFFFFFFFFFFFFFFFFFFF AND PUSH20 0xFFFFFFFFFFFFFFFFFFFFFFFFFFFFFFFFFFFFFFFF AND DUP2 MSTORE PUSH1 0x20 ADD DUP4 PUSH20 0xFFFFFFFFFFFFFFFFFFFFFFFFFFFFFFFFFFFFFFFF AND PUSH20 0xFFFFFFFFFFFFFFFFFFFFFFFFFFFFFFFFFFFFFFFF AND DUP2 MSTORE PUSH1 0x20 ADD DUP3 DUP2 MSTORE PUSH1 0x20 ADD SWAP4 POP POP POP POP PUSH1 0x40 MLOAD PUSH1 0x20 DUP2 DUP4 SUB SUB DUP2 MSTORE SWAP1 PUSH1 0x40 MSTORE SWAP1 PUSH1 0xE0 SHL PUSH1 0x20 DUP3 ADD DUP1 MLOAD PUSH28 0xFFFFFFFFFFFFFFFFFFFFFFFFFFFFFFFFFFFFFFFFFFFFFFFFFFFFFFFF DUP4 DUP2 DUP4 AND OR DUP4 MSTORE POP POP POP POP PUSH1 0x40 MLOAD DUP1 DUP3 DUP1 MLOAD SWAP1 PUSH1 0x20 ADD SWAP1 DUP1 DUP4 DUP4 JUMPDEST PUSH1 0x20 DUP4 LT PUSH2 0x203C JUMPI DUP1 MLOAD DUP3 MSTORE PUSH1 0x20 DUP3 ADD SWAP2 POP PUSH1 0x20 DUP2 ADD SWAP1 POP PUSH1 0x20 DUP4 SUB SWAP3 POP PUSH2 0x2019 JUMP JUMPDEST PUSH1 0x1 DUP4 PUSH1 0x20 SUB PUSH2 0x100 EXP SUB DUP1 NOT DUP3 MLOAD AND DUP2 DUP5 MLOAD AND DUP1 DUP3 OR DUP6 MSTORE POP POP POP POP POP POP SWAP1 POP ADD SWAP2 POP POP PUSH1 0x0 PUSH1 0x40 MLOAD DUP1 DUP4 SUB DUP2 PUSH1 0x0 DUP7 GAS CALL SWAP2 POP POP RETURNDATASIZE DUP1 PUSH1 0x0 DUP2 EQ PUSH2 0x209E JUMPI PUSH1 0x40 MLOAD SWAP2 POP PUSH1 0x1F NOT PUSH1 0x3F RETURNDATASIZE ADD AND DUP3 ADD PUSH1 0x40 MSTORE RETURNDATASIZE DUP3 MSTORE RETURNDATASIZE PUSH1 0x0 PUSH1 0x20 DUP5 ADD RETURNDATACOPY PUSH2 0x20A3 JUMP JUMPDEST PUSH1 0x60 SWAP2 POP JUMPDEST POP SWAP2 POP SWAP2 POP DUP2 DUP1 ISZERO PUSH2 0x20E3 JUMPI POP PUSH1 0x0 DUP2 MLOAD EQ DUP1 PUSH2 0x20E2 JUMPI POP DUP1 DUP1 PUSH1 0x20 ADD SWAP1 MLOAD PUSH1 0x20 DUP2 LT ISZERO PUSH2 0x20D0 JUMPI PUSH1 0x0 DUP1 REVERT JUMPDEST DUP2 ADD SWAP1 DUP1 DUP1 MLOAD SWAP1 PUSH1 0x20 ADD SWAP1 SWAP3 SWAP2 SWAP1 POP POP POP JUMPDEST JUMPDEST PUSH2 0x2138 JUMPI PUSH1 0x40 MLOAD PUSH32 0x8C379A000000000000000000000000000000000000000000000000000000000 DUP2 MSTORE PUSH1 0x4 ADD DUP1 DUP1 PUSH1 0x20 ADD DUP3 DUP2 SUB DUP3 MSTORE PUSH1 0x31 DUP2 MSTORE PUSH1 0x20 ADD DUP1 PUSH2 0x32C1 PUSH1 0x31 SWAP2 CODECOPY PUSH1 0x40 ADD SWAP2 POP POP PUSH1 0x40 MLOAD DUP1 SWAP2 SUB SWAP1 REVERT JUMPDEST POP POP POP POP POP POP JUMP JUMPDEST PUSH1 0x0 JUMPDEST PUSH1 0x1 DUP4 MLOAD SUB DUP2 LT ISZERO PUSH2 0x23E5 JUMPI PUSH1 0x0 DUP1 DUP5 DUP4 DUP2 MLOAD DUP2 LT PUSH2 0x215E JUMPI INVALID JUMPDEST PUSH1 0x20 MUL PUSH1 0x20 ADD ADD MLOAD DUP6 PUSH1 0x1 DUP6 ADD DUP2 MLOAD DUP2 LT PUSH2 0x2175 JUMPI INVALID JUMPDEST PUSH1 0x20 MUL PUSH1 0x20 ADD ADD MLOAD SWAP2 POP SWAP2 POP PUSH1 0x0 PUSH2 0x218D DUP4 DUP4 PUSH2 0x2B06 JUMP JUMPDEST POP SWAP1 POP PUSH1 0x0 DUP8 PUSH1 0x1 DUP7 ADD DUP2 MLOAD DUP2 LT PUSH2 0x21A1 JUMPI INVALID JUMPDEST PUSH1 0x20 MUL PUSH1 0x20 ADD ADD MLOAD SWAP1 POP PUSH1 0x0 DUP1 DUP4 PUSH20 0xFFFFFFFFFFFFFFFFFFFFFFFFFFFFFFFFFFFFFFFF AND DUP7 PUSH20 0xFFFFFFFFFFFFFFFFFFFFFFFFFFFFFFFFFFFFFFFF AND EQ PUSH2 0x21E9 JUMPI DUP3 PUSH1 0x0 PUSH2 0x21ED JUMP JUMPDEST PUSH1 0x0 DUP4 JUMPDEST SWAP2 POP SWAP2 POP PUSH1 0x0 PUSH1 0x2 DUP11 MLOAD SUB DUP9 LT PUSH2 0x2204 JUMPI DUP9 PUSH2 0x2246 JUMP JUMPDEST PUSH2 0x2245 PUSH32 0x0 DUP8 DUP13 PUSH1 0x2 DUP13 ADD DUP2 MLOAD DUP2 LT PUSH2 0x2238 JUMPI INVALID JUMPDEST PUSH1 0x20 MUL PUSH1 0x20 ADD ADD MLOAD PUSH2 0x1C5C JUMP JUMPDEST JUMPDEST SWAP1 POP PUSH2 0x2273 PUSH32 0x0 DUP9 DUP9 PUSH2 0x1C5C JUMP JUMPDEST PUSH20 0xFFFFFFFFFFFFFFFFFFFFFFFFFFFFFFFFFFFFFFFF AND PUSH4 0x22C0D9F DUP5 DUP5 DUP5 PUSH1 0x0 PUSH8 0xFFFFFFFFFFFFFFFF DUP2 GT DUP1 ISZERO PUSH2 0x22A9 JUMPI PUSH1 0x0 DUP1 REVERT JUMPDEST POP PUSH1 0x40 MLOAD SWAP1 DUP1 DUP3 MSTORE DUP1 PUSH1 0x1F ADD PUSH1 0x1F NOT AND PUSH1 0x20 ADD DUP3 ADD PUSH1 0x40 MSTORE DUP1 ISZERO PUSH2 0x22DC JUMPI DUP2 PUSH1 0x20 ADD PUSH1 0x1 DUP3 MUL DUP1 CALLDATASIZE DUP4 CALLDATACOPY DUP1 DUP3 ADD SWAP2 POP POP SWAP1 POP JUMPDEST POP PUSH1 0x40 MLOAD DUP6 PUSH4 0xFFFFFFFF AND PUSH1 0xE0 SHL DUP2 MSTORE PUSH1 0x4 ADD DUP1 DUP6 DUP2 MSTORE PUSH1 0x20 ADD DUP5 DUP2 MSTORE PUSH1 0x20 ADD DUP4 PUSH20 0xFFFFFFFFFFFFFFFFFFFFFFFFFFFFFFFFFFFFFFFF AND PUSH20 0xFFFFFFFFFFFFFFFFFFFFFFFFFFFFFFFFFFFFFFFF AND DUP2 MSTORE PUSH1 0x20 ADD DUP1 PUSH1 0x20 ADD DUP3 DUP2 SUB DUP3 MSTORE DUP4 DUP2 DUP2 MLOAD DUP2 MSTORE PUSH1 0x20 ADD SWAP2 POP DUP1 MLOAD SWAP1 PUSH1 0x20 ADD SWAP1 DUP1 DUP4 DUP4 PUSH1 0x0 JUMPDEST DUP4 DUP2 LT ISZERO PUSH2 0x236A JUMPI DUP1 DUP3 ADD MLOAD DUP2 DUP5 ADD MSTORE PUSH1 0x20 DUP2 ADD SWAP1 POP PUSH2 0x234F JUMP JUMPDEST POP POP POP POP SWAP1 POP SWAP1 DUP2 ADD SWAP1 PUSH1 0x1F AND DUP1 ISZERO PUSH2 0x2397 JUMPI DUP1 DUP3 SUB DUP1 MLOAD PUSH1 0x1 DUP4 PUSH1 0x20 SUB PUSH2 0x100 EXP SUB NOT AND DUP2 MSTORE PUSH1 0x20 ADD SWAP2 POP JUMPDEST POP SWAP6 POP POP POP POP POP POP PUSH1 0x0 PUSH1 0x40 MLOAD DUP1 DUP4 SUB DUP2 PUSH1 0x0 DUP8 DUP1 EXTCODESIZE ISZERO DUP1 ISZERO PUSH2 0x23B9 JUMPI PUSH1 0x0 DUP1 REVERT JUMPDEST POP GAS CALL ISZERO DUP1 ISZERO PUSH2 0x23CD JUMPI RETURNDATASIZE PUSH1 0x0 DUP1 RETURNDATACOPY RETURNDATASIZE PUSH1 0x0 REVERT JUMPDEST POP POP POP POP POP POP POP POP POP POP POP DUP1 DUP1 PUSH1 0x1 ADD SWAP2 POP POP PUSH2 0x2143 JUMP JUMPDEST POP POP POP POP JUMP JUMPDEST PUSH1 0x0 JUMPDEST PUSH1 0x1 DUP4 MLOAD SUB DUP2 LT ISZERO PUSH2 0x285D JUMPI PUSH1 0x0 DUP1 DUP5 DUP4 DUP2 MLOAD DUP2 LT PUSH2 0x2409 JUMPI INVALID JUMPDEST PUSH1 0x20 MUL PUSH1 0x20 ADD ADD MLOAD DUP6 PUSH1 0x1 DUP6 ADD DUP2 MLOAD DUP2 LT PUSH2 0x2420 JUMPI INVALID JUMPDEST PUSH1 0x20 MUL PUSH1 0x20 ADD ADD MLOAD SWAP2 POP SWAP2 POP PUSH1 0x0 PUSH2 0x2438 DUP4 DUP4 PUSH2 0x2B06 JUMP JUMPDEST POP SWAP1 POP PUSH1 0x0 PUSH2 0x2468 PUSH32 0x0 DUP6 DUP6 PUSH2 0x1C5C JUMP JUMPDEST SWAP1 POP PUSH1 0x0 DUP1 PUSH1 0x0 DUP1 DUP5 PUSH20 0xFFFFFFFFFFFFFFFFFFFFFFFFFFFFFFFFFFFFFFFF AND PUSH4 0x902F1AC PUSH1 0x40 MLOAD DUP2 PUSH4 0xFFFFFFFF AND PUSH1 0xE0 SHL DUP2 MSTORE PUSH1 0x4 ADD PUSH1 0x60 PUSH1 0x40 MLOAD DUP1 DUP4 SUB DUP2 DUP7 DUP1 EXTCODESIZE ISZERO DUP1 ISZERO PUSH2 0x24B6 JUMPI PUSH1 0x0 DUP1 REVERT JUMPDEST POP GAS STATICCALL ISZERO DUP1 ISZERO PUSH2 0x24CA JUMPI RETURNDATASIZE PUSH1 0x0 DUP1 RETURNDATACOPY RETURNDATASIZE PUSH1 0x0 REVERT JUMPDEST POP POP POP POP PUSH1 0x40 MLOAD RETURNDATASIZE PUSH1 0x60 DUP2 LT ISZERO PUSH2 0x24E0 JUMPI PUSH1 0x0 DUP1 REVERT JUMPDEST DUP2 ADD SWAP1 DUP1 DUP1 MLOAD SWAP1 PUSH1 0x20 ADD SWAP1 SWAP3 SWAP2 SWAP1 DUP1 MLOAD SWAP1 PUSH1 0x20 ADD SWAP1 SWAP3 SWAP2 SWAP1 DUP1 MLOAD SWAP1 PUSH1 0x20 ADD SWAP1 SWAP3 SWAP2 SWAP1 POP POP POP POP PUSH14 0xFFFFFFFFFFFFFFFFFFFFFFFFFFFF AND SWAP2 POP PUSH14 0xFFFFFFFFFFFFFFFFFFFFFFFFFFFF AND SWAP2 POP PUSH1 0x0 DUP1 DUP8 PUSH20 0xFFFFFFFFFFFFFFFFFFFFFFFFFFFFFFFFFFFFFFFF AND DUP11 PUSH20 0xFFFFFFFFFFFFFFFFFFFFFFFFFFFFFFFFFFFFFFFF AND EQ PUSH2 0x2567 JUMPI DUP3 DUP5 PUSH2 0x256A JUMP JUMPDEST DUP4 DUP4 JUMPDEST SWAP2 POP SWAP2 POP PUSH2 0x2638 DUP3 DUP12 PUSH20 0xFFFFFFFFFFFFFFFFFFFFFFFFFFFFFFFFFFFFFFFF AND PUSH4 0x70A08231 DUP11 PUSH1 0x40 MLOAD DUP3 PUSH4 0xFFFFFFFF AND PUSH1 0xE0 SHL DUP2 MSTORE PUSH1 0x4 ADD DUP1 DUP3 PUSH20 0xFFFFFFFFFFFFFFFFFFFFFFFFFFFFFFFFFFFFFFFF AND PUSH20 0xFFFFFFFFFFFFFFFFFFFFFFFFFFFFFFFFFFFFFFFF AND DUP2 MSTORE PUSH1 0x20 ADD SWAP2 POP POP PUSH1 0x20 PUSH1 0x40 MLOAD DUP1 DUP4 SUB DUP2 DUP7 DUP1 EXTCODESIZE ISZERO DUP1 ISZERO PUSH2 0x25EF JUMPI PUSH1 0x0 DUP1 REVERT JUMPDEST POP GAS STATICCALL ISZERO DUP1 ISZERO PUSH2 0x2603 JUMPI RETURNDATASIZE PUSH1 0x0 DUP1 RETURNDATACOPY RETURNDATASIZE PUSH1 0x0 REVERT JUMPDEST POP POP POP POP PUSH1 0x40 MLOAD RETURNDATASIZE PUSH1 0x20 DUP2 LT ISZERO PUSH2 0x2619 JUMPI PUSH1 0x0 DUP1 REVERT JUMPDEST DUP2 ADD SWAP1 DUP1 DUP1 MLOAD SWAP1 PUSH1 0x20 ADD SWAP1 SWAP3 SWAP2 SWAP1 POP POP POP PUSH2 0x2862 SWAP1 SWAP2 SWAP1 PUSH4 0xFFFFFFFF AND JUMP JUMPDEST SWAP6 POP PUSH2 0x2645 DUP7 DUP4 DUP4 PUSH2 0x19AC JUMP JUMPDEST SWAP5 POP POP POP POP POP PUSH1 0x0 DUP1 DUP6 PUSH20 0xFFFFFFFFFFFFFFFFFFFFFFFFFFFFFFFFFFFFFFFF AND DUP9 PUSH20 0xFFFFFFFFFFFFFFFFFFFFFFFFFFFFFFFFFFFFFFFF AND EQ PUSH2 0x2689 JUMPI DUP3 PUSH1 0x0 PUSH2 0x268D JUMP JUMPDEST PUSH1 0x0 DUP4 JUMPDEST SWAP2 POP SWAP2 POP PUSH1 0x0 PUSH1 0x2 DUP13 MLOAD SUB DUP11 LT PUSH2 0x26A4 JUMPI DUP11 PUSH2 0x26E6 JUMP JUMPDEST PUSH2 0x26E5 PUSH32 0x0 DUP10 DUP15 PUSH1 0x2 DUP15 ADD DUP2 MLOAD DUP2 LT PUSH2 0x26D8 JUMPI INVALID JUMPDEST PUSH1 0x20 MUL PUSH1 0x20 ADD ADD MLOAD PUSH2 0x1C5C JUMP JUMPDEST JUMPDEST SWAP1 POP DUP6 PUSH20 0xFFFFFFFFFFFFFFFFFFFFFFFFFFFFFFFFFFFFFFFF AND PUSH4 0x22C0D9F DUP5 DUP5 DUP5 PUSH1 0x0 PUSH8 0xFFFFFFFFFFFFFFFF DUP2 GT DUP1 ISZERO PUSH2 0x271F JUMPI PUSH1 0x0 DUP1 REVERT JUMPDEST POP PUSH1 0x40 MLOAD SWAP1 DUP1 DUP3 MSTORE DUP1 PUSH1 0x1F ADD PUSH1 0x1F NOT AND PUSH1 0x20 ADD DUP3 ADD PUSH1 0x40 MSTORE DUP1 ISZERO PUSH2 0x2752 JUMPI DUP2 PUSH1 0x20 ADD PUSH1 0x1 DUP3 MUL DUP1 CALLDATASIZE DUP4 CALLDATACOPY DUP1 DUP3 ADD SWAP2 POP POP SWAP1 POP JUMPDEST POP PUSH1 0x40 MLOAD DUP6 PUSH4 0xFFFFFFFF AND PUSH1 0xE0 SHL DUP2 MSTORE PUSH1 0x4 ADD DUP1 DUP6 DUP2 MSTORE PUSH1 0x20 ADD DUP5 DUP2 MSTORE PUSH1 0x20 ADD DUP4 PUSH20 0xFFFFFFFFFFFFFFFFFFFFFFFFFFFFFFFFFFFFFFFF AND PUSH20 0xFFFFFFFFFFFFFFFFFFFFFFFFFFFFFFFFFFFFFFFF AND DUP2 MSTORE PUSH1 0x20 ADD DUP1 PUSH1 0x20 ADD DUP3 DUP2 SUB DUP3 MSTORE DUP4 DUP2 DUP2 MLOAD DUP2 MSTORE PUSH1 0x20 ADD SWAP2 POP DUP1 MLOAD SWAP1 PUSH1 0x20 ADD SWAP1 DUP1 DUP4 DUP4 PUSH1 0x0 JUMPDEST DUP4 DUP2 LT ISZERO PUSH2 0x27E0 JUMPI DUP1 DUP3 ADD MLOAD DUP2 DUP5 ADD MSTORE PUSH1 0x20 DUP2 ADD SWAP1 POP PUSH2 0x27C5 JUMP JUMPDEST POP POP POP POP SWAP1 POP SWAP1 DUP2 ADD SWAP1 PUSH1 0x1F AND DUP1 ISZERO PUSH2 0x280D JUMPI DUP1 DUP3 SUB DUP1 MLOAD PUSH1 0x1 DUP4 PUSH1 0x20 SUB PUSH2 0x100 EXP SUB NOT AND DUP2 MSTORE PUSH1 0x20 ADD SWAP2 POP JUMPDEST POP SWAP6 POP POP POP POP POP POP PUSH1 0x0 PUSH1 0x40 MLOAD DUP1 DUP4 SUB DUP2 PUSH1 0x0 DUP8 DUP1 EXTCODESIZE ISZERO DUP1 ISZERO PUSH2 0x282F JUMPI PUSH1 0x0 DUP1 REVERT JUMPDEST POP GAS CALL ISZERO DUP1 ISZERO PUSH2 0x2843 JUMPI RETURNDATASIZE PUSH1 0x0 DUP1 RETURNDATACOPY RETURNDATASIZE PUSH1 0x0 REVERT JUMPDEST POP POP POP POP POP POP POP POP POP POP POP POP POP DUP1 DUP1 PUSH1 0x1 ADD SWAP2 POP POP PUSH2 0x23EE JUMP JUMPDEST POP POP POP JUMP JUMPDEST PUSH1 0x0 DUP3 DUP3 DUP5 SUB SWAP2 POP DUP2 GT ISZERO PUSH2 0x28DF JUMPI PUSH1 0x40 MLOAD PUSH32 0x8C379A000000000000000000000000000000000000000000000000000000000 DUP2 MSTORE PUSH1 0x4 ADD DUP1 DUP1 PUSH1 0x20 ADD DUP3 DUP2 SUB DUP3 MSTORE PUSH1 0x15 DUP2 MSTORE PUSH1 0x20 ADD DUP1 PUSH32 0x64732D6D6174682D7375622D756E646572666C6F770000000000000000000000 DUP2 MSTORE POP PUSH1 0x20 ADD SWAP2 POP POP PUSH1 0x40 MLOAD DUP1 SWAP2 SUB SWAP1 REVERT JUMPDEST SWAP3 SWAP2 POP POP JUMP JUMPDEST PUSH1 0x0 DUP1 DUP5 GT PUSH2 0x293F JUMPI PUSH1 0x40 MLOAD PUSH32 0x8C379A000000000000000000000000000000000000000000000000000000000 DUP2 MSTORE PUSH1 0x4 ADD DUP1 DUP1 PUSH1 0x20 ADD DUP3 DUP2 SUB DUP3 MSTORE PUSH1 0x2B DUP2 MSTORE PUSH1 0x20 ADD DUP1 PUSH2 0x33B0 PUSH1 0x2B SWAP2 CODECOPY PUSH1 0x40 ADD SWAP2 POP POP PUSH1 0x40 MLOAD DUP1 SWAP2 SUB SWAP1 REVERT JUMPDEST PUSH1 0x0 DUP4 GT DUP1 ISZERO PUSH2 0x294F JUMPI POP PUSH1 0x0 DUP3 GT JUMPDEST PUSH2 0x29A4 JUMPI PUSH1 0x40 MLOAD PUSH32 0x8C379A000000000000000000000000000000000000000000000000000000000 DUP2 MSTORE PUSH1 0x4 ADD DUP1 DUP1 PUSH1 0x20 ADD DUP3 DUP2 SUB DUP3 MSTORE PUSH1 0x27 DUP2 MSTORE PUSH1 0x20 ADD DUP1 PUSH2 0x33DB PUSH1 0x27 SWAP2 CODECOPY PUSH1 0x40 ADD SWAP2 POP POP PUSH1 0x40 MLOAD DUP1 SWAP2 SUB SWAP1 REVERT JUMPDEST PUSH1 0x0 PUSH2 0x29CD PUSH2 0x3E8 PUSH2 0x29BF DUP8 DUP8 PUSH2 0x3031 SWAP1 SWAP2 SWAP1 PUSH4 0xFFFFFFFF AND JUMP JUMPDEST PUSH2 0x3031 SWAP1 SWAP2 SWAP1 PUSH4 0xFFFFFFFF AND JUMP JUMPDEST SWAP1 POP PUSH1 0x0 PUSH2 0x29F8 PUSH2 0x3E3 PUSH2 0x29EA DUP9 DUP8 PUSH2 0x2862 SWAP1 SWAP2 SWAP1 PUSH4 0xFFFFFFFF AND JUMP JUMPDEST PUSH2 0x3031 SWAP1 SWAP2 SWAP1 PUSH4 0xFFFFFFFF AND JUMP JUMPDEST SWAP1 POP PUSH2 0x2A17 PUSH1 0x1 DUP3 DUP5 DUP2 PUSH2 0x2A08 JUMPI INVALID JUMPDEST DIV PUSH2 0x30C6 SWAP1 SWAP2 SWAP1 PUSH4 0xFFFFFFFF AND JUMP JUMPDEST SWAP3 POP POP POP SWAP4 SWAP3 POP POP POP JUMP JUMPDEST PUSH1 0x0 DUP1 DUP5 GT PUSH2 0x2A7C JUMPI PUSH1 0x40 MLOAD PUSH32 0x8C379A000000000000000000000000000000000000000000000000000000000 DUP2 MSTORE PUSH1 0x4 ADD DUP1 DUP1 PUSH1 0x20 ADD DUP3 DUP2 SUB DUP3 MSTORE PUSH1 0x24 DUP2 MSTORE PUSH1 0x20 ADD DUP1 PUSH2 0x329D PUSH1 0x24 SWAP2 CODECOPY PUSH1 0x40 ADD SWAP2 POP POP PUSH1 0x40 MLOAD DUP1 SWAP2 SUB SWAP1 REVERT JUMPDEST PUSH1 0x0 DUP4 GT DUP1 ISZERO PUSH2 0x2A8C JUMPI POP PUSH1 0x0 DUP3 GT JUMPDEST PUSH2 0x2AE1 JUMPI PUSH1 0x40 MLOAD PUSH32 0x8C379A000000000000000000000000000000000000000000000000000000000 DUP2 MSTORE PUSH1 0x4 ADD DUP1 DUP1 PUSH1 0x20 ADD DUP3 DUP2 SUB DUP3 MSTORE PUSH1 0x27 DUP2 MSTORE PUSH1 0x20 ADD DUP1 PUSH2 0x33DB PUSH1 0x27 SWAP2 CODECOPY PUSH1 0x40 ADD SWAP2 POP POP PUSH1 0x40 MLOAD DUP1 SWAP2 SUB SWAP1 REVERT JUMPDEST DUP3 PUSH2 0x2AF5 DUP4 DUP7 PUSH2 0x3031 SWAP1 SWAP2 SWAP1 PUSH4 0xFFFFFFFF AND JUMP JUMPDEST DUP2 PUSH2 0x2AFC JUMPI INVALID JUMPDEST DIV SWAP1 POP SWAP4 SWAP3 POP POP POP JUMP JUMPDEST PUSH1 0x0 DUP1 DUP3 PUSH20 0xFFFFFFFFFFFFFFFFFFFFFFFFFFFFFFFFFFFFFFFF AND DUP5 PUSH20 0xFFFFFFFFFFFFFFFFFFFFFFFFFFFFFFFFFFFFFFFF AND EQ ISZERO PUSH2 0x2B8E JUMPI PUSH1 0x40 MLOAD PUSH32 0x8C379A000000000000000000000000000000000000000000000000000000000 DUP2 MSTORE PUSH1 0x4 ADD DUP1 DUP1 PUSH1 0x20 ADD DUP3 DUP2 SUB DUP3 MSTORE PUSH1 0x24 DUP2 MSTORE PUSH1 0x20 ADD DUP1 PUSH2 0x3367 PUSH1 0x24 SWAP2 CODECOPY PUSH1 0x40 ADD SWAP2 POP POP PUSH1 0x40 MLOAD DUP1 SWAP2 SUB SWAP1 REVERT JUMPDEST DUP3 PUSH20 0xFFFFFFFFFFFFFFFFFFFFFFFFFFFFFFFFFFFFFFFF AND DUP5 PUSH20 0xFFFFFFFFFFFFFFFFFFFFFFFFFFFFFFFFFFFFFFFF AND LT PUSH2 0x2BC8 JUMPI DUP3 DUP5 PUSH2 0x2BCB JUMP JUMPDEST DUP4 DUP4 JUMPDEST DUP1 SWAP3 POP DUP2 SWAP4 POP POP POP PUSH1 0x0 PUSH20 0xFFFFFFFFFFFFFFFFFFFFFFFFFFFFFFFFFFFFFFFF AND DUP3 PUSH20 0xFFFFFFFFFFFFFFFFFFFFFFFFFFFFFFFFFFFFFFFF AND EQ ISZERO PUSH2 0x2C76 JUMPI PUSH1 0x40 MLOAD PUSH32 0x8C379A000000000000000000000000000000000000000000000000000000000 DUP2 MSTORE PUSH1 0x4 ADD DUP1 DUP1 PUSH1 0x20 ADD DUP3 DUP2 SUB DUP3 MSTORE PUSH1 0x1D DUP2 MSTORE PUSH1 0x20 ADD DUP1 PUSH32 0x59756E61737761704C6962726172793A205A45524F5F41444452455353000000 DUP2 MSTORE POP PUSH1 0x20 ADD SWAP2 POP POP PUSH1 0x40 MLOAD DUP1 SWAP2 SUB SWAP1 REVERT JUMPDEST SWAP3 POP SWAP3 SWAP1 POP JUMP JUMPDEST PUSH1 0x0 DUP1 PUSH1 0x0 PUSH20 0xFFFFFFFFFFFFFFFFFFFFFFFFFFFFFFFFFFFFFFFF AND PUSH32 0x0 PUSH20 0xFFFFFFFFFFFFFFFFFFFFFFFFFFFFFFFFFFFFFFFF AND PUSH4 0xE6A43905 DUP11 DUP11 PUSH1 0x40 MLOAD DUP4 PUSH4 0xFFFFFFFF AND PUSH1 0xE0 SHL DUP2 MSTORE PUSH1 0x4 ADD DUP1 DUP4 PUSH20 0xFFFFFFFFFFFFFFFFFFFFFFFFFFFFFFFFFFFFFFFF AND PUSH20 0xFFFFFFFFFFFFFFFFFFFFFFFFFFFFFFFFFFFFFFFF AND DUP2 MSTORE PUSH1 0x20 ADD DUP3 PUSH20 0xFFFFFFFFFFFFFFFFFFFFFFFFFFFFFFFFFFFFFFFF AND PUSH20 0xFFFFFFFFFFFFFFFFFFFFFFFFFFFFFFFFFFFFFFFF AND DUP2 MSTORE PUSH1 0x20 ADD SWAP3 POP POP POP PUSH1 0x20 PUSH1 0x40 MLOAD DUP1 DUP4 SUB DUP2 DUP7 DUP1 EXTCODESIZE ISZERO DUP1 ISZERO PUSH2 0x2D69 JUMPI PUSH1 0x0 DUP1 REVERT JUMPDEST POP GAS STATICCALL ISZERO DUP1 ISZERO PUSH2 0x2D7D JUMPI RETURNDATASIZE PUSH1 0x0 DUP1 RETURNDATACOPY RETURNDATASIZE PUSH1 0x0 REVERT JUMPDEST POP POP POP POP PUSH1 0x40 MLOAD RETURNDATASIZE PUSH1 0x20 DUP2 LT ISZERO PUSH2 0x2D93 JUMPI PUSH1 0x0 DUP1 REVERT JUMPDEST DUP2 ADD SWAP1 DUP1 DUP1 MLOAD SWAP1 PUSH1 0x20 ADD SWAP1 SWAP3 SWAP2 SWAP1 POP POP POP PUSH20 0xFFFFFFFFFFFFFFFFFFFFFFFFFFFFFFFFFFFFFFFF AND EQ ISZERO PUSH2 0x2ED0 JUMPI PUSH32 0x0 PUSH20 0xFFFFFFFFFFFFFFFFFFFFFFFFFFFFFFFFFFFFFFFF AND PUSH4 0xC9C65396 DUP10 DUP10 PUSH1 0x40 MLOAD DUP4 PUSH4 0xFFFFFFFF AND PUSH1 0xE0 SHL DUP2 MSTORE PUSH1 0x4 ADD DUP1 DUP4 PUSH20 0xFFFFFFFFFFFFFFFFFFFFFFFFFFFFFFFFFFFFFFFF AND PUSH20 0xFFFFFFFFFFFFFFFFFFFFFFFFFFFFFFFFFFFFFFFF AND DUP2 MSTORE PUSH1 0x20 ADD DUP3 PUSH20 0xFFFFFFFFFFFFFFFFFFFFFFFFFFFFFFFFFFFFFFFF AND PUSH20 0xFFFFFFFFFFFFFFFFFFFFFFFFFFFFFFFFFFFFFFFF AND DUP2 MSTORE PUSH1 0x20 ADD SWAP3 POP POP POP PUSH1 0x20 PUSH1 0x40 MLOAD DUP1 DUP4 SUB DUP2 PUSH1 0x0 DUP8 DUP1 EXTCODESIZE ISZERO DUP1 ISZERO PUSH2 0x2E93 JUMPI PUSH1 0x0 DUP1 REVERT JUMPDEST POP GAS CALL ISZERO DUP1 ISZERO PUSH2 0x2EA7 JUMPI RETURNDATASIZE PUSH1 0x0 DUP1 RETURNDATACOPY RETURNDATASIZE PUSH1 0x0 REVERT JUMPDEST POP POP POP POP PUSH1 0x40 MLOAD RETURNDATASIZE PUSH1 0x20 DUP2 LT ISZERO PUSH2 0x2EBD JUMPI PUSH1 0x0 DUP1 REVERT JUMPDEST DUP2 ADD SWAP1 DUP1 DUP1 MLOAD SWAP1 PUSH1 0x20 ADD SWAP1 SWAP3 SWAP2 SWAP1 POP POP POP POP JUMPDEST PUSH1 0x0 DUP1 PUSH2 0x2EFE PUSH32 0x0 DUP12 DUP12 PUSH2 0x3149 JUMP JUMPDEST SWAP2 POP SWAP2 POP PUSH1 0x0 DUP3 EQ DUP1 ISZERO PUSH2 0x2F12 JUMPI POP PUSH1 0x0 DUP2 EQ JUMPDEST ISZERO PUSH2 0x2F26 JUMPI DUP8 DUP8 DUP1 SWAP5 POP DUP2 SWAP6 POP POP POP PUSH2 0x3024 JUMP JUMPDEST PUSH1 0x0 PUSH2 0x2F33 DUP10 DUP5 DUP5 PUSH2 0x2A22 JUMP JUMPDEST SWAP1 POP DUP8 DUP2 GT PUSH2 0x2FA4 JUMPI DUP6 DUP2 LT ISZERO PUSH2 0x2F95 JUMPI PUSH1 0x40 MLOAD PUSH32 0x8C379A000000000000000000000000000000000000000000000000000000000 DUP2 MSTORE PUSH1 0x4 ADD DUP1 DUP1 PUSH1 0x20 ADD DUP3 DUP2 SUB DUP3 MSTORE PUSH1 0x25 DUP2 MSTORE PUSH1 0x20 ADD DUP1 PUSH2 0x3318 PUSH1 0x25 SWAP2 CODECOPY PUSH1 0x40 ADD SWAP2 POP POP PUSH1 0x40 MLOAD DUP1 SWAP2 SUB SWAP1 REVERT JUMPDEST DUP9 DUP2 DUP1 SWAP6 POP DUP2 SWAP7 POP POP POP PUSH2 0x3022 JUMP JUMPDEST PUSH1 0x0 PUSH2 0x2FB1 DUP10 DUP5 DUP7 PUSH2 0x2A22 JUMP JUMPDEST SWAP1 POP DUP10 DUP2 GT ISZERO PUSH2 0x2FBD JUMPI INVALID JUMPDEST DUP8 DUP2 LT ISZERO PUSH2 0x3016 JUMPI PUSH1 0x40 MLOAD PUSH32 0x8C379A000000000000000000000000000000000000000000000000000000000 DUP2 MSTORE PUSH1 0x4 ADD DUP1 DUP1 PUSH1 0x20 ADD DUP3 DUP2 SUB DUP3 MSTORE PUSH1 0x25 DUP2 MSTORE PUSH1 0x20 ADD DUP1 PUSH2 0x338B PUSH1 0x25 SWAP2 CODECOPY PUSH1 0x40 ADD SWAP2 POP POP PUSH1 0x40 MLOAD DUP1 SWAP2 SUB SWAP1 REVERT JUMPDEST DUP1 DUP10 DUP1 SWAP7 POP DUP2 SWAP8 POP POP POP POP JUMPDEST POP JUMPDEST POP POP SWAP7 POP SWAP7 SWAP5 POP POP POP POP POP JUMP JUMPDEST PUSH1 0x0 DUP1 DUP3 EQ DUP1 PUSH2 0x304E JUMPI POP DUP3 DUP3 DUP4 DUP6 MUL SWAP3 POP DUP3 DUP2 PUSH2 0x304B JUMPI INVALID JUMPDEST DIV EQ JUMPDEST PUSH2 0x30C0 JUMPI PUSH1 0x40 MLOAD PUSH32 0x8C379A000000000000000000000000000000000000000000000000000000000 DUP2 MSTORE PUSH1 0x4 ADD DUP1 DUP1 PUSH1 0x20 ADD DUP3 DUP2 SUB DUP3 MSTORE PUSH1 0x14 DUP2 MSTORE PUSH1 0x20 ADD DUP1 PUSH32 0x64732D6D6174682D6D756C2D6F766572666C6F77000000000000000000000000 DUP2 MSTORE POP PUSH1 0x20 ADD SWAP2 POP POP PUSH1 0x40 MLOAD DUP1 SWAP2 SUB SWAP1 REVERT JUMPDEST SWAP3 SWAP2 POP POP JUMP JUMPDEST PUSH1 0x0 DUP3 DUP3 DUP5 ADD SWAP2 POP DUP2 LT ISZERO PUSH2 0x3143 JUMPI PUSH1 0x40 MLOAD PUSH32 0x8C379A000000000000000000000000000000000000000000000000000000000 DUP2 MSTORE PUSH1 0x4 ADD DUP1 DUP1 PUSH1 0x20 ADD DUP3 DUP2 SUB DUP3 MSTORE PUSH1 0x14 DUP2 MSTORE PUSH1 0x20 ADD DUP1 PUSH32 0x64732D6D6174682D6164642D6F766572666C6F77000000000000000000000000 DUP2 MSTORE POP PUSH1 0x20 ADD SWAP2 POP POP PUSH1 0x40 MLOAD DUP1 SWAP2 SUB SWAP1 REVERT JUMPDEST SWAP3 SWAP2 POP POP JUMP JUMPDEST PUSH1 0x0 DUP1 PUSH1 0x0 PUSH2 0x3158 DUP6 DUP6 PUSH2 0x2B06 JUMP JUMPDEST POP SWAP1 POP PUSH1 0x0 DUP1 PUSH2 0x3169 DUP9 DUP9 DUP9 PUSH2 0x1C5C JUMP JUMPDEST PUSH20 0xFFFFFFFFFFFFFFFFFFFFFFFFFFFFFFFFFFFFFFFF AND PUSH4 0x902F1AC PUSH1 0x40 MLOAD DUP2 PUSH4 0xFFFFFFFF AND PUSH1 0xE0 SHL DUP2 MSTORE PUSH1 0x4 ADD PUSH1 0x60 PUSH1 0x40 MLOAD DUP1 DUP4 SUB DUP2 DUP7 DUP1 EXTCODESIZE ISZERO DUP1 ISZERO PUSH2 0x31AE JUMPI PUSH1 0x0 DUP1 REVERT JUMPDEST POP GAS STATICCALL ISZERO DUP1 ISZERO PUSH2 0x31C2 JUMPI RETURNDATASIZE PUSH1 0x0 DUP1 RETURNDATACOPY RETURNDATASIZE PUSH1 0x0 REVERT JUMPDEST POP POP POP POP PUSH1 0x40 MLOAD RETURNDATASIZE PUSH1 0x60 DUP2 LT ISZERO PUSH2 0x31D8 JUMPI PUSH1 0x0 DUP1 REVERT JUMPDEST DUP2 ADD SWAP1 DUP1 DUP1 MLOAD SWAP1 PUSH1 0x20 ADD SWAP1 SWAP3 SWAP2 SWAP1 DUP1 MLOAD SWAP1 PUSH1 0x20 ADD SWAP1 SWAP3 SWAP2 SWAP1 DUP1 MLOAD SWAP1 PUSH1 0x20 ADD SWAP1 SWAP3 SWAP2 SWAP1 POP POP POP POP PUSH14 0xFFFFFFFFFFFFFFFFFFFFFFFFFFFF AND SWAP2 POP PUSH14 0xFFFFFFFFFFFFFFFFFFFFFFFFFFFF AND SWAP2 POP DUP3 PUSH20 0xFFFFFFFFFFFFFFFFFFFFFFFFFFFFFFFFFFFFFFFF AND DUP8 PUSH20 0xFFFFFFFFFFFFFFFFFFFFFFFFFFFFFFFFFFFFFFFF AND EQ PUSH2 0x325C JUMPI DUP1 DUP3 PUSH2 0x325F JUMP JUMPDEST DUP2 DUP2 JUMPDEST DUP1 SWAP6 POP DUP2 SWAP7 POP POP POP POP POP POP SWAP4 POP SWAP4 SWAP2 POP POP JUMP INVALID MSIZE PUSH22 0x6E61737761704C6962726172793A20494E5355464649 NUMBER 0x49 GASLIMIT 0x4E SLOAD 0x5F 0x49 0x4E POP SSTORE SLOAD 0x5F COINBASE 0x4D 0x4F SSTORE 0x4E SLOAD MSIZE PUSH22 0x6E61737761704C6962726172793A20494E5355464649 NUMBER 0x49 GASLIMIT 0x4E SLOAD 0x5F COINBASE 0x4D 0x4F SSTORE 0x4E SLOAD SLOAD PUSH19 0x616E7366657248656C7065723A3A7472616E73 PUSH7 0x657246726F6D3A KECCAK256 PUSH21 0x72616E7366657246726F6D206661696C656459756E PUSH2 0x7377 PUSH2 0x7052 PUSH16 0x757465723A204558434553534956455F 0x49 0x4E POP SSTORE SLOAD 0x5F COINBASE 0x4D 0x4F SSTORE 0x4E SLOAD MSIZE PUSH22 0x6E6173776170526F757465723A20494E535546464943 0x49 GASLIMIT 0x4E SLOAD 0x5F TIMESTAMP 0x5F COINBASE 0x4D 0x4F SSTORE 0x4E SLOAD MSIZE PUSH22 0x6E6173776170526F757465723A20494E535546464943 0x49 GASLIMIT 0x4E SLOAD 0x5F 0x4F SSTORE SLOAD POP SSTORE SLOAD 0x5F COINBASE 0x4D 0x4F SSTORE 0x4E SLOAD MSIZE PUSH22 0x6E61737761704C6962726172793A204944454E544943 COINBASE 0x4C 0x5F COINBASE DIFFICULTY DIFFICULTY MSTORE GASLIMIT MSTORE8 MSTORE8 GASLIMIT MSTORE8 MSIZE PUSH22 0x6E6173776170526F757465723A20494E535546464943 0x49 GASLIMIT 0x4E SLOAD 0x5F COINBASE 0x5F COINBASE 0x4D 0x4F SSTORE 0x4E SLOAD MSIZE PUSH22 0x6E61737761704C6962726172793A20494E5355464649 NUMBER 0x49 GASLIMIT 0x4E SLOAD 0x5F 0x4F SSTORE SLOAD POP SSTORE SLOAD 0x5F COINBASE 0x4D 0x4F SSTORE 0x4E SLOAD MSIZE PUSH22 0x6E61737761704C6962726172793A20494E5355464649 NUMBER 0x49 GASLIMIT 0x4E SLOAD 0x5F 0x4C 0x49 MLOAD SSTORE 0x49 DIFFICULTY 0x49 SLOAD MSIZE LOG2 PUSH5 0x6970667358 0x22 SLT KECCAK256 SWAP12 CHAINID SAR 0x25 PUSH26 0x8BB14BAF8450DA91D1B8359F5EB0AD671BDCB528113A1A56532E 0xD PUSH5 0x736F6C6343 STOP MOD MOD STOP CALLER "
				},
				"gasEstimates": {
					"creation": {
						"codeDepositCost": "2673400",
						"executionCost": "infinite",
						"totalCost": "infinite"
					},
					"external": {
						"addLiquidity(address,address,uint256,uint256,uint256,uint256,address,uint256)": "infinite",
						"factory()": "infinite",
						"getAmountIn(uint256,uint256,uint256)": "infinite",
						"getAmountOut(uint256,uint256,uint256)": "infinite",
						"getAmountsIn(uint256,address[])": "infinite",
						"getAmountsOut(uint256,address[])": "infinite",
						"quote(uint256,uint256,uint256)": "infinite",
						"removeLiquidity(address,address,uint256,uint256,uint256,address,uint256)": "infinite",
						"removeLiquidityWithPermit(address,address,uint256,uint256,uint256,address,uint256,bool,uint8,bytes32,bytes32)": "infinite",
						"swapExactTokensForTokens(uint256,uint256,address[],address,uint256)": "infinite",
						"swapExactTokensForTokensSupportingFeeOnTransferTokens(uint256,uint256,address[],address,uint256)": "infinite",
						"swapTokensForExactTokens(uint256,uint256,address[],address,uint256)": "infinite"
					},
					"internal": {
						"_addLiquidity(address,address,uint256,uint256,uint256,uint256)": "infinite",
						"_swap(uint256[] memory,address[] memory,address)": "infinite",
						"_swapSupportingFeeOnTransferTokens(address[] memory,address)": "infinite"
					}
				},
				"methodIdentifiers": {
					"addLiquidity(address,address,uint256,uint256,uint256,uint256,address,uint256)": "e8e33700",
					"factory()": "c45a0155",
					"getAmountIn(uint256,uint256,uint256)": "85f8c259",
					"getAmountOut(uint256,uint256,uint256)": "054d50d4",
					"getAmountsIn(uint256,address[])": "1f00ca74",
					"getAmountsOut(uint256,address[])": "d06ca61f",
					"quote(uint256,uint256,uint256)": "ad615dec",
					"removeLiquidity(address,address,uint256,uint256,uint256,address,uint256)": "baa2abde",
					"removeLiquidityWithPermit(address,address,uint256,uint256,uint256,address,uint256,bool,uint8,bytes32,bytes32)": "2195995c",
					"swapExactTokensForTokens(uint256,uint256,address[],address,uint256)": "38ed1739",
					"swapExactTokensForTokensSupportingFeeOnTransferTokens(uint256,uint256,address[],address,uint256)": "5c11d795",
					"swapTokensForExactTokens(uint256,uint256,address[],address,uint256)": "8803dbee"
				}
			},
			"storageLayout": {
				"storage": [],
				"types": null
			},
			"userdoc": {
				"methods": {}
			}
		}
	}
}