{
	"contracts/YunaswapV2Router02.sol": {
		"YunaswapV2Router02": {
			"abi": [
				{
					"inputs": [
						{
							"internalType": "address",
							"name": "_factory",
							"type": "address"
						}
					],
					"stateMutability": "nonpayable",
					"type": "constructor"
				},
				{
					"inputs": [
						{
							"internalType": "address",
							"name": "tokenA",
							"type": "address"
						},
						{
							"internalType": "address",
							"name": "tokenB",
							"type": "address"
						},
						{
							"internalType": "uint256",
							"name": "amountADesired",
							"type": "uint256"
						},
						{
							"internalType": "uint256",
							"name": "amountBDesired",
							"type": "uint256"
						},
						{
							"internalType": "uint256",
							"name": "amountAMin",
							"type": "uint256"
						},
						{
							"internalType": "uint256",
							"name": "amountBMin",
							"type": "uint256"
						},
						{
							"internalType": "address",
							"name": "to",
							"type": "address"
						},
						{
							"internalType": "uint256",
							"name": "deadline",
							"type": "uint256"
						}
					],
					"name": "addLiquidity",
					"outputs": [
						{
							"internalType": "uint256",
							"name": "amountA",
							"type": "uint256"
						},
						{
							"internalType": "uint256",
							"name": "amountB",
							"type": "uint256"
						},
						{
							"internalType": "uint256",
							"name": "liquidity",
							"type": "uint256"
						}
					],
					"stateMutability": "nonpayable",
					"type": "function"
				},
				{
					"inputs": [],
					"name": "factory",
					"outputs": [
						{
							"internalType": "address",
							"name": "",
							"type": "address"
						}
					],
					"stateMutability": "view",
					"type": "function"
				},
				{
					"inputs": [
						{
							"internalType": "uint256",
							"name": "amountOut",
							"type": "uint256"
						},
						{
							"internalType": "uint256",
							"name": "reserveIn",
							"type": "uint256"
						},
						{
							"internalType": "uint256",
							"name": "reserveOut",
							"type": "uint256"
						}
					],
					"name": "getAmountIn",
					"outputs": [
						{
							"internalType": "uint256",
							"name": "amountIn",
							"type": "uint256"
						}
					],
					"stateMutability": "pure",
					"type": "function"
				},
				{
					"inputs": [
						{
							"internalType": "uint256",
							"name": "amountIn",
							"type": "uint256"
						},
						{
							"internalType": "uint256",
							"name": "reserveIn",
							"type": "uint256"
						},
						{
							"internalType": "uint256",
							"name": "reserveOut",
							"type": "uint256"
						}
					],
					"name": "getAmountOut",
					"outputs": [
						{
							"internalType": "uint256",
							"name": "amountOut",
							"type": "uint256"
						}
					],
					"stateMutability": "pure",
					"type": "function"
				},
				{
					"inputs": [
						{
							"internalType": "uint256",
							"name": "amountOut",
							"type": "uint256"
						},
						{
							"internalType": "address[]",
							"name": "path",
							"type": "address[]"
						}
					],
					"name": "getAmountsIn",
					"outputs": [
						{
							"internalType": "uint256[]",
							"name": "amounts",
							"type": "uint256[]"
						}
					],
					"stateMutability": "view",
					"type": "function"
				},
				{
					"inputs": [
						{
							"internalType": "uint256",
							"name": "amountIn",
							"type": "uint256"
						},
						{
							"internalType": "address[]",
							"name": "path",
							"type": "address[]"
						}
					],
					"name": "getAmountsOut",
					"outputs": [
						{
							"internalType": "uint256[]",
							"name": "amounts",
							"type": "uint256[]"
						}
					],
					"stateMutability": "view",
					"type": "function"
				},
				{
					"inputs": [
						{
							"internalType": "uint256",
							"name": "amountA",
							"type": "uint256"
						},
						{
							"internalType": "uint256",
							"name": "reserveA",
							"type": "uint256"
						},
						{
							"internalType": "uint256",
							"name": "reserveB",
							"type": "uint256"
						}
					],
					"name": "quote",
					"outputs": [
						{
							"internalType": "uint256",
							"name": "amountB",
							"type": "uint256"
						}
					],
					"stateMutability": "pure",
					"type": "function"
				},
				{
					"inputs": [
						{
							"internalType": "address",
							"name": "tokenA",
							"type": "address"
						},
						{
							"internalType": "address",
							"name": "tokenB",
							"type": "address"
						},
						{
							"internalType": "uint256",
							"name": "liquidity",
							"type": "uint256"
						},
						{
							"internalType": "uint256",
							"name": "amountAMin",
							"type": "uint256"
						},
						{
							"internalType": "uint256",
							"name": "amountBMin",
							"type": "uint256"
						},
						{
							"internalType": "address",
							"name": "to",
							"type": "address"
						},
						{
							"internalType": "uint256",
							"name": "deadline",
							"type": "uint256"
						}
					],
					"name": "removeLiquidity",
					"outputs": [
						{
							"internalType": "uint256",
							"name": "amountA",
							"type": "uint256"
						},
						{
							"internalType": "uint256",
							"name": "amountB",
							"type": "uint256"
						}
					],
					"stateMutability": "nonpayable",
					"type": "function"
				},
				{
					"inputs": [
						{
							"internalType": "address",
							"name": "tokenA",
							"type": "address"
						},
						{
							"internalType": "address",
							"name": "tokenB",
							"type": "address"
						},
						{
							"internalType": "uint256",
							"name": "liquidity",
							"type": "uint256"
						},
						{
							"internalType": "uint256",
							"name": "amountAMin",
							"type": "uint256"
						},
						{
							"internalType": "uint256",
							"name": "amountBMin",
							"type": "uint256"
						},
						{
							"internalType": "address",
							"name": "to",
							"type": "address"
						},
						{
							"internalType": "uint256",
							"name": "deadline",
							"type": "uint256"
						},
						{
							"internalType": "bool",
							"name": "approveMax",
							"type": "bool"
						},
						{
							"internalType": "uint8",
							"name": "v",
							"type": "uint8"
						},
						{
							"internalType": "bytes32",
							"name": "r",
							"type": "bytes32"
						},
						{
							"internalType": "bytes32",
							"name": "s",
							"type": "bytes32"
						}
					],
					"name": "removeLiquidityWithPermit",
					"outputs": [
						{
							"internalType": "uint256",
							"name": "amountA",
							"type": "uint256"
						},
						{
							"internalType": "uint256",
							"name": "amountB",
							"type": "uint256"
						}
					],
					"stateMutability": "nonpayable",
					"type": "function"
				},
				{
					"inputs": [
						{
							"internalType": "uint256",
							"name": "amountIn",
							"type": "uint256"
						},
						{
							"internalType": "uint256",
							"name": "amountOutMin",
							"type": "uint256"
						},
						{
							"internalType": "address[]",
							"name": "path",
							"type": "address[]"
						},
						{
							"internalType": "address",
							"name": "to",
							"type": "address"
						},
						{
							"internalType": "uint256",
							"name": "deadline",
							"type": "uint256"
						}
					],
					"name": "swapExactTokensForTokens",
					"outputs": [
						{
							"internalType": "uint256[]",
							"name": "amounts",
							"type": "uint256[]"
						}
					],
					"stateMutability": "nonpayable",
					"type": "function"
				},
				{
					"inputs": [
						{
							"internalType": "uint256",
							"name": "amountIn",
							"type": "uint256"
						},
						{
							"internalType": "uint256",
							"name": "amountOutMin",
							"type": "uint256"
						},
						{
							"internalType": "address[]",
							"name": "path",
							"type": "address[]"
						},
						{
							"internalType": "address",
							"name": "to",
							"type": "address"
						},
						{
							"internalType": "uint256",
							"name": "deadline",
							"type": "uint256"
						}
					],
					"name": "swapExactTokensForTokensSupportingFeeOnTransferTokens",
					"outputs": [],
					"stateMutability": "nonpayable",
					"type": "function"
				},
				{
					"inputs": [
						{
							"internalType": "uint256",
							"name": "amountOut",
							"type": "uint256"
						},
						{
							"internalType": "uint256",
							"name": "amountInMax",
							"type": "uint256"
						},
						{
							"internalType": "address[]",
							"name": "path",
							"type": "address[]"
						},
						{
							"internalType": "address",
							"name": "to",
							"type": "address"
						},
						{
							"internalType": "uint256",
							"name": "deadline",
							"type": "uint256"
						}
					],
					"name": "swapTokensForExactTokens",
					"outputs": [
						{
							"internalType": "uint256[]",
							"name": "amounts",
							"type": "uint256[]"
						}
					],
					"stateMutability": "nonpayable",
					"type": "function"
				}
			],
			"devdoc": {
				"methods": {}
			},
			"evm": {
				"assembly": "    /* \"contracts/YunaswapV2Router02.sol\":307:9807  contract YunaswapV2Router02 is IYunaswapV2Router02 {... */\n  mstore(0x40, 0xa0)\n    /* \"contracts/YunaswapV2Router02.sol\":572:644  constructor(address _factory) public {... */\n  callvalue\n    /* \"--CODEGEN--\":5:14   */\n  dup1\n    /* \"--CODEGEN--\":2:4   */\n  iszero\n  tag_1\n  jumpi\n    /* \"--CODEGEN--\":27:28   */\n  0x00\n    /* \"--CODEGEN--\":24:25   */\n  dup1\n    /* \"--CODEGEN--\":17:29   */\n  revert\n    /* \"--CODEGEN--\":2:4   */\ntag_1:\n    /* \"contracts/YunaswapV2Router02.sol\":572:644  constructor(address _factory) public {... */\n  pop\n  mload(0x40)\n  sub(codesize, bytecodeSize)\n  dup1\n  bytecodeSize\n  dup4\n  codecopy\n  dup2\n  dup2\n  add\n  0x40\n  mstore\n    /* \"--CODEGEN--\":15:17   */\n  0x20\n    /* \"--CODEGEN--\":10:13   */\n  dup2\n    /* \"--CODEGEN--\":7:18   */\n  lt\n    /* \"--CODEGEN--\":4:6   */\n  iszero\n  tag_2\n  jumpi\n    /* \"--CODEGEN--\":31:32   */\n  0x00\n    /* \"--CODEGEN--\":28:29   */\n  dup1\n    /* \"--CODEGEN--\":21:33   */\n  revert\n    /* \"--CODEGEN--\":4:6   */\ntag_2:\n  pop\n    /* \"contracts/YunaswapV2Router02.sol\":572:644  constructor(address _factory) public {... */\n  mload\n    /* \"contracts/YunaswapV2Router02.sol\":619:637  factory = _factory */\n  0x60\n  dup2\n  swap1\n  shl\n  not(sub(shl(0x60, 0x01), 0x01))\n  and\n  0x80\n  mstore\n  sub(shl(0xa0, 0x01), 0x01)\n    /* \"contracts/YunaswapV2Router02.sol\":307:9807  contract YunaswapV2Router02 is IYunaswapV2Router02 {... */\n  and\n  codecopy(0x00, dataOffset(sub_0), dataSize(sub_0))\n  assignImmutable(\"0x277ab82e5a4641341820a4a2933a62c1de997e42e92548657ae21b3728d580fe\")\n  return(0x00, dataSize(sub_0))\nstop\n\nsub_0: assembly {\n        /* \"contracts/YunaswapV2Router02.sol\":307:9807  contract YunaswapV2Router02 is IYunaswapV2Router02 {... */\n      mstore(0x40, 0x80)\n      callvalue\n        /* \"--CODEGEN--\":5:14   */\n      dup1\n        /* \"--CODEGEN--\":2:4   */\n      iszero\n      tag_1\n      jumpi\n        /* \"--CODEGEN--\":27:28   */\n      0x00\n        /* \"--CODEGEN--\":24:25   */\n      dup1\n        /* \"--CODEGEN--\":17:29   */\n      revert\n        /* \"--CODEGEN--\":2:4   */\n    tag_1:\n        /* \"contracts/YunaswapV2Router02.sol\":307:9807  contract YunaswapV2Router02 is IYunaswapV2Router02 {... */\n      pop\n      jumpi(tag_2, lt(calldatasize, 0x04))\n      shr(0xe0, calldataload(0x00))\n      dup1\n      0x8803dbee\n      gt\n      tag_15\n      jumpi\n      dup1\n      0x8803dbee\n      eq\n      tag_9\n      jumpi\n      dup1\n      0xad615dec\n      eq\n      tag_10\n      jumpi\n      dup1\n      0xbaa2abde\n      eq\n      tag_11\n      jumpi\n      dup1\n      0xc45a0155\n      eq\n      tag_12\n      jumpi\n      dup1\n      0xd06ca61f\n      eq\n      tag_13\n      jumpi\n      dup1\n      0xe8e33700\n      eq\n      tag_14\n      jumpi\n      jump(tag_2)\n    tag_15:\n      dup1\n      0x054d50d4\n      eq\n      tag_3\n      jumpi\n      dup1\n      0x1f00ca74\n      eq\n      tag_4\n      jumpi\n      dup1\n      0x2195995c\n      eq\n      tag_5\n      jumpi\n      dup1\n      0x38ed1739\n      eq\n      tag_6\n      jumpi\n      dup1\n      0x5c11d795\n      eq\n      tag_7\n      jumpi\n      dup1\n      0x85f8c259\n      eq\n      tag_8\n      jumpi\n    tag_2:\n        /* \"--CODEGEN--\":12:13   */\n      0x00\n        /* \"--CODEGEN--\":9:10   */\n      dup1\n        /* \"--CODEGEN--\":2:14   */\n      revert\n        /* \"contracts/YunaswapV2Router02.sol\":8786:9041  function getAmountOut(uint amountIn, uint reserveIn, uint reserveOut)... */\n    tag_3:\n      tag_16\n      0x04\n      dup1\n      calldatasize\n      sub\n        /* \"--CODEGEN--\":15:17   */\n      0x60\n        /* \"--CODEGEN--\":10:13   */\n      dup2\n        /* \"--CODEGEN--\":7:18   */\n      lt\n        /* \"--CODEGEN--\":4:6   */\n      iszero\n      tag_17\n      jumpi\n        /* \"--CODEGEN--\":31:32   */\n      0x00\n        /* \"--CODEGEN--\":28:29   */\n      dup1\n        /* \"--CODEGEN--\":21:33   */\n      revert\n        /* \"--CODEGEN--\":4:6   */\n    tag_17:\n      pop\n        /* \"contracts/YunaswapV2Router02.sol\":8786:9041  function getAmountOut(uint amountIn, uint reserveIn, uint reserveOut)... */\n      dup1\n      calldataload\n      swap1\n      0x20\n      dup2\n      add\n      calldataload\n      swap1\n      0x40\n      add\n      calldataload\n      tag_18\n      jump\t// in\n    tag_16:\n      0x40\n      dup1\n      mload\n      swap2\n      dup3\n      mstore\n      mload\n      swap1\n      dup2\n      swap1\n      sub\n      0x20\n      add\n      swap1\n      return\n        /* \"contracts/YunaswapV2Router02.sol\":9559:9805  function getAmountsIn(uint amountOut, address[] memory path)... */\n    tag_4:\n      tag_19\n      0x04\n      dup1\n      calldatasize\n      sub\n        /* \"--CODEGEN--\":15:17   */\n      0x40\n        /* \"--CODEGEN--\":10:13   */\n      dup2\n        /* \"--CODEGEN--\":7:18   */\n      lt\n        /* \"--CODEGEN--\":4:6   */\n      iszero\n      tag_20\n      jumpi\n        /* \"--CODEGEN--\":31:32   */\n      0x00\n        /* \"--CODEGEN--\":28:29   */\n      dup1\n        /* \"--CODEGEN--\":21:33   */\n      revert\n        /* \"--CODEGEN--\":4:6   */\n    tag_20:\n        /* \"contracts/YunaswapV2Router02.sol\":9559:9805  function getAmountsIn(uint amountOut, address[] memory path)... */\n      dup2\n      calldataload\n      swap2\n      swap1\n      dup2\n      add\n      swap1\n      0x40\n      dup2\n      add\n      0x20\n      dup3\n      add\n      calldataload\n      shl(0x20, 0x01)\n        /* \"--CODEGEN--\":11:39   */\n      dup2\n      gt\n        /* \"--CODEGEN--\":8:10   */\n      iszero\n      tag_21\n      jumpi\n        /* \"--CODEGEN--\":52:53   */\n      0x00\n        /* \"--CODEGEN--\":49:50   */\n      dup1\n        /* \"--CODEGEN--\":42:54   */\n      revert\n        /* \"--CODEGEN--\":8:10   */\n    tag_21:\n        /* \"contracts/YunaswapV2Router02.sol\":9559:9805  function getAmountsIn(uint amountOut, address[] memory path)... */\n      dup3\n      add\n        /* \"--CODEGEN--\":41:50   */\n      dup4\n        /* \"--CODEGEN--\":34:38   */\n      0x20\n        /* \"--CODEGEN--\":18:32   */\n      dup3\n        /* \"--CODEGEN--\":14:39   */\n      add\n        /* \"--CODEGEN--\":11:51   */\n      gt\n        /* \"--CODEGEN--\":8:10   */\n      iszero\n      tag_22\n      jumpi\n        /* \"--CODEGEN--\":64:65   */\n      0x00\n        /* \"--CODEGEN--\":61:62   */\n      dup1\n        /* \"--CODEGEN--\":54:66   */\n      revert\n        /* \"--CODEGEN--\":8:10   */\n    tag_22:\n        /* \"contracts/YunaswapV2Router02.sol\":9559:9805  function getAmountsIn(uint amountOut, address[] memory path)... */\n      dup1\n      calldataload\n      swap1\n      0x20\n      add\n      swap2\n        /* \"--CODEGEN--\":101:110   */\n      dup5\n        /* \"--CODEGEN--\":95:97   */\n      0x20\n        /* \"--CODEGEN--\":81:93   */\n      dup4\n        /* \"--CODEGEN--\":77:98   */\n      mul\n        /* \"--CODEGEN--\":67:75   */\n      dup5\n        /* \"--CODEGEN--\":63:99   */\n      add\n        /* \"--CODEGEN--\":60:111   */\n      gt\n      shl(0x20, 0x01)\n        /* \"--CODEGEN--\":25:37   */\n      dup4\n        /* \"--CODEGEN--\":22:51   */\n      gt\n        /* \"--CODEGEN--\":11:119   */\n      or\n        /* \"--CODEGEN--\":8:10   */\n      iszero\n      tag_23\n      jumpi\n        /* \"--CODEGEN--\":132:133   */\n      0x00\n        /* \"--CODEGEN--\":129:130   */\n      dup1\n        /* \"--CODEGEN--\":122:134   */\n      revert\n        /* \"--CODEGEN--\":8:10   */\n    tag_23:\n        /* \"contracts/YunaswapV2Router02.sol\":9559:9805  function getAmountsIn(uint amountOut, address[] memory path)... */\n      swap2\n      swap1\n      dup1\n      dup1\n      0x20\n      mul\n      0x20\n      add\n      mload(0x40)\n      swap1\n      dup2\n      add\n      0x40\n      mstore\n      dup1\n      swap4\n      swap3\n      swap2\n      swap1\n      dup2\n      dup2\n      mstore\n      0x20\n      add\n      dup4\n      dup4\n      0x20\n      mul\n        /* \"--CODEGEN--\":30:33   */\n      dup1\n        /* \"--CODEGEN--\":22:28   */\n      dup3\n        /* \"--CODEGEN--\":14:20   */\n      dup5\n        /* \"--CODEGEN--\":1:34   */\n      calldatacopy\n        /* \"--CODEGEN--\":99:100   */\n      0x00\n        /* \"--CODEGEN--\":81:97   */\n      swap3\n      add\n        /* \"--CODEGEN--\":74:101   */\n      swap2\n      swap1\n      swap2\n      mstore\n      pop\n        /* \"contracts/YunaswapV2Router02.sol\":9559:9805  function getAmountsIn(uint amountOut, address[] memory path)... */\n      swap3\n      swap6\n      pop\n      tag_24\n      swap5\n      pop\n      pop\n      pop\n      pop\n      pop\n      jump\t// in\n    tag_19:\n      0x40\n      dup1\n      mload\n      0x20\n      dup1\n      dup3\n      mstore\n      dup4\n      mload\n      dup2\n      dup4\n      add\n      mstore\n      dup4\n      mload\n      swap2\n      swap3\n      dup4\n      swap3\n      swap1\n      dup4\n      add\n      swap2\n      dup6\n      dup2\n      add\n      swap2\n      mul\n      dup1\n      dup4\n      dup4\n      0x00\n        /* \"--CODEGEN--\":8:108   */\n    tag_25:\n        /* \"--CODEGEN--\":33:36   */\n      dup4\n        /* \"--CODEGEN--\":30:31   */\n      dup2\n        /* \"--CODEGEN--\":27:37   */\n      lt\n        /* \"--CODEGEN--\":8:108   */\n      iszero\n      tag_27\n      jumpi\n        /* \"--CODEGEN--\":90:101   */\n      dup2\n      dup2\n      add\n        /* \"--CODEGEN--\":84:102   */\n      mload\n        /* \"--CODEGEN--\":71:82   */\n      dup4\n      dup3\n      add\n        /* \"--CODEGEN--\":64:103   */\n      mstore\n        /* \"--CODEGEN--\":52:54   */\n      0x20\n        /* \"--CODEGEN--\":45:55   */\n      add\n        /* \"--CODEGEN--\":8:108   */\n      jump(tag_25)\n    tag_27:\n        /* \"--CODEGEN--\":12:26   */\n      pop\n        /* \"contracts/YunaswapV2Router02.sol\":9559:9805  function getAmountsIn(uint amountOut, address[] memory path)... */\n      pop\n      pop\n      pop\n      swap1\n      pop\n      add\n      swap3\n      pop\n      pop\n      pop\n      mload(0x40)\n      dup1\n      swap2\n      sub\n      swap1\n      return\n        /* \"contracts/YunaswapV2Router02.sol\":3681:4346  function removeLiquidityWithPermit(... */\n    tag_5:\n      tag_28\n      0x04\n      dup1\n      calldatasize\n      sub\n        /* \"--CODEGEN--\":15:18   */\n      0x0160\n        /* \"--CODEGEN--\":10:13   */\n      dup2\n        /* \"--CODEGEN--\":7:19   */\n      lt\n        /* \"--CODEGEN--\":4:6   */\n      iszero\n      tag_29\n      jumpi\n        /* \"--CODEGEN--\":32:33   */\n      0x00\n        /* \"--CODEGEN--\":29:30   */\n      dup1\n        /* \"--CODEGEN--\":22:34   */\n      revert\n        /* \"--CODEGEN--\":4:6   */\n    tag_29:\n      pop\n      sub(shl(0xa0, 0x01), 0x01)\n        /* \"contracts/YunaswapV2Router02.sol\":3681:4346  function removeLiquidityWithPermit(... */\n      dup2\n      calldataload\n      dup2\n      and\n      swap2\n      0x20\n      dup2\n      add\n      calldataload\n      dup3\n      and\n      swap2\n      0x40\n      dup3\n      add\n      calldataload\n      swap2\n      0x60\n      dup2\n      add\n      calldataload\n      swap2\n      0x80\n      dup3\n      add\n      calldataload\n      swap2\n      0xa0\n      dup2\n      add\n      calldataload\n      swap1\n      swap2\n      and\n      swap1\n      0xc0\n      dup2\n      add\n      calldataload\n      swap1\n      0xe0\n      dup2\n      add\n      calldataload\n      iszero\n      iszero\n      swap1\n      0xff\n      0x0100\n      dup3\n      add\n      calldataload\n      and\n      swap1\n      0x0120\n      dup2\n      add\n      calldataload\n      swap1\n      0x0140\n      add\n      calldataload\n      tag_30\n      jump\t// in\n    tag_28:\n      0x40\n      dup1\n      mload\n      swap3\n      dup4\n      mstore\n      0x20\n      dup4\n      add\n      swap2\n      swap1\n      swap2\n      mstore\n      dup1\n      mload\n      swap2\n      dup3\n      swap1\n      sub\n      add\n      swap1\n      return\n        /* \"contracts/YunaswapV2Router02.sol\":5261:5879  function swapExactTokensForTokens(... */\n    tag_6:\n      tag_19\n      0x04\n      dup1\n      calldatasize\n      sub\n        /* \"--CODEGEN--\":15:18   */\n      0xa0\n        /* \"--CODEGEN--\":10:13   */\n      dup2\n        /* \"--CODEGEN--\":7:19   */\n      lt\n        /* \"--CODEGEN--\":4:6   */\n      iszero\n      tag_32\n      jumpi\n        /* \"--CODEGEN--\":32:33   */\n      0x00\n        /* \"--CODEGEN--\":29:30   */\n      dup1\n        /* \"--CODEGEN--\":22:34   */\n      revert\n        /* \"--CODEGEN--\":4:6   */\n    tag_32:\n        /* \"contracts/YunaswapV2Router02.sol\":5261:5879  function swapExactTokensForTokens(... */\n      dup2\n      calldataload\n      swap2\n      0x20\n      dup2\n      add\n      calldataload\n      swap2\n      dup2\n      add\n      swap1\n      0x60\n      dup2\n      add\n      0x40\n      dup3\n      add\n      calldataload\n      shl(0x20, 0x01)\n        /* \"--CODEGEN--\":11:39   */\n      dup2\n      gt\n        /* \"--CODEGEN--\":8:10   */\n      iszero\n      tag_33\n      jumpi\n        /* \"--CODEGEN--\":52:53   */\n      0x00\n        /* \"--CODEGEN--\":49:50   */\n      dup1\n        /* \"--CODEGEN--\":42:54   */\n      revert\n        /* \"--CODEGEN--\":8:10   */\n    tag_33:\n        /* \"contracts/YunaswapV2Router02.sol\":5261:5879  function swapExactTokensForTokens(... */\n      dup3\n      add\n        /* \"--CODEGEN--\":41:50   */\n      dup4\n        /* \"--CODEGEN--\":34:38   */\n      0x20\n        /* \"--CODEGEN--\":18:32   */\n      dup3\n        /* \"--CODEGEN--\":14:39   */\n      add\n        /* \"--CODEGEN--\":11:51   */\n      gt\n        /* \"--CODEGEN--\":8:10   */\n      iszero\n      tag_34\n      jumpi\n        /* \"--CODEGEN--\":64:65   */\n      0x00\n        /* \"--CODEGEN--\":61:62   */\n      dup1\n        /* \"--CODEGEN--\":54:66   */\n      revert\n        /* \"--CODEGEN--\":8:10   */\n    tag_34:\n        /* \"contracts/YunaswapV2Router02.sol\":5261:5879  function swapExactTokensForTokens(... */\n      dup1\n      calldataload\n      swap1\n      0x20\n      add\n      swap2\n        /* \"--CODEGEN--\":101:110   */\n      dup5\n        /* \"--CODEGEN--\":95:97   */\n      0x20\n        /* \"--CODEGEN--\":81:93   */\n      dup4\n        /* \"--CODEGEN--\":77:98   */\n      mul\n        /* \"--CODEGEN--\":67:75   */\n      dup5\n        /* \"--CODEGEN--\":63:99   */\n      add\n        /* \"--CODEGEN--\":60:111   */\n      gt\n      shl(0x20, 0x01)\n        /* \"--CODEGEN--\":25:37   */\n      dup4\n        /* \"--CODEGEN--\":22:51   */\n      gt\n        /* \"--CODEGEN--\":11:119   */\n      or\n        /* \"--CODEGEN--\":8:10   */\n      iszero\n      tag_35\n      jumpi\n        /* \"--CODEGEN--\":132:133   */\n      0x00\n        /* \"--CODEGEN--\":129:130   */\n      dup1\n        /* \"--CODEGEN--\":122:134   */\n      revert\n        /* \"--CODEGEN--\":8:10   */\n    tag_35:\n        /* \"contracts/YunaswapV2Router02.sol\":5261:5879  function swapExactTokensForTokens(... */\n      swap2\n      swap4\n      pop\n      swap2\n      pop\n      sub(shl(0xa0, 0x01), 0x01)\n      dup2\n      calldataload\n      and\n      swap1\n      0x20\n      add\n      calldataload\n      tag_36\n      jump\t// in\n        /* \"contracts/YunaswapV2Router02.sol\":7845:8545  function swapExactTokensForTokensSupportingFeeOnTransferTokens(... */\n    tag_7:\n      tag_40\n      0x04\n      dup1\n      calldatasize\n      sub\n        /* \"--CODEGEN--\":15:18   */\n      0xa0\n        /* \"--CODEGEN--\":10:13   */\n      dup2\n        /* \"--CODEGEN--\":7:19   */\n      lt\n        /* \"--CODEGEN--\":4:6   */\n      iszero\n      tag_41\n      jumpi\n        /* \"--CODEGEN--\":32:33   */\n      0x00\n        /* \"--CODEGEN--\":29:30   */\n      dup1\n        /* \"--CODEGEN--\":22:34   */\n      revert\n        /* \"--CODEGEN--\":4:6   */\n    tag_41:\n        /* \"contracts/YunaswapV2Router02.sol\":7845:8545  function swapExactTokensForTokensSupportingFeeOnTransferTokens(... */\n      dup2\n      calldataload\n      swap2\n      0x20\n      dup2\n      add\n      calldataload\n      swap2\n      dup2\n      add\n      swap1\n      0x60\n      dup2\n      add\n      0x40\n      dup3\n      add\n      calldataload\n      shl(0x20, 0x01)\n        /* \"--CODEGEN--\":11:39   */\n      dup2\n      gt\n        /* \"--CODEGEN--\":8:10   */\n      iszero\n      tag_42\n      jumpi\n        /* \"--CODEGEN--\":52:53   */\n      0x00\n        /* \"--CODEGEN--\":49:50   */\n      dup1\n        /* \"--CODEGEN--\":42:54   */\n      revert\n        /* \"--CODEGEN--\":8:10   */\n    tag_42:\n        /* \"contracts/YunaswapV2Router02.sol\":7845:8545  function swapExactTokensForTokensSupportingFeeOnTransferTokens(... */\n      dup3\n      add\n        /* \"--CODEGEN--\":41:50   */\n      dup4\n        /* \"--CODEGEN--\":34:38   */\n      0x20\n        /* \"--CODEGEN--\":18:32   */\n      dup3\n        /* \"--CODEGEN--\":14:39   */\n      add\n        /* \"--CODEGEN--\":11:51   */\n      gt\n        /* \"--CODEGEN--\":8:10   */\n      iszero\n      tag_43\n      jumpi\n        /* \"--CODEGEN--\":64:65   */\n      0x00\n        /* \"--CODEGEN--\":61:62   */\n      dup1\n        /* \"--CODEGEN--\":54:66   */\n      revert\n        /* \"--CODEGEN--\":8:10   */\n    tag_43:\n        /* \"contracts/YunaswapV2Router02.sol\":7845:8545  function swapExactTokensForTokensSupportingFeeOnTransferTokens(... */\n      dup1\n      calldataload\n      swap1\n      0x20\n      add\n      swap2\n        /* \"--CODEGEN--\":101:110   */\n      dup5\n        /* \"--CODEGEN--\":95:97   */\n      0x20\n        /* \"--CODEGEN--\":81:93   */\n      dup4\n        /* \"--CODEGEN--\":77:98   */\n      mul\n        /* \"--CODEGEN--\":67:75   */\n      dup5\n        /* \"--CODEGEN--\":63:99   */\n      add\n        /* \"--CODEGEN--\":60:111   */\n      gt\n      shl(0x20, 0x01)\n        /* \"--CODEGEN--\":25:37   */\n      dup4\n        /* \"--CODEGEN--\":22:51   */\n      gt\n        /* \"--CODEGEN--\":11:119   */\n      or\n        /* \"--CODEGEN--\":8:10   */\n      iszero\n      tag_44\n      jumpi\n        /* \"--CODEGEN--\":132:133   */\n      0x00\n        /* \"--CODEGEN--\":129:130   */\n      dup1\n        /* \"--CODEGEN--\":122:134   */\n      revert\n        /* \"--CODEGEN--\":8:10   */\n    tag_44:\n        /* \"contracts/YunaswapV2Router02.sol\":7845:8545  function swapExactTokensForTokensSupportingFeeOnTransferTokens(... */\n      swap2\n      swap4\n      pop\n      swap2\n      pop\n      sub(shl(0xa0, 0x01), 0x01)\n      dup2\n      calldataload\n      and\n      swap1\n      0x20\n      add\n      calldataload\n      tag_45\n      jump\t// in\n    tag_40:\n      stop\n        /* \"contracts/YunaswapV2Router02.sol\":9047:9301  function getAmountIn(uint amountOut, uint reserveIn, uint reserveOut)... */\n    tag_8:\n      tag_16\n      0x04\n      dup1\n      calldatasize\n      sub\n        /* \"--CODEGEN--\":15:17   */\n      0x60\n        /* \"--CODEGEN--\":10:13   */\n      dup2\n        /* \"--CODEGEN--\":7:18   */\n      lt\n        /* \"--CODEGEN--\":4:6   */\n      iszero\n      tag_47\n      jumpi\n        /* \"--CODEGEN--\":31:32   */\n      0x00\n        /* \"--CODEGEN--\":28:29   */\n      dup1\n        /* \"--CODEGEN--\":21:33   */\n      revert\n        /* \"--CODEGEN--\":4:6   */\n    tag_47:\n      pop\n        /* \"contracts/YunaswapV2Router02.sol\":9047:9301  function getAmountIn(uint amountOut, uint reserveIn, uint reserveOut)... */\n      dup1\n      calldataload\n      swap1\n      0x20\n      dup2\n      add\n      calldataload\n      swap1\n      0x40\n      add\n      calldataload\n      tag_48\n      jump\t// in\n        /* \"contracts/YunaswapV2Router02.sol\":5884:6480  function swapTokensForExactTokens(... */\n    tag_9:\n      tag_19\n      0x04\n      dup1\n      calldatasize\n      sub\n        /* \"--CODEGEN--\":15:18   */\n      0xa0\n        /* \"--CODEGEN--\":10:13   */\n      dup2\n        /* \"--CODEGEN--\":7:19   */\n      lt\n        /* \"--CODEGEN--\":4:6   */\n      iszero\n      tag_50\n      jumpi\n        /* \"--CODEGEN--\":32:33   */\n      0x00\n        /* \"--CODEGEN--\":29:30   */\n      dup1\n        /* \"--CODEGEN--\":22:34   */\n      revert\n        /* \"--CODEGEN--\":4:6   */\n    tag_50:\n        /* \"contracts/YunaswapV2Router02.sol\":5884:6480  function swapTokensForExactTokens(... */\n      dup2\n      calldataload\n      swap2\n      0x20\n      dup2\n      add\n      calldataload\n      swap2\n      dup2\n      add\n      swap1\n      0x60\n      dup2\n      add\n      0x40\n      dup3\n      add\n      calldataload\n      shl(0x20, 0x01)\n        /* \"--CODEGEN--\":11:39   */\n      dup2\n      gt\n        /* \"--CODEGEN--\":8:10   */\n      iszero\n      tag_51\n      jumpi\n        /* \"--CODEGEN--\":52:53   */\n      0x00\n        /* \"--CODEGEN--\":49:50   */\n      dup1\n        /* \"--CODEGEN--\":42:54   */\n      revert\n        /* \"--CODEGEN--\":8:10   */\n    tag_51:\n        /* \"contracts/YunaswapV2Router02.sol\":5884:6480  function swapTokensForExactTokens(... */\n      dup3\n      add\n        /* \"--CODEGEN--\":41:50   */\n      dup4\n        /* \"--CODEGEN--\":34:38   */\n      0x20\n        /* \"--CODEGEN--\":18:32   */\n      dup3\n        /* \"--CODEGEN--\":14:39   */\n      add\n        /* \"--CODEGEN--\":11:51   */\n      gt\n        /* \"--CODEGEN--\":8:10   */\n      iszero\n      tag_52\n      jumpi\n        /* \"--CODEGEN--\":64:65   */\n      0x00\n        /* \"--CODEGEN--\":61:62   */\n      dup1\n        /* \"--CODEGEN--\":54:66   */\n      revert\n        /* \"--CODEGEN--\":8:10   */\n    tag_52:\n        /* \"contracts/YunaswapV2Router02.sol\":5884:6480  function swapTokensForExactTokens(... */\n      dup1\n      calldataload\n      swap1\n      0x20\n      add\n      swap2\n        /* \"--CODEGEN--\":101:110   */\n      dup5\n        /* \"--CODEGEN--\":95:97   */\n      0x20\n        /* \"--CODEGEN--\":81:93   */\n      dup4\n        /* \"--CODEGEN--\":77:98   */\n      mul\n        /* \"--CODEGEN--\":67:75   */\n      dup5\n        /* \"--CODEGEN--\":63:99   */\n      add\n        /* \"--CODEGEN--\":60:111   */\n      gt\n      shl(0x20, 0x01)\n        /* \"--CODEGEN--\":25:37   */\n      dup4\n        /* \"--CODEGEN--\":22:51   */\n      gt\n        /* \"--CODEGEN--\":11:119   */\n      or\n        /* \"--CODEGEN--\":8:10   */\n      iszero\n      tag_53\n      jumpi\n        /* \"--CODEGEN--\":132:133   */\n      0x00\n        /* \"--CODEGEN--\":129:130   */\n      dup1\n        /* \"--CODEGEN--\":122:134   */\n      revert\n        /* \"--CODEGEN--\":8:10   */\n    tag_53:\n        /* \"contracts/YunaswapV2Router02.sol\":5884:6480  function swapTokensForExactTokens(... */\n      swap2\n      swap4\n      pop\n      swap2\n      pop\n      sub(shl(0xa0, 0x01), 0x01)\n      dup2\n      calldataload\n      and\n      swap1\n      0x20\n      add\n      calldataload\n      tag_54\n      jump\t// in\n        /* \"contracts/YunaswapV2Router02.sol\":8593:8780  function quote(uint amountA, uint reserveA, uint reserveB) public pure virtual override returns (uint amountB) {... */\n    tag_10:\n      tag_16\n      0x04\n      dup1\n      calldatasize\n      sub\n        /* \"--CODEGEN--\":15:17   */\n      0x60\n        /* \"--CODEGEN--\":10:13   */\n      dup2\n        /* \"--CODEGEN--\":7:18   */\n      lt\n        /* \"--CODEGEN--\":4:6   */\n      iszero\n      tag_59\n      jumpi\n        /* \"--CODEGEN--\":31:32   */\n      0x00\n        /* \"--CODEGEN--\":28:29   */\n      dup1\n        /* \"--CODEGEN--\":21:33   */\n      revert\n        /* \"--CODEGEN--\":4:6   */\n    tag_59:\n      pop\n        /* \"contracts/YunaswapV2Router02.sol\":8593:8780  function quote(uint amountA, uint reserveA, uint reserveB) public pure virtual override returns (uint amountB) {... */\n      dup1\n      calldataload\n      swap1\n      0x20\n      dup2\n      add\n      calldataload\n      swap1\n      0x40\n      add\n      calldataload\n      tag_60\n      jump\t// in\n        /* \"contracts/YunaswapV2Router02.sol\":2818:3673  function removeLiquidity(... */\n    tag_11:\n      tag_28\n      0x04\n      dup1\n      calldatasize\n      sub\n        /* \"--CODEGEN--\":15:18   */\n      0xe0\n        /* \"--CODEGEN--\":10:13   */\n      dup2\n        /* \"--CODEGEN--\":7:19   */\n      lt\n        /* \"--CODEGEN--\":4:6   */\n      iszero\n      tag_62\n      jumpi\n        /* \"--CODEGEN--\":32:33   */\n      0x00\n        /* \"--CODEGEN--\":29:30   */\n      dup1\n        /* \"--CODEGEN--\":22:34   */\n      revert\n        /* \"--CODEGEN--\":4:6   */\n    tag_62:\n      pop\n      sub(shl(0xa0, 0x01), 0x01)\n        /* \"contracts/YunaswapV2Router02.sol\":2818:3673  function removeLiquidity(... */\n      dup2\n      calldataload\n      dup2\n      and\n      swap2\n      0x20\n      dup2\n      add\n      calldataload\n      dup3\n      and\n      swap2\n      0x40\n      dup3\n      add\n      calldataload\n      swap2\n      0x60\n      dup2\n      add\n      calldataload\n      swap2\n      0x80\n      dup3\n      add\n      calldataload\n      swap2\n      0xa0\n      dup2\n      add\n      calldataload\n      swap1\n      swap2\n      and\n      swap1\n      0xc0\n      add\n      calldataload\n      tag_63\n      jump\t// in\n        /* \"contracts/YunaswapV2Router02.sol\":394:435  address public immutable override factory */\n    tag_12:\n      tag_64\n      tag_65\n      jump\t// in\n    tag_64:\n      0x40\n      dup1\n      mload\n      sub(shl(0xa0, 0x01), 0x01)\n      swap1\n      swap3\n      and\n      dup3\n      mstore\n      mload\n      swap1\n      dup2\n      swap1\n      sub\n      0x20\n      add\n      swap1\n      return\n        /* \"contracts/YunaswapV2Router02.sol\":9307:9553  function getAmountsOut(uint amountIn, address[] memory path)... */\n    tag_13:\n      tag_19\n      0x04\n      dup1\n      calldatasize\n      sub\n        /* \"--CODEGEN--\":15:17   */\n      0x40\n        /* \"--CODEGEN--\":10:13   */\n      dup2\n        /* \"--CODEGEN--\":7:18   */\n      lt\n        /* \"--CODEGEN--\":4:6   */\n      iszero\n      tag_67\n      jumpi\n        /* \"--CODEGEN--\":31:32   */\n      0x00\n        /* \"--CODEGEN--\":28:29   */\n      dup1\n        /* \"--CODEGEN--\":21:33   */\n      revert\n        /* \"--CODEGEN--\":4:6   */\n    tag_67:\n        /* \"contracts/YunaswapV2Router02.sol\":9307:9553  function getAmountsOut(uint amountIn, address[] memory path)... */\n      dup2\n      calldataload\n      swap2\n      swap1\n      dup2\n      add\n      swap1\n      0x40\n      dup2\n      add\n      0x20\n      dup3\n      add\n      calldataload\n      shl(0x20, 0x01)\n        /* \"--CODEGEN--\":11:39   */\n      dup2\n      gt\n        /* \"--CODEGEN--\":8:10   */\n      iszero\n      tag_68\n      jumpi\n        /* \"--CODEGEN--\":52:53   */\n      0x00\n        /* \"--CODEGEN--\":49:50   */\n      dup1\n        /* \"--CODEGEN--\":42:54   */\n      revert\n        /* \"--CODEGEN--\":8:10   */\n    tag_68:\n        /* \"contracts/YunaswapV2Router02.sol\":9307:9553  function getAmountsOut(uint amountIn, address[] memory path)... */\n      dup3\n      add\n        /* \"--CODEGEN--\":41:50   */\n      dup4\n        /* \"--CODEGEN--\":34:38   */\n      0x20\n        /* \"--CODEGEN--\":18:32   */\n      dup3\n        /* \"--CODEGEN--\":14:39   */\n      add\n        /* \"--CODEGEN--\":11:51   */\n      gt\n        /* \"--CODEGEN--\":8:10   */\n      iszero\n      tag_69\n      jumpi\n        /* \"--CODEGEN--\":64:65   */\n      0x00\n        /* \"--CODEGEN--\":61:62   */\n      dup1\n        /* \"--CODEGEN--\":54:66   */\n      revert\n        /* \"--CODEGEN--\":8:10   */\n    tag_69:\n        /* \"contracts/YunaswapV2Router02.sol\":9307:9553  function getAmountsOut(uint amountIn, address[] memory path)... */\n      dup1\n      calldataload\n      swap1\n      0x20\n      add\n      swap2\n        /* \"--CODEGEN--\":101:110   */\n      dup5\n        /* \"--CODEGEN--\":95:97   */\n      0x20\n        /* \"--CODEGEN--\":81:93   */\n      dup4\n        /* \"--CODEGEN--\":77:98   */\n      mul\n        /* \"--CODEGEN--\":67:75   */\n      dup5\n        /* \"--CODEGEN--\":63:99   */\n      add\n        /* \"--CODEGEN--\":60:111   */\n      gt\n      shl(0x20, 0x01)\n        /* \"--CODEGEN--\":25:37   */\n      dup4\n        /* \"--CODEGEN--\":22:51   */\n      gt\n        /* \"--CODEGEN--\":11:119   */\n      or\n        /* \"--CODEGEN--\":8:10   */\n      iszero\n      tag_70\n      jumpi\n        /* \"--CODEGEN--\":132:133   */\n      0x00\n        /* \"--CODEGEN--\":129:130   */\n      dup1\n        /* \"--CODEGEN--\":122:134   */\n      revert\n        /* \"--CODEGEN--\":8:10   */\n    tag_70:\n        /* \"contracts/YunaswapV2Router02.sol\":9307:9553  function getAmountsOut(uint amountIn, address[] memory path)... */\n      swap2\n      swap1\n      dup1\n      dup1\n      0x20\n      mul\n      0x20\n      add\n      mload(0x40)\n      swap1\n      dup2\n      add\n      0x40\n      mstore\n      dup1\n      swap4\n      swap3\n      swap2\n      swap1\n      dup2\n      dup2\n      mstore\n      0x20\n      add\n      dup4\n      dup4\n      0x20\n      mul\n        /* \"--CODEGEN--\":30:33   */\n      dup1\n        /* \"--CODEGEN--\":22:28   */\n      dup3\n        /* \"--CODEGEN--\":14:20   */\n      dup5\n        /* \"--CODEGEN--\":1:34   */\n      calldatacopy\n        /* \"--CODEGEN--\":99:100   */\n      0x00\n        /* \"--CODEGEN--\":81:97   */\n      swap3\n      add\n        /* \"--CODEGEN--\":74:101   */\n      swap2\n      swap1\n      swap2\n      mstore\n      pop\n        /* \"contracts/YunaswapV2Router02.sol\":9307:9553  function getAmountsOut(uint amountIn, address[] memory path)... */\n      swap3\n      swap6\n      pop\n      tag_71\n      swap5\n      pop\n      pop\n      pop\n      pop\n      pop\n      jump\t// in\n        /* \"contracts/YunaswapV2Router02.sol\":2054:2779  function addLiquidity(... */\n    tag_14:\n      tag_75\n      0x04\n      dup1\n      calldatasize\n      sub\n        /* \"--CODEGEN--\":15:18   */\n      0x0100\n        /* \"--CODEGEN--\":10:13   */\n      dup2\n        /* \"--CODEGEN--\":7:19   */\n      lt\n        /* \"--CODEGEN--\":4:6   */\n      iszero\n      tag_76\n      jumpi\n        /* \"--CODEGEN--\":32:33   */\n      0x00\n        /* \"--CODEGEN--\":29:30   */\n      dup1\n        /* \"--CODEGEN--\":22:34   */\n      revert\n        /* \"--CODEGEN--\":4:6   */\n    tag_76:\n      pop\n      sub(shl(0xa0, 0x01), 0x01)\n        /* \"contracts/YunaswapV2Router02.sol\":2054:2779  function addLiquidity(... */\n      dup2\n      calldataload\n      dup2\n      and\n      swap2\n      0x20\n      dup2\n      add\n      calldataload\n      dup3\n      and\n      swap2\n      0x40\n      dup3\n      add\n      calldataload\n      swap2\n      0x60\n      dup2\n      add\n      calldataload\n      swap2\n      0x80\n      dup3\n      add\n      calldataload\n      swap2\n      0xa0\n      dup2\n      add\n      calldataload\n      swap2\n      0xc0\n      dup3\n      add\n      calldataload\n      and\n      swap1\n      0xe0\n      add\n      calldataload\n      tag_77\n      jump\t// in\n    tag_75:\n      0x40\n      dup1\n      mload\n      swap4\n      dup5\n      mstore\n      0x20\n      dup5\n      add\n      swap3\n      swap1\n      swap3\n      mstore\n      dup3\n      dup3\n      add\n      mstore\n      mload\n      swap1\n      dup2\n      swap1\n      sub\n      0x60\n      add\n      swap1\n      return\n        /* \"contracts/YunaswapV2Router02.sol\":8786:9041  function getAmountOut(uint amountIn, uint reserveIn, uint reserveOut)... */\n    tag_18:\n        /* \"contracts/YunaswapV2Router02.sol\":8934:8948  uint amountOut */\n      0x00\n        /* \"contracts/YunaswapV2Router02.sol\":8971:9034  YunaswapV2Library.getAmountOut(amountIn, reserveIn, reserveOut) */\n      tag_79\n        /* \"contracts/YunaswapV2Router02.sol\":9002:9010  amountIn */\n      dup5\n        /* \"contracts/YunaswapV2Router02.sol\":9012:9021  reserveIn */\n      dup5\n        /* \"contracts/YunaswapV2Router02.sol\":9023:9033  reserveOut */\n      dup5\n        /* \"contracts/YunaswapV2Router02.sol\":8971:9001  YunaswapV2Library.getAmountOut */\n      tag_80\n        /* \"contracts/YunaswapV2Router02.sol\":8971:9034  YunaswapV2Library.getAmountOut(amountIn, reserveIn, reserveOut) */\n      jump\t// in\n    tag_79:\n        /* \"contracts/YunaswapV2Router02.sol\":8964:9034  return YunaswapV2Library.getAmountOut(amountIn, reserveIn, reserveOut) */\n      swap5\n        /* \"contracts/YunaswapV2Router02.sol\":8786:9041  function getAmountOut(uint amountIn, uint reserveIn, uint reserveOut)... */\n      swap4\n      pop\n      pop\n      pop\n      pop\n      jump\t// out\n        /* \"contracts/YunaswapV2Router02.sol\":9559:9805  function getAmountsIn(uint amountOut, address[] memory path)... */\n    tag_24:\n        /* \"contracts/YunaswapV2Router02.sol\":9698:9719  uint[] memory amounts */\n      0x60\n        /* \"contracts/YunaswapV2Router02.sol\":9742:9798  YunaswapV2Library.getAmountsIn(factory, amountOut, path) */\n      tag_82\n        /* \"contracts/YunaswapV2Router02.sol\":9773:9780  factory */\n      immutable(\"0x277ab82e5a4641341820a4a2933a62c1de997e42e92548657ae21b3728d580fe\")\n        /* \"contracts/YunaswapV2Router02.sol\":9782:9791  amountOut */\n      dup5\n        /* \"contracts/YunaswapV2Router02.sol\":9793:9797  path */\n      dup5\n        /* \"contracts/YunaswapV2Router02.sol\":9742:9772  YunaswapV2Library.getAmountsIn */\n      tag_83\n        /* \"contracts/YunaswapV2Router02.sol\":9742:9798  YunaswapV2Library.getAmountsIn(factory, amountOut, path) */\n      jump\t// in\n    tag_82:\n        /* \"contracts/YunaswapV2Router02.sol\":9735:9798  return YunaswapV2Library.getAmountsIn(factory, amountOut, path) */\n      swap1\n      pop\n        /* \"contracts/YunaswapV2Router02.sol\":9559:9805  function getAmountsIn(uint amountOut, address[] memory path)... */\n    tag_81:\n      swap3\n      swap2\n      pop\n      pop\n      jump\t// out\n        /* \"contracts/YunaswapV2Router02.sol\":3681:4346  function removeLiquidityWithPermit(... */\n    tag_30:\n        /* \"contracts/YunaswapV2Router02.sol\":3978:3990  uint amountA */\n      0x00\n        /* \"contracts/YunaswapV2Router02.sol\":3992:4004  uint amountB */\n      dup1\n        /* \"contracts/YunaswapV2Router02.sol\":4016:4028  address pair */\n      0x00\n        /* \"contracts/YunaswapV2Router02.sol\":4031:4081  YunaswapV2Library.pairFor(factory, tokenA, tokenB) */\n      tag_85\n        /* \"contracts/YunaswapV2Router02.sol\":4057:4064  factory */\n      immutable(\"0x277ab82e5a4641341820a4a2933a62c1de997e42e92548657ae21b3728d580fe\")\n        /* \"contracts/YunaswapV2Router02.sol\":4066:4072  tokenA */\n      dup16\n        /* \"contracts/YunaswapV2Router02.sol\":4074:4080  tokenB */\n      dup16\n        /* \"contracts/YunaswapV2Router02.sol\":4031:4056  YunaswapV2Library.pairFor */\n      tag_86\n        /* \"contracts/YunaswapV2Router02.sol\":4031:4081  YunaswapV2Library.pairFor(factory, tokenA, tokenB) */\n      jump\t// in\n    tag_85:\n        /* \"contracts/YunaswapV2Router02.sol\":4016:4081  address pair = YunaswapV2Library.pairFor(factory, tokenA, tokenB) */\n      swap1\n      pop\n        /* \"contracts/YunaswapV2Router02.sol\":4091:4101  uint value */\n      0x00\n        /* \"contracts/YunaswapV2Router02.sol\":4104:4114  approveMax */\n      dup8\n        /* \"contracts/YunaswapV2Router02.sol\":4104:4137  approveMax ? uint(-1) : liquidity */\n      tag_87\n      jumpi\n        /* \"contracts/YunaswapV2Router02.sol\":4128:4137  liquidity */\n      dup13\n        /* \"contracts/YunaswapV2Router02.sol\":4104:4137  approveMax ? uint(-1) : liquidity */\n      jump(tag_88)\n    tag_87:\n      not(0x00)\n    tag_88:\n        /* \"contracts/YunaswapV2Router02.sol\":4147:4228  IYunaswapV2Pair(pair).permit(msg.sender, address(this), value, deadline, v, r, s) */\n      0x40\n      dup1\n      mload\n      shl(0xe0, 0xd505accf)\n      dup2\n      mstore\n        /* \"contracts/YunaswapV2Router02.sol\":4176:4186  msg.sender */\n      caller\n        /* \"contracts/YunaswapV2Router02.sol\":4147:4228  IYunaswapV2Pair(pair).permit(msg.sender, address(this), value, deadline, v, r, s) */\n      0x04\n      dup3\n      add\n      mstore\n        /* \"contracts/YunaswapV2Router02.sol\":4196:4200  this */\n      address\n        /* \"contracts/YunaswapV2Router02.sol\":4147:4228  IYunaswapV2Pair(pair).permit(msg.sender, address(this), value, deadline, v, r, s) */\n      0x24\n      dup3\n      add\n      mstore\n      0x44\n      dup2\n      add\n      dup4\n      swap1\n      mstore\n      0x64\n      dup2\n      add\n      dup13\n      swap1\n      mstore\n      0xff\n      dup11\n      and\n      0x84\n      dup3\n      add\n      mstore\n      0xa4\n      dup2\n      add\n      dup10\n      swap1\n      mstore\n      0xc4\n      dup2\n      add\n      dup9\n      swap1\n      mstore\n      swap1\n      mload\n        /* \"contracts/YunaswapV2Router02.sol\":4091:4137  uint value = approveMax ? uint(-1) : liquidity */\n      swap2\n      swap3\n      pop\n      sub(shl(0xa0, 0x01), 0x01)\n        /* \"contracts/YunaswapV2Router02.sol\":4147:4175  IYunaswapV2Pair(pair).permit */\n      dup5\n      and\n      swap2\n      0xd505accf\n      swap2\n        /* \"contracts/YunaswapV2Router02.sol\":4147:4228  IYunaswapV2Pair(pair).permit(msg.sender, address(this), value, deadline, v, r, s) */\n      0xe4\n      dup1\n      dup3\n      add\n      swap3\n      0x00\n      swap3\n      swap1\n      swap2\n      swap1\n      dup3\n      swap1\n      sub\n      add\n      dup2\n      dup4\n        /* \"contracts/YunaswapV2Router02.sol\":4147:4175  IYunaswapV2Pair(pair).permit */\n      dup8\n        /* \"contracts/YunaswapV2Router02.sol\":4147:4228  IYunaswapV2Pair(pair).permit(msg.sender, address(this), value, deadline, v, r, s) */\n      dup1\n      extcodesize\n      iszero\n        /* \"--CODEGEN--\":2:4   */\n      dup1\n      iszero\n      tag_89\n      jumpi\n        /* \"--CODEGEN--\":27:28   */\n      0x00\n        /* \"--CODEGEN--\":24:25   */\n      dup1\n        /* \"--CODEGEN--\":17:29   */\n      revert\n        /* \"--CODEGEN--\":2:4   */\n    tag_89:\n        /* \"contracts/YunaswapV2Router02.sol\":4147:4228  IYunaswapV2Pair(pair).permit(msg.sender, address(this), value, deadline, v, r, s) */\n      pop\n      gas\n      call\n      iszero\n        /* \"--CODEGEN--\":8:17   */\n      dup1\n        /* \"--CODEGEN--\":5:7   */\n      iszero\n      tag_91\n      jumpi\n        /* \"--CODEGEN--\":45:61   */\n      returndatasize\n        /* \"--CODEGEN--\":42:43   */\n      0x00\n        /* \"--CODEGEN--\":39:40   */\n      dup1\n        /* \"--CODEGEN--\":24:62   */\n      returndatacopy\n        /* \"--CODEGEN--\":77:93   */\n      returndatasize\n        /* \"--CODEGEN--\":74:75   */\n      0x00\n        /* \"--CODEGEN--\":67:94   */\n      revert\n        /* \"--CODEGEN--\":5:7   */\n    tag_91:\n        /* \"contracts/YunaswapV2Router02.sol\":4147:4228  IYunaswapV2Pair(pair).permit(msg.sender, address(this), value, deadline, v, r, s) */\n      pop\n      pop\n      pop\n      pop\n        /* \"contracts/YunaswapV2Router02.sol\":4259:4339  removeLiquidity(tokenA, tokenB, liquidity, amountAMin, amountBMin, to, deadline) */\n      tag_92\n        /* \"contracts/YunaswapV2Router02.sol\":4275:4281  tokenA */\n      dup16\n        /* \"contracts/YunaswapV2Router02.sol\":4283:4289  tokenB */\n      dup16\n        /* \"contracts/YunaswapV2Router02.sol\":4291:4300  liquidity */\n      dup16\n        /* \"contracts/YunaswapV2Router02.sol\":4302:4312  amountAMin */\n      dup16\n        /* \"contracts/YunaswapV2Router02.sol\":4314:4324  amountBMin */\n      dup16\n        /* \"contracts/YunaswapV2Router02.sol\":4326:4328  to */\n      dup16\n        /* \"contracts/YunaswapV2Router02.sol\":4330:4338  deadline */\n      dup16\n        /* \"contracts/YunaswapV2Router02.sol\":4259:4274  removeLiquidity */\n      tag_63\n        /* \"contracts/YunaswapV2Router02.sol\":4259:4339  removeLiquidity(tokenA, tokenB, liquidity, amountAMin, amountBMin, to, deadline) */\n      jump\t// in\n    tag_92:\n        /* \"contracts/YunaswapV2Router02.sol\":4238:4339  (amountA, amountB) = removeLiquidity(tokenA, tokenB, liquidity, amountAMin, amountBMin, to, deadline) */\n      dup1\n      swap5\n      pop\n      dup2\n      swap6\n      pop\n      pop\n      pop\n        /* \"contracts/YunaswapV2Router02.sol\":3681:4346  function removeLiquidityWithPermit(... */\n      pop\n      pop\n      swap12\n      pop\n      swap12\n      swap10\n      pop\n      pop\n      pop\n      pop\n      pop\n      pop\n      pop\n      pop\n      pop\n      pop\n      jump\t// out\n        /* \"contracts/YunaswapV2Router02.sol\":5261:5879  function swapExactTokensForTokens(... */\n    tag_36:\n        /* \"contracts/YunaswapV2Router02.sol\":5479:5500  uint[] memory amounts */\n      0x60\n        /* \"contracts/YunaswapV2Router02.sol\":5460:5468  deadline */\n      dup2\n        /* \"contracts/YunaswapV2Router02.sol\":503:518  block.timestamp */\n      timestamp\n        /* \"contracts/YunaswapV2Router02.sol\":491:499  deadline */\n      dup2\n        /* \"contracts/YunaswapV2Router02.sol\":491:518  deadline >= block.timestamp */\n      lt\n      iszero\n        /* \"contracts/YunaswapV2Router02.sol\":483:548  require(deadline >= block.timestamp, 'YunaswapV2Router: EXPIRED') */\n      tag_94\n      jumpi\n      0x40\n      dup1\n      mload\n      shl(0xe5, 0x461bcd)\n      dup2\n      mstore\n      0x20\n      0x04\n      dup3\n      add\n      mstore\n      0x19\n      0x24\n      dup3\n      add\n      mstore\n      0x00\n      dup1\n      mload\n      0x20\n      data_ecd1dfdaf7ff5a69399006cd48a1dadf4d115dfdebfff5e9ef7827430b45319c\n      dup4\n      codecopy\n      dup2\n      mload\n      swap2\n      mstore\n      0x44\n      dup3\n      add\n      mstore\n      swap1\n      mload\n      swap1\n      dup2\n      swap1\n      sub\n      0x64\n      add\n      swap1\n      revert\n    tag_94:\n        /* \"contracts/YunaswapV2Router02.sol\":5522:5578  YunaswapV2Library.getAmountsOut(factory, amountIn, path) */\n      tag_96\n        /* \"contracts/YunaswapV2Router02.sol\":5554:5561  factory */\n      immutable(\"0x277ab82e5a4641341820a4a2933a62c1de997e42e92548657ae21b3728d580fe\")\n        /* \"contracts/YunaswapV2Router02.sol\":5563:5571  amountIn */\n      dup10\n        /* \"contracts/YunaswapV2Router02.sol\":5573:5577  path */\n      dup9\n      dup9\n        /* \"contracts/YunaswapV2Router02.sol\":5522:5578  YunaswapV2Library.getAmountsOut(factory, amountIn, path) */\n      dup1\n      dup1\n      0x20\n      mul\n      0x20\n      add\n      mload(0x40)\n      swap1\n      dup2\n      add\n      0x40\n      mstore\n      dup1\n      swap4\n      swap3\n      swap2\n      swap1\n      dup2\n      dup2\n      mstore\n      0x20\n      add\n      dup4\n      dup4\n      0x20\n      mul\n        /* \"--CODEGEN--\":30:33   */\n      dup1\n        /* \"--CODEGEN--\":22:28   */\n      dup3\n        /* \"--CODEGEN--\":14:20   */\n      dup5\n        /* \"--CODEGEN--\":1:34   */\n      calldatacopy\n        /* \"--CODEGEN--\":99:100   */\n      0x00\n        /* \"--CODEGEN--\":81:97   */\n      swap3\n      add\n        /* \"--CODEGEN--\":74:101   */\n      swap2\n      swap1\n      swap2\n      mstore\n      pop\n        /* \"contracts/YunaswapV2Router02.sol\":5522:5553  YunaswapV2Library.getAmountsOut */\n      tag_97\n      swap3\n      pop\n      pop\n      pop\n        /* \"contracts/YunaswapV2Router02.sol\":5522:5578  YunaswapV2Library.getAmountsOut(factory, amountIn, path) */\n      jump\t// in\n    tag_96:\n        /* \"contracts/YunaswapV2Router02.sol\":5512:5578  amounts = YunaswapV2Library.getAmountsOut(factory, amountIn, path) */\n      swap2\n      pop\n        /* \"contracts/YunaswapV2Router02.sol\":5627:5639  amountOutMin */\n      dup7\n        /* \"contracts/YunaswapV2Router02.sol\":5596:5603  amounts */\n      dup3\n        /* \"contracts/YunaswapV2Router02.sol\":5621:5622  1 */\n      0x01\n        /* \"contracts/YunaswapV2Router02.sol\":5604:5611  amounts */\n      dup5\n        /* \"contracts/YunaswapV2Router02.sol\":5604:5618  amounts.length */\n      mload\n        /* \"contracts/YunaswapV2Router02.sol\":5604:5622  amounts.length - 1 */\n      sub\n        /* \"contracts/YunaswapV2Router02.sol\":5596:5623  amounts[amounts.length - 1] */\n      dup2\n      mload\n      dup2\n      lt\n      tag_98\n      jumpi\n      invalid\n    tag_98:\n      0x20\n      mul\n      0x20\n      add\n      add\n      mload\n        /* \"contracts/YunaswapV2Router02.sol\":5596:5639  amounts[amounts.length - 1] >= amountOutMin */\n      lt\n      iszero\n        /* \"contracts/YunaswapV2Router02.sol\":5588:5688  require(amounts[amounts.length - 1] >= amountOutMin, 'YunaswapV2Router: INSUFFICIENT_OUTPUT_AMOUNT') */\n      tag_99\n      jumpi\n      mload(0x40)\n      shl(0xe5, 0x461bcd)\n      dup2\n      mstore\n      0x04\n      add\n      dup1\n      dup1\n      0x20\n      add\n      dup3\n      dup2\n      sub\n      dup3\n      mstore\n      0x2c\n      dup2\n      mstore\n      0x20\n      add\n      dup1\n      data_94702b7cb9c4ecfa144d890874b1a30d9ecd6dd7aa99e58c9a9702e3b0c4fec3\n      0x2c\n      swap2\n      codecopy\n      0x40\n      add\n      swap2\n      pop\n      pop\n      mload(0x40)\n      dup1\n      swap2\n      sub\n      swap1\n      revert\n    tag_99:\n        /* \"contracts/YunaswapV2Router02.sol\":5698:5838  TransferHelper.safeTransferFrom(... */\n      tag_100\n        /* \"contracts/YunaswapV2Router02.sol\":5743:5747  path */\n      dup7\n      dup7\n        /* \"contracts/YunaswapV2Router02.sol\":5748:5749  0 */\n      0x00\n        /* \"contracts/YunaswapV2Router02.sol\":5743:5750  path[0] */\n      dup2\n      dup2\n      lt\n      tag_101\n      jumpi\n      invalid\n    tag_101:\n      swap1\n      pop\n      0x20\n      mul\n      add\n      calldataload\n      sub(shl(0xa0, 0x01), 0x01)\n      and\n        /* \"contracts/YunaswapV2Router02.sol\":5752:5762  msg.sender */\n      caller\n        /* \"contracts/YunaswapV2Router02.sol\":5764:5816  YunaswapV2Library.pairFor(factory, path[0], path[1]) */\n      tag_102\n        /* \"contracts/YunaswapV2Router02.sol\":5790:5797  factory */\n      immutable(\"0x277ab82e5a4641341820a4a2933a62c1de997e42e92548657ae21b3728d580fe\")\n        /* \"contracts/YunaswapV2Router02.sol\":5799:5803  path */\n      dup11\n      dup11\n        /* \"contracts/YunaswapV2Router02.sol\":5804:5805  0 */\n      0x00\n        /* \"contracts/YunaswapV2Router02.sol\":5799:5806  path[0] */\n      dup2\n      dup2\n      lt\n      tag_103\n      jumpi\n      invalid\n    tag_103:\n      swap1\n      pop\n      0x20\n      mul\n      add\n      calldataload\n      sub(shl(0xa0, 0x01), 0x01)\n      and\n        /* \"contracts/YunaswapV2Router02.sol\":5808:5812  path */\n      dup12\n      dup12\n        /* \"contracts/YunaswapV2Router02.sol\":5813:5814  1 */\n      0x01\n        /* \"contracts/YunaswapV2Router02.sol\":5808:5815  path[1] */\n      dup2\n      dup2\n      lt\n      tag_104\n      jumpi\n      invalid\n    tag_104:\n      swap1\n      pop\n      0x20\n      mul\n      add\n      calldataload\n      sub(shl(0xa0, 0x01), 0x01)\n      and\n        /* \"contracts/YunaswapV2Router02.sol\":5764:5789  YunaswapV2Library.pairFor */\n      tag_86\n        /* \"contracts/YunaswapV2Router02.sol\":5764:5816  YunaswapV2Library.pairFor(factory, path[0], path[1]) */\n      jump\t// in\n    tag_102:\n        /* \"contracts/YunaswapV2Router02.sol\":5818:5825  amounts */\n      dup6\n        /* \"contracts/YunaswapV2Router02.sol\":5826:5827  0 */\n      0x00\n        /* \"contracts/YunaswapV2Router02.sol\":5818:5828  amounts[0] */\n      dup2\n      mload\n      dup2\n      lt\n      tag_105\n      jumpi\n      invalid\n    tag_105:\n      0x20\n      mul\n      0x20\n      add\n      add\n      mload\n        /* \"contracts/YunaswapV2Router02.sol\":5698:5729  TransferHelper.safeTransferFrom */\n      tag_106\n        /* \"contracts/YunaswapV2Router02.sol\":5698:5838  TransferHelper.safeTransferFrom(... */\n      jump\t// in\n    tag_100:\n        /* \"contracts/YunaswapV2Router02.sol\":5848:5872  _swap(amounts, path, to) */\n      tag_107\n        /* \"contracts/YunaswapV2Router02.sol\":5854:5861  amounts */\n      dup3\n        /* \"contracts/YunaswapV2Router02.sol\":5863:5867  path */\n      dup8\n      dup8\n        /* \"contracts/YunaswapV2Router02.sol\":5848:5872  _swap(amounts, path, to) */\n      dup1\n      dup1\n      0x20\n      mul\n      0x20\n      add\n      mload(0x40)\n      swap1\n      dup2\n      add\n      0x40\n      mstore\n      dup1\n      swap4\n      swap3\n      swap2\n      swap1\n      dup2\n      dup2\n      mstore\n      0x20\n      add\n      dup4\n      dup4\n      0x20\n      mul\n        /* \"--CODEGEN--\":30:33   */\n      dup1\n        /* \"--CODEGEN--\":22:28   */\n      dup3\n        /* \"--CODEGEN--\":14:20   */\n      dup5\n        /* \"--CODEGEN--\":1:34   */\n      calldatacopy\n        /* \"--CODEGEN--\":99:100   */\n      0x00\n        /* \"--CODEGEN--\":81:97   */\n      swap3\n      add\n        /* \"--CODEGEN--\":74:101   */\n      swap2\n      swap1\n      swap2\n      mstore\n      pop\n        /* \"contracts/YunaswapV2Router02.sol\":5869:5871  to */\n      dup10\n      swap3\n      pop\n        /* \"contracts/YunaswapV2Router02.sol\":5848:5853  _swap */\n      tag_108\n      swap2\n      pop\n      pop\n        /* \"contracts/YunaswapV2Router02.sol\":5848:5872  _swap(amounts, path, to) */\n      jump\t// in\n    tag_107:\n        /* \"contracts/YunaswapV2Router02.sol\":5261:5879  function swapExactTokensForTokens(... */\n      pop\n      swap7\n      swap6\n      pop\n      pop\n      pop\n      pop\n      pop\n      pop\n      jump\t// out\n        /* \"contracts/YunaswapV2Router02.sol\":7845:8545  function swapExactTokensForTokensSupportingFeeOnTransferTokens(... */\n    tag_45:\n        /* \"contracts/YunaswapV2Router02.sol\":8073:8081  deadline */\n      dup1\n        /* \"contracts/YunaswapV2Router02.sol\":503:518  block.timestamp */\n      timestamp\n        /* \"contracts/YunaswapV2Router02.sol\":491:499  deadline */\n      dup2\n        /* \"contracts/YunaswapV2Router02.sol\":491:518  deadline >= block.timestamp */\n      lt\n      iszero\n        /* \"contracts/YunaswapV2Router02.sol\":483:548  require(deadline >= block.timestamp, 'YunaswapV2Router: EXPIRED') */\n      tag_110\n      jumpi\n      0x40\n      dup1\n      mload\n      shl(0xe5, 0x461bcd)\n      dup2\n      mstore\n      0x20\n      0x04\n      dup3\n      add\n      mstore\n      0x19\n      0x24\n      dup3\n      add\n      mstore\n      0x00\n      dup1\n      mload\n      0x20\n      data_ecd1dfdaf7ff5a69399006cd48a1dadf4d115dfdebfff5e9ef7827430b45319c\n      dup4\n      codecopy\n      dup2\n      mload\n      swap2\n      mstore\n      0x44\n      dup3\n      add\n      mstore\n      swap1\n      mload\n      swap1\n      dup2\n      swap1\n      sub\n      0x64\n      add\n      swap1\n      revert\n    tag_110:\n        /* \"contracts/YunaswapV2Router02.sol\":8093:8231  TransferHelper.safeTransferFrom(... */\n      tag_112\n        /* \"contracts/YunaswapV2Router02.sol\":8138:8142  path */\n      dup6\n      dup6\n        /* \"contracts/YunaswapV2Router02.sol\":8143:8144  0 */\n      0x00\n        /* \"contracts/YunaswapV2Router02.sol\":8138:8145  path[0] */\n      dup2\n      dup2\n      lt\n      tag_113\n      jumpi\n      invalid\n    tag_113:\n      swap1\n      pop\n      0x20\n      mul\n      add\n      calldataload\n      sub(shl(0xa0, 0x01), 0x01)\n      and\n        /* \"contracts/YunaswapV2Router02.sol\":8147:8157  msg.sender */\n      caller\n        /* \"contracts/YunaswapV2Router02.sol\":8159:8211  YunaswapV2Library.pairFor(factory, path[0], path[1]) */\n      tag_114\n        /* \"contracts/YunaswapV2Router02.sol\":8185:8192  factory */\n      immutable(\"0x277ab82e5a4641341820a4a2933a62c1de997e42e92548657ae21b3728d580fe\")\n        /* \"contracts/YunaswapV2Router02.sol\":8194:8198  path */\n      dup10\n      dup10\n        /* \"contracts/YunaswapV2Router02.sol\":8199:8200  0 */\n      0x00\n        /* \"contracts/YunaswapV2Router02.sol\":8194:8201  path[0] */\n      dup2\n      dup2\n      lt\n      tag_115\n      jumpi\n      invalid\n    tag_115:\n      swap1\n      pop\n      0x20\n      mul\n      add\n      calldataload\n      sub(shl(0xa0, 0x01), 0x01)\n      and\n        /* \"contracts/YunaswapV2Router02.sol\":8203:8207  path */\n      dup11\n      dup11\n        /* \"contracts/YunaswapV2Router02.sol\":8208:8209  1 */\n      0x01\n        /* \"contracts/YunaswapV2Router02.sol\":8203:8210  path[1] */\n      dup2\n      dup2\n      lt\n      tag_104\n      jumpi\n      invalid\n        /* \"contracts/YunaswapV2Router02.sol\":8159:8211  YunaswapV2Library.pairFor(factory, path[0], path[1]) */\n    tag_114:\n        /* \"contracts/YunaswapV2Router02.sol\":8213:8221  amountIn */\n      dup11\n        /* \"contracts/YunaswapV2Router02.sol\":8093:8124  TransferHelper.safeTransferFrom */\n      tag_106\n        /* \"contracts/YunaswapV2Router02.sol\":8093:8231  TransferHelper.safeTransferFrom(... */\n      jump\t// in\n    tag_112:\n        /* \"contracts/YunaswapV2Router02.sol\":8241:8259  uint balanceBefore */\n      0x00\n        /* \"contracts/YunaswapV2Router02.sol\":8269:8273  path */\n      dup6\n      dup6\n      not(0x00)\n        /* \"contracts/YunaswapV2Router02.sol\":8274:8289  path.length - 1 */\n      dup2\n      add\n        /* \"contracts/YunaswapV2Router02.sol\":8269:8290  path[path.length - 1] */\n      dup2\n      dup2\n      lt\n      tag_117\n      jumpi\n      invalid\n    tag_117:\n      swap1\n      pop\n      0x20\n      mul\n      add\n      calldataload\n      sub(shl(0xa0, 0x01), 0x01)\n      and\n      sub(shl(0xa0, 0x01), 0x01)\n        /* \"contracts/YunaswapV2Router02.sol\":8262:8301  IERC20(path[path.length - 1]).balanceOf */\n      and\n      0x70a08231\n        /* \"contracts/YunaswapV2Router02.sol\":8302:8304  to */\n      dup6\n        /* \"contracts/YunaswapV2Router02.sol\":8262:8305  IERC20(path[path.length - 1]).balanceOf(to) */\n      mload(0x40)\n      dup3\n      0xffffffff\n      and\n      0xe0\n      shl\n      dup2\n      mstore\n      0x04\n      add\n      dup1\n      dup3\n      sub(shl(0xa0, 0x01), 0x01)\n      and\n      sub(shl(0xa0, 0x01), 0x01)\n      and\n      dup2\n      mstore\n      0x20\n      add\n      swap2\n      pop\n      pop\n      0x20\n      mload(0x40)\n      dup1\n      dup4\n      sub\n      dup2\n      dup7\n      dup1\n      extcodesize\n      iszero\n        /* \"--CODEGEN--\":5:14   */\n      dup1\n        /* \"--CODEGEN--\":2:4   */\n      iszero\n      tag_118\n      jumpi\n        /* \"--CODEGEN--\":27:28   */\n      0x00\n        /* \"--CODEGEN--\":24:25   */\n      dup1\n        /* \"--CODEGEN--\":17:29   */\n      revert\n        /* \"--CODEGEN--\":2:4   */\n    tag_118:\n        /* \"contracts/YunaswapV2Router02.sol\":8262:8305  IERC20(path[path.length - 1]).balanceOf(to) */\n      pop\n      gas\n      staticcall\n      iszero\n        /* \"--CODEGEN--\":8:17   */\n      dup1\n        /* \"--CODEGEN--\":5:7   */\n      iszero\n      tag_120\n      jumpi\n        /* \"--CODEGEN--\":45:61   */\n      returndatasize\n        /* \"--CODEGEN--\":42:43   */\n      0x00\n        /* \"--CODEGEN--\":39:40   */\n      dup1\n        /* \"--CODEGEN--\":24:62   */\n      returndatacopy\n        /* \"--CODEGEN--\":77:93   */\n      returndatasize\n        /* \"--CODEGEN--\":74:75   */\n      0x00\n        /* \"--CODEGEN--\":67:94   */\n      revert\n        /* \"--CODEGEN--\":5:7   */\n    tag_120:\n        /* \"contracts/YunaswapV2Router02.sol\":8262:8305  IERC20(path[path.length - 1]).balanceOf(to) */\n      pop\n      pop\n      pop\n      pop\n      mload(0x40)\n      returndatasize\n        /* \"--CODEGEN--\":15:17   */\n      0x20\n        /* \"--CODEGEN--\":10:13   */\n      dup2\n        /* \"--CODEGEN--\":7:18   */\n      lt\n        /* \"--CODEGEN--\":4:6   */\n      iszero\n      tag_121\n      jumpi\n        /* \"--CODEGEN--\":31:32   */\n      0x00\n        /* \"--CODEGEN--\":28:29   */\n      dup1\n        /* \"--CODEGEN--\":21:33   */\n      revert\n        /* \"--CODEGEN--\":4:6   */\n    tag_121:\n      pop\n        /* \"contracts/YunaswapV2Router02.sol\":8262:8305  IERC20(path[path.length - 1]).balanceOf(to) */\n      mload\n        /* \"contracts/YunaswapV2Router02.sol\":8315:8359  _swapSupportingFeeOnTransferTokens(path, to) */\n      0x40\n      dup1\n      mload\n        /* \"contracts/YunaswapV2Router02.sol\":8262:8305  IERC20(path[path.length - 1]).balanceOf(to) */\n      0x20\n        /* \"contracts/YunaswapV2Router02.sol\":8315:8359  _swapSupportingFeeOnTransferTokens(path, to) */\n      dup9\n      dup2\n      mul\n      dup3\n      dup2\n      add\n      dup3\n      add\n      swap1\n      swap4\n      mstore\n      dup9\n      dup3\n      mstore\n        /* \"contracts/YunaswapV2Router02.sol\":8262:8305  IERC20(path[path.length - 1]).balanceOf(to) */\n      swap3\n      swap4\n      pop\n        /* \"contracts/YunaswapV2Router02.sol\":8315:8359  _swapSupportingFeeOnTransferTokens(path, to) */\n      tag_122\n      swap3\n      swap1\n      swap2\n        /* \"contracts/YunaswapV2Router02.sol\":8350:8354  path */\n      dup10\n      swap2\n      dup10\n      swap2\n      dup3\n      swap2\n        /* \"contracts/YunaswapV2Router02.sol\":8315:8359  _swapSupportingFeeOnTransferTokens(path, to) */\n      dup6\n      add\n      swap1\n        /* \"contracts/YunaswapV2Router02.sol\":8350:8354  path */\n      dup5\n      swap1\n        /* \"contracts/YunaswapV2Router02.sol\":8315:8359  _swapSupportingFeeOnTransferTokens(path, to) */\n      dup1\n        /* \"contracts/YunaswapV2Router02.sol\":8350:8354  path */\n      dup3\n        /* \"contracts/YunaswapV2Router02.sol\":8315:8359  _swapSupportingFeeOnTransferTokens(path, to) */\n      dup5\n        /* \"--CODEGEN--\":1:34   */\n      calldatacopy\n        /* \"--CODEGEN--\":99:100   */\n      0x00\n        /* \"--CODEGEN--\":81:97   */\n      swap3\n      add\n        /* \"--CODEGEN--\":74:101   */\n      swap2\n      swap1\n      swap2\n      mstore\n      pop\n        /* \"contracts/YunaswapV2Router02.sol\":8356:8358  to */\n      dup9\n      swap3\n      pop\n        /* \"contracts/YunaswapV2Router02.sol\":8315:8349  _swapSupportingFeeOnTransferTokens */\n      tag_123\n      swap2\n      pop\n      pop\n        /* \"contracts/YunaswapV2Router02.sol\":8315:8359  _swapSupportingFeeOnTransferTokens(path, to) */\n      jump\t// in\n    tag_122:\n        /* \"contracts/YunaswapV2Router02.sol\":8456:8468  amountOutMin */\n      dup7\n        /* \"contracts/YunaswapV2Router02.sol\":8390:8452  IERC20(path[path.length - 1]).balanceOf(to).sub(balanceBefore) */\n      tag_124\n        /* \"contracts/YunaswapV2Router02.sol\":8438:8451  balanceBefore */\n      dup3\n        /* \"contracts/YunaswapV2Router02.sol\":8397:8401  path */\n      dup9\n      dup9\n      not(0x00)\n        /* \"contracts/YunaswapV2Router02.sol\":8402:8417  path.length - 1 */\n      dup2\n      add\n        /* \"contracts/YunaswapV2Router02.sol\":8397:8418  path[path.length - 1] */\n      dup2\n      dup2\n      lt\n      tag_125\n      jumpi\n      invalid\n    tag_125:\n      swap1\n      pop\n      0x20\n      mul\n      add\n      calldataload\n      sub(shl(0xa0, 0x01), 0x01)\n      and\n      sub(shl(0xa0, 0x01), 0x01)\n        /* \"contracts/YunaswapV2Router02.sol\":8390:8429  IERC20(path[path.length - 1]).balanceOf */\n      and\n      0x70a08231\n        /* \"contracts/YunaswapV2Router02.sol\":8430:8432  to */\n      dup9\n        /* \"contracts/YunaswapV2Router02.sol\":8390:8433  IERC20(path[path.length - 1]).balanceOf(to) */\n      mload(0x40)\n      dup3\n      0xffffffff\n      and\n      0xe0\n      shl\n      dup2\n      mstore\n      0x04\n      add\n      dup1\n      dup3\n      sub(shl(0xa0, 0x01), 0x01)\n      and\n      sub(shl(0xa0, 0x01), 0x01)\n      and\n      dup2\n      mstore\n      0x20\n      add\n      swap2\n      pop\n      pop\n      0x20\n      mload(0x40)\n      dup1\n      dup4\n      sub\n      dup2\n      dup7\n      dup1\n      extcodesize\n      iszero\n        /* \"--CODEGEN--\":5:14   */\n      dup1\n        /* \"--CODEGEN--\":2:4   */\n      iszero\n      tag_126\n      jumpi\n        /* \"--CODEGEN--\":27:28   */\n      0x00\n        /* \"--CODEGEN--\":24:25   */\n      dup1\n        /* \"--CODEGEN--\":17:29   */\n      revert\n        /* \"--CODEGEN--\":2:4   */\n    tag_126:\n        /* \"contracts/YunaswapV2Router02.sol\":8390:8433  IERC20(path[path.length - 1]).balanceOf(to) */\n      pop\n      gas\n      staticcall\n      iszero\n        /* \"--CODEGEN--\":8:17   */\n      dup1\n        /* \"--CODEGEN--\":5:7   */\n      iszero\n      tag_128\n      jumpi\n        /* \"--CODEGEN--\":45:61   */\n      returndatasize\n        /* \"--CODEGEN--\":42:43   */\n      0x00\n        /* \"--CODEGEN--\":39:40   */\n      dup1\n        /* \"--CODEGEN--\":24:62   */\n      returndatacopy\n        /* \"--CODEGEN--\":77:93   */\n      returndatasize\n        /* \"--CODEGEN--\":74:75   */\n      0x00\n        /* \"--CODEGEN--\":67:94   */\n      revert\n        /* \"--CODEGEN--\":5:7   */\n    tag_128:\n        /* \"contracts/YunaswapV2Router02.sol\":8390:8433  IERC20(path[path.length - 1]).balanceOf(to) */\n      pop\n      pop\n      pop\n      pop\n      mload(0x40)\n      returndatasize\n        /* \"--CODEGEN--\":15:17   */\n      0x20\n        /* \"--CODEGEN--\":10:13   */\n      dup2\n        /* \"--CODEGEN--\":7:18   */\n      lt\n        /* \"--CODEGEN--\":4:6   */\n      iszero\n      tag_129\n      jumpi\n        /* \"--CODEGEN--\":31:32   */\n      0x00\n        /* \"--CODEGEN--\":28:29   */\n      dup1\n        /* \"--CODEGEN--\":21:33   */\n      revert\n        /* \"--CODEGEN--\":4:6   */\n    tag_129:\n      pop\n        /* \"contracts/YunaswapV2Router02.sol\":8390:8433  IERC20(path[path.length - 1]).balanceOf(to) */\n      mload\n      swap1\n        /* \"contracts/YunaswapV2Router02.sol\":8390:8452  IERC20(path[path.length - 1]).balanceOf(to).sub(balanceBefore) */\n      0xffffffff\n        /* \"contracts/YunaswapV2Router02.sol\":8390:8437  IERC20(path[path.length - 1]).balanceOf(to).sub */\n      tag_130\n        /* \"contracts/YunaswapV2Router02.sol\":8390:8452  IERC20(path[path.length - 1]).balanceOf(to).sub(balanceBefore) */\n      and\n      jump\t// in\n    tag_124:\n        /* \"contracts/YunaswapV2Router02.sol\":8390:8468  IERC20(path[path.length - 1]).balanceOf(to).sub(balanceBefore) >= amountOutMin */\n      lt\n      iszero\n        /* \"contracts/YunaswapV2Router02.sol\":8369:8538  require(... */\n      tag_131\n      jumpi\n      mload(0x40)\n      shl(0xe5, 0x461bcd)\n      dup2\n      mstore\n      0x04\n      add\n      dup1\n      dup1\n      0x20\n      add\n      dup3\n      dup2\n      sub\n      dup3\n      mstore\n      0x2c\n      dup2\n      mstore\n      0x20\n      add\n      dup1\n      data_94702b7cb9c4ecfa144d890874b1a30d9ecd6dd7aa99e58c9a9702e3b0c4fec3\n      0x2c\n      swap2\n      codecopy\n      0x40\n      add\n      swap2\n      pop\n      pop\n      mload(0x40)\n      dup1\n      swap2\n      sub\n      swap1\n      revert\n    tag_131:\n        /* \"contracts/YunaswapV2Router02.sol\":558:559  _ */\n      pop\n        /* \"contracts/YunaswapV2Router02.sol\":7845:8545  function swapExactTokensForTokensSupportingFeeOnTransferTokens(... */\n      pop\n      pop\n      pop\n      pop\n      pop\n      pop\n      pop\n      jump\t// out\n        /* \"contracts/YunaswapV2Router02.sol\":9047:9301  function getAmountIn(uint amountOut, uint reserveIn, uint reserveOut)... */\n    tag_48:\n        /* \"contracts/YunaswapV2Router02.sol\":9195:9208  uint amountIn */\n      0x00\n        /* \"contracts/YunaswapV2Router02.sol\":9231:9294  YunaswapV2Library.getAmountIn(amountOut, reserveIn, reserveOut) */\n      tag_79\n        /* \"contracts/YunaswapV2Router02.sol\":9261:9270  amountOut */\n      dup5\n        /* \"contracts/YunaswapV2Router02.sol\":9272:9281  reserveIn */\n      dup5\n        /* \"contracts/YunaswapV2Router02.sol\":9283:9293  reserveOut */\n      dup5\n        /* \"contracts/YunaswapV2Router02.sol\":9231:9260  YunaswapV2Library.getAmountIn */\n      tag_134\n        /* \"contracts/YunaswapV2Router02.sol\":9231:9294  YunaswapV2Library.getAmountIn(amountOut, reserveIn, reserveOut) */\n      jump\t// in\n        /* \"contracts/YunaswapV2Router02.sol\":5884:6480  function swapTokensForExactTokens(... */\n    tag_54:\n        /* \"contracts/YunaswapV2Router02.sol\":6102:6123  uint[] memory amounts */\n      0x60\n        /* \"contracts/YunaswapV2Router02.sol\":6083:6091  deadline */\n      dup2\n        /* \"contracts/YunaswapV2Router02.sol\":503:518  block.timestamp */\n      timestamp\n        /* \"contracts/YunaswapV2Router02.sol\":491:499  deadline */\n      dup2\n        /* \"contracts/YunaswapV2Router02.sol\":491:518  deadline >= block.timestamp */\n      lt\n      iszero\n        /* \"contracts/YunaswapV2Router02.sol\":483:548  require(deadline >= block.timestamp, 'YunaswapV2Router: EXPIRED') */\n      tag_136\n      jumpi\n      0x40\n      dup1\n      mload\n      shl(0xe5, 0x461bcd)\n      dup2\n      mstore\n      0x20\n      0x04\n      dup3\n      add\n      mstore\n      0x19\n      0x24\n      dup3\n      add\n      mstore\n      0x00\n      dup1\n      mload\n      0x20\n      data_ecd1dfdaf7ff5a69399006cd48a1dadf4d115dfdebfff5e9ef7827430b45319c\n      dup4\n      codecopy\n      dup2\n      mload\n      swap2\n      mstore\n      0x44\n      dup3\n      add\n      mstore\n      swap1\n      mload\n      swap1\n      dup2\n      swap1\n      sub\n      0x64\n      add\n      swap1\n      revert\n    tag_136:\n        /* \"contracts/YunaswapV2Router02.sol\":6145:6201  YunaswapV2Library.getAmountsIn(factory, amountOut, path) */\n      tag_138\n        /* \"contracts/YunaswapV2Router02.sol\":6176:6183  factory */\n      immutable(\"0x277ab82e5a4641341820a4a2933a62c1de997e42e92548657ae21b3728d580fe\")\n        /* \"contracts/YunaswapV2Router02.sol\":6185:6194  amountOut */\n      dup10\n        /* \"contracts/YunaswapV2Router02.sol\":6196:6200  path */\n      dup9\n      dup9\n        /* \"contracts/YunaswapV2Router02.sol\":6145:6201  YunaswapV2Library.getAmountsIn(factory, amountOut, path) */\n      dup1\n      dup1\n      0x20\n      mul\n      0x20\n      add\n      mload(0x40)\n      swap1\n      dup2\n      add\n      0x40\n      mstore\n      dup1\n      swap4\n      swap3\n      swap2\n      swap1\n      dup2\n      dup2\n      mstore\n      0x20\n      add\n      dup4\n      dup4\n      0x20\n      mul\n        /* \"--CODEGEN--\":30:33   */\n      dup1\n        /* \"--CODEGEN--\":22:28   */\n      dup3\n        /* \"--CODEGEN--\":14:20   */\n      dup5\n        /* \"--CODEGEN--\":1:34   */\n      calldatacopy\n        /* \"--CODEGEN--\":99:100   */\n      0x00\n        /* \"--CODEGEN--\":81:97   */\n      swap3\n      add\n        /* \"--CODEGEN--\":74:101   */\n      swap2\n      swap1\n      swap2\n      mstore\n      pop\n        /* \"contracts/YunaswapV2Router02.sol\":6145:6175  YunaswapV2Library.getAmountsIn */\n      tag_83\n      swap3\n      pop\n      pop\n      pop\n        /* \"contracts/YunaswapV2Router02.sol\":6145:6201  YunaswapV2Library.getAmountsIn(factory, amountOut, path) */\n      jump\t// in\n    tag_138:\n        /* \"contracts/YunaswapV2Router02.sol\":6135:6201  amounts = YunaswapV2Library.getAmountsIn(factory, amountOut, path) */\n      swap2\n      pop\n        /* \"contracts/YunaswapV2Router02.sol\":6233:6244  amountInMax */\n      dup7\n        /* \"contracts/YunaswapV2Router02.sol\":6219:6226  amounts */\n      dup3\n        /* \"contracts/YunaswapV2Router02.sol\":6227:6228  0 */\n      0x00\n        /* \"contracts/YunaswapV2Router02.sol\":6219:6229  amounts[0] */\n      dup2\n      mload\n      dup2\n      lt\n      tag_139\n      jumpi\n      invalid\n    tag_139:\n      0x20\n      mul\n      0x20\n      add\n      add\n      mload\n        /* \"contracts/YunaswapV2Router02.sol\":6219:6244  amounts[0] <= amountInMax */\n      gt\n      iszero\n        /* \"contracts/YunaswapV2Router02.sol\":6211:6289  require(amounts[0] <= amountInMax, 'YunaswapV2Router: EXCESSIVE_INPUT_AMOUNT') */\n      tag_99\n      jumpi\n      mload(0x40)\n      shl(0xe5, 0x461bcd)\n      dup2\n      mstore\n      0x04\n      add\n      dup1\n      dup1\n      0x20\n      add\n      dup3\n      dup2\n      sub\n      dup3\n      mstore\n      0x28\n      dup2\n      mstore\n      0x20\n      add\n      dup1\n      data_c2c6a1e070684f55ca4d5fd0808ea33d2ae920dda3aaa29da9fd1a8a73f169c7\n      0x28\n      swap2\n      codecopy\n      0x40\n      add\n      swap2\n      pop\n      pop\n      mload(0x40)\n      dup1\n      swap2\n      sub\n      swap1\n      revert\n        /* \"contracts/YunaswapV2Router02.sol\":8593:8780  function quote(uint amountA, uint reserveA, uint reserveB) public pure virtual override returns (uint amountB) {... */\n    tag_60:\n        /* \"contracts/YunaswapV2Router02.sol\":8690:8702  uint amountB */\n      0x00\n        /* \"contracts/YunaswapV2Router02.sol\":8721:8773  YunaswapV2Library.quote(amountA, reserveA, reserveB) */\n      tag_79\n        /* \"contracts/YunaswapV2Router02.sol\":8745:8752  amountA */\n      dup5\n        /* \"contracts/YunaswapV2Router02.sol\":8754:8762  reserveA */\n      dup5\n        /* \"contracts/YunaswapV2Router02.sol\":8764:8772  reserveB */\n      dup5\n        /* \"contracts/YunaswapV2Router02.sol\":8721:8744  YunaswapV2Library.quote */\n      tag_150\n        /* \"contracts/YunaswapV2Router02.sol\":8721:8773  YunaswapV2Library.quote(amountA, reserveA, reserveB) */\n      jump\t// in\n        /* \"contracts/YunaswapV2Router02.sol\":2818:3673  function removeLiquidity(... */\n    tag_63:\n        /* \"contracts/YunaswapV2Router02.sol\":3064:3076  uint amountA */\n      0x00\n        /* \"contracts/YunaswapV2Router02.sol\":3078:3090  uint amountB */\n      dup1\n        /* \"contracts/YunaswapV2Router02.sol\":3045:3053  deadline */\n      dup3\n        /* \"contracts/YunaswapV2Router02.sol\":503:518  block.timestamp */\n      timestamp\n        /* \"contracts/YunaswapV2Router02.sol\":491:499  deadline */\n      dup2\n        /* \"contracts/YunaswapV2Router02.sol\":491:518  deadline >= block.timestamp */\n      lt\n      iszero\n        /* \"contracts/YunaswapV2Router02.sol\":483:548  require(deadline >= block.timestamp, 'YunaswapV2Router: EXPIRED') */\n      tag_152\n      jumpi\n      0x40\n      dup1\n      mload\n      shl(0xe5, 0x461bcd)\n      dup2\n      mstore\n      0x20\n      0x04\n      dup3\n      add\n      mstore\n      0x19\n      0x24\n      dup3\n      add\n      mstore\n      0x00\n      dup1\n      mload\n      0x20\n      data_ecd1dfdaf7ff5a69399006cd48a1dadf4d115dfdebfff5e9ef7827430b45319c\n      dup4\n      codecopy\n      dup2\n      mload\n      swap2\n      mstore\n      0x44\n      dup3\n      add\n      mstore\n      swap1\n      mload\n      swap1\n      dup2\n      swap1\n      sub\n      0x64\n      add\n      swap1\n      revert\n    tag_152:\n        /* \"contracts/YunaswapV2Router02.sol\":3102:3114  address pair */\n      0x00\n        /* \"contracts/YunaswapV2Router02.sol\":3117:3167  YunaswapV2Library.pairFor(factory, tokenA, tokenB) */\n      tag_154\n        /* \"contracts/YunaswapV2Router02.sol\":3143:3150  factory */\n      immutable(\"0x277ab82e5a4641341820a4a2933a62c1de997e42e92548657ae21b3728d580fe\")\n        /* \"contracts/YunaswapV2Router02.sol\":3152:3158  tokenA */\n      dup13\n        /* \"contracts/YunaswapV2Router02.sol\":3160:3166  tokenB */\n      dup13\n        /* \"contracts/YunaswapV2Router02.sol\":3117:3142  YunaswapV2Library.pairFor */\n      tag_86\n        /* \"contracts/YunaswapV2Router02.sol\":3117:3167  YunaswapV2Library.pairFor(factory, tokenA, tokenB) */\n      jump\t// in\n    tag_154:\n        /* \"contracts/YunaswapV2Router02.sol\":3177:3240  IYunaswapV2Pair(pair).transferFrom(msg.sender, pair, liquidity) */\n      0x40\n      dup1\n      mload\n      shl(0xe0, 0x23b872dd)\n      dup2\n      mstore\n        /* \"contracts/YunaswapV2Router02.sol\":3212:3222  msg.sender */\n      caller\n        /* \"contracts/YunaswapV2Router02.sol\":3177:3240  IYunaswapV2Pair(pair).transferFrom(msg.sender, pair, liquidity) */\n      0x04\n      dup3\n      add\n      mstore\n      sub(shl(0xa0, 0x01), 0x01)\n        /* \"contracts/YunaswapV2Router02.sol\":3177:3211  IYunaswapV2Pair(pair).transferFrom */\n      dup4\n      and\n        /* \"contracts/YunaswapV2Router02.sol\":3177:3240  IYunaswapV2Pair(pair).transferFrom(msg.sender, pair, liquidity) */\n      0x24\n      dup3\n      add\n      dup2\n      swap1\n      mstore\n      0x44\n      dup3\n      add\n      dup14\n      swap1\n      mstore\n      swap2\n      mload\n        /* \"contracts/YunaswapV2Router02.sol\":3102:3167  address pair = YunaswapV2Library.pairFor(factory, tokenA, tokenB) */\n      swap3\n      swap4\n      pop\n        /* \"contracts/YunaswapV2Router02.sol\":3177:3211  IYunaswapV2Pair(pair).transferFrom */\n      swap1\n      swap2\n      0x23b872dd\n      swap2\n        /* \"contracts/YunaswapV2Router02.sol\":3177:3240  IYunaswapV2Pair(pair).transferFrom(msg.sender, pair, liquidity) */\n      0x64\n      dup1\n      dup3\n      add\n      swap3\n      0x20\n      swap3\n      swap1\n      swap2\n      swap1\n      dup3\n      swap1\n      sub\n      add\n      dup2\n      0x00\n        /* \"contracts/YunaswapV2Router02.sol\":3177:3211  IYunaswapV2Pair(pair).transferFrom */\n      dup8\n        /* \"contracts/YunaswapV2Router02.sol\":3177:3240  IYunaswapV2Pair(pair).transferFrom(msg.sender, pair, liquidity) */\n      dup1\n      extcodesize\n      iszero\n        /* \"--CODEGEN--\":2:4   */\n      dup1\n      iszero\n      tag_155\n      jumpi\n        /* \"--CODEGEN--\":27:28   */\n      0x00\n        /* \"--CODEGEN--\":24:25   */\n      dup1\n        /* \"--CODEGEN--\":17:29   */\n      revert\n        /* \"--CODEGEN--\":2:4   */\n    tag_155:\n        /* \"contracts/YunaswapV2Router02.sol\":3177:3240  IYunaswapV2Pair(pair).transferFrom(msg.sender, pair, liquidity) */\n      pop\n      gas\n      call\n      iszero\n        /* \"--CODEGEN--\":8:17   */\n      dup1\n        /* \"--CODEGEN--\":5:7   */\n      iszero\n      tag_157\n      jumpi\n        /* \"--CODEGEN--\":45:61   */\n      returndatasize\n        /* \"--CODEGEN--\":42:43   */\n      0x00\n        /* \"--CODEGEN--\":39:40   */\n      dup1\n        /* \"--CODEGEN--\":24:62   */\n      returndatacopy\n        /* \"--CODEGEN--\":77:93   */\n      returndatasize\n        /* \"--CODEGEN--\":74:75   */\n      0x00\n        /* \"--CODEGEN--\":67:94   */\n      revert\n        /* \"--CODEGEN--\":5:7   */\n    tag_157:\n        /* \"contracts/YunaswapV2Router02.sol\":3177:3240  IYunaswapV2Pair(pair).transferFrom(msg.sender, pair, liquidity) */\n      pop\n      pop\n      pop\n      pop\n      mload(0x40)\n      returndatasize\n        /* \"--CODEGEN--\":15:17   */\n      0x20\n        /* \"--CODEGEN--\":10:13   */\n      dup2\n        /* \"--CODEGEN--\":7:18   */\n      lt\n        /* \"--CODEGEN--\":4:6   */\n      iszero\n      tag_158\n      jumpi\n        /* \"--CODEGEN--\":31:32   */\n      0x00\n        /* \"--CODEGEN--\":28:29   */\n      dup1\n        /* \"--CODEGEN--\":21:33   */\n      revert\n        /* \"--CODEGEN--\":4:6   */\n    tag_158:\n      pop\n      pop\n        /* \"contracts/YunaswapV2Router02.sol\":3307:3337  IYunaswapV2Pair(pair).burn(to) */\n      0x40\n      dup1\n      mload\n      shl(0xe2, 0x226bf2d1)\n      dup2\n      mstore\n      sub(shl(0xa0, 0x01), 0x01)\n      dup9\n      dup2\n      and\n      0x04\n      dup4\n      add\n      mstore\n      dup3\n      mload\n        /* \"contracts/YunaswapV2Router02.sol\":3277:3289  uint amount0 */\n      0x00\n      swap4\n      dup5\n      swap4\n        /* \"contracts/YunaswapV2Router02.sol\":3307:3333  IYunaswapV2Pair(pair).burn */\n      swap3\n      dup7\n      and\n      swap3\n      0x89afcb44\n      swap3\n        /* \"contracts/YunaswapV2Router02.sol\":3307:3337  IYunaswapV2Pair(pair).burn(to) */\n      0x24\n      dup1\n      dup4\n      add\n      swap4\n      swap3\n      dup3\n      swap1\n      sub\n      add\n      dup2\n        /* \"contracts/YunaswapV2Router02.sol\":3277:3289  uint amount0 */\n      dup8\n        /* \"contracts/YunaswapV2Router02.sol\":3307:3333  IYunaswapV2Pair(pair).burn */\n      dup8\n        /* \"contracts/YunaswapV2Router02.sol\":3307:3337  IYunaswapV2Pair(pair).burn(to) */\n      dup1\n      extcodesize\n      iszero\n        /* \"--CODEGEN--\":2:4   */\n      dup1\n      iszero\n      tag_159\n      jumpi\n        /* \"--CODEGEN--\":27:28   */\n      0x00\n        /* \"--CODEGEN--\":24:25   */\n      dup1\n        /* \"--CODEGEN--\":17:29   */\n      revert\n        /* \"--CODEGEN--\":2:4   */\n    tag_159:\n        /* \"contracts/YunaswapV2Router02.sol\":3307:3337  IYunaswapV2Pair(pair).burn(to) */\n      pop\n      gas\n      call\n      iszero\n        /* \"--CODEGEN--\":8:17   */\n      dup1\n        /* \"--CODEGEN--\":5:7   */\n      iszero\n      tag_161\n      jumpi\n        /* \"--CODEGEN--\":45:61   */\n      returndatasize\n        /* \"--CODEGEN--\":42:43   */\n      0x00\n        /* \"--CODEGEN--\":39:40   */\n      dup1\n        /* \"--CODEGEN--\":24:62   */\n      returndatacopy\n        /* \"--CODEGEN--\":77:93   */\n      returndatasize\n        /* \"--CODEGEN--\":74:75   */\n      0x00\n        /* \"--CODEGEN--\":67:94   */\n      revert\n        /* \"--CODEGEN--\":5:7   */\n    tag_161:\n        /* \"contracts/YunaswapV2Router02.sol\":3307:3337  IYunaswapV2Pair(pair).burn(to) */\n      pop\n      pop\n      pop\n      pop\n      mload(0x40)\n      returndatasize\n        /* \"--CODEGEN--\":15:17   */\n      0x40\n        /* \"--CODEGEN--\":10:13   */\n      dup2\n        /* \"--CODEGEN--\":7:18   */\n      lt\n        /* \"--CODEGEN--\":4:6   */\n      iszero\n      tag_162\n      jumpi\n        /* \"--CODEGEN--\":31:32   */\n      0x00\n        /* \"--CODEGEN--\":28:29   */\n      dup1\n        /* \"--CODEGEN--\":21:33   */\n      revert\n        /* \"--CODEGEN--\":4:6   */\n    tag_162:\n      pop\n        /* \"contracts/YunaswapV2Router02.sol\":3307:3337  IYunaswapV2Pair(pair).burn(to) */\n      dup1\n      mload\n      0x20\n      swap1\n      swap2\n      add\n      mload\n      swap1\n      swap3\n      pop\n      swap1\n      pop\n        /* \"contracts/YunaswapV2Router02.sol\":3348:3362  address token0 */\n      0x00\n        /* \"contracts/YunaswapV2Router02.sol\":3367:3411  YunaswapV2Library.sortTokens(tokenA, tokenB) */\n      tag_163\n        /* \"contracts/YunaswapV2Router02.sol\":3396:3402  tokenA */\n      dup15\n        /* \"contracts/YunaswapV2Router02.sol\":3404:3410  tokenB */\n      dup15\n        /* \"contracts/YunaswapV2Router02.sol\":3367:3395  YunaswapV2Library.sortTokens */\n      tag_164\n        /* \"contracts/YunaswapV2Router02.sol\":3367:3411  YunaswapV2Library.sortTokens(tokenA, tokenB) */\n      jump\t// in\n    tag_163:\n        /* \"contracts/YunaswapV2Router02.sol\":3347:3411  (address token0,) = YunaswapV2Library.sortTokens(tokenA, tokenB) */\n      pop\n      swap1\n      pop\n        /* \"contracts/YunaswapV2Router02.sol\":3452:3458  token0 */\n      dup1\n      sub(shl(0xa0, 0x01), 0x01)\n        /* \"contracts/YunaswapV2Router02.sol\":3442:3458  tokenA == token0 */\n      and\n        /* \"contracts/YunaswapV2Router02.sol\":3442:3448  tokenA */\n      dup15\n      sub(shl(0xa0, 0x01), 0x01)\n        /* \"contracts/YunaswapV2Router02.sol\":3442:3458  tokenA == token0 */\n      and\n      eq\n        /* \"contracts/YunaswapV2Router02.sol\":3442:3500  tokenA == token0 ? (amount0, amount1) : (amount1, amount0) */\n      tag_165\n      jumpi\n        /* \"contracts/YunaswapV2Router02.sol\":3483:3490  amount1 */\n      dup2\n        /* \"contracts/YunaswapV2Router02.sol\":3492:3499  amount0 */\n      dup4\n        /* \"contracts/YunaswapV2Router02.sol\":3442:3500  tokenA == token0 ? (amount0, amount1) : (amount1, amount0) */\n      jump(tag_166)\n    tag_165:\n        /* \"contracts/YunaswapV2Router02.sol\":3462:3469  amount0 */\n      dup3\n        /* \"contracts/YunaswapV2Router02.sol\":3471:3478  amount1 */\n      dup3\n        /* \"contracts/YunaswapV2Router02.sol\":3442:3500  tokenA == token0 ? (amount0, amount1) : (amount1, amount0) */\n    tag_166:\n        /* \"contracts/YunaswapV2Router02.sol\":3421:3500  (amountA, amountB) = tokenA == token0 ? (amount0, amount1) : (amount1, amount0) */\n      swap1\n      swap8\n      pop\n      swap6\n      pop\n        /* \"contracts/YunaswapV2Router02.sol\":3518:3539  amountA >= amountAMin */\n      dup11\n      dup8\n      lt\n      iszero\n        /* \"contracts/YunaswapV2Router02.sol\":3510:3583  require(amountA >= amountAMin, 'YunaswapV2Router: INSUFFICIENT_A_AMOUNT') */\n      tag_167\n      jumpi\n      mload(0x40)\n      shl(0xe5, 0x461bcd)\n      dup2\n      mstore\n      0x04\n      add\n      dup1\n      dup1\n      0x20\n      add\n      dup3\n      dup2\n      sub\n      dup3\n      mstore\n      0x27\n      dup2\n      mstore\n      0x20\n      add\n      dup1\n      data_3ced82d7ab12d564a58338444c355b538c8d8eab2ae415b1b4f2214791d7fca2\n      0x27\n      swap2\n      codecopy\n      0x40\n      add\n      swap2\n      pop\n      pop\n      mload(0x40)\n      dup1\n      swap2\n      sub\n      swap1\n      revert\n    tag_167:\n        /* \"contracts/YunaswapV2Router02.sol\":3612:3622  amountBMin */\n      dup10\n        /* \"contracts/YunaswapV2Router02.sol\":3601:3608  amountB */\n      dup7\n        /* \"contracts/YunaswapV2Router02.sol\":3601:3622  amountB >= amountBMin */\n      lt\n      iszero\n        /* \"contracts/YunaswapV2Router02.sol\":3593:3666  require(amountB >= amountBMin, 'YunaswapV2Router: INSUFFICIENT_B_AMOUNT') */\n      tag_168\n      jumpi\n      mload(0x40)\n      shl(0xe5, 0x461bcd)\n      dup2\n      mstore\n      0x04\n      add\n      dup1\n      dup1\n      0x20\n      add\n      dup3\n      dup2\n      sub\n      dup3\n      mstore\n      0x27\n      dup2\n      mstore\n      0x20\n      add\n      dup1\n      data_a06bbffc7dfde7a24e4f18fcb5108f17127e2569ecfa9f8852337f73cdbe780c\n      0x27\n      swap2\n      codecopy\n      0x40\n      add\n      swap2\n      pop\n      pop\n      mload(0x40)\n      dup1\n      swap2\n      sub\n      swap1\n      revert\n    tag_168:\n        /* \"contracts/YunaswapV2Router02.sol\":558:559  _ */\n      pop\n      pop\n      pop\n      pop\n        /* \"contracts/YunaswapV2Router02.sol\":2818:3673  function removeLiquidity(... */\n      pop\n      swap8\n      pop\n      swap8\n      swap6\n      pop\n      pop\n      pop\n      pop\n      pop\n      pop\n      jump\t// out\n        /* \"contracts/YunaswapV2Router02.sol\":394:435  address public immutable override factory */\n    tag_65:\n      immutable(\"0x277ab82e5a4641341820a4a2933a62c1de997e42e92548657ae21b3728d580fe\")\n      dup2\n      jump\t// out\n        /* \"contracts/YunaswapV2Router02.sol\":9307:9553  function getAmountsOut(uint amountIn, address[] memory path)... */\n    tag_71:\n        /* \"contracts/YunaswapV2Router02.sol\":9446:9467  uint[] memory amounts */\n      0x60\n        /* \"contracts/YunaswapV2Router02.sol\":9490:9546  YunaswapV2Library.getAmountsOut(factory, amountIn, path) */\n      tag_82\n        /* \"contracts/YunaswapV2Router02.sol\":9522:9529  factory */\n      immutable(\"0x277ab82e5a4641341820a4a2933a62c1de997e42e92548657ae21b3728d580fe\")\n        /* \"contracts/YunaswapV2Router02.sol\":9531:9539  amountIn */\n      dup5\n        /* \"contracts/YunaswapV2Router02.sol\":9541:9545  path */\n      dup5\n        /* \"contracts/YunaswapV2Router02.sol\":9490:9521  YunaswapV2Library.getAmountsOut */\n      tag_97\n        /* \"contracts/YunaswapV2Router02.sol\":9490:9546  YunaswapV2Library.getAmountsOut(factory, amountIn, path) */\n      jump\t// in\n        /* \"contracts/YunaswapV2Router02.sol\":2054:2779  function addLiquidity(... */\n    tag_77:\n        /* \"contracts/YunaswapV2Router02.sol\":2333:2345  uint amountA */\n      0x00\n        /* \"contracts/YunaswapV2Router02.sol\":2347:2359  uint amountB */\n      dup1\n        /* \"contracts/YunaswapV2Router02.sol\":2361:2375  uint liquidity */\n      0x00\n        /* \"contracts/YunaswapV2Router02.sol\":2314:2322  deadline */\n      dup4\n        /* \"contracts/YunaswapV2Router02.sol\":503:518  block.timestamp */\n      timestamp\n        /* \"contracts/YunaswapV2Router02.sol\":491:499  deadline */\n      dup2\n        /* \"contracts/YunaswapV2Router02.sol\":491:518  deadline >= block.timestamp */\n      lt\n      iszero\n        /* \"contracts/YunaswapV2Router02.sol\":483:548  require(deadline >= block.timestamp, 'YunaswapV2Router: EXPIRED') */\n      tag_172\n      jumpi\n      0x40\n      dup1\n      mload\n      shl(0xe5, 0x461bcd)\n      dup2\n      mstore\n      0x20\n      0x04\n      dup3\n      add\n      mstore\n      0x19\n      0x24\n      dup3\n      add\n      mstore\n      0x00\n      dup1\n      mload\n      0x20\n      data_ecd1dfdaf7ff5a69399006cd48a1dadf4d115dfdebfff5e9ef7827430b45319c\n      dup4\n      codecopy\n      dup2\n      mload\n      swap2\n      mstore\n      0x44\n      dup3\n      add\n      mstore\n      swap1\n      mload\n      swap1\n      dup2\n      swap1\n      sub\n      0x64\n      add\n      swap1\n      revert\n    tag_172:\n        /* \"contracts/YunaswapV2Router02.sol\":2408:2493  _addLiquidity(tokenA, tokenB, amountADesired, amountBDesired, amountAMin, amountBMin) */\n      tag_174\n        /* \"contracts/YunaswapV2Router02.sol\":2422:2428  tokenA */\n      dup13\n        /* \"contracts/YunaswapV2Router02.sol\":2430:2436  tokenB */\n      dup13\n        /* \"contracts/YunaswapV2Router02.sol\":2438:2452  amountADesired */\n      dup13\n        /* \"contracts/YunaswapV2Router02.sol\":2454:2468  amountBDesired */\n      dup13\n        /* \"contracts/YunaswapV2Router02.sol\":2470:2480  amountAMin */\n      dup13\n        /* \"contracts/YunaswapV2Router02.sol\":2482:2492  amountBMin */\n      dup13\n        /* \"contracts/YunaswapV2Router02.sol\":2408:2421  _addLiquidity */\n      tag_175\n        /* \"contracts/YunaswapV2Router02.sol\":2408:2493  _addLiquidity(tokenA, tokenB, amountADesired, amountBDesired, amountAMin, amountBMin) */\n      jump\t// in\n    tag_174:\n        /* \"contracts/YunaswapV2Router02.sol\":2387:2493  (amountA, amountB) = _addLiquidity(tokenA, tokenB, amountADesired, amountBDesired, amountAMin, amountBMin) */\n      swap1\n      swap5\n      pop\n      swap3\n      pop\n        /* \"contracts/YunaswapV2Router02.sol\":2503:2515  address pair */\n      0x00\n        /* \"contracts/YunaswapV2Router02.sol\":2518:2568  YunaswapV2Library.pairFor(factory, tokenA, tokenB) */\n      tag_176\n        /* \"contracts/YunaswapV2Router02.sol\":2544:2551  factory */\n      immutable(\"0x277ab82e5a4641341820a4a2933a62c1de997e42e92548657ae21b3728d580fe\")\n        /* \"contracts/YunaswapV2Router02.sol\":2553:2559  tokenA */\n      dup15\n        /* \"contracts/YunaswapV2Router02.sol\":2561:2567  tokenB */\n      dup15\n        /* \"contracts/YunaswapV2Router02.sol\":2518:2543  YunaswapV2Library.pairFor */\n      tag_86\n        /* \"contracts/YunaswapV2Router02.sol\":2518:2568  YunaswapV2Library.pairFor(factory, tokenA, tokenB) */\n      jump\t// in\n    tag_176:\n        /* \"contracts/YunaswapV2Router02.sol\":2503:2568  address pair = YunaswapV2Library.pairFor(factory, tokenA, tokenB) */\n      swap1\n      pop\n        /* \"contracts/YunaswapV2Router02.sol\":2578:2644  TransferHelper.safeTransferFrom(tokenA, msg.sender, pair, amountA) */\n      tag_177\n        /* \"contracts/YunaswapV2Router02.sol\":2610:2616  tokenA */\n      dup14\n        /* \"contracts/YunaswapV2Router02.sol\":2618:2628  msg.sender */\n      caller\n        /* \"contracts/YunaswapV2Router02.sol\":2630:2634  pair */\n      dup4\n        /* \"contracts/YunaswapV2Router02.sol\":2636:2643  amountA */\n      dup9\n        /* \"contracts/YunaswapV2Router02.sol\":2578:2609  TransferHelper.safeTransferFrom */\n      tag_106\n        /* \"contracts/YunaswapV2Router02.sol\":2578:2644  TransferHelper.safeTransferFrom(tokenA, msg.sender, pair, amountA) */\n      jump\t// in\n    tag_177:\n        /* \"contracts/YunaswapV2Router02.sol\":2654:2720  TransferHelper.safeTransferFrom(tokenB, msg.sender, pair, amountB) */\n      tag_178\n        /* \"contracts/YunaswapV2Router02.sol\":2686:2692  tokenB */\n      dup13\n        /* \"contracts/YunaswapV2Router02.sol\":2694:2704  msg.sender */\n      caller\n        /* \"contracts/YunaswapV2Router02.sol\":2706:2710  pair */\n      dup4\n        /* \"contracts/YunaswapV2Router02.sol\":2712:2719  amountB */\n      dup8\n        /* \"contracts/YunaswapV2Router02.sol\":2654:2685  TransferHelper.safeTransferFrom */\n      tag_106\n        /* \"contracts/YunaswapV2Router02.sol\":2654:2720  TransferHelper.safeTransferFrom(tokenB, msg.sender, pair, amountB) */\n      jump\t// in\n    tag_178:\n        /* \"contracts/YunaswapV2Router02.sol\":2758:2762  pair */\n      dup1\n      sub(shl(0xa0, 0x01), 0x01)\n        /* \"contracts/YunaswapV2Router02.sol\":2742:2768  IYunaswapV2Pair(pair).mint */\n      and\n      0x6a627842\n        /* \"contracts/YunaswapV2Router02.sol\":2769:2771  to */\n      dup9\n        /* \"contracts/YunaswapV2Router02.sol\":2742:2772  IYunaswapV2Pair(pair).mint(to) */\n      mload(0x40)\n      dup3\n      0xffffffff\n      and\n      0xe0\n      shl\n      dup2\n      mstore\n      0x04\n      add\n      dup1\n      dup3\n      sub(shl(0xa0, 0x01), 0x01)\n      and\n      sub(shl(0xa0, 0x01), 0x01)\n      and\n      dup2\n      mstore\n      0x20\n      add\n      swap2\n      pop\n      pop\n      0x20\n      mload(0x40)\n      dup1\n      dup4\n      sub\n      dup2\n      0x00\n      dup8\n      dup1\n      extcodesize\n      iszero\n        /* \"--CODEGEN--\":5:14   */\n      dup1\n        /* \"--CODEGEN--\":2:4   */\n      iszero\n      tag_179\n      jumpi\n        /* \"--CODEGEN--\":27:28   */\n      0x00\n        /* \"--CODEGEN--\":24:25   */\n      dup1\n        /* \"--CODEGEN--\":17:29   */\n      revert\n        /* \"--CODEGEN--\":2:4   */\n    tag_179:\n        /* \"contracts/YunaswapV2Router02.sol\":2742:2772  IYunaswapV2Pair(pair).mint(to) */\n      pop\n      gas\n      call\n      iszero\n        /* \"--CODEGEN--\":8:17   */\n      dup1\n        /* \"--CODEGEN--\":5:7   */\n      iszero\n      tag_181\n      jumpi\n        /* \"--CODEGEN--\":45:61   */\n      returndatasize\n        /* \"--CODEGEN--\":42:43   */\n      0x00\n        /* \"--CODEGEN--\":39:40   */\n      dup1\n        /* \"--CODEGEN--\":24:62   */\n      returndatacopy\n        /* \"--CODEGEN--\":77:93   */\n      returndatasize\n        /* \"--CODEGEN--\":74:75   */\n      0x00\n        /* \"--CODEGEN--\":67:94   */\n      revert\n        /* \"--CODEGEN--\":5:7   */\n    tag_181:\n        /* \"contracts/YunaswapV2Router02.sol\":2742:2772  IYunaswapV2Pair(pair).mint(to) */\n      pop\n      pop\n      pop\n      pop\n      mload(0x40)\n      returndatasize\n        /* \"--CODEGEN--\":15:17   */\n      0x20\n        /* \"--CODEGEN--\":10:13   */\n      dup2\n        /* \"--CODEGEN--\":7:18   */\n      lt\n        /* \"--CODEGEN--\":4:6   */\n      iszero\n      tag_182\n      jumpi\n        /* \"--CODEGEN--\":31:32   */\n      0x00\n        /* \"--CODEGEN--\":28:29   */\n      dup1\n        /* \"--CODEGEN--\":21:33   */\n      revert\n        /* \"--CODEGEN--\":4:6   */\n    tag_182:\n      pop\n        /* \"contracts/YunaswapV2Router02.sol\":2742:2772  IYunaswapV2Pair(pair).mint(to) */\n      mload\n        /* \"contracts/YunaswapV2Router02.sol\":2054:2779  function addLiquidity(... */\n      swap5\n      swap14\n      swap4\n      swap13\n      pop\n        /* \"contracts/YunaswapV2Router02.sol\":2742:2772  IYunaswapV2Pair(pair).mint(to) */\n      swap4\n      swap11\n      pop\n        /* \"contracts/YunaswapV2Router02.sol\":2054:2779  function addLiquidity(... */\n      swap2\n      swap9\n      pop\n      pop\n      pop\n      pop\n      pop\n      pop\n      pop\n      pop\n      pop\n      jump\t// out\n        /* \"contracts/libraries/YunaswapV2Library.sol\":2198:2710  function getAmountOut(uint amountIn, uint reserveIn, uint reserveOut) internal pure returns (uint amountOut) {... */\n    tag_80:\n        /* \"contracts/libraries/YunaswapV2Library.sol\":2291:2305  uint amountOut */\n      0x00\n        /* \"contracts/libraries/YunaswapV2Library.sol\":2336:2337  0 */\n      dup1\n        /* \"contracts/libraries/YunaswapV2Library.sol\":2325:2333  amountIn */\n      dup5\n        /* \"contracts/libraries/YunaswapV2Library.sol\":2325:2337  amountIn > 0 */\n      gt\n        /* \"contracts/libraries/YunaswapV2Library.sol\":2317:2386  require(amountIn > 0, 'YunaswapV2Library: INSUFFICIENT_INPUT_AMOUNT') */\n      tag_184\n      jumpi\n      mload(0x40)\n      shl(0xe5, 0x461bcd)\n      dup2\n      mstore\n      0x04\n      add\n      dup1\n      dup1\n      0x20\n      add\n      dup3\n      dup2\n      sub\n      dup3\n      mstore\n      0x2c\n      dup2\n      mstore\n      0x20\n      add\n      dup1\n      data_5e409a60e7ef2505443cee674a912db11b75b4ae6499bf82fe3d8b31520320fb\n      0x2c\n      swap2\n      codecopy\n      0x40\n      add\n      swap2\n      pop\n      pop\n      mload(0x40)\n      dup1\n      swap2\n      sub\n      swap1\n      revert\n    tag_184:\n        /* \"contracts/libraries/YunaswapV2Library.sol\":2416:2417  0 */\n      0x00\n        /* \"contracts/libraries/YunaswapV2Library.sol\":2404:2413  reserveIn */\n      dup4\n        /* \"contracts/libraries/YunaswapV2Library.sol\":2404:2417  reserveIn > 0 */\n      gt\n        /* \"contracts/libraries/YunaswapV2Library.sol\":2404:2435  reserveIn > 0 && reserveOut > 0 */\n      dup1\n      iszero\n      tag_185\n      jumpi\n      pop\n        /* \"contracts/libraries/YunaswapV2Library.sol\":2434:2435  0 */\n      0x00\n        /* \"contracts/libraries/YunaswapV2Library.sol\":2421:2431  reserveOut */\n      dup3\n        /* \"contracts/libraries/YunaswapV2Library.sol\":2421:2435  reserveOut > 0 */\n      gt\n        /* \"contracts/libraries/YunaswapV2Library.sol\":2404:2435  reserveIn > 0 && reserveOut > 0 */\n    tag_185:\n        /* \"contracts/libraries/YunaswapV2Library.sol\":2396:2481  require(reserveIn > 0 && reserveOut > 0, 'YunaswapV2Library: INSUFFICIENT_LIQUIDITY') */\n      tag_186\n      jumpi\n      mload(0x40)\n      shl(0xe5, 0x461bcd)\n      dup2\n      mstore\n      0x04\n      add\n      dup1\n      dup1\n      0x20\n      add\n      dup3\n      dup2\n      sub\n      dup3\n      mstore\n      0x29\n      dup2\n      mstore\n      0x20\n      add\n      dup1\n      data_3381990dcf2e2e734e03491d1c9a886b2ec985c8fc35f6af06111380c57721e3\n      0x29\n      swap2\n      codecopy\n      0x40\n      add\n      swap2\n      pop\n      pop\n      mload(0x40)\n      dup1\n      swap2\n      sub\n      swap1\n      revert\n    tag_186:\n        /* \"contracts/libraries/YunaswapV2Library.sol\":2491:2511  uint amountInWithFee */\n      0x00\n        /* \"contracts/libraries/YunaswapV2Library.sol\":2514:2531  amountIn.mul(997) */\n      tag_187\n        /* \"contracts/libraries/YunaswapV2Library.sol\":2514:2522  amountIn */\n      dup6\n        /* \"contracts/libraries/YunaswapV2Library.sol\":2527:2530  997 */\n      0x03e5\n        /* \"contracts/libraries/YunaswapV2Library.sol\":2514:2531  amountIn.mul(997) */\n      0xffffffff\n        /* \"contracts/libraries/YunaswapV2Library.sol\":2514:2526  amountIn.mul */\n      tag_188\n        /* \"contracts/libraries/YunaswapV2Library.sol\":2514:2531  amountIn.mul(997) */\n      and\n      jump\t// in\n    tag_187:\n        /* \"contracts/libraries/YunaswapV2Library.sol\":2491:2531  uint amountInWithFee = amountIn.mul(997) */\n      swap1\n      pop\n        /* \"contracts/libraries/YunaswapV2Library.sol\":2541:2555  uint numerator */\n      0x00\n        /* \"contracts/libraries/YunaswapV2Library.sol\":2558:2589  amountInWithFee.mul(reserveOut) */\n      tag_189\n        /* \"contracts/libraries/YunaswapV2Library.sol\":2491:2531  uint amountInWithFee = amountIn.mul(997) */\n      dup3\n        /* \"contracts/libraries/YunaswapV2Library.sol\":2578:2588  reserveOut */\n      dup6\n        /* \"contracts/libraries/YunaswapV2Library.sol\":2558:2589  amountInWithFee.mul(reserveOut) */\n      0xffffffff\n        /* \"contracts/libraries/YunaswapV2Library.sol\":2558:2577  amountInWithFee.mul */\n      tag_188\n        /* \"contracts/libraries/YunaswapV2Library.sol\":2558:2589  amountInWithFee.mul(reserveOut) */\n      and\n      jump\t// in\n    tag_189:\n        /* \"contracts/libraries/YunaswapV2Library.sol\":2541:2589  uint numerator = amountInWithFee.mul(reserveOut) */\n      swap1\n      pop\n        /* \"contracts/libraries/YunaswapV2Library.sol\":2599:2615  uint denominator */\n      0x00\n        /* \"contracts/libraries/YunaswapV2Library.sol\":2618:2658  reserveIn.mul(1000).add(amountInWithFee) */\n      tag_190\n        /* \"contracts/libraries/YunaswapV2Library.sol\":2642:2657  amountInWithFee */\n      dup4\n        /* \"contracts/libraries/YunaswapV2Library.sol\":2618:2637  reserveIn.mul(1000) */\n      tag_191\n        /* \"contracts/libraries/YunaswapV2Library.sol\":2618:2627  reserveIn */\n      dup9\n        /* \"contracts/libraries/YunaswapV2Library.sol\":2632:2636  1000 */\n      0x03e8\n        /* \"contracts/libraries/YunaswapV2Library.sol\":2618:2637  reserveIn.mul(1000) */\n      0xffffffff\n        /* \"contracts/libraries/YunaswapV2Library.sol\":2618:2631  reserveIn.mul */\n      tag_188\n        /* \"contracts/libraries/YunaswapV2Library.sol\":2618:2637  reserveIn.mul(1000) */\n      and\n      jump\t// in\n    tag_191:\n        /* \"contracts/libraries/YunaswapV2Library.sol\":2618:2641  reserveIn.mul(1000).add */\n      swap1\n        /* \"contracts/libraries/YunaswapV2Library.sol\":2618:2658  reserveIn.mul(1000).add(amountInWithFee) */\n      0xffffffff\n        /* \"contracts/libraries/YunaswapV2Library.sol\":2618:2641  reserveIn.mul(1000).add */\n      tag_192\n        /* \"contracts/libraries/YunaswapV2Library.sol\":2618:2658  reserveIn.mul(1000).add(amountInWithFee) */\n      and\n      jump\t// in\n    tag_190:\n        /* \"contracts/libraries/YunaswapV2Library.sol\":2599:2658  uint denominator = reserveIn.mul(1000).add(amountInWithFee) */\n      swap1\n      pop\n        /* \"contracts/libraries/YunaswapV2Library.sol\":2692:2703  denominator */\n      dup1\n        /* \"contracts/libraries/YunaswapV2Library.sol\":2680:2689  numerator */\n      dup3\n        /* \"contracts/libraries/YunaswapV2Library.sol\":2680:2703  numerator / denominator */\n      dup2\n      tag_193\n      jumpi\n      invalid\n    tag_193:\n      div\n      swap8\n        /* \"contracts/libraries/YunaswapV2Library.sol\":2198:2710  function getAmountOut(uint amountIn, uint reserveIn, uint reserveOut) internal pure returns (uint amountOut) {... */\n      swap7\n      pop\n      pop\n      pop\n      pop\n      pop\n      pop\n      pop\n      jump\t// out\n        /* \"contracts/libraries/YunaswapV2Library.sol\":3957:4482  function getAmountsIn(address factory, uint amountOut, address[] memory path) internal view returns (uint[] memory amounts) {... */\n    tag_83:\n        /* \"contracts/libraries/YunaswapV2Library.sol\":4058:4079  uint[] memory amounts */\n      0x60\n        /* \"contracts/libraries/YunaswapV2Library.sol\":4114:4115  2 */\n      0x02\n        /* \"contracts/libraries/YunaswapV2Library.sol\":4099:4103  path */\n      dup3\n        /* \"contracts/libraries/YunaswapV2Library.sol\":4099:4110  path.length */\n      mload\n        /* \"contracts/libraries/YunaswapV2Library.sol\":4099:4115  path.length >= 2 */\n      lt\n      iszero\n        /* \"contracts/libraries/YunaswapV2Library.sol\":4091:4151  require(path.length >= 2, 'YunaswapV2Library: INVALID_PATH') */\n      tag_195\n      jumpi\n      0x40\n      dup1\n      mload\n      shl(0xe5, 0x461bcd)\n      dup2\n      mstore\n      0x20\n      0x04\n      dup3\n      add\n      mstore\n      0x1f\n      0x24\n      dup3\n      add\n      mstore\n      0x59756e617377617056324c6962726172793a20494e56414c49445f5041544800\n      0x44\n      dup3\n      add\n      mstore\n      swap1\n      mload\n      swap1\n      dup2\n      swap1\n      sub\n      0x64\n      add\n      swap1\n      revert\n    tag_195:\n        /* \"contracts/libraries/YunaswapV2Library.sol\":4182:4186  path */\n      dup2\n        /* \"contracts/libraries/YunaswapV2Library.sol\":4182:4193  path.length */\n      mload\n        /* \"contracts/libraries/YunaswapV2Library.sol\":4171:4194  new uint[](path.length) */\n      0xffffffffffffffff\n      dup2\n      gt\n        /* \"--CODEGEN--\":5:14   */\n      dup1\n        /* \"--CODEGEN--\":2:4   */\n      iszero\n      tag_196\n      jumpi\n        /* \"--CODEGEN--\":27:28   */\n      0x00\n        /* \"--CODEGEN--\":24:25   */\n      dup1\n        /* \"--CODEGEN--\":17:29   */\n      revert\n        /* \"--CODEGEN--\":2:4   */\n    tag_196:\n        /* \"contracts/libraries/YunaswapV2Library.sol\":4171:4194  new uint[](path.length) */\n      pop\n      mload(0x40)\n      swap1\n      dup1\n      dup3\n      mstore\n      dup1\n      0x20\n      mul\n      0x20\n      add\n      dup3\n      add\n      0x40\n      mstore\n      dup1\n      iszero\n      tag_197\n      jumpi\n      dup2\n      0x20\n      add\n        /* \"--CODEGEN--\":29:31   */\n      0x20\n        /* \"--CODEGEN--\":21:27   */\n      dup3\n        /* \"--CODEGEN--\":17:32   */\n      mul\n        /* \"--CODEGEN--\":125:129   */\n      dup1\n        /* \"--CODEGEN--\":109:123   */\n      calldatasize\n        /* \"--CODEGEN--\":101:107   */\n      dup4\n        /* \"--CODEGEN--\":88:130   */\n      calldatacopy\n        /* \"--CODEGEN--\":144:161   */\n      add\n      swap1\n      pop\n        /* \"contracts/libraries/YunaswapV2Library.sol\":4171:4194  new uint[](path.length) */\n    tag_197:\n      pop\n        /* \"contracts/libraries/YunaswapV2Library.sol\":4161:4194  amounts = new uint[](path.length) */\n      swap1\n      pop\n        /* \"contracts/libraries/YunaswapV2Library.sol\":4234:4243  amountOut */\n      dup3\n        /* \"contracts/libraries/YunaswapV2Library.sol\":4204:4211  amounts */\n      dup2\n        /* \"contracts/libraries/YunaswapV2Library.sol\":4229:4230  1 */\n      0x01\n        /* \"contracts/libraries/YunaswapV2Library.sol\":4212:4219  amounts */\n      dup4\n        /* \"contracts/libraries/YunaswapV2Library.sol\":4212:4226  amounts.length */\n      mload\n        /* \"contracts/libraries/YunaswapV2Library.sol\":4212:4230  amounts.length - 1 */\n      sub\n        /* \"contracts/libraries/YunaswapV2Library.sol\":4204:4231  amounts[amounts.length - 1] */\n      dup2\n      mload\n      dup2\n      lt\n      tag_198\n      jumpi\n      invalid\n    tag_198:\n      0x20\n      swap1\n      dup2\n      mul\n      swap2\n      swap1\n      swap2\n      add\n      add\n        /* \"contracts/libraries/YunaswapV2Library.sol\":4204:4243  amounts[amounts.length - 1] = amountOut */\n      mstore\n        /* \"contracts/libraries/YunaswapV2Library.sol\":4267:4278  path.length */\n      dup2\n      mload\n      not(0x00)\n        /* \"contracts/libraries/YunaswapV2Library.sol\":4267:4282  path.length - 1 */\n      add\n        /* \"contracts/libraries/YunaswapV2Library.sol\":4253:4476  for (uint i = path.length - 1; i > 0; i--) {... */\n    tag_199:\n        /* \"contracts/libraries/YunaswapV2Library.sol\":4284:4289  i > 0 */\n      dup1\n      iszero\n        /* \"contracts/libraries/YunaswapV2Library.sol\":4253:4476  for (uint i = path.length - 1; i > 0; i--) {... */\n      tag_200\n      jumpi\n        /* \"contracts/libraries/YunaswapV2Library.sol\":4311:4325  uint reserveIn */\n      0x00\n        /* \"contracts/libraries/YunaswapV2Library.sol\":4327:4342  uint reserveOut */\n      dup1\n        /* \"contracts/libraries/YunaswapV2Library.sol\":4346:4388  getReserves(factory, path[i - 1], path[i]) */\n      tag_202\n        /* \"contracts/libraries/YunaswapV2Library.sol\":4358:4365  factory */\n      dup8\n        /* \"contracts/libraries/YunaswapV2Library.sol\":4367:4371  path */\n      dup7\n        /* \"contracts/libraries/YunaswapV2Library.sol\":4376:4377  1 */\n      0x01\n        /* \"contracts/libraries/YunaswapV2Library.sol\":4372:4373  i */\n      dup7\n        /* \"contracts/libraries/YunaswapV2Library.sol\":4372:4377  i - 1 */\n      sub\n        /* \"contracts/libraries/YunaswapV2Library.sol\":4367:4378  path[i - 1] */\n      dup2\n      mload\n      dup2\n      lt\n      tag_203\n      jumpi\n      invalid\n    tag_203:\n      0x20\n      mul\n      0x20\n      add\n      add\n      mload\n        /* \"contracts/libraries/YunaswapV2Library.sol\":4380:4384  path */\n      dup8\n        /* \"contracts/libraries/YunaswapV2Library.sol\":4385:4386  i */\n      dup7\n        /* \"contracts/libraries/YunaswapV2Library.sol\":4380:4387  path[i] */\n      dup2\n      mload\n      dup2\n      lt\n      tag_204\n      jumpi\n      invalid\n    tag_204:\n      0x20\n      mul\n      0x20\n      add\n      add\n      mload\n        /* \"contracts/libraries/YunaswapV2Library.sol\":4346:4357  getReserves */\n      tag_205\n        /* \"contracts/libraries/YunaswapV2Library.sol\":4346:4388  getReserves(factory, path[i - 1], path[i]) */\n      jump\t// in\n    tag_202:\n        /* \"contracts/libraries/YunaswapV2Library.sol\":4310:4388  (uint reserveIn, uint reserveOut) = getReserves(factory, path[i - 1], path[i]) */\n      swap2\n      pop\n      swap2\n      pop\n        /* \"contracts/libraries/YunaswapV2Library.sol\":4419:4465  getAmountIn(amounts[i], reserveIn, reserveOut) */\n      tag_206\n        /* \"contracts/libraries/YunaswapV2Library.sol\":4431:4438  amounts */\n      dup5\n        /* \"contracts/libraries/YunaswapV2Library.sol\":4439:4440  i */\n      dup5\n        /* \"contracts/libraries/YunaswapV2Library.sol\":4431:4441  amounts[i] */\n      dup2\n      mload\n      dup2\n      lt\n      tag_207\n      jumpi\n      invalid\n    tag_207:\n      0x20\n      mul\n      0x20\n      add\n      add\n      mload\n        /* \"contracts/libraries/YunaswapV2Library.sol\":4443:4452  reserveIn */\n      dup4\n        /* \"contracts/libraries/YunaswapV2Library.sol\":4454:4464  reserveOut */\n      dup4\n        /* \"contracts/libraries/YunaswapV2Library.sol\":4419:4430  getAmountIn */\n      tag_134\n        /* \"contracts/libraries/YunaswapV2Library.sol\":4419:4465  getAmountIn(amounts[i], reserveIn, reserveOut) */\n      jump\t// in\n    tag_206:\n        /* \"contracts/libraries/YunaswapV2Library.sol\":4402:4409  amounts */\n      dup5\n        /* \"contracts/libraries/YunaswapV2Library.sol\":4414:4415  1 */\n      0x01\n        /* \"contracts/libraries/YunaswapV2Library.sol\":4410:4411  i */\n      dup6\n        /* \"contracts/libraries/YunaswapV2Library.sol\":4410:4415  i - 1 */\n      sub\n        /* \"contracts/libraries/YunaswapV2Library.sol\":4402:4416  amounts[i - 1] */\n      dup2\n      mload\n      dup2\n      lt\n      tag_208\n      jumpi\n      invalid\n    tag_208:\n      0x20\n      swap1\n      dup2\n      mul\n      swap2\n      swap1\n      swap2\n      add\n      add\n        /* \"contracts/libraries/YunaswapV2Library.sol\":4402:4465  amounts[i - 1] = getAmountIn(amounts[i], reserveIn, reserveOut) */\n      mstore\n      pop\n      pop\n      not(0x00)\n        /* \"contracts/libraries/YunaswapV2Library.sol\":4291:4294  i-- */\n      add\n        /* \"contracts/libraries/YunaswapV2Library.sol\":4253:4476  for (uint i = path.length - 1; i > 0; i--) {... */\n      jump(tag_199)\n    tag_200:\n      pop\n        /* \"contracts/libraries/YunaswapV2Library.sol\":3957:4482  function getAmountsIn(address factory, uint amountOut, address[] memory path) internal view returns (uint[] memory amounts) {... */\n      swap4\n      swap3\n      pop\n      pop\n      pop\n      jump\t// out\n        /* \"contracts/libraries/YunaswapV2Library.sol\":728:1207  function pairFor(address factory, address tokenA, address tokenB) internal pure returns (address pair) {... */\n    tag_86:\n        /* \"contracts/libraries/YunaswapV2Library.sol\":817:829  address pair */\n      0x00\n        /* \"contracts/libraries/YunaswapV2Library.sol\":842:856  address token0 */\n      dup1\n        /* \"contracts/libraries/YunaswapV2Library.sol\":858:872  address token1 */\n      0x00\n        /* \"contracts/libraries/YunaswapV2Library.sol\":876:902  sortTokens(tokenA, tokenB) */\n      tag_210\n        /* \"contracts/libraries/YunaswapV2Library.sol\":887:893  tokenA */\n      dup6\n        /* \"contracts/libraries/YunaswapV2Library.sol\":895:901  tokenB */\n      dup6\n        /* \"contracts/libraries/YunaswapV2Library.sol\":876:886  sortTokens */\n      tag_164\n        /* \"contracts/libraries/YunaswapV2Library.sol\":876:902  sortTokens(tokenA, tokenB) */\n      jump\t// in\n    tag_210:\n        /* \"contracts/libraries/YunaswapV2Library.sol\":1044:1076  abi.encodePacked(token0, token1) */\n      0x40\n      dup1\n      mload\n      not(0xffffffffffffffffffffffff)\n      0x60\n      swap5\n      dup6\n      shl\n      dup2\n      and\n      0x20\n      dup1\n      dup5\n      add\n      swap2\n      swap1\n      swap2\n      mstore\n      swap4\n      dup6\n      shl\n      dup2\n      and\n      0x34\n      dup4\n      add\n      mstore\n      dup3\n      mload\n        /* \"--CODEGEN--\":22:54   */\n      0x28\n        /* \"--CODEGEN--\":26:47   */\n      dup2\n      dup5\n      sub\n        /* \"--CODEGEN--\":22:54   */\n      add\n        /* \"--CODEGEN--\":6:55   */\n      dup2\n      mstore\n        /* \"contracts/libraries/YunaswapV2Library.sol\":1044:1076  abi.encodePacked(token0, token1) */\n      0x48\n      dup4\n      add\n      dup5\n      mstore\n        /* \"contracts/libraries/YunaswapV2Library.sol\":1034:1077  keccak256(abi.encodePacked(token0, token1)) */\n      dup1\n      mload\n      swap1\n      dup6\n      add\n      keccak256\n      not(sub(shl(0xf8, 0x01), 0x01))\n        /* \"contracts/libraries/YunaswapV2Library.sol\":950:1196  abi.encodePacked(... */\n      0x68\n      dup5\n      add\n      mstore\n      swap11\n      swap1\n      swap5\n      shl\n      swap1\n      swap4\n      and\n      0x69\n      dup5\n      add\n      mstore\n      0x7d\n      dup4\n      add\n      swap9\n      swap1\n      swap9\n      mstore\n      0x6e034e1b470957cc86fd7c254efaae678f0f8c5765ec290eacaed28f43bbf715\n      0x9d\n      dup1\n      dup5\n      add\n      swap2\n      swap1\n      swap2\n      mstore\n      dup9\n      mload\n        /* \"--CODEGEN--\":26:47   */\n      dup1\n      dup5\n      sub\n        /* \"--CODEGEN--\":22:54   */\n      swap1\n      swap2\n      add\n        /* \"--CODEGEN--\":6:55   */\n      dup2\n      mstore\n        /* \"contracts/libraries/YunaswapV2Library.sol\":950:1196  abi.encodePacked(... */\n      0xbd\n      swap1\n      swap3\n      add\n      swap1\n      swap8\n      mstore\n        /* \"contracts/libraries/YunaswapV2Library.sol\":940:1197  keccak256(abi.encodePacked(... */\n      dup1\n      mload\n      swap7\n      add\n      swap6\n      swap1\n      swap6\n      keccak256\n      swap6\n        /* \"contracts/libraries/YunaswapV2Library.sol\":728:1207  function pairFor(address factory, address tokenA, address tokenB) internal pure returns (address pair) {... */\n      swap5\n      pop\n      pop\n      pop\n      pop\n      pop\n      jump\t// out\n        /* \"contracts/libraries/YunaswapV2Library.sol\":3375:3879  function getAmountsOut(address factory, uint amountIn, address[] memory path) internal view returns (uint[] memory amounts) {... */\n    tag_97:\n        /* \"contracts/libraries/YunaswapV2Library.sol\":3476:3497  uint[] memory amounts */\n      0x60\n        /* \"contracts/libraries/YunaswapV2Library.sol\":3532:3533  2 */\n      0x02\n        /* \"contracts/libraries/YunaswapV2Library.sol\":3517:3521  path */\n      dup3\n        /* \"contracts/libraries/YunaswapV2Library.sol\":3517:3528  path.length */\n      mload\n        /* \"contracts/libraries/YunaswapV2Library.sol\":3517:3533  path.length >= 2 */\n      lt\n      iszero\n        /* \"contracts/libraries/YunaswapV2Library.sol\":3509:3569  require(path.length >= 2, 'YunaswapV2Library: INVALID_PATH') */\n      tag_212\n      jumpi\n      0x40\n      dup1\n      mload\n      shl(0xe5, 0x461bcd)\n      dup2\n      mstore\n      0x20\n      0x04\n      dup3\n      add\n      mstore\n      0x1f\n      0x24\n      dup3\n      add\n      mstore\n      0x59756e617377617056324c6962726172793a20494e56414c49445f5041544800\n      0x44\n      dup3\n      add\n      mstore\n      swap1\n      mload\n      swap1\n      dup2\n      swap1\n      sub\n      0x64\n      add\n      swap1\n      revert\n    tag_212:\n        /* \"contracts/libraries/YunaswapV2Library.sol\":3600:3604  path */\n      dup2\n        /* \"contracts/libraries/YunaswapV2Library.sol\":3600:3611  path.length */\n      mload\n        /* \"contracts/libraries/YunaswapV2Library.sol\":3589:3612  new uint[](path.length) */\n      0xffffffffffffffff\n      dup2\n      gt\n        /* \"--CODEGEN--\":5:14   */\n      dup1\n        /* \"--CODEGEN--\":2:4   */\n      iszero\n      tag_213\n      jumpi\n        /* \"--CODEGEN--\":27:28   */\n      0x00\n        /* \"--CODEGEN--\":24:25   */\n      dup1\n        /* \"--CODEGEN--\":17:29   */\n      revert\n        /* \"--CODEGEN--\":2:4   */\n    tag_213:\n        /* \"contracts/libraries/YunaswapV2Library.sol\":3589:3612  new uint[](path.length) */\n      pop\n      mload(0x40)\n      swap1\n      dup1\n      dup3\n      mstore\n      dup1\n      0x20\n      mul\n      0x20\n      add\n      dup3\n      add\n      0x40\n      mstore\n      dup1\n      iszero\n      tag_214\n      jumpi\n      dup2\n      0x20\n      add\n        /* \"--CODEGEN--\":29:31   */\n      0x20\n        /* \"--CODEGEN--\":21:27   */\n      dup3\n        /* \"--CODEGEN--\":17:32   */\n      mul\n        /* \"--CODEGEN--\":125:129   */\n      dup1\n        /* \"--CODEGEN--\":109:123   */\n      calldatasize\n        /* \"--CODEGEN--\":101:107   */\n      dup4\n        /* \"--CODEGEN--\":88:130   */\n      calldatacopy\n        /* \"--CODEGEN--\":144:161   */\n      add\n      swap1\n      pop\n        /* \"contracts/libraries/YunaswapV2Library.sol\":3589:3612  new uint[](path.length) */\n    tag_214:\n      pop\n        /* \"contracts/libraries/YunaswapV2Library.sol\":3579:3612  amounts = new uint[](path.length) */\n      swap1\n      pop\n        /* \"contracts/libraries/YunaswapV2Library.sol\":3635:3643  amountIn */\n      dup3\n        /* \"contracts/libraries/YunaswapV2Library.sol\":3622:3629  amounts */\n      dup2\n        /* \"contracts/libraries/YunaswapV2Library.sol\":3630:3631  0 */\n      0x00\n        /* \"contracts/libraries/YunaswapV2Library.sol\":3622:3632  amounts[0] */\n      dup2\n      mload\n      dup2\n      lt\n      tag_215\n      jumpi\n      invalid\n    tag_215:\n      0x20\n      mul\n      0x20\n      add\n      add\n        /* \"contracts/libraries/YunaswapV2Library.sol\":3622:3643  amounts[0] = amountIn */\n      dup2\n      dup2\n      mstore\n      pop\n      pop\n        /* \"contracts/libraries/YunaswapV2Library.sol\":3658:3664  uint i */\n      0x00\n        /* \"contracts/libraries/YunaswapV2Library.sol\":3653:3873  for (uint i; i < path.length - 1; i++) {... */\n    tag_216:\n        /* \"contracts/libraries/YunaswapV2Library.sol\":3684:3685  1 */\n      0x01\n        /* \"contracts/libraries/YunaswapV2Library.sol\":3670:3674  path */\n      dup4\n        /* \"contracts/libraries/YunaswapV2Library.sol\":3670:3681  path.length */\n      mload\n        /* \"contracts/libraries/YunaswapV2Library.sol\":3670:3685  path.length - 1 */\n      sub\n        /* \"contracts/libraries/YunaswapV2Library.sol\":3666:3667  i */\n      dup2\n        /* \"contracts/libraries/YunaswapV2Library.sol\":3666:3685  i < path.length - 1 */\n      lt\n        /* \"contracts/libraries/YunaswapV2Library.sol\":3653:3873  for (uint i; i < path.length - 1; i++) {... */\n      iszero\n      tag_200\n      jumpi\n        /* \"contracts/libraries/YunaswapV2Library.sol\":3707:3721  uint reserveIn */\n      0x00\n        /* \"contracts/libraries/YunaswapV2Library.sol\":3723:3738  uint reserveOut */\n      dup1\n        /* \"contracts/libraries/YunaswapV2Library.sol\":3742:3784  getReserves(factory, path[i], path[i + 1]) */\n      tag_219\n        /* \"contracts/libraries/YunaswapV2Library.sol\":3754:3761  factory */\n      dup8\n        /* \"contracts/libraries/YunaswapV2Library.sol\":3763:3767  path */\n      dup7\n        /* \"contracts/libraries/YunaswapV2Library.sol\":3768:3769  i */\n      dup6\n        /* \"contracts/libraries/YunaswapV2Library.sol\":3763:3770  path[i] */\n      dup2\n      mload\n      dup2\n      lt\n      tag_220\n      jumpi\n      invalid\n    tag_220:\n      0x20\n      mul\n      0x20\n      add\n      add\n      mload\n        /* \"contracts/libraries/YunaswapV2Library.sol\":3772:3776  path */\n      dup8\n        /* \"contracts/libraries/YunaswapV2Library.sol\":3777:3778  i */\n      dup7\n        /* \"contracts/libraries/YunaswapV2Library.sol\":3781:3782  1 */\n      0x01\n        /* \"contracts/libraries/YunaswapV2Library.sol\":3777:3782  i + 1 */\n      add\n        /* \"contracts/libraries/YunaswapV2Library.sol\":3772:3783  path[i + 1] */\n      dup2\n      mload\n      dup2\n      lt\n      tag_204\n      jumpi\n      invalid\n        /* \"contracts/libraries/YunaswapV2Library.sol\":3742:3784  getReserves(factory, path[i], path[i + 1]) */\n    tag_219:\n        /* \"contracts/libraries/YunaswapV2Library.sol\":3706:3784  (uint reserveIn, uint reserveOut) = getReserves(factory, path[i], path[i + 1]) */\n      swap2\n      pop\n      swap2\n      pop\n        /* \"contracts/libraries/YunaswapV2Library.sol\":3815:3862  getAmountOut(amounts[i], reserveIn, reserveOut) */\n      tag_222\n        /* \"contracts/libraries/YunaswapV2Library.sol\":3828:3835  amounts */\n      dup5\n        /* \"contracts/libraries/YunaswapV2Library.sol\":3836:3837  i */\n      dup5\n        /* \"contracts/libraries/YunaswapV2Library.sol\":3828:3838  amounts[i] */\n      dup2\n      mload\n      dup2\n      lt\n      tag_223\n      jumpi\n      invalid\n    tag_223:\n      0x20\n      mul\n      0x20\n      add\n      add\n      mload\n        /* \"contracts/libraries/YunaswapV2Library.sol\":3840:3849  reserveIn */\n      dup4\n        /* \"contracts/libraries/YunaswapV2Library.sol\":3851:3861  reserveOut */\n      dup4\n        /* \"contracts/libraries/YunaswapV2Library.sol\":3815:3827  getAmountOut */\n      tag_80\n        /* \"contracts/libraries/YunaswapV2Library.sol\":3815:3862  getAmountOut(amounts[i], reserveIn, reserveOut) */\n      jump\t// in\n    tag_222:\n        /* \"contracts/libraries/YunaswapV2Library.sol\":3798:3805  amounts */\n      dup5\n        /* \"contracts/libraries/YunaswapV2Library.sol\":3806:3807  i */\n      dup5\n        /* \"contracts/libraries/YunaswapV2Library.sol\":3810:3811  1 */\n      0x01\n        /* \"contracts/libraries/YunaswapV2Library.sol\":3806:3811  i + 1 */\n      add\n        /* \"contracts/libraries/YunaswapV2Library.sol\":3798:3812  amounts[i + 1] */\n      dup2\n      mload\n      dup2\n      lt\n      tag_224\n      jumpi\n      invalid\n    tag_224:\n      0x20\n      swap1\n      dup2\n      mul\n      swap2\n      swap1\n      swap2\n      add\n      add\n        /* \"contracts/libraries/YunaswapV2Library.sol\":3798:3862  amounts[i + 1] = getAmountOut(amounts[i], reserveIn, reserveOut) */\n      mstore\n      pop\n      pop\n        /* \"contracts/libraries/YunaswapV2Library.sol\":3687:3690  i++ */\n      0x01\n      add\n        /* \"contracts/libraries/YunaswapV2Library.sol\":3653:3873  for (uint i; i < path.length - 1; i++) {... */\n      jump(tag_216)\n        /* \"contracts/libraries/TransferHelper.sol\":1083:1569  function safeTransferFrom(... */\n    tag_106:\n        /* \"contracts/libraries/TransferHelper.sol\":1347:1398  abi.encodeWithSelector(0x23b872dd, from, to, value) */\n      0x40\n      dup1\n      mload\n      sub(shl(0xa0, 0x01), 0x01)\n      dup6\n      dup2\n      and\n      0x24\n      dup4\n      add\n      mstore\n      dup5\n      dup2\n      and\n      0x44\n      dup4\n      add\n      mstore\n      0x64\n      dup1\n      dup4\n      add\n      dup6\n      swap1\n      mstore\n      dup4\n      mload\n        /* \"--CODEGEN--\":26:47   */\n      dup1\n      dup5\n      sub\n        /* \"--CODEGEN--\":22:54   */\n      swap1\n      swap2\n      add\n        /* \"--CODEGEN--\":6:55   */\n      dup2\n      mstore\n        /* \"contracts/libraries/TransferHelper.sol\":1347:1398  abi.encodeWithSelector(0x23b872dd, from, to, value) */\n      0x84\n      swap1\n      swap3\n      add\n      dup4\n      mstore\n      0x20\n        /* \"--CODEGEN--\":25:43   */\n      dup3\n      add\n        /* \"--CODEGEN--\":61:78   */\n      dup1\n      mload\n      sub(shl(0xe0, 0x01), 0x01)\n        /* \"--CODEGEN--\":182:197   */\n      and\n      shl(0xe0, 0x23b872dd)\n        /* \"--CODEGEN--\":179:208   */\n      or\n        /* \"--CODEGEN--\":160:209   */\n      dup2\n      mstore\n        /* \"contracts/libraries/TransferHelper.sol\":1336:1399  token.call(abi.encodeWithSelector(0x23b872dd, from, to, value)) */\n      swap3\n      mload\n      dup3\n      mload\n        /* \"contracts/libraries/TransferHelper.sol\":1301:1313  bool success */\n      0x00\n      swap5\n        /* \"contracts/libraries/TransferHelper.sol\":1315:1332  bytes memory data */\n      0x60\n      swap5\n        /* \"contracts/libraries/TransferHelper.sol\":1336:1346  token.call */\n      swap4\n      dup11\n      and\n      swap4\n        /* \"contracts/libraries/TransferHelper.sol\":1347:1398  abi.encodeWithSelector(0x23b872dd, from, to, value) */\n      swap3\n        /* \"contracts/libraries/TransferHelper.sol\":1336:1399  token.call(abi.encodeWithSelector(0x23b872dd, from, to, value)) */\n      swap2\n      dup3\n      swap2\n        /* \"--CODEGEN--\":25:43   */\n      swap1\n        /* \"contracts/libraries/TransferHelper.sol\":1336:1399  token.call(abi.encodeWithSelector(0x23b872dd, from, to, value)) */\n      dup1\n      dup4\n        /* \"--CODEGEN--\":25:43   */\n      dup4\n        /* \"--CODEGEN--\":36:189   */\n    tag_226:\n        /* \"--CODEGEN--\":66:68   */\n      0x20\n        /* \"--CODEGEN--\":61:64   */\n      dup4\n        /* \"--CODEGEN--\":58:69   */\n      lt\n        /* \"--CODEGEN--\":36:189   */\n      tag_228\n      jumpi\n        /* \"--CODEGEN--\":176:186   */\n      dup1\n      mload\n        /* \"--CODEGEN--\":164:187   */\n      dup3\n      mstore\n      not(0x1f)\n        /* \"--CODEGEN--\":139:151   */\n      swap1\n      swap3\n      add\n      swap2\n        /* \"--CODEGEN--\":98:100   */\n      0x20\n        /* \"--CODEGEN--\":89:101   */\n      swap2\n      dup3\n      add\n      swap2\n        /* \"--CODEGEN--\":114:126   */\n      add\n        /* \"--CODEGEN--\":36:189   */\n      jump(tag_226)\n    tag_228:\n        /* \"--CODEGEN--\":274:275   */\n      0x01\n        /* \"--CODEGEN--\":267:270   */\n      dup4\n        /* \"--CODEGEN--\":263:265   */\n      0x20\n        /* \"--CODEGEN--\":259:271   */\n      sub\n        /* \"--CODEGEN--\":254:257   */\n      0x0100\n        /* \"--CODEGEN--\":250:272   */\n      exp\n        /* \"--CODEGEN--\":246:276   */\n      sub\n        /* \"--CODEGEN--\":315:319   */\n      dup1\n        /* \"--CODEGEN--\":311:320   */\n      not\n        /* \"--CODEGEN--\":305:308   */\n      dup3\n        /* \"--CODEGEN--\":299:309   */\n      mload\n        /* \"--CODEGEN--\":295:321   */\n      and\n        /* \"--CODEGEN--\":356:360   */\n      dup2\n        /* \"--CODEGEN--\":350:353   */\n      dup5\n        /* \"--CODEGEN--\":344:354   */\n      mload\n        /* \"--CODEGEN--\":340:361   */\n      and\n        /* \"--CODEGEN--\":389:396   */\n      dup1\n        /* \"--CODEGEN--\":380:387   */\n      dup3\n        /* \"--CODEGEN--\":377:397   */\n      or\n        /* \"--CODEGEN--\":372:375   */\n      dup6\n        /* \"--CODEGEN--\":365:398   */\n      mstore\n        /* \"--CODEGEN--\":3:402   */\n      pop\n      pop\n      pop\n        /* \"contracts/libraries/TransferHelper.sol\":1336:1399  token.call(abi.encodeWithSelector(0x23b872dd, from, to, value)) */\n      pop\n      pop\n      pop\n      swap1\n      pop\n      add\n      swap2\n      pop\n      pop\n      0x00\n      mload(0x40)\n      dup1\n      dup4\n      sub\n      dup2\n      0x00\n      dup7\n      gas\n      call\n      swap2\n      pop\n      pop\n      returndatasize\n        /* \"--CODEGEN--\":12:13   */\n      dup1\n        /* \"--CODEGEN--\":19:20   */\n      0x00\n        /* \"--CODEGEN--\":14:41   */\n      dup2\n      eq\n      tag_231\n      jumpi\n        /* \"--CODEGEN--\":67:71   */\n      0x40\n        /* \"--CODEGEN--\":61:72   */\n      mload\n        /* \"--CODEGEN--\":56:72   */\n      swap2\n      pop\n        /* \"--CODEGEN--\":134:138   */\n      0x1f\n        /* \"--CODEGEN--\":130:139   */\n      not\n        /* \"--CODEGEN--\":123:127   */\n      0x3f\n        /* \"--CODEGEN--\":105:121   */\n      returndatasize\n        /* \"--CODEGEN--\":101:128   */\n      add\n        /* \"--CODEGEN--\":97:140   */\n      and\n        /* \"--CODEGEN--\":94:95   */\n      dup3\n        /* \"--CODEGEN--\":90:141   */\n      add\n        /* \"--CODEGEN--\":84:88   */\n      0x40\n        /* \"--CODEGEN--\":77:142   */\n      mstore\n        /* \"--CODEGEN--\":157:173   */\n      returndatasize\n        /* \"--CODEGEN--\":154:155   */\n      dup3\n        /* \"--CODEGEN--\":147:174   */\n      mstore\n        /* \"--CODEGEN--\":211:227   */\n      returndatasize\n        /* \"--CODEGEN--\":208:209   */\n      0x00\n        /* \"--CODEGEN--\":201:205   */\n      0x20\n        /* \"--CODEGEN--\":198:199   */\n      dup5\n        /* \"--CODEGEN--\":194:206   */\n      add\n        /* \"--CODEGEN--\":179:228   */\n      returndatacopy\n        /* \"--CODEGEN--\":5:233   */\n      jump(tag_230)\n        /* \"--CODEGEN--\":14:41   */\n    tag_231:\n        /* \"--CODEGEN--\":32:36   */\n      0x60\n        /* \"--CODEGEN--\":27:36   */\n      swap2\n      pop\n        /* \"--CODEGEN--\":5:233   */\n    tag_230:\n      pop\n        /* \"contracts/libraries/TransferHelper.sol\":1300:1399  (bool success, bytes memory data) = token.call(abi.encodeWithSelector(0x23b872dd, from, to, value)) */\n      swap2\n      pop\n      swap2\n      pop\n        /* \"contracts/libraries/TransferHelper.sol\":1430:1437  success */\n      dup2\n        /* \"contracts/libraries/TransferHelper.sol\":1430:1487  success && (data.length == 0 || abi.decode(data, (bool))) */\n      dup1\n      iszero\n      tag_233\n      jumpi\n      pop\n        /* \"contracts/libraries/TransferHelper.sol\":1442:1453  data.length */\n      dup1\n      mload\n        /* \"contracts/libraries/TransferHelper.sol\":1442:1458  data.length == 0 */\n      iszero\n      dup1\n        /* \"contracts/libraries/TransferHelper.sol\":1442:1486  data.length == 0 || abi.decode(data, (bool)) */\n      tag_233\n      jumpi\n      pop\n        /* \"contracts/libraries/TransferHelper.sol\":1473:1477  data */\n      dup1\n        /* \"contracts/libraries/TransferHelper.sol\":1462:1486  abi.decode(data, (bool)) */\n      dup1\n      0x20\n      add\n      swap1\n      mload\n        /* \"--CODEGEN--\":15:17   */\n      0x20\n        /* \"--CODEGEN--\":10:13   */\n      dup2\n        /* \"--CODEGEN--\":7:18   */\n      lt\n        /* \"--CODEGEN--\":4:6   */\n      iszero\n      tag_234\n      jumpi\n        /* \"--CODEGEN--\":31:32   */\n      0x00\n        /* \"--CODEGEN--\":28:29   */\n      dup1\n        /* \"--CODEGEN--\":21:33   */\n      revert\n        /* \"--CODEGEN--\":4:6   */\n    tag_234:\n      pop\n        /* \"contracts/libraries/TransferHelper.sol\":1462:1486  abi.decode(data, (bool)) */\n      mload\n        /* \"contracts/libraries/TransferHelper.sol\":1442:1486  data.length == 0 || abi.decode(data, (bool)) */\n    tag_233:\n        /* \"contracts/libraries/TransferHelper.sol\":1409:1562  require(... */\n      tag_235\n      jumpi\n      mload(0x40)\n      shl(0xe5, 0x461bcd)\n      dup2\n      mstore\n      0x04\n      add\n      dup1\n      dup1\n      0x20\n      add\n      dup3\n      dup2\n      sub\n      dup3\n      mstore\n      0x31\n      dup2\n      mstore\n      0x20\n      add\n      dup1\n      data_3f8faf98afe9344b6d4b0e75b0101259bf282914b3b5a9320c6918b6e27ede1c\n      0x31\n      swap2\n      codecopy\n      0x40\n      add\n      swap2\n      pop\n      pop\n      mload(0x40)\n      dup1\n      swap2\n      sub\n      swap1\n      revert\n    tag_235:\n        /* \"contracts/libraries/TransferHelper.sol\":1083:1569  function safeTransferFrom(... */\n      pop\n      pop\n      pop\n      pop\n      pop\n      pop\n      jump\t// out\n        /* \"contracts/YunaswapV2Router02.sol\":4528:5256  function _swap(uint[] memory amounts, address[] memory path, address _to) internal virtual {... */\n    tag_108:\n        /* \"contracts/YunaswapV2Router02.sol\":4634:4640  uint i */\n      0x00\n        /* \"contracts/YunaswapV2Router02.sol\":4629:5250  for (uint i; i < path.length - 1; i++) {... */\n    tag_237:\n        /* \"contracts/YunaswapV2Router02.sol\":4660:4661  1 */\n      0x01\n        /* \"contracts/YunaswapV2Router02.sol\":4646:4650  path */\n      dup4\n        /* \"contracts/YunaswapV2Router02.sol\":4646:4657  path.length */\n      mload\n        /* \"contracts/YunaswapV2Router02.sol\":4646:4661  path.length - 1 */\n      sub\n        /* \"contracts/YunaswapV2Router02.sol\":4642:4643  i */\n      dup2\n        /* \"contracts/YunaswapV2Router02.sol\":4642:4661  i < path.length - 1 */\n      lt\n        /* \"contracts/YunaswapV2Router02.sol\":4629:5250  for (uint i; i < path.length - 1; i++) {... */\n      iszero\n      tag_238\n      jumpi\n        /* \"contracts/YunaswapV2Router02.sol\":4683:4696  address input */\n      0x00\n        /* \"contracts/YunaswapV2Router02.sol\":4698:4712  address output */\n      dup1\n        /* \"contracts/YunaswapV2Router02.sol\":4717:4721  path */\n      dup5\n        /* \"contracts/YunaswapV2Router02.sol\":4722:4723  i */\n      dup4\n        /* \"contracts/YunaswapV2Router02.sol\":4717:4724  path[i] */\n      dup2\n      mload\n      dup2\n      lt\n      tag_240\n      jumpi\n      invalid\n    tag_240:\n      0x20\n      mul\n      0x20\n      add\n      add\n      mload\n        /* \"contracts/YunaswapV2Router02.sol\":4726:4730  path */\n      dup6\n        /* \"contracts/YunaswapV2Router02.sol\":4731:4732  i */\n      dup5\n        /* \"contracts/YunaswapV2Router02.sol\":4735:4736  1 */\n      0x01\n        /* \"contracts/YunaswapV2Router02.sol\":4731:4736  i + 1 */\n      add\n        /* \"contracts/YunaswapV2Router02.sol\":4726:4737  path[i + 1] */\n      dup2\n      mload\n      dup2\n      lt\n      tag_241\n      jumpi\n      invalid\n    tag_241:\n      0x20\n      mul\n      0x20\n      add\n      add\n      mload\n        /* \"contracts/YunaswapV2Router02.sol\":4682:4738  (address input, address output) = (path[i], path[i + 1]) */\n      swap2\n      pop\n      swap2\n      pop\n        /* \"contracts/YunaswapV2Router02.sol\":4753:4767  address token0 */\n      0x00\n        /* \"contracts/YunaswapV2Router02.sol\":4772:4815  YunaswapV2Library.sortTokens(input, output) */\n      tag_242\n        /* \"contracts/YunaswapV2Router02.sol\":4801:4806  input */\n      dup4\n        /* \"contracts/YunaswapV2Router02.sol\":4808:4814  output */\n      dup4\n        /* \"contracts/YunaswapV2Router02.sol\":4772:4800  YunaswapV2Library.sortTokens */\n      tag_164\n        /* \"contracts/YunaswapV2Router02.sol\":4772:4815  YunaswapV2Library.sortTokens(input, output) */\n      jump\t// in\n    tag_242:\n        /* \"contracts/YunaswapV2Router02.sol\":4752:4815  (address token0,) = YunaswapV2Library.sortTokens(input, output) */\n      pop\n      swap1\n      pop\n        /* \"contracts/YunaswapV2Router02.sol\":4829:4843  uint amountOut */\n      0x00\n        /* \"contracts/YunaswapV2Router02.sol\":4846:4853  amounts */\n      dup8\n        /* \"contracts/YunaswapV2Router02.sol\":4854:4855  i */\n      dup6\n        /* \"contracts/YunaswapV2Router02.sol\":4858:4859  1 */\n      0x01\n        /* \"contracts/YunaswapV2Router02.sol\":4854:4859  i + 1 */\n      add\n        /* \"contracts/YunaswapV2Router02.sol\":4846:4860  amounts[i + 1] */\n      dup2\n      mload\n      dup2\n      lt\n      tag_243\n      jumpi\n      invalid\n    tag_243:\n      0x20\n      mul\n      0x20\n      add\n      add\n      mload\n        /* \"contracts/YunaswapV2Router02.sol\":4829:4860  uint amountOut = amounts[i + 1] */\n      swap1\n      pop\n        /* \"contracts/YunaswapV2Router02.sol\":4875:4890  uint amount0Out */\n      0x00\n        /* \"contracts/YunaswapV2Router02.sol\":4892:4907  uint amount1Out */\n      dup1\n        /* \"contracts/YunaswapV2Router02.sol\":4920:4926  token0 */\n      dup4\n      sub(shl(0xa0, 0x01), 0x01)\n        /* \"contracts/YunaswapV2Router02.sol\":4911:4926  input == token0 */\n      and\n        /* \"contracts/YunaswapV2Router02.sol\":4911:4916  input */\n      dup7\n      sub(shl(0xa0, 0x01), 0x01)\n        /* \"contracts/YunaswapV2Router02.sol\":4911:4926  input == token0 */\n      and\n      eq\n        /* \"contracts/YunaswapV2Router02.sol\":4911:4972  input == token0 ? (uint(0), amountOut) : (amountOut, uint(0)) */\n      tag_244\n      jumpi\n        /* \"contracts/YunaswapV2Router02.sol\":4953:4962  amountOut */\n      dup3\n        /* \"contracts/YunaswapV2Router02.sol\":4969:4970  0 */\n      0x00\n        /* \"contracts/YunaswapV2Router02.sol\":4911:4972  input == token0 ? (uint(0), amountOut) : (amountOut, uint(0)) */\n      jump(tag_245)\n    tag_244:\n        /* \"contracts/YunaswapV2Router02.sol\":4935:4936  0 */\n      0x00\n        /* \"contracts/YunaswapV2Router02.sol\":4939:4948  amountOut */\n      dup4\n        /* \"contracts/YunaswapV2Router02.sol\":4911:4972  input == token0 ? (uint(0), amountOut) : (amountOut, uint(0)) */\n    tag_245:\n        /* \"contracts/YunaswapV2Router02.sol\":4874:4972  (uint amount0Out, uint amount1Out) = input == token0 ? (uint(0), amountOut) : (amountOut, uint(0)) */\n      swap2\n      pop\n      swap2\n      pop\n        /* \"contracts/YunaswapV2Router02.sol\":4986:4996  address to */\n      0x00\n        /* \"contracts/YunaswapV2Router02.sol\":5017:5018  2 */\n      0x02\n        /* \"contracts/YunaswapV2Router02.sol\":5003:5007  path */\n      dup11\n        /* \"contracts/YunaswapV2Router02.sol\":5003:5014  path.length */\n      mload\n        /* \"contracts/YunaswapV2Router02.sol\":5003:5018  path.length - 2 */\n      sub\n        /* \"contracts/YunaswapV2Router02.sol\":4999:5000  i */\n      dup9\n        /* \"contracts/YunaswapV2Router02.sol\":4999:5018  i < path.length - 2 */\n      lt\n        /* \"contracts/YunaswapV2Router02.sol\":4999:5082  i < path.length - 2 ? YunaswapV2Library.pairFor(factory, output, path[i + 2]) : _to */\n      tag_246\n      jumpi\n        /* \"contracts/YunaswapV2Router02.sol\":5079:5082  _to */\n      dup9\n        /* \"contracts/YunaswapV2Router02.sol\":4999:5082  i < path.length - 2 ? YunaswapV2Library.pairFor(factory, output, path[i + 2]) : _to */\n      jump(tag_248)\n    tag_246:\n        /* \"contracts/YunaswapV2Router02.sol\":5021:5076  YunaswapV2Library.pairFor(factory, output, path[i + 2]) */\n      tag_248\n        /* \"contracts/YunaswapV2Router02.sol\":5047:5054  factory */\n      immutable(\"0x277ab82e5a4641341820a4a2933a62c1de997e42e92548657ae21b3728d580fe\")\n        /* \"contracts/YunaswapV2Router02.sol\":5056:5062  output */\n      dup8\n        /* \"contracts/YunaswapV2Router02.sol\":5064:5068  path */\n      dup13\n        /* \"contracts/YunaswapV2Router02.sol\":5069:5070  i */\n      dup12\n        /* \"contracts/YunaswapV2Router02.sol\":5073:5074  2 */\n      0x02\n        /* \"contracts/YunaswapV2Router02.sol\":5069:5074  i + 2 */\n      add\n        /* \"contracts/YunaswapV2Router02.sol\":5064:5075  path[i + 2] */\n      dup2\n      mload\n      dup2\n      lt\n      tag_249\n      jumpi\n      invalid\n    tag_249:\n      0x20\n      mul\n      0x20\n      add\n      add\n      mload\n        /* \"contracts/YunaswapV2Router02.sol\":5021:5046  YunaswapV2Library.pairFor */\n      tag_86\n        /* \"contracts/YunaswapV2Router02.sol\":5021:5076  YunaswapV2Library.pairFor(factory, output, path[i + 2]) */\n      jump\t// in\n    tag_248:\n        /* \"contracts/YunaswapV2Router02.sol\":4986:5082  address to = i < path.length - 2 ? YunaswapV2Library.pairFor(factory, output, path[i + 2]) : _to */\n      swap1\n      pop\n        /* \"contracts/YunaswapV2Router02.sol\":5112:5161  YunaswapV2Library.pairFor(factory, input, output) */\n      tag_250\n        /* \"contracts/YunaswapV2Router02.sol\":5138:5145  factory */\n      immutable(\"0x277ab82e5a4641341820a4a2933a62c1de997e42e92548657ae21b3728d580fe\")\n        /* \"contracts/YunaswapV2Router02.sol\":5147:5152  input */\n      dup9\n        /* \"contracts/YunaswapV2Router02.sol\":5154:5160  output */\n      dup9\n        /* \"contracts/YunaswapV2Router02.sol\":5112:5137  YunaswapV2Library.pairFor */\n      tag_86\n        /* \"contracts/YunaswapV2Router02.sol\":5112:5161  YunaswapV2Library.pairFor(factory, input, output) */\n      jump\t// in\n    tag_250:\n      sub(shl(0xa0, 0x01), 0x01)\n        /* \"contracts/YunaswapV2Router02.sol\":5096:5167  IYunaswapV2Pair(YunaswapV2Library.pairFor(factory, input, output)).swap */\n      and\n      0x022c0d9f\n        /* \"contracts/YunaswapV2Router02.sol\":5185:5195  amount0Out */\n      dup5\n        /* \"contracts/YunaswapV2Router02.sol\":5197:5207  amount1Out */\n      dup5\n        /* \"contracts/YunaswapV2Router02.sol\":5209:5211  to */\n      dup5\n        /* \"contracts/YunaswapV2Router02.sol\":5223:5224  0 */\n      0x00\n        /* \"contracts/YunaswapV2Router02.sol\":5213:5225  new bytes(0) */\n      mload(0x40)\n      swap1\n      dup1\n      dup3\n      mstore\n      dup1\n      0x1f\n      add\n      not(0x1f)\n      and\n      0x20\n      add\n      dup3\n      add\n      0x40\n      mstore\n      dup1\n      iszero\n      tag_252\n      jumpi\n      0x20\n      dup3\n      add\n        /* \"--CODEGEN--\":21:27   */\n      dup2\n      dup1\n        /* \"--CODEGEN--\":108:122   */\n      calldatasize\n        /* \"contracts/YunaswapV2Router02.sol\":5213:5225  new bytes(0) */\n      dup4\n        /* \"--CODEGEN--\":87:129   */\n      calldatacopy\n        /* \"--CODEGEN--\":143:160   */\n      add\n      swap1\n      pop\n        /* \"contracts/YunaswapV2Router02.sol\":5213:5225  new bytes(0) */\n    tag_252:\n      pop\n        /* \"contracts/YunaswapV2Router02.sol\":5096:5239  IYunaswapV2Pair(YunaswapV2Library.pairFor(factory, input, output)).swap(... */\n      mload(0x40)\n      dup6\n      0xffffffff\n      and\n      0xe0\n      shl\n      dup2\n      mstore\n      0x04\n      add\n      dup1\n      dup6\n      dup2\n      mstore\n      0x20\n      add\n      dup5\n      dup2\n      mstore\n      0x20\n      add\n      dup4\n      sub(shl(0xa0, 0x01), 0x01)\n      and\n      sub(shl(0xa0, 0x01), 0x01)\n      and\n      dup2\n      mstore\n      0x20\n      add\n      dup1\n      0x20\n      add\n      dup3\n      dup2\n      sub\n      dup3\n      mstore\n      dup4\n      dup2\n      dup2\n      mload\n      dup2\n      mstore\n      0x20\n      add\n      swap2\n      pop\n      dup1\n      mload\n      swap1\n      0x20\n      add\n      swap1\n      dup1\n      dup4\n      dup4\n        /* \"--CODEGEN--\":23:24   */\n      0x00\n        /* \"--CODEGEN--\":8:108   */\n    tag_253:\n        /* \"--CODEGEN--\":33:36   */\n      dup4\n        /* \"--CODEGEN--\":30:31   */\n      dup2\n        /* \"--CODEGEN--\":27:37   */\n      lt\n        /* \"--CODEGEN--\":8:108   */\n      iszero\n      tag_255\n      jumpi\n        /* \"--CODEGEN--\":90:101   */\n      dup2\n      dup2\n      add\n        /* \"--CODEGEN--\":84:102   */\n      mload\n        /* \"--CODEGEN--\":71:82   */\n      dup4\n      dup3\n      add\n        /* \"--CODEGEN--\":64:103   */\n      mstore\n        /* \"--CODEGEN--\":52:54   */\n      0x20\n        /* \"--CODEGEN--\":45:55   */\n      add\n        /* \"--CODEGEN--\":8:108   */\n      jump(tag_253)\n    tag_255:\n        /* \"--CODEGEN--\":12:26   */\n      pop\n        /* \"contracts/YunaswapV2Router02.sol\":5096:5239  IYunaswapV2Pair(YunaswapV2Library.pairFor(factory, input, output)).swap(... */\n      pop\n      pop\n      pop\n      swap1\n      pop\n      swap1\n      dup2\n      add\n      swap1\n      0x1f\n      and\n      dup1\n      iszero\n      tag_256\n      jumpi\n      dup1\n      dup3\n      sub\n      dup1\n      mload\n      0x01\n      dup4\n      0x20\n      sub\n      0x0100\n      exp\n      sub\n      not\n      and\n      dup2\n      mstore\n      0x20\n      add\n      swap2\n      pop\n    tag_256:\n      pop\n      swap6\n      pop\n      pop\n      pop\n      pop\n      pop\n      pop\n      0x00\n      mload(0x40)\n      dup1\n      dup4\n      sub\n      dup2\n      0x00\n      dup8\n      dup1\n      extcodesize\n      iszero\n        /* \"--CODEGEN--\":5:14   */\n      dup1\n        /* \"--CODEGEN--\":2:4   */\n      iszero\n      tag_257\n      jumpi\n        /* \"--CODEGEN--\":27:28   */\n      0x00\n        /* \"--CODEGEN--\":24:25   */\n      dup1\n        /* \"--CODEGEN--\":17:29   */\n      revert\n        /* \"--CODEGEN--\":2:4   */\n    tag_257:\n        /* \"contracts/YunaswapV2Router02.sol\":5096:5239  IYunaswapV2Pair(YunaswapV2Library.pairFor(factory, input, output)).swap(... */\n      pop\n      gas\n      call\n      iszero\n        /* \"--CODEGEN--\":8:17   */\n      dup1\n        /* \"--CODEGEN--\":5:7   */\n      iszero\n      tag_259\n      jumpi\n        /* \"--CODEGEN--\":45:61   */\n      returndatasize\n        /* \"--CODEGEN--\":42:43   */\n      0x00\n        /* \"--CODEGEN--\":39:40   */\n      dup1\n        /* \"--CODEGEN--\":24:62   */\n      returndatacopy\n        /* \"--CODEGEN--\":77:93   */\n      returndatasize\n        /* \"--CODEGEN--\":74:75   */\n      0x00\n        /* \"--CODEGEN--\":67:94   */\n      revert\n        /* \"--CODEGEN--\":5:7   */\n    tag_259:\n      pop\n      pop\n        /* \"contracts/YunaswapV2Router02.sol\":4663:4666  i++ */\n      0x01\n      swap1\n      swap10\n      add\n      swap9\n      pop\n        /* \"contracts/YunaswapV2Router02.sol\":4629:5250  for (uint i; i < path.length - 1; i++) {... */\n      tag_237\n      swap8\n      pop\n      pop\n      pop\n      pop\n      pop\n      pop\n      pop\n      pop\n      jump\n    tag_238:\n      pop\n        /* \"contracts/YunaswapV2Router02.sol\":4528:5256  function _swap(uint[] memory amounts, address[] memory path, address _to) internal virtual {... */\n      pop\n      pop\n      pop\n      jump\t// out\n        /* \"contracts/YunaswapV2Router02.sol\":6637:7840  function _swapSupportingFeeOnTransferTokens(address[] memory path, address _to) internal virtual {... */\n    tag_123:\n        /* \"contracts/YunaswapV2Router02.sol\":6749:6755  uint i */\n      0x00\n        /* \"contracts/YunaswapV2Router02.sol\":6744:7834  for (uint i; i < path.length - 1; i++) {... */\n    tag_261:\n        /* \"contracts/YunaswapV2Router02.sol\":6775:6776  1 */\n      0x01\n        /* \"contracts/YunaswapV2Router02.sol\":6761:6765  path */\n      dup4\n        /* \"contracts/YunaswapV2Router02.sol\":6761:6772  path.length */\n      mload\n        /* \"contracts/YunaswapV2Router02.sol\":6761:6776  path.length - 1 */\n      sub\n        /* \"contracts/YunaswapV2Router02.sol\":6757:6758  i */\n      dup2\n        /* \"contracts/YunaswapV2Router02.sol\":6757:6776  i < path.length - 1 */\n      lt\n        /* \"contracts/YunaswapV2Router02.sol\":6744:7834  for (uint i; i < path.length - 1; i++) {... */\n      iszero\n      tag_262\n      jumpi\n        /* \"contracts/YunaswapV2Router02.sol\":6798:6811  address input */\n      0x00\n        /* \"contracts/YunaswapV2Router02.sol\":6813:6827  address output */\n      dup1\n        /* \"contracts/YunaswapV2Router02.sol\":6832:6836  path */\n      dup5\n        /* \"contracts/YunaswapV2Router02.sol\":6837:6838  i */\n      dup4\n        /* \"contracts/YunaswapV2Router02.sol\":6832:6839  path[i] */\n      dup2\n      mload\n      dup2\n      lt\n      tag_264\n      jumpi\n      invalid\n    tag_264:\n      0x20\n      mul\n      0x20\n      add\n      add\n      mload\n        /* \"contracts/YunaswapV2Router02.sol\":6841:6845  path */\n      dup6\n        /* \"contracts/YunaswapV2Router02.sol\":6846:6847  i */\n      dup5\n        /* \"contracts/YunaswapV2Router02.sol\":6850:6851  1 */\n      0x01\n        /* \"contracts/YunaswapV2Router02.sol\":6846:6851  i + 1 */\n      add\n        /* \"contracts/YunaswapV2Router02.sol\":6841:6852  path[i + 1] */\n      dup2\n      mload\n      dup2\n      lt\n      tag_265\n      jumpi\n      invalid\n    tag_265:\n      0x20\n      mul\n      0x20\n      add\n      add\n      mload\n        /* \"contracts/YunaswapV2Router02.sol\":6797:6853  (address input, address output) = (path[i], path[i + 1]) */\n      swap2\n      pop\n      swap2\n      pop\n        /* \"contracts/YunaswapV2Router02.sol\":6868:6882  address token0 */\n      0x00\n        /* \"contracts/YunaswapV2Router02.sol\":6887:6930  YunaswapV2Library.sortTokens(input, output) */\n      tag_266\n        /* \"contracts/YunaswapV2Router02.sol\":6916:6921  input */\n      dup4\n        /* \"contracts/YunaswapV2Router02.sol\":6923:6929  output */\n      dup4\n        /* \"contracts/YunaswapV2Router02.sol\":6887:6915  YunaswapV2Library.sortTokens */\n      tag_164\n        /* \"contracts/YunaswapV2Router02.sol\":6887:6930  YunaswapV2Library.sortTokens(input, output) */\n      jump\t// in\n    tag_266:\n        /* \"contracts/YunaswapV2Router02.sol\":6867:6930  (address token0,) = YunaswapV2Library.sortTokens(input, output) */\n      pop\n      swap1\n      pop\n        /* \"contracts/YunaswapV2Router02.sol\":6944:6964  IYunaswapV2Pair pair */\n      0x00\n        /* \"contracts/YunaswapV2Router02.sol\":6983:7032  YunaswapV2Library.pairFor(factory, input, output) */\n      tag_267\n        /* \"contracts/YunaswapV2Router02.sol\":7009:7016  factory */\n      immutable(\"0x277ab82e5a4641341820a4a2933a62c1de997e42e92548657ae21b3728d580fe\")\n        /* \"contracts/YunaswapV2Router02.sol\":7018:7023  input */\n      dup6\n        /* \"contracts/YunaswapV2Router02.sol\":7025:7031  output */\n      dup6\n        /* \"contracts/YunaswapV2Router02.sol\":6983:7008  YunaswapV2Library.pairFor */\n      tag_86\n        /* \"contracts/YunaswapV2Router02.sol\":6983:7032  YunaswapV2Library.pairFor(factory, input, output) */\n      jump\t// in\n    tag_267:\n        /* \"contracts/YunaswapV2Router02.sol\":6944:7033  IYunaswapV2Pair pair = IYunaswapV2Pair(YunaswapV2Library.pairFor(factory, input, output)) */\n      swap1\n      pop\n        /* \"contracts/YunaswapV2Router02.sol\":7047:7063  uint amountInput */\n      0x00\n        /* \"contracts/YunaswapV2Router02.sol\":7077:7094  uint amountOutput */\n      dup1\n        /* \"contracts/YunaswapV2Router02.sol\":7163:7176  uint reserve0 */\n      0x00\n        /* \"contracts/YunaswapV2Router02.sol\":7178:7191  uint reserve1 */\n      dup1\n        /* \"contracts/YunaswapV2Router02.sol\":7196:7200  pair */\n      dup5\n      sub(shl(0xa0, 0x01), 0x01)\n        /* \"contracts/YunaswapV2Router02.sol\":7196:7212  pair.getReserves */\n      and\n      0x0902f1ac\n        /* \"contracts/YunaswapV2Router02.sol\":7196:7214  pair.getReserves() */\n      mload(0x40)\n      dup2\n      0xffffffff\n      and\n      0xe0\n      shl\n      dup2\n      mstore\n      0x04\n      add\n      0x60\n      mload(0x40)\n      dup1\n      dup4\n      sub\n      dup2\n      dup7\n      dup1\n      extcodesize\n      iszero\n        /* \"--CODEGEN--\":5:14   */\n      dup1\n        /* \"--CODEGEN--\":2:4   */\n      iszero\n      tag_268\n      jumpi\n        /* \"--CODEGEN--\":27:28   */\n      0x00\n        /* \"--CODEGEN--\":24:25   */\n      dup1\n        /* \"--CODEGEN--\":17:29   */\n      revert\n        /* \"--CODEGEN--\":2:4   */\n    tag_268:\n        /* \"contracts/YunaswapV2Router02.sol\":7196:7214  pair.getReserves() */\n      pop\n      gas\n      staticcall\n      iszero\n        /* \"--CODEGEN--\":8:17   */\n      dup1\n        /* \"--CODEGEN--\":5:7   */\n      iszero\n      tag_270\n      jumpi\n        /* \"--CODEGEN--\":45:61   */\n      returndatasize\n        /* \"--CODEGEN--\":42:43   */\n      0x00\n        /* \"--CODEGEN--\":39:40   */\n      dup1\n        /* \"--CODEGEN--\":24:62   */\n      returndatacopy\n        /* \"--CODEGEN--\":77:93   */\n      returndatasize\n        /* \"--CODEGEN--\":74:75   */\n      0x00\n        /* \"--CODEGEN--\":67:94   */\n      revert\n        /* \"--CODEGEN--\":5:7   */\n    tag_270:\n        /* \"contracts/YunaswapV2Router02.sol\":7196:7214  pair.getReserves() */\n      pop\n      pop\n      pop\n      pop\n      mload(0x40)\n      returndatasize\n        /* \"--CODEGEN--\":15:17   */\n      0x60\n        /* \"--CODEGEN--\":10:13   */\n      dup2\n        /* \"--CODEGEN--\":7:18   */\n      lt\n        /* \"--CODEGEN--\":4:6   */\n      iszero\n      tag_271\n      jumpi\n        /* \"--CODEGEN--\":31:32   */\n      0x00\n        /* \"--CODEGEN--\":28:29   */\n      dup1\n        /* \"--CODEGEN--\":21:33   */\n      revert\n        /* \"--CODEGEN--\":4:6   */\n    tag_271:\n      pop\n        /* \"contracts/YunaswapV2Router02.sol\":7196:7214  pair.getReserves() */\n      dup1\n      mload\n      0x20\n      swap1\n      swap2\n      add\n      mload\n      sub(shl(0x70, 0x01), 0x01)\n        /* \"contracts/YunaswapV2Router02.sol\":7162:7214  (uint reserve0, uint reserve1,) = pair.getReserves() */\n      swap2\n      dup3\n      and\n      swap4\n      pop\n      and\n      swap1\n      pop\n        /* \"contracts/YunaswapV2Router02.sol\":7229:7246  uint reserveInput */\n      0x00\n      dup1\n      sub(shl(0xa0, 0x01), 0x01)\n        /* \"contracts/YunaswapV2Router02.sol\":7270:7285  input == token0 */\n      dup11\n      dup2\n      and\n      swap1\n      dup10\n      and\n      eq\n        /* \"contracts/YunaswapV2Router02.sol\":7270:7331  input == token0 ? (reserve0, reserve1) : (reserve1, reserve0) */\n      tag_272\n      jumpi\n        /* \"contracts/YunaswapV2Router02.sol\":7312:7320  reserve1 */\n      dup3\n        /* \"contracts/YunaswapV2Router02.sol\":7322:7330  reserve0 */\n      dup5\n        /* \"contracts/YunaswapV2Router02.sol\":7270:7331  input == token0 ? (reserve0, reserve1) : (reserve1, reserve0) */\n      jump(tag_273)\n    tag_272:\n        /* \"contracts/YunaswapV2Router02.sol\":7289:7297  reserve0 */\n      dup4\n        /* \"contracts/YunaswapV2Router02.sol\":7299:7307  reserve1 */\n      dup4\n        /* \"contracts/YunaswapV2Router02.sol\":7270:7331  input == token0 ? (reserve0, reserve1) : (reserve1, reserve0) */\n    tag_273:\n        /* \"contracts/YunaswapV2Router02.sol\":7228:7331  (uint reserveInput, uint reserveOutput) = input == token0 ? (reserve0, reserve1) : (reserve1, reserve0) */\n      swap2\n      pop\n      swap2\n      pop\n        /* \"contracts/YunaswapV2Router02.sol\":7359:7415  IERC20(input).balanceOf(address(pair)).sub(reserveInput) */\n      tag_274\n        /* \"contracts/YunaswapV2Router02.sol\":7402:7414  reserveInput */\n      dup3\n        /* \"contracts/YunaswapV2Router02.sol\":7366:7371  input */\n      dup12\n      sub(shl(0xa0, 0x01), 0x01)\n        /* \"contracts/YunaswapV2Router02.sol\":7359:7382  IERC20(input).balanceOf */\n      and\n      0x70a08231\n        /* \"contracts/YunaswapV2Router02.sol\":7391:7395  pair */\n      dup11\n        /* \"contracts/YunaswapV2Router02.sol\":7359:7397  IERC20(input).balanceOf(address(pair)) */\n      mload(0x40)\n      dup3\n      0xffffffff\n      and\n      0xe0\n      shl\n      dup2\n      mstore\n      0x04\n      add\n      dup1\n      dup3\n      sub(shl(0xa0, 0x01), 0x01)\n      and\n      sub(shl(0xa0, 0x01), 0x01)\n      and\n      dup2\n      mstore\n      0x20\n      add\n      swap2\n      pop\n      pop\n      0x20\n      mload(0x40)\n      dup1\n      dup4\n      sub\n      dup2\n      dup7\n      dup1\n      extcodesize\n      iszero\n        /* \"--CODEGEN--\":5:14   */\n      dup1\n        /* \"--CODEGEN--\":2:4   */\n      iszero\n      tag_126\n      jumpi\n        /* \"--CODEGEN--\":27:28   */\n      0x00\n        /* \"--CODEGEN--\":24:25   */\n      dup1\n        /* \"--CODEGEN--\":17:29   */\n      revert\n        /* \"contracts/YunaswapV2Router02.sol\":7359:7415  IERC20(input).balanceOf(address(pair)).sub(reserveInput) */\n    tag_274:\n        /* \"contracts/YunaswapV2Router02.sol\":7345:7415  amountInput = IERC20(input).balanceOf(address(pair)).sub(reserveInput) */\n      swap6\n      pop\n        /* \"contracts/YunaswapV2Router02.sol\":7444:7516  YunaswapV2Library.getAmountOut(amountInput, reserveInput, reserveOutput) */\n      tag_279\n        /* \"contracts/YunaswapV2Router02.sol\":7475:7486  amountInput */\n      dup7\n        /* \"contracts/YunaswapV2Router02.sol\":7488:7500  reserveInput */\n      dup4\n        /* \"contracts/YunaswapV2Router02.sol\":7502:7515  reserveOutput */\n      dup4\n        /* \"contracts/YunaswapV2Router02.sol\":7444:7474  YunaswapV2Library.getAmountOut */\n      tag_80\n        /* \"contracts/YunaswapV2Router02.sol\":7444:7516  YunaswapV2Library.getAmountOut(amountInput, reserveInput, reserveOutput) */\n      jump\t// in\n    tag_279:\n        /* \"contracts/YunaswapV2Router02.sol\":7429:7516  amountOutput = YunaswapV2Library.getAmountOut(amountInput, reserveInput, reserveOutput) */\n      swap5\n      pop\n        /* \"contracts/YunaswapV2Router02.sol\":6744:7834  for (uint i; i < path.length - 1; i++) {... */\n      pop\n      pop\n      pop\n      pop\n        /* \"contracts/YunaswapV2Router02.sol\":7545:7560  uint amount0Out */\n      0x00\n        /* \"contracts/YunaswapV2Router02.sol\":7562:7577  uint amount1Out */\n      dup1\n        /* \"contracts/YunaswapV2Router02.sol\":7590:7596  token0 */\n      dup6\n      sub(shl(0xa0, 0x01), 0x01)\n        /* \"contracts/YunaswapV2Router02.sol\":7581:7596  input == token0 */\n      and\n        /* \"contracts/YunaswapV2Router02.sol\":7581:7586  input */\n      dup9\n      sub(shl(0xa0, 0x01), 0x01)\n        /* \"contracts/YunaswapV2Router02.sol\":7581:7596  input == token0 */\n      and\n      eq\n        /* \"contracts/YunaswapV2Router02.sol\":7581:7648  input == token0 ? (uint(0), amountOutput) : (amountOutput, uint(0)) */\n      tag_280\n      jumpi\n        /* \"contracts/YunaswapV2Router02.sol\":7626:7638  amountOutput */\n      dup3\n        /* \"contracts/YunaswapV2Router02.sol\":7645:7646  0 */\n      0x00\n        /* \"contracts/YunaswapV2Router02.sol\":7581:7648  input == token0 ? (uint(0), amountOutput) : (amountOutput, uint(0)) */\n      jump(tag_281)\n    tag_280:\n        /* \"contracts/YunaswapV2Router02.sol\":7605:7606  0 */\n      0x00\n        /* \"contracts/YunaswapV2Router02.sol\":7609:7621  amountOutput */\n      dup4\n        /* \"contracts/YunaswapV2Router02.sol\":7581:7648  input == token0 ? (uint(0), amountOutput) : (amountOutput, uint(0)) */\n    tag_281:\n        /* \"contracts/YunaswapV2Router02.sol\":7544:7648  (uint amount0Out, uint amount1Out) = input == token0 ? (uint(0), amountOutput) : (amountOutput, uint(0)) */\n      swap2\n      pop\n      swap2\n      pop\n        /* \"contracts/YunaswapV2Router02.sol\":7662:7672  address to */\n      0x00\n        /* \"contracts/YunaswapV2Router02.sol\":7693:7694  2 */\n      0x02\n        /* \"contracts/YunaswapV2Router02.sol\":7679:7683  path */\n      dup13\n        /* \"contracts/YunaswapV2Router02.sol\":7679:7690  path.length */\n      mload\n        /* \"contracts/YunaswapV2Router02.sol\":7679:7694  path.length - 2 */\n      sub\n        /* \"contracts/YunaswapV2Router02.sol\":7675:7676  i */\n      dup11\n        /* \"contracts/YunaswapV2Router02.sol\":7675:7694  i < path.length - 2 */\n      lt\n        /* \"contracts/YunaswapV2Router02.sol\":7675:7758  i < path.length - 2 ? YunaswapV2Library.pairFor(factory, output, path[i + 2]) : _to */\n      tag_282\n      jumpi\n        /* \"contracts/YunaswapV2Router02.sol\":7755:7758  _to */\n      dup11\n        /* \"contracts/YunaswapV2Router02.sol\":7675:7758  i < path.length - 2 ? YunaswapV2Library.pairFor(factory, output, path[i + 2]) : _to */\n      jump(tag_284)\n    tag_282:\n        /* \"contracts/YunaswapV2Router02.sol\":7697:7752  YunaswapV2Library.pairFor(factory, output, path[i + 2]) */\n      tag_284\n        /* \"contracts/YunaswapV2Router02.sol\":7723:7730  factory */\n      immutable(\"0x277ab82e5a4641341820a4a2933a62c1de997e42e92548657ae21b3728d580fe\")\n        /* \"contracts/YunaswapV2Router02.sol\":7732:7738  output */\n      dup10\n        /* \"contracts/YunaswapV2Router02.sol\":7740:7744  path */\n      dup15\n        /* \"contracts/YunaswapV2Router02.sol\":7745:7746  i */\n      dup14\n        /* \"contracts/YunaswapV2Router02.sol\":7749:7750  2 */\n      0x02\n        /* \"contracts/YunaswapV2Router02.sol\":7745:7750  i + 2 */\n      add\n        /* \"contracts/YunaswapV2Router02.sol\":7740:7751  path[i + 2] */\n      dup2\n      mload\n      dup2\n      lt\n      tag_249\n      jumpi\n      invalid\n        /* \"contracts/YunaswapV2Router02.sol\":7697:7752  YunaswapV2Library.pairFor(factory, output, path[i + 2]) */\n    tag_284:\n        /* \"contracts/YunaswapV2Router02.sol\":7810:7822  new bytes(0) */\n      0x40\n      dup1\n      mload\n        /* \"contracts/YunaswapV2Router02.sol\":7820:7821  0 */\n      0x00\n        /* \"contracts/YunaswapV2Router02.sol\":7810:7822  new bytes(0) */\n      dup1\n      dup3\n      mstore\n      0x20\n      dup3\n      add\n      swap3\n      dup4\n      swap1\n      mstore\n      shl(0xe0, 0x022c0d9f)\n        /* \"contracts/YunaswapV2Router02.sol\":7772:7823  pair.swap(amount0Out, amount1Out, to, new bytes(0)) */\n      dup4\n      mstore\n      0x24\n      dup3\n      add\n      dup8\n      dup2\n      mstore\n      0x44\n      dup4\n      add\n      dup8\n      swap1\n      mstore\n      sub(shl(0xa0, 0x01), 0x01)\n      dup1\n      dup7\n      and\n      0x64\n      dup6\n      add\n      mstore\n      0x80\n      0x84\n      dup6\n      add\n      swap1\n      dup2\n      mstore\n      dup5\n      mload\n      0xa4\n      dup7\n      add\n      dup2\n      swap1\n      mstore\n        /* \"contracts/YunaswapV2Router02.sol\":7662:7758  address to = i < path.length - 2 ? YunaswapV2Library.pairFor(factory, output, path[i + 2]) : _to */\n      swap7\n      swap8\n      pop\n        /* \"contracts/YunaswapV2Router02.sol\":7772:7781  pair.swap */\n      swap1\n      dup13\n      and\n      swap6\n      0x022c0d9f\n      swap6\n        /* \"contracts/YunaswapV2Router02.sol\":7782:7792  amount0Out */\n      dup11\n      swap6\n        /* \"contracts/YunaswapV2Router02.sol\":7794:7804  amount1Out */\n      dup11\n      swap6\n        /* \"contracts/YunaswapV2Router02.sol\":7662:7758  address to = i < path.length - 2 ? YunaswapV2Library.pairFor(factory, output, path[i + 2]) : _to */\n      dup11\n      swap6\n        /* \"contracts/YunaswapV2Router02.sol\":7810:7822  new bytes(0) */\n      swap2\n      swap5\n        /* \"contracts/YunaswapV2Router02.sol\":7772:7823  pair.swap(amount0Out, amount1Out, to, new bytes(0)) */\n      swap2\n      swap4\n      swap2\n      swap3\n      0xc4\n      dup7\n      add\n      swap3\n        /* \"contracts/YunaswapV2Router02.sol\":7810:7822  new bytes(0) */\n      swap1\n      swap2\n        /* \"contracts/YunaswapV2Router02.sol\":7772:7823  pair.swap(amount0Out, amount1Out, to, new bytes(0)) */\n      dup2\n      swap1\n      dup5\n      swap1\n        /* \"contracts/YunaswapV2Router02.sol\":7810:7822  new bytes(0) */\n      dup5\n      swap1\n        /* \"--CODEGEN--\":8:108   */\n    tag_288:\n        /* \"--CODEGEN--\":33:36   */\n      dup4\n        /* \"--CODEGEN--\":30:31   */\n      dup2\n        /* \"--CODEGEN--\":27:37   */\n      lt\n        /* \"--CODEGEN--\":8:108   */\n      iszero\n      tag_290\n      jumpi\n        /* \"--CODEGEN--\":90:101   */\n      dup2\n      dup2\n      add\n        /* \"--CODEGEN--\":84:102   */\n      mload\n        /* \"--CODEGEN--\":71:82   */\n      dup4\n      dup3\n      add\n        /* \"--CODEGEN--\":64:103   */\n      mstore\n        /* \"--CODEGEN--\":52:54   */\n      0x20\n        /* \"--CODEGEN--\":45:55   */\n      add\n        /* \"--CODEGEN--\":8:108   */\n      jump(tag_288)\n    tag_290:\n        /* \"--CODEGEN--\":12:26   */\n      pop\n        /* \"contracts/YunaswapV2Router02.sol\":7772:7823  pair.swap(amount0Out, amount1Out, to, new bytes(0)) */\n      pop\n      pop\n      pop\n      swap1\n      pop\n      swap1\n      dup2\n      add\n      swap1\n      0x1f\n      and\n      dup1\n      iszero\n      tag_291\n      jumpi\n      dup1\n      dup3\n      sub\n      dup1\n      mload\n      0x01\n      dup4\n      0x20\n      sub\n      0x0100\n      exp\n      sub\n      not\n      and\n      dup2\n      mstore\n      0x20\n      add\n      swap2\n      pop\n    tag_291:\n      pop\n      swap6\n      pop\n      pop\n      pop\n      pop\n      pop\n      pop\n      0x00\n      mload(0x40)\n      dup1\n      dup4\n      sub\n      dup2\n      0x00\n      dup8\n      dup1\n      extcodesize\n      iszero\n        /* \"--CODEGEN--\":5:14   */\n      dup1\n        /* \"--CODEGEN--\":2:4   */\n      iszero\n      tag_292\n      jumpi\n        /* \"--CODEGEN--\":27:28   */\n      0x00\n        /* \"--CODEGEN--\":24:25   */\n      dup1\n        /* \"--CODEGEN--\":17:29   */\n      revert\n        /* \"--CODEGEN--\":2:4   */\n    tag_292:\n        /* \"contracts/YunaswapV2Router02.sol\":7772:7823  pair.swap(amount0Out, amount1Out, to, new bytes(0)) */\n      pop\n      gas\n      call\n      iszero\n        /* \"--CODEGEN--\":8:17   */\n      dup1\n        /* \"--CODEGEN--\":5:7   */\n      iszero\n      tag_294\n      jumpi\n        /* \"--CODEGEN--\":45:61   */\n      returndatasize\n        /* \"--CODEGEN--\":42:43   */\n      0x00\n        /* \"--CODEGEN--\":39:40   */\n      dup1\n        /* \"--CODEGEN--\":24:62   */\n      returndatacopy\n        /* \"--CODEGEN--\":77:93   */\n      returndatasize\n        /* \"--CODEGEN--\":74:75   */\n      0x00\n        /* \"--CODEGEN--\":67:94   */\n      revert\n        /* \"--CODEGEN--\":5:7   */\n    tag_294:\n      pop\n      pop\n        /* \"contracts/YunaswapV2Router02.sol\":6778:6781  i++ */\n      0x01\n      swap1\n      swap12\n      add\n      swap11\n      pop\n        /* \"contracts/YunaswapV2Router02.sol\":6744:7834  for (uint i; i < path.length - 1; i++) {... */\n      tag_261\n      swap10\n      pop\n      pop\n      pop\n      pop\n      pop\n      pop\n      pop\n      pop\n      pop\n      pop\n      jump\n    tag_262:\n      pop\n        /* \"contracts/YunaswapV2Router02.sol\":6637:7840  function _swapSupportingFeeOnTransferTokens(address[] memory path, address _to) internal virtual {... */\n      pop\n      pop\n      jump\t// out\n        /* \"contracts/libraries/SafeMath.sol\":321:448  function sub(uint x, uint y) internal pure returns (uint z) {... */\n    tag_130:\n        /* \"contracts/libraries/SafeMath.sol\":404:409  x - y */\n      dup1\n      dup3\n      sub\n        /* \"contracts/libraries/SafeMath.sol\":399:415  (z = x - y) <= x */\n      dup3\n      dup2\n      gt\n      iszero\n        /* \"contracts/libraries/SafeMath.sol\":391:441  require((z = x - y) <= x, 'ds-math-sub-underflow') */\n      tag_81\n      jumpi\n      0x40\n      dup1\n      mload\n      shl(0xe5, 0x461bcd)\n      dup2\n      mstore\n      0x20\n      0x04\n      dup3\n      add\n      mstore\n      0x15\n      0x24\n      dup3\n      add\n      mstore\n      shl(0x58, 0x64732d6d6174682d7375622d756e646572666c6f77)\n      0x44\n      dup3\n      add\n      mstore\n      swap1\n      mload\n      swap1\n      dup2\n      swap1\n      sub\n      0x64\n      add\n      swap1\n      revert\n        /* \"contracts/libraries/YunaswapV2Library.sol\":2828:3296  function getAmountIn(uint amountOut, uint reserveIn, uint reserveOut) internal pure returns (uint amountIn) {... */\n    tag_134:\n        /* \"contracts/libraries/YunaswapV2Library.sol\":2921:2934  uint amountIn */\n      0x00\n        /* \"contracts/libraries/YunaswapV2Library.sol\":2966:2967  0 */\n      dup1\n        /* \"contracts/libraries/YunaswapV2Library.sol\":2954:2963  amountOut */\n      dup5\n        /* \"contracts/libraries/YunaswapV2Library.sol\":2954:2967  amountOut > 0 */\n      gt\n        /* \"contracts/libraries/YunaswapV2Library.sol\":2946:3017  require(amountOut > 0, 'YunaswapV2Library: INSUFFICIENT_OUTPUT_AMOUNT') */\n      tag_298\n      jumpi\n      mload(0x40)\n      shl(0xe5, 0x461bcd)\n      dup2\n      mstore\n      0x04\n      add\n      dup1\n      dup1\n      0x20\n      add\n      dup3\n      dup2\n      sub\n      dup3\n      mstore\n      0x2d\n      dup2\n      mstore\n      0x20\n      add\n      dup1\n      data_92af7193719dac60ce8939df82d5b279902b5e706aa5410f4c5b12f634b6d59b\n      0x2d\n      swap2\n      codecopy\n      0x40\n      add\n      swap2\n      pop\n      pop\n      mload(0x40)\n      dup1\n      swap2\n      sub\n      swap1\n      revert\n    tag_298:\n        /* \"contracts/libraries/YunaswapV2Library.sol\":3047:3048  0 */\n      0x00\n        /* \"contracts/libraries/YunaswapV2Library.sol\":3035:3044  reserveIn */\n      dup4\n        /* \"contracts/libraries/YunaswapV2Library.sol\":3035:3048  reserveIn > 0 */\n      gt\n        /* \"contracts/libraries/YunaswapV2Library.sol\":3035:3066  reserveIn > 0 && reserveOut > 0 */\n      dup1\n      iszero\n      tag_299\n      jumpi\n      pop\n        /* \"contracts/libraries/YunaswapV2Library.sol\":3065:3066  0 */\n      0x00\n        /* \"contracts/libraries/YunaswapV2Library.sol\":3052:3062  reserveOut */\n      dup3\n        /* \"contracts/libraries/YunaswapV2Library.sol\":3052:3066  reserveOut > 0 */\n      gt\n        /* \"contracts/libraries/YunaswapV2Library.sol\":3035:3066  reserveIn > 0 && reserveOut > 0 */\n    tag_299:\n        /* \"contracts/libraries/YunaswapV2Library.sol\":3027:3112  require(reserveIn > 0 && reserveOut > 0, 'YunaswapV2Library: INSUFFICIENT_LIQUIDITY') */\n      tag_300\n      jumpi\n      mload(0x40)\n      shl(0xe5, 0x461bcd)\n      dup2\n      mstore\n      0x04\n      add\n      dup1\n      dup1\n      0x20\n      add\n      dup3\n      dup2\n      sub\n      dup3\n      mstore\n      0x29\n      dup2\n      mstore\n      0x20\n      add\n      dup1\n      data_3381990dcf2e2e734e03491d1c9a886b2ec985c8fc35f6af06111380c57721e3\n      0x29\n      swap2\n      codecopy\n      0x40\n      add\n      swap2\n      pop\n      pop\n      mload(0x40)\n      dup1\n      swap2\n      sub\n      swap1\n      revert\n    tag_300:\n        /* \"contracts/libraries/YunaswapV2Library.sol\":3122:3136  uint numerator */\n      0x00\n        /* \"contracts/libraries/YunaswapV2Library.sol\":3139:3173  reserveIn.mul(amountOut).mul(1000) */\n      tag_301\n        /* \"contracts/libraries/YunaswapV2Library.sol\":3168:3172  1000 */\n      0x03e8\n        /* \"contracts/libraries/YunaswapV2Library.sol\":3139:3163  reserveIn.mul(amountOut) */\n      tag_302\n        /* \"contracts/libraries/YunaswapV2Library.sol\":3139:3148  reserveIn */\n      dup7\n        /* \"contracts/libraries/YunaswapV2Library.sol\":3153:3162  amountOut */\n      dup9\n        /* \"contracts/libraries/YunaswapV2Library.sol\":3139:3163  reserveIn.mul(amountOut) */\n      0xffffffff\n        /* \"contracts/libraries/YunaswapV2Library.sol\":3139:3152  reserveIn.mul */\n      tag_188\n        /* \"contracts/libraries/YunaswapV2Library.sol\":3139:3163  reserveIn.mul(amountOut) */\n      and\n      jump\t// in\n    tag_302:\n        /* \"contracts/libraries/YunaswapV2Library.sol\":3139:3167  reserveIn.mul(amountOut).mul */\n      swap1\n        /* \"contracts/libraries/YunaswapV2Library.sol\":3139:3173  reserveIn.mul(amountOut).mul(1000) */\n      0xffffffff\n        /* \"contracts/libraries/YunaswapV2Library.sol\":3139:3167  reserveIn.mul(amountOut).mul */\n      tag_188\n        /* \"contracts/libraries/YunaswapV2Library.sol\":3139:3173  reserveIn.mul(amountOut).mul(1000) */\n      and\n      jump\t// in\n    tag_301:\n        /* \"contracts/libraries/YunaswapV2Library.sol\":3122:3173  uint numerator = reserveIn.mul(amountOut).mul(1000) */\n      swap1\n      pop\n        /* \"contracts/libraries/YunaswapV2Library.sol\":3183:3199  uint denominator */\n      0x00\n        /* \"contracts/libraries/YunaswapV2Library.sol\":3202:3236  reserveOut.sub(amountOut).mul(997) */\n      tag_303\n        /* \"contracts/libraries/YunaswapV2Library.sol\":3232:3235  997 */\n      0x03e5\n        /* \"contracts/libraries/YunaswapV2Library.sol\":3202:3227  reserveOut.sub(amountOut) */\n      tag_302\n        /* \"contracts/libraries/YunaswapV2Library.sol\":3202:3212  reserveOut */\n      dup7\n        /* \"contracts/libraries/YunaswapV2Library.sol\":3217:3226  amountOut */\n      dup10\n        /* \"contracts/libraries/YunaswapV2Library.sol\":3202:3227  reserveOut.sub(amountOut) */\n      0xffffffff\n        /* \"contracts/libraries/YunaswapV2Library.sol\":3202:3216  reserveOut.sub */\n      tag_130\n        /* \"contracts/libraries/YunaswapV2Library.sol\":3202:3227  reserveOut.sub(amountOut) */\n      and\n      jump\t// in\n        /* \"contracts/libraries/YunaswapV2Library.sol\":3202:3236  reserveOut.sub(amountOut).mul(997) */\n    tag_303:\n        /* \"contracts/libraries/YunaswapV2Library.sol\":3183:3236  uint denominator = reserveOut.sub(amountOut).mul(997) */\n      swap1\n      pop\n        /* \"contracts/libraries/YunaswapV2Library.sol\":3257:3289  (numerator / denominator).add(1) */\n      tag_305\n        /* \"contracts/libraries/YunaswapV2Library.sol\":3287:3288  1 */\n      0x01\n        /* \"contracts/libraries/YunaswapV2Library.sol\":3270:3281  denominator */\n      dup3\n        /* \"contracts/libraries/YunaswapV2Library.sol\":3258:3267  numerator */\n      dup5\n        /* \"contracts/libraries/YunaswapV2Library.sol\":3258:3281  numerator / denominator */\n      dup2\n      tag_306\n      jumpi\n      invalid\n    tag_306:\n      div\n      swap1\n        /* \"contracts/libraries/YunaswapV2Library.sol\":3257:3289  (numerator / denominator).add(1) */\n      0xffffffff\n        /* \"contracts/libraries/YunaswapV2Library.sol\":3257:3286  (numerator / denominator).add */\n      tag_192\n        /* \"contracts/libraries/YunaswapV2Library.sol\":3257:3289  (numerator / denominator).add(1) */\n      and\n      jump\t// in\n    tag_305:\n        /* \"contracts/libraries/YunaswapV2Library.sol\":3246:3289  amountIn = (numerator / denominator).add(1) */\n      swap7\n        /* \"contracts/libraries/YunaswapV2Library.sol\":2828:3296  function getAmountIn(uint amountOut, uint reserveIn, uint reserveOut) internal pure returns (uint amountIn) {... */\n      swap6\n      pop\n      pop\n      pop\n      pop\n      pop\n      pop\n      jump\t// out\n        /* \"contracts/libraries/YunaswapV2Library.sol\":1760:2079  function quote(uint amountA, uint reserveA, uint reserveB) internal pure returns (uint amountB) {... */\n    tag_150:\n        /* \"contracts/libraries/YunaswapV2Library.sol\":1842:1854  uint amountB */\n      0x00\n        /* \"contracts/libraries/YunaswapV2Library.sol\":1884:1885  0 */\n      dup1\n        /* \"contracts/libraries/YunaswapV2Library.sol\":1874:1881  amountA */\n      dup5\n        /* \"contracts/libraries/YunaswapV2Library.sol\":1874:1885  amountA > 0 */\n      gt\n        /* \"contracts/libraries/YunaswapV2Library.sol\":1866:1928  require(amountA > 0, 'YunaswapV2Library: INSUFFICIENT_AMOUNT') */\n      tag_308\n      jumpi\n      mload(0x40)\n      shl(0xe5, 0x461bcd)\n      dup2\n      mstore\n      0x04\n      add\n      dup1\n      dup1\n      0x20\n      add\n      dup3\n      dup2\n      sub\n      dup3\n      mstore\n      0x26\n      dup2\n      mstore\n      0x20\n      add\n      dup1\n      data_4642bc818b9f780fe2d230c4cc68ec38c4f0f49f46a080a8df7d2da39caa114b\n      0x26\n      swap2\n      codecopy\n      0x40\n      add\n      swap2\n      pop\n      pop\n      mload(0x40)\n      dup1\n      swap2\n      sub\n      swap1\n      revert\n    tag_308:\n        /* \"contracts/libraries/YunaswapV2Library.sol\":1957:1958  0 */\n      0x00\n        /* \"contracts/libraries/YunaswapV2Library.sol\":1946:1954  reserveA */\n      dup4\n        /* \"contracts/libraries/YunaswapV2Library.sol\":1946:1958  reserveA > 0 */\n      gt\n        /* \"contracts/libraries/YunaswapV2Library.sol\":1946:1974  reserveA > 0 && reserveB > 0 */\n      dup1\n      iszero\n      tag_309\n      jumpi\n      pop\n        /* \"contracts/libraries/YunaswapV2Library.sol\":1973:1974  0 */\n      0x00\n        /* \"contracts/libraries/YunaswapV2Library.sol\":1962:1970  reserveB */\n      dup3\n        /* \"contracts/libraries/YunaswapV2Library.sol\":1962:1974  reserveB > 0 */\n      gt\n        /* \"contracts/libraries/YunaswapV2Library.sol\":1946:1974  reserveA > 0 && reserveB > 0 */\n    tag_309:\n        /* \"contracts/libraries/YunaswapV2Library.sol\":1938:2020  require(reserveA > 0 && reserveB > 0, 'YunaswapV2Library: INSUFFICIENT_LIQUIDITY') */\n      tag_310\n      jumpi\n      mload(0x40)\n      shl(0xe5, 0x461bcd)\n      dup2\n      mstore\n      0x04\n      add\n      dup1\n      dup1\n      0x20\n      add\n      dup3\n      dup2\n      sub\n      dup3\n      mstore\n      0x29\n      dup2\n      mstore\n      0x20\n      add\n      dup1\n      data_3381990dcf2e2e734e03491d1c9a886b2ec985c8fc35f6af06111380c57721e3\n      0x29\n      swap2\n      codecopy\n      0x40\n      add\n      swap2\n      pop\n      pop\n      mload(0x40)\n      dup1\n      swap2\n      sub\n      swap1\n      revert\n    tag_310:\n        /* \"contracts/libraries/YunaswapV2Library.sol\":2064:2072  reserveA */\n      dup3\n        /* \"contracts/libraries/YunaswapV2Library.sol\":2040:2061  amountA.mul(reserveB) */\n      tag_311\n        /* \"contracts/libraries/YunaswapV2Library.sol\":2040:2047  amountA */\n      dup6\n        /* \"contracts/libraries/YunaswapV2Library.sol\":2052:2060  reserveB */\n      dup5\n        /* \"contracts/libraries/YunaswapV2Library.sol\":2040:2061  amountA.mul(reserveB) */\n      0xffffffff\n        /* \"contracts/libraries/YunaswapV2Library.sol\":2040:2051  amountA.mul */\n      tag_188\n        /* \"contracts/libraries/YunaswapV2Library.sol\":2040:2061  amountA.mul(reserveB) */\n      and\n      jump\t// in\n    tag_311:\n        /* \"contracts/libraries/YunaswapV2Library.sol\":2040:2072  amountA.mul(reserveB) / reserveA */\n      dup2\n      tag_312\n      jumpi\n      invalid\n    tag_312:\n      div\n      swap5\n        /* \"contracts/libraries/YunaswapV2Library.sol\":1760:2079  function quote(uint amountA, uint reserveA, uint reserveB) internal pure returns (uint amountB) {... */\n      swap4\n      pop\n      pop\n      pop\n      pop\n      jump\t// out\n        /* \"contracts/libraries/YunaswapV2Library.sol\":292:639  function sortTokens(address tokenA, address tokenB) internal pure returns (address token0, address token1) {... */\n    tag_164:\n        /* \"contracts/libraries/YunaswapV2Library.sol\":367:381  address token0 */\n      0x00\n        /* \"contracts/libraries/YunaswapV2Library.sol\":383:397  address token1 */\n      dup1\n        /* \"contracts/libraries/YunaswapV2Library.sol\":427:433  tokenB */\n      dup3\n      sub(shl(0xa0, 0x01), 0x01)\n        /* \"contracts/libraries/YunaswapV2Library.sol\":417:433  tokenA != tokenB */\n      and\n        /* \"contracts/libraries/YunaswapV2Library.sol\":417:423  tokenA */\n      dup5\n      sub(shl(0xa0, 0x01), 0x01)\n        /* \"contracts/libraries/YunaswapV2Library.sol\":417:433  tokenA != tokenB */\n      and\n      eq\n      iszero\n        /* \"contracts/libraries/YunaswapV2Library.sol\":409:476  require(tokenA != tokenB, 'YunaswapV2Library: IDENTICAL_ADDRESSES') */\n      tag_314\n      jumpi\n      mload(0x40)\n      shl(0xe5, 0x461bcd)\n      dup2\n      mstore\n      0x04\n      add\n      dup1\n      dup1\n      0x20\n      add\n      dup3\n      dup2\n      sub\n      dup3\n      mstore\n      0x26\n      dup2\n      mstore\n      0x20\n      add\n      dup1\n      data_ee32e716aa6dcb4bbc31681cdb6f6e085ffe011aa3c423eba9eeee18ee9952fc\n      0x26\n      swap2\n      codecopy\n      0x40\n      add\n      swap2\n      pop\n      pop\n      mload(0x40)\n      dup1\n      swap2\n      sub\n      swap1\n      revert\n    tag_314:\n        /* \"contracts/libraries/YunaswapV2Library.sol\":514:520  tokenB */\n      dup3\n      sub(shl(0xa0, 0x01), 0x01)\n        /* \"contracts/libraries/YunaswapV2Library.sol\":505:520  tokenA < tokenB */\n      and\n        /* \"contracts/libraries/YunaswapV2Library.sol\":505:511  tokenA */\n      dup5\n      sub(shl(0xa0, 0x01), 0x01)\n        /* \"contracts/libraries/YunaswapV2Library.sol\":505:520  tokenA < tokenB */\n      and\n      lt\n        /* \"contracts/libraries/YunaswapV2Library.sol\":505:558  tokenA < tokenB ? (tokenA, tokenB) : (tokenB, tokenA) */\n      tag_315\n      jumpi\n        /* \"contracts/libraries/YunaswapV2Library.sol\":543:549  tokenB */\n      dup3\n        /* \"contracts/libraries/YunaswapV2Library.sol\":551:557  tokenA */\n      dup5\n        /* \"contracts/libraries/YunaswapV2Library.sol\":505:558  tokenA < tokenB ? (tokenA, tokenB) : (tokenB, tokenA) */\n      jump(tag_316)\n    tag_315:\n        /* \"contracts/libraries/YunaswapV2Library.sol\":524:530  tokenA */\n      dup4\n        /* \"contracts/libraries/YunaswapV2Library.sol\":532:538  tokenB */\n      dup4\n        /* \"contracts/libraries/YunaswapV2Library.sol\":505:558  tokenA < tokenB ? (tokenA, tokenB) : (tokenB, tokenA) */\n    tag_316:\n        /* \"contracts/libraries/YunaswapV2Library.sol\":486:558  (token0, token1) = tokenA < tokenB ? (tokenA, tokenB) : (tokenB, tokenA) */\n      swap1\n      swap3\n      pop\n      swap1\n      pop\n      sub(shl(0xa0, 0x01), 0x01)\n        /* \"contracts/libraries/YunaswapV2Library.sol\":576:596  token0 != address(0) */\n      dup3\n      and\n        /* \"contracts/libraries/YunaswapV2Library.sol\":568:632  require(token0 != address(0), 'YunaswapV2Library: ZERO_ADDRESS') */\n      tag_317\n      jumpi\n      0x40\n      dup1\n      mload\n      shl(0xe5, 0x461bcd)\n      dup2\n      mstore\n      0x20\n      0x04\n      dup3\n      add\n      mstore\n      0x1f\n      0x24\n      dup3\n      add\n      mstore\n      0x59756e617377617056324c6962726172793a205a45524f5f4144445245535300\n      0x44\n      dup3\n      add\n      mstore\n      swap1\n      mload\n      swap1\n      dup2\n      swap1\n      sub\n      0x64\n      add\n      swap1\n      revert\n    tag_317:\n        /* \"contracts/libraries/YunaswapV2Library.sol\":292:639  function sortTokens(address tokenA, address tokenB) internal pure returns (address token0, address token1) {... */\n      swap3\n      pop\n      swap3\n      swap1\n      pop\n      jump\t// out\n        /* \"contracts/YunaswapV2Router02.sol\":680:2050  function _addLiquidity(... */\n    tag_175:\n        /* \"contracts/YunaswapV2Router02.sol\":984:1035  IYunaswapV2Factory(factory).getPair(tokenA, tokenB) */\n      0x40\n      dup1\n      mload\n      shl(0xe0, 0xe6a43905)\n      dup2\n      mstore\n      sub(shl(0xa0, 0x01), 0x01)\n      dup9\n      dup2\n      and\n      0x04\n      dup4\n      add\n      mstore\n      dup8\n      dup2\n      and\n      0x24\n      dup4\n      add\n      mstore\n      swap2\n      mload\n        /* \"contracts/YunaswapV2Router02.sol\":891:903  uint amountA */\n      0x00\n      swap3\n      dup4\n      swap3\n      dup4\n      swap3\n        /* \"contracts/YunaswapV2Router02.sol\":1003:1010  factory */\n      immutable(\"0x277ab82e5a4641341820a4a2933a62c1de997e42e92548657ae21b3728d580fe\")\n        /* \"contracts/YunaswapV2Router02.sol\":984:1019  IYunaswapV2Factory(factory).getPair */\n      swap1\n      swap3\n      and\n      swap2\n      0xe6a43905\n      swap2\n        /* \"contracts/YunaswapV2Router02.sol\":984:1035  IYunaswapV2Factory(factory).getPair(tokenA, tokenB) */\n      0x44\n      dup1\n      dup3\n      add\n      swap3\n      0x20\n      swap3\n      swap1\n      swap2\n      swap1\n      dup3\n      swap1\n      sub\n      add\n      dup2\n        /* \"contracts/YunaswapV2Router02.sol\":984:1019  IYunaswapV2Factory(factory).getPair */\n      dup7\n        /* \"contracts/YunaswapV2Router02.sol\":984:1035  IYunaswapV2Factory(factory).getPair(tokenA, tokenB) */\n      dup1\n      extcodesize\n      iszero\n        /* \"--CODEGEN--\":2:4   */\n      dup1\n      iszero\n      tag_319\n      jumpi\n        /* \"--CODEGEN--\":27:28   */\n      0x00\n        /* \"--CODEGEN--\":24:25   */\n      dup1\n        /* \"--CODEGEN--\":17:29   */\n      revert\n        /* \"--CODEGEN--\":2:4   */\n    tag_319:\n        /* \"contracts/YunaswapV2Router02.sol\":984:1035  IYunaswapV2Factory(factory).getPair(tokenA, tokenB) */\n      pop\n      gas\n      staticcall\n      iszero\n        /* \"--CODEGEN--\":8:17   */\n      dup1\n        /* \"--CODEGEN--\":5:7   */\n      iszero\n      tag_321\n      jumpi\n        /* \"--CODEGEN--\":45:61   */\n      returndatasize\n        /* \"--CODEGEN--\":42:43   */\n      0x00\n        /* \"--CODEGEN--\":39:40   */\n      dup1\n        /* \"--CODEGEN--\":24:62   */\n      returndatacopy\n        /* \"--CODEGEN--\":77:93   */\n      returndatasize\n        /* \"--CODEGEN--\":74:75   */\n      0x00\n        /* \"--CODEGEN--\":67:94   */\n      revert\n        /* \"--CODEGEN--\":5:7   */\n    tag_321:\n        /* \"contracts/YunaswapV2Router02.sol\":984:1035  IYunaswapV2Factory(factory).getPair(tokenA, tokenB) */\n      pop\n      pop\n      pop\n      pop\n      mload(0x40)\n      returndatasize\n        /* \"--CODEGEN--\":15:17   */\n      0x20\n        /* \"--CODEGEN--\":10:13   */\n      dup2\n        /* \"--CODEGEN--\":7:18   */\n      lt\n        /* \"--CODEGEN--\":4:6   */\n      iszero\n      tag_322\n      jumpi\n        /* \"--CODEGEN--\":31:32   */\n      0x00\n        /* \"--CODEGEN--\":28:29   */\n      dup1\n        /* \"--CODEGEN--\":21:33   */\n      revert\n        /* \"--CODEGEN--\":4:6   */\n    tag_322:\n      pop\n        /* \"contracts/YunaswapV2Router02.sol\":984:1035  IYunaswapV2Factory(factory).getPair(tokenA, tokenB) */\n      mload\n      sub(shl(0xa0, 0x01), 0x01)\n        /* \"contracts/YunaswapV2Router02.sol\":984:1049  IYunaswapV2Factory(factory).getPair(tokenA, tokenB) == address(0) */\n      and\n      eq\n        /* \"contracts/YunaswapV2Router02.sol\":980:1130  if (IYunaswapV2Factory(factory).getPair(tokenA, tokenB) == address(0)) {... */\n      iszero\n      tag_323\n      jumpi\n        /* \"contracts/YunaswapV2Router02.sol\":1065:1119  IYunaswapV2Factory(factory).createPair(tokenA, tokenB) */\n      0x40\n      dup1\n      mload\n      shl(0xe1, 0x64e329cb)\n      dup2\n      mstore\n      sub(shl(0xa0, 0x01), 0x01)\n      dup11\n      dup2\n      and\n      0x04\n      dup4\n      add\n      mstore\n      dup10\n      dup2\n      and\n      0x24\n      dup4\n      add\n      mstore\n      swap2\n      mload\n        /* \"contracts/YunaswapV2Router02.sol\":1084:1091  factory */\n      immutable(\"0x277ab82e5a4641341820a4a2933a62c1de997e42e92548657ae21b3728d580fe\")\n        /* \"contracts/YunaswapV2Router02.sol\":1065:1103  IYunaswapV2Factory(factory).createPair */\n      swap1\n      swap3\n      and\n      swap2\n      0xc9c65396\n      swap2\n        /* \"contracts/YunaswapV2Router02.sol\":1065:1119  IYunaswapV2Factory(factory).createPair(tokenA, tokenB) */\n      0x44\n      dup1\n      dup3\n      add\n      swap3\n      0x20\n      swap3\n      swap1\n      swap2\n      swap1\n      dup3\n      swap1\n      sub\n      add\n      dup2\n      0x00\n        /* \"contracts/YunaswapV2Router02.sol\":1065:1103  IYunaswapV2Factory(factory).createPair */\n      dup8\n        /* \"contracts/YunaswapV2Router02.sol\":1065:1119  IYunaswapV2Factory(factory).createPair(tokenA, tokenB) */\n      dup1\n      extcodesize\n      iszero\n        /* \"--CODEGEN--\":2:4   */\n      dup1\n      iszero\n      tag_324\n      jumpi\n        /* \"--CODEGEN--\":27:28   */\n      0x00\n        /* \"--CODEGEN--\":24:25   */\n      dup1\n        /* \"--CODEGEN--\":17:29   */\n      revert\n        /* \"--CODEGEN--\":2:4   */\n    tag_324:\n        /* \"contracts/YunaswapV2Router02.sol\":1065:1119  IYunaswapV2Factory(factory).createPair(tokenA, tokenB) */\n      pop\n      gas\n      call\n      iszero\n        /* \"--CODEGEN--\":8:17   */\n      dup1\n        /* \"--CODEGEN--\":5:7   */\n      iszero\n      tag_326\n      jumpi\n        /* \"--CODEGEN--\":45:61   */\n      returndatasize\n        /* \"--CODEGEN--\":42:43   */\n      0x00\n        /* \"--CODEGEN--\":39:40   */\n      dup1\n        /* \"--CODEGEN--\":24:62   */\n      returndatacopy\n        /* \"--CODEGEN--\":77:93   */\n      returndatasize\n        /* \"--CODEGEN--\":74:75   */\n      0x00\n        /* \"--CODEGEN--\":67:94   */\n      revert\n        /* \"--CODEGEN--\":5:7   */\n    tag_326:\n        /* \"contracts/YunaswapV2Router02.sol\":1065:1119  IYunaswapV2Factory(factory).createPair(tokenA, tokenB) */\n      pop\n      pop\n      pop\n      pop\n      mload(0x40)\n      returndatasize\n        /* \"--CODEGEN--\":15:17   */\n      0x20\n        /* \"--CODEGEN--\":10:13   */\n      dup2\n        /* \"--CODEGEN--\":7:18   */\n      lt\n        /* \"--CODEGEN--\":4:6   */\n      iszero\n      tag_327\n      jumpi\n        /* \"--CODEGEN--\":31:32   */\n      0x00\n        /* \"--CODEGEN--\":28:29   */\n      dup1\n        /* \"--CODEGEN--\":21:33   */\n      revert\n        /* \"--CODEGEN--\":4:6   */\n    tag_327:\n      pop\n      pop\n        /* \"contracts/YunaswapV2Router02.sol\":980:1130  if (IYunaswapV2Factory(factory).getPair(tokenA, tokenB) == address(0)) {... */\n    tag_323:\n        /* \"contracts/YunaswapV2Router02.sol\":1140:1153  uint reserveA */\n      0x00\n        /* \"contracts/YunaswapV2Router02.sol\":1155:1168  uint reserveB */\n      dup1\n        /* \"contracts/YunaswapV2Router02.sol\":1172:1226  YunaswapV2Library.getReserves(factory, tokenA, tokenB) */\n      tag_328\n        /* \"contracts/YunaswapV2Router02.sol\":1202:1209  factory */\n      immutable(\"0x277ab82e5a4641341820a4a2933a62c1de997e42e92548657ae21b3728d580fe\")\n        /* \"contracts/YunaswapV2Router02.sol\":1211:1217  tokenA */\n      dup12\n        /* \"contracts/YunaswapV2Router02.sol\":1219:1225  tokenB */\n      dup12\n        /* \"contracts/YunaswapV2Router02.sol\":1172:1201  YunaswapV2Library.getReserves */\n      tag_205\n        /* \"contracts/YunaswapV2Router02.sol\":1172:1226  YunaswapV2Library.getReserves(factory, tokenA, tokenB) */\n      jump\t// in\n    tag_328:\n        /* \"contracts/YunaswapV2Router02.sol\":1139:1226  (uint reserveA, uint reserveB) = YunaswapV2Library.getReserves(factory, tokenA, tokenB) */\n      swap2\n      pop\n      swap2\n      pop\n        /* \"contracts/YunaswapV2Router02.sol\":1240:1248  reserveA */\n      dup2\n        /* \"contracts/YunaswapV2Router02.sol\":1252:1253  0 */\n      0x00\n        /* \"contracts/YunaswapV2Router02.sol\":1240:1253  reserveA == 0 */\n      eq\n        /* \"contracts/YunaswapV2Router02.sol\":1240:1270  reserveA == 0 && reserveB == 0 */\n      dup1\n      iszero\n      tag_329\n      jumpi\n      pop\n        /* \"contracts/YunaswapV2Router02.sol\":1257:1270  reserveB == 0 */\n      dup1\n      iszero\n        /* \"contracts/YunaswapV2Router02.sol\":1240:1270  reserveA == 0 && reserveB == 0 */\n    tag_329:\n        /* \"contracts/YunaswapV2Router02.sol\":1236:2044  if (reserveA == 0 && reserveB == 0) {... */\n      iszero\n      tag_330\n      jumpi\n        /* \"contracts/YunaswapV2Router02.sol\":1308:1322  amountADesired */\n      dup8\n      swap4\n      pop\n        /* \"contracts/YunaswapV2Router02.sol\":1324:1338  amountBDesired */\n      dup7\n      swap3\n      pop\n        /* \"contracts/YunaswapV2Router02.sol\":1236:2044  if (reserveA == 0 && reserveB == 0) {... */\n      jump(tag_331)\n    tag_330:\n        /* \"contracts/YunaswapV2Router02.sol\":1370:1389  uint amountBOptimal */\n      0x00\n        /* \"contracts/YunaswapV2Router02.sol\":1392:1451  YunaswapV2Library.quote(amountADesired, reserveA, reserveB) */\n      tag_332\n        /* \"contracts/YunaswapV2Router02.sol\":1416:1430  amountADesired */\n      dup10\n        /* \"contracts/YunaswapV2Router02.sol\":1432:1440  reserveA */\n      dup5\n        /* \"contracts/YunaswapV2Router02.sol\":1442:1450  reserveB */\n      dup5\n        /* \"contracts/YunaswapV2Router02.sol\":1392:1415  YunaswapV2Library.quote */\n      tag_150\n        /* \"contracts/YunaswapV2Router02.sol\":1392:1451  YunaswapV2Library.quote(amountADesired, reserveA, reserveB) */\n      jump\t// in\n    tag_332:\n        /* \"contracts/YunaswapV2Router02.sol\":1370:1451  uint amountBOptimal = YunaswapV2Library.quote(amountADesired, reserveA, reserveB) */\n      swap1\n      pop\n        /* \"contracts/YunaswapV2Router02.sol\":1487:1501  amountBDesired */\n      dup8\n        /* \"contracts/YunaswapV2Router02.sol\":1469:1483  amountBOptimal */\n      dup2\n        /* \"contracts/YunaswapV2Router02.sol\":1469:1501  amountBOptimal <= amountBDesired */\n      gt\n        /* \"contracts/YunaswapV2Router02.sol\":1465:2034  if (amountBOptimal <= amountBDesired) {... */\n      tag_333\n      jumpi\n        /* \"contracts/YunaswapV2Router02.sol\":1547:1557  amountBMin */\n      dup6\n        /* \"contracts/YunaswapV2Router02.sol\":1529:1543  amountBOptimal */\n      dup2\n        /* \"contracts/YunaswapV2Router02.sol\":1529:1557  amountBOptimal >= amountBMin */\n      lt\n      iszero\n        /* \"contracts/YunaswapV2Router02.sol\":1521:1601  require(amountBOptimal >= amountBMin, 'YunaswapV2Router: INSUFFICIENT_B_AMOUNT') */\n      tag_334\n      jumpi\n      mload(0x40)\n      shl(0xe5, 0x461bcd)\n      dup2\n      mstore\n      0x04\n      add\n      dup1\n      dup1\n      0x20\n      add\n      dup3\n      dup2\n      sub\n      dup3\n      mstore\n      0x27\n      dup2\n      mstore\n      0x20\n      add\n      dup1\n      data_a06bbffc7dfde7a24e4f18fcb5108f17127e2569ecfa9f8852337f73cdbe780c\n      0x27\n      swap2\n      codecopy\n      0x40\n      add\n      swap2\n      pop\n      pop\n      mload(0x40)\n      dup1\n      swap2\n      sub\n      swap1\n      revert\n    tag_334:\n        /* \"contracts/YunaswapV2Router02.sol\":1641:1655  amountADesired */\n      dup9\n      swap5\n      pop\n        /* \"contracts/YunaswapV2Router02.sol\":1657:1671  amountBOptimal */\n      swap3\n      pop\n      dup3\n        /* \"contracts/YunaswapV2Router02.sol\":1465:2034  if (amountBOptimal <= amountBDesired) {... */\n      jump(tag_335)\n    tag_333:\n        /* \"contracts/YunaswapV2Router02.sol\":1711:1730  uint amountAOptimal */\n      0x00\n        /* \"contracts/YunaswapV2Router02.sol\":1733:1792  YunaswapV2Library.quote(amountBDesired, reserveB, reserveA) */\n      tag_336\n        /* \"contracts/YunaswapV2Router02.sol\":1757:1771  amountBDesired */\n      dup10\n        /* \"contracts/YunaswapV2Router02.sol\":1773:1781  reserveB */\n      dup5\n        /* \"contracts/YunaswapV2Router02.sol\":1783:1791  reserveA */\n      dup7\n        /* \"contracts/YunaswapV2Router02.sol\":1733:1756  YunaswapV2Library.quote */\n      tag_150\n        /* \"contracts/YunaswapV2Router02.sol\":1733:1792  YunaswapV2Library.quote(amountBDesired, reserveB, reserveA) */\n      jump\t// in\n    tag_336:\n        /* \"contracts/YunaswapV2Router02.sol\":1711:1792  uint amountAOptimal = YunaswapV2Library.quote(amountBDesired, reserveB, reserveA) */\n      swap1\n      pop\n        /* \"contracts/YunaswapV2Router02.sol\":1835:1849  amountADesired */\n      dup10\n        /* \"contracts/YunaswapV2Router02.sol\":1817:1831  amountAOptimal */\n      dup2\n        /* \"contracts/YunaswapV2Router02.sol\":1817:1849  amountAOptimal <= amountADesired */\n      gt\n      iszero\n        /* \"contracts/YunaswapV2Router02.sol\":1810:1850  assert(amountAOptimal <= amountADesired) */\n      tag_337\n      jumpi\n      invalid\n    tag_337:\n        /* \"contracts/YunaswapV2Router02.sol\":1894:1904  amountAMin */\n      dup8\n        /* \"contracts/YunaswapV2Router02.sol\":1876:1890  amountAOptimal */\n      dup2\n        /* \"contracts/YunaswapV2Router02.sol\":1876:1904  amountAOptimal >= amountAMin */\n      lt\n      iszero\n        /* \"contracts/YunaswapV2Router02.sol\":1868:1948  require(amountAOptimal >= amountAMin, 'YunaswapV2Router: INSUFFICIENT_A_AMOUNT') */\n      tag_338\n      jumpi\n      mload(0x40)\n      shl(0xe5, 0x461bcd)\n      dup2\n      mstore\n      0x04\n      add\n      dup1\n      dup1\n      0x20\n      add\n      dup3\n      dup2\n      sub\n      dup3\n      mstore\n      0x27\n      dup2\n      mstore\n      0x20\n      add\n      dup1\n      data_3ced82d7ab12d564a58338444c355b538c8d8eab2ae415b1b4f2214791d7fca2\n      0x27\n      swap2\n      codecopy\n      0x40\n      add\n      swap2\n      pop\n      pop\n      mload(0x40)\n      dup1\n      swap2\n      sub\n      swap1\n      revert\n    tag_338:\n        /* \"contracts/YunaswapV2Router02.sol\":1988:2002  amountAOptimal */\n      swap5\n      pop\n        /* \"contracts/YunaswapV2Router02.sol\":2004:2018  amountBDesired */\n      dup8\n      swap4\n      pop\n        /* \"contracts/YunaswapV2Router02.sol\":1465:2034  if (amountBOptimal <= amountBDesired) {... */\n    tag_335:\n        /* \"contracts/YunaswapV2Router02.sol\":1236:2044  if (reserveA == 0 && reserveB == 0) {... */\n      pop\n    tag_331:\n        /* \"contracts/YunaswapV2Router02.sol\":680:2050  function _addLiquidity(... */\n      pop\n      pop\n      swap7\n      pop\n      swap7\n      swap5\n      pop\n      pop\n      pop\n      pop\n      pop\n      jump\t// out\n        /* \"contracts/libraries/SafeMath.sol\":454:594  function mul(uint x, uint y) internal pure returns (uint z) {... */\n    tag_188:\n        /* \"contracts/libraries/SafeMath.sol\":506:512  uint z */\n      0x00\n        /* \"contracts/libraries/SafeMath.sol\":532:538  y == 0 */\n      dup2\n      iszero\n      dup1\n        /* \"contracts/libraries/SafeMath.sol\":532:562  y == 0 || (z = x * y) / y == x */\n      tag_340\n      jumpi\n      pop\n      pop\n        /* \"contracts/libraries/SafeMath.sol\":547:552  x * y */\n      dup1\n      dup3\n      mul\n        /* \"contracts/libraries/SafeMath.sol\":561:562  x */\n      dup3\n        /* \"contracts/libraries/SafeMath.sol\":556:557  y */\n      dup3\n        /* \"contracts/libraries/SafeMath.sol\":547:552  x * y */\n      dup3\n        /* \"contracts/libraries/SafeMath.sol\":556:557  y */\n      dup2\n        /* \"contracts/libraries/SafeMath.sol\":542:557  (z = x * y) / y */\n      tag_341\n      jumpi\n      invalid\n    tag_341:\n      div\n        /* \"contracts/libraries/SafeMath.sol\":542:562  (z = x * y) / y == x */\n      eq\n        /* \"contracts/libraries/SafeMath.sol\":532:562  y == 0 || (z = x * y) / y == x */\n    tag_340:\n        /* \"contracts/libraries/SafeMath.sol\":524:587  require(y == 0 || (z = x * y) / y == x, 'ds-math-mul-overflow') */\n      tag_81\n      jumpi\n      0x40\n      dup1\n      mload\n      shl(0xe5, 0x461bcd)\n      dup2\n      mstore\n      0x20\n      0x04\n      dup3\n      add\n      mstore\n      0x14\n      0x24\n      dup3\n      add\n      mstore\n      shl(0x60, 0x64732d6d6174682d6d756c2d6f766572666c6f77)\n      0x44\n      dup3\n      add\n      mstore\n      swap1\n      mload\n      swap1\n      dup2\n      swap1\n      sub\n      0x64\n      add\n      swap1\n      revert\n        /* \"contracts/libraries/SafeMath.sol\":189:315  function add(uint x, uint y) internal pure returns (uint z) {... */\n    tag_192:\n        /* \"contracts/libraries/SafeMath.sol\":272:277  x + y */\n      dup1\n      dup3\n      add\n        /* \"contracts/libraries/SafeMath.sol\":267:283  (z = x + y) >= x */\n      dup3\n      dup2\n      lt\n      iszero\n        /* \"contracts/libraries/SafeMath.sol\":259:308  require((z = x + y) >= x, 'ds-math-add-overflow') */\n      tag_81\n      jumpi\n      0x40\n      dup1\n      mload\n      shl(0xe5, 0x461bcd)\n      dup2\n      mstore\n      0x20\n      0x04\n      dup3\n      add\n      mstore\n      0x14\n      0x24\n      dup3\n      add\n      mstore\n      shl(0x60, 0x64732d6d6174682d6164642d6f766572666c6f77)\n      0x44\n      dup3\n      add\n      mstore\n      swap1\n      mload\n      swap1\n      dup2\n      swap1\n      sub\n      0x64\n      add\n      swap1\n      revert\n        /* \"contracts/libraries/YunaswapV2Library.sol\":1262:1650  function getReserves(address factory, address tokenA, address tokenB) internal view returns (uint reserveA, uint reserveB) {... */\n    tag_205:\n        /* \"contracts/libraries/YunaswapV2Library.sol\":1355:1368  uint reserveA */\n      0x00\n        /* \"contracts/libraries/YunaswapV2Library.sol\":1370:1383  uint reserveB */\n      dup1\n        /* \"contracts/libraries/YunaswapV2Library.sol\":1396:1410  address token0 */\n      0x00\n        /* \"contracts/libraries/YunaswapV2Library.sol\":1415:1441  sortTokens(tokenA, tokenB) */\n      tag_346\n        /* \"contracts/libraries/YunaswapV2Library.sol\":1426:1432  tokenA */\n      dup6\n        /* \"contracts/libraries/YunaswapV2Library.sol\":1434:1440  tokenB */\n      dup6\n        /* \"contracts/libraries/YunaswapV2Library.sol\":1415:1425  sortTokens */\n      tag_164\n        /* \"contracts/libraries/YunaswapV2Library.sol\":1415:1441  sortTokens(tokenA, tokenB) */\n      jump\t// in\n    tag_346:\n        /* \"contracts/libraries/YunaswapV2Library.sol\":1395:1441  (address token0,) = sortTokens(tokenA, tokenB) */\n      pop\n      swap1\n      pop\n        /* \"contracts/libraries/YunaswapV2Library.sol\":1452:1465  uint reserve0 */\n      0x00\n        /* \"contracts/libraries/YunaswapV2Library.sol\":1467:1480  uint reserve1 */\n      dup1\n        /* \"contracts/libraries/YunaswapV2Library.sol\":1501:1533  pairFor(factory, tokenA, tokenB) */\n      tag_347\n        /* \"contracts/libraries/YunaswapV2Library.sol\":1509:1516  factory */\n      dup9\n        /* \"contracts/libraries/YunaswapV2Library.sol\":1518:1524  tokenA */\n      dup9\n        /* \"contracts/libraries/YunaswapV2Library.sol\":1526:1532  tokenB */\n      dup9\n        /* \"contracts/libraries/YunaswapV2Library.sol\":1501:1508  pairFor */\n      tag_86\n        /* \"contracts/libraries/YunaswapV2Library.sol\":1501:1533  pairFor(factory, tokenA, tokenB) */\n      jump\t// in\n    tag_347:\n      sub(shl(0xa0, 0x01), 0x01)\n        /* \"contracts/libraries/YunaswapV2Library.sol\":1485:1546  IYunaswapV2Pair(pairFor(factory, tokenA, tokenB)).getReserves */\n      and\n      0x0902f1ac\n        /* \"contracts/libraries/YunaswapV2Library.sol\":1485:1548  IYunaswapV2Pair(pairFor(factory, tokenA, tokenB)).getReserves() */\n      mload(0x40)\n      dup2\n      0xffffffff\n      and\n      0xe0\n      shl\n      dup2\n      mstore\n      0x04\n      add\n      0x60\n      mload(0x40)\n      dup1\n      dup4\n      sub\n      dup2\n      dup7\n      dup1\n      extcodesize\n      iszero\n        /* \"--CODEGEN--\":5:14   */\n      dup1\n        /* \"--CODEGEN--\":2:4   */\n      iszero\n      tag_348\n      jumpi\n        /* \"--CODEGEN--\":27:28   */\n      0x00\n        /* \"--CODEGEN--\":24:25   */\n      dup1\n        /* \"--CODEGEN--\":17:29   */\n      revert\n        /* \"--CODEGEN--\":2:4   */\n    tag_348:\n        /* \"contracts/libraries/YunaswapV2Library.sol\":1485:1548  IYunaswapV2Pair(pairFor(factory, tokenA, tokenB)).getReserves() */\n      pop\n      gas\n      staticcall\n      iszero\n        /* \"--CODEGEN--\":8:17   */\n      dup1\n        /* \"--CODEGEN--\":5:7   */\n      iszero\n      tag_350\n      jumpi\n        /* \"--CODEGEN--\":45:61   */\n      returndatasize\n        /* \"--CODEGEN--\":42:43   */\n      0x00\n        /* \"--CODEGEN--\":39:40   */\n      dup1\n        /* \"--CODEGEN--\":24:62   */\n      returndatacopy\n        /* \"--CODEGEN--\":77:93   */\n      returndatasize\n        /* \"--CODEGEN--\":74:75   */\n      0x00\n        /* \"--CODEGEN--\":67:94   */\n      revert\n        /* \"--CODEGEN--\":5:7   */\n    tag_350:\n        /* \"contracts/libraries/YunaswapV2Library.sol\":1485:1548  IYunaswapV2Pair(pairFor(factory, tokenA, tokenB)).getReserves() */\n      pop\n      pop\n      pop\n      pop\n      mload(0x40)\n      returndatasize\n        /* \"--CODEGEN--\":15:17   */\n      0x60\n        /* \"--CODEGEN--\":10:13   */\n      dup2\n        /* \"--CODEGEN--\":7:18   */\n      lt\n        /* \"--CODEGEN--\":4:6   */\n      iszero\n      tag_351\n      jumpi\n        /* \"--CODEGEN--\":31:32   */\n      0x00\n        /* \"--CODEGEN--\":28:29   */\n      dup1\n        /* \"--CODEGEN--\":21:33   */\n      revert\n        /* \"--CODEGEN--\":4:6   */\n    tag_351:\n      pop\n        /* \"contracts/libraries/YunaswapV2Library.sol\":1485:1548  IYunaswapV2Pair(pairFor(factory, tokenA, tokenB)).getReserves() */\n      dup1\n      mload\n      0x20\n      swap1\n      swap2\n      add\n      mload\n      sub(shl(0x70, 0x01), 0x01)\n        /* \"contracts/libraries/YunaswapV2Library.sol\":1451:1548  (uint reserve0, uint reserve1,) = IYunaswapV2Pair(pairFor(factory, tokenA, tokenB)).getReserves() */\n      swap2\n      dup3\n      and\n      swap4\n      pop\n      and\n      swap1\n      pop\n      sub(shl(0xa0, 0x01), 0x01)\n        /* \"contracts/libraries/YunaswapV2Library.sol\":1581:1597  tokenA == token0 */\n      dup8\n      dup2\n      and\n      swap1\n      dup5\n      and\n      eq\n        /* \"contracts/libraries/YunaswapV2Library.sol\":1581:1643  tokenA == token0 ? (reserve0, reserve1) : (reserve1, reserve0) */\n      tag_352\n      jumpi\n        /* \"contracts/libraries/YunaswapV2Library.sol\":1624:1632  reserve1 */\n      dup1\n        /* \"contracts/libraries/YunaswapV2Library.sol\":1634:1642  reserve0 */\n      dup3\n        /* \"contracts/libraries/YunaswapV2Library.sol\":1581:1643  tokenA == token0 ? (reserve0, reserve1) : (reserve1, reserve0) */\n      jump(tag_353)\n    tag_352:\n        /* \"contracts/libraries/YunaswapV2Library.sol\":1601:1609  reserve0 */\n      dup2\n        /* \"contracts/libraries/YunaswapV2Library.sol\":1611:1619  reserve1 */\n      dup2\n        /* \"contracts/libraries/YunaswapV2Library.sol\":1581:1643  tokenA == token0 ? (reserve0, reserve1) : (reserve1, reserve0) */\n    tag_353:\n        /* \"contracts/libraries/YunaswapV2Library.sol\":1558:1643  (reserveA, reserveB) = tokenA == token0 ? (reserve0, reserve1) : (reserve1, reserve0) */\n      swap1\n      swap10\n      swap1\n      swap9\n      pop\n        /* \"contracts/libraries/YunaswapV2Library.sol\":1262:1650  function getReserves(address factory, address tokenA, address tokenB) internal view returns (uint reserveA, uint reserveB) {... */\n      swap7\n      pop\n      pop\n      pop\n      pop\n      pop\n      pop\n      pop\n      jump\t// out\n    stop\n    data_3381990dcf2e2e734e03491d1c9a886b2ec985c8fc35f6af06111380c57721e3 59756e617377617056324c6962726172793a20494e53554646494349454e545f4c4951554944495459\n    data_3ced82d7ab12d564a58338444c355b538c8d8eab2ae415b1b4f2214791d7fca2 59756e61737761705632526f757465723a20494e53554646494349454e545f415f414d4f554e54\n    data_3f8faf98afe9344b6d4b0e75b0101259bf282914b3b5a9320c6918b6e27ede1c 5472616e7366657248656c7065723a3a7472616e7366657246726f6d3a207472616e7366657246726f6d206661696c6564\n    data_4642bc818b9f780fe2d230c4cc68ec38c4f0f49f46a080a8df7d2da39caa114b 59756e617377617056324c6962726172793a20494e53554646494349454e545f414d4f554e54\n    data_5e409a60e7ef2505443cee674a912db11b75b4ae6499bf82fe3d8b31520320fb 59756e617377617056324c6962726172793a20494e53554646494349454e545f494e5055545f414d4f554e54\n    data_92af7193719dac60ce8939df82d5b279902b5e706aa5410f4c5b12f634b6d59b 59756e617377617056324c6962726172793a20494e53554646494349454e545f4f55545055545f414d4f554e54\n    data_94702b7cb9c4ecfa144d890874b1a30d9ecd6dd7aa99e58c9a9702e3b0c4fec3 59756e61737761705632526f757465723a20494e53554646494349454e545f4f55545055545f414d4f554e54\n    data_a06bbffc7dfde7a24e4f18fcb5108f17127e2569ecfa9f8852337f73cdbe780c 59756e61737761705632526f757465723a20494e53554646494349454e545f425f414d4f554e54\n    data_c2c6a1e070684f55ca4d5fd0808ea33d2ae920dda3aaa29da9fd1a8a73f169c7 59756e61737761705632526f757465723a204558434553534956455f494e5055545f414d4f554e54\n    data_ecd1dfdaf7ff5a69399006cd48a1dadf4d115dfdebfff5e9ef7827430b45319c 59756e61737761705632526f757465723a204558504952454400000000000000\n    data_ee32e716aa6dcb4bbc31681cdb6f6e085ffe011aa3c423eba9eeee18ee9952fc 59756e617377617056324c6962726172793a204944454e544943414c5f414444524553534553\n\n    auxdata: 0xa2646970667358221220c28a2ff35b21393813e917fb2d80bd3f9cd614fd2fe9a17cdaa76bf9c1a220d464736f6c63430006060033\n}\n",
				"bytecode": {
					"linkReferences": {},
					"object": "60a060405234801561001057600080fd5b506040516124e23803806124e28339818101604052602081101561003357600080fd5b5051606081901b6001600160601b0319166080526001600160a01b031661242b6100b76000398061061052806106495280610784528061085b52806109875280610c0a5280610d135280610f0b5280610f345280610fbd52806116d6528061171952806118c45280611a435280611e785280611f265280611fa6525061242b6000f3fe608060405234801561001057600080fd5b50600436106100b45760003560e01c80638803dbee116100715780638803dbee146103b3578063ad615dec1461043c578063baa2abde14610465578063c45a0155146104b5578063d06ca61f146104d9578063e8e3370014610581576100b4565b8063054d50d4146100b95780631f00ca74146100f45780632195995c146101ec57806338ed1739146102765780635c11d795146102ff57806385f8c2591461038a575b600080fd5b6100e2600480360360608110156100cf57600080fd5b50803590602081013590604001356105f4565b60408051918252519081900360200190f35b61019c6004803603604081101561010a57600080fd5b81359190810190604081016020820135600160201b81111561012b57600080fd5b82018360208201111561013d57600080fd5b803590602001918460208302840111600160201b8311171561015e57600080fd5b919080806020026020016040519081016040528093929190818152602001838360200280828437600092019190915250929550610609945050505050565b60408051602080825283518183015283519192839290830191858101910280838360005b838110156101d85781810151838201526020016101c0565b505050509050019250505060405180910390f35b61025d600480360361016081101561020357600080fd5b506001600160a01b038135811691602081013582169160408201359160608101359160808201359160a08101359091169060c08101359060e081013515159060ff610100820135169061012081013590610140013561063f565b6040805192835260208301919091528051918290030190f35b61019c600480360360a081101561028c57600080fd5b813591602081013591810190606081016040820135600160201b8111156102b257600080fd5b8201836020820111156102c457600080fd5b803590602001918460208302840111600160201b831117156102e557600080fd5b91935091506001600160a01b038135169060200135610739565b610388600480360360a081101561031557600080fd5b813591602081013591810190606081016040820135600160201b81111561033b57600080fd5b82018360208201111561034d57600080fd5b803590602001918460208302840111600160201b8311171561036e57600080fd5b91935091506001600160a01b03813516906020013561091d565b005b6100e2600480360360608110156103a057600080fd5b5080359060208101359060400135610bb2565b61019c600480360360a08110156103c957600080fd5b813591602081013591810190606081016040820135600160201b8111156103ef57600080fd5b82018360208201111561040157600080fd5b803590602001918460208302840111600160201b8311171561042257600080fd5b91935091506001600160a01b038135169060200135610bbf565b6100e26004803603606081101561045257600080fd5b5080359060208101359060400135610cb8565b61025d600480360360e081101561047b57600080fd5b506001600160a01b038135811691602081013582169160408201359160608101359160808201359160a08101359091169060c00135610cc5565b6104bd610f09565b604080516001600160a01b039092168252519081900360200190f35b61019c600480360360408110156104ef57600080fd5b81359190810190604081016020820135600160201b81111561051057600080fd5b82018360208201111561052257600080fd5b803590602001918460208302840111600160201b8311171561054357600080fd5b919080806020026020016040519081016040528093929190818152602001838360200280828437600092019190915250929550610f2d945050505050565b6105d6600480360361010081101561059857600080fd5b506001600160a01b038135811691602081013582169160408201359160608101359160808201359160a08101359160c0820135169060e00135610f5a565b60408051938452602084019290925282820152519081900360600190f35b6000610601848484611096565b949350505050565b60606106367f00000000000000000000000000000000000000000000000000000000000000008484611186565b90505b92915050565b600080600061066f7f00000000000000000000000000000000000000000000000000000000000000008f8f6112d3565b905060008761067e578c610682565b6000195b6040805163d505accf60e01b815233600482015230602482015260448101839052606481018c905260ff8a16608482015260a4810189905260c4810188905290519192506001600160a01b0384169163d505accf9160e48082019260009290919082900301818387803b1580156106f857600080fd5b505af115801561070c573d6000803e3d6000fd5b5050505061071f8f8f8f8f8f8f8f610cc5565b809450819550505050509b509b9950505050505050505050565b6060814281101561077f576040805162461bcd60e51b815260206004820152601960248201526000805160206123b0833981519152604482015290519081900360640190fd5b6107dd7f00000000000000000000000000000000000000000000000000000000000000008988888080602002602001604051908101604052809392919081815260200183836020028082843760009201919091525061139392505050565b915086826001845103815181106107f057fe5b602002602001015110156108355760405162461bcd60e51b815260040180806020018281038252602c815260200180612335602c913960400191505060405180910390fd5b6108d38686600081811061084557fe5b905060200201356001600160a01b0316336108b97f00000000000000000000000000000000000000000000000000000000000000008a8a600081811061088757fe5b905060200201356001600160a01b03168b8b60018181106108a457fe5b905060200201356001600160a01b03166112d3565b856000815181106108c657fe5b60200260200101516114ca565b61091282878780806020026020016040519081016040528093929190818152602001838360200280828437600092019190915250899250611627915050565b509695505050505050565b8042811015610961576040805162461bcd60e51b815260206004820152601960248201526000805160206123b0833981519152604482015290519081900360640190fd5b6109d68585600081811061097157fe5b905060200201356001600160a01b0316336109d07f0000000000000000000000000000000000000000000000000000000000000000898960008181106109b357fe5b905060200201356001600160a01b03168a8a60018181106108a457fe5b8a6114ca565b6000858560001981018181106109e857fe5b905060200201356001600160a01b03166001600160a01b03166370a08231856040518263ffffffff1660e01b815260040180826001600160a01b03166001600160a01b0316815260200191505060206040518083038186803b158015610a4d57600080fd5b505afa158015610a61573d6000803e3d6000fd5b505050506040513d6020811015610a7757600080fd5b50516040805160208881028281018201909352888252929350610ab992909189918991829185019084908082843760009201919091525088925061186d915050565b86610b6b8288886000198101818110610ace57fe5b905060200201356001600160a01b03166001600160a01b03166370a08231886040518263ffffffff1660e01b815260040180826001600160a01b03166001600160a01b0316815260200191505060206040518083038186803b158015610b3357600080fd5b505afa158015610b47573d6000803e3d6000fd5b505050506040513d6020811015610b5d57600080fd5b50519063ffffffff611b7d16565b1015610ba85760405162461bcd60e51b815260040180806020018281038252602c815260200180612335602c913960400191505060405180910390fd5b5050505050505050565b6000610601848484611bcd565b60608142811015610c05576040805162461bcd60e51b815260206004820152601960248201526000805160206123b0833981519152604482015290519081900360640190fd5b610c637f00000000000000000000000000000000000000000000000000000000000000008988888080602002602001604051908101604052809392919081815260200183836020028082843760009201919091525061118692505050565b91508682600081518110610c7357fe5b602002602001015111156108355760405162461bcd60e51b81526004018080602001828103825260288152602001806123886028913960400191505060405180910390fd5b6000610601848484611cbd565b6000808242811015610d0c576040805162461bcd60e51b815260206004820152601960248201526000805160206123b0833981519152604482015290519081900360640190fd5b6000610d397f00000000000000000000000000000000000000000000000000000000000000008c8c6112d3565b604080516323b872dd60e01b81523360048201526001600160a01b03831660248201819052604482018d9052915192935090916323b872dd916064808201926020929091908290030181600087803b158015610d9457600080fd5b505af1158015610da8573d6000803e3d6000fd5b505050506040513d6020811015610dbe57600080fd5b50506040805163226bf2d160e21b81526001600160a01b03888116600483015282516000938493928616926389afcb44926024808301939282900301818787803b158015610e0b57600080fd5b505af1158015610e1f573d6000803e3d6000fd5b505050506040513d6040811015610e3557600080fd5b50805160209091015190925090506000610e4f8e8e611d69565b509050806001600160a01b03168e6001600160a01b031614610e72578183610e75565b82825b90975095508a871015610eb95760405162461bcd60e51b815260040180806020018281038252602781526020018061225e6027913960400191505060405180910390fd5b89861015610ef85760405162461bcd60e51b81526004018080602001828103825260278152602001806123616027913960400191505060405180910390fd5b505050505097509795505050505050565b7f000000000000000000000000000000000000000000000000000000000000000081565b60606106367f00000000000000000000000000000000000000000000000000000000000000008484611393565b60008060008342811015610fa3576040805162461bcd60e51b815260206004820152601960248201526000805160206123b0833981519152604482015290519081900360640190fd5b610fb18c8c8c8c8c8c611e47565b90945092506000610fe37f00000000000000000000000000000000000000000000000000000000000000008e8e6112d3565b9050610ff18d3383886114ca565b610ffd8c3383876114ca565b806001600160a01b0316636a627842886040518263ffffffff1660e01b815260040180826001600160a01b03166001600160a01b03168152602001915050602060405180830381600087803b15801561105557600080fd5b505af1158015611069573d6000803e3d6000fd5b505050506040513d602081101561107f57600080fd5b5051949d939c50939a509198505050505050505050565b60008084116110d65760405162461bcd60e51b815260040180806020018281038252602c8152602001806122dc602c913960400191505060405180910390fd5b6000831180156110e65750600082115b6111215760405162461bcd60e51b81526004018080602001828103825260298152602001806122356029913960400191505060405180910390fd5b6000611135856103e563ffffffff6120bb16565b90506000611149828563ffffffff6120bb16565b9050600061116f83611163886103e863ffffffff6120bb16565b9063ffffffff61211e16565b905080828161117a57fe5b04979650505050505050565b60606002825110156111df576040805162461bcd60e51b815260206004820152601f60248201527f59756e617377617056324c6962726172793a20494e56414c49445f5041544800604482015290519081900360640190fd5b815167ffffffffffffffff811180156111f757600080fd5b50604051908082528060200260200182016040528015611221578160200160208202803683370190505b509050828160018351038151811061123557fe5b60209081029190910101528151600019015b80156112cb576000806112848786600186038151811061126357fe5b602002602001015187868151811061127757fe5b602002602001015161216d565b915091506112a684848151811061129757fe5b60200260200101518383611bcd565b8460018503815181106112b557fe5b6020908102919091010152505060001901611247565b509392505050565b60008060006112e28585611d69565b604080516bffffffffffffffffffffffff19606094851b811660208084019190915293851b81166034830152825160288184030181526048830184528051908501206001600160f81b031960688401529a90941b9093166069840152607d8301989098527f6e034e1b470957cc86fd7c254efaae678f0f8c5765ec290eacaed28f43bbf715609d808401919091528851808403909101815260bd909201909752805196019590952095945050505050565b60606002825110156113ec576040805162461bcd60e51b815260206004820152601f60248201527f59756e617377617056324c6962726172793a20494e56414c49445f5041544800604482015290519081900360640190fd5b815167ffffffffffffffff8111801561140457600080fd5b5060405190808252806020026020018201604052801561142e578160200160208202803683370190505b509050828160008151811061143f57fe5b60200260200101818152505060005b60018351038110156112cb576000806114848786858151811061146d57fe5b602002602001015187866001018151811061127757fe5b915091506114a684848151811061149757fe5b60200260200101518383611096565b8484600101815181106114b557fe5b6020908102919091010152505060010161144e565b604080516001600160a01b0385811660248301528481166044830152606480830185905283518084039091018152608490920183526020820180516001600160e01b03166323b872dd60e01b17815292518251600094606094938a169392918291908083835b6020831061154f5780518252601f199092019160209182019101611530565b6001836020036101000a0380198251168184511680821785525050505050509050019150506000604051808303816000865af19150503d80600081146115b1576040519150601f19603f3d011682016040523d82523d6000602084013e6115b6565b606091505b50915091508180156115e45750805115806115e457508080602001905160208110156115e157600080fd5b50515b61161f5760405162461bcd60e51b81526004018080602001828103825260318152602001806122856031913960400191505060405180910390fd5b505050505050565b60005b60018351038110156118675760008084838151811061164557fe5b602002602001015185846001018151811061165c57fe5b60200260200101519150915060006116748383611d69565b509050600087856001018151811061168857fe5b60200260200101519050600080836001600160a01b0316866001600160a01b0316146116b6578260006116ba565b6000835b91509150600060028a510388106116d15788611712565b6117127f0000000000000000000000000000000000000000000000000000000000000000878c8b6002018151811061170557fe5b60200260200101516112d3565b905061173f7f000000000000000000000000000000000000000000000000000000000000000088886112d3565b6001600160a01b031663022c0d9f84848460006040519080825280601f01601f19166020018201604052801561177c576020820181803683370190505b506040518563ffffffff1660e01b815260040180858152602001848152602001836001600160a01b03166001600160a01b0316815260200180602001828103825283818151815260200191508051906020019080838360005b838110156117ed5781810151838201526020016117d5565b50505050905090810190601f16801561181a5780820380516001836020036101000a031916815260200191505b5095505050505050600060405180830381600087803b15801561183c57600080fd5b505af1158015611850573d6000803e3d6000fd5b50506001909901985061162a975050505050505050565b50505050565b60005b6001835103811015611b785760008084838151811061188b57fe5b60200260200101518584600101815181106118a257fe5b60200260200101519150915060006118ba8383611d69565b50905060006118ea7f000000000000000000000000000000000000000000000000000000000000000085856112d3565b9050600080600080846001600160a01b0316630902f1ac6040518163ffffffff1660e01b815260040160606040518083038186803b15801561192b57600080fd5b505afa15801561193f573d6000803e3d6000fd5b505050506040513d606081101561195557600080fd5b5080516020909101516001600160701b0391821693501690506000806001600160a01b038a81169089161461198b57828461198e565b83835b915091506119ec828b6001600160a01b03166370a082318a6040518263ffffffff1660e01b815260040180826001600160a01b03166001600160a01b0316815260200191505060206040518083038186803b158015610b3357600080fd5b95506119f9868383611096565b945050505050600080856001600160a01b0316886001600160a01b031614611a2357826000611a27565b6000835b91509150600060028c51038a10611a3e578a611a72565b611a727f0000000000000000000000000000000000000000000000000000000000000000898e8d6002018151811061170557fe5b604080516000808252602082019283905263022c0d9f60e01b835260248201878152604483018790526001600160a01b038086166064850152608060848501908152845160a48601819052969750908c169563022c0d9f958a958a958a9591949193919260c486019290918190849084905b83811015611afc578181015183820152602001611ae4565b50505050905090810190601f168015611b295780820380516001836020036101000a031916815260200191505b5095505050505050600060405180830381600087803b158015611b4b57600080fd5b505af1158015611b5f573d6000803e3d6000fd5b50506001909b019a506118709950505050505050505050565b505050565b80820382811115610639576040805162461bcd60e51b815260206004820152601560248201527464732d6d6174682d7375622d756e646572666c6f7760581b604482015290519081900360640190fd5b6000808411611c0d5760405162461bcd60e51b815260040180806020018281038252602d815260200180612308602d913960400191505060405180910390fd5b600083118015611c1d5750600082115b611c585760405162461bcd60e51b81526004018080602001828103825260298152602001806122356029913960400191505060405180910390fd5b6000611c7c6103e8611c70868863ffffffff6120bb16565b9063ffffffff6120bb16565b90506000611c966103e5611c70868963ffffffff611b7d16565b9050611cb36001828481611ca657fe5b049063ffffffff61211e16565b9695505050505050565b6000808411611cfd5760405162461bcd60e51b81526004018080602001828103825260268152602001806122b66026913960400191505060405180910390fd5b600083118015611d0d5750600082115b611d485760405162461bcd60e51b81526004018080602001828103825260298152602001806122356029913960400191505060405180910390fd5b82611d59858463ffffffff6120bb16565b81611d6057fe5b04949350505050565b600080826001600160a01b0316846001600160a01b03161415611dbd5760405162461bcd60e51b81526004018080602001828103825260268152602001806123d06026913960400191505060405180910390fd5b826001600160a01b0316846001600160a01b031610611ddd578284611de0565b83835b90925090506001600160a01b038216611e40576040805162461bcd60e51b815260206004820152601f60248201527f59756e617377617056324c6962726172793a205a45524f5f4144445245535300604482015290519081900360640190fd5b9250929050565b6040805163e6a4390560e01b81526001600160a01b03888116600483015287811660248301529151600092839283927f00000000000000000000000000000000000000000000000000000000000000009092169163e6a4390591604480820192602092909190829003018186803b158015611ec157600080fd5b505afa158015611ed5573d6000803e3d6000fd5b505050506040513d6020811015611eeb57600080fd5b50516001600160a01b03161415611f9e57604080516364e329cb60e11b81526001600160a01b038a81166004830152898116602483015291517f00000000000000000000000000000000000000000000000000000000000000009092169163c9c65396916044808201926020929091908290030181600087803b158015611f7157600080fd5b505af1158015611f85573d6000803e3d6000fd5b505050506040513d6020811015611f9b57600080fd5b50505b600080611fcc7f00000000000000000000000000000000000000000000000000000000000000008b8b61216d565b91509150816000148015611fde575080155b15611fee578793508692506120ae565b6000611ffb898484611cbd565b905087811161204e57858110156120435760405162461bcd60e51b81526004018080602001828103825260278152602001806123616027913960400191505060405180910390fd5b8894509250826120ac565b600061205b898486611cbd565b90508981111561206757fe5b878110156120a65760405162461bcd60e51b815260040180806020018281038252602781526020018061225e6027913960400191505060405180910390fd5b94508793505b505b5050965096945050505050565b60008115806120d6575050808202828282816120d357fe5b04145b610639576040805162461bcd60e51b815260206004820152601460248201527364732d6d6174682d6d756c2d6f766572666c6f7760601b604482015290519081900360640190fd5b80820182811015610639576040805162461bcd60e51b815260206004820152601460248201527364732d6d6174682d6164642d6f766572666c6f7760601b604482015290519081900360640190fd5b600080600061217c8585611d69565b50905060008061218d8888886112d3565b6001600160a01b0316630902f1ac6040518163ffffffff1660e01b815260040160606040518083038186803b1580156121c557600080fd5b505afa1580156121d9573d6000803e3d6000fd5b505050506040513d60608110156121ef57600080fd5b5080516020909101516001600160701b0391821693501690506001600160a01b0387811690841614612222578082612225565b81815b9099909850965050505050505056fe59756e617377617056324c6962726172793a20494e53554646494349454e545f4c495155494449545959756e61737761705632526f757465723a20494e53554646494349454e545f415f414d4f554e545472616e7366657248656c7065723a3a7472616e7366657246726f6d3a207472616e7366657246726f6d206661696c656459756e617377617056324c6962726172793a20494e53554646494349454e545f414d4f554e5459756e617377617056324c6962726172793a20494e53554646494349454e545f494e5055545f414d4f554e5459756e617377617056324c6962726172793a20494e53554646494349454e545f4f55545055545f414d4f554e5459756e61737761705632526f757465723a20494e53554646494349454e545f4f55545055545f414d4f554e5459756e61737761705632526f757465723a20494e53554646494349454e545f425f414d4f554e5459756e61737761705632526f757465723a204558434553534956455f494e5055545f414d4f554e5459756e61737761705632526f757465723a20455850495245440000000000000059756e617377617056324c6962726172793a204944454e544943414c5f414444524553534553a2646970667358221220c28a2ff35b21393813e917fb2d80bd3f9cd614fd2fe9a17cdaa76bf9c1a220d464736f6c63430006060033",
					"opcodes": "PUSH1 0xA0 PUSH1 0x40 MSTORE CALLVALUE DUP1 ISZERO PUSH2 0x10 JUMPI PUSH1 0x0 DUP1 REVERT JUMPDEST POP PUSH1 0x40 MLOAD PUSH2 0x24E2 CODESIZE SUB DUP1 PUSH2 0x24E2 DUP4 CODECOPY DUP2 DUP2 ADD PUSH1 0x40 MSTORE PUSH1 0x20 DUP2 LT ISZERO PUSH2 0x33 JUMPI PUSH1 0x0 DUP1 REVERT JUMPDEST POP MLOAD PUSH1 0x60 DUP2 SWAP1 SHL PUSH1 0x1 PUSH1 0x1 PUSH1 0x60 SHL SUB NOT AND PUSH1 0x80 MSTORE PUSH1 0x1 PUSH1 0x1 PUSH1 0xA0 SHL SUB AND PUSH2 0x242B PUSH2 0xB7 PUSH1 0x0 CODECOPY DUP1 PUSH2 0x610 MSTORE DUP1 PUSH2 0x649 MSTORE DUP1 PUSH2 0x784 MSTORE DUP1 PUSH2 0x85B MSTORE DUP1 PUSH2 0x987 MSTORE DUP1 PUSH2 0xC0A MSTORE DUP1 PUSH2 0xD13 MSTORE DUP1 PUSH2 0xF0B MSTORE DUP1 PUSH2 0xF34 MSTORE DUP1 PUSH2 0xFBD MSTORE DUP1 PUSH2 0x16D6 MSTORE DUP1 PUSH2 0x1719 MSTORE DUP1 PUSH2 0x18C4 MSTORE DUP1 PUSH2 0x1A43 MSTORE DUP1 PUSH2 0x1E78 MSTORE DUP1 PUSH2 0x1F26 MSTORE DUP1 PUSH2 0x1FA6 MSTORE POP PUSH2 0x242B PUSH1 0x0 RETURN INVALID PUSH1 0x80 PUSH1 0x40 MSTORE CALLVALUE DUP1 ISZERO PUSH2 0x10 JUMPI PUSH1 0x0 DUP1 REVERT JUMPDEST POP PUSH1 0x4 CALLDATASIZE LT PUSH2 0xB4 JUMPI PUSH1 0x0 CALLDATALOAD PUSH1 0xE0 SHR DUP1 PUSH4 0x8803DBEE GT PUSH2 0x71 JUMPI DUP1 PUSH4 0x8803DBEE EQ PUSH2 0x3B3 JUMPI DUP1 PUSH4 0xAD615DEC EQ PUSH2 0x43C JUMPI DUP1 PUSH4 0xBAA2ABDE EQ PUSH2 0x465 JUMPI DUP1 PUSH4 0xC45A0155 EQ PUSH2 0x4B5 JUMPI DUP1 PUSH4 0xD06CA61F EQ PUSH2 0x4D9 JUMPI DUP1 PUSH4 0xE8E33700 EQ PUSH2 0x581 JUMPI PUSH2 0xB4 JUMP JUMPDEST DUP1 PUSH4 0x54D50D4 EQ PUSH2 0xB9 JUMPI DUP1 PUSH4 0x1F00CA74 EQ PUSH2 0xF4 JUMPI DUP1 PUSH4 0x2195995C EQ PUSH2 0x1EC JUMPI DUP1 PUSH4 0x38ED1739 EQ PUSH2 0x276 JUMPI DUP1 PUSH4 0x5C11D795 EQ PUSH2 0x2FF JUMPI DUP1 PUSH4 0x85F8C259 EQ PUSH2 0x38A JUMPI JUMPDEST PUSH1 0x0 DUP1 REVERT JUMPDEST PUSH2 0xE2 PUSH1 0x4 DUP1 CALLDATASIZE SUB PUSH1 0x60 DUP2 LT ISZERO PUSH2 0xCF JUMPI PUSH1 0x0 DUP1 REVERT JUMPDEST POP DUP1 CALLDATALOAD SWAP1 PUSH1 0x20 DUP2 ADD CALLDATALOAD SWAP1 PUSH1 0x40 ADD CALLDATALOAD PUSH2 0x5F4 JUMP JUMPDEST PUSH1 0x40 DUP1 MLOAD SWAP2 DUP3 MSTORE MLOAD SWAP1 DUP2 SWAP1 SUB PUSH1 0x20 ADD SWAP1 RETURN JUMPDEST PUSH2 0x19C PUSH1 0x4 DUP1 CALLDATASIZE SUB PUSH1 0x40 DUP2 LT ISZERO PUSH2 0x10A JUMPI PUSH1 0x0 DUP1 REVERT JUMPDEST DUP2 CALLDATALOAD SWAP2 SWAP1 DUP2 ADD SWAP1 PUSH1 0x40 DUP2 ADD PUSH1 0x20 DUP3 ADD CALLDATALOAD PUSH1 0x1 PUSH1 0x20 SHL DUP2 GT ISZERO PUSH2 0x12B JUMPI PUSH1 0x0 DUP1 REVERT JUMPDEST DUP3 ADD DUP4 PUSH1 0x20 DUP3 ADD GT ISZERO PUSH2 0x13D JUMPI PUSH1 0x0 DUP1 REVERT JUMPDEST DUP1 CALLDATALOAD SWAP1 PUSH1 0x20 ADD SWAP2 DUP5 PUSH1 0x20 DUP4 MUL DUP5 ADD GT PUSH1 0x1 PUSH1 0x20 SHL DUP4 GT OR ISZERO PUSH2 0x15E JUMPI PUSH1 0x0 DUP1 REVERT JUMPDEST SWAP2 SWAP1 DUP1 DUP1 PUSH1 0x20 MUL PUSH1 0x20 ADD PUSH1 0x40 MLOAD SWAP1 DUP2 ADD PUSH1 0x40 MSTORE DUP1 SWAP4 SWAP3 SWAP2 SWAP1 DUP2 DUP2 MSTORE PUSH1 0x20 ADD DUP4 DUP4 PUSH1 0x20 MUL DUP1 DUP3 DUP5 CALLDATACOPY PUSH1 0x0 SWAP3 ADD SWAP2 SWAP1 SWAP2 MSTORE POP SWAP3 SWAP6 POP PUSH2 0x609 SWAP5 POP POP POP POP POP JUMP JUMPDEST PUSH1 0x40 DUP1 MLOAD PUSH1 0x20 DUP1 DUP3 MSTORE DUP4 MLOAD DUP2 DUP4 ADD MSTORE DUP4 MLOAD SWAP2 SWAP3 DUP4 SWAP3 SWAP1 DUP4 ADD SWAP2 DUP6 DUP2 ADD SWAP2 MUL DUP1 DUP4 DUP4 PUSH1 0x0 JUMPDEST DUP4 DUP2 LT ISZERO PUSH2 0x1D8 JUMPI DUP2 DUP2 ADD MLOAD DUP4 DUP3 ADD MSTORE PUSH1 0x20 ADD PUSH2 0x1C0 JUMP JUMPDEST POP POP POP POP SWAP1 POP ADD SWAP3 POP POP POP PUSH1 0x40 MLOAD DUP1 SWAP2 SUB SWAP1 RETURN JUMPDEST PUSH2 0x25D PUSH1 0x4 DUP1 CALLDATASIZE SUB PUSH2 0x160 DUP2 LT ISZERO PUSH2 0x203 JUMPI PUSH1 0x0 DUP1 REVERT JUMPDEST POP PUSH1 0x1 PUSH1 0x1 PUSH1 0xA0 SHL SUB DUP2 CALLDATALOAD DUP2 AND SWAP2 PUSH1 0x20 DUP2 ADD CALLDATALOAD DUP3 AND SWAP2 PUSH1 0x40 DUP3 ADD CALLDATALOAD SWAP2 PUSH1 0x60 DUP2 ADD CALLDATALOAD SWAP2 PUSH1 0x80 DUP3 ADD CALLDATALOAD SWAP2 PUSH1 0xA0 DUP2 ADD CALLDATALOAD SWAP1 SWAP2 AND SWAP1 PUSH1 0xC0 DUP2 ADD CALLDATALOAD SWAP1 PUSH1 0xE0 DUP2 ADD CALLDATALOAD ISZERO ISZERO SWAP1 PUSH1 0xFF PUSH2 0x100 DUP3 ADD CALLDATALOAD AND SWAP1 PUSH2 0x120 DUP2 ADD CALLDATALOAD SWAP1 PUSH2 0x140 ADD CALLDATALOAD PUSH2 0x63F JUMP JUMPDEST PUSH1 0x40 DUP1 MLOAD SWAP3 DUP4 MSTORE PUSH1 0x20 DUP4 ADD SWAP2 SWAP1 SWAP2 MSTORE DUP1 MLOAD SWAP2 DUP3 SWAP1 SUB ADD SWAP1 RETURN JUMPDEST PUSH2 0x19C PUSH1 0x4 DUP1 CALLDATASIZE SUB PUSH1 0xA0 DUP2 LT ISZERO PUSH2 0x28C JUMPI PUSH1 0x0 DUP1 REVERT JUMPDEST DUP2 CALLDATALOAD SWAP2 PUSH1 0x20 DUP2 ADD CALLDATALOAD SWAP2 DUP2 ADD SWAP1 PUSH1 0x60 DUP2 ADD PUSH1 0x40 DUP3 ADD CALLDATALOAD PUSH1 0x1 PUSH1 0x20 SHL DUP2 GT ISZERO PUSH2 0x2B2 JUMPI PUSH1 0x0 DUP1 REVERT JUMPDEST DUP3 ADD DUP4 PUSH1 0x20 DUP3 ADD GT ISZERO PUSH2 0x2C4 JUMPI PUSH1 0x0 DUP1 REVERT JUMPDEST DUP1 CALLDATALOAD SWAP1 PUSH1 0x20 ADD SWAP2 DUP5 PUSH1 0x20 DUP4 MUL DUP5 ADD GT PUSH1 0x1 PUSH1 0x20 SHL DUP4 GT OR ISZERO PUSH2 0x2E5 JUMPI PUSH1 0x0 DUP1 REVERT JUMPDEST SWAP2 SWAP4 POP SWAP2 POP PUSH1 0x1 PUSH1 0x1 PUSH1 0xA0 SHL SUB DUP2 CALLDATALOAD AND SWAP1 PUSH1 0x20 ADD CALLDATALOAD PUSH2 0x739 JUMP JUMPDEST PUSH2 0x388 PUSH1 0x4 DUP1 CALLDATASIZE SUB PUSH1 0xA0 DUP2 LT ISZERO PUSH2 0x315 JUMPI PUSH1 0x0 DUP1 REVERT JUMPDEST DUP2 CALLDATALOAD SWAP2 PUSH1 0x20 DUP2 ADD CALLDATALOAD SWAP2 DUP2 ADD SWAP1 PUSH1 0x60 DUP2 ADD PUSH1 0x40 DUP3 ADD CALLDATALOAD PUSH1 0x1 PUSH1 0x20 SHL DUP2 GT ISZERO PUSH2 0x33B JUMPI PUSH1 0x0 DUP1 REVERT JUMPDEST DUP3 ADD DUP4 PUSH1 0x20 DUP3 ADD GT ISZERO PUSH2 0x34D JUMPI PUSH1 0x0 DUP1 REVERT JUMPDEST DUP1 CALLDATALOAD SWAP1 PUSH1 0x20 ADD SWAP2 DUP5 PUSH1 0x20 DUP4 MUL DUP5 ADD GT PUSH1 0x1 PUSH1 0x20 SHL DUP4 GT OR ISZERO PUSH2 0x36E JUMPI PUSH1 0x0 DUP1 REVERT JUMPDEST SWAP2 SWAP4 POP SWAP2 POP PUSH1 0x1 PUSH1 0x1 PUSH1 0xA0 SHL SUB DUP2 CALLDATALOAD AND SWAP1 PUSH1 0x20 ADD CALLDATALOAD PUSH2 0x91D JUMP JUMPDEST STOP JUMPDEST PUSH2 0xE2 PUSH1 0x4 DUP1 CALLDATASIZE SUB PUSH1 0x60 DUP2 LT ISZERO PUSH2 0x3A0 JUMPI PUSH1 0x0 DUP1 REVERT JUMPDEST POP DUP1 CALLDATALOAD SWAP1 PUSH1 0x20 DUP2 ADD CALLDATALOAD SWAP1 PUSH1 0x40 ADD CALLDATALOAD PUSH2 0xBB2 JUMP JUMPDEST PUSH2 0x19C PUSH1 0x4 DUP1 CALLDATASIZE SUB PUSH1 0xA0 DUP2 LT ISZERO PUSH2 0x3C9 JUMPI PUSH1 0x0 DUP1 REVERT JUMPDEST DUP2 CALLDATALOAD SWAP2 PUSH1 0x20 DUP2 ADD CALLDATALOAD SWAP2 DUP2 ADD SWAP1 PUSH1 0x60 DUP2 ADD PUSH1 0x40 DUP3 ADD CALLDATALOAD PUSH1 0x1 PUSH1 0x20 SHL DUP2 GT ISZERO PUSH2 0x3EF JUMPI PUSH1 0x0 DUP1 REVERT JUMPDEST DUP3 ADD DUP4 PUSH1 0x20 DUP3 ADD GT ISZERO PUSH2 0x401 JUMPI PUSH1 0x0 DUP1 REVERT JUMPDEST DUP1 CALLDATALOAD SWAP1 PUSH1 0x20 ADD SWAP2 DUP5 PUSH1 0x20 DUP4 MUL DUP5 ADD GT PUSH1 0x1 PUSH1 0x20 SHL DUP4 GT OR ISZERO PUSH2 0x422 JUMPI PUSH1 0x0 DUP1 REVERT JUMPDEST SWAP2 SWAP4 POP SWAP2 POP PUSH1 0x1 PUSH1 0x1 PUSH1 0xA0 SHL SUB DUP2 CALLDATALOAD AND SWAP1 PUSH1 0x20 ADD CALLDATALOAD PUSH2 0xBBF JUMP JUMPDEST PUSH2 0xE2 PUSH1 0x4 DUP1 CALLDATASIZE SUB PUSH1 0x60 DUP2 LT ISZERO PUSH2 0x452 JUMPI PUSH1 0x0 DUP1 REVERT JUMPDEST POP DUP1 CALLDATALOAD SWAP1 PUSH1 0x20 DUP2 ADD CALLDATALOAD SWAP1 PUSH1 0x40 ADD CALLDATALOAD PUSH2 0xCB8 JUMP JUMPDEST PUSH2 0x25D PUSH1 0x4 DUP1 CALLDATASIZE SUB PUSH1 0xE0 DUP2 LT ISZERO PUSH2 0x47B JUMPI PUSH1 0x0 DUP1 REVERT JUMPDEST POP PUSH1 0x1 PUSH1 0x1 PUSH1 0xA0 SHL SUB DUP2 CALLDATALOAD DUP2 AND SWAP2 PUSH1 0x20 DUP2 ADD CALLDATALOAD DUP3 AND SWAP2 PUSH1 0x40 DUP3 ADD CALLDATALOAD SWAP2 PUSH1 0x60 DUP2 ADD CALLDATALOAD SWAP2 PUSH1 0x80 DUP3 ADD CALLDATALOAD SWAP2 PUSH1 0xA0 DUP2 ADD CALLDATALOAD SWAP1 SWAP2 AND SWAP1 PUSH1 0xC0 ADD CALLDATALOAD PUSH2 0xCC5 JUMP JUMPDEST PUSH2 0x4BD PUSH2 0xF09 JUMP JUMPDEST PUSH1 0x40 DUP1 MLOAD PUSH1 0x1 PUSH1 0x1 PUSH1 0xA0 SHL SUB SWAP1 SWAP3 AND DUP3 MSTORE MLOAD SWAP1 DUP2 SWAP1 SUB PUSH1 0x20 ADD SWAP1 RETURN JUMPDEST PUSH2 0x19C PUSH1 0x4 DUP1 CALLDATASIZE SUB PUSH1 0x40 DUP2 LT ISZERO PUSH2 0x4EF JUMPI PUSH1 0x0 DUP1 REVERT JUMPDEST DUP2 CALLDATALOAD SWAP2 SWAP1 DUP2 ADD SWAP1 PUSH1 0x40 DUP2 ADD PUSH1 0x20 DUP3 ADD CALLDATALOAD PUSH1 0x1 PUSH1 0x20 SHL DUP2 GT ISZERO PUSH2 0x510 JUMPI PUSH1 0x0 DUP1 REVERT JUMPDEST DUP3 ADD DUP4 PUSH1 0x20 DUP3 ADD GT ISZERO PUSH2 0x522 JUMPI PUSH1 0x0 DUP1 REVERT JUMPDEST DUP1 CALLDATALOAD SWAP1 PUSH1 0x20 ADD SWAP2 DUP5 PUSH1 0x20 DUP4 MUL DUP5 ADD GT PUSH1 0x1 PUSH1 0x20 SHL DUP4 GT OR ISZERO PUSH2 0x543 JUMPI PUSH1 0x0 DUP1 REVERT JUMPDEST SWAP2 SWAP1 DUP1 DUP1 PUSH1 0x20 MUL PUSH1 0x20 ADD PUSH1 0x40 MLOAD SWAP1 DUP2 ADD PUSH1 0x40 MSTORE DUP1 SWAP4 SWAP3 SWAP2 SWAP1 DUP2 DUP2 MSTORE PUSH1 0x20 ADD DUP4 DUP4 PUSH1 0x20 MUL DUP1 DUP3 DUP5 CALLDATACOPY PUSH1 0x0 SWAP3 ADD SWAP2 SWAP1 SWAP2 MSTORE POP SWAP3 SWAP6 POP PUSH2 0xF2D SWAP5 POP POP POP POP POP JUMP JUMPDEST PUSH2 0x5D6 PUSH1 0x4 DUP1 CALLDATASIZE SUB PUSH2 0x100 DUP2 LT ISZERO PUSH2 0x598 JUMPI PUSH1 0x0 DUP1 REVERT JUMPDEST POP PUSH1 0x1 PUSH1 0x1 PUSH1 0xA0 SHL SUB DUP2 CALLDATALOAD DUP2 AND SWAP2 PUSH1 0x20 DUP2 ADD CALLDATALOAD DUP3 AND SWAP2 PUSH1 0x40 DUP3 ADD CALLDATALOAD SWAP2 PUSH1 0x60 DUP2 ADD CALLDATALOAD SWAP2 PUSH1 0x80 DUP3 ADD CALLDATALOAD SWAP2 PUSH1 0xA0 DUP2 ADD CALLDATALOAD SWAP2 PUSH1 0xC0 DUP3 ADD CALLDATALOAD AND SWAP1 PUSH1 0xE0 ADD CALLDATALOAD PUSH2 0xF5A JUMP JUMPDEST PUSH1 0x40 DUP1 MLOAD SWAP4 DUP5 MSTORE PUSH1 0x20 DUP5 ADD SWAP3 SWAP1 SWAP3 MSTORE DUP3 DUP3 ADD MSTORE MLOAD SWAP1 DUP2 SWAP1 SUB PUSH1 0x60 ADD SWAP1 RETURN JUMPDEST PUSH1 0x0 PUSH2 0x601 DUP5 DUP5 DUP5 PUSH2 0x1096 JUMP JUMPDEST SWAP5 SWAP4 POP POP POP POP JUMP JUMPDEST PUSH1 0x60 PUSH2 0x636 PUSH32 0x0 DUP5 DUP5 PUSH2 0x1186 JUMP JUMPDEST SWAP1 POP JUMPDEST SWAP3 SWAP2 POP POP JUMP JUMPDEST PUSH1 0x0 DUP1 PUSH1 0x0 PUSH2 0x66F PUSH32 0x0 DUP16 DUP16 PUSH2 0x12D3 JUMP JUMPDEST SWAP1 POP PUSH1 0x0 DUP8 PUSH2 0x67E JUMPI DUP13 PUSH2 0x682 JUMP JUMPDEST PUSH1 0x0 NOT JUMPDEST PUSH1 0x40 DUP1 MLOAD PUSH4 0xD505ACCF PUSH1 0xE0 SHL DUP2 MSTORE CALLER PUSH1 0x4 DUP3 ADD MSTORE ADDRESS PUSH1 0x24 DUP3 ADD MSTORE PUSH1 0x44 DUP2 ADD DUP4 SWAP1 MSTORE PUSH1 0x64 DUP2 ADD DUP13 SWAP1 MSTORE PUSH1 0xFF DUP11 AND PUSH1 0x84 DUP3 ADD MSTORE PUSH1 0xA4 DUP2 ADD DUP10 SWAP1 MSTORE PUSH1 0xC4 DUP2 ADD DUP9 SWAP1 MSTORE SWAP1 MLOAD SWAP2 SWAP3 POP PUSH1 0x1 PUSH1 0x1 PUSH1 0xA0 SHL SUB DUP5 AND SWAP2 PUSH4 0xD505ACCF SWAP2 PUSH1 0xE4 DUP1 DUP3 ADD SWAP3 PUSH1 0x0 SWAP3 SWAP1 SWAP2 SWAP1 DUP3 SWAP1 SUB ADD DUP2 DUP4 DUP8 DUP1 EXTCODESIZE ISZERO DUP1 ISZERO PUSH2 0x6F8 JUMPI PUSH1 0x0 DUP1 REVERT JUMPDEST POP GAS CALL ISZERO DUP1 ISZERO PUSH2 0x70C JUMPI RETURNDATASIZE PUSH1 0x0 DUP1 RETURNDATACOPY RETURNDATASIZE PUSH1 0x0 REVERT JUMPDEST POP POP POP POP PUSH2 0x71F DUP16 DUP16 DUP16 DUP16 DUP16 DUP16 DUP16 PUSH2 0xCC5 JUMP JUMPDEST DUP1 SWAP5 POP DUP2 SWAP6 POP POP POP POP POP SWAP12 POP SWAP12 SWAP10 POP POP POP POP POP POP POP POP POP POP JUMP JUMPDEST PUSH1 0x60 DUP2 TIMESTAMP DUP2 LT ISZERO PUSH2 0x77F JUMPI PUSH1 0x40 DUP1 MLOAD PUSH3 0x461BCD PUSH1 0xE5 SHL DUP2 MSTORE PUSH1 0x20 PUSH1 0x4 DUP3 ADD MSTORE PUSH1 0x19 PUSH1 0x24 DUP3 ADD MSTORE PUSH1 0x0 DUP1 MLOAD PUSH1 0x20 PUSH2 0x23B0 DUP4 CODECOPY DUP2 MLOAD SWAP2 MSTORE PUSH1 0x44 DUP3 ADD MSTORE SWAP1 MLOAD SWAP1 DUP2 SWAP1 SUB PUSH1 0x64 ADD SWAP1 REVERT JUMPDEST PUSH2 0x7DD PUSH32 0x0 DUP10 DUP9 DUP9 DUP1 DUP1 PUSH1 0x20 MUL PUSH1 0x20 ADD PUSH1 0x40 MLOAD SWAP1 DUP2 ADD PUSH1 0x40 MSTORE DUP1 SWAP4 SWAP3 SWAP2 SWAP1 DUP2 DUP2 MSTORE PUSH1 0x20 ADD DUP4 DUP4 PUSH1 0x20 MUL DUP1 DUP3 DUP5 CALLDATACOPY PUSH1 0x0 SWAP3 ADD SWAP2 SWAP1 SWAP2 MSTORE POP PUSH2 0x1393 SWAP3 POP POP POP JUMP JUMPDEST SWAP2 POP DUP7 DUP3 PUSH1 0x1 DUP5 MLOAD SUB DUP2 MLOAD DUP2 LT PUSH2 0x7F0 JUMPI INVALID JUMPDEST PUSH1 0x20 MUL PUSH1 0x20 ADD ADD MLOAD LT ISZERO PUSH2 0x835 JUMPI PUSH1 0x40 MLOAD PUSH3 0x461BCD PUSH1 0xE5 SHL DUP2 MSTORE PUSH1 0x4 ADD DUP1 DUP1 PUSH1 0x20 ADD DUP3 DUP2 SUB DUP3 MSTORE PUSH1 0x2C DUP2 MSTORE PUSH1 0x20 ADD DUP1 PUSH2 0x2335 PUSH1 0x2C SWAP2 CODECOPY PUSH1 0x40 ADD SWAP2 POP POP PUSH1 0x40 MLOAD DUP1 SWAP2 SUB SWAP1 REVERT JUMPDEST PUSH2 0x8D3 DUP7 DUP7 PUSH1 0x0 DUP2 DUP2 LT PUSH2 0x845 JUMPI INVALID JUMPDEST SWAP1 POP PUSH1 0x20 MUL ADD CALLDATALOAD PUSH1 0x1 PUSH1 0x1 PUSH1 0xA0 SHL SUB AND CALLER PUSH2 0x8B9 PUSH32 0x0 DUP11 DUP11 PUSH1 0x0 DUP2 DUP2 LT PUSH2 0x887 JUMPI INVALID JUMPDEST SWAP1 POP PUSH1 0x20 MUL ADD CALLDATALOAD PUSH1 0x1 PUSH1 0x1 PUSH1 0xA0 SHL SUB AND DUP12 DUP12 PUSH1 0x1 DUP2 DUP2 LT PUSH2 0x8A4 JUMPI INVALID JUMPDEST SWAP1 POP PUSH1 0x20 MUL ADD CALLDATALOAD PUSH1 0x1 PUSH1 0x1 PUSH1 0xA0 SHL SUB AND PUSH2 0x12D3 JUMP JUMPDEST DUP6 PUSH1 0x0 DUP2 MLOAD DUP2 LT PUSH2 0x8C6 JUMPI INVALID JUMPDEST PUSH1 0x20 MUL PUSH1 0x20 ADD ADD MLOAD PUSH2 0x14CA JUMP JUMPDEST PUSH2 0x912 DUP3 DUP8 DUP8 DUP1 DUP1 PUSH1 0x20 MUL PUSH1 0x20 ADD PUSH1 0x40 MLOAD SWAP1 DUP2 ADD PUSH1 0x40 MSTORE DUP1 SWAP4 SWAP3 SWAP2 SWAP1 DUP2 DUP2 MSTORE PUSH1 0x20 ADD DUP4 DUP4 PUSH1 0x20 MUL DUP1 DUP3 DUP5 CALLDATACOPY PUSH1 0x0 SWAP3 ADD SWAP2 SWAP1 SWAP2 MSTORE POP DUP10 SWAP3 POP PUSH2 0x1627 SWAP2 POP POP JUMP JUMPDEST POP SWAP7 SWAP6 POP POP POP POP POP POP JUMP JUMPDEST DUP1 TIMESTAMP DUP2 LT ISZERO PUSH2 0x961 JUMPI PUSH1 0x40 DUP1 MLOAD PUSH3 0x461BCD PUSH1 0xE5 SHL DUP2 MSTORE PUSH1 0x20 PUSH1 0x4 DUP3 ADD MSTORE PUSH1 0x19 PUSH1 0x24 DUP3 ADD MSTORE PUSH1 0x0 DUP1 MLOAD PUSH1 0x20 PUSH2 0x23B0 DUP4 CODECOPY DUP2 MLOAD SWAP2 MSTORE PUSH1 0x44 DUP3 ADD MSTORE SWAP1 MLOAD SWAP1 DUP2 SWAP1 SUB PUSH1 0x64 ADD SWAP1 REVERT JUMPDEST PUSH2 0x9D6 DUP6 DUP6 PUSH1 0x0 DUP2 DUP2 LT PUSH2 0x971 JUMPI INVALID JUMPDEST SWAP1 POP PUSH1 0x20 MUL ADD CALLDATALOAD PUSH1 0x1 PUSH1 0x1 PUSH1 0xA0 SHL SUB AND CALLER PUSH2 0x9D0 PUSH32 0x0 DUP10 DUP10 PUSH1 0x0 DUP2 DUP2 LT PUSH2 0x9B3 JUMPI INVALID JUMPDEST SWAP1 POP PUSH1 0x20 MUL ADD CALLDATALOAD PUSH1 0x1 PUSH1 0x1 PUSH1 0xA0 SHL SUB AND DUP11 DUP11 PUSH1 0x1 DUP2 DUP2 LT PUSH2 0x8A4 JUMPI INVALID JUMPDEST DUP11 PUSH2 0x14CA JUMP JUMPDEST PUSH1 0x0 DUP6 DUP6 PUSH1 0x0 NOT DUP2 ADD DUP2 DUP2 LT PUSH2 0x9E8 JUMPI INVALID JUMPDEST SWAP1 POP PUSH1 0x20 MUL ADD CALLDATALOAD PUSH1 0x1 PUSH1 0x1 PUSH1 0xA0 SHL SUB AND PUSH1 0x1 PUSH1 0x1 PUSH1 0xA0 SHL SUB AND PUSH4 0x70A08231 DUP6 PUSH1 0x40 MLOAD DUP3 PUSH4 0xFFFFFFFF AND PUSH1 0xE0 SHL DUP2 MSTORE PUSH1 0x4 ADD DUP1 DUP3 PUSH1 0x1 PUSH1 0x1 PUSH1 0xA0 SHL SUB AND PUSH1 0x1 PUSH1 0x1 PUSH1 0xA0 SHL SUB AND DUP2 MSTORE PUSH1 0x20 ADD SWAP2 POP POP PUSH1 0x20 PUSH1 0x40 MLOAD DUP1 DUP4 SUB DUP2 DUP7 DUP1 EXTCODESIZE ISZERO DUP1 ISZERO PUSH2 0xA4D JUMPI PUSH1 0x0 DUP1 REVERT JUMPDEST POP GAS STATICCALL ISZERO DUP1 ISZERO PUSH2 0xA61 JUMPI RETURNDATASIZE PUSH1 0x0 DUP1 RETURNDATACOPY RETURNDATASIZE PUSH1 0x0 REVERT JUMPDEST POP POP POP POP PUSH1 0x40 MLOAD RETURNDATASIZE PUSH1 0x20 DUP2 LT ISZERO PUSH2 0xA77 JUMPI PUSH1 0x0 DUP1 REVERT JUMPDEST POP MLOAD PUSH1 0x40 DUP1 MLOAD PUSH1 0x20 DUP9 DUP2 MUL DUP3 DUP2 ADD DUP3 ADD SWAP1 SWAP4 MSTORE DUP9 DUP3 MSTORE SWAP3 SWAP4 POP PUSH2 0xAB9 SWAP3 SWAP1 SWAP2 DUP10 SWAP2 DUP10 SWAP2 DUP3 SWAP2 DUP6 ADD SWAP1 DUP5 SWAP1 DUP1 DUP3 DUP5 CALLDATACOPY PUSH1 0x0 SWAP3 ADD SWAP2 SWAP1 SWAP2 MSTORE POP DUP9 SWAP3 POP PUSH2 0x186D SWAP2 POP POP JUMP JUMPDEST DUP7 PUSH2 0xB6B DUP3 DUP9 DUP9 PUSH1 0x0 NOT DUP2 ADD DUP2 DUP2 LT PUSH2 0xACE JUMPI INVALID JUMPDEST SWAP1 POP PUSH1 0x20 MUL ADD CALLDATALOAD PUSH1 0x1 PUSH1 0x1 PUSH1 0xA0 SHL SUB AND PUSH1 0x1 PUSH1 0x1 PUSH1 0xA0 SHL SUB AND PUSH4 0x70A08231 DUP9 PUSH1 0x40 MLOAD DUP3 PUSH4 0xFFFFFFFF AND PUSH1 0xE0 SHL DUP2 MSTORE PUSH1 0x4 ADD DUP1 DUP3 PUSH1 0x1 PUSH1 0x1 PUSH1 0xA0 SHL SUB AND PUSH1 0x1 PUSH1 0x1 PUSH1 0xA0 SHL SUB AND DUP2 MSTORE PUSH1 0x20 ADD SWAP2 POP POP PUSH1 0x20 PUSH1 0x40 MLOAD DUP1 DUP4 SUB DUP2 DUP7 DUP1 EXTCODESIZE ISZERO DUP1 ISZERO PUSH2 0xB33 JUMPI PUSH1 0x0 DUP1 REVERT JUMPDEST POP GAS STATICCALL ISZERO DUP1 ISZERO PUSH2 0xB47 JUMPI RETURNDATASIZE PUSH1 0x0 DUP1 RETURNDATACOPY RETURNDATASIZE PUSH1 0x0 REVERT JUMPDEST POP POP POP POP PUSH1 0x40 MLOAD RETURNDATASIZE PUSH1 0x20 DUP2 LT ISZERO PUSH2 0xB5D JUMPI PUSH1 0x0 DUP1 REVERT JUMPDEST POP MLOAD SWAP1 PUSH4 0xFFFFFFFF PUSH2 0x1B7D AND JUMP JUMPDEST LT ISZERO PUSH2 0xBA8 JUMPI PUSH1 0x40 MLOAD PUSH3 0x461BCD PUSH1 0xE5 SHL DUP2 MSTORE PUSH1 0x4 ADD DUP1 DUP1 PUSH1 0x20 ADD DUP3 DUP2 SUB DUP3 MSTORE PUSH1 0x2C DUP2 MSTORE PUSH1 0x20 ADD DUP1 PUSH2 0x2335 PUSH1 0x2C SWAP2 CODECOPY PUSH1 0x40 ADD SWAP2 POP POP PUSH1 0x40 MLOAD DUP1 SWAP2 SUB SWAP1 REVERT JUMPDEST POP POP POP POP POP POP POP POP JUMP JUMPDEST PUSH1 0x0 PUSH2 0x601 DUP5 DUP5 DUP5 PUSH2 0x1BCD JUMP JUMPDEST PUSH1 0x60 DUP2 TIMESTAMP DUP2 LT ISZERO PUSH2 0xC05 JUMPI PUSH1 0x40 DUP1 MLOAD PUSH3 0x461BCD PUSH1 0xE5 SHL DUP2 MSTORE PUSH1 0x20 PUSH1 0x4 DUP3 ADD MSTORE PUSH1 0x19 PUSH1 0x24 DUP3 ADD MSTORE PUSH1 0x0 DUP1 MLOAD PUSH1 0x20 PUSH2 0x23B0 DUP4 CODECOPY DUP2 MLOAD SWAP2 MSTORE PUSH1 0x44 DUP3 ADD MSTORE SWAP1 MLOAD SWAP1 DUP2 SWAP1 SUB PUSH1 0x64 ADD SWAP1 REVERT JUMPDEST PUSH2 0xC63 PUSH32 0x0 DUP10 DUP9 DUP9 DUP1 DUP1 PUSH1 0x20 MUL PUSH1 0x20 ADD PUSH1 0x40 MLOAD SWAP1 DUP2 ADD PUSH1 0x40 MSTORE DUP1 SWAP4 SWAP3 SWAP2 SWAP1 DUP2 DUP2 MSTORE PUSH1 0x20 ADD DUP4 DUP4 PUSH1 0x20 MUL DUP1 DUP3 DUP5 CALLDATACOPY PUSH1 0x0 SWAP3 ADD SWAP2 SWAP1 SWAP2 MSTORE POP PUSH2 0x1186 SWAP3 POP POP POP JUMP JUMPDEST SWAP2 POP DUP7 DUP3 PUSH1 0x0 DUP2 MLOAD DUP2 LT PUSH2 0xC73 JUMPI INVALID JUMPDEST PUSH1 0x20 MUL PUSH1 0x20 ADD ADD MLOAD GT ISZERO PUSH2 0x835 JUMPI PUSH1 0x40 MLOAD PUSH3 0x461BCD PUSH1 0xE5 SHL DUP2 MSTORE PUSH1 0x4 ADD DUP1 DUP1 PUSH1 0x20 ADD DUP3 DUP2 SUB DUP3 MSTORE PUSH1 0x28 DUP2 MSTORE PUSH1 0x20 ADD DUP1 PUSH2 0x2388 PUSH1 0x28 SWAP2 CODECOPY PUSH1 0x40 ADD SWAP2 POP POP PUSH1 0x40 MLOAD DUP1 SWAP2 SUB SWAP1 REVERT JUMPDEST PUSH1 0x0 PUSH2 0x601 DUP5 DUP5 DUP5 PUSH2 0x1CBD JUMP JUMPDEST PUSH1 0x0 DUP1 DUP3 TIMESTAMP DUP2 LT ISZERO PUSH2 0xD0C JUMPI PUSH1 0x40 DUP1 MLOAD PUSH3 0x461BCD PUSH1 0xE5 SHL DUP2 MSTORE PUSH1 0x20 PUSH1 0x4 DUP3 ADD MSTORE PUSH1 0x19 PUSH1 0x24 DUP3 ADD MSTORE PUSH1 0x0 DUP1 MLOAD PUSH1 0x20 PUSH2 0x23B0 DUP4 CODECOPY DUP2 MLOAD SWAP2 MSTORE PUSH1 0x44 DUP3 ADD MSTORE SWAP1 MLOAD SWAP1 DUP2 SWAP1 SUB PUSH1 0x64 ADD SWAP1 REVERT JUMPDEST PUSH1 0x0 PUSH2 0xD39 PUSH32 0x0 DUP13 DUP13 PUSH2 0x12D3 JUMP JUMPDEST PUSH1 0x40 DUP1 MLOAD PUSH4 0x23B872DD PUSH1 0xE0 SHL DUP2 MSTORE CALLER PUSH1 0x4 DUP3 ADD MSTORE PUSH1 0x1 PUSH1 0x1 PUSH1 0xA0 SHL SUB DUP4 AND PUSH1 0x24 DUP3 ADD DUP2 SWAP1 MSTORE PUSH1 0x44 DUP3 ADD DUP14 SWAP1 MSTORE SWAP2 MLOAD SWAP3 SWAP4 POP SWAP1 SWAP2 PUSH4 0x23B872DD SWAP2 PUSH1 0x64 DUP1 DUP3 ADD SWAP3 PUSH1 0x20 SWAP3 SWAP1 SWAP2 SWAP1 DUP3 SWAP1 SUB ADD DUP2 PUSH1 0x0 DUP8 DUP1 EXTCODESIZE ISZERO DUP1 ISZERO PUSH2 0xD94 JUMPI PUSH1 0x0 DUP1 REVERT JUMPDEST POP GAS CALL ISZERO DUP1 ISZERO PUSH2 0xDA8 JUMPI RETURNDATASIZE PUSH1 0x0 DUP1 RETURNDATACOPY RETURNDATASIZE PUSH1 0x0 REVERT JUMPDEST POP POP POP POP PUSH1 0x40 MLOAD RETURNDATASIZE PUSH1 0x20 DUP2 LT ISZERO PUSH2 0xDBE JUMPI PUSH1 0x0 DUP1 REVERT JUMPDEST POP POP PUSH1 0x40 DUP1 MLOAD PUSH4 0x226BF2D1 PUSH1 0xE2 SHL DUP2 MSTORE PUSH1 0x1 PUSH1 0x1 PUSH1 0xA0 SHL SUB DUP9 DUP2 AND PUSH1 0x4 DUP4 ADD MSTORE DUP3 MLOAD PUSH1 0x0 SWAP4 DUP5 SWAP4 SWAP3 DUP7 AND SWAP3 PUSH4 0x89AFCB44 SWAP3 PUSH1 0x24 DUP1 DUP4 ADD SWAP4 SWAP3 DUP3 SWAP1 SUB ADD DUP2 DUP8 DUP8 DUP1 EXTCODESIZE ISZERO DUP1 ISZERO PUSH2 0xE0B JUMPI PUSH1 0x0 DUP1 REVERT JUMPDEST POP GAS CALL ISZERO DUP1 ISZERO PUSH2 0xE1F JUMPI RETURNDATASIZE PUSH1 0x0 DUP1 RETURNDATACOPY RETURNDATASIZE PUSH1 0x0 REVERT JUMPDEST POP POP POP POP PUSH1 0x40 MLOAD RETURNDATASIZE PUSH1 0x40 DUP2 LT ISZERO PUSH2 0xE35 JUMPI PUSH1 0x0 DUP1 REVERT JUMPDEST POP DUP1 MLOAD PUSH1 0x20 SWAP1 SWAP2 ADD MLOAD SWAP1 SWAP3 POP SWAP1 POP PUSH1 0x0 PUSH2 0xE4F DUP15 DUP15 PUSH2 0x1D69 JUMP JUMPDEST POP SWAP1 POP DUP1 PUSH1 0x1 PUSH1 0x1 PUSH1 0xA0 SHL SUB AND DUP15 PUSH1 0x1 PUSH1 0x1 PUSH1 0xA0 SHL SUB AND EQ PUSH2 0xE72 JUMPI DUP2 DUP4 PUSH2 0xE75 JUMP JUMPDEST DUP3 DUP3 JUMPDEST SWAP1 SWAP8 POP SWAP6 POP DUP11 DUP8 LT ISZERO PUSH2 0xEB9 JUMPI PUSH1 0x40 MLOAD PUSH3 0x461BCD PUSH1 0xE5 SHL DUP2 MSTORE PUSH1 0x4 ADD DUP1 DUP1 PUSH1 0x20 ADD DUP3 DUP2 SUB DUP3 MSTORE PUSH1 0x27 DUP2 MSTORE PUSH1 0x20 ADD DUP1 PUSH2 0x225E PUSH1 0x27 SWAP2 CODECOPY PUSH1 0x40 ADD SWAP2 POP POP PUSH1 0x40 MLOAD DUP1 SWAP2 SUB SWAP1 REVERT JUMPDEST DUP10 DUP7 LT ISZERO PUSH2 0xEF8 JUMPI PUSH1 0x40 MLOAD PUSH3 0x461BCD PUSH1 0xE5 SHL DUP2 MSTORE PUSH1 0x4 ADD DUP1 DUP1 PUSH1 0x20 ADD DUP3 DUP2 SUB DUP3 MSTORE PUSH1 0x27 DUP2 MSTORE PUSH1 0x20 ADD DUP1 PUSH2 0x2361 PUSH1 0x27 SWAP2 CODECOPY PUSH1 0x40 ADD SWAP2 POP POP PUSH1 0x40 MLOAD DUP1 SWAP2 SUB SWAP1 REVERT JUMPDEST POP POP POP POP POP SWAP8 POP SWAP8 SWAP6 POP POP POP POP POP POP JUMP JUMPDEST PUSH32 0x0 DUP2 JUMP JUMPDEST PUSH1 0x60 PUSH2 0x636 PUSH32 0x0 DUP5 DUP5 PUSH2 0x1393 JUMP JUMPDEST PUSH1 0x0 DUP1 PUSH1 0x0 DUP4 TIMESTAMP DUP2 LT ISZERO PUSH2 0xFA3 JUMPI PUSH1 0x40 DUP1 MLOAD PUSH3 0x461BCD PUSH1 0xE5 SHL DUP2 MSTORE PUSH1 0x20 PUSH1 0x4 DUP3 ADD MSTORE PUSH1 0x19 PUSH1 0x24 DUP3 ADD MSTORE PUSH1 0x0 DUP1 MLOAD PUSH1 0x20 PUSH2 0x23B0 DUP4 CODECOPY DUP2 MLOAD SWAP2 MSTORE PUSH1 0x44 DUP3 ADD MSTORE SWAP1 MLOAD SWAP1 DUP2 SWAP1 SUB PUSH1 0x64 ADD SWAP1 REVERT JUMPDEST PUSH2 0xFB1 DUP13 DUP13 DUP13 DUP13 DUP13 DUP13 PUSH2 0x1E47 JUMP JUMPDEST SWAP1 SWAP5 POP SWAP3 POP PUSH1 0x0 PUSH2 0xFE3 PUSH32 0x0 DUP15 DUP15 PUSH2 0x12D3 JUMP JUMPDEST SWAP1 POP PUSH2 0xFF1 DUP14 CALLER DUP4 DUP9 PUSH2 0x14CA JUMP JUMPDEST PUSH2 0xFFD DUP13 CALLER DUP4 DUP8 PUSH2 0x14CA JUMP JUMPDEST DUP1 PUSH1 0x1 PUSH1 0x1 PUSH1 0xA0 SHL SUB AND PUSH4 0x6A627842 DUP9 PUSH1 0x40 MLOAD DUP3 PUSH4 0xFFFFFFFF AND PUSH1 0xE0 SHL DUP2 MSTORE PUSH1 0x4 ADD DUP1 DUP3 PUSH1 0x1 PUSH1 0x1 PUSH1 0xA0 SHL SUB AND PUSH1 0x1 PUSH1 0x1 PUSH1 0xA0 SHL SUB AND DUP2 MSTORE PUSH1 0x20 ADD SWAP2 POP POP PUSH1 0x20 PUSH1 0x40 MLOAD DUP1 DUP4 SUB DUP2 PUSH1 0x0 DUP8 DUP1 EXTCODESIZE ISZERO DUP1 ISZERO PUSH2 0x1055 JUMPI PUSH1 0x0 DUP1 REVERT JUMPDEST POP GAS CALL ISZERO DUP1 ISZERO PUSH2 0x1069 JUMPI RETURNDATASIZE PUSH1 0x0 DUP1 RETURNDATACOPY RETURNDATASIZE PUSH1 0x0 REVERT JUMPDEST POP POP POP POP PUSH1 0x40 MLOAD RETURNDATASIZE PUSH1 0x20 DUP2 LT ISZERO PUSH2 0x107F JUMPI PUSH1 0x0 DUP1 REVERT JUMPDEST POP MLOAD SWAP5 SWAP14 SWAP4 SWAP13 POP SWAP4 SWAP11 POP SWAP2 SWAP9 POP POP POP POP POP POP POP POP POP JUMP JUMPDEST PUSH1 0x0 DUP1 DUP5 GT PUSH2 0x10D6 JUMPI PUSH1 0x40 MLOAD PUSH3 0x461BCD PUSH1 0xE5 SHL DUP2 MSTORE PUSH1 0x4 ADD DUP1 DUP1 PUSH1 0x20 ADD DUP3 DUP2 SUB DUP3 MSTORE PUSH1 0x2C DUP2 MSTORE PUSH1 0x20 ADD DUP1 PUSH2 0x22DC PUSH1 0x2C SWAP2 CODECOPY PUSH1 0x40 ADD SWAP2 POP POP PUSH1 0x40 MLOAD DUP1 SWAP2 SUB SWAP1 REVERT JUMPDEST PUSH1 0x0 DUP4 GT DUP1 ISZERO PUSH2 0x10E6 JUMPI POP PUSH1 0x0 DUP3 GT JUMPDEST PUSH2 0x1121 JUMPI PUSH1 0x40 MLOAD PUSH3 0x461BCD PUSH1 0xE5 SHL DUP2 MSTORE PUSH1 0x4 ADD DUP1 DUP1 PUSH1 0x20 ADD DUP3 DUP2 SUB DUP3 MSTORE PUSH1 0x29 DUP2 MSTORE PUSH1 0x20 ADD DUP1 PUSH2 0x2235 PUSH1 0x29 SWAP2 CODECOPY PUSH1 0x40 ADD SWAP2 POP POP PUSH1 0x40 MLOAD DUP1 SWAP2 SUB SWAP1 REVERT JUMPDEST PUSH1 0x0 PUSH2 0x1135 DUP6 PUSH2 0x3E5 PUSH4 0xFFFFFFFF PUSH2 0x20BB AND JUMP JUMPDEST SWAP1 POP PUSH1 0x0 PUSH2 0x1149 DUP3 DUP6 PUSH4 0xFFFFFFFF PUSH2 0x20BB AND JUMP JUMPDEST SWAP1 POP PUSH1 0x0 PUSH2 0x116F DUP4 PUSH2 0x1163 DUP9 PUSH2 0x3E8 PUSH4 0xFFFFFFFF PUSH2 0x20BB AND JUMP JUMPDEST SWAP1 PUSH4 0xFFFFFFFF PUSH2 0x211E AND JUMP JUMPDEST SWAP1 POP DUP1 DUP3 DUP2 PUSH2 0x117A JUMPI INVALID JUMPDEST DIV SWAP8 SWAP7 POP POP POP POP POP POP POP JUMP JUMPDEST PUSH1 0x60 PUSH1 0x2 DUP3 MLOAD LT ISZERO PUSH2 0x11DF JUMPI PUSH1 0x40 DUP1 MLOAD PUSH3 0x461BCD PUSH1 0xE5 SHL DUP2 MSTORE PUSH1 0x20 PUSH1 0x4 DUP3 ADD MSTORE PUSH1 0x1F PUSH1 0x24 DUP3 ADD MSTORE PUSH32 0x59756E617377617056324C6962726172793A20494E56414C49445F5041544800 PUSH1 0x44 DUP3 ADD MSTORE SWAP1 MLOAD SWAP1 DUP2 SWAP1 SUB PUSH1 0x64 ADD SWAP1 REVERT JUMPDEST DUP2 MLOAD PUSH8 0xFFFFFFFFFFFFFFFF DUP2 GT DUP1 ISZERO PUSH2 0x11F7 JUMPI PUSH1 0x0 DUP1 REVERT JUMPDEST POP PUSH1 0x40 MLOAD SWAP1 DUP1 DUP3 MSTORE DUP1 PUSH1 0x20 MUL PUSH1 0x20 ADD DUP3 ADD PUSH1 0x40 MSTORE DUP1 ISZERO PUSH2 0x1221 JUMPI DUP2 PUSH1 0x20 ADD PUSH1 0x20 DUP3 MUL DUP1 CALLDATASIZE DUP4 CALLDATACOPY ADD SWAP1 POP JUMPDEST POP SWAP1 POP DUP3 DUP2 PUSH1 0x1 DUP4 MLOAD SUB DUP2 MLOAD DUP2 LT PUSH2 0x1235 JUMPI INVALID JUMPDEST PUSH1 0x20 SWAP1 DUP2 MUL SWAP2 SWAP1 SWAP2 ADD ADD MSTORE DUP2 MLOAD PUSH1 0x0 NOT ADD JUMPDEST DUP1 ISZERO PUSH2 0x12CB JUMPI PUSH1 0x0 DUP1 PUSH2 0x1284 DUP8 DUP7 PUSH1 0x1 DUP7 SUB DUP2 MLOAD DUP2 LT PUSH2 0x1263 JUMPI INVALID JUMPDEST PUSH1 0x20 MUL PUSH1 0x20 ADD ADD MLOAD DUP8 DUP7 DUP2 MLOAD DUP2 LT PUSH2 0x1277 JUMPI INVALID JUMPDEST PUSH1 0x20 MUL PUSH1 0x20 ADD ADD MLOAD PUSH2 0x216D JUMP JUMPDEST SWAP2 POP SWAP2 POP PUSH2 0x12A6 DUP5 DUP5 DUP2 MLOAD DUP2 LT PUSH2 0x1297 JUMPI INVALID JUMPDEST PUSH1 0x20 MUL PUSH1 0x20 ADD ADD MLOAD DUP4 DUP4 PUSH2 0x1BCD JUMP JUMPDEST DUP5 PUSH1 0x1 DUP6 SUB DUP2 MLOAD DUP2 LT PUSH2 0x12B5 JUMPI INVALID JUMPDEST PUSH1 0x20 SWAP1 DUP2 MUL SWAP2 SWAP1 SWAP2 ADD ADD MSTORE POP POP PUSH1 0x0 NOT ADD PUSH2 0x1247 JUMP JUMPDEST POP SWAP4 SWAP3 POP POP POP JUMP JUMPDEST PUSH1 0x0 DUP1 PUSH1 0x0 PUSH2 0x12E2 DUP6 DUP6 PUSH2 0x1D69 JUMP JUMPDEST PUSH1 0x40 DUP1 MLOAD PUSH12 0xFFFFFFFFFFFFFFFFFFFFFFFF NOT PUSH1 0x60 SWAP5 DUP6 SHL DUP2 AND PUSH1 0x20 DUP1 DUP5 ADD SWAP2 SWAP1 SWAP2 MSTORE SWAP4 DUP6 SHL DUP2 AND PUSH1 0x34 DUP4 ADD MSTORE DUP3 MLOAD PUSH1 0x28 DUP2 DUP5 SUB ADD DUP2 MSTORE PUSH1 0x48 DUP4 ADD DUP5 MSTORE DUP1 MLOAD SWAP1 DUP6 ADD KECCAK256 PUSH1 0x1 PUSH1 0x1 PUSH1 0xF8 SHL SUB NOT PUSH1 0x68 DUP5 ADD MSTORE SWAP11 SWAP1 SWAP5 SHL SWAP1 SWAP4 AND PUSH1 0x69 DUP5 ADD MSTORE PUSH1 0x7D DUP4 ADD SWAP9 SWAP1 SWAP9 MSTORE PUSH32 0x6E034E1B470957CC86FD7C254EFAAE678F0F8C5765EC290EACAED28F43BBF715 PUSH1 0x9D DUP1 DUP5 ADD SWAP2 SWAP1 SWAP2 MSTORE DUP9 MLOAD DUP1 DUP5 SUB SWAP1 SWAP2 ADD DUP2 MSTORE PUSH1 0xBD SWAP1 SWAP3 ADD SWAP1 SWAP8 MSTORE DUP1 MLOAD SWAP7 ADD SWAP6 SWAP1 SWAP6 KECCAK256 SWAP6 SWAP5 POP POP POP POP POP JUMP JUMPDEST PUSH1 0x60 PUSH1 0x2 DUP3 MLOAD LT ISZERO PUSH2 0x13EC JUMPI PUSH1 0x40 DUP1 MLOAD PUSH3 0x461BCD PUSH1 0xE5 SHL DUP2 MSTORE PUSH1 0x20 PUSH1 0x4 DUP3 ADD MSTORE PUSH1 0x1F PUSH1 0x24 DUP3 ADD MSTORE PUSH32 0x59756E617377617056324C6962726172793A20494E56414C49445F5041544800 PUSH1 0x44 DUP3 ADD MSTORE SWAP1 MLOAD SWAP1 DUP2 SWAP1 SUB PUSH1 0x64 ADD SWAP1 REVERT JUMPDEST DUP2 MLOAD PUSH8 0xFFFFFFFFFFFFFFFF DUP2 GT DUP1 ISZERO PUSH2 0x1404 JUMPI PUSH1 0x0 DUP1 REVERT JUMPDEST POP PUSH1 0x40 MLOAD SWAP1 DUP1 DUP3 MSTORE DUP1 PUSH1 0x20 MUL PUSH1 0x20 ADD DUP3 ADD PUSH1 0x40 MSTORE DUP1 ISZERO PUSH2 0x142E JUMPI DUP2 PUSH1 0x20 ADD PUSH1 0x20 DUP3 MUL DUP1 CALLDATASIZE DUP4 CALLDATACOPY ADD SWAP1 POP JUMPDEST POP SWAP1 POP DUP3 DUP2 PUSH1 0x0 DUP2 MLOAD DUP2 LT PUSH2 0x143F JUMPI INVALID JUMPDEST PUSH1 0x20 MUL PUSH1 0x20 ADD ADD DUP2 DUP2 MSTORE POP POP PUSH1 0x0 JUMPDEST PUSH1 0x1 DUP4 MLOAD SUB DUP2 LT ISZERO PUSH2 0x12CB JUMPI PUSH1 0x0 DUP1 PUSH2 0x1484 DUP8 DUP7 DUP6 DUP2 MLOAD DUP2 LT PUSH2 0x146D JUMPI INVALID JUMPDEST PUSH1 0x20 MUL PUSH1 0x20 ADD ADD MLOAD DUP8 DUP7 PUSH1 0x1 ADD DUP2 MLOAD DUP2 LT PUSH2 0x1277 JUMPI INVALID JUMPDEST SWAP2 POP SWAP2 POP PUSH2 0x14A6 DUP5 DUP5 DUP2 MLOAD DUP2 LT PUSH2 0x1497 JUMPI INVALID JUMPDEST PUSH1 0x20 MUL PUSH1 0x20 ADD ADD MLOAD DUP4 DUP4 PUSH2 0x1096 JUMP JUMPDEST DUP5 DUP5 PUSH1 0x1 ADD DUP2 MLOAD DUP2 LT PUSH2 0x14B5 JUMPI INVALID JUMPDEST PUSH1 0x20 SWAP1 DUP2 MUL SWAP2 SWAP1 SWAP2 ADD ADD MSTORE POP POP PUSH1 0x1 ADD PUSH2 0x144E JUMP JUMPDEST PUSH1 0x40 DUP1 MLOAD PUSH1 0x1 PUSH1 0x1 PUSH1 0xA0 SHL SUB DUP6 DUP2 AND PUSH1 0x24 DUP4 ADD MSTORE DUP5 DUP2 AND PUSH1 0x44 DUP4 ADD MSTORE PUSH1 0x64 DUP1 DUP4 ADD DUP6 SWAP1 MSTORE DUP4 MLOAD DUP1 DUP5 SUB SWAP1 SWAP2 ADD DUP2 MSTORE PUSH1 0x84 SWAP1 SWAP3 ADD DUP4 MSTORE PUSH1 0x20 DUP3 ADD DUP1 MLOAD PUSH1 0x1 PUSH1 0x1 PUSH1 0xE0 SHL SUB AND PUSH4 0x23B872DD PUSH1 0xE0 SHL OR DUP2 MSTORE SWAP3 MLOAD DUP3 MLOAD PUSH1 0x0 SWAP5 PUSH1 0x60 SWAP5 SWAP4 DUP11 AND SWAP4 SWAP3 SWAP2 DUP3 SWAP2 SWAP1 DUP1 DUP4 DUP4 JUMPDEST PUSH1 0x20 DUP4 LT PUSH2 0x154F JUMPI DUP1 MLOAD DUP3 MSTORE PUSH1 0x1F NOT SWAP1 SWAP3 ADD SWAP2 PUSH1 0x20 SWAP2 DUP3 ADD SWAP2 ADD PUSH2 0x1530 JUMP JUMPDEST PUSH1 0x1 DUP4 PUSH1 0x20 SUB PUSH2 0x100 EXP SUB DUP1 NOT DUP3 MLOAD AND DUP2 DUP5 MLOAD AND DUP1 DUP3 OR DUP6 MSTORE POP POP POP POP POP POP SWAP1 POP ADD SWAP2 POP POP PUSH1 0x0 PUSH1 0x40 MLOAD DUP1 DUP4 SUB DUP2 PUSH1 0x0 DUP7 GAS CALL SWAP2 POP POP RETURNDATASIZE DUP1 PUSH1 0x0 DUP2 EQ PUSH2 0x15B1 JUMPI PUSH1 0x40 MLOAD SWAP2 POP PUSH1 0x1F NOT PUSH1 0x3F RETURNDATASIZE ADD AND DUP3 ADD PUSH1 0x40 MSTORE RETURNDATASIZE DUP3 MSTORE RETURNDATASIZE PUSH1 0x0 PUSH1 0x20 DUP5 ADD RETURNDATACOPY PUSH2 0x15B6 JUMP JUMPDEST PUSH1 0x60 SWAP2 POP JUMPDEST POP SWAP2 POP SWAP2 POP DUP2 DUP1 ISZERO PUSH2 0x15E4 JUMPI POP DUP1 MLOAD ISZERO DUP1 PUSH2 0x15E4 JUMPI POP DUP1 DUP1 PUSH1 0x20 ADD SWAP1 MLOAD PUSH1 0x20 DUP2 LT ISZERO PUSH2 0x15E1 JUMPI PUSH1 0x0 DUP1 REVERT JUMPDEST POP MLOAD JUMPDEST PUSH2 0x161F JUMPI PUSH1 0x40 MLOAD PUSH3 0x461BCD PUSH1 0xE5 SHL DUP2 MSTORE PUSH1 0x4 ADD DUP1 DUP1 PUSH1 0x20 ADD DUP3 DUP2 SUB DUP3 MSTORE PUSH1 0x31 DUP2 MSTORE PUSH1 0x20 ADD DUP1 PUSH2 0x2285 PUSH1 0x31 SWAP2 CODECOPY PUSH1 0x40 ADD SWAP2 POP POP PUSH1 0x40 MLOAD DUP1 SWAP2 SUB SWAP1 REVERT JUMPDEST POP POP POP POP POP POP JUMP JUMPDEST PUSH1 0x0 JUMPDEST PUSH1 0x1 DUP4 MLOAD SUB DUP2 LT ISZERO PUSH2 0x1867 JUMPI PUSH1 0x0 DUP1 DUP5 DUP4 DUP2 MLOAD DUP2 LT PUSH2 0x1645 JUMPI INVALID JUMPDEST PUSH1 0x20 MUL PUSH1 0x20 ADD ADD MLOAD DUP6 DUP5 PUSH1 0x1 ADD DUP2 MLOAD DUP2 LT PUSH2 0x165C JUMPI INVALID JUMPDEST PUSH1 0x20 MUL PUSH1 0x20 ADD ADD MLOAD SWAP2 POP SWAP2 POP PUSH1 0x0 PUSH2 0x1674 DUP4 DUP4 PUSH2 0x1D69 JUMP JUMPDEST POP SWAP1 POP PUSH1 0x0 DUP8 DUP6 PUSH1 0x1 ADD DUP2 MLOAD DUP2 LT PUSH2 0x1688 JUMPI INVALID JUMPDEST PUSH1 0x20 MUL PUSH1 0x20 ADD ADD MLOAD SWAP1 POP PUSH1 0x0 DUP1 DUP4 PUSH1 0x1 PUSH1 0x1 PUSH1 0xA0 SHL SUB AND DUP7 PUSH1 0x1 PUSH1 0x1 PUSH1 0xA0 SHL SUB AND EQ PUSH2 0x16B6 JUMPI DUP3 PUSH1 0x0 PUSH2 0x16BA JUMP JUMPDEST PUSH1 0x0 DUP4 JUMPDEST SWAP2 POP SWAP2 POP PUSH1 0x0 PUSH1 0x2 DUP11 MLOAD SUB DUP9 LT PUSH2 0x16D1 JUMPI DUP9 PUSH2 0x1712 JUMP JUMPDEST PUSH2 0x1712 PUSH32 0x0 DUP8 DUP13 DUP12 PUSH1 0x2 ADD DUP2 MLOAD DUP2 LT PUSH2 0x1705 JUMPI INVALID JUMPDEST PUSH1 0x20 MUL PUSH1 0x20 ADD ADD MLOAD PUSH2 0x12D3 JUMP JUMPDEST SWAP1 POP PUSH2 0x173F PUSH32 0x0 DUP9 DUP9 PUSH2 0x12D3 JUMP JUMPDEST PUSH1 0x1 PUSH1 0x1 PUSH1 0xA0 SHL SUB AND PUSH4 0x22C0D9F DUP5 DUP5 DUP5 PUSH1 0x0 PUSH1 0x40 MLOAD SWAP1 DUP1 DUP3 MSTORE DUP1 PUSH1 0x1F ADD PUSH1 0x1F NOT AND PUSH1 0x20 ADD DUP3 ADD PUSH1 0x40 MSTORE DUP1 ISZERO PUSH2 0x177C JUMPI PUSH1 0x20 DUP3 ADD DUP2 DUP1 CALLDATASIZE DUP4 CALLDATACOPY ADD SWAP1 POP JUMPDEST POP PUSH1 0x40 MLOAD DUP6 PUSH4 0xFFFFFFFF AND PUSH1 0xE0 SHL DUP2 MSTORE PUSH1 0x4 ADD DUP1 DUP6 DUP2 MSTORE PUSH1 0x20 ADD DUP5 DUP2 MSTORE PUSH1 0x20 ADD DUP4 PUSH1 0x1 PUSH1 0x1 PUSH1 0xA0 SHL SUB AND PUSH1 0x1 PUSH1 0x1 PUSH1 0xA0 SHL SUB AND DUP2 MSTORE PUSH1 0x20 ADD DUP1 PUSH1 0x20 ADD DUP3 DUP2 SUB DUP3 MSTORE DUP4 DUP2 DUP2 MLOAD DUP2 MSTORE PUSH1 0x20 ADD SWAP2 POP DUP1 MLOAD SWAP1 PUSH1 0x20 ADD SWAP1 DUP1 DUP4 DUP4 PUSH1 0x0 JUMPDEST DUP4 DUP2 LT ISZERO PUSH2 0x17ED JUMPI DUP2 DUP2 ADD MLOAD DUP4 DUP3 ADD MSTORE PUSH1 0x20 ADD PUSH2 0x17D5 JUMP JUMPDEST POP POP POP POP SWAP1 POP SWAP1 DUP2 ADD SWAP1 PUSH1 0x1F AND DUP1 ISZERO PUSH2 0x181A JUMPI DUP1 DUP3 SUB DUP1 MLOAD PUSH1 0x1 DUP4 PUSH1 0x20 SUB PUSH2 0x100 EXP SUB NOT AND DUP2 MSTORE PUSH1 0x20 ADD SWAP2 POP JUMPDEST POP SWAP6 POP POP POP POP POP POP PUSH1 0x0 PUSH1 0x40 MLOAD DUP1 DUP4 SUB DUP2 PUSH1 0x0 DUP8 DUP1 EXTCODESIZE ISZERO DUP1 ISZERO PUSH2 0x183C JUMPI PUSH1 0x0 DUP1 REVERT JUMPDEST POP GAS CALL ISZERO DUP1 ISZERO PUSH2 0x1850 JUMPI RETURNDATASIZE PUSH1 0x0 DUP1 RETURNDATACOPY RETURNDATASIZE PUSH1 0x0 REVERT JUMPDEST POP POP PUSH1 0x1 SWAP1 SWAP10 ADD SWAP9 POP PUSH2 0x162A SWAP8 POP POP POP POP POP POP POP POP JUMP JUMPDEST POP POP POP POP JUMP JUMPDEST PUSH1 0x0 JUMPDEST PUSH1 0x1 DUP4 MLOAD SUB DUP2 LT ISZERO PUSH2 0x1B78 JUMPI PUSH1 0x0 DUP1 DUP5 DUP4 DUP2 MLOAD DUP2 LT PUSH2 0x188B JUMPI INVALID JUMPDEST PUSH1 0x20 MUL PUSH1 0x20 ADD ADD MLOAD DUP6 DUP5 PUSH1 0x1 ADD DUP2 MLOAD DUP2 LT PUSH2 0x18A2 JUMPI INVALID JUMPDEST PUSH1 0x20 MUL PUSH1 0x20 ADD ADD MLOAD SWAP2 POP SWAP2 POP PUSH1 0x0 PUSH2 0x18BA DUP4 DUP4 PUSH2 0x1D69 JUMP JUMPDEST POP SWAP1 POP PUSH1 0x0 PUSH2 0x18EA PUSH32 0x0 DUP6 DUP6 PUSH2 0x12D3 JUMP JUMPDEST SWAP1 POP PUSH1 0x0 DUP1 PUSH1 0x0 DUP1 DUP5 PUSH1 0x1 PUSH1 0x1 PUSH1 0xA0 SHL SUB AND PUSH4 0x902F1AC PUSH1 0x40 MLOAD DUP2 PUSH4 0xFFFFFFFF AND PUSH1 0xE0 SHL DUP2 MSTORE PUSH1 0x4 ADD PUSH1 0x60 PUSH1 0x40 MLOAD DUP1 DUP4 SUB DUP2 DUP7 DUP1 EXTCODESIZE ISZERO DUP1 ISZERO PUSH2 0x192B JUMPI PUSH1 0x0 DUP1 REVERT JUMPDEST POP GAS STATICCALL ISZERO DUP1 ISZERO PUSH2 0x193F JUMPI RETURNDATASIZE PUSH1 0x0 DUP1 RETURNDATACOPY RETURNDATASIZE PUSH1 0x0 REVERT JUMPDEST POP POP POP POP PUSH1 0x40 MLOAD RETURNDATASIZE PUSH1 0x60 DUP2 LT ISZERO PUSH2 0x1955 JUMPI PUSH1 0x0 DUP1 REVERT JUMPDEST POP DUP1 MLOAD PUSH1 0x20 SWAP1 SWAP2 ADD MLOAD PUSH1 0x1 PUSH1 0x1 PUSH1 0x70 SHL SUB SWAP2 DUP3 AND SWAP4 POP AND SWAP1 POP PUSH1 0x0 DUP1 PUSH1 0x1 PUSH1 0x1 PUSH1 0xA0 SHL SUB DUP11 DUP2 AND SWAP1 DUP10 AND EQ PUSH2 0x198B JUMPI DUP3 DUP5 PUSH2 0x198E JUMP JUMPDEST DUP4 DUP4 JUMPDEST SWAP2 POP SWAP2 POP PUSH2 0x19EC DUP3 DUP12 PUSH1 0x1 PUSH1 0x1 PUSH1 0xA0 SHL SUB AND PUSH4 0x70A08231 DUP11 PUSH1 0x40 MLOAD DUP3 PUSH4 0xFFFFFFFF AND PUSH1 0xE0 SHL DUP2 MSTORE PUSH1 0x4 ADD DUP1 DUP3 PUSH1 0x1 PUSH1 0x1 PUSH1 0xA0 SHL SUB AND PUSH1 0x1 PUSH1 0x1 PUSH1 0xA0 SHL SUB AND DUP2 MSTORE PUSH1 0x20 ADD SWAP2 POP POP PUSH1 0x20 PUSH1 0x40 MLOAD DUP1 DUP4 SUB DUP2 DUP7 DUP1 EXTCODESIZE ISZERO DUP1 ISZERO PUSH2 0xB33 JUMPI PUSH1 0x0 DUP1 REVERT JUMPDEST SWAP6 POP PUSH2 0x19F9 DUP7 DUP4 DUP4 PUSH2 0x1096 JUMP JUMPDEST SWAP5 POP POP POP POP POP PUSH1 0x0 DUP1 DUP6 PUSH1 0x1 PUSH1 0x1 PUSH1 0xA0 SHL SUB AND DUP9 PUSH1 0x1 PUSH1 0x1 PUSH1 0xA0 SHL SUB AND EQ PUSH2 0x1A23 JUMPI DUP3 PUSH1 0x0 PUSH2 0x1A27 JUMP JUMPDEST PUSH1 0x0 DUP4 JUMPDEST SWAP2 POP SWAP2 POP PUSH1 0x0 PUSH1 0x2 DUP13 MLOAD SUB DUP11 LT PUSH2 0x1A3E JUMPI DUP11 PUSH2 0x1A72 JUMP JUMPDEST PUSH2 0x1A72 PUSH32 0x0 DUP10 DUP15 DUP14 PUSH1 0x2 ADD DUP2 MLOAD DUP2 LT PUSH2 0x1705 JUMPI INVALID JUMPDEST PUSH1 0x40 DUP1 MLOAD PUSH1 0x0 DUP1 DUP3 MSTORE PUSH1 0x20 DUP3 ADD SWAP3 DUP4 SWAP1 MSTORE PUSH4 0x22C0D9F PUSH1 0xE0 SHL DUP4 MSTORE PUSH1 0x24 DUP3 ADD DUP8 DUP2 MSTORE PUSH1 0x44 DUP4 ADD DUP8 SWAP1 MSTORE PUSH1 0x1 PUSH1 0x1 PUSH1 0xA0 SHL SUB DUP1 DUP7 AND PUSH1 0x64 DUP6 ADD MSTORE PUSH1 0x80 PUSH1 0x84 DUP6 ADD SWAP1 DUP2 MSTORE DUP5 MLOAD PUSH1 0xA4 DUP7 ADD DUP2 SWAP1 MSTORE SWAP7 SWAP8 POP SWAP1 DUP13 AND SWAP6 PUSH4 0x22C0D9F SWAP6 DUP11 SWAP6 DUP11 SWAP6 DUP11 SWAP6 SWAP2 SWAP5 SWAP2 SWAP4 SWAP2 SWAP3 PUSH1 0xC4 DUP7 ADD SWAP3 SWAP1 SWAP2 DUP2 SWAP1 DUP5 SWAP1 DUP5 SWAP1 JUMPDEST DUP4 DUP2 LT ISZERO PUSH2 0x1AFC JUMPI DUP2 DUP2 ADD MLOAD DUP4 DUP3 ADD MSTORE PUSH1 0x20 ADD PUSH2 0x1AE4 JUMP JUMPDEST POP POP POP POP SWAP1 POP SWAP1 DUP2 ADD SWAP1 PUSH1 0x1F AND DUP1 ISZERO PUSH2 0x1B29 JUMPI DUP1 DUP3 SUB DUP1 MLOAD PUSH1 0x1 DUP4 PUSH1 0x20 SUB PUSH2 0x100 EXP SUB NOT AND DUP2 MSTORE PUSH1 0x20 ADD SWAP2 POP JUMPDEST POP SWAP6 POP POP POP POP POP POP PUSH1 0x0 PUSH1 0x40 MLOAD DUP1 DUP4 SUB DUP2 PUSH1 0x0 DUP8 DUP1 EXTCODESIZE ISZERO DUP1 ISZERO PUSH2 0x1B4B JUMPI PUSH1 0x0 DUP1 REVERT JUMPDEST POP GAS CALL ISZERO DUP1 ISZERO PUSH2 0x1B5F JUMPI RETURNDATASIZE PUSH1 0x0 DUP1 RETURNDATACOPY RETURNDATASIZE PUSH1 0x0 REVERT JUMPDEST POP POP PUSH1 0x1 SWAP1 SWAP12 ADD SWAP11 POP PUSH2 0x1870 SWAP10 POP POP POP POP POP POP POP POP POP POP JUMP JUMPDEST POP POP POP JUMP JUMPDEST DUP1 DUP3 SUB DUP3 DUP2 GT ISZERO PUSH2 0x639 JUMPI PUSH1 0x40 DUP1 MLOAD PUSH3 0x461BCD PUSH1 0xE5 SHL DUP2 MSTORE PUSH1 0x20 PUSH1 0x4 DUP3 ADD MSTORE PUSH1 0x15 PUSH1 0x24 DUP3 ADD MSTORE PUSH21 0x64732D6D6174682D7375622D756E646572666C6F77 PUSH1 0x58 SHL PUSH1 0x44 DUP3 ADD MSTORE SWAP1 MLOAD SWAP1 DUP2 SWAP1 SUB PUSH1 0x64 ADD SWAP1 REVERT JUMPDEST PUSH1 0x0 DUP1 DUP5 GT PUSH2 0x1C0D JUMPI PUSH1 0x40 MLOAD PUSH3 0x461BCD PUSH1 0xE5 SHL DUP2 MSTORE PUSH1 0x4 ADD DUP1 DUP1 PUSH1 0x20 ADD DUP3 DUP2 SUB DUP3 MSTORE PUSH1 0x2D DUP2 MSTORE PUSH1 0x20 ADD DUP1 PUSH2 0x2308 PUSH1 0x2D SWAP2 CODECOPY PUSH1 0x40 ADD SWAP2 POP POP PUSH1 0x40 MLOAD DUP1 SWAP2 SUB SWAP1 REVERT JUMPDEST PUSH1 0x0 DUP4 GT DUP1 ISZERO PUSH2 0x1C1D JUMPI POP PUSH1 0x0 DUP3 GT JUMPDEST PUSH2 0x1C58 JUMPI PUSH1 0x40 MLOAD PUSH3 0x461BCD PUSH1 0xE5 SHL DUP2 MSTORE PUSH1 0x4 ADD DUP1 DUP1 PUSH1 0x20 ADD DUP3 DUP2 SUB DUP3 MSTORE PUSH1 0x29 DUP2 MSTORE PUSH1 0x20 ADD DUP1 PUSH2 0x2235 PUSH1 0x29 SWAP2 CODECOPY PUSH1 0x40 ADD SWAP2 POP POP PUSH1 0x40 MLOAD DUP1 SWAP2 SUB SWAP1 REVERT JUMPDEST PUSH1 0x0 PUSH2 0x1C7C PUSH2 0x3E8 PUSH2 0x1C70 DUP7 DUP9 PUSH4 0xFFFFFFFF PUSH2 0x20BB AND JUMP JUMPDEST SWAP1 PUSH4 0xFFFFFFFF PUSH2 0x20BB AND JUMP JUMPDEST SWAP1 POP PUSH1 0x0 PUSH2 0x1C96 PUSH2 0x3E5 PUSH2 0x1C70 DUP7 DUP10 PUSH4 0xFFFFFFFF PUSH2 0x1B7D AND JUMP JUMPDEST SWAP1 POP PUSH2 0x1CB3 PUSH1 0x1 DUP3 DUP5 DUP2 PUSH2 0x1CA6 JUMPI INVALID JUMPDEST DIV SWAP1 PUSH4 0xFFFFFFFF PUSH2 0x211E AND JUMP JUMPDEST SWAP7 SWAP6 POP POP POP POP POP POP JUMP JUMPDEST PUSH1 0x0 DUP1 DUP5 GT PUSH2 0x1CFD JUMPI PUSH1 0x40 MLOAD PUSH3 0x461BCD PUSH1 0xE5 SHL DUP2 MSTORE PUSH1 0x4 ADD DUP1 DUP1 PUSH1 0x20 ADD DUP3 DUP2 SUB DUP3 MSTORE PUSH1 0x26 DUP2 MSTORE PUSH1 0x20 ADD DUP1 PUSH2 0x22B6 PUSH1 0x26 SWAP2 CODECOPY PUSH1 0x40 ADD SWAP2 POP POP PUSH1 0x40 MLOAD DUP1 SWAP2 SUB SWAP1 REVERT JUMPDEST PUSH1 0x0 DUP4 GT DUP1 ISZERO PUSH2 0x1D0D JUMPI POP PUSH1 0x0 DUP3 GT JUMPDEST PUSH2 0x1D48 JUMPI PUSH1 0x40 MLOAD PUSH3 0x461BCD PUSH1 0xE5 SHL DUP2 MSTORE PUSH1 0x4 ADD DUP1 DUP1 PUSH1 0x20 ADD DUP3 DUP2 SUB DUP3 MSTORE PUSH1 0x29 DUP2 MSTORE PUSH1 0x20 ADD DUP1 PUSH2 0x2235 PUSH1 0x29 SWAP2 CODECOPY PUSH1 0x40 ADD SWAP2 POP POP PUSH1 0x40 MLOAD DUP1 SWAP2 SUB SWAP1 REVERT JUMPDEST DUP3 PUSH2 0x1D59 DUP6 DUP5 PUSH4 0xFFFFFFFF PUSH2 0x20BB AND JUMP JUMPDEST DUP2 PUSH2 0x1D60 JUMPI INVALID JUMPDEST DIV SWAP5 SWAP4 POP POP POP POP JUMP JUMPDEST PUSH1 0x0 DUP1 DUP3 PUSH1 0x1 PUSH1 0x1 PUSH1 0xA0 SHL SUB AND DUP5 PUSH1 0x1 PUSH1 0x1 PUSH1 0xA0 SHL SUB AND EQ ISZERO PUSH2 0x1DBD JUMPI PUSH1 0x40 MLOAD PUSH3 0x461BCD PUSH1 0xE5 SHL DUP2 MSTORE PUSH1 0x4 ADD DUP1 DUP1 PUSH1 0x20 ADD DUP3 DUP2 SUB DUP3 MSTORE PUSH1 0x26 DUP2 MSTORE PUSH1 0x20 ADD DUP1 PUSH2 0x23D0 PUSH1 0x26 SWAP2 CODECOPY PUSH1 0x40 ADD SWAP2 POP POP PUSH1 0x40 MLOAD DUP1 SWAP2 SUB SWAP1 REVERT JUMPDEST DUP3 PUSH1 0x1 PUSH1 0x1 PUSH1 0xA0 SHL SUB AND DUP5 PUSH1 0x1 PUSH1 0x1 PUSH1 0xA0 SHL SUB AND LT PUSH2 0x1DDD JUMPI DUP3 DUP5 PUSH2 0x1DE0 JUMP JUMPDEST DUP4 DUP4 JUMPDEST SWAP1 SWAP3 POP SWAP1 POP PUSH1 0x1 PUSH1 0x1 PUSH1 0xA0 SHL SUB DUP3 AND PUSH2 0x1E40 JUMPI PUSH1 0x40 DUP1 MLOAD PUSH3 0x461BCD PUSH1 0xE5 SHL DUP2 MSTORE PUSH1 0x20 PUSH1 0x4 DUP3 ADD MSTORE PUSH1 0x1F PUSH1 0x24 DUP3 ADD MSTORE PUSH32 0x59756E617377617056324C6962726172793A205A45524F5F4144445245535300 PUSH1 0x44 DUP3 ADD MSTORE SWAP1 MLOAD SWAP1 DUP2 SWAP1 SUB PUSH1 0x64 ADD SWAP1 REVERT JUMPDEST SWAP3 POP SWAP3 SWAP1 POP JUMP JUMPDEST PUSH1 0x40 DUP1 MLOAD PUSH4 0xE6A43905 PUSH1 0xE0 SHL DUP2 MSTORE PUSH1 0x1 PUSH1 0x1 PUSH1 0xA0 SHL SUB DUP9 DUP2 AND PUSH1 0x4 DUP4 ADD MSTORE DUP8 DUP2 AND PUSH1 0x24 DUP4 ADD MSTORE SWAP2 MLOAD PUSH1 0x0 SWAP3 DUP4 SWAP3 DUP4 SWAP3 PUSH32 0x0 SWAP1 SWAP3 AND SWAP2 PUSH4 0xE6A43905 SWAP2 PUSH1 0x44 DUP1 DUP3 ADD SWAP3 PUSH1 0x20 SWAP3 SWAP1 SWAP2 SWAP1 DUP3 SWAP1 SUB ADD DUP2 DUP7 DUP1 EXTCODESIZE ISZERO DUP1 ISZERO PUSH2 0x1EC1 JUMPI PUSH1 0x0 DUP1 REVERT JUMPDEST POP GAS STATICCALL ISZERO DUP1 ISZERO PUSH2 0x1ED5 JUMPI RETURNDATASIZE PUSH1 0x0 DUP1 RETURNDATACOPY RETURNDATASIZE PUSH1 0x0 REVERT JUMPDEST POP POP POP POP PUSH1 0x40 MLOAD RETURNDATASIZE PUSH1 0x20 DUP2 LT ISZERO PUSH2 0x1EEB JUMPI PUSH1 0x0 DUP1 REVERT JUMPDEST POP MLOAD PUSH1 0x1 PUSH1 0x1 PUSH1 0xA0 SHL SUB AND EQ ISZERO PUSH2 0x1F9E JUMPI PUSH1 0x40 DUP1 MLOAD PUSH4 0x64E329CB PUSH1 0xE1 SHL DUP2 MSTORE PUSH1 0x1 PUSH1 0x1 PUSH1 0xA0 SHL SUB DUP11 DUP2 AND PUSH1 0x4 DUP4 ADD MSTORE DUP10 DUP2 AND PUSH1 0x24 DUP4 ADD MSTORE SWAP2 MLOAD PUSH32 0x0 SWAP1 SWAP3 AND SWAP2 PUSH4 0xC9C65396 SWAP2 PUSH1 0x44 DUP1 DUP3 ADD SWAP3 PUSH1 0x20 SWAP3 SWAP1 SWAP2 SWAP1 DUP3 SWAP1 SUB ADD DUP2 PUSH1 0x0 DUP8 DUP1 EXTCODESIZE ISZERO DUP1 ISZERO PUSH2 0x1F71 JUMPI PUSH1 0x0 DUP1 REVERT JUMPDEST POP GAS CALL ISZERO DUP1 ISZERO PUSH2 0x1F85 JUMPI RETURNDATASIZE PUSH1 0x0 DUP1 RETURNDATACOPY RETURNDATASIZE PUSH1 0x0 REVERT JUMPDEST POP POP POP POP PUSH1 0x40 MLOAD RETURNDATASIZE PUSH1 0x20 DUP2 LT ISZERO PUSH2 0x1F9B JUMPI PUSH1 0x0 DUP1 REVERT JUMPDEST POP POP JUMPDEST PUSH1 0x0 DUP1 PUSH2 0x1FCC PUSH32 0x0 DUP12 DUP12 PUSH2 0x216D JUMP JUMPDEST SWAP2 POP SWAP2 POP DUP2 PUSH1 0x0 EQ DUP1 ISZERO PUSH2 0x1FDE JUMPI POP DUP1 ISZERO JUMPDEST ISZERO PUSH2 0x1FEE JUMPI DUP8 SWAP4 POP DUP7 SWAP3 POP PUSH2 0x20AE JUMP JUMPDEST PUSH1 0x0 PUSH2 0x1FFB DUP10 DUP5 DUP5 PUSH2 0x1CBD JUMP JUMPDEST SWAP1 POP DUP8 DUP2 GT PUSH2 0x204E JUMPI DUP6 DUP2 LT ISZERO PUSH2 0x2043 JUMPI PUSH1 0x40 MLOAD PUSH3 0x461BCD PUSH1 0xE5 SHL DUP2 MSTORE PUSH1 0x4 ADD DUP1 DUP1 PUSH1 0x20 ADD DUP3 DUP2 SUB DUP3 MSTORE PUSH1 0x27 DUP2 MSTORE PUSH1 0x20 ADD DUP1 PUSH2 0x2361 PUSH1 0x27 SWAP2 CODECOPY PUSH1 0x40 ADD SWAP2 POP POP PUSH1 0x40 MLOAD DUP1 SWAP2 SUB SWAP1 REVERT JUMPDEST DUP9 SWAP5 POP SWAP3 POP DUP3 PUSH2 0x20AC JUMP JUMPDEST PUSH1 0x0 PUSH2 0x205B DUP10 DUP5 DUP7 PUSH2 0x1CBD JUMP JUMPDEST SWAP1 POP DUP10 DUP2 GT ISZERO PUSH2 0x2067 JUMPI INVALID JUMPDEST DUP8 DUP2 LT ISZERO PUSH2 0x20A6 JUMPI PUSH1 0x40 MLOAD PUSH3 0x461BCD PUSH1 0xE5 SHL DUP2 MSTORE PUSH1 0x4 ADD DUP1 DUP1 PUSH1 0x20 ADD DUP3 DUP2 SUB DUP3 MSTORE PUSH1 0x27 DUP2 MSTORE PUSH1 0x20 ADD DUP1 PUSH2 0x225E PUSH1 0x27 SWAP2 CODECOPY PUSH1 0x40 ADD SWAP2 POP POP PUSH1 0x40 MLOAD DUP1 SWAP2 SUB SWAP1 REVERT JUMPDEST SWAP5 POP DUP8 SWAP4 POP JUMPDEST POP JUMPDEST POP POP SWAP7 POP SWAP7 SWAP5 POP POP POP POP POP JUMP JUMPDEST PUSH1 0x0 DUP2 ISZERO DUP1 PUSH2 0x20D6 JUMPI POP POP DUP1 DUP3 MUL DUP3 DUP3 DUP3 DUP2 PUSH2 0x20D3 JUMPI INVALID JUMPDEST DIV EQ JUMPDEST PUSH2 0x639 JUMPI PUSH1 0x40 DUP1 MLOAD PUSH3 0x461BCD PUSH1 0xE5 SHL DUP2 MSTORE PUSH1 0x20 PUSH1 0x4 DUP3 ADD MSTORE PUSH1 0x14 PUSH1 0x24 DUP3 ADD MSTORE PUSH20 0x64732D6D6174682D6D756C2D6F766572666C6F77 PUSH1 0x60 SHL PUSH1 0x44 DUP3 ADD MSTORE SWAP1 MLOAD SWAP1 DUP2 SWAP1 SUB PUSH1 0x64 ADD SWAP1 REVERT JUMPDEST DUP1 DUP3 ADD DUP3 DUP2 LT ISZERO PUSH2 0x639 JUMPI PUSH1 0x40 DUP1 MLOAD PUSH3 0x461BCD PUSH1 0xE5 SHL DUP2 MSTORE PUSH1 0x20 PUSH1 0x4 DUP3 ADD MSTORE PUSH1 0x14 PUSH1 0x24 DUP3 ADD MSTORE PUSH20 0x64732D6D6174682D6164642D6F766572666C6F77 PUSH1 0x60 SHL PUSH1 0x44 DUP3 ADD MSTORE SWAP1 MLOAD SWAP1 DUP2 SWAP1 SUB PUSH1 0x64 ADD SWAP1 REVERT JUMPDEST PUSH1 0x0 DUP1 PUSH1 0x0 PUSH2 0x217C DUP6 DUP6 PUSH2 0x1D69 JUMP JUMPDEST POP SWAP1 POP PUSH1 0x0 DUP1 PUSH2 0x218D DUP9 DUP9 DUP9 PUSH2 0x12D3 JUMP JUMPDEST PUSH1 0x1 PUSH1 0x1 PUSH1 0xA0 SHL SUB AND PUSH4 0x902F1AC PUSH1 0x40 MLOAD DUP2 PUSH4 0xFFFFFFFF AND PUSH1 0xE0 SHL DUP2 MSTORE PUSH1 0x4 ADD PUSH1 0x60 PUSH1 0x40 MLOAD DUP1 DUP4 SUB DUP2 DUP7 DUP1 EXTCODESIZE ISZERO DUP1 ISZERO PUSH2 0x21C5 JUMPI PUSH1 0x0 DUP1 REVERT JUMPDEST POP GAS STATICCALL ISZERO DUP1 ISZERO PUSH2 0x21D9 JUMPI RETURNDATASIZE PUSH1 0x0 DUP1 RETURNDATACOPY RETURNDATASIZE PUSH1 0x0 REVERT JUMPDEST POP POP POP POP PUSH1 0x40 MLOAD RETURNDATASIZE PUSH1 0x60 DUP2 LT ISZERO PUSH2 0x21EF JUMPI PUSH1 0x0 DUP1 REVERT JUMPDEST POP DUP1 MLOAD PUSH1 0x20 SWAP1 SWAP2 ADD MLOAD PUSH1 0x1 PUSH1 0x1 PUSH1 0x70 SHL SUB SWAP2 DUP3 AND SWAP4 POP AND SWAP1 POP PUSH1 0x1 PUSH1 0x1 PUSH1 0xA0 SHL SUB DUP8 DUP2 AND SWAP1 DUP5 AND EQ PUSH2 0x2222 JUMPI DUP1 DUP3 PUSH2 0x2225 JUMP JUMPDEST DUP2 DUP2 JUMPDEST SWAP1 SWAP10 SWAP1 SWAP9 POP SWAP7 POP POP POP POP POP POP POP JUMP INVALID MSIZE PUSH22 0x6E617377617056324C6962726172793A20494E535546 CHAINID 0x49 NUMBER 0x49 GASLIMIT 0x4E SLOAD 0x5F 0x4C 0x49 MLOAD SSTORE 0x49 DIFFICULTY 0x49 SLOAD MSIZE MSIZE PUSH22 0x6E61737761705632526F757465723A20494E53554646 0x49 NUMBER 0x49 GASLIMIT 0x4E SLOAD 0x5F COINBASE 0x5F COINBASE 0x4D 0x4F SSTORE 0x4E SLOAD SLOAD PUSH19 0x616E7366657248656C7065723A3A7472616E73 PUSH7 0x657246726F6D3A KECCAK256 PUSH21 0x72616E7366657246726F6D206661696C656459756E PUSH2 0x7377 PUSH2 0x7056 ORIGIN 0x4C PUSH10 0x62726172793A20494E53 SSTORE CHAINID CHAINID 0x49 NUMBER 0x49 GASLIMIT 0x4E SLOAD 0x5F COINBASE 0x4D 0x4F SSTORE 0x4E SLOAD MSIZE PUSH22 0x6E617377617056324C6962726172793A20494E535546 CHAINID 0x49 NUMBER 0x49 GASLIMIT 0x4E SLOAD 0x5F 0x49 0x4E POP SSTORE SLOAD 0x5F COINBASE 0x4D 0x4F SSTORE 0x4E SLOAD MSIZE PUSH22 0x6E617377617056324C6962726172793A20494E535546 CHAINID 0x49 NUMBER 0x49 GASLIMIT 0x4E SLOAD 0x5F 0x4F SSTORE SLOAD POP SSTORE SLOAD 0x5F COINBASE 0x4D 0x4F SSTORE 0x4E SLOAD MSIZE PUSH22 0x6E61737761705632526F757465723A20494E53554646 0x49 NUMBER 0x49 GASLIMIT 0x4E SLOAD 0x5F 0x4F SSTORE SLOAD POP SSTORE SLOAD 0x5F COINBASE 0x4D 0x4F SSTORE 0x4E SLOAD MSIZE PUSH22 0x6E61737761705632526F757465723A20494E53554646 0x49 NUMBER 0x49 GASLIMIT 0x4E SLOAD 0x5F TIMESTAMP 0x5F COINBASE 0x4D 0x4F SSTORE 0x4E SLOAD MSIZE PUSH22 0x6E61737761705632526F757465723A20455843455353 0x49 JUMP GASLIMIT 0x5F 0x49 0x4E POP SSTORE SLOAD 0x5F COINBASE 0x4D 0x4F SSTORE 0x4E SLOAD MSIZE PUSH22 0x6E61737761705632526F757465723A20455850495245 DIFFICULTY STOP STOP STOP STOP STOP STOP STOP MSIZE PUSH22 0x6E617377617056324C6962726172793A204944454E54 0x49 NUMBER COINBASE 0x4C 0x5F COINBASE DIFFICULTY DIFFICULTY MSTORE GASLIMIT MSTORE8 MSTORE8 GASLIMIT MSTORE8 LOG2 PUSH5 0x6970667358 0x22 SLT KECCAK256 0xC2 DUP11 0x2F RETURN JUMPDEST 0x21 CODECOPY CODESIZE SGT 0xE9 OR 0xFB 0x2D DUP1 0xBD EXTCODEHASH SWAP13 0xD6 EQ REVERT 0x2F 0xE9 LOG1 PUSH29 0xDAA76BF9C1A220D464736F6C6343000606003300000000000000000000 "
				},
				"gasEstimates": {
					"creation": {
						"codeDepositCost": "1851800",
						"executionCost": "infinite",
						"totalCost": "infinite"
					},
					"external": {
						"addLiquidity(address,address,uint256,uint256,uint256,uint256,address,uint256)": "infinite",
						"factory()": "infinite",
						"getAmountIn(uint256,uint256,uint256)": "infinite",
						"getAmountOut(uint256,uint256,uint256)": "infinite",
						"getAmountsIn(uint256,address[])": "infinite",
						"getAmountsOut(uint256,address[])": "infinite",
						"quote(uint256,uint256,uint256)": "infinite",
						"removeLiquidity(address,address,uint256,uint256,uint256,address,uint256)": "infinite",
						"removeLiquidityWithPermit(address,address,uint256,uint256,uint256,address,uint256,bool,uint8,bytes32,bytes32)": "infinite",
						"swapExactTokensForTokens(uint256,uint256,address[],address,uint256)": "infinite",
						"swapExactTokensForTokensSupportingFeeOnTransferTokens(uint256,uint256,address[],address,uint256)": "infinite",
						"swapTokensForExactTokens(uint256,uint256,address[],address,uint256)": "infinite"
					},
					"internal": {
						"_addLiquidity(address,address,uint256,uint256,uint256,uint256)": "infinite",
						"_swap(uint256[] memory,address[] memory,address)": "infinite",
						"_swapSupportingFeeOnTransferTokens(address[] memory,address)": "infinite"
					}
				},
				"methodIdentifiers": {
					"addLiquidity(address,address,uint256,uint256,uint256,uint256,address,uint256)": "e8e33700",
					"factory()": "c45a0155",
					"getAmountIn(uint256,uint256,uint256)": "85f8c259",
					"getAmountOut(uint256,uint256,uint256)": "054d50d4",
					"getAmountsIn(uint256,address[])": "1f00ca74",
					"getAmountsOut(uint256,address[])": "d06ca61f",
					"quote(uint256,uint256,uint256)": "ad615dec",
					"removeLiquidity(address,address,uint256,uint256,uint256,address,uint256)": "baa2abde",
					"removeLiquidityWithPermit(address,address,uint256,uint256,uint256,address,uint256,bool,uint8,bytes32,bytes32)": "2195995c",
					"swapExactTokensForTokens(uint256,uint256,address[],address,uint256)": "38ed1739",
					"swapExactTokensForTokensSupportingFeeOnTransferTokens(uint256,uint256,address[],address,uint256)": "5c11d795",
					"swapTokensForExactTokens(uint256,uint256,address[],address,uint256)": "8803dbee"
				}
			},
			"storageLayout": {
				"storage": [],
				"types": null
			},
			"userdoc": {
				"methods": {}
			}
		}
	}
}