{
	"data": {
		"bytecode": {
			"linkReferences": {},
			"object": "608060405234801562000010575f80fd5b50336040518060400160405280600781526020017f59756e614e4654000000000000000000000000000000000000000000000000008152506040518060400160405280600481526020017f594e465400000000000000000000000000000000000000000000000000000000815250815f90816200008e919062000455565b508060019081620000a0919062000455565b5050505f73ffffffffffffffffffffffffffffffffffffffff168173ffffffffffffffffffffffffffffffffffffffff160362000116575f6040517f1e4fbdf70000000000000000000000000000000000000000000000000000000081526004016200010d91906200057c565b60405180910390fd5b62000127816200012e60201b60201c565b5062000597565b5f60075f9054906101000a900473ffffffffffffffffffffffffffffffffffffffff1690508160075f6101000a81548173ffffffffffffffffffffffffffffffffffffffff021916908373ffffffffffffffffffffffffffffffffffffffff1602179055508173ffffffffffffffffffffffffffffffffffffffff168173ffffffffffffffffffffffffffffffffffffffff167f8be0079c531659141344cd1fd0a4f28419497f9722a3daafe3b4186f6b6457e060405160405180910390a35050565b5f81519050919050565b7f4e487b71000000000000000000000000000000000000000000000000000000005f52604160045260245ffd5b7f4e487b71000000000000000000000000000000000000000000000000000000005f52602260045260245ffd5b5f60028204905060018216806200026d57607f821691505b60208210810362000283576200028262000228565b5b50919050565b5f819050815f5260205f209050919050565b5f6020601f8301049050919050565b5f82821b905092915050565b5f60088302620002e77fffffffffffffffffffffffffffffffffffffffffffffffffffffffffffffffff82620002aa565b620002f38683620002aa565b95508019841693508086168417925050509392505050565b5f819050919050565b5f819050919050565b5f6200033d6200033762000331846200030b565b62000314565b6200030b565b9050919050565b5f819050919050565b62000358836200031d565b62000370620003678262000344565b848454620002b6565b825550505050565b5f90565b6200038662000378565b620003938184846200034d565b505050565b5b81811015620003ba57620003ae5f826200037c565b60018101905062000399565b5050565b601f8211156200040957620003d38162000289565b620003de846200029b565b81016020851015620003ee578190505b62000406620003fd856200029b565b83018262000398565b50505b505050565b5f82821c905092915050565b5f6200042b5f19846008026200040e565b1980831691505092915050565b5f6200044583836200041a565b9150826002028217905092915050565b6200046082620001f1565b67ffffffffffffffff8111156200047c576200047b620001fb565b5b62000488825462000255565b62000495828285620003be565b5f60209050601f831160018114620004cb575f8415620004b6578287015190505b620004c2858262000438565b86555062000531565b601f198416620004db8662000289565b5f5b828110156200050457848901518255600182019150602085019450602081019050620004dd565b8683101562000524578489015162000520601f8916826200041a565b8355505b6001600288020188555050505b505050505050565b5f73ffffffffffffffffffffffffffffffffffffffff82169050919050565b5f620005648262000539565b9050919050565b620005768162000558565b82525050565b5f602082019050620005915f8301846200056b565b92915050565b612e0880620005a55f395ff3fe608060405234801561000f575f80fd5b506004361061012a575f3560e01c8063715018a6116100ab578063b88d4fde1161006f578063b88d4fde14610340578063c5aef3101461035c578063c87b56dd1461038c578063e985e9c5146103bc578063f2fde38b146103ec5761012a565b8063715018a6146102ae57806371f0442e146102b85780638da5cb5b146102e857806395d89b4114610306578063a22cb465146103245761012a565b806323b872dd116100f257806323b872dd146101e65780633a903d231461020257806342842e0e146102325780636352211e1461024e57806370a082311461027e5761012a565b806301ffc9a71461012e57806306fdde031461015e578063081812fc1461017c578063095ea7b3146101ac57806318160ddd146101c8575b5f80fd5b61014860048036038101906101439190611f0f565b610408565b6040516101559190611f54565b60405180910390f35b610166610468565b6040516101739190611ff7565b60405180910390f35b6101966004803603810190610191919061204a565b6104f7565b6040516101a391906120b4565b60405180910390f35b6101c660048036038101906101c191906120f7565b610512565b005b6101d0610528565b6040516101dd9190612144565b60405180910390f35b61020060048036038101906101fb919061215d565b610538565b005b61021c600480360381019061021791906122d9565b610637565b6040516102299190612144565b60405180910390f35b61024c6004803603810190610247919061215d565b6106ef565b005b6102686004803603810190610263919061204a565b61070e565b60405161027591906120b4565b60405180910390f35b61029860048036038101906102939190612391565b61071f565b6040516102a59190612144565b60405180910390f35b6102b66107d5565b005b6102d260048036038101906102cd919061204a565b6107e8565b6040516102df9190611ff7565b60405180910390f35b6102f06108d1565b6040516102fd91906120b4565b60405180910390f35b61030e6108f9565b60405161031b9190611ff7565b60405180910390f35b61033e600480360381019061033991906123e6565b610989565b005b61035a600480360381019061035591906124c2565b61099f565b005b610376600480360381019061037191906122d9565b6109c4565b6040516103839190612144565b60405180910390f35b6103a660048036038101906103a1919061204a565b610a5d565b6040516103b39190611ff7565b60405180910390f35b6103d660048036038101906103d19190612542565b610b68565b6040516103e39190611f54565b60405180910390f35b61040660048036038101906104019190612391565b610bf6565b005b5f634906490660e01b7bffffffffffffffffffffffffffffffffffffffffffffffffffffffff1916827bffffffffffffffffffffffffffffffffffffffffffffffffffffffff19161480610461575061046082610c7a565b5b9050919050565b60605f8054610476906125ad565b80601f01602080910402602001604051908101604052809291908181526020018280546104a2906125ad565b80156104ed5780601f106104c4576101008083540402835291602001916104ed565b820191905f5260205f20905b8154815290600101906020018083116104d057829003601f168201915b5050505050905090565b5f61050182610d5b565b5061050b82610de1565b9050919050565b610524828261051f610e1a565b610e21565b5050565b5f6105336008610e33565b905090565b5f73ffffffffffffffffffffffffffffffffffffffff168273ffffffffffffffffffffffffffffffffffffffff16036105a8575f6040517f64a0ae9200000000000000000000000000000000000000000000000000000000815260040161059f91906120b4565b60405180910390fd5b5f6105bb83836105b6610e1a565b610e3f565b90508373ffffffffffffffffffffffffffffffffffffffff168173ffffffffffffffffffffffffffffffffffffffff1614610631578382826040517f64283d7b000000000000000000000000000000000000000000000000000000008152600401610628939291906125dd565b60405180910390fd5b50505050565b5f61064061104a565b61064a60086110d1565b5f6106556008610e33565b905084600b5f8381526020019081526020015f20908161067591906127af565b505f84848760405160200161068c93929190612a2a565b60405160208183030381529060405290505f6106a7826110e5565b90505f816040516020016106bb9190612ae6565b60405160208183030381529060405290506106d68985611112565b6106e08482611205565b83945050505050949350505050565b61070983838360405180602001604052805f81525061099f565b505050565b5f61071882610d5b565b9050919050565b5f8073ffffffffffffffffffffffffffffffffffffffff168273ffffffffffffffffffffffffffffffffffffffff1603610790575f6040517f89c62b6400000000000000000000000000000000000000000000000000000000815260040161078791906120b4565b60405180910390fd5b60035f8373ffffffffffffffffffffffffffffffffffffffff1673ffffffffffffffffffffffffffffffffffffffff1681526020019081526020015f20549050919050565b6107dd61104a565b6107e65f61125f565b565b60606107f382611322565b610832576040517f08c379a000000000000000000000000000000000000000000000000000000000815260040161082990612b51565b60405180910390fd5b600b5f8381526020019081526020015f20805461084e906125ad565b80601f016020809104026020016040519081016040528092919081815260200182805461087a906125ad565b80156108c55780601f1061089c576101008083540402835291602001916108c5565b820191905f5260205f20905b8154815290600101906020018083116108a857829003601f168201915b50505050509050919050565b5f60075f9054906101000a900473ffffffffffffffffffffffffffffffffffffffff16905090565b606060018054610908906125ad565b80601f0160208091040260200160405190810160405280929190818152602001828054610934906125ad565b801561097f5780601f106109565761010080835404028352916020019161097f565b820191905f5260205f20905b81548152906001019060200180831161096257829003601f168201915b5050505050905090565b61099b610994610e1a565b838361138a565b5050565b6109aa848484610538565b6109be6109b5610e1a565b858585856114f3565b50505050565b5f6109cd61104a565b6109d760086110d1565b5f6109e26008610e33565b90505f8484876040516020016109fa93929190612a2a565b60405160208183030381529060405290505f610a15826110e5565b90505f81604051602001610a299190612ae6565b6040516020818303038152906040529050610a448985611112565b610a4e8482611205565b83945050505050949350505050565b6060610a6882610d5b565b505f60065f8481526020019081526020015f208054610a86906125ad565b80601f0160208091040260200160405190810160405280929190818152602001828054610ab2906125ad565b8015610afd5780601f10610ad457610100808354040283529160200191610afd565b820191905f5260205f20905b815481529060010190602001808311610ae057829003601f168201915b505050505090505f610b0d61169f565b90505f815103610b21578192505050610b63565b5f82511115610b55578082604051602001610b3d929190612b6f565b60405160208183030381529060405292505050610b63565b610b5e846116b5565b925050505b919050565b5f60055f8473ffffffffffffffffffffffffffffffffffffffff1673ffffffffffffffffffffffffffffffffffffffff1681526020019081526020015f205f8373ffffffffffffffffffffffffffffffffffffffff1673ffffffffffffffffffffffffffffffffffffffff1681526020019081526020015f205f9054906101000a900460ff16905092915050565b610bfe61104a565b5f73ffffffffffffffffffffffffffffffffffffffff168173ffffffffffffffffffffffffffffffffffffffff1603610c6e575f6040517f1e4fbdf7000000000000000000000000000000000000000000000000000000008152600401610c6591906120b4565b60405180910390fd5b610c778161125f565b50565b5f7f80ac58cd000000000000000000000000000000000000000000000000000000007bffffffffffffffffffffffffffffffffffffffffffffffffffffffff1916827bffffffffffffffffffffffffffffffffffffffffffffffffffffffff19161480610d4457507f5b5e139f000000000000000000000000000000000000000000000000000000007bffffffffffffffffffffffffffffffffffffffffffffffffffffffff1916827bffffffffffffffffffffffffffffffffffffffffffffffffffffffff1916145b80610d545750610d538261171b565b5b9050919050565b5f80610d6683611784565b90505f73ffffffffffffffffffffffffffffffffffffffff168173ffffffffffffffffffffffffffffffffffffffff1603610dd857826040517f7e273289000000000000000000000000000000000000000000000000000000008152600401610dcf9190612144565b60405180910390fd5b80915050919050565b5f60045f8381526020019081526020015f205f9054906101000a900473ffffffffffffffffffffffffffffffffffffffff169050919050565b5f33905090565b610e2e83838360016117bd565b505050565b5f815f01549050919050565b5f80610e4a84611784565b90505f73ffffffffffffffffffffffffffffffffffffffff168373ffffffffffffffffffffffffffffffffffffffff1614610e8b57610e8a81848661197c565b5b5f73ffffffffffffffffffffffffffffffffffffffff168173ffffffffffffffffffffffffffffffffffffffff1614610f1657610eca5f855f806117bd565b600160035f8373ffffffffffffffffffffffffffffffffffffffff1673ffffffffffffffffffffffffffffffffffffffff1681526020019081526020015f205f82825403925050819055505b5f73ffffffffffffffffffffffffffffffffffffffff168573ffffffffffffffffffffffffffffffffffffffff1614610f9557600160035f8773ffffffffffffffffffffffffffffffffffffffff1673ffffffffffffffffffffffffffffffffffffffff1681526020019081526020015f205f82825401925050819055505b8460025f8681526020019081526020015f205f6101000a81548173ffffffffffffffffffffffffffffffffffffffff021916908373ffffffffffffffffffffffffffffffffffffffff160217905550838573ffffffffffffffffffffffffffffffffffffffff168273ffffffffffffffffffffffffffffffffffffffff167fddf252ad1be2c89b69c2b068fc378daa952ba7f163c4a11628f55a4df523b3ef60405160405180910390a4809150509392505050565b611052610e1a565b73ffffffffffffffffffffffffffffffffffffffff166110706108d1565b73ffffffffffffffffffffffffffffffffffffffff16146110cf57611093610e1a565b6040517f118cdaa70000000000000000000000000000000000000000000000000000000081526004016110c691906120b4565b60405180910390fd5b565b6001815f015f828254019250508190555050565b606061110b82604051806060016040528060408152602001612d93604091396001611a3f565b9050919050565b5f73ffffffffffffffffffffffffffffffffffffffff168273ffffffffffffffffffffffffffffffffffffffff1603611182575f6040517f64a0ae9200000000000000000000000000000000000000000000000000000000815260040161117991906120b4565b60405180910390fd5b5f61118e83835f610e3f565b90505f73ffffffffffffffffffffffffffffffffffffffff168173ffffffffffffffffffffffffffffffffffffffff1614611200575f6040517f73c6ac6e0000000000000000000000000000000000000000000000000000000081526004016111f791906120b4565b60405180910390fd5b505050565b8060065f8481526020019081526020015f20908161122391906127af565b507ff8e1a15aba9398e019f0b49df1a4fde98ee17ae345cb5f6b5e2c27f5033e8ce7826040516112539190612144565b60405180910390a15050565b5f60075f9054906101000a900473ffffffffffffffffffffffffffffffffffffffff1690508160075f6101000a81548173ffffffffffffffffffffffffffffffffffffffff021916908373ffffffffffffffffffffffffffffffffffffffff1602179055508173ffffffffffffffffffffffffffffffffffffffff168173ffffffffffffffffffffffffffffffffffffffff167f8be0079c531659141344cd1fd0a4f28419497f9722a3daafe3b4186f6b6457e060405160405180910390a35050565b5f8073ffffffffffffffffffffffffffffffffffffffff1660095f8481526020019081526020015f205f9054906101000a900473ffffffffffffffffffffffffffffffffffffffff1673ffffffffffffffffffffffffffffffffffffffff1614159050919050565b5f73ffffffffffffffffffffffffffffffffffffffff168273ffffffffffffffffffffffffffffffffffffffff16036113fa57816040517f5b08ba180000000000000000000000000000000000000000000000000000000081526004016113f191906120b4565b60405180910390fd5b8060055f8573ffffffffffffffffffffffffffffffffffffffff1673ffffffffffffffffffffffffffffffffffffffff1681526020019081526020015f205f8473ffffffffffffffffffffffffffffffffffffffff1673ffffffffffffffffffffffffffffffffffffffff1681526020019081526020015f205f6101000a81548160ff0219169083151502179055508173ffffffffffffffffffffffffffffffffffffffff168373ffffffffffffffffffffffffffffffffffffffff167f17307eab39ab6107e8899845ad3d59bd9653f200f220920489ca2b5937696c31836040516114e69190611f54565b60405180910390a3505050565b5f8373ffffffffffffffffffffffffffffffffffffffff163b1115611698578273ffffffffffffffffffffffffffffffffffffffff1663150b7a02868685856040518563ffffffff1660e01b81526004016115519493929190612be4565b6020604051808303815f875af192505050801561158c57506040513d601f19601f820116820180604052508101906115899190612c42565b60015b61160d573d805f81146115ba576040519150601f19603f3d011682016040523d82523d5f602084013e6115bf565b606091505b505f81510361160557836040517f64a0ae920000000000000000000000000000000000000000000000000000000081526004016115fc91906120b4565b60405180910390fd5b805160208201fd5b63150b7a0260e01b7bffffffffffffffffffffffffffffffffffffffffffffffffffffffff1916817bffffffffffffffffffffffffffffffffffffffffffffffffffffffff19161461169657836040517f64a0ae9200000000000000000000000000000000000000000000000000000000815260040161168d91906120b4565b60405180910390fd5b505b5050505050565b606060405180602001604052805f815250905090565b60606116c082610d5b565b505f6116ca61169f565b90505f8151116116e85760405180602001604052805f815250611713565b806116f284611bce565b604051602001611703929190612b6f565b6040516020818303038152906040525b915050919050565b5f7f01ffc9a7000000000000000000000000000000000000000000000000000000007bffffffffffffffffffffffffffffffffffffffffffffffffffffffff1916827bffffffffffffffffffffffffffffffffffffffffffffffffffffffff1916149050919050565b5f60025f8381526020019081526020015f205f9054906101000a900473ffffffffffffffffffffffffffffffffffffffff169050919050565b80806117f557505f73ffffffffffffffffffffffffffffffffffffffff168273ffffffffffffffffffffffffffffffffffffffff1614155b15611927575f61180484610d5b565b90505f73ffffffffffffffffffffffffffffffffffffffff168373ffffffffffffffffffffffffffffffffffffffff161415801561186e57508273ffffffffffffffffffffffffffffffffffffffff168173ffffffffffffffffffffffffffffffffffffffff1614155b8015611881575061187f8184610b68565b155b156118c357826040517fa9fbf51f0000000000000000000000000000000000000000000000000000000081526004016118ba91906120b4565b60405180910390fd5b811561192557838573ffffffffffffffffffffffffffffffffffffffff168273ffffffffffffffffffffffffffffffffffffffff167f8c5be1e5ebec7d5bd14f71427d1e84f3dd0314c0f7b2291e5b200ac8c7c3b92560405160405180910390a45b505b8360045f8581526020019081526020015f205f6101000a81548173ffffffffffffffffffffffffffffffffffffffff021916908373ffffffffffffffffffffffffffffffffffffffff16021790555050505050565b611987838383611c98565b611a3a575f73ffffffffffffffffffffffffffffffffffffffff168373ffffffffffffffffffffffffffffffffffffffff16036119fb57806040517f7e2732890000000000000000000000000000000000000000000000000000000081526004016119f29190612144565b60405180910390fd5b81816040517f177e802f000000000000000000000000000000000000000000000000000000008152600401611a31929190612c6d565b60405180910390fd5b505050565b60605f845103611a5f5760405180602001604052805f8152509050611bc7565b5f82611a90576003600286516004611a779190612cc1565b611a819190612d02565b611a8b9190612d62565b611ab7565b600360028651611aa09190612d02565b611aaa9190612d62565b6004611ab69190612cc1565b5b90505f8167ffffffffffffffff811115611ad457611ad36121b5565b5b6040519080825280601f01601f191660200182016040528015611b065781602001600182028036833780820191505090505b509050600185016020820187885189016020810180515f82525b82841015611b7b576003840193508351603f8160121c168701518653600186019550603f81600c1c168701518653600186019550603f8160061c168701518653600186019550603f8116870151865360018601955050611b20565b8082528915611bbb5760038c510660018114611b9e5760028114611bb157611bb9565b603d6001870353603d6002870353611bb9565b603d60018703535b505b50505050505080925050505b9392505050565b60605f6001611bdc84611d58565b0190505f8167ffffffffffffffff811115611bfa57611bf96121b5565b5b6040519080825280601f01601f191660200182016040528015611c2c5781602001600182028036833780820191505090505b5090505f82602083010190505b600115611c8d578080600190039150507f3031323334353637383961626364656600000000000000000000000000000000600a86061a8153600a8581611c8257611c81612d35565b5b0494505f8503611c39575b819350505050919050565b5f8073ffffffffffffffffffffffffffffffffffffffff168373ffffffffffffffffffffffffffffffffffffffff1614158015611d4f57508273ffffffffffffffffffffffffffffffffffffffff168473ffffffffffffffffffffffffffffffffffffffff161480611d105750611d0f8484610b68565b5b80611d4e57508273ffffffffffffffffffffffffffffffffffffffff16611d3683610de1565b73ffffffffffffffffffffffffffffffffffffffff16145b5b90509392505050565b5f805f90507a184f03e93ff9f4daa797ed6e38ed64bf6a1f0100000000000000008310611db4577a184f03e93ff9f4daa797ed6e38ed64bf6a1f0100000000000000008381611daa57611da9612d35565b5b0492506040810190505b6d04ee2d6d415b85acef81000000008310611df1576d04ee2d6d415b85acef81000000008381611de757611de6612d35565b5b0492506020810190505b662386f26fc100008310611e2057662386f26fc100008381611e1657611e15612d35565b5b0492506010810190505b6305f5e1008310611e49576305f5e1008381611e3f57611e3e612d35565b5b0492506008810190505b6127108310611e6e576127108381611e6457611e63612d35565b5b0492506004810190505b60648310611e915760648381611e8757611e86612d35565b5b0492506002810190505b600a8310611ea0576001810190505b80915050919050565b5f604051905090565b5f80fd5b5f80fd5b5f7fffffffff0000000000000000000000000000000000000000000000000000000082169050919050565b611eee81611eba565b8114611ef8575f80fd5b50565b5f81359050611f0981611ee5565b92915050565b5f60208284031215611f2457611f23611eb2565b5b5f611f3184828501611efb565b91505092915050565b5f8115159050919050565b611f4e81611f3a565b82525050565b5f602082019050611f675f830184611f45565b92915050565b5f81519050919050565b5f82825260208201905092915050565b5f5b83811015611fa4578082015181840152602081019050611f89565b5f8484015250505050565b5f601f19601f8301169050919050565b5f611fc982611f6d565b611fd38185611f77565b9350611fe3818560208601611f87565b611fec81611faf565b840191505092915050565b5f6020820190508181035f83015261200f8184611fbf565b905092915050565b5f819050919050565b61202981612017565b8114612033575f80fd5b50565b5f8135905061204481612020565b92915050565b5f6020828403121561205f5761205e611eb2565b5b5f61206c84828501612036565b91505092915050565b5f73ffffffffffffffffffffffffffffffffffffffff82169050919050565b5f61209e82612075565b9050919050565b6120ae81612094565b82525050565b5f6020820190506120c75f8301846120a5565b92915050565b6120d681612094565b81146120e0575f80fd5b50565b5f813590506120f1816120cd565b92915050565b5f806040838503121561210d5761210c611eb2565b5b5f61211a858286016120e3565b925050602061212b85828601612036565b9150509250929050565b61213e81612017565b82525050565b5f6020820190506121575f830184612135565b92915050565b5f805f6060848603121561217457612173611eb2565b5b5f612181868287016120e3565b9350506020612192868287016120e3565b92505060406121a386828701612036565b9150509250925092565b5f80fd5b5f80fd5b7f4e487b71000000000000000000000000000000000000000000000000000000005f52604160045260245ffd5b6121eb82611faf565b810181811067ffffffffffffffff8211171561220a576122096121b5565b5b80604052505050565b5f61221c611ea9565b905061222882826121e2565b919050565b5f67ffffffffffffffff821115612247576122466121b5565b5b61225082611faf565b9050602081019050919050565b828183375f83830152505050565b5f61227d6122788461222d565b612213565b905082815260208101848484011115612299576122986121b1565b5b6122a484828561225d565b509392505050565b5f82601f8301126122c0576122bf6121ad565b5b81356122d084826020860161226b565b91505092915050565b5f805f80608085870312156122f1576122f0611eb2565b5b5f6122fe878288016120e3565b945050602085013567ffffffffffffffff81111561231f5761231e611eb6565b5b61232b878288016122ac565b935050604085013567ffffffffffffffff81111561234c5761234b611eb6565b5b612358878288016122ac565b925050606085013567ffffffffffffffff81111561237957612378611eb6565b5b612385878288016122ac565b91505092959194509250565b5f602082840312156123a6576123a5611eb2565b5b5f6123b3848285016120e3565b91505092915050565b6123c581611f3a565b81146123cf575f80fd5b50565b5f813590506123e0816123bc565b92915050565b5f80604083850312156123fc576123fb611eb2565b5b5f612409858286016120e3565b925050602061241a858286016123d2565b9150509250929050565b5f67ffffffffffffffff82111561243e5761243d6121b5565b5b61244782611faf565b9050602081019050919050565b5f61246661246184612424565b612213565b905082815260208101848484011115612482576124816121b1565b5b61248d84828561225d565b509392505050565b5f82601f8301126124a9576124a86121ad565b5b81356124b9848260208601612454565b91505092915050565b5f805f80608085870312156124da576124d9611eb2565b5b5f6124e7878288016120e3565b94505060206124f8878288016120e3565b935050604061250987828801612036565b925050606085013567ffffffffffffffff81111561252a57612529611eb6565b5b61253687828801612495565b91505092959194509250565b5f806040838503121561255857612557611eb2565b5b5f612565858286016120e3565b9250506020612576858286016120e3565b9150509250929050565b7f4e487b71000000000000000000000000000000000000000000000000000000005f52602260045260245ffd5b5f60028204905060018216806125c457607f821691505b6020821081036125d7576125d6612580565b5b50919050565b5f6060820190506125f05f8301866120a5565b6125fd6020830185612135565b61260a60408301846120a5565b949350505050565b5f819050815f5260205f209050919050565b5f6020601f8301049050919050565b5f82821b905092915050565b5f6008830261266e7fffffffffffffffffffffffffffffffffffffffffffffffffffffffffffffffff82612633565b6126788683612633565b95508019841693508086168417925050509392505050565b5f819050919050565b5f6126b36126ae6126a984612017565b612690565b612017565b9050919050565b5f819050919050565b6126cc83612699565b6126e06126d8826126ba565b84845461263f565b825550505050565b5f90565b6126f46126e8565b6126ff8184846126c3565b505050565b5b81811015612722576127175f826126ec565b600181019050612705565b5050565b601f8211156127675761273881612612565b61274184612624565b81016020851015612750578190505b61276461275c85612624565b830182612704565b50505b505050565b5f82821c905092915050565b5f6127875f198460080261276c565b1980831691505092915050565b5f61279f8383612778565b9150826002028217905092915050565b6127b882611f6d565b67ffffffffffffffff8111156127d1576127d06121b5565b5b6127db82546125ad565b6127e6828285612726565b5f60209050601f831160018114612817575f8415612805578287015190505b61280f8582612794565b865550612876565b601f19841661282586612612565b5f5b8281101561284c57848901518255600182019150602085019450602081019050612827565b868310156128695784890151612865601f891682612778565b8355505b6001600288020188555050505b505050505050565b5f81905092915050565b7f7b226e616d65223a2022000000000000000000000000000000000000000000005f82015250565b5f6128bc600a8361287e565b91506128c782612888565b600a82019050919050565b5f6128dc82611f6d565b6128e6818561287e565b93506128f6818560208601611f87565b80840191505092915050565b7f222c0000000000000000000000000000000000000000000000000000000000005f82015250565b5f61293660028361287e565b915061294182612902565b600282019050919050565b7f226465736372697074696f6e223a2022000000000000000000000000000000005f82015250565b5f61298060108361287e565b915061298b8261294c565b601082019050919050565b7f22696d616765223a2022000000000000000000000000000000000000000000005f82015250565b5f6129ca600a8361287e565b91506129d582612996565b600a82019050919050565b7f227d0000000000000000000000000000000000000000000000000000000000005f82015250565b5f612a1460028361287e565b9150612a1f826129e0565b600282019050919050565b5f612a34826128b0565b9150612a4082866128d2565b9150612a4b8261292a565b9150612a5682612974565b9150612a6282856128d2565b9150612a6d8261292a565b9150612a78826129be565b9150612a8482846128d2565b9150612a8f82612a08565b9150819050949350505050565b7f646174613a6170706c69636174696f6e2f6a736f6e3b6261736536342c0000005f82015250565b5f612ad0601d8361287e565b9150612adb82612a9c565b601d82019050919050565b5f612af082612ac4565b9150612afc82846128d2565b915081905092915050565b7f546f6b656e20646f6573206e6f742065786973740000000000000000000000005f82015250565b5f612b3b601483611f77565b9150612b4682612b07565b602082019050919050565b5f6020820190508181035f830152612b6881612b2f565b9050919050565b5f612b7a82856128d2565b9150612b8682846128d2565b91508190509392505050565b5f81519050919050565b5f82825260208201905092915050565b5f612bb682612b92565b612bc08185612b9c565b9350612bd0818560208601611f87565b612bd981611faf565b840191505092915050565b5f608082019050612bf75f8301876120a5565b612c0460208301866120a5565b612c116040830185612135565b8181036060830152612c238184612bac565b905095945050505050565b5f81519050612c3c81611ee5565b92915050565b5f60208284031215612c5757612c56611eb2565b5b5f612c6484828501612c2e565b91505092915050565b5f604082019050612c805f8301856120a5565b612c8d6020830184612135565b9392505050565b7f4e487b71000000000000000000000000000000000000000000000000000000005f52601160045260245ffd5b5f612ccb82612017565b9150612cd683612017565b9250828202612ce481612017565b91508282048414831517612cfb57612cfa612c94565b5b5092915050565b5f612d0c82612017565b9150612d1783612017565b9250828201905080821115612d2f57612d2e612c94565b5b92915050565b7f4e487b71000000000000000000000000000000000000000000000000000000005f52601260045260245ffd5b5f612d6c82612017565b9150612d7783612017565b925082612d8757612d86612d35565b5b82820490509291505056fe4142434445464748494a4b4c4d4e4f505152535455565758595a6162636465666768696a6b6c6d6e6f707172737475767778797a303132333435363738392b2fa2646970667358221220c9e80b098d0b22624733632417cc3827507d5063eb0fb262525e4f51f01a708264736f6c63430008140033",
			"opcodes": "PUSH1 0x80 PUSH1 0x40 MSTORE CALLVALUE DUP1 ISZERO PUSH3 0x10 JUMPI PUSH0 DUP1 REVERT JUMPDEST POP CALLER PUSH1 0x40 MLOAD DUP1 PUSH1 0x40 ADD PUSH1 0x40 MSTORE DUP1 PUSH1 0x7 DUP2 MSTORE PUSH1 0x20 ADD PUSH32 0x59756E614E465400000000000000000000000000000000000000000000000000 DUP2 MSTORE POP PUSH1 0x40 MLOAD DUP1 PUSH1 0x40 ADD PUSH1 0x40 MSTORE DUP1 PUSH1 0x4 DUP2 MSTORE PUSH1 0x20 ADD PUSH32 0x594E465400000000000000000000000000000000000000000000000000000000 DUP2 MSTORE POP DUP2 PUSH0 SWAP1 DUP2 PUSH3 0x8E SWAP2 SWAP1 PUSH3 0x455 JUMP JUMPDEST POP DUP1 PUSH1 0x1 SWAP1 DUP2 PUSH3 0xA0 SWAP2 SWAP1 PUSH3 0x455 JUMP JUMPDEST POP POP POP PUSH0 PUSH20 0xFFFFFFFFFFFFFFFFFFFFFFFFFFFFFFFFFFFFFFFF AND DUP2 PUSH20 0xFFFFFFFFFFFFFFFFFFFFFFFFFFFFFFFFFFFFFFFF AND SUB PUSH3 0x116 JUMPI PUSH0 PUSH1 0x40 MLOAD PUSH32 0x1E4FBDF700000000000000000000000000000000000000000000000000000000 DUP2 MSTORE PUSH1 0x4 ADD PUSH3 0x10D SWAP2 SWAP1 PUSH3 0x57C JUMP JUMPDEST PUSH1 0x40 MLOAD DUP1 SWAP2 SUB SWAP1 REVERT JUMPDEST PUSH3 0x127 DUP2 PUSH3 0x12E PUSH1 0x20 SHL PUSH1 0x20 SHR JUMP JUMPDEST POP PUSH3 0x597 JUMP JUMPDEST PUSH0 PUSH1 0x7 PUSH0 SWAP1 SLOAD SWAP1 PUSH2 0x100 EXP SWAP1 DIV PUSH20 0xFFFFFFFFFFFFFFFFFFFFFFFFFFFFFFFFFFFFFFFF AND SWAP1 POP DUP2 PUSH1 0x7 PUSH0 PUSH2 0x100 EXP DUP2 SLOAD DUP2 PUSH20 0xFFFFFFFFFFFFFFFFFFFFFFFFFFFFFFFFFFFFFFFF MUL NOT AND SWAP1 DUP4 PUSH20 0xFFFFFFFFFFFFFFFFFFFFFFFFFFFFFFFFFFFFFFFF AND MUL OR SWAP1 SSTORE POP DUP2 PUSH20 0xFFFFFFFFFFFFFFFFFFFFFFFFFFFFFFFFFFFFFFFF AND DUP2 PUSH20 0xFFFFFFFFFFFFFFFFFFFFFFFFFFFFFFFFFFFFFFFF AND PUSH32 0x8BE0079C531659141344CD1FD0A4F28419497F9722A3DAAFE3B4186F6B6457E0 PUSH1 0x40 MLOAD PUSH1 0x40 MLOAD DUP1 SWAP2 SUB SWAP1 LOG3 POP POP JUMP JUMPDEST PUSH0 DUP2 MLOAD SWAP1 POP SWAP2 SWAP1 POP JUMP JUMPDEST PUSH32 0x4E487B7100000000000000000000000000000000000000000000000000000000 PUSH0 MSTORE PUSH1 0x41 PUSH1 0x4 MSTORE PUSH1 0x24 PUSH0 REVERT JUMPDEST PUSH32 0x4E487B7100000000000000000000000000000000000000000000000000000000 PUSH0 MSTORE PUSH1 0x22 PUSH1 0x4 MSTORE PUSH1 0x24 PUSH0 REVERT JUMPDEST PUSH0 PUSH1 0x2 DUP3 DIV SWAP1 POP PUSH1 0x1 DUP3 AND DUP1 PUSH3 0x26D JUMPI PUSH1 0x7F DUP3 AND SWAP2 POP JUMPDEST PUSH1 0x20 DUP3 LT DUP2 SUB PUSH3 0x283 JUMPI PUSH3 0x282 PUSH3 0x228 JUMP JUMPDEST JUMPDEST POP SWAP2 SWAP1 POP JUMP JUMPDEST PUSH0 DUP2 SWAP1 POP DUP2 PUSH0 MSTORE PUSH1 0x20 PUSH0 KECCAK256 SWAP1 POP SWAP2 SWAP1 POP JUMP JUMPDEST PUSH0 PUSH1 0x20 PUSH1 0x1F DUP4 ADD DIV SWAP1 POP SWAP2 SWAP1 POP JUMP JUMPDEST PUSH0 DUP3 DUP3 SHL SWAP1 POP SWAP3 SWAP2 POP POP JUMP JUMPDEST PUSH0 PUSH1 0x8 DUP4 MUL PUSH3 0x2E7 PUSH32 0xFFFFFFFFFFFFFFFFFFFFFFFFFFFFFFFFFFFFFFFFFFFFFFFFFFFFFFFFFFFFFFFF DUP3 PUSH3 0x2AA JUMP JUMPDEST PUSH3 0x2F3 DUP7 DUP4 PUSH3 0x2AA JUMP JUMPDEST SWAP6 POP DUP1 NOT DUP5 AND SWAP4 POP DUP1 DUP7 AND DUP5 OR SWAP3 POP POP POP SWAP4 SWAP3 POP POP POP JUMP JUMPDEST PUSH0 DUP2 SWAP1 POP SWAP2 SWAP1 POP JUMP JUMPDEST PUSH0 DUP2 SWAP1 POP SWAP2 SWAP1 POP JUMP JUMPDEST PUSH0 PUSH3 0x33D PUSH3 0x337 PUSH3 0x331 DUP5 PUSH3 0x30B JUMP JUMPDEST PUSH3 0x314 JUMP JUMPDEST PUSH3 0x30B JUMP JUMPDEST SWAP1 POP SWAP2 SWAP1 POP JUMP JUMPDEST PUSH0 DUP2 SWAP1 POP SWAP2 SWAP1 POP JUMP JUMPDEST PUSH3 0x358 DUP4 PUSH3 0x31D JUMP JUMPDEST PUSH3 0x370 PUSH3 0x367 DUP3 PUSH3 0x344 JUMP JUMPDEST DUP5 DUP5 SLOAD PUSH3 0x2B6 JUMP JUMPDEST DUP3 SSTORE POP POP POP POP JUMP JUMPDEST PUSH0 SWAP1 JUMP JUMPDEST PUSH3 0x386 PUSH3 0x378 JUMP JUMPDEST PUSH3 0x393 DUP2 DUP5 DUP5 PUSH3 0x34D JUMP JUMPDEST POP POP POP JUMP JUMPDEST JUMPDEST DUP2 DUP2 LT ISZERO PUSH3 0x3BA JUMPI PUSH3 0x3AE PUSH0 DUP3 PUSH3 0x37C JUMP JUMPDEST PUSH1 0x1 DUP2 ADD SWAP1 POP PUSH3 0x399 JUMP JUMPDEST POP POP JUMP JUMPDEST PUSH1 0x1F DUP3 GT ISZERO PUSH3 0x409 JUMPI PUSH3 0x3D3 DUP2 PUSH3 0x289 JUMP JUMPDEST PUSH3 0x3DE DUP5 PUSH3 0x29B JUMP JUMPDEST DUP2 ADD PUSH1 0x20 DUP6 LT ISZERO PUSH3 0x3EE JUMPI DUP2 SWAP1 POP JUMPDEST PUSH3 0x406 PUSH3 0x3FD DUP6 PUSH3 0x29B JUMP JUMPDEST DUP4 ADD DUP3 PUSH3 0x398 JUMP JUMPDEST POP POP JUMPDEST POP POP POP JUMP JUMPDEST PUSH0 DUP3 DUP3 SHR SWAP1 POP SWAP3 SWAP2 POP POP JUMP JUMPDEST PUSH0 PUSH3 0x42B PUSH0 NOT DUP5 PUSH1 0x8 MUL PUSH3 0x40E JUMP JUMPDEST NOT DUP1 DUP4 AND SWAP2 POP POP SWAP3 SWAP2 POP POP JUMP JUMPDEST PUSH0 PUSH3 0x445 DUP4 DUP4 PUSH3 0x41A JUMP JUMPDEST SWAP2 POP DUP3 PUSH1 0x2 MUL DUP3 OR SWAP1 POP SWAP3 SWAP2 POP POP JUMP JUMPDEST PUSH3 0x460 DUP3 PUSH3 0x1F1 JUMP JUMPDEST PUSH8 0xFFFFFFFFFFFFFFFF DUP2 GT ISZERO PUSH3 0x47C JUMPI PUSH3 0x47B PUSH3 0x1FB JUMP JUMPDEST JUMPDEST PUSH3 0x488 DUP3 SLOAD PUSH3 0x255 JUMP JUMPDEST PUSH3 0x495 DUP3 DUP3 DUP6 PUSH3 0x3BE JUMP JUMPDEST PUSH0 PUSH1 0x20 SWAP1 POP PUSH1 0x1F DUP4 GT PUSH1 0x1 DUP2 EQ PUSH3 0x4CB JUMPI PUSH0 DUP5 ISZERO PUSH3 0x4B6 JUMPI DUP3 DUP8 ADD MLOAD SWAP1 POP JUMPDEST PUSH3 0x4C2 DUP6 DUP3 PUSH3 0x438 JUMP JUMPDEST DUP7 SSTORE POP PUSH3 0x531 JUMP JUMPDEST PUSH1 0x1F NOT DUP5 AND PUSH3 0x4DB DUP7 PUSH3 0x289 JUMP JUMPDEST PUSH0 JUMPDEST DUP3 DUP2 LT ISZERO PUSH3 0x504 JUMPI DUP5 DUP10 ADD MLOAD DUP3 SSTORE PUSH1 0x1 DUP3 ADD SWAP2 POP PUSH1 0x20 DUP6 ADD SWAP5 POP PUSH1 0x20 DUP2 ADD SWAP1 POP PUSH3 0x4DD JUMP JUMPDEST DUP7 DUP4 LT ISZERO PUSH3 0x524 JUMPI DUP5 DUP10 ADD MLOAD PUSH3 0x520 PUSH1 0x1F DUP10 AND DUP3 PUSH3 0x41A JUMP JUMPDEST DUP4 SSTORE POP JUMPDEST PUSH1 0x1 PUSH1 0x2 DUP9 MUL ADD DUP9 SSTORE POP POP POP JUMPDEST POP POP POP POP POP POP JUMP JUMPDEST PUSH0 PUSH20 0xFFFFFFFFFFFFFFFFFFFFFFFFFFFFFFFFFFFFFFFF DUP3 AND SWAP1 POP SWAP2 SWAP1 POP JUMP JUMPDEST PUSH0 PUSH3 0x564 DUP3 PUSH3 0x539 JUMP JUMPDEST SWAP1 POP SWAP2 SWAP1 POP JUMP JUMPDEST PUSH3 0x576 DUP2 PUSH3 0x558 JUMP JUMPDEST DUP3 MSTORE POP POP JUMP JUMPDEST PUSH0 PUSH1 0x20 DUP3 ADD SWAP1 POP PUSH3 0x591 PUSH0 DUP4 ADD DUP5 PUSH3 0x56B JUMP JUMPDEST SWAP3 SWAP2 POP POP JUMP JUMPDEST PUSH2 0x2E08 DUP1 PUSH3 0x5A5 PUSH0 CODECOPY PUSH0 RETURN INVALID PUSH1 0x80 PUSH1 0x40 MSTORE CALLVALUE DUP1 ISZERO PUSH2 0xF JUMPI PUSH0 DUP1 REVERT JUMPDEST POP PUSH1 0x4 CALLDATASIZE LT PUSH2 0x12A JUMPI PUSH0 CALLDATALOAD PUSH1 0xE0 SHR DUP1 PUSH4 0x715018A6 GT PUSH2 0xAB JUMPI DUP1 PUSH4 0xB88D4FDE GT PUSH2 0x6F JUMPI DUP1 PUSH4 0xB88D4FDE EQ PUSH2 0x340 JUMPI DUP1 PUSH4 0xC5AEF310 EQ PUSH2 0x35C JUMPI DUP1 PUSH4 0xC87B56DD EQ PUSH2 0x38C JUMPI DUP1 PUSH4 0xE985E9C5 EQ PUSH2 0x3BC JUMPI DUP1 PUSH4 0xF2FDE38B EQ PUSH2 0x3EC JUMPI PUSH2 0x12A JUMP JUMPDEST DUP1 PUSH4 0x715018A6 EQ PUSH2 0x2AE JUMPI DUP1 PUSH4 0x71F0442E EQ PUSH2 0x2B8 JUMPI DUP1 PUSH4 0x8DA5CB5B EQ PUSH2 0x2E8 JUMPI DUP1 PUSH4 0x95D89B41 EQ PUSH2 0x306 JUMPI DUP1 PUSH4 0xA22CB465 EQ PUSH2 0x324 JUMPI PUSH2 0x12A JUMP JUMPDEST DUP1 PUSH4 0x23B872DD GT PUSH2 0xF2 JUMPI DUP1 PUSH4 0x23B872DD EQ PUSH2 0x1E6 JUMPI DUP1 PUSH4 0x3A903D23 EQ PUSH2 0x202 JUMPI DUP1 PUSH4 0x42842E0E EQ PUSH2 0x232 JUMPI DUP1 PUSH4 0x6352211E EQ PUSH2 0x24E JUMPI DUP1 PUSH4 0x70A08231 EQ PUSH2 0x27E JUMPI PUSH2 0x12A JUMP JUMPDEST DUP1 PUSH4 0x1FFC9A7 EQ PUSH2 0x12E JUMPI DUP1 PUSH4 0x6FDDE03 EQ PUSH2 0x15E JUMPI DUP1 PUSH4 0x81812FC EQ PUSH2 0x17C JUMPI DUP1 PUSH4 0x95EA7B3 EQ PUSH2 0x1AC JUMPI DUP1 PUSH4 0x18160DDD EQ PUSH2 0x1C8 JUMPI JUMPDEST PUSH0 DUP1 REVERT JUMPDEST PUSH2 0x148 PUSH1 0x4 DUP1 CALLDATASIZE SUB DUP2 ADD SWAP1 PUSH2 0x143 SWAP2 SWAP1 PUSH2 0x1F0F JUMP JUMPDEST PUSH2 0x408 JUMP JUMPDEST PUSH1 0x40 MLOAD PUSH2 0x155 SWAP2 SWAP1 PUSH2 0x1F54 JUMP JUMPDEST PUSH1 0x40 MLOAD DUP1 SWAP2 SUB SWAP1 RETURN JUMPDEST PUSH2 0x166 PUSH2 0x468 JUMP JUMPDEST PUSH1 0x40 MLOAD PUSH2 0x173 SWAP2 SWAP1 PUSH2 0x1FF7 JUMP JUMPDEST PUSH1 0x40 MLOAD DUP1 SWAP2 SUB SWAP1 RETURN JUMPDEST PUSH2 0x196 PUSH1 0x4 DUP1 CALLDATASIZE SUB DUP2 ADD SWAP1 PUSH2 0x191 SWAP2 SWAP1 PUSH2 0x204A JUMP JUMPDEST PUSH2 0x4F7 JUMP JUMPDEST PUSH1 0x40 MLOAD PUSH2 0x1A3 SWAP2 SWAP1 PUSH2 0x20B4 JUMP JUMPDEST PUSH1 0x40 MLOAD DUP1 SWAP2 SUB SWAP1 RETURN JUMPDEST PUSH2 0x1C6 PUSH1 0x4 DUP1 CALLDATASIZE SUB DUP2 ADD SWAP1 PUSH2 0x1C1 SWAP2 SWAP1 PUSH2 0x20F7 JUMP JUMPDEST PUSH2 0x512 JUMP JUMPDEST STOP JUMPDEST PUSH2 0x1D0 PUSH2 0x528 JUMP JUMPDEST PUSH1 0x40 MLOAD PUSH2 0x1DD SWAP2 SWAP1 PUSH2 0x2144 JUMP JUMPDEST PUSH1 0x40 MLOAD DUP1 SWAP2 SUB SWAP1 RETURN JUMPDEST PUSH2 0x200 PUSH1 0x4 DUP1 CALLDATASIZE SUB DUP2 ADD SWAP1 PUSH2 0x1FB SWAP2 SWAP1 PUSH2 0x215D JUMP JUMPDEST PUSH2 0x538 JUMP JUMPDEST STOP JUMPDEST PUSH2 0x21C PUSH1 0x4 DUP1 CALLDATASIZE SUB DUP2 ADD SWAP1 PUSH2 0x217 SWAP2 SWAP1 PUSH2 0x22D9 JUMP JUMPDEST PUSH2 0x637 JUMP JUMPDEST PUSH1 0x40 MLOAD PUSH2 0x229 SWAP2 SWAP1 PUSH2 0x2144 JUMP JUMPDEST PUSH1 0x40 MLOAD DUP1 SWAP2 SUB SWAP1 RETURN JUMPDEST PUSH2 0x24C PUSH1 0x4 DUP1 CALLDATASIZE SUB DUP2 ADD SWAP1 PUSH2 0x247 SWAP2 SWAP1 PUSH2 0x215D JUMP JUMPDEST PUSH2 0x6EF JUMP JUMPDEST STOP JUMPDEST PUSH2 0x268 PUSH1 0x4 DUP1 CALLDATASIZE SUB DUP2 ADD SWAP1 PUSH2 0x263 SWAP2 SWAP1 PUSH2 0x204A JUMP JUMPDEST PUSH2 0x70E JUMP JUMPDEST PUSH1 0x40 MLOAD PUSH2 0x275 SWAP2 SWAP1 PUSH2 0x20B4 JUMP JUMPDEST PUSH1 0x40 MLOAD DUP1 SWAP2 SUB SWAP1 RETURN JUMPDEST PUSH2 0x298 PUSH1 0x4 DUP1 CALLDATASIZE SUB DUP2 ADD SWAP1 PUSH2 0x293 SWAP2 SWAP1 PUSH2 0x2391 JUMP JUMPDEST PUSH2 0x71F JUMP JUMPDEST PUSH1 0x40 MLOAD PUSH2 0x2A5 SWAP2 SWAP1 PUSH2 0x2144 JUMP JUMPDEST PUSH1 0x40 MLOAD DUP1 SWAP2 SUB SWAP1 RETURN JUMPDEST PUSH2 0x2B6 PUSH2 0x7D5 JUMP JUMPDEST STOP JUMPDEST PUSH2 0x2D2 PUSH1 0x4 DUP1 CALLDATASIZE SUB DUP2 ADD SWAP1 PUSH2 0x2CD SWAP2 SWAP1 PUSH2 0x204A JUMP JUMPDEST PUSH2 0x7E8 JUMP JUMPDEST PUSH1 0x40 MLOAD PUSH2 0x2DF SWAP2 SWAP1 PUSH2 0x1FF7 JUMP JUMPDEST PUSH1 0x40 MLOAD DUP1 SWAP2 SUB SWAP1 RETURN JUMPDEST PUSH2 0x2F0 PUSH2 0x8D1 JUMP JUMPDEST PUSH1 0x40 MLOAD PUSH2 0x2FD SWAP2 SWAP1 PUSH2 0x20B4 JUMP JUMPDEST PUSH1 0x40 MLOAD DUP1 SWAP2 SUB SWAP1 RETURN JUMPDEST PUSH2 0x30E PUSH2 0x8F9 JUMP JUMPDEST PUSH1 0x40 MLOAD PUSH2 0x31B SWAP2 SWAP1 PUSH2 0x1FF7 JUMP JUMPDEST PUSH1 0x40 MLOAD DUP1 SWAP2 SUB SWAP1 RETURN JUMPDEST PUSH2 0x33E PUSH1 0x4 DUP1 CALLDATASIZE SUB DUP2 ADD SWAP1 PUSH2 0x339 SWAP2 SWAP1 PUSH2 0x23E6 JUMP JUMPDEST PUSH2 0x989 JUMP JUMPDEST STOP JUMPDEST PUSH2 0x35A PUSH1 0x4 DUP1 CALLDATASIZE SUB DUP2 ADD SWAP1 PUSH2 0x355 SWAP2 SWAP1 PUSH2 0x24C2 JUMP JUMPDEST PUSH2 0x99F JUMP JUMPDEST STOP JUMPDEST PUSH2 0x376 PUSH1 0x4 DUP1 CALLDATASIZE SUB DUP2 ADD SWAP1 PUSH2 0x371 SWAP2 SWAP1 PUSH2 0x22D9 JUMP JUMPDEST PUSH2 0x9C4 JUMP JUMPDEST PUSH1 0x40 MLOAD PUSH2 0x383 SWAP2 SWAP1 PUSH2 0x2144 JUMP JUMPDEST PUSH1 0x40 MLOAD DUP1 SWAP2 SUB SWAP1 RETURN JUMPDEST PUSH2 0x3A6 PUSH1 0x4 DUP1 CALLDATASIZE SUB DUP2 ADD SWAP1 PUSH2 0x3A1 SWAP2 SWAP1 PUSH2 0x204A JUMP JUMPDEST PUSH2 0xA5D JUMP JUMPDEST PUSH1 0x40 MLOAD PUSH2 0x3B3 SWAP2 SWAP1 PUSH2 0x1FF7 JUMP JUMPDEST PUSH1 0x40 MLOAD DUP1 SWAP2 SUB SWAP1 RETURN JUMPDEST PUSH2 0x3D6 PUSH1 0x4 DUP1 CALLDATASIZE SUB DUP2 ADD SWAP1 PUSH2 0x3D1 SWAP2 SWAP1 PUSH2 0x2542 JUMP JUMPDEST PUSH2 0xB68 JUMP JUMPDEST PUSH1 0x40 MLOAD PUSH2 0x3E3 SWAP2 SWAP1 PUSH2 0x1F54 JUMP JUMPDEST PUSH1 0x40 MLOAD DUP1 SWAP2 SUB SWAP1 RETURN JUMPDEST PUSH2 0x406 PUSH1 0x4 DUP1 CALLDATASIZE SUB DUP2 ADD SWAP1 PUSH2 0x401 SWAP2 SWAP1 PUSH2 0x2391 JUMP JUMPDEST PUSH2 0xBF6 JUMP JUMPDEST STOP JUMPDEST PUSH0 PUSH4 0x49064906 PUSH1 0xE0 SHL PUSH28 0xFFFFFFFFFFFFFFFFFFFFFFFFFFFFFFFFFFFFFFFFFFFFFFFFFFFFFFFF NOT AND DUP3 PUSH28 0xFFFFFFFFFFFFFFFFFFFFFFFFFFFFFFFFFFFFFFFFFFFFFFFFFFFFFFFF NOT AND EQ DUP1 PUSH2 0x461 JUMPI POP PUSH2 0x460 DUP3 PUSH2 0xC7A JUMP JUMPDEST JUMPDEST SWAP1 POP SWAP2 SWAP1 POP JUMP JUMPDEST PUSH1 0x60 PUSH0 DUP1 SLOAD PUSH2 0x476 SWAP1 PUSH2 0x25AD JUMP JUMPDEST DUP1 PUSH1 0x1F ADD PUSH1 0x20 DUP1 SWAP2 DIV MUL PUSH1 0x20 ADD PUSH1 0x40 MLOAD SWAP1 DUP2 ADD PUSH1 0x40 MSTORE DUP1 SWAP3 SWAP2 SWAP1 DUP2 DUP2 MSTORE PUSH1 0x20 ADD DUP3 DUP1 SLOAD PUSH2 0x4A2 SWAP1 PUSH2 0x25AD JUMP JUMPDEST DUP1 ISZERO PUSH2 0x4ED JUMPI DUP1 PUSH1 0x1F LT PUSH2 0x4C4 JUMPI PUSH2 0x100 DUP1 DUP4 SLOAD DIV MUL DUP4 MSTORE SWAP2 PUSH1 0x20 ADD SWAP2 PUSH2 0x4ED JUMP JUMPDEST DUP3 ADD SWAP2 SWAP1 PUSH0 MSTORE PUSH1 0x20 PUSH0 KECCAK256 SWAP1 JUMPDEST DUP2 SLOAD DUP2 MSTORE SWAP1 PUSH1 0x1 ADD SWAP1 PUSH1 0x20 ADD DUP1 DUP4 GT PUSH2 0x4D0 JUMPI DUP3 SWAP1 SUB PUSH1 0x1F AND DUP3 ADD SWAP2 JUMPDEST POP POP POP POP POP SWAP1 POP SWAP1 JUMP JUMPDEST PUSH0 PUSH2 0x501 DUP3 PUSH2 0xD5B JUMP JUMPDEST POP PUSH2 0x50B DUP3 PUSH2 0xDE1 JUMP JUMPDEST SWAP1 POP SWAP2 SWAP1 POP JUMP JUMPDEST PUSH2 0x524 DUP3 DUP3 PUSH2 0x51F PUSH2 0xE1A JUMP JUMPDEST PUSH2 0xE21 JUMP JUMPDEST POP POP JUMP JUMPDEST PUSH0 PUSH2 0x533 PUSH1 0x8 PUSH2 0xE33 JUMP JUMPDEST SWAP1 POP SWAP1 JUMP JUMPDEST PUSH0 PUSH20 0xFFFFFFFFFFFFFFFFFFFFFFFFFFFFFFFFFFFFFFFF AND DUP3 PUSH20 0xFFFFFFFFFFFFFFFFFFFFFFFFFFFFFFFFFFFFFFFF AND SUB PUSH2 0x5A8 JUMPI PUSH0 PUSH1 0x40 MLOAD PUSH32 0x64A0AE9200000000000000000000000000000000000000000000000000000000 DUP2 MSTORE PUSH1 0x4 ADD PUSH2 0x59F SWAP2 SWAP1 PUSH2 0x20B4 JUMP JUMPDEST PUSH1 0x40 MLOAD DUP1 SWAP2 SUB SWAP1 REVERT JUMPDEST PUSH0 PUSH2 0x5BB DUP4 DUP4 PUSH2 0x5B6 PUSH2 0xE1A JUMP JUMPDEST PUSH2 0xE3F JUMP JUMPDEST SWAP1 POP DUP4 PUSH20 0xFFFFFFFFFFFFFFFFFFFFFFFFFFFFFFFFFFFFFFFF AND DUP2 PUSH20 0xFFFFFFFFFFFFFFFFFFFFFFFFFFFFFFFFFFFFFFFF AND EQ PUSH2 0x631 JUMPI DUP4 DUP3 DUP3 PUSH1 0x40 MLOAD PUSH32 0x64283D7B00000000000000000000000000000000000000000000000000000000 DUP2 MSTORE PUSH1 0x4 ADD PUSH2 0x628 SWAP4 SWAP3 SWAP2 SWAP1 PUSH2 0x25DD JUMP JUMPDEST PUSH1 0x40 MLOAD DUP1 SWAP2 SUB SWAP1 REVERT JUMPDEST POP POP POP POP JUMP JUMPDEST PUSH0 PUSH2 0x640 PUSH2 0x104A JUMP JUMPDEST PUSH2 0x64A PUSH1 0x8 PUSH2 0x10D1 JUMP JUMPDEST PUSH0 PUSH2 0x655 PUSH1 0x8 PUSH2 0xE33 JUMP JUMPDEST SWAP1 POP DUP5 PUSH1 0xB PUSH0 DUP4 DUP2 MSTORE PUSH1 0x20 ADD SWAP1 DUP2 MSTORE PUSH1 0x20 ADD PUSH0 KECCAK256 SWAP1 DUP2 PUSH2 0x675 SWAP2 SWAP1 PUSH2 0x27AF JUMP JUMPDEST POP PUSH0 DUP5 DUP5 DUP8 PUSH1 0x40 MLOAD PUSH1 0x20 ADD PUSH2 0x68C SWAP4 SWAP3 SWAP2 SWAP1 PUSH2 0x2A2A JUMP JUMPDEST PUSH1 0x40 MLOAD PUSH1 0x20 DUP2 DUP4 SUB SUB DUP2 MSTORE SWAP1 PUSH1 0x40 MSTORE SWAP1 POP PUSH0 PUSH2 0x6A7 DUP3 PUSH2 0x10E5 JUMP JUMPDEST SWAP1 POP PUSH0 DUP2 PUSH1 0x40 MLOAD PUSH1 0x20 ADD PUSH2 0x6BB SWAP2 SWAP1 PUSH2 0x2AE6 JUMP JUMPDEST PUSH1 0x40 MLOAD PUSH1 0x20 DUP2 DUP4 SUB SUB DUP2 MSTORE SWAP1 PUSH1 0x40 MSTORE SWAP1 POP PUSH2 0x6D6 DUP10 DUP6 PUSH2 0x1112 JUMP JUMPDEST PUSH2 0x6E0 DUP5 DUP3 PUSH2 0x1205 JUMP JUMPDEST DUP4 SWAP5 POP POP POP POP POP SWAP5 SWAP4 POP POP POP POP JUMP JUMPDEST PUSH2 0x709 DUP4 DUP4 DUP4 PUSH1 0x40 MLOAD DUP1 PUSH1 0x20 ADD PUSH1 0x40 MSTORE DUP1 PUSH0 DUP2 MSTORE POP PUSH2 0x99F JUMP JUMPDEST POP POP POP JUMP JUMPDEST PUSH0 PUSH2 0x718 DUP3 PUSH2 0xD5B JUMP JUMPDEST SWAP1 POP SWAP2 SWAP1 POP JUMP JUMPDEST PUSH0 DUP1 PUSH20 0xFFFFFFFFFFFFFFFFFFFFFFFFFFFFFFFFFFFFFFFF AND DUP3 PUSH20 0xFFFFFFFFFFFFFFFFFFFFFFFFFFFFFFFFFFFFFFFF AND SUB PUSH2 0x790 JUMPI PUSH0 PUSH1 0x40 MLOAD PUSH32 0x89C62B6400000000000000000000000000000000000000000000000000000000 DUP2 MSTORE PUSH1 0x4 ADD PUSH2 0x787 SWAP2 SWAP1 PUSH2 0x20B4 JUMP JUMPDEST PUSH1 0x40 MLOAD DUP1 SWAP2 SUB SWAP1 REVERT JUMPDEST PUSH1 0x3 PUSH0 DUP4 PUSH20 0xFFFFFFFFFFFFFFFFFFFFFFFFFFFFFFFFFFFFFFFF AND PUSH20 0xFFFFFFFFFFFFFFFFFFFFFFFFFFFFFFFFFFFFFFFF AND DUP2 MSTORE PUSH1 0x20 ADD SWAP1 DUP2 MSTORE PUSH1 0x20 ADD PUSH0 KECCAK256 SLOAD SWAP1 POP SWAP2 SWAP1 POP JUMP JUMPDEST PUSH2 0x7DD PUSH2 0x104A JUMP JUMPDEST PUSH2 0x7E6 PUSH0 PUSH2 0x125F JUMP JUMPDEST JUMP JUMPDEST PUSH1 0x60 PUSH2 0x7F3 DUP3 PUSH2 0x1322 JUMP JUMPDEST PUSH2 0x832 JUMPI PUSH1 0x40 MLOAD PUSH32 0x8C379A000000000000000000000000000000000000000000000000000000000 DUP2 MSTORE PUSH1 0x4 ADD PUSH2 0x829 SWAP1 PUSH2 0x2B51 JUMP JUMPDEST PUSH1 0x40 MLOAD DUP1 SWAP2 SUB SWAP1 REVERT JUMPDEST PUSH1 0xB PUSH0 DUP4 DUP2 MSTORE PUSH1 0x20 ADD SWAP1 DUP2 MSTORE PUSH1 0x20 ADD PUSH0 KECCAK256 DUP1 SLOAD PUSH2 0x84E SWAP1 PUSH2 0x25AD JUMP JUMPDEST DUP1 PUSH1 0x1F ADD PUSH1 0x20 DUP1 SWAP2 DIV MUL PUSH1 0x20 ADD PUSH1 0x40 MLOAD SWAP1 DUP2 ADD PUSH1 0x40 MSTORE DUP1 SWAP3 SWAP2 SWAP1 DUP2 DUP2 MSTORE PUSH1 0x20 ADD DUP3 DUP1 SLOAD PUSH2 0x87A SWAP1 PUSH2 0x25AD JUMP JUMPDEST DUP1 ISZERO PUSH2 0x8C5 JUMPI DUP1 PUSH1 0x1F LT PUSH2 0x89C JUMPI PUSH2 0x100 DUP1 DUP4 SLOAD DIV MUL DUP4 MSTORE SWAP2 PUSH1 0x20 ADD SWAP2 PUSH2 0x8C5 JUMP JUMPDEST DUP3 ADD SWAP2 SWAP1 PUSH0 MSTORE PUSH1 0x20 PUSH0 KECCAK256 SWAP1 JUMPDEST DUP2 SLOAD DUP2 MSTORE SWAP1 PUSH1 0x1 ADD SWAP1 PUSH1 0x20 ADD DUP1 DUP4 GT PUSH2 0x8A8 JUMPI DUP3 SWAP1 SUB PUSH1 0x1F AND DUP3 ADD SWAP2 JUMPDEST POP POP POP POP POP SWAP1 POP SWAP2 SWAP1 POP JUMP JUMPDEST PUSH0 PUSH1 0x7 PUSH0 SWAP1 SLOAD SWAP1 PUSH2 0x100 EXP SWAP1 DIV PUSH20 0xFFFFFFFFFFFFFFFFFFFFFFFFFFFFFFFFFFFFFFFF AND SWAP1 POP SWAP1 JUMP JUMPDEST PUSH1 0x60 PUSH1 0x1 DUP1 SLOAD PUSH2 0x908 SWAP1 PUSH2 0x25AD JUMP JUMPDEST DUP1 PUSH1 0x1F ADD PUSH1 0x20 DUP1 SWAP2 DIV MUL PUSH1 0x20 ADD PUSH1 0x40 MLOAD SWAP1 DUP2 ADD PUSH1 0x40 MSTORE DUP1 SWAP3 SWAP2 SWAP1 DUP2 DUP2 MSTORE PUSH1 0x20 ADD DUP3 DUP1 SLOAD PUSH2 0x934 SWAP1 PUSH2 0x25AD JUMP JUMPDEST DUP1 ISZERO PUSH2 0x97F JUMPI DUP1 PUSH1 0x1F LT PUSH2 0x956 JUMPI PUSH2 0x100 DUP1 DUP4 SLOAD DIV MUL DUP4 MSTORE SWAP2 PUSH1 0x20 ADD SWAP2 PUSH2 0x97F JUMP JUMPDEST DUP3 ADD SWAP2 SWAP1 PUSH0 MSTORE PUSH1 0x20 PUSH0 KECCAK256 SWAP1 JUMPDEST DUP2 SLOAD DUP2 MSTORE SWAP1 PUSH1 0x1 ADD SWAP1 PUSH1 0x20 ADD DUP1 DUP4 GT PUSH2 0x962 JUMPI DUP3 SWAP1 SUB PUSH1 0x1F AND DUP3 ADD SWAP2 JUMPDEST POP POP POP POP POP SWAP1 POP SWAP1 JUMP JUMPDEST PUSH2 0x99B PUSH2 0x994 PUSH2 0xE1A JUMP JUMPDEST DUP4 DUP4 PUSH2 0x138A JUMP JUMPDEST POP POP JUMP JUMPDEST PUSH2 0x9AA DUP5 DUP5 DUP5 PUSH2 0x538 JUMP JUMPDEST PUSH2 0x9BE PUSH2 0x9B5 PUSH2 0xE1A JUMP JUMPDEST DUP6 DUP6 DUP6 DUP6 PUSH2 0x14F3 JUMP JUMPDEST POP POP POP POP JUMP JUMPDEST PUSH0 PUSH2 0x9CD PUSH2 0x104A JUMP JUMPDEST PUSH2 0x9D7 PUSH1 0x8 PUSH2 0x10D1 JUMP JUMPDEST PUSH0 PUSH2 0x9E2 PUSH1 0x8 PUSH2 0xE33 JUMP JUMPDEST SWAP1 POP PUSH0 DUP5 DUP5 DUP8 PUSH1 0x40 MLOAD PUSH1 0x20 ADD PUSH2 0x9FA SWAP4 SWAP3 SWAP2 SWAP1 PUSH2 0x2A2A JUMP JUMPDEST PUSH1 0x40 MLOAD PUSH1 0x20 DUP2 DUP4 SUB SUB DUP2 MSTORE SWAP1 PUSH1 0x40 MSTORE SWAP1 POP PUSH0 PUSH2 0xA15 DUP3 PUSH2 0x10E5 JUMP JUMPDEST SWAP1 POP PUSH0 DUP2 PUSH1 0x40 MLOAD PUSH1 0x20 ADD PUSH2 0xA29 SWAP2 SWAP1 PUSH2 0x2AE6 JUMP JUMPDEST PUSH1 0x40 MLOAD PUSH1 0x20 DUP2 DUP4 SUB SUB DUP2 MSTORE SWAP1 PUSH1 0x40 MSTORE SWAP1 POP PUSH2 0xA44 DUP10 DUP6 PUSH2 0x1112 JUMP JUMPDEST PUSH2 0xA4E DUP5 DUP3 PUSH2 0x1205 JUMP JUMPDEST DUP4 SWAP5 POP POP POP POP POP SWAP5 SWAP4 POP POP POP POP JUMP JUMPDEST PUSH1 0x60 PUSH2 0xA68 DUP3 PUSH2 0xD5B JUMP JUMPDEST POP PUSH0 PUSH1 0x6 PUSH0 DUP5 DUP2 MSTORE PUSH1 0x20 ADD SWAP1 DUP2 MSTORE PUSH1 0x20 ADD PUSH0 KECCAK256 DUP1 SLOAD PUSH2 0xA86 SWAP1 PUSH2 0x25AD JUMP JUMPDEST DUP1 PUSH1 0x1F ADD PUSH1 0x20 DUP1 SWAP2 DIV MUL PUSH1 0x20 ADD PUSH1 0x40 MLOAD SWAP1 DUP2 ADD PUSH1 0x40 MSTORE DUP1 SWAP3 SWAP2 SWAP1 DUP2 DUP2 MSTORE PUSH1 0x20 ADD DUP3 DUP1 SLOAD PUSH2 0xAB2 SWAP1 PUSH2 0x25AD JUMP JUMPDEST DUP1 ISZERO PUSH2 0xAFD JUMPI DUP1 PUSH1 0x1F LT PUSH2 0xAD4 JUMPI PUSH2 0x100 DUP1 DUP4 SLOAD DIV MUL DUP4 MSTORE SWAP2 PUSH1 0x20 ADD SWAP2 PUSH2 0xAFD JUMP JUMPDEST DUP3 ADD SWAP2 SWAP1 PUSH0 MSTORE PUSH1 0x20 PUSH0 KECCAK256 SWAP1 JUMPDEST DUP2 SLOAD DUP2 MSTORE SWAP1 PUSH1 0x1 ADD SWAP1 PUSH1 0x20 ADD DUP1 DUP4 GT PUSH2 0xAE0 JUMPI DUP3 SWAP1 SUB PUSH1 0x1F AND DUP3 ADD SWAP2 JUMPDEST POP POP POP POP POP SWAP1 POP PUSH0 PUSH2 0xB0D PUSH2 0x169F JUMP JUMPDEST SWAP1 POP PUSH0 DUP2 MLOAD SUB PUSH2 0xB21 JUMPI DUP2 SWAP3 POP POP POP PUSH2 0xB63 JUMP JUMPDEST PUSH0 DUP3 MLOAD GT ISZERO PUSH2 0xB55 JUMPI DUP1 DUP3 PUSH1 0x40 MLOAD PUSH1 0x20 ADD PUSH2 0xB3D SWAP3 SWAP2 SWAP1 PUSH2 0x2B6F JUMP JUMPDEST PUSH1 0x40 MLOAD PUSH1 0x20 DUP2 DUP4 SUB SUB DUP2 MSTORE SWAP1 PUSH1 0x40 MSTORE SWAP3 POP POP POP PUSH2 0xB63 JUMP JUMPDEST PUSH2 0xB5E DUP5 PUSH2 0x16B5 JUMP JUMPDEST SWAP3 POP POP POP JUMPDEST SWAP2 SWAP1 POP JUMP JUMPDEST PUSH0 PUSH1 0x5 PUSH0 DUP5 PUSH20 0xFFFFFFFFFFFFFFFFFFFFFFFFFFFFFFFFFFFFFFFF AND PUSH20 0xFFFFFFFFFFFFFFFFFFFFFFFFFFFFFFFFFFFFFFFF AND DUP2 MSTORE PUSH1 0x20 ADD SWAP1 DUP2 MSTORE PUSH1 0x20 ADD PUSH0 KECCAK256 PUSH0 DUP4 PUSH20 0xFFFFFFFFFFFFFFFFFFFFFFFFFFFFFFFFFFFFFFFF AND PUSH20 0xFFFFFFFFFFFFFFFFFFFFFFFFFFFFFFFFFFFFFFFF AND DUP2 MSTORE PUSH1 0x20 ADD SWAP1 DUP2 MSTORE PUSH1 0x20 ADD PUSH0 KECCAK256 PUSH0 SWAP1 SLOAD SWAP1 PUSH2 0x100 EXP SWAP1 DIV PUSH1 0xFF AND SWAP1 POP SWAP3 SWAP2 POP POP JUMP JUMPDEST PUSH2 0xBFE PUSH2 0x104A JUMP JUMPDEST PUSH0 PUSH20 0xFFFFFFFFFFFFFFFFFFFFFFFFFFFFFFFFFFFFFFFF AND DUP2 PUSH20 0xFFFFFFFFFFFFFFFFFFFFFFFFFFFFFFFFFFFFFFFF AND SUB PUSH2 0xC6E JUMPI PUSH0 PUSH1 0x40 MLOAD PUSH32 0x1E4FBDF700000000000000000000000000000000000000000000000000000000 DUP2 MSTORE PUSH1 0x4 ADD PUSH2 0xC65 SWAP2 SWAP1 PUSH2 0x20B4 JUMP JUMPDEST PUSH1 0x40 MLOAD DUP1 SWAP2 SUB SWAP1 REVERT JUMPDEST PUSH2 0xC77 DUP2 PUSH2 0x125F JUMP JUMPDEST POP JUMP JUMPDEST PUSH0 PUSH32 0x80AC58CD00000000000000000000000000000000000000000000000000000000 PUSH28 0xFFFFFFFFFFFFFFFFFFFFFFFFFFFFFFFFFFFFFFFFFFFFFFFFFFFFFFFF NOT AND DUP3 PUSH28 0xFFFFFFFFFFFFFFFFFFFFFFFFFFFFFFFFFFFFFFFFFFFFFFFFFFFFFFFF NOT AND EQ DUP1 PUSH2 0xD44 JUMPI POP PUSH32 0x5B5E139F00000000000000000000000000000000000000000000000000000000 PUSH28 0xFFFFFFFFFFFFFFFFFFFFFFFFFFFFFFFFFFFFFFFFFFFFFFFFFFFFFFFF NOT AND DUP3 PUSH28 0xFFFFFFFFFFFFFFFFFFFFFFFFFFFFFFFFFFFFFFFFFFFFFFFFFFFFFFFF NOT AND EQ JUMPDEST DUP1 PUSH2 0xD54 JUMPI POP PUSH2 0xD53 DUP3 PUSH2 0x171B JUMP JUMPDEST JUMPDEST SWAP1 POP SWAP2 SWAP1 POP JUMP JUMPDEST PUSH0 DUP1 PUSH2 0xD66 DUP4 PUSH2 0x1784 JUMP JUMPDEST SWAP1 POP PUSH0 PUSH20 0xFFFFFFFFFFFFFFFFFFFFFFFFFFFFFFFFFFFFFFFF AND DUP2 PUSH20 0xFFFFFFFFFFFFFFFFFFFFFFFFFFFFFFFFFFFFFFFF AND SUB PUSH2 0xDD8 JUMPI DUP3 PUSH1 0x40 MLOAD PUSH32 0x7E27328900000000000000000000000000000000000000000000000000000000 DUP2 MSTORE PUSH1 0x4 ADD PUSH2 0xDCF SWAP2 SWAP1 PUSH2 0x2144 JUMP JUMPDEST PUSH1 0x40 MLOAD DUP1 SWAP2 SUB SWAP1 REVERT JUMPDEST DUP1 SWAP2 POP POP SWAP2 SWAP1 POP JUMP JUMPDEST PUSH0 PUSH1 0x4 PUSH0 DUP4 DUP2 MSTORE PUSH1 0x20 ADD SWAP1 DUP2 MSTORE PUSH1 0x20 ADD PUSH0 KECCAK256 PUSH0 SWAP1 SLOAD SWAP1 PUSH2 0x100 EXP SWAP1 DIV PUSH20 0xFFFFFFFFFFFFFFFFFFFFFFFFFFFFFFFFFFFFFFFF AND SWAP1 POP SWAP2 SWAP1 POP JUMP JUMPDEST PUSH0 CALLER SWAP1 POP SWAP1 JUMP JUMPDEST PUSH2 0xE2E DUP4 DUP4 DUP4 PUSH1 0x1 PUSH2 0x17BD JUMP JUMPDEST POP POP POP JUMP JUMPDEST PUSH0 DUP2 PUSH0 ADD SLOAD SWAP1 POP SWAP2 SWAP1 POP JUMP JUMPDEST PUSH0 DUP1 PUSH2 0xE4A DUP5 PUSH2 0x1784 JUMP JUMPDEST SWAP1 POP PUSH0 PUSH20 0xFFFFFFFFFFFFFFFFFFFFFFFFFFFFFFFFFFFFFFFF AND DUP4 PUSH20 0xFFFFFFFFFFFFFFFFFFFFFFFFFFFFFFFFFFFFFFFF AND EQ PUSH2 0xE8B JUMPI PUSH2 0xE8A DUP2 DUP5 DUP7 PUSH2 0x197C JUMP JUMPDEST JUMPDEST PUSH0 PUSH20 0xFFFFFFFFFFFFFFFFFFFFFFFFFFFFFFFFFFFFFFFF AND DUP2 PUSH20 0xFFFFFFFFFFFFFFFFFFFFFFFFFFFFFFFFFFFFFFFF AND EQ PUSH2 0xF16 JUMPI PUSH2 0xECA PUSH0 DUP6 PUSH0 DUP1 PUSH2 0x17BD JUMP JUMPDEST PUSH1 0x1 PUSH1 0x3 PUSH0 DUP4 PUSH20 0xFFFFFFFFFFFFFFFFFFFFFFFFFFFFFFFFFFFFFFFF AND PUSH20 0xFFFFFFFFFFFFFFFFFFFFFFFFFFFFFFFFFFFFFFFF AND DUP2 MSTORE PUSH1 0x20 ADD SWAP1 DUP2 MSTORE PUSH1 0x20 ADD PUSH0 KECCAK256 PUSH0 DUP3 DUP3 SLOAD SUB SWAP3 POP POP DUP2 SWAP1 SSTORE POP JUMPDEST PUSH0 PUSH20 0xFFFFFFFFFFFFFFFFFFFFFFFFFFFFFFFFFFFFFFFF AND DUP6 PUSH20 0xFFFFFFFFFFFFFFFFFFFFFFFFFFFFFFFFFFFFFFFF AND EQ PUSH2 0xF95 JUMPI PUSH1 0x1 PUSH1 0x3 PUSH0 DUP8 PUSH20 0xFFFFFFFFFFFFFFFFFFFFFFFFFFFFFFFFFFFFFFFF AND PUSH20 0xFFFFFFFFFFFFFFFFFFFFFFFFFFFFFFFFFFFFFFFF AND DUP2 MSTORE PUSH1 0x20 ADD SWAP1 DUP2 MSTORE PUSH1 0x20 ADD PUSH0 KECCAK256 PUSH0 DUP3 DUP3 SLOAD ADD SWAP3 POP POP DUP2 SWAP1 SSTORE POP JUMPDEST DUP5 PUSH1 0x2 PUSH0 DUP7 DUP2 MSTORE PUSH1 0x20 ADD SWAP1 DUP2 MSTORE PUSH1 0x20 ADD PUSH0 KECCAK256 PUSH0 PUSH2 0x100 EXP DUP2 SLOAD DUP2 PUSH20 0xFFFFFFFFFFFFFFFFFFFFFFFFFFFFFFFFFFFFFFFF MUL NOT AND SWAP1 DUP4 PUSH20 0xFFFFFFFFFFFFFFFFFFFFFFFFFFFFFFFFFFFFFFFF AND MUL OR SWAP1 SSTORE POP DUP4 DUP6 PUSH20 0xFFFFFFFFFFFFFFFFFFFFFFFFFFFFFFFFFFFFFFFF AND DUP3 PUSH20 0xFFFFFFFFFFFFFFFFFFFFFFFFFFFFFFFFFFFFFFFF AND PUSH32 0xDDF252AD1BE2C89B69C2B068FC378DAA952BA7F163C4A11628F55A4DF523B3EF PUSH1 0x40 MLOAD PUSH1 0x40 MLOAD DUP1 SWAP2 SUB SWAP1 LOG4 DUP1 SWAP2 POP POP SWAP4 SWAP3 POP POP POP JUMP JUMPDEST PUSH2 0x1052 PUSH2 0xE1A JUMP JUMPDEST PUSH20 0xFFFFFFFFFFFFFFFFFFFFFFFFFFFFFFFFFFFFFFFF AND PUSH2 0x1070 PUSH2 0x8D1 JUMP JUMPDEST PUSH20 0xFFFFFFFFFFFFFFFFFFFFFFFFFFFFFFFFFFFFFFFF AND EQ PUSH2 0x10CF JUMPI PUSH2 0x1093 PUSH2 0xE1A JUMP JUMPDEST PUSH1 0x40 MLOAD PUSH32 0x118CDAA700000000000000000000000000000000000000000000000000000000 DUP2 MSTORE PUSH1 0x4 ADD PUSH2 0x10C6 SWAP2 SWAP1 PUSH2 0x20B4 JUMP JUMPDEST PUSH1 0x40 MLOAD DUP1 SWAP2 SUB SWAP1 REVERT JUMPDEST JUMP JUMPDEST PUSH1 0x1 DUP2 PUSH0 ADD PUSH0 DUP3 DUP3 SLOAD ADD SWAP3 POP POP DUP2 SWAP1 SSTORE POP POP JUMP JUMPDEST PUSH1 0x60 PUSH2 0x110B DUP3 PUSH1 0x40 MLOAD DUP1 PUSH1 0x60 ADD PUSH1 0x40 MSTORE DUP1 PUSH1 0x40 DUP2 MSTORE PUSH1 0x20 ADD PUSH2 0x2D93 PUSH1 0x40 SWAP2 CODECOPY PUSH1 0x1 PUSH2 0x1A3F JUMP JUMPDEST SWAP1 POP SWAP2 SWAP1 POP JUMP JUMPDEST PUSH0 PUSH20 0xFFFFFFFFFFFFFFFFFFFFFFFFFFFFFFFFFFFFFFFF AND DUP3 PUSH20 0xFFFFFFFFFFFFFFFFFFFFFFFFFFFFFFFFFFFFFFFF AND SUB PUSH2 0x1182 JUMPI PUSH0 PUSH1 0x40 MLOAD PUSH32 0x64A0AE9200000000000000000000000000000000000000000000000000000000 DUP2 MSTORE PUSH1 0x4 ADD PUSH2 0x1179 SWAP2 SWAP1 PUSH2 0x20B4 JUMP JUMPDEST PUSH1 0x40 MLOAD DUP1 SWAP2 SUB SWAP1 REVERT JUMPDEST PUSH0 PUSH2 0x118E DUP4 DUP4 PUSH0 PUSH2 0xE3F JUMP JUMPDEST SWAP1 POP PUSH0 PUSH20 0xFFFFFFFFFFFFFFFFFFFFFFFFFFFFFFFFFFFFFFFF AND DUP2 PUSH20 0xFFFFFFFFFFFFFFFFFFFFFFFFFFFFFFFFFFFFFFFF AND EQ PUSH2 0x1200 JUMPI PUSH0 PUSH1 0x40 MLOAD PUSH32 0x73C6AC6E00000000000000000000000000000000000000000000000000000000 DUP2 MSTORE PUSH1 0x4 ADD PUSH2 0x11F7 SWAP2 SWAP1 PUSH2 0x20B4 JUMP JUMPDEST PUSH1 0x40 MLOAD DUP1 SWAP2 SUB SWAP1 REVERT JUMPDEST POP POP POP JUMP JUMPDEST DUP1 PUSH1 0x6 PUSH0 DUP5 DUP2 MSTORE PUSH1 0x20 ADD SWAP1 DUP2 MSTORE PUSH1 0x20 ADD PUSH0 KECCAK256 SWAP1 DUP2 PUSH2 0x1223 SWAP2 SWAP1 PUSH2 0x27AF JUMP JUMPDEST POP PUSH32 0xF8E1A15ABA9398E019F0B49DF1A4FDE98EE17AE345CB5F6B5E2C27F5033E8CE7 DUP3 PUSH1 0x40 MLOAD PUSH2 0x1253 SWAP2 SWAP1 PUSH2 0x2144 JUMP JUMPDEST PUSH1 0x40 MLOAD DUP1 SWAP2 SUB SWAP1 LOG1 POP POP JUMP JUMPDEST PUSH0 PUSH1 0x7 PUSH0 SWAP1 SLOAD SWAP1 PUSH2 0x100 EXP SWAP1 DIV PUSH20 0xFFFFFFFFFFFFFFFFFFFFFFFFFFFFFFFFFFFFFFFF AND SWAP1 POP DUP2 PUSH1 0x7 PUSH0 PUSH2 0x100 EXP DUP2 SLOAD DUP2 PUSH20 0xFFFFFFFFFFFFFFFFFFFFFFFFFFFFFFFFFFFFFFFF MUL NOT AND SWAP1 DUP4 PUSH20 0xFFFFFFFFFFFFFFFFFFFFFFFFFFFFFFFFFFFFFFFF AND MUL OR SWAP1 SSTORE POP DUP2 PUSH20 0xFFFFFFFFFFFFFFFFFFFFFFFFFFFFFFFFFFFFFFFF AND DUP2 PUSH20 0xFFFFFFFFFFFFFFFFFFFFFFFFFFFFFFFFFFFFFFFF AND PUSH32 0x8BE0079C531659141344CD1FD0A4F28419497F9722A3DAAFE3B4186F6B6457E0 PUSH1 0x40 MLOAD PUSH1 0x40 MLOAD DUP1 SWAP2 SUB SWAP1 LOG3 POP POP JUMP JUMPDEST PUSH0 DUP1 PUSH20 0xFFFFFFFFFFFFFFFFFFFFFFFFFFFFFFFFFFFFFFFF AND PUSH1 0x9 PUSH0 DUP5 DUP2 MSTORE PUSH1 0x20 ADD SWAP1 DUP2 MSTORE PUSH1 0x20 ADD PUSH0 KECCAK256 PUSH0 SWAP1 SLOAD SWAP1 PUSH2 0x100 EXP SWAP1 DIV PUSH20 0xFFFFFFFFFFFFFFFFFFFFFFFFFFFFFFFFFFFFFFFF AND PUSH20 0xFFFFFFFFFFFFFFFFFFFFFFFFFFFFFFFFFFFFFFFF AND EQ ISZERO SWAP1 POP SWAP2 SWAP1 POP JUMP JUMPDEST PUSH0 PUSH20 0xFFFFFFFFFFFFFFFFFFFFFFFFFFFFFFFFFFFFFFFF AND DUP3 PUSH20 0xFFFFFFFFFFFFFFFFFFFFFFFFFFFFFFFFFFFFFFFF AND SUB PUSH2 0x13FA JUMPI DUP2 PUSH1 0x40 MLOAD PUSH32 0x5B08BA1800000000000000000000000000000000000000000000000000000000 DUP2 MSTORE PUSH1 0x4 ADD PUSH2 0x13F1 SWAP2 SWAP1 PUSH2 0x20B4 JUMP JUMPDEST PUSH1 0x40 MLOAD DUP1 SWAP2 SUB SWAP1 REVERT JUMPDEST DUP1 PUSH1 0x5 PUSH0 DUP6 PUSH20 0xFFFFFFFFFFFFFFFFFFFFFFFFFFFFFFFFFFFFFFFF AND PUSH20 0xFFFFFFFFFFFFFFFFFFFFFFFFFFFFFFFFFFFFFFFF AND DUP2 MSTORE PUSH1 0x20 ADD SWAP1 DUP2 MSTORE PUSH1 0x20 ADD PUSH0 KECCAK256 PUSH0 DUP5 PUSH20 0xFFFFFFFFFFFFFFFFFFFFFFFFFFFFFFFFFFFFFFFF AND PUSH20 0xFFFFFFFFFFFFFFFFFFFFFFFFFFFFFFFFFFFFFFFF AND DUP2 MSTORE PUSH1 0x20 ADD SWAP1 DUP2 MSTORE PUSH1 0x20 ADD PUSH0 KECCAK256 PUSH0 PUSH2 0x100 EXP DUP2 SLOAD DUP2 PUSH1 0xFF MUL NOT AND SWAP1 DUP4 ISZERO ISZERO MUL OR SWAP1 SSTORE POP DUP2 PUSH20 0xFFFFFFFFFFFFFFFFFFFFFFFFFFFFFFFFFFFFFFFF AND DUP4 PUSH20 0xFFFFFFFFFFFFFFFFFFFFFFFFFFFFFFFFFFFFFFFF AND PUSH32 0x17307EAB39AB6107E8899845AD3D59BD9653F200F220920489CA2B5937696C31 DUP4 PUSH1 0x40 MLOAD PUSH2 0x14E6 SWAP2 SWAP1 PUSH2 0x1F54 JUMP JUMPDEST PUSH1 0x40 MLOAD DUP1 SWAP2 SUB SWAP1 LOG3 POP POP POP JUMP JUMPDEST PUSH0 DUP4 PUSH20 0xFFFFFFFFFFFFFFFFFFFFFFFFFFFFFFFFFFFFFFFF AND EXTCODESIZE GT ISZERO PUSH2 0x1698 JUMPI DUP3 PUSH20 0xFFFFFFFFFFFFFFFFFFFFFFFFFFFFFFFFFFFFFFFF AND PUSH4 0x150B7A02 DUP7 DUP7 DUP6 DUP6 PUSH1 0x40 MLOAD DUP6 PUSH4 0xFFFFFFFF AND PUSH1 0xE0 SHL DUP2 MSTORE PUSH1 0x4 ADD PUSH2 0x1551 SWAP5 SWAP4 SWAP3 SWAP2 SWAP1 PUSH2 0x2BE4 JUMP JUMPDEST PUSH1 0x20 PUSH1 0x40 MLOAD DUP1 DUP4 SUB DUP2 PUSH0 DUP8 GAS CALL SWAP3 POP POP POP DUP1 ISZERO PUSH2 0x158C JUMPI POP PUSH1 0x40 MLOAD RETURNDATASIZE PUSH1 0x1F NOT PUSH1 0x1F DUP3 ADD AND DUP3 ADD DUP1 PUSH1 0x40 MSTORE POP DUP2 ADD SWAP1 PUSH2 0x1589 SWAP2 SWAP1 PUSH2 0x2C42 JUMP JUMPDEST PUSH1 0x1 JUMPDEST PUSH2 0x160D JUMPI RETURNDATASIZE DUP1 PUSH0 DUP2 EQ PUSH2 0x15BA JUMPI PUSH1 0x40 MLOAD SWAP2 POP PUSH1 0x1F NOT PUSH1 0x3F RETURNDATASIZE ADD AND DUP3 ADD PUSH1 0x40 MSTORE RETURNDATASIZE DUP3 MSTORE RETURNDATASIZE PUSH0 PUSH1 0x20 DUP5 ADD RETURNDATACOPY PUSH2 0x15BF JUMP JUMPDEST PUSH1 0x60 SWAP2 POP JUMPDEST POP PUSH0 DUP2 MLOAD SUB PUSH2 0x1605 JUMPI DUP4 PUSH1 0x40 MLOAD PUSH32 0x64A0AE9200000000000000000000000000000000000000000000000000000000 DUP2 MSTORE PUSH1 0x4 ADD PUSH2 0x15FC SWAP2 SWAP1 PUSH2 0x20B4 JUMP JUMPDEST PUSH1 0x40 MLOAD DUP1 SWAP2 SUB SWAP1 REVERT JUMPDEST DUP1 MLOAD PUSH1 0x20 DUP3 ADD REVERT JUMPDEST PUSH4 0x150B7A02 PUSH1 0xE0 SHL PUSH28 0xFFFFFFFFFFFFFFFFFFFFFFFFFFFFFFFFFFFFFFFFFFFFFFFFFFFFFFFF NOT AND DUP2 PUSH28 0xFFFFFFFFFFFFFFFFFFFFFFFFFFFFFFFFFFFFFFFFFFFFFFFFFFFFFFFF NOT AND EQ PUSH2 0x1696 JUMPI DUP4 PUSH1 0x40 MLOAD PUSH32 0x64A0AE9200000000000000000000000000000000000000000000000000000000 DUP2 MSTORE PUSH1 0x4 ADD PUSH2 0x168D SWAP2 SWAP1 PUSH2 0x20B4 JUMP JUMPDEST PUSH1 0x40 MLOAD DUP1 SWAP2 SUB SWAP1 REVERT JUMPDEST POP JUMPDEST POP POP POP POP POP JUMP JUMPDEST PUSH1 0x60 PUSH1 0x40 MLOAD DUP1 PUSH1 0x20 ADD PUSH1 0x40 MSTORE DUP1 PUSH0 DUP2 MSTORE POP SWAP1 POP SWAP1 JUMP JUMPDEST PUSH1 0x60 PUSH2 0x16C0 DUP3 PUSH2 0xD5B JUMP JUMPDEST POP PUSH0 PUSH2 0x16CA PUSH2 0x169F JUMP JUMPDEST SWAP1 POP PUSH0 DUP2 MLOAD GT PUSH2 0x16E8 JUMPI PUSH1 0x40 MLOAD DUP1 PUSH1 0x20 ADD PUSH1 0x40 MSTORE DUP1 PUSH0 DUP2 MSTORE POP PUSH2 0x1713 JUMP JUMPDEST DUP1 PUSH2 0x16F2 DUP5 PUSH2 0x1BCE JUMP JUMPDEST PUSH1 0x40 MLOAD PUSH1 0x20 ADD PUSH2 0x1703 SWAP3 SWAP2 SWAP1 PUSH2 0x2B6F JUMP JUMPDEST PUSH1 0x40 MLOAD PUSH1 0x20 DUP2 DUP4 SUB SUB DUP2 MSTORE SWAP1 PUSH1 0x40 MSTORE JUMPDEST SWAP2 POP POP SWAP2 SWAP1 POP JUMP JUMPDEST PUSH0 PUSH32 0x1FFC9A700000000000000000000000000000000000000000000000000000000 PUSH28 0xFFFFFFFFFFFFFFFFFFFFFFFFFFFFFFFFFFFFFFFFFFFFFFFFFFFFFFFF NOT AND DUP3 PUSH28 0xFFFFFFFFFFFFFFFFFFFFFFFFFFFFFFFFFFFFFFFFFFFFFFFFFFFFFFFF NOT AND EQ SWAP1 POP SWAP2 SWAP1 POP JUMP JUMPDEST PUSH0 PUSH1 0x2 PUSH0 DUP4 DUP2 MSTORE PUSH1 0x20 ADD SWAP1 DUP2 MSTORE PUSH1 0x20 ADD PUSH0 KECCAK256 PUSH0 SWAP1 SLOAD SWAP1 PUSH2 0x100 EXP SWAP1 DIV PUSH20 0xFFFFFFFFFFFFFFFFFFFFFFFFFFFFFFFFFFFFFFFF AND SWAP1 POP SWAP2 SWAP1 POP JUMP JUMPDEST DUP1 DUP1 PUSH2 0x17F5 JUMPI POP PUSH0 PUSH20 0xFFFFFFFFFFFFFFFFFFFFFFFFFFFFFFFFFFFFFFFF AND DUP3 PUSH20 0xFFFFFFFFFFFFFFFFFFFFFFFFFFFFFFFFFFFFFFFF AND EQ ISZERO JUMPDEST ISZERO PUSH2 0x1927 JUMPI PUSH0 PUSH2 0x1804 DUP5 PUSH2 0xD5B JUMP JUMPDEST SWAP1 POP PUSH0 PUSH20 0xFFFFFFFFFFFFFFFFFFFFFFFFFFFFFFFFFFFFFFFF AND DUP4 PUSH20 0xFFFFFFFFFFFFFFFFFFFFFFFFFFFFFFFFFFFFFFFF AND EQ ISZERO DUP1 ISZERO PUSH2 0x186E JUMPI POP DUP3 PUSH20 0xFFFFFFFFFFFFFFFFFFFFFFFFFFFFFFFFFFFFFFFF AND DUP2 PUSH20 0xFFFFFFFFFFFFFFFFFFFFFFFFFFFFFFFFFFFFFFFF AND EQ ISZERO JUMPDEST DUP1 ISZERO PUSH2 0x1881 JUMPI POP PUSH2 0x187F DUP2 DUP5 PUSH2 0xB68 JUMP JUMPDEST ISZERO JUMPDEST ISZERO PUSH2 0x18C3 JUMPI DUP3 PUSH1 0x40 MLOAD PUSH32 0xA9FBF51F00000000000000000000000000000000000000000000000000000000 DUP2 MSTORE PUSH1 0x4 ADD PUSH2 0x18BA SWAP2 SWAP1 PUSH2 0x20B4 JUMP JUMPDEST PUSH1 0x40 MLOAD DUP1 SWAP2 SUB SWAP1 REVERT JUMPDEST DUP2 ISZERO PUSH2 0x1925 JUMPI DUP4 DUP6 PUSH20 0xFFFFFFFFFFFFFFFFFFFFFFFFFFFFFFFFFFFFFFFF AND DUP3 PUSH20 0xFFFFFFFFFFFFFFFFFFFFFFFFFFFFFFFFFFFFFFFF AND PUSH32 0x8C5BE1E5EBEC7D5BD14F71427D1E84F3DD0314C0F7B2291E5B200AC8C7C3B925 PUSH1 0x40 MLOAD PUSH1 0x40 MLOAD DUP1 SWAP2 SUB SWAP1 LOG4 JUMPDEST POP JUMPDEST DUP4 PUSH1 0x4 PUSH0 DUP6 DUP2 MSTORE PUSH1 0x20 ADD SWAP1 DUP2 MSTORE PUSH1 0x20 ADD PUSH0 KECCAK256 PUSH0 PUSH2 0x100 EXP DUP2 SLOAD DUP2 PUSH20 0xFFFFFFFFFFFFFFFFFFFFFFFFFFFFFFFFFFFFFFFF MUL NOT AND SWAP1 DUP4 PUSH20 0xFFFFFFFFFFFFFFFFFFFFFFFFFFFFFFFFFFFFFFFF AND MUL OR SWAP1 SSTORE POP POP POP POP POP JUMP JUMPDEST PUSH2 0x1987 DUP4 DUP4 DUP4 PUSH2 0x1C98 JUMP JUMPDEST PUSH2 0x1A3A JUMPI PUSH0 PUSH20 0xFFFFFFFFFFFFFFFFFFFFFFFFFFFFFFFFFFFFFFFF AND DUP4 PUSH20 0xFFFFFFFFFFFFFFFFFFFFFFFFFFFFFFFFFFFFFFFF AND SUB PUSH2 0x19FB JUMPI DUP1 PUSH1 0x40 MLOAD PUSH32 0x7E27328900000000000000000000000000000000000000000000000000000000 DUP2 MSTORE PUSH1 0x4 ADD PUSH2 0x19F2 SWAP2 SWAP1 PUSH2 0x2144 JUMP JUMPDEST PUSH1 0x40 MLOAD DUP1 SWAP2 SUB SWAP1 REVERT JUMPDEST DUP2 DUP2 PUSH1 0x40 MLOAD PUSH32 0x177E802F00000000000000000000000000000000000000000000000000000000 DUP2 MSTORE PUSH1 0x4 ADD PUSH2 0x1A31 SWAP3 SWAP2 SWAP1 PUSH2 0x2C6D JUMP JUMPDEST PUSH1 0x40 MLOAD DUP1 SWAP2 SUB SWAP1 REVERT JUMPDEST POP POP POP JUMP JUMPDEST PUSH1 0x60 PUSH0 DUP5 MLOAD SUB PUSH2 0x1A5F JUMPI PUSH1 0x40 MLOAD DUP1 PUSH1 0x20 ADD PUSH1 0x40 MSTORE DUP1 PUSH0 DUP2 MSTORE POP SWAP1 POP PUSH2 0x1BC7 JUMP JUMPDEST PUSH0 DUP3 PUSH2 0x1A90 JUMPI PUSH1 0x3 PUSH1 0x2 DUP7 MLOAD PUSH1 0x4 PUSH2 0x1A77 SWAP2 SWAP1 PUSH2 0x2CC1 JUMP JUMPDEST PUSH2 0x1A81 SWAP2 SWAP1 PUSH2 0x2D02 JUMP JUMPDEST PUSH2 0x1A8B SWAP2 SWAP1 PUSH2 0x2D62 JUMP JUMPDEST PUSH2 0x1AB7 JUMP JUMPDEST PUSH1 0x3 PUSH1 0x2 DUP7 MLOAD PUSH2 0x1AA0 SWAP2 SWAP1 PUSH2 0x2D02 JUMP JUMPDEST PUSH2 0x1AAA SWAP2 SWAP1 PUSH2 0x2D62 JUMP JUMPDEST PUSH1 0x4 PUSH2 0x1AB6 SWAP2 SWAP1 PUSH2 0x2CC1 JUMP JUMPDEST JUMPDEST SWAP1 POP PUSH0 DUP2 PUSH8 0xFFFFFFFFFFFFFFFF DUP2 GT ISZERO PUSH2 0x1AD4 JUMPI PUSH2 0x1AD3 PUSH2 0x21B5 JUMP JUMPDEST JUMPDEST PUSH1 0x40 MLOAD SWAP1 DUP1 DUP3 MSTORE DUP1 PUSH1 0x1F ADD PUSH1 0x1F NOT AND PUSH1 0x20 ADD DUP3 ADD PUSH1 0x40 MSTORE DUP1 ISZERO PUSH2 0x1B06 JUMPI DUP2 PUSH1 0x20 ADD PUSH1 0x1 DUP3 MUL DUP1 CALLDATASIZE DUP4 CALLDATACOPY DUP1 DUP3 ADD SWAP2 POP POP SWAP1 POP JUMPDEST POP SWAP1 POP PUSH1 0x1 DUP6 ADD PUSH1 0x20 DUP3 ADD DUP8 DUP9 MLOAD DUP10 ADD PUSH1 0x20 DUP2 ADD DUP1 MLOAD PUSH0 DUP3 MSTORE JUMPDEST DUP3 DUP5 LT ISZERO PUSH2 0x1B7B JUMPI PUSH1 0x3 DUP5 ADD SWAP4 POP DUP4 MLOAD PUSH1 0x3F DUP2 PUSH1 0x12 SHR AND DUP8 ADD MLOAD DUP7 MSTORE8 PUSH1 0x1 DUP7 ADD SWAP6 POP PUSH1 0x3F DUP2 PUSH1 0xC SHR AND DUP8 ADD MLOAD DUP7 MSTORE8 PUSH1 0x1 DUP7 ADD SWAP6 POP PUSH1 0x3F DUP2 PUSH1 0x6 SHR AND DUP8 ADD MLOAD DUP7 MSTORE8 PUSH1 0x1 DUP7 ADD SWAP6 POP PUSH1 0x3F DUP2 AND DUP8 ADD MLOAD DUP7 MSTORE8 PUSH1 0x1 DUP7 ADD SWAP6 POP POP PUSH2 0x1B20 JUMP JUMPDEST DUP1 DUP3 MSTORE DUP10 ISZERO PUSH2 0x1BBB JUMPI PUSH1 0x3 DUP13 MLOAD MOD PUSH1 0x1 DUP2 EQ PUSH2 0x1B9E JUMPI PUSH1 0x2 DUP2 EQ PUSH2 0x1BB1 JUMPI PUSH2 0x1BB9 JUMP JUMPDEST PUSH1 0x3D PUSH1 0x1 DUP8 SUB MSTORE8 PUSH1 0x3D PUSH1 0x2 DUP8 SUB MSTORE8 PUSH2 0x1BB9 JUMP JUMPDEST PUSH1 0x3D PUSH1 0x1 DUP8 SUB MSTORE8 JUMPDEST POP JUMPDEST POP POP POP POP POP POP DUP1 SWAP3 POP POP POP JUMPDEST SWAP4 SWAP3 POP POP POP JUMP JUMPDEST PUSH1 0x60 PUSH0 PUSH1 0x1 PUSH2 0x1BDC DUP5 PUSH2 0x1D58 JUMP JUMPDEST ADD SWAP1 POP PUSH0 DUP2 PUSH8 0xFFFFFFFFFFFFFFFF DUP2 GT ISZERO PUSH2 0x1BFA JUMPI PUSH2 0x1BF9 PUSH2 0x21B5 JUMP JUMPDEST JUMPDEST PUSH1 0x40 MLOAD SWAP1 DUP1 DUP3 MSTORE DUP1 PUSH1 0x1F ADD PUSH1 0x1F NOT AND PUSH1 0x20 ADD DUP3 ADD PUSH1 0x40 MSTORE DUP1 ISZERO PUSH2 0x1C2C JUMPI DUP2 PUSH1 0x20 ADD PUSH1 0x1 DUP3 MUL DUP1 CALLDATASIZE DUP4 CALLDATACOPY DUP1 DUP3 ADD SWAP2 POP POP SWAP1 POP JUMPDEST POP SWAP1 POP PUSH0 DUP3 PUSH1 0x20 DUP4 ADD ADD SWAP1 POP JUMPDEST PUSH1 0x1 ISZERO PUSH2 0x1C8D JUMPI DUP1 DUP1 PUSH1 0x1 SWAP1 SUB SWAP2 POP POP PUSH32 0x3031323334353637383961626364656600000000000000000000000000000000 PUSH1 0xA DUP7 MOD BYTE DUP2 MSTORE8 PUSH1 0xA DUP6 DUP2 PUSH2 0x1C82 JUMPI PUSH2 0x1C81 PUSH2 0x2D35 JUMP JUMPDEST JUMPDEST DIV SWAP5 POP PUSH0 DUP6 SUB PUSH2 0x1C39 JUMPI JUMPDEST DUP2 SWAP4 POP POP POP POP SWAP2 SWAP1 POP JUMP JUMPDEST PUSH0 DUP1 PUSH20 0xFFFFFFFFFFFFFFFFFFFFFFFFFFFFFFFFFFFFFFFF AND DUP4 PUSH20 0xFFFFFFFFFFFFFFFFFFFFFFFFFFFFFFFFFFFFFFFF AND EQ ISZERO DUP1 ISZERO PUSH2 0x1D4F JUMPI POP DUP3 PUSH20 0xFFFFFFFFFFFFFFFFFFFFFFFFFFFFFFFFFFFFFFFF AND DUP5 PUSH20 0xFFFFFFFFFFFFFFFFFFFFFFFFFFFFFFFFFFFFFFFF AND EQ DUP1 PUSH2 0x1D10 JUMPI POP PUSH2 0x1D0F DUP5 DUP5 PUSH2 0xB68 JUMP JUMPDEST JUMPDEST DUP1 PUSH2 0x1D4E JUMPI POP DUP3 PUSH20 0xFFFFFFFFFFFFFFFFFFFFFFFFFFFFFFFFFFFFFFFF AND PUSH2 0x1D36 DUP4 PUSH2 0xDE1 JUMP JUMPDEST PUSH20 0xFFFFFFFFFFFFFFFFFFFFFFFFFFFFFFFFFFFFFFFF AND EQ JUMPDEST JUMPDEST SWAP1 POP SWAP4 SWAP3 POP POP POP JUMP JUMPDEST PUSH0 DUP1 PUSH0 SWAP1 POP PUSH27 0x184F03E93FF9F4DAA797ED6E38ED64BF6A1F010000000000000000 DUP4 LT PUSH2 0x1DB4 JUMPI PUSH27 0x184F03E93FF9F4DAA797ED6E38ED64BF6A1F010000000000000000 DUP4 DUP2 PUSH2 0x1DAA JUMPI PUSH2 0x1DA9 PUSH2 0x2D35 JUMP JUMPDEST JUMPDEST DIV SWAP3 POP PUSH1 0x40 DUP2 ADD SWAP1 POP JUMPDEST PUSH14 0x4EE2D6D415B85ACEF8100000000 DUP4 LT PUSH2 0x1DF1 JUMPI PUSH14 0x4EE2D6D415B85ACEF8100000000 DUP4 DUP2 PUSH2 0x1DE7 JUMPI PUSH2 0x1DE6 PUSH2 0x2D35 JUMP JUMPDEST JUMPDEST DIV SWAP3 POP PUSH1 0x20 DUP2 ADD SWAP1 POP JUMPDEST PUSH7 0x2386F26FC10000 DUP4 LT PUSH2 0x1E20 JUMPI PUSH7 0x2386F26FC10000 DUP4 DUP2 PUSH2 0x1E16 JUMPI PUSH2 0x1E15 PUSH2 0x2D35 JUMP JUMPDEST JUMPDEST DIV SWAP3 POP PUSH1 0x10 DUP2 ADD SWAP1 POP JUMPDEST PUSH4 0x5F5E100 DUP4 LT PUSH2 0x1E49 JUMPI PUSH4 0x5F5E100 DUP4 DUP2 PUSH2 0x1E3F JUMPI PUSH2 0x1E3E PUSH2 0x2D35 JUMP JUMPDEST JUMPDEST DIV SWAP3 POP PUSH1 0x8 DUP2 ADD SWAP1 POP JUMPDEST PUSH2 0x2710 DUP4 LT PUSH2 0x1E6E JUMPI PUSH2 0x2710 DUP4 DUP2 PUSH2 0x1E64 JUMPI PUSH2 0x1E63 PUSH2 0x2D35 JUMP JUMPDEST JUMPDEST DIV SWAP3 POP PUSH1 0x4 DUP2 ADD SWAP1 POP JUMPDEST PUSH1 0x64 DUP4 LT PUSH2 0x1E91 JUMPI PUSH1 0x64 DUP4 DUP2 PUSH2 0x1E87 JUMPI PUSH2 0x1E86 PUSH2 0x2D35 JUMP JUMPDEST JUMPDEST DIV SWAP3 POP PUSH1 0x2 DUP2 ADD SWAP1 POP JUMPDEST PUSH1 0xA DUP4 LT PUSH2 0x1EA0 JUMPI PUSH1 0x1 DUP2 ADD SWAP1 POP JUMPDEST DUP1 SWAP2 POP POP SWAP2 SWAP1 POP JUMP JUMPDEST PUSH0 PUSH1 0x40 MLOAD SWAP1 POP SWAP1 JUMP JUMPDEST PUSH0 DUP1 REVERT JUMPDEST PUSH0 DUP1 REVERT JUMPDEST PUSH0 PUSH32 0xFFFFFFFF00000000000000000000000000000000000000000000000000000000 DUP3 AND SWAP1 POP SWAP2 SWAP1 POP JUMP JUMPDEST PUSH2 0x1EEE DUP2 PUSH2 0x1EBA JUMP JUMPDEST DUP2 EQ PUSH2 0x1EF8 JUMPI PUSH0 DUP1 REVERT JUMPDEST POP JUMP JUMPDEST PUSH0 DUP2 CALLDATALOAD SWAP1 POP PUSH2 0x1F09 DUP2 PUSH2 0x1EE5 JUMP JUMPDEST SWAP3 SWAP2 POP POP JUMP JUMPDEST PUSH0 PUSH1 0x20 DUP3 DUP5 SUB SLT ISZERO PUSH2 0x1F24 JUMPI PUSH2 0x1F23 PUSH2 0x1EB2 JUMP JUMPDEST JUMPDEST PUSH0 PUSH2 0x1F31 DUP5 DUP3 DUP6 ADD PUSH2 0x1EFB JUMP JUMPDEST SWAP2 POP POP SWAP3 SWAP2 POP POP JUMP JUMPDEST PUSH0 DUP2 ISZERO ISZERO SWAP1 POP SWAP2 SWAP1 POP JUMP JUMPDEST PUSH2 0x1F4E DUP2 PUSH2 0x1F3A JUMP JUMPDEST DUP3 MSTORE POP POP JUMP JUMPDEST PUSH0 PUSH1 0x20 DUP3 ADD SWAP1 POP PUSH2 0x1F67 PUSH0 DUP4 ADD DUP5 PUSH2 0x1F45 JUMP JUMPDEST SWAP3 SWAP2 POP POP JUMP JUMPDEST PUSH0 DUP2 MLOAD SWAP1 POP SWAP2 SWAP1 POP JUMP JUMPDEST PUSH0 DUP3 DUP3 MSTORE PUSH1 0x20 DUP3 ADD SWAP1 POP SWAP3 SWAP2 POP POP JUMP JUMPDEST PUSH0 JUMPDEST DUP4 DUP2 LT ISZERO PUSH2 0x1FA4 JUMPI DUP1 DUP3 ADD MLOAD DUP2 DUP5 ADD MSTORE PUSH1 0x20 DUP2 ADD SWAP1 POP PUSH2 0x1F89 JUMP JUMPDEST PUSH0 DUP5 DUP5 ADD MSTORE POP POP POP POP JUMP JUMPDEST PUSH0 PUSH1 0x1F NOT PUSH1 0x1F DUP4 ADD AND SWAP1 POP SWAP2 SWAP1 POP JUMP JUMPDEST PUSH0 PUSH2 0x1FC9 DUP3 PUSH2 0x1F6D JUMP JUMPDEST PUSH2 0x1FD3 DUP2 DUP6 PUSH2 0x1F77 JUMP JUMPDEST SWAP4 POP PUSH2 0x1FE3 DUP2 DUP6 PUSH1 0x20 DUP7 ADD PUSH2 0x1F87 JUMP JUMPDEST PUSH2 0x1FEC DUP2 PUSH2 0x1FAF JUMP JUMPDEST DUP5 ADD SWAP2 POP POP SWAP3 SWAP2 POP POP JUMP JUMPDEST PUSH0 PUSH1 0x20 DUP3 ADD SWAP1 POP DUP2 DUP2 SUB PUSH0 DUP4 ADD MSTORE PUSH2 0x200F DUP2 DUP5 PUSH2 0x1FBF JUMP JUMPDEST SWAP1 POP SWAP3 SWAP2 POP POP JUMP JUMPDEST PUSH0 DUP2 SWAP1 POP SWAP2 SWAP1 POP JUMP JUMPDEST PUSH2 0x2029 DUP2 PUSH2 0x2017 JUMP JUMPDEST DUP2 EQ PUSH2 0x2033 JUMPI PUSH0 DUP1 REVERT JUMPDEST POP JUMP JUMPDEST PUSH0 DUP2 CALLDATALOAD SWAP1 POP PUSH2 0x2044 DUP2 PUSH2 0x2020 JUMP JUMPDEST SWAP3 SWAP2 POP POP JUMP JUMPDEST PUSH0 PUSH1 0x20 DUP3 DUP5 SUB SLT ISZERO PUSH2 0x205F JUMPI PUSH2 0x205E PUSH2 0x1EB2 JUMP JUMPDEST JUMPDEST PUSH0 PUSH2 0x206C DUP5 DUP3 DUP6 ADD PUSH2 0x2036 JUMP JUMPDEST SWAP2 POP POP SWAP3 SWAP2 POP POP JUMP JUMPDEST PUSH0 PUSH20 0xFFFFFFFFFFFFFFFFFFFFFFFFFFFFFFFFFFFFFFFF DUP3 AND SWAP1 POP SWAP2 SWAP1 POP JUMP JUMPDEST PUSH0 PUSH2 0x209E DUP3 PUSH2 0x2075 JUMP JUMPDEST SWAP1 POP SWAP2 SWAP1 POP JUMP JUMPDEST PUSH2 0x20AE DUP2 PUSH2 0x2094 JUMP JUMPDEST DUP3 MSTORE POP POP JUMP JUMPDEST PUSH0 PUSH1 0x20 DUP3 ADD SWAP1 POP PUSH2 0x20C7 PUSH0 DUP4 ADD DUP5 PUSH2 0x20A5 JUMP JUMPDEST SWAP3 SWAP2 POP POP JUMP JUMPDEST PUSH2 0x20D6 DUP2 PUSH2 0x2094 JUMP JUMPDEST DUP2 EQ PUSH2 0x20E0 JUMPI PUSH0 DUP1 REVERT JUMPDEST POP JUMP JUMPDEST PUSH0 DUP2 CALLDATALOAD SWAP1 POP PUSH2 0x20F1 DUP2 PUSH2 0x20CD JUMP JUMPDEST SWAP3 SWAP2 POP POP JUMP JUMPDEST PUSH0 DUP1 PUSH1 0x40 DUP4 DUP6 SUB SLT ISZERO PUSH2 0x210D JUMPI PUSH2 0x210C PUSH2 0x1EB2 JUMP JUMPDEST JUMPDEST PUSH0 PUSH2 0x211A DUP6 DUP3 DUP7 ADD PUSH2 0x20E3 JUMP JUMPDEST SWAP3 POP POP PUSH1 0x20 PUSH2 0x212B DUP6 DUP3 DUP7 ADD PUSH2 0x2036 JUMP JUMPDEST SWAP2 POP POP SWAP3 POP SWAP3 SWAP1 POP JUMP JUMPDEST PUSH2 0x213E DUP2 PUSH2 0x2017 JUMP JUMPDEST DUP3 MSTORE POP POP JUMP JUMPDEST PUSH0 PUSH1 0x20 DUP3 ADD SWAP1 POP PUSH2 0x2157 PUSH0 DUP4 ADD DUP5 PUSH2 0x2135 JUMP JUMPDEST SWAP3 SWAP2 POP POP JUMP JUMPDEST PUSH0 DUP1 PUSH0 PUSH1 0x60 DUP5 DUP7 SUB SLT ISZERO PUSH2 0x2174 JUMPI PUSH2 0x2173 PUSH2 0x1EB2 JUMP JUMPDEST JUMPDEST PUSH0 PUSH2 0x2181 DUP7 DUP3 DUP8 ADD PUSH2 0x20E3 JUMP JUMPDEST SWAP4 POP POP PUSH1 0x20 PUSH2 0x2192 DUP7 DUP3 DUP8 ADD PUSH2 0x20E3 JUMP JUMPDEST SWAP3 POP POP PUSH1 0x40 PUSH2 0x21A3 DUP7 DUP3 DUP8 ADD PUSH2 0x2036 JUMP JUMPDEST SWAP2 POP POP SWAP3 POP SWAP3 POP SWAP3 JUMP JUMPDEST PUSH0 DUP1 REVERT JUMPDEST PUSH0 DUP1 REVERT JUMPDEST PUSH32 0x4E487B7100000000000000000000000000000000000000000000000000000000 PUSH0 MSTORE PUSH1 0x41 PUSH1 0x4 MSTORE PUSH1 0x24 PUSH0 REVERT JUMPDEST PUSH2 0x21EB DUP3 PUSH2 0x1FAF JUMP JUMPDEST DUP2 ADD DUP2 DUP2 LT PUSH8 0xFFFFFFFFFFFFFFFF DUP3 GT OR ISZERO PUSH2 0x220A JUMPI PUSH2 0x2209 PUSH2 0x21B5 JUMP JUMPDEST JUMPDEST DUP1 PUSH1 0x40 MSTORE POP POP POP JUMP JUMPDEST PUSH0 PUSH2 0x221C PUSH2 0x1EA9 JUMP JUMPDEST SWAP1 POP PUSH2 0x2228 DUP3 DUP3 PUSH2 0x21E2 JUMP JUMPDEST SWAP2 SWAP1 POP JUMP JUMPDEST PUSH0 PUSH8 0xFFFFFFFFFFFFFFFF DUP3 GT ISZERO PUSH2 0x2247 JUMPI PUSH2 0x2246 PUSH2 0x21B5 JUMP JUMPDEST JUMPDEST PUSH2 0x2250 DUP3 PUSH2 0x1FAF JUMP JUMPDEST SWAP1 POP PUSH1 0x20 DUP2 ADD SWAP1 POP SWAP2 SWAP1 POP JUMP JUMPDEST DUP3 DUP2 DUP4 CALLDATACOPY PUSH0 DUP4 DUP4 ADD MSTORE POP POP POP JUMP JUMPDEST PUSH0 PUSH2 0x227D PUSH2 0x2278 DUP5 PUSH2 0x222D JUMP JUMPDEST PUSH2 0x2213 JUMP JUMPDEST SWAP1 POP DUP3 DUP2 MSTORE PUSH1 0x20 DUP2 ADD DUP5 DUP5 DUP5 ADD GT ISZERO PUSH2 0x2299 JUMPI PUSH2 0x2298 PUSH2 0x21B1 JUMP JUMPDEST JUMPDEST PUSH2 0x22A4 DUP5 DUP3 DUP6 PUSH2 0x225D JUMP JUMPDEST POP SWAP4 SWAP3 POP POP POP JUMP JUMPDEST PUSH0 DUP3 PUSH1 0x1F DUP4 ADD SLT PUSH2 0x22C0 JUMPI PUSH2 0x22BF PUSH2 0x21AD JUMP JUMPDEST JUMPDEST DUP2 CALLDATALOAD PUSH2 0x22D0 DUP5 DUP3 PUSH1 0x20 DUP7 ADD PUSH2 0x226B JUMP JUMPDEST SWAP2 POP POP SWAP3 SWAP2 POP POP JUMP JUMPDEST PUSH0 DUP1 PUSH0 DUP1 PUSH1 0x80 DUP6 DUP8 SUB SLT ISZERO PUSH2 0x22F1 JUMPI PUSH2 0x22F0 PUSH2 0x1EB2 JUMP JUMPDEST JUMPDEST PUSH0 PUSH2 0x22FE DUP8 DUP3 DUP9 ADD PUSH2 0x20E3 JUMP JUMPDEST SWAP5 POP POP PUSH1 0x20 DUP6 ADD CALLDATALOAD PUSH8 0xFFFFFFFFFFFFFFFF DUP2 GT ISZERO PUSH2 0x231F JUMPI PUSH2 0x231E PUSH2 0x1EB6 JUMP JUMPDEST JUMPDEST PUSH2 0x232B DUP8 DUP3 DUP9 ADD PUSH2 0x22AC JUMP JUMPDEST SWAP4 POP POP PUSH1 0x40 DUP6 ADD CALLDATALOAD PUSH8 0xFFFFFFFFFFFFFFFF DUP2 GT ISZERO PUSH2 0x234C JUMPI PUSH2 0x234B PUSH2 0x1EB6 JUMP JUMPDEST JUMPDEST PUSH2 0x2358 DUP8 DUP3 DUP9 ADD PUSH2 0x22AC JUMP JUMPDEST SWAP3 POP POP PUSH1 0x60 DUP6 ADD CALLDATALOAD PUSH8 0xFFFFFFFFFFFFFFFF DUP2 GT ISZERO PUSH2 0x2379 JUMPI PUSH2 0x2378 PUSH2 0x1EB6 JUMP JUMPDEST JUMPDEST PUSH2 0x2385 DUP8 DUP3 DUP9 ADD PUSH2 0x22AC JUMP JUMPDEST SWAP2 POP POP SWAP3 SWAP6 SWAP2 SWAP5 POP SWAP3 POP JUMP JUMPDEST PUSH0 PUSH1 0x20 DUP3 DUP5 SUB SLT ISZERO PUSH2 0x23A6 JUMPI PUSH2 0x23A5 PUSH2 0x1EB2 JUMP JUMPDEST JUMPDEST PUSH0 PUSH2 0x23B3 DUP5 DUP3 DUP6 ADD PUSH2 0x20E3 JUMP JUMPDEST SWAP2 POP POP SWAP3 SWAP2 POP POP JUMP JUMPDEST PUSH2 0x23C5 DUP2 PUSH2 0x1F3A JUMP JUMPDEST DUP2 EQ PUSH2 0x23CF JUMPI PUSH0 DUP1 REVERT JUMPDEST POP JUMP JUMPDEST PUSH0 DUP2 CALLDATALOAD SWAP1 POP PUSH2 0x23E0 DUP2 PUSH2 0x23BC JUMP JUMPDEST SWAP3 SWAP2 POP POP JUMP JUMPDEST PUSH0 DUP1 PUSH1 0x40 DUP4 DUP6 SUB SLT ISZERO PUSH2 0x23FC JUMPI PUSH2 0x23FB PUSH2 0x1EB2 JUMP JUMPDEST JUMPDEST PUSH0 PUSH2 0x2409 DUP6 DUP3 DUP7 ADD PUSH2 0x20E3 JUMP JUMPDEST SWAP3 POP POP PUSH1 0x20 PUSH2 0x241A DUP6 DUP3 DUP7 ADD PUSH2 0x23D2 JUMP JUMPDEST SWAP2 POP POP SWAP3 POP SWAP3 SWAP1 POP JUMP JUMPDEST PUSH0 PUSH8 0xFFFFFFFFFFFFFFFF DUP3 GT ISZERO PUSH2 0x243E JUMPI PUSH2 0x243D PUSH2 0x21B5 JUMP JUMPDEST JUMPDEST PUSH2 0x2447 DUP3 PUSH2 0x1FAF JUMP JUMPDEST SWAP1 POP PUSH1 0x20 DUP2 ADD SWAP1 POP SWAP2 SWAP1 POP JUMP JUMPDEST PUSH0 PUSH2 0x2466 PUSH2 0x2461 DUP5 PUSH2 0x2424 JUMP JUMPDEST PUSH2 0x2213 JUMP JUMPDEST SWAP1 POP DUP3 DUP2 MSTORE PUSH1 0x20 DUP2 ADD DUP5 DUP5 DUP5 ADD GT ISZERO PUSH2 0x2482 JUMPI PUSH2 0x2481 PUSH2 0x21B1 JUMP JUMPDEST JUMPDEST PUSH2 0x248D DUP5 DUP3 DUP6 PUSH2 0x225D JUMP JUMPDEST POP SWAP4 SWAP3 POP POP POP JUMP JUMPDEST PUSH0 DUP3 PUSH1 0x1F DUP4 ADD SLT PUSH2 0x24A9 JUMPI PUSH2 0x24A8 PUSH2 0x21AD JUMP JUMPDEST JUMPDEST DUP2 CALLDATALOAD PUSH2 0x24B9 DUP5 DUP3 PUSH1 0x20 DUP7 ADD PUSH2 0x2454 JUMP JUMPDEST SWAP2 POP POP SWAP3 SWAP2 POP POP JUMP JUMPDEST PUSH0 DUP1 PUSH0 DUP1 PUSH1 0x80 DUP6 DUP8 SUB SLT ISZERO PUSH2 0x24DA JUMPI PUSH2 0x24D9 PUSH2 0x1EB2 JUMP JUMPDEST JUMPDEST PUSH0 PUSH2 0x24E7 DUP8 DUP3 DUP9 ADD PUSH2 0x20E3 JUMP JUMPDEST SWAP5 POP POP PUSH1 0x20 PUSH2 0x24F8 DUP8 DUP3 DUP9 ADD PUSH2 0x20E3 JUMP JUMPDEST SWAP4 POP POP PUSH1 0x40 PUSH2 0x2509 DUP8 DUP3 DUP9 ADD PUSH2 0x2036 JUMP JUMPDEST SWAP3 POP POP PUSH1 0x60 DUP6 ADD CALLDATALOAD PUSH8 0xFFFFFFFFFFFFFFFF DUP2 GT ISZERO PUSH2 0x252A JUMPI PUSH2 0x2529 PUSH2 0x1EB6 JUMP JUMPDEST JUMPDEST PUSH2 0x2536 DUP8 DUP3 DUP9 ADD PUSH2 0x2495 JUMP JUMPDEST SWAP2 POP POP SWAP3 SWAP6 SWAP2 SWAP5 POP SWAP3 POP JUMP JUMPDEST PUSH0 DUP1 PUSH1 0x40 DUP4 DUP6 SUB SLT ISZERO PUSH2 0x2558 JUMPI PUSH2 0x2557 PUSH2 0x1EB2 JUMP JUMPDEST JUMPDEST PUSH0 PUSH2 0x2565 DUP6 DUP3 DUP7 ADD PUSH2 0x20E3 JUMP JUMPDEST SWAP3 POP POP PUSH1 0x20 PUSH2 0x2576 DUP6 DUP3 DUP7 ADD PUSH2 0x20E3 JUMP JUMPDEST SWAP2 POP POP SWAP3 POP SWAP3 SWAP1 POP JUMP JUMPDEST PUSH32 0x4E487B7100000000000000000000000000000000000000000000000000000000 PUSH0 MSTORE PUSH1 0x22 PUSH1 0x4 MSTORE PUSH1 0x24 PUSH0 REVERT JUMPDEST PUSH0 PUSH1 0x2 DUP3 DIV SWAP1 POP PUSH1 0x1 DUP3 AND DUP1 PUSH2 0x25C4 JUMPI PUSH1 0x7F DUP3 AND SWAP2 POP JUMPDEST PUSH1 0x20 DUP3 LT DUP2 SUB PUSH2 0x25D7 JUMPI PUSH2 0x25D6 PUSH2 0x2580 JUMP JUMPDEST JUMPDEST POP SWAP2 SWAP1 POP JUMP JUMPDEST PUSH0 PUSH1 0x60 DUP3 ADD SWAP1 POP PUSH2 0x25F0 PUSH0 DUP4 ADD DUP7 PUSH2 0x20A5 JUMP JUMPDEST PUSH2 0x25FD PUSH1 0x20 DUP4 ADD DUP6 PUSH2 0x2135 JUMP JUMPDEST PUSH2 0x260A PUSH1 0x40 DUP4 ADD DUP5 PUSH2 0x20A5 JUMP JUMPDEST SWAP5 SWAP4 POP POP POP POP JUMP JUMPDEST PUSH0 DUP2 SWAP1 POP DUP2 PUSH0 MSTORE PUSH1 0x20 PUSH0 KECCAK256 SWAP1 POP SWAP2 SWAP1 POP JUMP JUMPDEST PUSH0 PUSH1 0x20 PUSH1 0x1F DUP4 ADD DIV SWAP1 POP SWAP2 SWAP1 POP JUMP JUMPDEST PUSH0 DUP3 DUP3 SHL SWAP1 POP SWAP3 SWAP2 POP POP JUMP JUMPDEST PUSH0 PUSH1 0x8 DUP4 MUL PUSH2 0x266E PUSH32 0xFFFFFFFFFFFFFFFFFFFFFFFFFFFFFFFFFFFFFFFFFFFFFFFFFFFFFFFFFFFFFFFF DUP3 PUSH2 0x2633 JUMP JUMPDEST PUSH2 0x2678 DUP7 DUP4 PUSH2 0x2633 JUMP JUMPDEST SWAP6 POP DUP1 NOT DUP5 AND SWAP4 POP DUP1 DUP7 AND DUP5 OR SWAP3 POP POP POP SWAP4 SWAP3 POP POP POP JUMP JUMPDEST PUSH0 DUP2 SWAP1 POP SWAP2 SWAP1 POP JUMP JUMPDEST PUSH0 PUSH2 0x26B3 PUSH2 0x26AE PUSH2 0x26A9 DUP5 PUSH2 0x2017 JUMP JUMPDEST PUSH2 0x2690 JUMP JUMPDEST PUSH2 0x2017 JUMP JUMPDEST SWAP1 POP SWAP2 SWAP1 POP JUMP JUMPDEST PUSH0 DUP2 SWAP1 POP SWAP2 SWAP1 POP JUMP JUMPDEST PUSH2 0x26CC DUP4 PUSH2 0x2699 JUMP JUMPDEST PUSH2 0x26E0 PUSH2 0x26D8 DUP3 PUSH2 0x26BA JUMP JUMPDEST DUP5 DUP5 SLOAD PUSH2 0x263F JUMP JUMPDEST DUP3 SSTORE POP POP POP POP JUMP JUMPDEST PUSH0 SWAP1 JUMP JUMPDEST PUSH2 0x26F4 PUSH2 0x26E8 JUMP JUMPDEST PUSH2 0x26FF DUP2 DUP5 DUP5 PUSH2 0x26C3 JUMP JUMPDEST POP POP POP JUMP JUMPDEST JUMPDEST DUP2 DUP2 LT ISZERO PUSH2 0x2722 JUMPI PUSH2 0x2717 PUSH0 DUP3 PUSH2 0x26EC JUMP JUMPDEST PUSH1 0x1 DUP2 ADD SWAP1 POP PUSH2 0x2705 JUMP JUMPDEST POP POP JUMP JUMPDEST PUSH1 0x1F DUP3 GT ISZERO PUSH2 0x2767 JUMPI PUSH2 0x2738 DUP2 PUSH2 0x2612 JUMP JUMPDEST PUSH2 0x2741 DUP5 PUSH2 0x2624 JUMP JUMPDEST DUP2 ADD PUSH1 0x20 DUP6 LT ISZERO PUSH2 0x2750 JUMPI DUP2 SWAP1 POP JUMPDEST PUSH2 0x2764 PUSH2 0x275C DUP6 PUSH2 0x2624 JUMP JUMPDEST DUP4 ADD DUP3 PUSH2 0x2704 JUMP JUMPDEST POP POP JUMPDEST POP POP POP JUMP JUMPDEST PUSH0 DUP3 DUP3 SHR SWAP1 POP SWAP3 SWAP2 POP POP JUMP JUMPDEST PUSH0 PUSH2 0x2787 PUSH0 NOT DUP5 PUSH1 0x8 MUL PUSH2 0x276C JUMP JUMPDEST NOT DUP1 DUP4 AND SWAP2 POP POP SWAP3 SWAP2 POP POP JUMP JUMPDEST PUSH0 PUSH2 0x279F DUP4 DUP4 PUSH2 0x2778 JUMP JUMPDEST SWAP2 POP DUP3 PUSH1 0x2 MUL DUP3 OR SWAP1 POP SWAP3 SWAP2 POP POP JUMP JUMPDEST PUSH2 0x27B8 DUP3 PUSH2 0x1F6D JUMP JUMPDEST PUSH8 0xFFFFFFFFFFFFFFFF DUP2 GT ISZERO PUSH2 0x27D1 JUMPI PUSH2 0x27D0 PUSH2 0x21B5 JUMP JUMPDEST JUMPDEST PUSH2 0x27DB DUP3 SLOAD PUSH2 0x25AD JUMP JUMPDEST PUSH2 0x27E6 DUP3 DUP3 DUP6 PUSH2 0x2726 JUMP JUMPDEST PUSH0 PUSH1 0x20 SWAP1 POP PUSH1 0x1F DUP4 GT PUSH1 0x1 DUP2 EQ PUSH2 0x2817 JUMPI PUSH0 DUP5 ISZERO PUSH2 0x2805 JUMPI DUP3 DUP8 ADD MLOAD SWAP1 POP JUMPDEST PUSH2 0x280F DUP6 DUP3 PUSH2 0x2794 JUMP JUMPDEST DUP7 SSTORE POP PUSH2 0x2876 JUMP JUMPDEST PUSH1 0x1F NOT DUP5 AND PUSH2 0x2825 DUP7 PUSH2 0x2612 JUMP JUMPDEST PUSH0 JUMPDEST DUP3 DUP2 LT ISZERO PUSH2 0x284C JUMPI DUP5 DUP10 ADD MLOAD DUP3 SSTORE PUSH1 0x1 DUP3 ADD SWAP2 POP PUSH1 0x20 DUP6 ADD SWAP5 POP PUSH1 0x20 DUP2 ADD SWAP1 POP PUSH2 0x2827 JUMP JUMPDEST DUP7 DUP4 LT ISZERO PUSH2 0x2869 JUMPI DUP5 DUP10 ADD MLOAD PUSH2 0x2865 PUSH1 0x1F DUP10 AND DUP3 PUSH2 0x2778 JUMP JUMPDEST DUP4 SSTORE POP JUMPDEST PUSH1 0x1 PUSH1 0x2 DUP9 MUL ADD DUP9 SSTORE POP POP POP JUMPDEST POP POP POP POP POP POP JUMP JUMPDEST PUSH0 DUP2 SWAP1 POP SWAP3 SWAP2 POP POP JUMP JUMPDEST PUSH32 0x7B226E616D65223A202200000000000000000000000000000000000000000000 PUSH0 DUP3 ADD MSTORE POP JUMP JUMPDEST PUSH0 PUSH2 0x28BC PUSH1 0xA DUP4 PUSH2 0x287E JUMP JUMPDEST SWAP2 POP PUSH2 0x28C7 DUP3 PUSH2 0x2888 JUMP JUMPDEST PUSH1 0xA DUP3 ADD SWAP1 POP SWAP2 SWAP1 POP JUMP JUMPDEST PUSH0 PUSH2 0x28DC DUP3 PUSH2 0x1F6D JUMP JUMPDEST PUSH2 0x28E6 DUP2 DUP6 PUSH2 0x287E JUMP JUMPDEST SWAP4 POP PUSH2 0x28F6 DUP2 DUP6 PUSH1 0x20 DUP7 ADD PUSH2 0x1F87 JUMP JUMPDEST DUP1 DUP5 ADD SWAP2 POP POP SWAP3 SWAP2 POP POP JUMP JUMPDEST PUSH32 0x222C000000000000000000000000000000000000000000000000000000000000 PUSH0 DUP3 ADD MSTORE POP JUMP JUMPDEST PUSH0 PUSH2 0x2936 PUSH1 0x2 DUP4 PUSH2 0x287E JUMP JUMPDEST SWAP2 POP PUSH2 0x2941 DUP3 PUSH2 0x2902 JUMP JUMPDEST PUSH1 0x2 DUP3 ADD SWAP1 POP SWAP2 SWAP1 POP JUMP JUMPDEST PUSH32 0x226465736372697074696F6E223A202200000000000000000000000000000000 PUSH0 DUP3 ADD MSTORE POP JUMP JUMPDEST PUSH0 PUSH2 0x2980 PUSH1 0x10 DUP4 PUSH2 0x287E JUMP JUMPDEST SWAP2 POP PUSH2 0x298B DUP3 PUSH2 0x294C JUMP JUMPDEST PUSH1 0x10 DUP3 ADD SWAP1 POP SWAP2 SWAP1 POP JUMP JUMPDEST PUSH32 0x22696D616765223A202200000000000000000000000000000000000000000000 PUSH0 DUP3 ADD MSTORE POP JUMP JUMPDEST PUSH0 PUSH2 0x29CA PUSH1 0xA DUP4 PUSH2 0x287E JUMP JUMPDEST SWAP2 POP PUSH2 0x29D5 DUP3 PUSH2 0x2996 JUMP JUMPDEST PUSH1 0xA DUP3 ADD SWAP1 POP SWAP2 SWAP1 POP JUMP JUMPDEST PUSH32 0x227D000000000000000000000000000000000000000000000000000000000000 PUSH0 DUP3 ADD MSTORE POP JUMP JUMPDEST PUSH0 PUSH2 0x2A14 PUSH1 0x2 DUP4 PUSH2 0x287E JUMP JUMPDEST SWAP2 POP PUSH2 0x2A1F DUP3 PUSH2 0x29E0 JUMP JUMPDEST PUSH1 0x2 DUP3 ADD SWAP1 POP SWAP2 SWAP1 POP JUMP JUMPDEST PUSH0 PUSH2 0x2A34 DUP3 PUSH2 0x28B0 JUMP JUMPDEST SWAP2 POP PUSH2 0x2A40 DUP3 DUP7 PUSH2 0x28D2 JUMP JUMPDEST SWAP2 POP PUSH2 0x2A4B DUP3 PUSH2 0x292A JUMP JUMPDEST SWAP2 POP PUSH2 0x2A56 DUP3 PUSH2 0x2974 JUMP JUMPDEST SWAP2 POP PUSH2 0x2A62 DUP3 DUP6 PUSH2 0x28D2 JUMP JUMPDEST SWAP2 POP PUSH2 0x2A6D DUP3 PUSH2 0x292A JUMP JUMPDEST SWAP2 POP PUSH2 0x2A78 DUP3 PUSH2 0x29BE JUMP JUMPDEST SWAP2 POP PUSH2 0x2A84 DUP3 DUP5 PUSH2 0x28D2 JUMP JUMPDEST SWAP2 POP PUSH2 0x2A8F DUP3 PUSH2 0x2A08 JUMP JUMPDEST SWAP2 POP DUP2 SWAP1 POP SWAP5 SWAP4 POP POP POP POP JUMP JUMPDEST PUSH32 0x646174613A6170706C69636174696F6E2F6A736F6E3B6261736536342C000000 PUSH0 DUP3 ADD MSTORE POP JUMP JUMPDEST PUSH0 PUSH2 0x2AD0 PUSH1 0x1D DUP4 PUSH2 0x287E JUMP JUMPDEST SWAP2 POP PUSH2 0x2ADB DUP3 PUSH2 0x2A9C JUMP JUMPDEST PUSH1 0x1D DUP3 ADD SWAP1 POP SWAP2 SWAP1 POP JUMP JUMPDEST PUSH0 PUSH2 0x2AF0 DUP3 PUSH2 0x2AC4 JUMP JUMPDEST SWAP2 POP PUSH2 0x2AFC DUP3 DUP5 PUSH2 0x28D2 JUMP JUMPDEST SWAP2 POP DUP2 SWAP1 POP SWAP3 SWAP2 POP POP JUMP JUMPDEST PUSH32 0x546F6B656E20646F6573206E6F74206578697374000000000000000000000000 PUSH0 DUP3 ADD MSTORE POP JUMP JUMPDEST PUSH0 PUSH2 0x2B3B PUSH1 0x14 DUP4 PUSH2 0x1F77 JUMP JUMPDEST SWAP2 POP PUSH2 0x2B46 DUP3 PUSH2 0x2B07 JUMP JUMPDEST PUSH1 0x20 DUP3 ADD SWAP1 POP SWAP2 SWAP1 POP JUMP JUMPDEST PUSH0 PUSH1 0x20 DUP3 ADD SWAP1 POP DUP2 DUP2 SUB PUSH0 DUP4 ADD MSTORE PUSH2 0x2B68 DUP2 PUSH2 0x2B2F JUMP JUMPDEST SWAP1 POP SWAP2 SWAP1 POP JUMP JUMPDEST PUSH0 PUSH2 0x2B7A DUP3 DUP6 PUSH2 0x28D2 JUMP JUMPDEST SWAP2 POP PUSH2 0x2B86 DUP3 DUP5 PUSH2 0x28D2 JUMP JUMPDEST SWAP2 POP DUP2 SWAP1 POP SWAP4 SWAP3 POP POP POP JUMP JUMPDEST PUSH0 DUP2 MLOAD SWAP1 POP SWAP2 SWAP1 POP JUMP JUMPDEST PUSH0 DUP3 DUP3 MSTORE PUSH1 0x20 DUP3 ADD SWAP1 POP SWAP3 SWAP2 POP POP JUMP JUMPDEST PUSH0 PUSH2 0x2BB6 DUP3 PUSH2 0x2B92 JUMP JUMPDEST PUSH2 0x2BC0 DUP2 DUP6 PUSH2 0x2B9C JUMP JUMPDEST SWAP4 POP PUSH2 0x2BD0 DUP2 DUP6 PUSH1 0x20 DUP7 ADD PUSH2 0x1F87 JUMP JUMPDEST PUSH2 0x2BD9 DUP2 PUSH2 0x1FAF JUMP JUMPDEST DUP5 ADD SWAP2 POP POP SWAP3 SWAP2 POP POP JUMP JUMPDEST PUSH0 PUSH1 0x80 DUP3 ADD SWAP1 POP PUSH2 0x2BF7 PUSH0 DUP4 ADD DUP8 PUSH2 0x20A5 JUMP JUMPDEST PUSH2 0x2C04 PUSH1 0x20 DUP4 ADD DUP7 PUSH2 0x20A5 JUMP JUMPDEST PUSH2 0x2C11 PUSH1 0x40 DUP4 ADD DUP6 PUSH2 0x2135 JUMP JUMPDEST DUP2 DUP2 SUB PUSH1 0x60 DUP4 ADD MSTORE PUSH2 0x2C23 DUP2 DUP5 PUSH2 0x2BAC JUMP JUMPDEST SWAP1 POP SWAP6 SWAP5 POP POP POP POP POP JUMP JUMPDEST PUSH0 DUP2 MLOAD SWAP1 POP PUSH2 0x2C3C DUP2 PUSH2 0x1EE5 JUMP JUMPDEST SWAP3 SWAP2 POP POP JUMP JUMPDEST PUSH0 PUSH1 0x20 DUP3 DUP5 SUB SLT ISZERO PUSH2 0x2C57 JUMPI PUSH2 0x2C56 PUSH2 0x1EB2 JUMP JUMPDEST JUMPDEST PUSH0 PUSH2 0x2C64 DUP5 DUP3 DUP6 ADD PUSH2 0x2C2E JUMP JUMPDEST SWAP2 POP POP SWAP3 SWAP2 POP POP JUMP JUMPDEST PUSH0 PUSH1 0x40 DUP3 ADD SWAP1 POP PUSH2 0x2C80 PUSH0 DUP4 ADD DUP6 PUSH2 0x20A5 JUMP JUMPDEST PUSH2 0x2C8D PUSH1 0x20 DUP4 ADD DUP5 PUSH2 0x2135 JUMP JUMPDEST SWAP4 SWAP3 POP POP POP JUMP JUMPDEST PUSH32 0x4E487B7100000000000000000000000000000000000000000000000000000000 PUSH0 MSTORE PUSH1 0x11 PUSH1 0x4 MSTORE PUSH1 0x24 PUSH0 REVERT JUMPDEST PUSH0 PUSH2 0x2CCB DUP3 PUSH2 0x2017 JUMP JUMPDEST SWAP2 POP PUSH2 0x2CD6 DUP4 PUSH2 0x2017 JUMP JUMPDEST SWAP3 POP DUP3 DUP3 MUL PUSH2 0x2CE4 DUP2 PUSH2 0x2017 JUMP JUMPDEST SWAP2 POP DUP3 DUP3 DIV DUP5 EQ DUP4 ISZERO OR PUSH2 0x2CFB JUMPI PUSH2 0x2CFA PUSH2 0x2C94 JUMP JUMPDEST JUMPDEST POP SWAP3 SWAP2 POP POP JUMP JUMPDEST PUSH0 PUSH2 0x2D0C DUP3 PUSH2 0x2017 JUMP JUMPDEST SWAP2 POP PUSH2 0x2D17 DUP4 PUSH2 0x2017 JUMP JUMPDEST SWAP3 POP DUP3 DUP3 ADD SWAP1 POP DUP1 DUP3 GT ISZERO PUSH2 0x2D2F JUMPI PUSH2 0x2D2E PUSH2 0x2C94 JUMP JUMPDEST JUMPDEST SWAP3 SWAP2 POP POP JUMP JUMPDEST PUSH32 0x4E487B7100000000000000000000000000000000000000000000000000000000 PUSH0 MSTORE PUSH1 0x12 PUSH1 0x4 MSTORE PUSH1 0x24 PUSH0 REVERT JUMPDEST PUSH0 PUSH2 0x2D6C DUP3 PUSH2 0x2017 JUMP JUMPDEST SWAP2 POP PUSH2 0x2D77 DUP4 PUSH2 0x2017 JUMP JUMPDEST SWAP3 POP DUP3 PUSH2 0x2D87 JUMPI PUSH2 0x2D86 PUSH2 0x2D35 JUMP JUMPDEST JUMPDEST DUP3 DUP3 DIV SWAP1 POP SWAP3 SWAP2 POP POP JUMP INVALID COINBASE TIMESTAMP NUMBER PREVRANDAO GASLIMIT CHAINID SELFBALANCE BASEFEE 0x49 0x4A 0x4B 0x4C 0x4D 0x4E 0x4F POP MLOAD MSTORE MSTORE8 SLOAD SSTORE JUMP JUMPI PC MSIZE GAS PUSH2 0x6263 PUSH5 0x6566676869 PUSH11 0x6B6C6D6E6F707172737475 PUSH23 0x7778797A303132333435363738392B2FA2646970667358 0x22 SLT KECCAK256 0xC9 0xE8 SIGNEXTEND MULMOD DUP14 SIGNEXTEND 0x22 PUSH3 0x473363 0x24 OR 0xCC CODESIZE 0x27 POP PUSH30 0x5063EB0FB262525E4F51F01A708264736F6C634300081400330000000000 "
		},
		"gasEstimates": {
			"creation": {
				"codeDepositCost": "2356800",
				"executionCost": "infinite",
				"totalCost": "infinite"
			},
			"external": {
				"approve(address,uint256)": "infinite",
				"balanceOf(address)": "infinite",
				"getApproved(uint256)": "infinite",
				"getTokenImage(uint256)": "infinite",
				"isApprovedForAll(address,address)": "infinite",
				"mintWithBase64(address,string,string,string)": "infinite",
				"mintWithIPFS(address,string,string,string)": "infinite",
				"name()": "infinite",
				"owner()": "2582",
				"ownerOf(uint256)": "infinite",
				"renounceOwnership()": "infinite",
				"safeTransferFrom(address,address,uint256)": "infinite",
				"safeTransferFrom(address,address,uint256,bytes)": "infinite",
				"setApprovalForAll(address,bool)": "infinite",
				"supportsInterface(bytes4)": "881",
				"symbol()": "infinite",
				"tokenURI(uint256)": "infinite",
				"totalSupply()": "2591",
				"transferFrom(address,address,uint256)": "infinite",
				"transferOwnership(address)": "infinite"
			},
			"internal": {
				"_exists(uint256)": "2265"
			}
		},
		"methodIdentifiers": {
			"approve(address,uint256)": "095ea7b3",
			"balanceOf(address)": "70a08231",
			"getApproved(uint256)": "081812fc",
			"getTokenImage(uint256)": "71f0442e",
			"isApprovedForAll(address,address)": "e985e9c5",
			"mintWithBase64(address,string,string,string)": "3a903d23",
			"mintWithIPFS(address,string,string,string)": "c5aef310",
			"name()": "06fdde03",
			"owner()": "8da5cb5b",
			"ownerOf(uint256)": "6352211e",
			"renounceOwnership()": "715018a6",
			"safeTransferFrom(address,address,uint256)": "42842e0e",
			"safeTransferFrom(address,address,uint256,bytes)": "b88d4fde",
			"setApprovalForAll(address,bool)": "a22cb465",
			"supportsInterface(bytes4)": "01ffc9a7",
			"symbol()": "95d89b41",
			"tokenURI(uint256)": "c87b56dd",
			"totalSupply()": "18160ddd",
			"transferFrom(address,address,uint256)": "23b872dd",
			"transferOwnership(address)": "f2fde38b"
		}
	},
	"abi": [
		{
			"inputs": [],
			"stateMutability": "nonpayable",
			"type": "constructor"
		},
		{
			"inputs": [
				{
					"internalType": "address",
					"name": "sender",
					"type": "address"
				},
				{
					"internalType": "uint256",
					"name": "tokenId",
					"type": "uint256"
				},
				{
					"internalType": "address",
					"name": "owner",
					"type": "address"
				}
			],
			"name": "ERC721IncorrectOwner",
			"type": "error"
		},
		{
			"inputs": [
				{
					"internalType": "address",
					"name": "operator",
					"type": "address"
				},
				{
					"internalType": "uint256",
					"name": "tokenId",
					"type": "uint256"
				}
			],
			"name": "ERC721InsufficientApproval",
			"type": "error"
		},
		{
			"inputs": [
				{
					"internalType": "address",
					"name": "approver",
					"type": "address"
				}
			],
			"name": "ERC721InvalidApprover",
			"type": "error"
		},
		{
			"inputs": [
				{
					"internalType": "address",
					"name": "operator",
					"type": "address"
				}
			],
			"name": "ERC721InvalidOperator",
			"type": "error"
		},
		{
			"inputs": [
				{
					"internalType": "address",
					"name": "owner",
					"type": "address"
				}
			],
			"name": "ERC721InvalidOwner",
			"type": "error"
		},
		{
			"inputs": [
				{
					"internalType": "address",
					"name": "receiver",
					"type": "address"
				}
			],
			"name": "ERC721InvalidReceiver",
			"type": "error"
		},
		{
			"inputs": [
				{
					"internalType": "address",
					"name": "sender",
					"type": "address"
				}
			],
			"name": "ERC721InvalidSender",
			"type": "error"
		},
		{
			"inputs": [
				{
					"internalType": "uint256",
					"name": "tokenId",
					"type": "uint256"
				}
			],
			"name": "ERC721NonexistentToken",
			"type": "error"
		},
		{
			"inputs": [
				{
					"internalType": "address",
					"name": "owner",
					"type": "address"
				}
			],
			"name": "OwnableInvalidOwner",
			"type": "error"
		},
		{
			"inputs": [
				{
					"internalType": "address",
					"name": "account",
					"type": "address"
				}
			],
			"name": "OwnableUnauthorizedAccount",
			"type": "error"
		},
		{
			"anonymous": false,
			"inputs": [
				{
					"indexed": true,
					"internalType": "address",
					"name": "owner",
					"type": "address"
				},
				{
					"indexed": true,
					"internalType": "address",
					"name": "approved",
					"type": "address"
				},
				{
					"indexed": true,
					"internalType": "uint256",
					"name": "tokenId",
					"type": "uint256"
				}
			],
			"name": "Approval",
			"type": "event"
		},
		{
			"anonymous": false,
			"inputs": [
				{
					"indexed": true,
					"internalType": "address",
					"name": "owner",
					"type": "address"
				},
				{
					"indexed": true,
					"internalType": "address",
					"name": "operator",
					"type": "address"
				},
				{
					"indexed": false,
					"internalType": "bool",
					"name": "approved",
					"type": "bool"
				}
			],
			"name": "ApprovalForAll",
			"type": "event"
		},
		{
			"anonymous": false,
			"inputs": [
				{
					"indexed": false,
					"internalType": "uint256",
					"name": "_fromTokenId",
					"type": "uint256"
				},
				{
					"indexed": false,
					"internalType": "uint256",
					"name": "_toTokenId",
					"type": "uint256"
				}
			],
			"name": "BatchMetadataUpdate",
			"type": "event"
		},
		{
			"anonymous": false,
			"inputs": [
				{
					"indexed": false,
					"internalType": "uint256",
					"name": "_tokenId",
					"type": "uint256"
				}
			],
			"name": "MetadataUpdate",
			"type": "event"
		},
		{
			"anonymous": false,
			"inputs": [
				{
					"indexed": true,
					"internalType": "address",
					"name": "previousOwner",
					"type": "address"
				},
				{
					"indexed": true,
					"internalType": "address",
					"name": "newOwner",
					"type": "address"
				}
			],
			"name": "OwnershipTransferred",
			"type": "event"
		},
		{
			"anonymous": false,
			"inputs": [
				{
					"indexed": true,
					"internalType": "address",
					"name": "from",
					"type": "address"
				},
				{
					"indexed": true,
					"internalType": "address",
					"name": "to",
					"type": "address"
				},
				{
					"indexed": true,
					"internalType": "uint256",
					"name": "tokenId",
					"type": "uint256"
				}
			],
			"name": "Transfer",
			"type": "event"
		},
		{
			"inputs": [
				{
					"internalType": "address",
					"name": "to",
					"type": "address"
				},
				{
					"internalType": "uint256",
					"name": "tokenId",
					"type": "uint256"
				}
			],
			"name": "approve",
			"outputs": [],
			"stateMutability": "nonpayable",
			"type": "function"
		},
		{
			"inputs": [
				{
					"internalType": "address",
					"name": "owner",
					"type": "address"
				}
			],
			"name": "balanceOf",
			"outputs": [
				{
					"internalType": "uint256",
					"name": "",
					"type": "uint256"
				}
			],
			"stateMutability": "view",
			"type": "function"
		},
		{
			"inputs": [
				{
					"internalType": "uint256",
					"name": "tokenId",
					"type": "uint256"
				}
			],
			"name": "getApproved",
			"outputs": [
				{
					"internalType": "address",
					"name": "",
					"type": "address"
				}
			],
			"stateMutability": "view",
			"type": "function"
		},
		{
			"inputs": [
				{
					"internalType": "uint256",
					"name": "tokenId",
					"type": "uint256"
				}
			],
			"name": "getTokenImage",
			"outputs": [
				{
					"internalType": "string",
					"name": "",
					"type": "string"
				}
			],
			"stateMutability": "view",
			"type": "function"
		},
		{
			"inputs": [
				{
					"internalType": "address",
					"name": "owner",
					"type": "address"
				},
				{
					"internalType": "address",
					"name": "operator",
					"type": "address"
				}
			],
			"name": "isApprovedForAll",
			"outputs": [
				{
					"internalType": "bool",
					"name": "",
					"type": "bool"
				}
			],
			"stateMutability": "view",
			"type": "function"
		},
		{
			"inputs": [
				{
					"internalType": "address",
					"name": "recipient",
					"type": "address"
				},
				{
					"internalType": "string",
					"name": "base64Image",
					"type": "string"
				},
				{
					"internalType": "string",
					"name": "name",
					"type": "string"
				},
				{
					"internalType": "string",
					"name": "description",
					"type": "string"
				}
			],
			"name": "mintWithBase64",
			"outputs": [
				{
					"internalType": "uint256",
					"name": "",
					"type": "uint256"
				}
			],
			"stateMutability": "nonpayable",
			"type": "function"
		},
		{
			"inputs": [
				{
					"internalType": "address",
					"name": "recipient",
					"type": "address"
				},
				{
					"internalType": "string",
					"name": "imageURI",
					"type": "string"
				},
				{
					"internalType": "string",
					"name": "name",
					"type": "string"
				},
				{
					"internalType": "string",
					"name": "description",
					"type": "string"
				}
			],
			"name": "mintWithIPFS",
			"outputs": [
				{
					"internalType": "uint256",
					"name": "",
					"type": "uint256"
				}
			],
			"stateMutability": "nonpayable",
			"type": "function"
		},
		{
			"inputs": [],
			"name": "name",
			"outputs": [
				{
					"internalType": "string",
					"name": "",
					"type": "string"
				}
			],
			"stateMutability": "view",
			"type": "function"
		},
		{
			"inputs": [],
			"name": "owner",
			"outputs": [
				{
					"internalType": "address",
					"name": "",
					"type": "address"
				}
			],
			"stateMutability": "view",
			"type": "function"
		},
		{
			"inputs": [
				{
					"internalType": "uint256",
					"name": "tokenId",
					"type": "uint256"
				}
			],
			"name": "ownerOf",
			"outputs": [
				{
					"internalType": "address",
					"name": "",
					"type": "address"
				}
			],
			"stateMutability": "view",
			"type": "function"
		},
		{
			"inputs": [],
			"name": "renounceOwnership",
			"outputs": [],
			"stateMutability": "nonpayable",
			"type": "function"
		},
		{
			"inputs": [
				{
					"internalType": "address",
					"name": "from",
					"type": "address"
				},
				{
					"internalType": "address",
					"name": "to",
					"type": "address"
				},
				{
					"internalType": "uint256",
					"name": "tokenId",
					"type": "uint256"
				}
			],
			"name": "safeTransferFrom",
			"outputs": [],
			"stateMutability": "nonpayable",
			"type": "function"
		},
		{
			"inputs": [
				{
					"internalType": "address",
					"name": "from",
					"type": "address"
				},
				{
					"internalType": "address",
					"name": "to",
					"type": "address"
				},
				{
					"internalType": "uint256",
					"name": "tokenId",
					"type": "uint256"
				},
				{
					"internalType": "bytes",
					"name": "data",
					"type": "bytes"
				}
			],
			"name": "safeTransferFrom",
			"outputs": [],
			"stateMutability": "nonpayable",
			"type": "function"
		},
		{
			"inputs": [
				{
					"internalType": "address",
					"name": "operator",
					"type": "address"
				},
				{
					"internalType": "bool",
					"name": "approved",
					"type": "bool"
				}
			],
			"name": "setApprovalForAll",
			"outputs": [],
			"stateMutability": "nonpayable",
			"type": "function"
		},
		{
			"inputs": [
				{
					"internalType": "bytes4",
					"name": "interfaceId",
					"type": "bytes4"
				}
			],
			"name": "supportsInterface",
			"outputs": [
				{
					"internalType": "bool",
					"name": "",
					"type": "bool"
				}
			],
			"stateMutability": "view",
			"type": "function"
		},
		{
			"inputs": [],
			"name": "symbol",
			"outputs": [
				{
					"internalType": "string",
					"name": "",
					"type": "string"
				}
			],
			"stateMutability": "view",
			"type": "function"
		},
		{
			"inputs": [
				{
					"internalType": "uint256",
					"name": "tokenId",
					"type": "uint256"
				}
			],
			"name": "tokenURI",
			"outputs": [
				{
					"internalType": "string",
					"name": "",
					"type": "string"
				}
			],
			"stateMutability": "view",
			"type": "function"
		},
		{
			"inputs": [],
			"name": "totalSupply",
			"outputs": [
				{
					"internalType": "uint256",
					"name": "",
					"type": "uint256"
				}
			],
			"stateMutability": "view",
			"type": "function"
		},
		{
			"inputs": [
				{
					"internalType": "address",
					"name": "from",
					"type": "address"
				},
				{
					"internalType": "address",
					"name": "to",
					"type": "address"
				},
				{
					"internalType": "uint256",
					"name": "tokenId",
					"type": "uint256"
				}
			],
			"name": "transferFrom",
			"outputs": [],
			"stateMutability": "nonpayable",
			"type": "function"
		},
		{
			"inputs": [
				{
					"internalType": "address",
					"name": "newOwner",
					"type": "address"
				}
			],
			"name": "transferOwnership",
			"outputs": [],
			"stateMutability": "nonpayable",
			"type": "function"
		}
	]
}